{"contracts/BridgeConnector.sol":{"BridgeConnector":{"abi":[{"inputs":[{"internalType":"address","name":"wrappedNativeToken","type":"address"},{"internalType":"address","name":"axelarGateway","type":"address"},{"internalType":"address","name":"connext","type":"address"},{"internalType":"address","name":"registry","type":"address"}],"stateMutability":"nonpayable","type":"constructor"},{"inputs":[],"name":"NAMESPACE","outputs":[{"internalType":"bytes32","name":"","type":"bytes32"}],"stateMutability":"view","type":"function"},{"inputs":[{"internalType":"uint8","name":"source","type":"uint8"},{"internalType":"uint256","name":"chainId","type":"uint256"},{"internalType":"address","name":"token","type":"address"},{"internalType":"uint256","name":"amountIn","type":"uint256"},{"internalType":"uint256","name":"minAmountOut","type":"uint256"},{"internalType":"address","name":"recipient","type":"address"},{"internalType":"bytes","name":"data","type":"bytes"}],"name":"bridge","outputs":[],"stateMutability":"nonpayable","type":"function"},{"inputs":[],"name":"registry","outputs":[{"internalType":"address","name":"","type":"address"}],"stateMutability":"view","type":"function"},{"stateMutability":"payable","type":"receive"}],"evm":{"bytecode":{"linkReferences":{},"object":"6101006040523480156200001257600080fd5b5060405162001d4b38038062001d4b833981016040819052620000359162000081565b6001600160601b0319606091821b811660805293811b841660a05291821b831660c052901b1660e052620000dd565b80516001600160a01b03811681146200007c57600080fd5b919050565b6000806000806080858703121562000097578384fd5b620000a28562000064565b9350620000b26020860162000064565b9250620000c26040860162000064565b9150620000d26060860162000064565b905092959194509250565b60805160601c60a05160601c60c05160601c60e05160601c611c1b6200013060003960008181610661015261069d01526000818161048b01526104b201526000610f0001526000609d0152611c1b6000f3fe6080604052600436106100385760003560e01c806344ba1fca146100445780637b1039991461008b578063f9cf051f146100e45761003f565b3661003f57005b600080fd5b34801561005057600080fd5b506100787fdca1563b323fd68c991db2e5827e72db329017714e37482092e6d078e07ad4e781565b6040519081526020015b60405180910390f35b34801561009757600080fd5b506100bf7f000000000000000000000000000000000000000000000000000000000000000081565b60405173ffffffffffffffffffffffffffffffffffffffff9091168152602001610082565b3480156100f057600080fd5b506101046100ff36600461180b565b610106565b005b4686141561015b5760405162461bcd60e51b815260206004820152601e60248201527f4252494447455f434f4e4e4543544f525f53414d455f434841494e5f4f50000060448201526064015b60405180910390fd5b60008760ff16600281111561018057634e487b7160e01b600052602160045260246000fd5b600281111561019f57634e487b7160e01b600052602160045260246000fd5b14156101b8576101b38686868686866102b9565b6102b0565b60018760ff1660028111156101dd57634e487b7160e01b600052602160045260246000fd5b60028111156101fc57634e487b7160e01b600052602160045260246000fd5b1415610210576101b3868686868686610385565b60028760ff16600281111561023557634e487b7160e01b600052602160045260246000fd5b600281111561025457634e487b7160e01b600052602160045260246000fd5b1415610268576101b3868686868686610553565b60405162461bcd60e51b815260206004820152601f60248201527f4252494447455f434f4e4e4543544f525f494e56414c49445f534f55524345006044820152606401610152565b50505050505050565b60006102c487610778565b15905060006102d246610778565b90508080156102de5750815b156102f6576102f1888888888888610791565b61037b565b801580156103015750815b15610314576102f188888888888861091f565b80158015610320575081155b15610333576102f1888888888888610ae3565b60405162461bcd60e51b815260206004820152601b60248201527f484f505f4252494447455f4f505f4e4f545f535550504f5254454400000000006044820152606401610152565b5050505050505050565b8051156103d45760405162461bcd60e51b815260206004820152601a60248201527f4158454c41525f494e56414c49445f444154415f4c454e4754480000000000006044820152606401610152565b60006103df87610c1f565b905060008673ffffffffffffffffffffffffffffffffffffffff166395d89b416040518163ffffffff1660e01b815260040160006040518083038186803b15801561042957600080fd5b505afa15801561043d573d6000803e3d6000fd5b505050506040513d6000823e601f3d9081017fffffffffffffffffffffffffffffffffffffffffffffffffffffffffffffffe01682016040526104839190810190611793565b90506104b0877f000000000000000000000000000000000000000000000000000000000000000088610dfd565b7f000000000000000000000000000000000000000000000000000000000000000073ffffffffffffffffffffffffffffffffffffffff166326ef699d836104f687610e19565b848a6040518563ffffffff1660e01b81526004016105179493929190611953565b600060405180830381600087803b15801561053157600080fd5b505af1158015610545573d6000803e3d6000fd5b505050505050505050505050565b60208151146105a45760405162461bcd60e51b815260206004820152601b60248201527f434f4e4e4558545f494e56414c49445f444154415f4c454e47544800000000006044820152606401610152565b6000818060200190518101906105ba919061177b565b90508481111561060c5760405162461bcd60e51b815260206004820181905260248201527f434f4e4e4558545f52454c415945525f4645455f47545f414d4f554e545f494e6044820152606401610152565b600061061788610e3c565b90506000868611610648578661062e876064611adb565b6106389190611abb565b610643906064611b18565b61064b565b60005b905060006106598489611b18565b9050610686897f00000000000000000000000000000000000000000000000000000000000000008a610dfd565b73ffffffffffffffffffffffffffffffffffffffff7f0000000000000000000000000000000000000000000000000000000000000000166393f18ac584888c30868860006040519080825280601f01601f1916602001820160405280156106f4576020820181803683370190505b508c6040518963ffffffff1660e01b815260040161071998979695949392919061199e565b602060405180830381600087803b15801561073357600080fd5b505af1158015610747573d6000803e3d6000fd5b505050506040513d601f19601f8201168201806040525081019061076b919061177b565b5050505050505050505050565b600060018214806107895750600582145b90505b919050565b60808151146107e25760405162461bcd60e51b815260206004820152601d60248201527f484f505f494e56414c49445f4c315f4c325f444154415f4c454e4754480000006044820152606401610152565b600080600080848060200190518101906107fc91906116dd565b93509350935093504283116108535760405162461bcd60e51b815260206004820152601b60248201527f484f505f4252494447455f494e56414c49445f444541444c494e4500000000006044820152606401610152565b6000610860858b8b610efc565b6040517fdeace8f5000000000000000000000000000000000000000000000000000000008152600481018d905273ffffffffffffffffffffffffffffffffffffffff8981166024830152604482018c9052606482018b90526084820187905285811660a483015260c482018590529192509086169063deace8f590839060e4016000604051808303818588803b1580156108f957600080fd5b505af115801561090d573d6000803e3d6000fd5b50505050505050505050505050505050565b60608151146109705760405162461bcd60e51b815260206004820152601d60248201527f484f505f494e56414c49445f4c325f4c325f444154415f4c454e4754480000006044820152606401610152565b6000806000838060200190518101906109899190611725565b9250925092504281116109de5760405162461bcd60e51b815260206004820152601b60248201527f484f505f4252494447455f494e56414c49445f444541444c494e4500000000006044820152606401610152565b600060026109ec888a611b18565b6109f69190611abb565b610a009089611b18565b90508373ffffffffffffffffffffffffffffffffffffffff1663eea0d7b2610a29868c8c610efc565b6040517fffffffff0000000000000000000000000000000000000000000000000000000060e084901b168152600481018e905273ffffffffffffffffffffffffffffffffffffffff8a166024820152604481018c905260648101879052608481018590524260a482015260c481018b905260e48101869052610104016000604051808303818588803b158015610abe57600080fd5b505af1158015610ad2573d6000803e3d6000fd5b505050505050505050505050505050565b6040815114610b345760405162461bcd60e51b815260206004820152601d60248201527f484f505f494e56414c49445f4c325f4c315f444154415f4c454e4754480000006044820152606401610152565b60008082806020019051810190610b4b91906116b0565b915091506000610b5c838989610efc565b6040517feea0d7b2000000000000000000000000000000000000000000000000000000008152600481018b905273ffffffffffffffffffffffffffffffffffffffff8781166024830152604482018a905260648201859052608482018990524260a4830152600060c4830181905260e48301529192509084169063eea0d7b2908390610104016000604051808303818588803b158015610bfb57600080fd5b505af1158015610c0f573d6000803e3d6000fd5b5050505050505050505050505050565b60606001821415610c64575060408051808201909152600881527f457468657265756d000000000000000000000000000000000000000000000000602082015261078c565b6089821415610ca7575060408051808201909152600781527f506f6c79676f6e00000000000000000000000000000000000000000000000000602082015261078c565b61a4b1821415610ceb575060408051808201909152600881527f617262697472756d000000000000000000000000000000000000000000000000602082015261078c565b6038821415610d2e575060408051808201909152600781527f62696e616e636500000000000000000000000000000000000000000000000000602082015261078c565b60fa821415610d71575060408051808201909152600681527f46616e746f6d0000000000000000000000000000000000000000000000000000602082015261078c565b61a86a821415610db5575060408051808201909152600981527f4176616c616e6368650000000000000000000000000000000000000000000000602082015261078c565b60405162461bcd60e51b815260206004820152601760248201527f4158454c41525f554e4b4e4f574e5f434841494e5f49440000000000000000006044820152606401610152565b610e0983836000610fef565b610e14838383610fef565b505050565b606061078973ffffffffffffffffffffffffffffffffffffffff8316601461119d565b60006001821415610e5157506265746861078c565b6089821415610e65575063706f6c7961078c565b61a4b1821415610e7a5750636172626f61078c565b600a821415610e8e5750636f70746961078c565b6064821415610ea1575062676e6f61078c565b6038821415610eb4575062626e6261078c565b60405162461bcd60e51b815260206004820152601860248201527f434f4e4e4558545f554e4b4e4f574e5f434841494e5f494400000000000000006044820152606401610152565b60007f000000000000000000000000000000000000000000000000000000000000000073ffffffffffffffffffffffffffffffffffffffff168373ffffffffffffffffffffffffffffffffffffffff161415610fda57506040517f2e1a7d4d00000000000000000000000000000000000000000000000000000000815260048101829052819073ffffffffffffffffffffffffffffffffffffffff841690632e1a7d4d90602401600060405180830381600087803b158015610fbd57600080fd5b505af1158015610fd1573d6000803e3d6000fd5b50505050610fe8565b506000610fe8838584610dfd565b9392505050565b80158061109e57506040517fdd62ed3e00000000000000000000000000000000000000000000000000000000815230600482015273ffffffffffffffffffffffffffffffffffffffff838116602483015284169063dd62ed3e9060440160206040518083038186803b15801561106457600080fd5b505afa158015611078573d6000803e3d6000fd5b505050506040513d601f19601f8201168201806040525081019061109c919061177b565b155b6111105760405162461bcd60e51b815260206004820152603660248201527f5361666545524332303a20617070726f76652066726f6d206e6f6e2d7a65726f60448201527f20746f206e6f6e2d7a65726f20616c6c6f77616e6365000000000000000000006064820152608401610152565b6040805173ffffffffffffffffffffffffffffffffffffffff8416602482015260448082018490528251808303909101815260649091019091526020810180517bffffffffffffffffffffffffffffffffffffffffffffffffffffffff167f095ea7b300000000000000000000000000000000000000000000000000000000179052610e1490849061140c565b606060006111ac836002611adb565b6111b7906002611aa3565b67ffffffffffffffff8111156111dd57634e487b7160e01b600052604160045260246000fd5b6040519080825280601f01601f191660200182016040528015611207576020820181803683370190505b5090507f30000000000000000000000000000000000000000000000000000000000000008160008151811061124c57634e487b7160e01b600052603260045260246000fd5b60200101907effffffffffffffffffffffffffffffffffffffffffffffffffffffffffffff1916908160001a9053507f7800000000000000000000000000000000000000000000000000000000000000816001815181106112bd57634e487b7160e01b600052603260045260246000fd5b60200101907effffffffffffffffffffffffffffffffffffffffffffffffffffffffffffff1916908160001a90535060006112f9846002611adb565b611304906001611aa3565b90505b60018111156113bd577f303132333435363738396162636465660000000000000000000000000000000085600f166010811061135357634e487b7160e01b600052603260045260246000fd5b1a60f81b82828151811061137757634e487b7160e01b600052603260045260246000fd5b60200101907effffffffffffffffffffffffffffffffffffffffffffffffffffffffffffff1916908160001a90535060049490941c936113b681611b5f565b9050611307565b508315610fe85760405162461bcd60e51b815260206004820181905260248201527f537472696e67733a20686578206c656e67746820696e73756666696369656e746044820152606401610152565b600061146e826040518060400160405280602081526020017f5361666545524332303a206c6f772d6c6576656c2063616c6c206661696c65648152508573ffffffffffffffffffffffffffffffffffffffff166114fe9092919063ffffffff16565b805190915015610e14578080602001905181019061148c919061175b565b610e145760405162461bcd60e51b815260206004820152602a60248201527f5361666545524332303a204552433230206f7065726174696f6e20646964206e60448201527f6f742073756363656564000000000000000000000000000000000000000000006064820152608401610152565b606061150d8484600085611515565b949350505050565b60608247101561158d5760405162461bcd60e51b815260206004820152602660248201527f416464726573733a20696e73756666696369656e742062616c616e636520666f60448201527f722063616c6c00000000000000000000000000000000000000000000000000006064820152608401610152565b73ffffffffffffffffffffffffffffffffffffffff85163b6115f15760405162461bcd60e51b815260206004820152601d60248201527f416464726573733a2063616c6c20746f206e6f6e2d636f6e74726163740000006044820152606401610152565b6000808673ffffffffffffffffffffffffffffffffffffffff16858760405161161a9190611924565b60006040518083038185875af1925050503d8060008114611657576040519150601f19603f3d011682016040523d82523d6000602084013e61165c565b606091505b509150915061166c828286611677565b979650505050505050565b60608315611686575081610fe8565b8251156116965782518084602001fd5b8160405162461bcd60e51b81526004016101529190611940565b600080604083850312156116c2578182fd5b82516116cd81611bc0565b6020939093015192949293505050565b600080600080608085870312156116f2578182fd5b84516116fd81611bc0565b60208601516040870151919550935061171581611bc0565b6060959095015193969295505050565b600080600060608486031215611739578283fd5b835161174481611bc0565b602085015160409095015190969495509392505050565b60006020828403121561176c578081fd5b81518015158114610fe8578182fd5b60006020828403121561178c578081fd5b5051919050565b6000602082840312156117a4578081fd5b815167ffffffffffffffff8111156117ba578182fd5b8201601f810184136117ca578182fd5b80516117dd6117d882611a5d565b611a0e565b8181528560208385010111156117f1578384fd5b611802826020830160208601611b2f565b95945050505050565b600080600080600080600060e0888a031215611825578283fd5b873560ff81168114611835578384fd5b965060208801359550604088013561184c81611bc0565b9450606088013593506080880135925060a088013561186a81611bc0565b915060c088013567ffffffffffffffff811115611885578182fd5b8801601f81018a13611895578182fd5b80356118a36117d882611a5d565b8181528b60208385010111156118b7578384fd5b816020840160208301379081016020019290925250959894975092955090939092565b600081518084526118f2816020860160208601611b2f565b601f017fffffffffffffffffffffffffffffffffffffffffffffffffffffffffffffffe0169290920160200192915050565b60008251611936818460208701611b2f565b9190910192915050565b600060208252610fe860208301846118da565b60006080825261196660808301876118da565b828103602084015261197881876118da565b9050828103604084015261198c81866118da565b91505082606083015295945050505050565b600061010063ffffffff8b16835273ffffffffffffffffffffffffffffffffffffffff808b166020850152808a1660408501528089166060850152508660808401528560a08401528060c08401526119f8818401866118da565b9150508260e08301529998505050505050505050565b604051601f82017fffffffffffffffffffffffffffffffffffffffffffffffffffffffffffffffe016810167ffffffffffffffff81118282101715611a5557611a55611baa565b604052919050565b600067ffffffffffffffff821115611a7757611a77611baa565b50601f017fffffffffffffffffffffffffffffffffffffffffffffffffffffffffffffffe01660200190565b60008219821115611ab657611ab6611b94565b500190565b600082611ad657634e487b7160e01b81526012600452602481fd5b500490565b6000817fffffffffffffffffffffffffffffffffffffffffffffffffffffffffffffffff0483118215151615611b1357611b13611b94565b500290565b600082821015611b2a57611b2a611b94565b500390565b60005b83811015611b4a578181015183820152602001611b32565b83811115611b59576000848401525b50505050565b600081611b6e57611b6e611b94565b507fffffffffffffffffffffffffffffffffffffffffffffffffffffffffffffffff0190565b634e487b7160e01b600052601160045260246000fd5b634e487b7160e01b600052604160045260246000fd5b73ffffffffffffffffffffffffffffffffffffffff81168114611be257600080fd5b5056fea26469706673582212200f40aaa8196e61fdbefdaefcb72baf48fd7f2513cc33d6bb7420fec01b19c0b264736f6c63430008030033","opcodes":"PUSH2 0x100 PUSH1 0x40 MSTORE CALLVALUE DUP1 ISZERO PUSH3 0x12 JUMPI PUSH1 0x0 DUP1 REVERT JUMPDEST POP PUSH1 0x40 MLOAD PUSH3 0x1D4B CODESIZE SUB DUP1 PUSH3 0x1D4B DUP4 CODECOPY DUP2 ADD PUSH1 0x40 DUP2 SWAP1 MSTORE PUSH3 0x35 SWAP2 PUSH3 0x81 JUMP JUMPDEST PUSH1 0x1 PUSH1 0x1 PUSH1 0x60 SHL SUB NOT PUSH1 0x60 SWAP2 DUP3 SHL DUP2 AND PUSH1 0x80 MSTORE SWAP4 DUP2 SHL DUP5 AND PUSH1 0xA0 MSTORE SWAP2 DUP3 SHL DUP4 AND PUSH1 0xC0 MSTORE SWAP1 SHL AND PUSH1 0xE0 MSTORE PUSH3 0xDD JUMP JUMPDEST DUP1 MLOAD PUSH1 0x1 PUSH1 0x1 PUSH1 0xA0 SHL SUB DUP2 AND DUP2 EQ PUSH3 0x7C JUMPI PUSH1 0x0 DUP1 REVERT JUMPDEST SWAP2 SWAP1 POP JUMP JUMPDEST PUSH1 0x0 DUP1 PUSH1 0x0 DUP1 PUSH1 0x80 DUP6 DUP8 SUB SLT ISZERO PUSH3 0x97 JUMPI DUP4 DUP5 REVERT JUMPDEST PUSH3 0xA2 DUP6 PUSH3 0x64 JUMP JUMPDEST SWAP4 POP PUSH3 0xB2 PUSH1 0x20 DUP7 ADD PUSH3 0x64 JUMP JUMPDEST SWAP3 POP PUSH3 0xC2 PUSH1 0x40 DUP7 ADD PUSH3 0x64 JUMP JUMPDEST SWAP2 POP PUSH3 0xD2 PUSH1 0x60 DUP7 ADD PUSH3 0x64 JUMP JUMPDEST SWAP1 POP SWAP3 SWAP6 SWAP2 SWAP5 POP SWAP3 POP JUMP JUMPDEST PUSH1 0x80 MLOAD PUSH1 0x60 SHR PUSH1 0xA0 MLOAD PUSH1 0x60 SHR PUSH1 0xC0 MLOAD PUSH1 0x60 SHR PUSH1 0xE0 MLOAD PUSH1 0x60 SHR PUSH2 0x1C1B PUSH3 0x130 PUSH1 0x0 CODECOPY PUSH1 0x0 DUP2 DUP2 PUSH2 0x661 ADD MSTORE PUSH2 0x69D ADD MSTORE PUSH1 0x0 DUP2 DUP2 PUSH2 0x48B ADD MSTORE PUSH2 0x4B2 ADD MSTORE PUSH1 0x0 PUSH2 0xF00 ADD MSTORE PUSH1 0x0 PUSH1 0x9D ADD MSTORE PUSH2 0x1C1B PUSH1 0x0 RETURN INVALID PUSH1 0x80 PUSH1 0x40 MSTORE PUSH1 0x4 CALLDATASIZE LT PUSH2 0x38 JUMPI PUSH1 0x0 CALLDATALOAD PUSH1 0xE0 SHR DUP1 PUSH4 0x44BA1FCA EQ PUSH2 0x44 JUMPI DUP1 PUSH4 0x7B103999 EQ PUSH2 0x8B JUMPI DUP1 PUSH4 0xF9CF051F EQ PUSH2 0xE4 JUMPI PUSH2 0x3F JUMP JUMPDEST CALLDATASIZE PUSH2 0x3F JUMPI STOP JUMPDEST PUSH1 0x0 DUP1 REVERT JUMPDEST CALLVALUE DUP1 ISZERO PUSH2 0x50 JUMPI PUSH1 0x0 DUP1 REVERT JUMPDEST POP PUSH2 0x78 PUSH32 0xDCA1563B323FD68C991DB2E5827E72DB329017714E37482092E6D078E07AD4E7 DUP2 JUMP JUMPDEST PUSH1 0x40 MLOAD SWAP1 DUP2 MSTORE PUSH1 0x20 ADD JUMPDEST PUSH1 0x40 MLOAD DUP1 SWAP2 SUB SWAP1 RETURN JUMPDEST CALLVALUE DUP1 ISZERO PUSH2 0x97 JUMPI PUSH1 0x0 DUP1 REVERT JUMPDEST POP PUSH2 0xBF PUSH32 0x0 DUP2 JUMP JUMPDEST PUSH1 0x40 MLOAD PUSH20 0xFFFFFFFFFFFFFFFFFFFFFFFFFFFFFFFFFFFFFFFF SWAP1 SWAP2 AND DUP2 MSTORE PUSH1 0x20 ADD PUSH2 0x82 JUMP JUMPDEST CALLVALUE DUP1 ISZERO PUSH2 0xF0 JUMPI PUSH1 0x0 DUP1 REVERT JUMPDEST POP PUSH2 0x104 PUSH2 0xFF CALLDATASIZE PUSH1 0x4 PUSH2 0x180B JUMP JUMPDEST PUSH2 0x106 JUMP JUMPDEST STOP JUMPDEST CHAINID DUP7 EQ ISZERO PUSH2 0x15B JUMPI PUSH1 0x40 MLOAD PUSH3 0x461BCD PUSH1 0xE5 SHL DUP2 MSTORE PUSH1 0x20 PUSH1 0x4 DUP3 ADD MSTORE PUSH1 0x1E PUSH1 0x24 DUP3 ADD MSTORE PUSH32 0x4252494447455F434F4E4E4543544F525F53414D455F434841494E5F4F500000 PUSH1 0x44 DUP3 ADD MSTORE PUSH1 0x64 ADD JUMPDEST PUSH1 0x40 MLOAD DUP1 SWAP2 SUB SWAP1 REVERT JUMPDEST PUSH1 0x0 DUP8 PUSH1 0xFF AND PUSH1 0x2 DUP2 GT ISZERO PUSH2 0x180 JUMPI PUSH4 0x4E487B71 PUSH1 0xE0 SHL PUSH1 0x0 MSTORE PUSH1 0x21 PUSH1 0x4 MSTORE PUSH1 0x24 PUSH1 0x0 REVERT JUMPDEST PUSH1 0x2 DUP2 GT ISZERO PUSH2 0x19F JUMPI PUSH4 0x4E487B71 PUSH1 0xE0 SHL PUSH1 0x0 MSTORE PUSH1 0x21 PUSH1 0x4 MSTORE PUSH1 0x24 PUSH1 0x0 REVERT JUMPDEST EQ ISZERO PUSH2 0x1B8 JUMPI PUSH2 0x1B3 DUP7 DUP7 DUP7 DUP7 DUP7 DUP7 PUSH2 0x2B9 JUMP JUMPDEST PUSH2 0x2B0 JUMP JUMPDEST PUSH1 0x1 DUP8 PUSH1 0xFF AND PUSH1 0x2 DUP2 GT ISZERO PUSH2 0x1DD JUMPI PUSH4 0x4E487B71 PUSH1 0xE0 SHL PUSH1 0x0 MSTORE PUSH1 0x21 PUSH1 0x4 MSTORE PUSH1 0x24 PUSH1 0x0 REVERT JUMPDEST PUSH1 0x2 DUP2 GT ISZERO PUSH2 0x1FC JUMPI PUSH4 0x4E487B71 PUSH1 0xE0 SHL PUSH1 0x0 MSTORE PUSH1 0x21 PUSH1 0x4 MSTORE PUSH1 0x24 PUSH1 0x0 REVERT JUMPDEST EQ ISZERO PUSH2 0x210 JUMPI PUSH2 0x1B3 DUP7 DUP7 DUP7 DUP7 DUP7 DUP7 PUSH2 0x385 JUMP JUMPDEST PUSH1 0x2 DUP8 PUSH1 0xFF AND PUSH1 0x2 DUP2 GT ISZERO PUSH2 0x235 JUMPI PUSH4 0x4E487B71 PUSH1 0xE0 SHL PUSH1 0x0 MSTORE PUSH1 0x21 PUSH1 0x4 MSTORE PUSH1 0x24 PUSH1 0x0 REVERT JUMPDEST PUSH1 0x2 DUP2 GT ISZERO PUSH2 0x254 JUMPI PUSH4 0x4E487B71 PUSH1 0xE0 SHL PUSH1 0x0 MSTORE PUSH1 0x21 PUSH1 0x4 MSTORE PUSH1 0x24 PUSH1 0x0 REVERT JUMPDEST EQ ISZERO PUSH2 0x268 JUMPI PUSH2 0x1B3 DUP7 DUP7 DUP7 DUP7 DUP7 DUP7 PUSH2 0x553 JUMP JUMPDEST PUSH1 0x40 MLOAD PUSH3 0x461BCD PUSH1 0xE5 SHL DUP2 MSTORE PUSH1 0x20 PUSH1 0x4 DUP3 ADD MSTORE PUSH1 0x1F PUSH1 0x24 DUP3 ADD MSTORE PUSH32 0x4252494447455F434F4E4E4543544F525F494E56414C49445F534F5552434500 PUSH1 0x44 DUP3 ADD MSTORE PUSH1 0x64 ADD PUSH2 0x152 JUMP JUMPDEST POP POP POP POP POP POP POP JUMP JUMPDEST PUSH1 0x0 PUSH2 0x2C4 DUP8 PUSH2 0x778 JUMP JUMPDEST ISZERO SWAP1 POP PUSH1 0x0 PUSH2 0x2D2 CHAINID PUSH2 0x778 JUMP JUMPDEST SWAP1 POP DUP1 DUP1 ISZERO PUSH2 0x2DE JUMPI POP DUP2 JUMPDEST ISZERO PUSH2 0x2F6 JUMPI PUSH2 0x2F1 DUP9 DUP9 DUP9 DUP9 DUP9 DUP9 PUSH2 0x791 JUMP JUMPDEST PUSH2 0x37B JUMP JUMPDEST DUP1 ISZERO DUP1 ISZERO PUSH2 0x301 JUMPI POP DUP2 JUMPDEST ISZERO PUSH2 0x314 JUMPI PUSH2 0x2F1 DUP9 DUP9 DUP9 DUP9 DUP9 DUP9 PUSH2 0x91F JUMP JUMPDEST DUP1 ISZERO DUP1 ISZERO PUSH2 0x320 JUMPI POP DUP2 ISZERO JUMPDEST ISZERO PUSH2 0x333 JUMPI PUSH2 0x2F1 DUP9 DUP9 DUP9 DUP9 DUP9 DUP9 PUSH2 0xAE3 JUMP JUMPDEST PUSH1 0x40 MLOAD PUSH3 0x461BCD PUSH1 0xE5 SHL DUP2 MSTORE PUSH1 0x20 PUSH1 0x4 DUP3 ADD MSTORE PUSH1 0x1B PUSH1 0x24 DUP3 ADD MSTORE PUSH32 0x484F505F4252494447455F4F505F4E4F545F535550504F525445440000000000 PUSH1 0x44 DUP3 ADD MSTORE PUSH1 0x64 ADD PUSH2 0x152 JUMP JUMPDEST POP POP POP POP POP POP POP POP JUMP JUMPDEST DUP1 MLOAD ISZERO PUSH2 0x3D4 JUMPI PUSH1 0x40 MLOAD PUSH3 0x461BCD PUSH1 0xE5 SHL DUP2 MSTORE PUSH1 0x20 PUSH1 0x4 DUP3 ADD MSTORE PUSH1 0x1A PUSH1 0x24 DUP3 ADD MSTORE PUSH32 0x4158454C41525F494E56414C49445F444154415F4C454E475448000000000000 PUSH1 0x44 DUP3 ADD MSTORE PUSH1 0x64 ADD PUSH2 0x152 JUMP JUMPDEST PUSH1 0x0 PUSH2 0x3DF DUP8 PUSH2 0xC1F JUMP JUMPDEST SWAP1 POP PUSH1 0x0 DUP7 PUSH20 0xFFFFFFFFFFFFFFFFFFFFFFFFFFFFFFFFFFFFFFFF AND PUSH4 0x95D89B41 PUSH1 0x40 MLOAD DUP2 PUSH4 0xFFFFFFFF AND PUSH1 0xE0 SHL DUP2 MSTORE PUSH1 0x4 ADD PUSH1 0x0 PUSH1 0x40 MLOAD DUP1 DUP4 SUB DUP2 DUP7 DUP1 EXTCODESIZE ISZERO DUP1 ISZERO PUSH2 0x429 JUMPI PUSH1 0x0 DUP1 REVERT JUMPDEST POP GAS STATICCALL ISZERO DUP1 ISZERO PUSH2 0x43D JUMPI RETURNDATASIZE PUSH1 0x0 DUP1 RETURNDATACOPY RETURNDATASIZE PUSH1 0x0 REVERT JUMPDEST POP POP POP POP PUSH1 0x40 MLOAD RETURNDATASIZE PUSH1 0x0 DUP3 RETURNDATACOPY PUSH1 0x1F RETURNDATASIZE SWAP1 DUP2 ADD PUSH32 0xFFFFFFFFFFFFFFFFFFFFFFFFFFFFFFFFFFFFFFFFFFFFFFFFFFFFFFFFFFFFFFE0 AND DUP3 ADD PUSH1 0x40 MSTORE PUSH2 0x483 SWAP2 SWAP1 DUP2 ADD SWAP1 PUSH2 0x1793 JUMP JUMPDEST SWAP1 POP PUSH2 0x4B0 DUP8 PUSH32 0x0 DUP9 PUSH2 0xDFD JUMP JUMPDEST PUSH32 0x0 PUSH20 0xFFFFFFFFFFFFFFFFFFFFFFFFFFFFFFFFFFFFFFFF AND PUSH4 0x26EF699D DUP4 PUSH2 0x4F6 DUP8 PUSH2 0xE19 JUMP JUMPDEST DUP5 DUP11 PUSH1 0x40 MLOAD DUP6 PUSH4 0xFFFFFFFF AND PUSH1 0xE0 SHL DUP2 MSTORE PUSH1 0x4 ADD PUSH2 0x517 SWAP5 SWAP4 SWAP3 SWAP2 SWAP1 PUSH2 0x1953 JUMP JUMPDEST PUSH1 0x0 PUSH1 0x40 MLOAD DUP1 DUP4 SUB DUP2 PUSH1 0x0 DUP8 DUP1 EXTCODESIZE ISZERO DUP1 ISZERO PUSH2 0x531 JUMPI PUSH1 0x0 DUP1 REVERT JUMPDEST POP GAS CALL ISZERO DUP1 ISZERO PUSH2 0x545 JUMPI RETURNDATASIZE PUSH1 0x0 DUP1 RETURNDATACOPY RETURNDATASIZE PUSH1 0x0 REVERT JUMPDEST POP POP POP POP POP POP POP POP POP POP POP POP JUMP JUMPDEST PUSH1 0x20 DUP2 MLOAD EQ PUSH2 0x5A4 JUMPI PUSH1 0x40 MLOAD PUSH3 0x461BCD PUSH1 0xE5 SHL DUP2 MSTORE PUSH1 0x20 PUSH1 0x4 DUP3 ADD MSTORE PUSH1 0x1B PUSH1 0x24 DUP3 ADD MSTORE PUSH32 0x434F4E4E4558545F494E56414C49445F444154415F4C454E4754480000000000 PUSH1 0x44 DUP3 ADD MSTORE PUSH1 0x64 ADD PUSH2 0x152 JUMP JUMPDEST PUSH1 0x0 DUP2 DUP1 PUSH1 0x20 ADD SWAP1 MLOAD DUP2 ADD SWAP1 PUSH2 0x5BA SWAP2 SWAP1 PUSH2 0x177B JUMP JUMPDEST SWAP1 POP DUP5 DUP2 GT ISZERO PUSH2 0x60C JUMPI PUSH1 0x40 MLOAD PUSH3 0x461BCD PUSH1 0xE5 SHL DUP2 MSTORE PUSH1 0x20 PUSH1 0x4 DUP3 ADD DUP2 SWAP1 MSTORE PUSH1 0x24 DUP3 ADD MSTORE PUSH32 0x434F4E4E4558545F52454C415945525F4645455F47545F414D4F554E545F494E PUSH1 0x44 DUP3 ADD MSTORE PUSH1 0x64 ADD PUSH2 0x152 JUMP JUMPDEST PUSH1 0x0 PUSH2 0x617 DUP9 PUSH2 0xE3C JUMP JUMPDEST SWAP1 POP PUSH1 0x0 DUP7 DUP7 GT PUSH2 0x648 JUMPI DUP7 PUSH2 0x62E DUP8 PUSH1 0x64 PUSH2 0x1ADB JUMP JUMPDEST PUSH2 0x638 SWAP2 SWAP1 PUSH2 0x1ABB JUMP JUMPDEST PUSH2 0x643 SWAP1 PUSH1 0x64 PUSH2 0x1B18 JUMP JUMPDEST PUSH2 0x64B JUMP JUMPDEST PUSH1 0x0 JUMPDEST SWAP1 POP PUSH1 0x0 PUSH2 0x659 DUP5 DUP10 PUSH2 0x1B18 JUMP JUMPDEST SWAP1 POP PUSH2 0x686 DUP10 PUSH32 0x0 DUP11 PUSH2 0xDFD JUMP JUMPDEST PUSH20 0xFFFFFFFFFFFFFFFFFFFFFFFFFFFFFFFFFFFFFFFF PUSH32 0x0 AND PUSH4 0x93F18AC5 DUP5 DUP9 DUP13 ADDRESS DUP7 DUP9 PUSH1 0x0 PUSH1 0x40 MLOAD SWAP1 DUP1 DUP3 MSTORE DUP1 PUSH1 0x1F ADD PUSH1 0x1F NOT AND PUSH1 0x20 ADD DUP3 ADD PUSH1 0x40 MSTORE DUP1 ISZERO PUSH2 0x6F4 JUMPI PUSH1 0x20 DUP3 ADD DUP2 DUP1 CALLDATASIZE DUP4 CALLDATACOPY ADD SWAP1 POP JUMPDEST POP DUP13 PUSH1 0x40 MLOAD DUP10 PUSH4 0xFFFFFFFF AND PUSH1 0xE0 SHL DUP2 MSTORE PUSH1 0x4 ADD PUSH2 0x719 SWAP9 SWAP8 SWAP7 SWAP6 SWAP5 SWAP4 SWAP3 SWAP2 SWAP1 PUSH2 0x199E JUMP JUMPDEST PUSH1 0x20 PUSH1 0x40 MLOAD DUP1 DUP4 SUB DUP2 PUSH1 0x0 DUP8 DUP1 EXTCODESIZE ISZERO DUP1 ISZERO PUSH2 0x733 JUMPI PUSH1 0x0 DUP1 REVERT JUMPDEST POP GAS CALL ISZERO DUP1 ISZERO PUSH2 0x747 JUMPI RETURNDATASIZE PUSH1 0x0 DUP1 RETURNDATACOPY RETURNDATASIZE PUSH1 0x0 REVERT JUMPDEST POP POP POP POP PUSH1 0x40 MLOAD RETURNDATASIZE PUSH1 0x1F NOT PUSH1 0x1F DUP3 ADD AND DUP3 ADD DUP1 PUSH1 0x40 MSTORE POP DUP2 ADD SWAP1 PUSH2 0x76B SWAP2 SWAP1 PUSH2 0x177B JUMP JUMPDEST POP POP POP POP POP POP POP POP POP POP POP JUMP JUMPDEST PUSH1 0x0 PUSH1 0x1 DUP3 EQ DUP1 PUSH2 0x789 JUMPI POP PUSH1 0x5 DUP3 EQ JUMPDEST SWAP1 POP JUMPDEST SWAP2 SWAP1 POP JUMP JUMPDEST PUSH1 0x80 DUP2 MLOAD EQ PUSH2 0x7E2 JUMPI PUSH1 0x40 MLOAD PUSH3 0x461BCD PUSH1 0xE5 SHL DUP2 MSTORE PUSH1 0x20 PUSH1 0x4 DUP3 ADD MSTORE PUSH1 0x1D PUSH1 0x24 DUP3 ADD MSTORE PUSH32 0x484F505F494E56414C49445F4C315F4C325F444154415F4C454E475448000000 PUSH1 0x44 DUP3 ADD MSTORE PUSH1 0x64 ADD PUSH2 0x152 JUMP JUMPDEST PUSH1 0x0 DUP1 PUSH1 0x0 DUP1 DUP5 DUP1 PUSH1 0x20 ADD SWAP1 MLOAD DUP2 ADD SWAP1 PUSH2 0x7FC SWAP2 SWAP1 PUSH2 0x16DD JUMP JUMPDEST SWAP4 POP SWAP4 POP SWAP4 POP SWAP4 POP TIMESTAMP DUP4 GT PUSH2 0x853 JUMPI PUSH1 0x40 MLOAD PUSH3 0x461BCD PUSH1 0xE5 SHL DUP2 MSTORE PUSH1 0x20 PUSH1 0x4 DUP3 ADD MSTORE PUSH1 0x1B PUSH1 0x24 DUP3 ADD MSTORE PUSH32 0x484F505F4252494447455F494E56414C49445F444541444C494E450000000000 PUSH1 0x44 DUP3 ADD MSTORE PUSH1 0x64 ADD PUSH2 0x152 JUMP JUMPDEST PUSH1 0x0 PUSH2 0x860 DUP6 DUP12 DUP12 PUSH2 0xEFC JUMP JUMPDEST PUSH1 0x40 MLOAD PUSH32 0xDEACE8F500000000000000000000000000000000000000000000000000000000 DUP2 MSTORE PUSH1 0x4 DUP2 ADD DUP14 SWAP1 MSTORE PUSH20 0xFFFFFFFFFFFFFFFFFFFFFFFFFFFFFFFFFFFFFFFF DUP10 DUP2 AND PUSH1 0x24 DUP4 ADD MSTORE PUSH1 0x44 DUP3 ADD DUP13 SWAP1 MSTORE PUSH1 0x64 DUP3 ADD DUP12 SWAP1 MSTORE PUSH1 0x84 DUP3 ADD DUP8 SWAP1 MSTORE DUP6 DUP2 AND PUSH1 0xA4 DUP4 ADD MSTORE PUSH1 0xC4 DUP3 ADD DUP6 SWAP1 MSTORE SWAP2 SWAP3 POP SWAP1 DUP7 AND SWAP1 PUSH4 0xDEACE8F5 SWAP1 DUP4 SWAP1 PUSH1 0xE4 ADD PUSH1 0x0 PUSH1 0x40 MLOAD DUP1 DUP4 SUB DUP2 DUP6 DUP9 DUP1 EXTCODESIZE ISZERO DUP1 ISZERO PUSH2 0x8F9 JUMPI PUSH1 0x0 DUP1 REVERT JUMPDEST POP GAS CALL ISZERO DUP1 ISZERO PUSH2 0x90D JUMPI RETURNDATASIZE PUSH1 0x0 DUP1 RETURNDATACOPY RETURNDATASIZE PUSH1 0x0 REVERT JUMPDEST POP POP POP POP POP POP POP POP POP POP POP POP POP POP POP POP JUMP JUMPDEST PUSH1 0x60 DUP2 MLOAD EQ PUSH2 0x970 JUMPI PUSH1 0x40 MLOAD PUSH3 0x461BCD PUSH1 0xE5 SHL DUP2 MSTORE PUSH1 0x20 PUSH1 0x4 DUP3 ADD MSTORE PUSH1 0x1D PUSH1 0x24 DUP3 ADD MSTORE PUSH32 0x484F505F494E56414C49445F4C325F4C325F444154415F4C454E475448000000 PUSH1 0x44 DUP3 ADD MSTORE PUSH1 0x64 ADD PUSH2 0x152 JUMP JUMPDEST PUSH1 0x0 DUP1 PUSH1 0x0 DUP4 DUP1 PUSH1 0x20 ADD SWAP1 MLOAD DUP2 ADD SWAP1 PUSH2 0x989 SWAP2 SWAP1 PUSH2 0x1725 JUMP JUMPDEST SWAP3 POP SWAP3 POP SWAP3 POP TIMESTAMP DUP2 GT PUSH2 0x9DE JUMPI PUSH1 0x40 MLOAD PUSH3 0x461BCD PUSH1 0xE5 SHL DUP2 MSTORE PUSH1 0x20 PUSH1 0x4 DUP3 ADD MSTORE PUSH1 0x1B PUSH1 0x24 DUP3 ADD MSTORE PUSH32 0x484F505F4252494447455F494E56414C49445F444541444C494E450000000000 PUSH1 0x44 DUP3 ADD MSTORE PUSH1 0x64 ADD PUSH2 0x152 JUMP JUMPDEST PUSH1 0x0 PUSH1 0x2 PUSH2 0x9EC DUP9 DUP11 PUSH2 0x1B18 JUMP JUMPDEST PUSH2 0x9F6 SWAP2 SWAP1 PUSH2 0x1ABB JUMP JUMPDEST PUSH2 0xA00 SWAP1 DUP10 PUSH2 0x1B18 JUMP JUMPDEST SWAP1 POP DUP4 PUSH20 0xFFFFFFFFFFFFFFFFFFFFFFFFFFFFFFFFFFFFFFFF AND PUSH4 0xEEA0D7B2 PUSH2 0xA29 DUP7 DUP13 DUP13 PUSH2 0xEFC JUMP JUMPDEST PUSH1 0x40 MLOAD PUSH32 0xFFFFFFFF00000000000000000000000000000000000000000000000000000000 PUSH1 0xE0 DUP5 SWAP1 SHL AND DUP2 MSTORE PUSH1 0x4 DUP2 ADD DUP15 SWAP1 MSTORE PUSH20 0xFFFFFFFFFFFFFFFFFFFFFFFFFFFFFFFFFFFFFFFF DUP11 AND PUSH1 0x24 DUP3 ADD MSTORE PUSH1 0x44 DUP2 ADD DUP13 SWAP1 MSTORE PUSH1 0x64 DUP2 ADD DUP8 SWAP1 MSTORE PUSH1 0x84 DUP2 ADD DUP6 SWAP1 MSTORE TIMESTAMP PUSH1 0xA4 DUP3 ADD MSTORE PUSH1 0xC4 DUP2 ADD DUP12 SWAP1 MSTORE PUSH1 0xE4 DUP2 ADD DUP7 SWAP1 MSTORE PUSH2 0x104 ADD PUSH1 0x0 PUSH1 0x40 MLOAD DUP1 DUP4 SUB DUP2 DUP6 DUP9 DUP1 EXTCODESIZE ISZERO DUP1 ISZERO PUSH2 0xABE JUMPI PUSH1 0x0 DUP1 REVERT JUMPDEST POP GAS CALL ISZERO DUP1 ISZERO PUSH2 0xAD2 JUMPI RETURNDATASIZE PUSH1 0x0 DUP1 RETURNDATACOPY RETURNDATASIZE PUSH1 0x0 REVERT JUMPDEST POP POP POP POP POP POP POP POP POP POP POP POP POP POP POP JUMP JUMPDEST PUSH1 0x40 DUP2 MLOAD EQ PUSH2 0xB34 JUMPI PUSH1 0x40 MLOAD PUSH3 0x461BCD PUSH1 0xE5 SHL DUP2 MSTORE PUSH1 0x20 PUSH1 0x4 DUP3 ADD MSTORE PUSH1 0x1D PUSH1 0x24 DUP3 ADD MSTORE PUSH32 0x484F505F494E56414C49445F4C325F4C315F444154415F4C454E475448000000 PUSH1 0x44 DUP3 ADD MSTORE PUSH1 0x64 ADD PUSH2 0x152 JUMP JUMPDEST PUSH1 0x0 DUP1 DUP3 DUP1 PUSH1 0x20 ADD SWAP1 MLOAD DUP2 ADD SWAP1 PUSH2 0xB4B SWAP2 SWAP1 PUSH2 0x16B0 JUMP JUMPDEST SWAP2 POP SWAP2 POP PUSH1 0x0 PUSH2 0xB5C DUP4 DUP10 DUP10 PUSH2 0xEFC JUMP JUMPDEST PUSH1 0x40 MLOAD PUSH32 0xEEA0D7B200000000000000000000000000000000000000000000000000000000 DUP2 MSTORE PUSH1 0x4 DUP2 ADD DUP12 SWAP1 MSTORE PUSH20 0xFFFFFFFFFFFFFFFFFFFFFFFFFFFFFFFFFFFFFFFF DUP8 DUP2 AND PUSH1 0x24 DUP4 ADD MSTORE PUSH1 0x44 DUP3 ADD DUP11 SWAP1 MSTORE PUSH1 0x64 DUP3 ADD DUP6 SWAP1 MSTORE PUSH1 0x84 DUP3 ADD DUP10 SWAP1 MSTORE TIMESTAMP PUSH1 0xA4 DUP4 ADD MSTORE PUSH1 0x0 PUSH1 0xC4 DUP4 ADD DUP2 SWAP1 MSTORE PUSH1 0xE4 DUP4 ADD MSTORE SWAP2 SWAP3 POP SWAP1 DUP5 AND SWAP1 PUSH4 0xEEA0D7B2 SWAP1 DUP4 SWAP1 PUSH2 0x104 ADD PUSH1 0x0 PUSH1 0x40 MLOAD DUP1 DUP4 SUB DUP2 DUP6 DUP9 DUP1 EXTCODESIZE ISZERO DUP1 ISZERO PUSH2 0xBFB JUMPI PUSH1 0x0 DUP1 REVERT JUMPDEST POP GAS CALL ISZERO DUP1 ISZERO PUSH2 0xC0F JUMPI RETURNDATASIZE PUSH1 0x0 DUP1 RETURNDATACOPY RETURNDATASIZE PUSH1 0x0 REVERT JUMPDEST POP POP POP POP POP POP POP POP POP POP POP POP POP POP JUMP JUMPDEST PUSH1 0x60 PUSH1 0x1 DUP3 EQ ISZERO PUSH2 0xC64 JUMPI POP PUSH1 0x40 DUP1 MLOAD DUP1 DUP3 ADD SWAP1 SWAP2 MSTORE PUSH1 0x8 DUP2 MSTORE PUSH32 0x457468657265756D000000000000000000000000000000000000000000000000 PUSH1 0x20 DUP3 ADD MSTORE PUSH2 0x78C JUMP JUMPDEST PUSH1 0x89 DUP3 EQ ISZERO PUSH2 0xCA7 JUMPI POP PUSH1 0x40 DUP1 MLOAD DUP1 DUP3 ADD SWAP1 SWAP2 MSTORE PUSH1 0x7 DUP2 MSTORE PUSH32 0x506F6C79676F6E00000000000000000000000000000000000000000000000000 PUSH1 0x20 DUP3 ADD MSTORE PUSH2 0x78C JUMP JUMPDEST PUSH2 0xA4B1 DUP3 EQ ISZERO PUSH2 0xCEB JUMPI POP PUSH1 0x40 DUP1 MLOAD DUP1 DUP3 ADD SWAP1 SWAP2 MSTORE PUSH1 0x8 DUP2 MSTORE PUSH32 0x617262697472756D000000000000000000000000000000000000000000000000 PUSH1 0x20 DUP3 ADD MSTORE PUSH2 0x78C JUMP JUMPDEST PUSH1 0x38 DUP3 EQ ISZERO PUSH2 0xD2E JUMPI POP PUSH1 0x40 DUP1 MLOAD DUP1 DUP3 ADD SWAP1 SWAP2 MSTORE PUSH1 0x7 DUP2 MSTORE PUSH32 0x62696E616E636500000000000000000000000000000000000000000000000000 PUSH1 0x20 DUP3 ADD MSTORE PUSH2 0x78C JUMP JUMPDEST PUSH1 0xFA DUP3 EQ ISZERO PUSH2 0xD71 JUMPI POP PUSH1 0x40 DUP1 MLOAD DUP1 DUP3 ADD SWAP1 SWAP2 MSTORE PUSH1 0x6 DUP2 MSTORE PUSH32 0x46616E746F6D0000000000000000000000000000000000000000000000000000 PUSH1 0x20 DUP3 ADD MSTORE PUSH2 0x78C JUMP JUMPDEST PUSH2 0xA86A DUP3 EQ ISZERO PUSH2 0xDB5 JUMPI POP PUSH1 0x40 DUP1 MLOAD DUP1 DUP3 ADD SWAP1 SWAP2 MSTORE PUSH1 0x9 DUP2 MSTORE PUSH32 0x4176616C616E6368650000000000000000000000000000000000000000000000 PUSH1 0x20 DUP3 ADD MSTORE PUSH2 0x78C JUMP JUMPDEST PUSH1 0x40 MLOAD PUSH3 0x461BCD PUSH1 0xE5 SHL DUP2 MSTORE PUSH1 0x20 PUSH1 0x4 DUP3 ADD MSTORE PUSH1 0x17 PUSH1 0x24 DUP3 ADD MSTORE PUSH32 0x4158454C41525F554E4B4E4F574E5F434841494E5F4944000000000000000000 PUSH1 0x44 DUP3 ADD MSTORE PUSH1 0x64 ADD PUSH2 0x152 JUMP JUMPDEST PUSH2 0xE09 DUP4 DUP4 PUSH1 0x0 PUSH2 0xFEF JUMP JUMPDEST PUSH2 0xE14 DUP4 DUP4 DUP4 PUSH2 0xFEF JUMP JUMPDEST POP POP POP JUMP JUMPDEST PUSH1 0x60 PUSH2 0x789 PUSH20 0xFFFFFFFFFFFFFFFFFFFFFFFFFFFFFFFFFFFFFFFF DUP4 AND PUSH1 0x14 PUSH2 0x119D JUMP JUMPDEST PUSH1 0x0 PUSH1 0x1 DUP3 EQ ISZERO PUSH2 0xE51 JUMPI POP PUSH3 0x657468 PUSH2 0x78C JUMP JUMPDEST PUSH1 0x89 DUP3 EQ ISZERO PUSH2 0xE65 JUMPI POP PUSH4 0x706F6C79 PUSH2 0x78C JUMP JUMPDEST PUSH2 0xA4B1 DUP3 EQ ISZERO PUSH2 0xE7A JUMPI POP PUSH4 0x6172626F PUSH2 0x78C JUMP JUMPDEST PUSH1 0xA DUP3 EQ ISZERO PUSH2 0xE8E JUMPI POP PUSH4 0x6F707469 PUSH2 0x78C JUMP JUMPDEST PUSH1 0x64 DUP3 EQ ISZERO PUSH2 0xEA1 JUMPI POP PUSH3 0x676E6F PUSH2 0x78C JUMP JUMPDEST PUSH1 0x38 DUP3 EQ ISZERO PUSH2 0xEB4 JUMPI POP PUSH3 0x626E62 PUSH2 0x78C JUMP JUMPDEST PUSH1 0x40 MLOAD PUSH3 0x461BCD PUSH1 0xE5 SHL DUP2 MSTORE PUSH1 0x20 PUSH1 0x4 DUP3 ADD MSTORE PUSH1 0x18 PUSH1 0x24 DUP3 ADD MSTORE PUSH32 0x434F4E4E4558545F554E4B4E4F574E5F434841494E5F49440000000000000000 PUSH1 0x44 DUP3 ADD MSTORE PUSH1 0x64 ADD PUSH2 0x152 JUMP JUMPDEST PUSH1 0x0 PUSH32 0x0 PUSH20 0xFFFFFFFFFFFFFFFFFFFFFFFFFFFFFFFFFFFFFFFF AND DUP4 PUSH20 0xFFFFFFFFFFFFFFFFFFFFFFFFFFFFFFFFFFFFFFFF AND EQ ISZERO PUSH2 0xFDA JUMPI POP PUSH1 0x40 MLOAD PUSH32 0x2E1A7D4D00000000000000000000000000000000000000000000000000000000 DUP2 MSTORE PUSH1 0x4 DUP2 ADD DUP3 SWAP1 MSTORE DUP2 SWAP1 PUSH20 0xFFFFFFFFFFFFFFFFFFFFFFFFFFFFFFFFFFFFFFFF DUP5 AND SWAP1 PUSH4 0x2E1A7D4D SWAP1 PUSH1 0x24 ADD PUSH1 0x0 PUSH1 0x40 MLOAD DUP1 DUP4 SUB DUP2 PUSH1 0x0 DUP8 DUP1 EXTCODESIZE ISZERO DUP1 ISZERO PUSH2 0xFBD JUMPI PUSH1 0x0 DUP1 REVERT JUMPDEST POP GAS CALL ISZERO DUP1 ISZERO PUSH2 0xFD1 JUMPI RETURNDATASIZE PUSH1 0x0 DUP1 RETURNDATACOPY RETURNDATASIZE PUSH1 0x0 REVERT JUMPDEST POP POP POP POP PUSH2 0xFE8 JUMP JUMPDEST POP PUSH1 0x0 PUSH2 0xFE8 DUP4 DUP6 DUP5 PUSH2 0xDFD JUMP JUMPDEST SWAP4 SWAP3 POP POP POP JUMP JUMPDEST DUP1 ISZERO DUP1 PUSH2 0x109E JUMPI POP PUSH1 0x40 MLOAD PUSH32 0xDD62ED3E00000000000000000000000000000000000000000000000000000000 DUP2 MSTORE ADDRESS PUSH1 0x4 DUP3 ADD MSTORE PUSH20 0xFFFFFFFFFFFFFFFFFFFFFFFFFFFFFFFFFFFFFFFF DUP4 DUP2 AND PUSH1 0x24 DUP4 ADD MSTORE DUP5 AND SWAP1 PUSH4 0xDD62ED3E SWAP1 PUSH1 0x44 ADD PUSH1 0x20 PUSH1 0x40 MLOAD DUP1 DUP4 SUB DUP2 DUP7 DUP1 EXTCODESIZE ISZERO DUP1 ISZERO PUSH2 0x1064 JUMPI PUSH1 0x0 DUP1 REVERT JUMPDEST POP GAS STATICCALL ISZERO DUP1 ISZERO PUSH2 0x1078 JUMPI RETURNDATASIZE PUSH1 0x0 DUP1 RETURNDATACOPY RETURNDATASIZE PUSH1 0x0 REVERT JUMPDEST POP POP POP POP PUSH1 0x40 MLOAD RETURNDATASIZE PUSH1 0x1F NOT PUSH1 0x1F DUP3 ADD AND DUP3 ADD DUP1 PUSH1 0x40 MSTORE POP DUP2 ADD SWAP1 PUSH2 0x109C SWAP2 SWAP1 PUSH2 0x177B JUMP JUMPDEST ISZERO JUMPDEST PUSH2 0x1110 JUMPI PUSH1 0x40 MLOAD PUSH3 0x461BCD PUSH1 0xE5 SHL DUP2 MSTORE PUSH1 0x20 PUSH1 0x4 DUP3 ADD MSTORE PUSH1 0x36 PUSH1 0x24 DUP3 ADD MSTORE PUSH32 0x5361666545524332303A20617070726F76652066726F6D206E6F6E2D7A65726F PUSH1 0x44 DUP3 ADD MSTORE PUSH32 0x20746F206E6F6E2D7A65726F20616C6C6F77616E636500000000000000000000 PUSH1 0x64 DUP3 ADD MSTORE PUSH1 0x84 ADD PUSH2 0x152 JUMP JUMPDEST PUSH1 0x40 DUP1 MLOAD PUSH20 0xFFFFFFFFFFFFFFFFFFFFFFFFFFFFFFFFFFFFFFFF DUP5 AND PUSH1 0x24 DUP3 ADD MSTORE PUSH1 0x44 DUP1 DUP3 ADD DUP5 SWAP1 MSTORE DUP3 MLOAD DUP1 DUP4 SUB SWAP1 SWAP2 ADD DUP2 MSTORE PUSH1 0x64 SWAP1 SWAP2 ADD SWAP1 SWAP2 MSTORE PUSH1 0x20 DUP2 ADD DUP1 MLOAD PUSH28 0xFFFFFFFFFFFFFFFFFFFFFFFFFFFFFFFFFFFFFFFFFFFFFFFFFFFFFFFF AND PUSH32 0x95EA7B300000000000000000000000000000000000000000000000000000000 OR SWAP1 MSTORE PUSH2 0xE14 SWAP1 DUP5 SWAP1 PUSH2 0x140C JUMP JUMPDEST PUSH1 0x60 PUSH1 0x0 PUSH2 0x11AC DUP4 PUSH1 0x2 PUSH2 0x1ADB JUMP JUMPDEST PUSH2 0x11B7 SWAP1 PUSH1 0x2 PUSH2 0x1AA3 JUMP JUMPDEST PUSH8 0xFFFFFFFFFFFFFFFF DUP2 GT ISZERO PUSH2 0x11DD JUMPI PUSH4 0x4E487B71 PUSH1 0xE0 SHL PUSH1 0x0 MSTORE PUSH1 0x41 PUSH1 0x4 MSTORE PUSH1 0x24 PUSH1 0x0 REVERT JUMPDEST PUSH1 0x40 MLOAD SWAP1 DUP1 DUP3 MSTORE DUP1 PUSH1 0x1F ADD PUSH1 0x1F NOT AND PUSH1 0x20 ADD DUP3 ADD PUSH1 0x40 MSTORE DUP1 ISZERO PUSH2 0x1207 JUMPI PUSH1 0x20 DUP3 ADD DUP2 DUP1 CALLDATASIZE DUP4 CALLDATACOPY ADD SWAP1 POP JUMPDEST POP SWAP1 POP PUSH32 0x3000000000000000000000000000000000000000000000000000000000000000 DUP2 PUSH1 0x0 DUP2 MLOAD DUP2 LT PUSH2 0x124C JUMPI PUSH4 0x4E487B71 PUSH1 0xE0 SHL PUSH1 0x0 MSTORE PUSH1 0x32 PUSH1 0x4 MSTORE PUSH1 0x24 PUSH1 0x0 REVERT JUMPDEST PUSH1 0x20 ADD ADD SWAP1 PUSH31 0xFFFFFFFFFFFFFFFFFFFFFFFFFFFFFFFFFFFFFFFFFFFFFFFFFFFFFFFFFFFFFF NOT AND SWAP1 DUP2 PUSH1 0x0 BYTE SWAP1 MSTORE8 POP PUSH32 0x7800000000000000000000000000000000000000000000000000000000000000 DUP2 PUSH1 0x1 DUP2 MLOAD DUP2 LT PUSH2 0x12BD JUMPI PUSH4 0x4E487B71 PUSH1 0xE0 SHL PUSH1 0x0 MSTORE PUSH1 0x32 PUSH1 0x4 MSTORE PUSH1 0x24 PUSH1 0x0 REVERT JUMPDEST PUSH1 0x20 ADD ADD SWAP1 PUSH31 0xFFFFFFFFFFFFFFFFFFFFFFFFFFFFFFFFFFFFFFFFFFFFFFFFFFFFFFFFFFFFFF NOT AND SWAP1 DUP2 PUSH1 0x0 BYTE SWAP1 MSTORE8 POP PUSH1 0x0 PUSH2 0x12F9 DUP5 PUSH1 0x2 PUSH2 0x1ADB JUMP JUMPDEST PUSH2 0x1304 SWAP1 PUSH1 0x1 PUSH2 0x1AA3 JUMP JUMPDEST SWAP1 POP JUMPDEST PUSH1 0x1 DUP2 GT ISZERO PUSH2 0x13BD JUMPI PUSH32 0x3031323334353637383961626364656600000000000000000000000000000000 DUP6 PUSH1 0xF AND PUSH1 0x10 DUP2 LT PUSH2 0x1353 JUMPI PUSH4 0x4E487B71 PUSH1 0xE0 SHL PUSH1 0x0 MSTORE PUSH1 0x32 PUSH1 0x4 MSTORE PUSH1 0x24 PUSH1 0x0 REVERT JUMPDEST BYTE PUSH1 0xF8 SHL DUP3 DUP3 DUP2 MLOAD DUP2 LT PUSH2 0x1377 JUMPI PUSH4 0x4E487B71 PUSH1 0xE0 SHL PUSH1 0x0 MSTORE PUSH1 0x32 PUSH1 0x4 MSTORE PUSH1 0x24 PUSH1 0x0 REVERT JUMPDEST PUSH1 0x20 ADD ADD SWAP1 PUSH31 0xFFFFFFFFFFFFFFFFFFFFFFFFFFFFFFFFFFFFFFFFFFFFFFFFFFFFFFFFFFFFFF NOT AND SWAP1 DUP2 PUSH1 0x0 BYTE SWAP1 MSTORE8 POP PUSH1 0x4 SWAP5 SWAP1 SWAP5 SHR SWAP4 PUSH2 0x13B6 DUP2 PUSH2 0x1B5F JUMP JUMPDEST SWAP1 POP PUSH2 0x1307 JUMP JUMPDEST POP DUP4 ISZERO PUSH2 0xFE8 JUMPI PUSH1 0x40 MLOAD PUSH3 0x461BCD PUSH1 0xE5 SHL DUP2 MSTORE PUSH1 0x20 PUSH1 0x4 DUP3 ADD DUP2 SWAP1 MSTORE PUSH1 0x24 DUP3 ADD MSTORE PUSH32 0x537472696E67733A20686578206C656E67746820696E73756666696369656E74 PUSH1 0x44 DUP3 ADD MSTORE PUSH1 0x64 ADD PUSH2 0x152 JUMP JUMPDEST PUSH1 0x0 PUSH2 0x146E DUP3 PUSH1 0x40 MLOAD DUP1 PUSH1 0x40 ADD PUSH1 0x40 MSTORE DUP1 PUSH1 0x20 DUP2 MSTORE PUSH1 0x20 ADD PUSH32 0x5361666545524332303A206C6F772D6C6576656C2063616C6C206661696C6564 DUP2 MSTORE POP DUP6 PUSH20 0xFFFFFFFFFFFFFFFFFFFFFFFFFFFFFFFFFFFFFFFF AND PUSH2 0x14FE SWAP1 SWAP3 SWAP2 SWAP1 PUSH4 0xFFFFFFFF AND JUMP JUMPDEST DUP1 MLOAD SWAP1 SWAP2 POP ISZERO PUSH2 0xE14 JUMPI DUP1 DUP1 PUSH1 0x20 ADD SWAP1 MLOAD DUP2 ADD SWAP1 PUSH2 0x148C SWAP2 SWAP1 PUSH2 0x175B JUMP JUMPDEST PUSH2 0xE14 JUMPI PUSH1 0x40 MLOAD PUSH3 0x461BCD PUSH1 0xE5 SHL DUP2 MSTORE PUSH1 0x20 PUSH1 0x4 DUP3 ADD MSTORE PUSH1 0x2A PUSH1 0x24 DUP3 ADD MSTORE PUSH32 0x5361666545524332303A204552433230206F7065726174696F6E20646964206E PUSH1 0x44 DUP3 ADD MSTORE PUSH32 0x6F74207375636365656400000000000000000000000000000000000000000000 PUSH1 0x64 DUP3 ADD MSTORE PUSH1 0x84 ADD PUSH2 0x152 JUMP JUMPDEST PUSH1 0x60 PUSH2 0x150D DUP5 DUP5 PUSH1 0x0 DUP6 PUSH2 0x1515 JUMP JUMPDEST SWAP5 SWAP4 POP POP POP POP JUMP JUMPDEST PUSH1 0x60 DUP3 SELFBALANCE LT ISZERO PUSH2 0x158D JUMPI PUSH1 0x40 MLOAD PUSH3 0x461BCD PUSH1 0xE5 SHL DUP2 MSTORE PUSH1 0x20 PUSH1 0x4 DUP3 ADD MSTORE PUSH1 0x26 PUSH1 0x24 DUP3 ADD MSTORE PUSH32 0x416464726573733A20696E73756666696369656E742062616C616E636520666F PUSH1 0x44 DUP3 ADD MSTORE PUSH32 0x722063616C6C0000000000000000000000000000000000000000000000000000 PUSH1 0x64 DUP3 ADD MSTORE PUSH1 0x84 ADD PUSH2 0x152 JUMP JUMPDEST PUSH20 0xFFFFFFFFFFFFFFFFFFFFFFFFFFFFFFFFFFFFFFFF DUP6 AND EXTCODESIZE PUSH2 0x15F1 JUMPI PUSH1 0x40 MLOAD PUSH3 0x461BCD PUSH1 0xE5 SHL DUP2 MSTORE PUSH1 0x20 PUSH1 0x4 DUP3 ADD MSTORE PUSH1 0x1D PUSH1 0x24 DUP3 ADD MSTORE PUSH32 0x416464726573733A2063616C6C20746F206E6F6E2D636F6E7472616374000000 PUSH1 0x44 DUP3 ADD MSTORE PUSH1 0x64 ADD PUSH2 0x152 JUMP JUMPDEST PUSH1 0x0 DUP1 DUP7 PUSH20 0xFFFFFFFFFFFFFFFFFFFFFFFFFFFFFFFFFFFFFFFF AND DUP6 DUP8 PUSH1 0x40 MLOAD PUSH2 0x161A SWAP2 SWAP1 PUSH2 0x1924 JUMP JUMPDEST PUSH1 0x0 PUSH1 0x40 MLOAD DUP1 DUP4 SUB DUP2 DUP6 DUP8 GAS CALL SWAP3 POP POP POP RETURNDATASIZE DUP1 PUSH1 0x0 DUP2 EQ PUSH2 0x1657 JUMPI PUSH1 0x40 MLOAD SWAP2 POP PUSH1 0x1F NOT PUSH1 0x3F RETURNDATASIZE ADD AND DUP3 ADD PUSH1 0x40 MSTORE RETURNDATASIZE DUP3 MSTORE RETURNDATASIZE PUSH1 0x0 PUSH1 0x20 DUP5 ADD RETURNDATACOPY PUSH2 0x165C JUMP JUMPDEST PUSH1 0x60 SWAP2 POP JUMPDEST POP SWAP2 POP SWAP2 POP PUSH2 0x166C DUP3 DUP3 DUP7 PUSH2 0x1677 JUMP JUMPDEST SWAP8 SWAP7 POP POP POP POP POP POP POP JUMP JUMPDEST PUSH1 0x60 DUP4 ISZERO PUSH2 0x1686 JUMPI POP DUP2 PUSH2 0xFE8 JUMP JUMPDEST DUP3 MLOAD ISZERO PUSH2 0x1696 JUMPI DUP3 MLOAD DUP1 DUP5 PUSH1 0x20 ADD REVERT JUMPDEST DUP2 PUSH1 0x40 MLOAD PUSH3 0x461BCD PUSH1 0xE5 SHL DUP2 MSTORE PUSH1 0x4 ADD PUSH2 0x152 SWAP2 SWAP1 PUSH2 0x1940 JUMP JUMPDEST PUSH1 0x0 DUP1 PUSH1 0x40 DUP4 DUP6 SUB SLT ISZERO PUSH2 0x16C2 JUMPI DUP2 DUP3 REVERT JUMPDEST DUP3 MLOAD PUSH2 0x16CD DUP2 PUSH2 0x1BC0 JUMP JUMPDEST PUSH1 0x20 SWAP4 SWAP1 SWAP4 ADD MLOAD SWAP3 SWAP5 SWAP3 SWAP4 POP POP POP JUMP JUMPDEST PUSH1 0x0 DUP1 PUSH1 0x0 DUP1 PUSH1 0x80 DUP6 DUP8 SUB SLT ISZERO PUSH2 0x16F2 JUMPI DUP2 DUP3 REVERT JUMPDEST DUP5 MLOAD PUSH2 0x16FD DUP2 PUSH2 0x1BC0 JUMP JUMPDEST PUSH1 0x20 DUP7 ADD MLOAD PUSH1 0x40 DUP8 ADD MLOAD SWAP2 SWAP6 POP SWAP4 POP PUSH2 0x1715 DUP2 PUSH2 0x1BC0 JUMP JUMPDEST PUSH1 0x60 SWAP6 SWAP1 SWAP6 ADD MLOAD SWAP4 SWAP7 SWAP3 SWAP6 POP POP POP JUMP JUMPDEST PUSH1 0x0 DUP1 PUSH1 0x0 PUSH1 0x60 DUP5 DUP7 SUB SLT ISZERO PUSH2 0x1739 JUMPI DUP3 DUP4 REVERT JUMPDEST DUP4 MLOAD PUSH2 0x1744 DUP2 PUSH2 0x1BC0 JUMP JUMPDEST PUSH1 0x20 DUP6 ADD MLOAD PUSH1 0x40 SWAP1 SWAP6 ADD MLOAD SWAP1 SWAP7 SWAP5 SWAP6 POP SWAP4 SWAP3 POP POP POP JUMP JUMPDEST PUSH1 0x0 PUSH1 0x20 DUP3 DUP5 SUB SLT ISZERO PUSH2 0x176C JUMPI DUP1 DUP2 REVERT JUMPDEST DUP2 MLOAD DUP1 ISZERO ISZERO DUP2 EQ PUSH2 0xFE8 JUMPI DUP2 DUP3 REVERT JUMPDEST PUSH1 0x0 PUSH1 0x20 DUP3 DUP5 SUB SLT ISZERO PUSH2 0x178C JUMPI DUP1 DUP2 REVERT JUMPDEST POP MLOAD SWAP2 SWAP1 POP JUMP JUMPDEST PUSH1 0x0 PUSH1 0x20 DUP3 DUP5 SUB SLT ISZERO PUSH2 0x17A4 JUMPI DUP1 DUP2 REVERT JUMPDEST DUP2 MLOAD PUSH8 0xFFFFFFFFFFFFFFFF DUP2 GT ISZERO PUSH2 0x17BA JUMPI DUP2 DUP3 REVERT JUMPDEST DUP3 ADD PUSH1 0x1F DUP2 ADD DUP5 SGT PUSH2 0x17CA JUMPI DUP2 DUP3 REVERT JUMPDEST DUP1 MLOAD PUSH2 0x17DD PUSH2 0x17D8 DUP3 PUSH2 0x1A5D JUMP JUMPDEST PUSH2 0x1A0E JUMP JUMPDEST DUP2 DUP2 MSTORE DUP6 PUSH1 0x20 DUP4 DUP6 ADD ADD GT ISZERO PUSH2 0x17F1 JUMPI DUP4 DUP5 REVERT JUMPDEST PUSH2 0x1802 DUP3 PUSH1 0x20 DUP4 ADD PUSH1 0x20 DUP7 ADD PUSH2 0x1B2F JUMP JUMPDEST SWAP6 SWAP5 POP POP POP POP POP JUMP JUMPDEST PUSH1 0x0 DUP1 PUSH1 0x0 DUP1 PUSH1 0x0 DUP1 PUSH1 0x0 PUSH1 0xE0 DUP9 DUP11 SUB SLT ISZERO PUSH2 0x1825 JUMPI DUP3 DUP4 REVERT JUMPDEST DUP8 CALLDATALOAD PUSH1 0xFF DUP2 AND DUP2 EQ PUSH2 0x1835 JUMPI DUP4 DUP5 REVERT JUMPDEST SWAP7 POP PUSH1 0x20 DUP9 ADD CALLDATALOAD SWAP6 POP PUSH1 0x40 DUP9 ADD CALLDATALOAD PUSH2 0x184C DUP2 PUSH2 0x1BC0 JUMP JUMPDEST SWAP5 POP PUSH1 0x60 DUP9 ADD CALLDATALOAD SWAP4 POP PUSH1 0x80 DUP9 ADD CALLDATALOAD SWAP3 POP PUSH1 0xA0 DUP9 ADD CALLDATALOAD PUSH2 0x186A DUP2 PUSH2 0x1BC0 JUMP JUMPDEST SWAP2 POP PUSH1 0xC0 DUP9 ADD CALLDATALOAD PUSH8 0xFFFFFFFFFFFFFFFF DUP2 GT ISZERO PUSH2 0x1885 JUMPI DUP2 DUP3 REVERT JUMPDEST DUP9 ADD PUSH1 0x1F DUP2 ADD DUP11 SGT PUSH2 0x1895 JUMPI DUP2 DUP3 REVERT JUMPDEST DUP1 CALLDATALOAD PUSH2 0x18A3 PUSH2 0x17D8 DUP3 PUSH2 0x1A5D JUMP JUMPDEST DUP2 DUP2 MSTORE DUP12 PUSH1 0x20 DUP4 DUP6 ADD ADD GT ISZERO PUSH2 0x18B7 JUMPI DUP4 DUP5 REVERT JUMPDEST DUP2 PUSH1 0x20 DUP5 ADD PUSH1 0x20 DUP4 ADD CALLDATACOPY SWAP1 DUP2 ADD PUSH1 0x20 ADD SWAP3 SWAP1 SWAP3 MSTORE POP SWAP6 SWAP9 SWAP5 SWAP8 POP SWAP3 SWAP6 POP SWAP1 SWAP4 SWAP1 SWAP3 JUMP JUMPDEST PUSH1 0x0 DUP2 MLOAD DUP1 DUP5 MSTORE PUSH2 0x18F2 DUP2 PUSH1 0x20 DUP7 ADD PUSH1 0x20 DUP7 ADD PUSH2 0x1B2F JUMP JUMPDEST PUSH1 0x1F ADD PUSH32 0xFFFFFFFFFFFFFFFFFFFFFFFFFFFFFFFFFFFFFFFFFFFFFFFFFFFFFFFFFFFFFFE0 AND SWAP3 SWAP1 SWAP3 ADD PUSH1 0x20 ADD SWAP3 SWAP2 POP POP JUMP JUMPDEST PUSH1 0x0 DUP3 MLOAD PUSH2 0x1936 DUP2 DUP5 PUSH1 0x20 DUP8 ADD PUSH2 0x1B2F JUMP JUMPDEST SWAP2 SWAP1 SWAP2 ADD SWAP3 SWAP2 POP POP JUMP JUMPDEST PUSH1 0x0 PUSH1 0x20 DUP3 MSTORE PUSH2 0xFE8 PUSH1 0x20 DUP4 ADD DUP5 PUSH2 0x18DA JUMP JUMPDEST PUSH1 0x0 PUSH1 0x80 DUP3 MSTORE PUSH2 0x1966 PUSH1 0x80 DUP4 ADD DUP8 PUSH2 0x18DA JUMP JUMPDEST DUP3 DUP2 SUB PUSH1 0x20 DUP5 ADD MSTORE PUSH2 0x1978 DUP2 DUP8 PUSH2 0x18DA JUMP JUMPDEST SWAP1 POP DUP3 DUP2 SUB PUSH1 0x40 DUP5 ADD MSTORE PUSH2 0x198C DUP2 DUP7 PUSH2 0x18DA JUMP JUMPDEST SWAP2 POP POP DUP3 PUSH1 0x60 DUP4 ADD MSTORE SWAP6 SWAP5 POP POP POP POP POP JUMP JUMPDEST PUSH1 0x0 PUSH2 0x100 PUSH4 0xFFFFFFFF DUP12 AND DUP4 MSTORE PUSH20 0xFFFFFFFFFFFFFFFFFFFFFFFFFFFFFFFFFFFFFFFF DUP1 DUP12 AND PUSH1 0x20 DUP6 ADD MSTORE DUP1 DUP11 AND PUSH1 0x40 DUP6 ADD MSTORE DUP1 DUP10 AND PUSH1 0x60 DUP6 ADD MSTORE POP DUP7 PUSH1 0x80 DUP5 ADD MSTORE DUP6 PUSH1 0xA0 DUP5 ADD MSTORE DUP1 PUSH1 0xC0 DUP5 ADD MSTORE PUSH2 0x19F8 DUP2 DUP5 ADD DUP7 PUSH2 0x18DA JUMP JUMPDEST SWAP2 POP POP DUP3 PUSH1 0xE0 DUP4 ADD MSTORE SWAP10 SWAP9 POP POP POP POP POP POP POP POP POP JUMP JUMPDEST PUSH1 0x40 MLOAD PUSH1 0x1F DUP3 ADD PUSH32 0xFFFFFFFFFFFFFFFFFFFFFFFFFFFFFFFFFFFFFFFFFFFFFFFFFFFFFFFFFFFFFFE0 AND DUP2 ADD PUSH8 0xFFFFFFFFFFFFFFFF DUP2 GT DUP3 DUP3 LT OR ISZERO PUSH2 0x1A55 JUMPI PUSH2 0x1A55 PUSH2 0x1BAA JUMP JUMPDEST PUSH1 0x40 MSTORE SWAP2 SWAP1 POP JUMP JUMPDEST PUSH1 0x0 PUSH8 0xFFFFFFFFFFFFFFFF DUP3 GT ISZERO PUSH2 0x1A77 JUMPI PUSH2 0x1A77 PUSH2 0x1BAA JUMP JUMPDEST POP PUSH1 0x1F ADD PUSH32 0xFFFFFFFFFFFFFFFFFFFFFFFFFFFFFFFFFFFFFFFFFFFFFFFFFFFFFFFFFFFFFFE0 AND PUSH1 0x20 ADD SWAP1 JUMP JUMPDEST PUSH1 0x0 DUP3 NOT DUP3 GT ISZERO PUSH2 0x1AB6 JUMPI PUSH2 0x1AB6 PUSH2 0x1B94 JUMP JUMPDEST POP ADD SWAP1 JUMP JUMPDEST PUSH1 0x0 DUP3 PUSH2 0x1AD6 JUMPI PUSH4 0x4E487B71 PUSH1 0xE0 SHL DUP2 MSTORE PUSH1 0x12 PUSH1 0x4 MSTORE PUSH1 0x24 DUP2 REVERT JUMPDEST POP DIV SWAP1 JUMP JUMPDEST PUSH1 0x0 DUP2 PUSH32 0xFFFFFFFFFFFFFFFFFFFFFFFFFFFFFFFFFFFFFFFFFFFFFFFFFFFFFFFFFFFFFFFF DIV DUP4 GT DUP3 ISZERO ISZERO AND ISZERO PUSH2 0x1B13 JUMPI PUSH2 0x1B13 PUSH2 0x1B94 JUMP JUMPDEST POP MUL SWAP1 JUMP JUMPDEST PUSH1 0x0 DUP3 DUP3 LT ISZERO PUSH2 0x1B2A JUMPI PUSH2 0x1B2A PUSH2 0x1B94 JUMP JUMPDEST POP SUB SWAP1 JUMP JUMPDEST PUSH1 0x0 JUMPDEST DUP4 DUP2 LT ISZERO PUSH2 0x1B4A JUMPI DUP2 DUP2 ADD MLOAD DUP4 DUP3 ADD MSTORE PUSH1 0x20 ADD PUSH2 0x1B32 JUMP JUMPDEST DUP4 DUP2 GT ISZERO PUSH2 0x1B59 JUMPI PUSH1 0x0 DUP5 DUP5 ADD MSTORE JUMPDEST POP POP POP POP JUMP JUMPDEST PUSH1 0x0 DUP2 PUSH2 0x1B6E JUMPI PUSH2 0x1B6E PUSH2 0x1B94 JUMP JUMPDEST POP PUSH32 0xFFFFFFFFFFFFFFFFFFFFFFFFFFFFFFFFFFFFFFFFFFFFFFFFFFFFFFFFFFFFFFFF ADD SWAP1 JUMP JUMPDEST PUSH4 0x4E487B71 PUSH1 0xE0 SHL PUSH1 0x0 MSTORE PUSH1 0x11 PUSH1 0x4 MSTORE PUSH1 0x24 PUSH1 0x0 REVERT JUMPDEST PUSH4 0x4E487B71 PUSH1 0xE0 SHL PUSH1 0x0 MSTORE PUSH1 0x41 PUSH1 0x4 MSTORE PUSH1 0x24 PUSH1 0x0 REVERT JUMPDEST PUSH20 0xFFFFFFFFFFFFFFFFFFFFFFFFFFFFFFFFFFFFFFFF DUP2 AND DUP2 EQ PUSH2 0x1BE2 JUMPI PUSH1 0x0 DUP1 REVERT JUMPDEST POP JUMP INVALID LOG2 PUSH5 0x6970667358 0x22 SLT KECCAK256 0xF BLOCKHASH 0xAA 0xA8 NOT PUSH15 0x61FDBEFDAEFCB72BAF48FD7F2513CC CALLER 0xD6 0xBB PUSH21 0x20FEC01B19C0B264736F6C63430008030033000000 "},"methodIdentifiers":{"NAMESPACE()":"44ba1fca","bridge(uint8,uint256,address,uint256,uint256,address,bytes)":"f9cf051f","registry()":"7b103999"}}}}}