{"contracts/oracle/PriceOracle.sol":{"PriceOracle":{"abi":[{"inputs":[{"internalType":"address","name":"_pivot","type":"address"},{"internalType":"address","name":"_registry","type":"address"}],"stateMutability":"nonpayable","type":"constructor"},{"inputs":[],"name":"NAMESPACE","outputs":[{"internalType":"bytes32","name":"","type":"bytes32"}],"stateMutability":"view","type":"function"},{"inputs":[{"internalType":"address","name":"provider","type":"address"},{"internalType":"address","name":"base","type":"address"},{"internalType":"address","name":"quote","type":"address"}],"name":"getPrice","outputs":[{"internalType":"uint256","name":"","type":"uint256"}],"stateMutability":"view","type":"function"},{"inputs":[],"name":"pivot","outputs":[{"internalType":"address","name":"","type":"address"}],"stateMutability":"view","type":"function"},{"inputs":[],"name":"registry","outputs":[{"internalType":"address","name":"","type":"address"}],"stateMutability":"view","type":"function"}],"evm":{"bytecode":{"linkReferences":{},"object":"60c060405234801561001057600080fd5b50604051610fdf380380610fdf83398101604081905261002f9161006a565b6001600160601b0319606091821b811660805291901b1660a05261009c565b80516001600160a01b038116811461006557600080fd5b919050565b6000806040838503121561007c578182fd5b6100858361004e565b91506100936020840161004e565b90509250929050565b60805160601c60a05160601c610f0c6100d36000396000818160ef0152818161052801526105f30152600060a30152610f0c6000f3fe608060405234801561001057600080fd5b506004361061004c5760003560e01c806344ba1fca146100515780637100d05c1461008b5780637b1039991461009e578063d77fe1cd146100ea575b600080fd5b6100787fdd24a0f121e5ab7c3e97c63eaaf859e0b46792c3e0edfd86e2b3ad50f63011d881565b6040519081526020015b60405180910390f35b610078610099366004610c08565b610111565b6100c57f000000000000000000000000000000000000000000000000000000000000000081565b60405173ffffffffffffffffffffffffffffffffffffffff9091168152602001610082565b6100c57f000000000000000000000000000000000000000000000000000000000000000081565b60008173ffffffffffffffffffffffffffffffffffffffff168373ffffffffffffffffffffffffffffffffffffffff1614156101565750670de0b6b3a7640000610315565b60008373ffffffffffffffffffffffffffffffffffffffff1663313ce5676040518163ffffffff1660e01b815260040160206040518083038186803b15801561019e57600080fd5b505afa1580156101b2573d6000803e3d6000fd5b505050506040513d601f19601f820116820180604052508101906101d69190610ca1565b60ff16905060008373ffffffffffffffffffffffffffffffffffffffff1663313ce5676040518163ffffffff1660e01b815260040160206040518083038186803b15801561022357600080fd5b505afa158015610237573d6000803e3d6000fd5b505050506040513d601f19601f8201168201806040525081019061025b9190610ca1565b60ff16905061026b81601261031c565b8211156102d9576040517f08c379a000000000000000000000000000000000000000000000000000000000815260206004820152601560248201527f424153455f444543494d414c535f544f4f5f424947000000000000000000000060448201526064015b60405180910390fd5b60006102ee836102ea84601261031c565b0390565b90506000806102fe898989610326565b9150915061030d82828561073d565b955050505050505b9392505050565b8181015b92915050565b6040517f9f0514ad00000000000000000000000000000000000000000000000000000000815273ffffffffffffffffffffffffffffffffffffffff838116600483015282811660248301526000918291829190871690639f0514ad9060440160206040518083038186803b15801561039d57600080fd5b505afa1580156103b1573d6000803e3d6000fd5b505050506040513d601f19601f820116820180604052508101906103d59190610bec565b905073ffffffffffffffffffffffffffffffffffffffff811615610406576103fc81610782565b9250925050610735565b6040517f9f0514ad00000000000000000000000000000000000000000000000000000000815273ffffffffffffffffffffffffffffffffffffffff8581166004830152868116602483015260009190881690639f0514ad9060440160206040518083038186803b15801561047957600080fd5b505afa15801561048d573d6000803e3d6000fd5b505050506040513d601f19601f820116820180604052508101906104b19190610bec565b905073ffffffffffffffffffffffffffffffffffffffff8116156104e3576104d88161089f565b935093505050610735565b6040517f9f0514ad00000000000000000000000000000000000000000000000000000000815273ffffffffffffffffffffffffffffffffffffffff87811660048301527f00000000000000000000000000000000000000000000000000000000000000008116602483015260009190891690639f0514ad9060440160206040518083038186803b15801561057657600080fd5b505afa15801561058a573d6000803e3d6000fd5b505050506040513d601f19601f820116820180604052508101906105ae9190610bec565b6040517f9f0514ad00000000000000000000000000000000000000000000000000000000815273ffffffffffffffffffffffffffffffffffffffff88811660048301527f0000000000000000000000000000000000000000000000000000000000000000811660248301529192506000918a1690639f0514ad9060440160206040518083038186803b15801561064357600080fd5b505afa158015610657573d6000803e3d6000fd5b505050506040513d601f19601f8201168201806040525081019061067b9190610bec565b905073ffffffffffffffffffffffffffffffffffffffff8216158015906106b7575073ffffffffffffffffffffffffffffffffffffffff811615155b156106d3576106c6828261093e565b9550955050505050610735565b6040517f08c379a000000000000000000000000000000000000000000000000000000000815260206004820152601260248201527f4d495353494e475f50524943455f46454544000000000000000000000000000060448201526064016102d0565b935093915050565b60008282101561076357610754828403600a610d59565b61075e9085610cda565b61077a565b610770838303600a610d59565b61077a9085610e45565b949350505050565b6000808273ffffffffffffffffffffffffffffffffffffffff1663313ce5676040518163ffffffff1660e01b815260040160206040518083038186803b1580156107cb57600080fd5b505afa1580156107df573d6000803e3d6000fd5b505050506040513d601f19601f820116820180604052508101906108039190610ca1565b60ff16905060008373ffffffffffffffffffffffffffffffffffffffff1663feaf968c6040518163ffffffff1660e01b815260040160a06040518083038186803b15801561085057600080fd5b505afa158015610864573d6000803e3d6000fd5b505050506040513d601f19601f820116820180604052508101906108889190610c52565b505050915050610897816109fe565b925050915091565b6000806000806108ae85610782565b91509150602481111561091d576040517f08c379a000000000000000000000000000000000000000000000000000000000815260206004820152601560248201527f464545445f444543494d414c535f544f4f5f424947000000000000000000000060448201526064016102d0565b61092f670de0b6b3a764000083610a72565b95602491909103945092505050565b60008060008061094d86610782565b9150915060008061095d87610782565b909250905061096d601284610cc2565b8111156109d6576040517f08c379a000000000000000000000000000000000000000000000000000000000815260206004820152601b60248201527f51554f54455f464545445f444543494d414c535f544f4f5f424947000000000060448201526064016102d0565b6109e08483610a72565b95506109f1816102ea85601261031c565b9450505050509250929050565b600080821215610a6a576040517f08c379a000000000000000000000000000000000000000000000000000000000815260206004820181905260248201527f53616665436173743a2076616c7565206d75737420626520706f73697469766560448201526064016102d0565b50805b919050565b600081610adb576040517f08c379a000000000000000000000000000000000000000000000000000000000815260206004820152600d60248201527f5a45524f5f4449564953494f4e0000000000000000000000000000000000000060448201526064016102d0565b82610ae857506000610320565b670de0b6b3a764000083810290848281610b2b577f4e487b7100000000000000000000000000000000000000000000000000000000600052601260045260246000fd5b0414610b93576040517f08c379a000000000000000000000000000000000000000000000000000000000815260206004820152600c60248201527f4449565f494e5445524e414c000000000000000000000000000000000000000060448201526064016102d0565b828181610bc9577f4e487b7100000000000000000000000000000000000000000000000000000000600052601260045260246000fd5b04949350505050565b805169ffffffffffffffffffff81168114610a6d57600080fd5b600060208284031215610bfd578081fd5b815161031581610eb1565b600080600060608486031215610c1c578182fd5b8335610c2781610eb1565b92506020840135610c3781610eb1565b91506040840135610c4781610eb1565b809150509250925092565b600080600080600060a08688031215610c69578081fd5b610c7286610bd2565b9450602086015193506040860151925060608601519150610c9560808701610bd2565b90509295509295909350565b600060208284031215610cb2578081fd5b815160ff81168114610315578182fd5b60008219821115610cd557610cd5610e82565b500190565b600082610d0e577f4e487b710000000000000000000000000000000000000000000000000000000081526012600452602481fd5b500490565b80825b6001808611610d255750610d50565b818704821115610d3757610d37610e82565b80861615610d4457918102915b9490941c938002610d16565b94509492505050565b60006103157fffffffffffffffffffffffffffffffffffffffffffffffffffffffffffffffff8484600082610d9057506001610315565b81610d9d57506000610315565b8160018114610db35760028114610dbd57610dea565b6001915050610315565b60ff841115610dce57610dce610e82565b6001841b915084821115610de457610de4610e82565b50610315565b5060208310610133831016604e8410600b8410161715610e1d575081810a83811115610e1857610e18610e82565b610315565b610e2a8484846001610d13565b808604821115610e3c57610e3c610e82565b02949350505050565b6000817fffffffffffffffffffffffffffffffffffffffffffffffffffffffffffffffff0483118215151615610e7d57610e7d610e82565b500290565b7f4e487b7100000000000000000000000000000000000000000000000000000000600052601160045260246000fd5b73ffffffffffffffffffffffffffffffffffffffff81168114610ed357600080fd5b5056fea2646970667358221220e2fad9aa07f49873fbc5aecfbc401bea67896d9ba119b2f432b110443e9e3ea764736f6c63430008030033","opcodes":"PUSH1 0xC0 PUSH1 0x40 MSTORE CALLVALUE DUP1 ISZERO PUSH2 0x10 JUMPI PUSH1 0x0 DUP1 REVERT JUMPDEST POP PUSH1 0x40 MLOAD PUSH2 0xFDF CODESIZE SUB DUP1 PUSH2 0xFDF DUP4 CODECOPY DUP2 ADD PUSH1 0x40 DUP2 SWAP1 MSTORE PUSH2 0x2F SWAP2 PUSH2 0x6A JUMP JUMPDEST PUSH1 0x1 PUSH1 0x1 PUSH1 0x60 SHL SUB NOT PUSH1 0x60 SWAP2 DUP3 SHL DUP2 AND PUSH1 0x80 MSTORE SWAP2 SWAP1 SHL AND PUSH1 0xA0 MSTORE PUSH2 0x9C JUMP JUMPDEST DUP1 MLOAD PUSH1 0x1 PUSH1 0x1 PUSH1 0xA0 SHL SUB DUP2 AND DUP2 EQ PUSH2 0x65 JUMPI PUSH1 0x0 DUP1 REVERT JUMPDEST SWAP2 SWAP1 POP JUMP JUMPDEST PUSH1 0x0 DUP1 PUSH1 0x40 DUP4 DUP6 SUB SLT ISZERO PUSH2 0x7C JUMPI DUP2 DUP3 REVERT JUMPDEST PUSH2 0x85 DUP4 PUSH2 0x4E JUMP JUMPDEST SWAP2 POP PUSH2 0x93 PUSH1 0x20 DUP5 ADD PUSH2 0x4E JUMP JUMPDEST SWAP1 POP SWAP3 POP SWAP3 SWAP1 POP JUMP JUMPDEST PUSH1 0x80 MLOAD PUSH1 0x60 SHR PUSH1 0xA0 MLOAD PUSH1 0x60 SHR PUSH2 0xF0C PUSH2 0xD3 PUSH1 0x0 CODECOPY PUSH1 0x0 DUP2 DUP2 PUSH1 0xEF ADD MSTORE DUP2 DUP2 PUSH2 0x528 ADD MSTORE PUSH2 0x5F3 ADD MSTORE PUSH1 0x0 PUSH1 0xA3 ADD MSTORE PUSH2 0xF0C PUSH1 0x0 RETURN INVALID PUSH1 0x80 PUSH1 0x40 MSTORE CALLVALUE DUP1 ISZERO PUSH2 0x10 JUMPI PUSH1 0x0 DUP1 REVERT JUMPDEST POP PUSH1 0x4 CALLDATASIZE LT PUSH2 0x4C JUMPI PUSH1 0x0 CALLDATALOAD PUSH1 0xE0 SHR DUP1 PUSH4 0x44BA1FCA EQ PUSH2 0x51 JUMPI DUP1 PUSH4 0x7100D05C EQ PUSH2 0x8B JUMPI DUP1 PUSH4 0x7B103999 EQ PUSH2 0x9E JUMPI DUP1 PUSH4 0xD77FE1CD EQ PUSH2 0xEA JUMPI JUMPDEST PUSH1 0x0 DUP1 REVERT JUMPDEST PUSH2 0x78 PUSH32 0xDD24A0F121E5AB7C3E97C63EAAF859E0B46792C3E0EDFD86E2B3AD50F63011D8 DUP2 JUMP JUMPDEST PUSH1 0x40 MLOAD SWAP1 DUP2 MSTORE PUSH1 0x20 ADD JUMPDEST PUSH1 0x40 MLOAD DUP1 SWAP2 SUB SWAP1 RETURN JUMPDEST PUSH2 0x78 PUSH2 0x99 CALLDATASIZE PUSH1 0x4 PUSH2 0xC08 JUMP JUMPDEST PUSH2 0x111 JUMP JUMPDEST PUSH2 0xC5 PUSH32 0x0 DUP2 JUMP JUMPDEST PUSH1 0x40 MLOAD PUSH20 0xFFFFFFFFFFFFFFFFFFFFFFFFFFFFFFFFFFFFFFFF SWAP1 SWAP2 AND DUP2 MSTORE PUSH1 0x20 ADD PUSH2 0x82 JUMP JUMPDEST PUSH2 0xC5 PUSH32 0x0 DUP2 JUMP JUMPDEST PUSH1 0x0 DUP2 PUSH20 0xFFFFFFFFFFFFFFFFFFFFFFFFFFFFFFFFFFFFFFFF AND DUP4 PUSH20 0xFFFFFFFFFFFFFFFFFFFFFFFFFFFFFFFFFFFFFFFF AND EQ ISZERO PUSH2 0x156 JUMPI POP PUSH8 0xDE0B6B3A7640000 PUSH2 0x315 JUMP JUMPDEST PUSH1 0x0 DUP4 PUSH20 0xFFFFFFFFFFFFFFFFFFFFFFFFFFFFFFFFFFFFFFFF AND PUSH4 0x313CE567 PUSH1 0x40 MLOAD DUP2 PUSH4 0xFFFFFFFF AND PUSH1 0xE0 SHL DUP2 MSTORE PUSH1 0x4 ADD PUSH1 0x20 PUSH1 0x40 MLOAD DUP1 DUP4 SUB DUP2 DUP7 DUP1 EXTCODESIZE ISZERO DUP1 ISZERO PUSH2 0x19E JUMPI PUSH1 0x0 DUP1 REVERT JUMPDEST POP GAS STATICCALL ISZERO DUP1 ISZERO PUSH2 0x1B2 JUMPI RETURNDATASIZE PUSH1 0x0 DUP1 RETURNDATACOPY RETURNDATASIZE PUSH1 0x0 REVERT JUMPDEST POP POP POP POP PUSH1 0x40 MLOAD RETURNDATASIZE PUSH1 0x1F NOT PUSH1 0x1F DUP3 ADD AND DUP3 ADD DUP1 PUSH1 0x40 MSTORE POP DUP2 ADD SWAP1 PUSH2 0x1D6 SWAP2 SWAP1 PUSH2 0xCA1 JUMP JUMPDEST PUSH1 0xFF AND SWAP1 POP PUSH1 0x0 DUP4 PUSH20 0xFFFFFFFFFFFFFFFFFFFFFFFFFFFFFFFFFFFFFFFF AND PUSH4 0x313CE567 PUSH1 0x40 MLOAD DUP2 PUSH4 0xFFFFFFFF AND PUSH1 0xE0 SHL DUP2 MSTORE PUSH1 0x4 ADD PUSH1 0x20 PUSH1 0x40 MLOAD DUP1 DUP4 SUB DUP2 DUP7 DUP1 EXTCODESIZE ISZERO DUP1 ISZERO PUSH2 0x223 JUMPI PUSH1 0x0 DUP1 REVERT JUMPDEST POP GAS STATICCALL ISZERO DUP1 ISZERO PUSH2 0x237 JUMPI RETURNDATASIZE PUSH1 0x0 DUP1 RETURNDATACOPY RETURNDATASIZE PUSH1 0x0 REVERT JUMPDEST POP POP POP POP PUSH1 0x40 MLOAD RETURNDATASIZE PUSH1 0x1F NOT PUSH1 0x1F DUP3 ADD AND DUP3 ADD DUP1 PUSH1 0x40 MSTORE POP DUP2 ADD SWAP1 PUSH2 0x25B SWAP2 SWAP1 PUSH2 0xCA1 JUMP JUMPDEST PUSH1 0xFF AND SWAP1 POP PUSH2 0x26B DUP2 PUSH1 0x12 PUSH2 0x31C JUMP JUMPDEST DUP3 GT ISZERO PUSH2 0x2D9 JUMPI PUSH1 0x40 MLOAD PUSH32 0x8C379A000000000000000000000000000000000000000000000000000000000 DUP2 MSTORE PUSH1 0x20 PUSH1 0x4 DUP3 ADD MSTORE PUSH1 0x15 PUSH1 0x24 DUP3 ADD MSTORE PUSH32 0x424153455F444543494D414C535F544F4F5F4249470000000000000000000000 PUSH1 0x44 DUP3 ADD MSTORE PUSH1 0x64 ADD JUMPDEST PUSH1 0x40 MLOAD DUP1 SWAP2 SUB SWAP1 REVERT JUMPDEST PUSH1 0x0 PUSH2 0x2EE DUP4 PUSH2 0x2EA DUP5 PUSH1 0x12 PUSH2 0x31C JUMP JUMPDEST SUB SWAP1 JUMP JUMPDEST SWAP1 POP PUSH1 0x0 DUP1 PUSH2 0x2FE DUP10 DUP10 DUP10 PUSH2 0x326 JUMP JUMPDEST SWAP2 POP SWAP2 POP PUSH2 0x30D DUP3 DUP3 DUP6 PUSH2 0x73D JUMP JUMPDEST SWAP6 POP POP POP POP POP POP JUMPDEST SWAP4 SWAP3 POP POP POP JUMP JUMPDEST DUP2 DUP2 ADD JUMPDEST SWAP3 SWAP2 POP POP JUMP JUMPDEST PUSH1 0x40 MLOAD PUSH32 0x9F0514AD00000000000000000000000000000000000000000000000000000000 DUP2 MSTORE PUSH20 0xFFFFFFFFFFFFFFFFFFFFFFFFFFFFFFFFFFFFFFFF DUP4 DUP2 AND PUSH1 0x4 DUP4 ADD MSTORE DUP3 DUP2 AND PUSH1 0x24 DUP4 ADD MSTORE PUSH1 0x0 SWAP2 DUP3 SWAP2 DUP3 SWAP2 SWAP1 DUP8 AND SWAP1 PUSH4 0x9F0514AD SWAP1 PUSH1 0x44 ADD PUSH1 0x20 PUSH1 0x40 MLOAD DUP1 DUP4 SUB DUP2 DUP7 DUP1 EXTCODESIZE ISZERO DUP1 ISZERO PUSH2 0x39D JUMPI PUSH1 0x0 DUP1 REVERT JUMPDEST POP GAS STATICCALL ISZERO DUP1 ISZERO PUSH2 0x3B1 JUMPI RETURNDATASIZE PUSH1 0x0 DUP1 RETURNDATACOPY RETURNDATASIZE PUSH1 0x0 REVERT JUMPDEST POP POP POP POP PUSH1 0x40 MLOAD RETURNDATASIZE PUSH1 0x1F NOT PUSH1 0x1F DUP3 ADD AND DUP3 ADD DUP1 PUSH1 0x40 MSTORE POP DUP2 ADD SWAP1 PUSH2 0x3D5 SWAP2 SWAP1 PUSH2 0xBEC JUMP JUMPDEST SWAP1 POP PUSH20 0xFFFFFFFFFFFFFFFFFFFFFFFFFFFFFFFFFFFFFFFF DUP2 AND ISZERO PUSH2 0x406 JUMPI PUSH2 0x3FC DUP2 PUSH2 0x782 JUMP JUMPDEST SWAP3 POP SWAP3 POP POP PUSH2 0x735 JUMP JUMPDEST PUSH1 0x40 MLOAD PUSH32 0x9F0514AD00000000000000000000000000000000000000000000000000000000 DUP2 MSTORE PUSH20 0xFFFFFFFFFFFFFFFFFFFFFFFFFFFFFFFFFFFFFFFF DUP6 DUP2 AND PUSH1 0x4 DUP4 ADD MSTORE DUP7 DUP2 AND PUSH1 0x24 DUP4 ADD MSTORE PUSH1 0x0 SWAP2 SWAP1 DUP9 AND SWAP1 PUSH4 0x9F0514AD SWAP1 PUSH1 0x44 ADD PUSH1 0x20 PUSH1 0x40 MLOAD DUP1 DUP4 SUB DUP2 DUP7 DUP1 EXTCODESIZE ISZERO DUP1 ISZERO PUSH2 0x479 JUMPI PUSH1 0x0 DUP1 REVERT JUMPDEST POP GAS STATICCALL ISZERO DUP1 ISZERO PUSH2 0x48D JUMPI RETURNDATASIZE PUSH1 0x0 DUP1 RETURNDATACOPY RETURNDATASIZE PUSH1 0x0 REVERT JUMPDEST POP POP POP POP PUSH1 0x40 MLOAD RETURNDATASIZE PUSH1 0x1F NOT PUSH1 0x1F DUP3 ADD AND DUP3 ADD DUP1 PUSH1 0x40 MSTORE POP DUP2 ADD SWAP1 PUSH2 0x4B1 SWAP2 SWAP1 PUSH2 0xBEC JUMP JUMPDEST SWAP1 POP PUSH20 0xFFFFFFFFFFFFFFFFFFFFFFFFFFFFFFFFFFFFFFFF DUP2 AND ISZERO PUSH2 0x4E3 JUMPI PUSH2 0x4D8 DUP2 PUSH2 0x89F JUMP JUMPDEST SWAP4 POP SWAP4 POP POP POP PUSH2 0x735 JUMP JUMPDEST PUSH1 0x40 MLOAD PUSH32 0x9F0514AD00000000000000000000000000000000000000000000000000000000 DUP2 MSTORE PUSH20 0xFFFFFFFFFFFFFFFFFFFFFFFFFFFFFFFFFFFFFFFF DUP8 DUP2 AND PUSH1 0x4 DUP4 ADD MSTORE PUSH32 0x0 DUP2 AND PUSH1 0x24 DUP4 ADD MSTORE PUSH1 0x0 SWAP2 SWAP1 DUP10 AND SWAP1 PUSH4 0x9F0514AD SWAP1 PUSH1 0x44 ADD PUSH1 0x20 PUSH1 0x40 MLOAD DUP1 DUP4 SUB DUP2 DUP7 DUP1 EXTCODESIZE ISZERO DUP1 ISZERO PUSH2 0x576 JUMPI PUSH1 0x0 DUP1 REVERT JUMPDEST POP GAS STATICCALL ISZERO DUP1 ISZERO PUSH2 0x58A JUMPI RETURNDATASIZE PUSH1 0x0 DUP1 RETURNDATACOPY RETURNDATASIZE PUSH1 0x0 REVERT JUMPDEST POP POP POP POP PUSH1 0x40 MLOAD RETURNDATASIZE PUSH1 0x1F NOT PUSH1 0x1F DUP3 ADD AND DUP3 ADD DUP1 PUSH1 0x40 MSTORE POP DUP2 ADD SWAP1 PUSH2 0x5AE SWAP2 SWAP1 PUSH2 0xBEC JUMP JUMPDEST PUSH1 0x40 MLOAD PUSH32 0x9F0514AD00000000000000000000000000000000000000000000000000000000 DUP2 MSTORE PUSH20 0xFFFFFFFFFFFFFFFFFFFFFFFFFFFFFFFFFFFFFFFF DUP9 DUP2 AND PUSH1 0x4 DUP4 ADD MSTORE PUSH32 0x0 DUP2 AND PUSH1 0x24 DUP4 ADD MSTORE SWAP2 SWAP3 POP PUSH1 0x0 SWAP2 DUP11 AND SWAP1 PUSH4 0x9F0514AD SWAP1 PUSH1 0x44 ADD PUSH1 0x20 PUSH1 0x40 MLOAD DUP1 DUP4 SUB DUP2 DUP7 DUP1 EXTCODESIZE ISZERO DUP1 ISZERO PUSH2 0x643 JUMPI PUSH1 0x0 DUP1 REVERT JUMPDEST POP GAS STATICCALL ISZERO DUP1 ISZERO PUSH2 0x657 JUMPI RETURNDATASIZE PUSH1 0x0 DUP1 RETURNDATACOPY RETURNDATASIZE PUSH1 0x0 REVERT JUMPDEST POP POP POP POP PUSH1 0x40 MLOAD RETURNDATASIZE PUSH1 0x1F NOT PUSH1 0x1F DUP3 ADD AND DUP3 ADD DUP1 PUSH1 0x40 MSTORE POP DUP2 ADD SWAP1 PUSH2 0x67B SWAP2 SWAP1 PUSH2 0xBEC JUMP JUMPDEST SWAP1 POP PUSH20 0xFFFFFFFFFFFFFFFFFFFFFFFFFFFFFFFFFFFFFFFF DUP3 AND ISZERO DUP1 ISZERO SWAP1 PUSH2 0x6B7 JUMPI POP PUSH20 0xFFFFFFFFFFFFFFFFFFFFFFFFFFFFFFFFFFFFFFFF DUP2 AND ISZERO ISZERO JUMPDEST ISZERO PUSH2 0x6D3 JUMPI PUSH2 0x6C6 DUP3 DUP3 PUSH2 0x93E JUMP JUMPDEST SWAP6 POP SWAP6 POP POP POP POP POP PUSH2 0x735 JUMP JUMPDEST PUSH1 0x40 MLOAD PUSH32 0x8C379A000000000000000000000000000000000000000000000000000000000 DUP2 MSTORE PUSH1 0x20 PUSH1 0x4 DUP3 ADD MSTORE PUSH1 0x12 PUSH1 0x24 DUP3 ADD MSTORE PUSH32 0x4D495353494E475F50524943455F464545440000000000000000000000000000 PUSH1 0x44 DUP3 ADD MSTORE PUSH1 0x64 ADD PUSH2 0x2D0 JUMP JUMPDEST SWAP4 POP SWAP4 SWAP2 POP POP JUMP JUMPDEST PUSH1 0x0 DUP3 DUP3 LT ISZERO PUSH2 0x763 JUMPI PUSH2 0x754 DUP3 DUP5 SUB PUSH1 0xA PUSH2 0xD59 JUMP JUMPDEST PUSH2 0x75E SWAP1 DUP6 PUSH2 0xCDA JUMP JUMPDEST PUSH2 0x77A JUMP JUMPDEST PUSH2 0x770 DUP4 DUP4 SUB PUSH1 0xA PUSH2 0xD59 JUMP JUMPDEST PUSH2 0x77A SWAP1 DUP6 PUSH2 0xE45 JUMP JUMPDEST SWAP5 SWAP4 POP POP POP POP JUMP JUMPDEST PUSH1 0x0 DUP1 DUP3 PUSH20 0xFFFFFFFFFFFFFFFFFFFFFFFFFFFFFFFFFFFFFFFF AND PUSH4 0x313CE567 PUSH1 0x40 MLOAD DUP2 PUSH4 0xFFFFFFFF AND PUSH1 0xE0 SHL DUP2 MSTORE PUSH1 0x4 ADD PUSH1 0x20 PUSH1 0x40 MLOAD DUP1 DUP4 SUB DUP2 DUP7 DUP1 EXTCODESIZE ISZERO DUP1 ISZERO PUSH2 0x7CB JUMPI PUSH1 0x0 DUP1 REVERT JUMPDEST POP GAS STATICCALL ISZERO DUP1 ISZERO PUSH2 0x7DF JUMPI RETURNDATASIZE PUSH1 0x0 DUP1 RETURNDATACOPY RETURNDATASIZE PUSH1 0x0 REVERT JUMPDEST POP POP POP POP PUSH1 0x40 MLOAD RETURNDATASIZE PUSH1 0x1F NOT PUSH1 0x1F DUP3 ADD AND DUP3 ADD DUP1 PUSH1 0x40 MSTORE POP DUP2 ADD SWAP1 PUSH2 0x803 SWAP2 SWAP1 PUSH2 0xCA1 JUMP JUMPDEST PUSH1 0xFF AND SWAP1 POP PUSH1 0x0 DUP4 PUSH20 0xFFFFFFFFFFFFFFFFFFFFFFFFFFFFFFFFFFFFFFFF AND PUSH4 0xFEAF968C PUSH1 0x40 MLOAD DUP2 PUSH4 0xFFFFFFFF AND PUSH1 0xE0 SHL DUP2 MSTORE PUSH1 0x4 ADD PUSH1 0xA0 PUSH1 0x40 MLOAD DUP1 DUP4 SUB DUP2 DUP7 DUP1 EXTCODESIZE ISZERO DUP1 ISZERO PUSH2 0x850 JUMPI PUSH1 0x0 DUP1 REVERT JUMPDEST POP GAS STATICCALL ISZERO DUP1 ISZERO PUSH2 0x864 JUMPI RETURNDATASIZE PUSH1 0x0 DUP1 RETURNDATACOPY RETURNDATASIZE PUSH1 0x0 REVERT JUMPDEST POP POP POP POP PUSH1 0x40 MLOAD RETURNDATASIZE PUSH1 0x1F NOT PUSH1 0x1F DUP3 ADD AND DUP3 ADD DUP1 PUSH1 0x40 MSTORE POP DUP2 ADD SWAP1 PUSH2 0x888 SWAP2 SWAP1 PUSH2 0xC52 JUMP JUMPDEST POP POP POP SWAP2 POP POP PUSH2 0x897 DUP2 PUSH2 0x9FE JUMP JUMPDEST SWAP3 POP POP SWAP2 POP SWAP2 JUMP JUMPDEST PUSH1 0x0 DUP1 PUSH1 0x0 DUP1 PUSH2 0x8AE DUP6 PUSH2 0x782 JUMP JUMPDEST SWAP2 POP SWAP2 POP PUSH1 0x24 DUP2 GT ISZERO PUSH2 0x91D JUMPI PUSH1 0x40 MLOAD PUSH32 0x8C379A000000000000000000000000000000000000000000000000000000000 DUP2 MSTORE PUSH1 0x20 PUSH1 0x4 DUP3 ADD MSTORE PUSH1 0x15 PUSH1 0x24 DUP3 ADD MSTORE PUSH32 0x464545445F444543494D414C535F544F4F5F4249470000000000000000000000 PUSH1 0x44 DUP3 ADD MSTORE PUSH1 0x64 ADD PUSH2 0x2D0 JUMP JUMPDEST PUSH2 0x92F PUSH8 0xDE0B6B3A7640000 DUP4 PUSH2 0xA72 JUMP JUMPDEST SWAP6 PUSH1 0x24 SWAP2 SWAP1 SWAP2 SUB SWAP5 POP SWAP3 POP POP POP JUMP JUMPDEST PUSH1 0x0 DUP1 PUSH1 0x0 DUP1 PUSH2 0x94D DUP7 PUSH2 0x782 JUMP JUMPDEST SWAP2 POP SWAP2 POP PUSH1 0x0 DUP1 PUSH2 0x95D DUP8 PUSH2 0x782 JUMP JUMPDEST SWAP1 SWAP3 POP SWAP1 POP PUSH2 0x96D PUSH1 0x12 DUP5 PUSH2 0xCC2 JUMP JUMPDEST DUP2 GT ISZERO PUSH2 0x9D6 JUMPI PUSH1 0x40 MLOAD PUSH32 0x8C379A000000000000000000000000000000000000000000000000000000000 DUP2 MSTORE PUSH1 0x20 PUSH1 0x4 DUP3 ADD MSTORE PUSH1 0x1B PUSH1 0x24 DUP3 ADD MSTORE PUSH32 0x51554F54455F464545445F444543494D414C535F544F4F5F4249470000000000 PUSH1 0x44 DUP3 ADD MSTORE PUSH1 0x64 ADD PUSH2 0x2D0 JUMP JUMPDEST PUSH2 0x9E0 DUP5 DUP4 PUSH2 0xA72 JUMP JUMPDEST SWAP6 POP PUSH2 0x9F1 DUP2 PUSH2 0x2EA DUP6 PUSH1 0x12 PUSH2 0x31C JUMP JUMPDEST SWAP5 POP POP POP POP POP SWAP3 POP SWAP3 SWAP1 POP JUMP JUMPDEST PUSH1 0x0 DUP1 DUP3 SLT ISZERO PUSH2 0xA6A JUMPI PUSH1 0x40 MLOAD PUSH32 0x8C379A000000000000000000000000000000000000000000000000000000000 DUP2 MSTORE PUSH1 0x20 PUSH1 0x4 DUP3 ADD DUP2 SWAP1 MSTORE PUSH1 0x24 DUP3 ADD MSTORE PUSH32 0x53616665436173743A2076616C7565206D75737420626520706F736974697665 PUSH1 0x44 DUP3 ADD MSTORE PUSH1 0x64 ADD PUSH2 0x2D0 JUMP JUMPDEST POP DUP1 JUMPDEST SWAP2 SWAP1 POP JUMP JUMPDEST PUSH1 0x0 DUP2 PUSH2 0xADB JUMPI PUSH1 0x40 MLOAD PUSH32 0x8C379A000000000000000000000000000000000000000000000000000000000 DUP2 MSTORE PUSH1 0x20 PUSH1 0x4 DUP3 ADD MSTORE PUSH1 0xD PUSH1 0x24 DUP3 ADD MSTORE PUSH32 0x5A45524F5F4449564953494F4E00000000000000000000000000000000000000 PUSH1 0x44 DUP3 ADD MSTORE PUSH1 0x64 ADD PUSH2 0x2D0 JUMP JUMPDEST DUP3 PUSH2 0xAE8 JUMPI POP PUSH1 0x0 PUSH2 0x320 JUMP JUMPDEST PUSH8 0xDE0B6B3A7640000 DUP4 DUP2 MUL SWAP1 DUP5 DUP3 DUP2 PUSH2 0xB2B JUMPI PUSH32 0x4E487B7100000000000000000000000000000000000000000000000000000000 PUSH1 0x0 MSTORE PUSH1 0x12 PUSH1 0x4 MSTORE PUSH1 0x24 PUSH1 0x0 REVERT JUMPDEST DIV EQ PUSH2 0xB93 JUMPI PUSH1 0x40 MLOAD PUSH32 0x8C379A000000000000000000000000000000000000000000000000000000000 DUP2 MSTORE PUSH1 0x20 PUSH1 0x4 DUP3 ADD MSTORE PUSH1 0xC PUSH1 0x24 DUP3 ADD MSTORE PUSH32 0x4449565F494E5445524E414C0000000000000000000000000000000000000000 PUSH1 0x44 DUP3 ADD MSTORE PUSH1 0x64 ADD PUSH2 0x2D0 JUMP JUMPDEST DUP3 DUP2 DUP2 PUSH2 0xBC9 JUMPI PUSH32 0x4E487B7100000000000000000000000000000000000000000000000000000000 PUSH1 0x0 MSTORE PUSH1 0x12 PUSH1 0x4 MSTORE PUSH1 0x24 PUSH1 0x0 REVERT JUMPDEST DIV SWAP5 SWAP4 POP POP POP POP JUMP JUMPDEST DUP1 MLOAD PUSH10 0xFFFFFFFFFFFFFFFFFFFF DUP2 AND DUP2 EQ PUSH2 0xA6D JUMPI PUSH1 0x0 DUP1 REVERT JUMPDEST PUSH1 0x0 PUSH1 0x20 DUP3 DUP5 SUB SLT ISZERO PUSH2 0xBFD JUMPI DUP1 DUP2 REVERT JUMPDEST DUP2 MLOAD PUSH2 0x315 DUP2 PUSH2 0xEB1 JUMP JUMPDEST PUSH1 0x0 DUP1 PUSH1 0x0 PUSH1 0x60 DUP5 DUP7 SUB SLT ISZERO PUSH2 0xC1C JUMPI DUP2 DUP3 REVERT JUMPDEST DUP4 CALLDATALOAD PUSH2 0xC27 DUP2 PUSH2 0xEB1 JUMP JUMPDEST SWAP3 POP PUSH1 0x20 DUP5 ADD CALLDATALOAD PUSH2 0xC37 DUP2 PUSH2 0xEB1 JUMP JUMPDEST SWAP2 POP PUSH1 0x40 DUP5 ADD CALLDATALOAD PUSH2 0xC47 DUP2 PUSH2 0xEB1 JUMP JUMPDEST DUP1 SWAP2 POP POP SWAP3 POP SWAP3 POP SWAP3 JUMP JUMPDEST PUSH1 0x0 DUP1 PUSH1 0x0 DUP1 PUSH1 0x0 PUSH1 0xA0 DUP7 DUP9 SUB SLT ISZERO PUSH2 0xC69 JUMPI DUP1 DUP2 REVERT JUMPDEST PUSH2 0xC72 DUP7 PUSH2 0xBD2 JUMP JUMPDEST SWAP5 POP PUSH1 0x20 DUP7 ADD MLOAD SWAP4 POP PUSH1 0x40 DUP7 ADD MLOAD SWAP3 POP PUSH1 0x60 DUP7 ADD MLOAD SWAP2 POP PUSH2 0xC95 PUSH1 0x80 DUP8 ADD PUSH2 0xBD2 JUMP JUMPDEST SWAP1 POP SWAP3 SWAP6 POP SWAP3 SWAP6 SWAP1 SWAP4 POP JUMP JUMPDEST PUSH1 0x0 PUSH1 0x20 DUP3 DUP5 SUB SLT ISZERO PUSH2 0xCB2 JUMPI DUP1 DUP2 REVERT JUMPDEST DUP2 MLOAD PUSH1 0xFF DUP2 AND DUP2 EQ PUSH2 0x315 JUMPI DUP2 DUP3 REVERT JUMPDEST PUSH1 0x0 DUP3 NOT DUP3 GT ISZERO PUSH2 0xCD5 JUMPI PUSH2 0xCD5 PUSH2 0xE82 JUMP JUMPDEST POP ADD SWAP1 JUMP JUMPDEST PUSH1 0x0 DUP3 PUSH2 0xD0E JUMPI PUSH32 0x4E487B7100000000000000000000000000000000000000000000000000000000 DUP2 MSTORE PUSH1 0x12 PUSH1 0x4 MSTORE PUSH1 0x24 DUP2 REVERT JUMPDEST POP DIV SWAP1 JUMP JUMPDEST DUP1 DUP3 JUMPDEST PUSH1 0x1 DUP1 DUP7 GT PUSH2 0xD25 JUMPI POP PUSH2 0xD50 JUMP JUMPDEST DUP2 DUP8 DIV DUP3 GT ISZERO PUSH2 0xD37 JUMPI PUSH2 0xD37 PUSH2 0xE82 JUMP JUMPDEST DUP1 DUP7 AND ISZERO PUSH2 0xD44 JUMPI SWAP2 DUP2 MUL SWAP2 JUMPDEST SWAP5 SWAP1 SWAP5 SHR SWAP4 DUP1 MUL PUSH2 0xD16 JUMP JUMPDEST SWAP5 POP SWAP5 SWAP3 POP POP POP JUMP JUMPDEST PUSH1 0x0 PUSH2 0x315 PUSH32 0xFFFFFFFFFFFFFFFFFFFFFFFFFFFFFFFFFFFFFFFFFFFFFFFFFFFFFFFFFFFFFFFF DUP5 DUP5 PUSH1 0x0 DUP3 PUSH2 0xD90 JUMPI POP PUSH1 0x1 PUSH2 0x315 JUMP JUMPDEST DUP2 PUSH2 0xD9D JUMPI POP PUSH1 0x0 PUSH2 0x315 JUMP JUMPDEST DUP2 PUSH1 0x1 DUP2 EQ PUSH2 0xDB3 JUMPI PUSH1 0x2 DUP2 EQ PUSH2 0xDBD JUMPI PUSH2 0xDEA JUMP JUMPDEST PUSH1 0x1 SWAP2 POP POP PUSH2 0x315 JUMP JUMPDEST PUSH1 0xFF DUP5 GT ISZERO PUSH2 0xDCE JUMPI PUSH2 0xDCE PUSH2 0xE82 JUMP JUMPDEST PUSH1 0x1 DUP5 SHL SWAP2 POP DUP5 DUP3 GT ISZERO PUSH2 0xDE4 JUMPI PUSH2 0xDE4 PUSH2 0xE82 JUMP JUMPDEST POP PUSH2 0x315 JUMP JUMPDEST POP PUSH1 0x20 DUP4 LT PUSH2 0x133 DUP4 LT AND PUSH1 0x4E DUP5 LT PUSH1 0xB DUP5 LT AND OR ISZERO PUSH2 0xE1D JUMPI POP DUP2 DUP2 EXP DUP4 DUP2 GT ISZERO PUSH2 0xE18 JUMPI PUSH2 0xE18 PUSH2 0xE82 JUMP JUMPDEST PUSH2 0x315 JUMP JUMPDEST PUSH2 0xE2A DUP5 DUP5 DUP5 PUSH1 0x1 PUSH2 0xD13 JUMP JUMPDEST DUP1 DUP7 DIV DUP3 GT ISZERO PUSH2 0xE3C JUMPI PUSH2 0xE3C PUSH2 0xE82 JUMP JUMPDEST MUL SWAP5 SWAP4 POP POP POP POP JUMP JUMPDEST PUSH1 0x0 DUP2 PUSH32 0xFFFFFFFFFFFFFFFFFFFFFFFFFFFFFFFFFFFFFFFFFFFFFFFFFFFFFFFFFFFFFFFF DIV DUP4 GT DUP3 ISZERO ISZERO AND ISZERO PUSH2 0xE7D JUMPI PUSH2 0xE7D PUSH2 0xE82 JUMP JUMPDEST POP MUL SWAP1 JUMP JUMPDEST PUSH32 0x4E487B7100000000000000000000000000000000000000000000000000000000 PUSH1 0x0 MSTORE PUSH1 0x11 PUSH1 0x4 MSTORE PUSH1 0x24 PUSH1 0x0 REVERT JUMPDEST PUSH20 0xFFFFFFFFFFFFFFFFFFFFFFFFFFFFFFFFFFFFFFFF DUP2 AND DUP2 EQ PUSH2 0xED3 JUMPI PUSH1 0x0 DUP1 REVERT JUMPDEST POP JUMP INVALID LOG2 PUSH5 0x6970667358 0x22 SLT KECCAK256 0xE2 STATICCALL 0xD9 0xAA SMOD DELEGATECALL SWAP9 PUSH20 0xFBC5AECFBC401BEA67896D9BA119B2F432B11044 RETURNDATACOPY SWAP15 RETURNDATACOPY 0xA7 PUSH5 0x736F6C6343 STOP ADDMOD SUB STOP CALLER "},"methodIdentifiers":{"NAMESPACE()":"44ba1fca","getPrice(address,address,address)":"7100d05c","pivot()":"d77fe1cd","registry()":"7b103999"}}}}}