{
  "contracts/feeds/PriceFeedProvider.sol": {
    "PriceFeedProvider": {
      "abi": [
        {
          "anonymous": false,
          "inputs": [
            {
              "indexed": true,
              "internalType": "address",
              "name": "base",
              "type": "address"
            },
            {
              "indexed": true,
              "internalType": "address",
              "name": "quote",
              "type": "address"
            },
            {
              "indexed": false,
              "internalType": "address",
              "name": "feed",
              "type": "address"
            }
          ],
          "name": "PriceFeedSet",
          "type": "event"
        },
        {
          "inputs": [
            {
              "internalType": "address",
              "name": "base",
              "type": "address"
            },
            {
              "internalType": "address",
              "name": "quote",
              "type": "address"
            }
          ],
          "name": "getPriceFeed",
          "outputs": [
            {
              "internalType": "address",
              "name": "",
              "type": "address"
            }
          ],
          "stateMutability": "view",
          "type": "function"
        },
        {
          "inputs": [
            {
              "internalType": "address",
              "name": "base",
              "type": "address"
            },
            {
              "internalType": "address",
              "name": "quote",
              "type": "address"
            },
            {
              "internalType": "address",
              "name": "feed",
              "type": "address"
            }
          ],
          "name": "setPriceFeed",
          "outputs": [],
          "stateMutability": "nonpayable",
          "type": "function"
        },
        {
          "inputs": [
            {
              "internalType": "address[]",
              "name": "bases",
              "type": "address[]"
            },
            {
              "internalType": "address[]",
              "name": "quotes",
              "type": "address[]"
            },
            {
              "internalType": "address[]",
              "name": "feeds",
              "type": "address[]"
            }
          ],
          "name": "setPriceFeeds",
          "outputs": [],
          "stateMutability": "nonpayable",
          "type": "function"
        }
      ],
      "evm": {
        "bytecode": {
          "linkReferences": {},
          "object": "608060405234801561001057600080fd5b50610579806100206000396000f3fe608060405234801561001057600080fd5b50600436106100415760003560e01c80634ed310901461004657806367a1d5ab1461005b5780639f0514ad1461006e575b600080fd5b610059610054366004610490565b6100da565b005b61005961006936600461044e565b61029a565b6100b161007c36600461041c565b73ffffffffffffffffffffffffffffffffffffffff918216600090815260208181526040808320938516835292905220541690565b60405173ffffffffffffffffffffffffffffffffffffffff909116815260200160405180910390f35b815183511461014a576040517f08c379a000000000000000000000000000000000000000000000000000000000815260206004820152601f60248201527f5345545f46454544535f494e56414c49445f51554f5445535f4c454e4754480060448201526064015b60405180910390fd5b80518351146101b5576040517f08c379a000000000000000000000000000000000000000000000000000000000815260206004820152601e60248201527f5345545f46454544535f494e56414c49445f46454544535f4c454e47544800006044820152606401610141565b60005b83518110156102945761028c8482815181106101fd577f4e487b7100000000000000000000000000000000000000000000000000000000600052603260045260246000fd5b602002602001015184838151811061023e577f4e487b7100000000000000000000000000000000000000000000000000000000600052603260045260246000fd5b602002602001015184848151811061027f577f4e487b7100000000000000000000000000000000000000000000000000000000600052603260045260246000fd5b602002602001015161029a565b6001016101b8565b50505050565b73ffffffffffffffffffffffffffffffffffffffff8381166000818152602081815260408083208786168085529083529281902080547fffffffffffffffffffffffff00000000000000000000000000000000000000001695871695861790555193845290927f519169f85e741141647fddd20ce1d573843e55c1ca650e85a3f82f3410ee5d04910160405180910390a3505050565b803573ffffffffffffffffffffffffffffffffffffffff8116811461035457600080fd5b919050565b600082601f830112610369578081fd5b8135602067ffffffffffffffff8083111561038657610386610514565b8260051b6040517fffffffffffffffffffffffffffffffffffffffffffffffffffffffffffffffe0603f830116810181811084821117156103c9576103c9610514565b604052848152838101925086840182880185018910156103e7578687fd5b8692505b85831015610410576103fc81610330565b8452928401926001929092019184016103eb565b50979650505050505050565b6000806040838503121561042e578182fd5b61043783610330565b915061044560208401610330565b90509250929050565b600080600060608486031215610462578081fd5b61046b84610330565b925061047960208501610330565b915061048760408501610330565b90509250925092565b6000806000606084860312156104a4578283fd5b833567ffffffffffffffff808211156104bb578485fd5b6104c787838801610359565b945060208601359150808211156104dc578384fd5b6104e887838801610359565b935060408601359150808211156104fd578283fd5b5061050a86828701610359565b9150509250925092565b7f4e487b7100000000000000000000000000000000000000000000000000000000600052604160045260246000fdfea2646970667358221220da00314c7e768cd6d167096ea9880b3fe911f51f8b8f2dec5d38641a870210b964736f6c63430008030033",
          "opcodes": "PUSH1 0x80 PUSH1 0x40 MSTORE CALLVALUE DUP1 ISZERO PUSH2 0x10 JUMPI PUSH1 0x0 DUP1 REVERT JUMPDEST POP PUSH2 0x579 DUP1 PUSH2 0x20 PUSH1 0x0 CODECOPY PUSH1 0x0 RETURN INVALID PUSH1 0x80 PUSH1 0x40 MSTORE CALLVALUE DUP1 ISZERO PUSH2 0x10 JUMPI PUSH1 0x0 DUP1 REVERT JUMPDEST POP PUSH1 0x4 CALLDATASIZE LT PUSH2 0x41 JUMPI PUSH1 0x0 CALLDATALOAD PUSH1 0xE0 SHR DUP1 PUSH4 0x4ED31090 EQ PUSH2 0x46 JUMPI DUP1 PUSH4 0x67A1D5AB EQ PUSH2 0x5B JUMPI DUP1 PUSH4 0x9F0514AD EQ PUSH2 0x6E JUMPI JUMPDEST PUSH1 0x0 DUP1 REVERT JUMPDEST PUSH2 0x59 PUSH2 0x54 CALLDATASIZE PUSH1 0x4 PUSH2 0x490 JUMP JUMPDEST PUSH2 0xDA JUMP JUMPDEST STOP JUMPDEST PUSH2 0x59 PUSH2 0x69 CALLDATASIZE PUSH1 0x4 PUSH2 0x44E JUMP JUMPDEST PUSH2 0x29A JUMP JUMPDEST PUSH2 0xB1 PUSH2 0x7C CALLDATASIZE PUSH1 0x4 PUSH2 0x41C JUMP JUMPDEST PUSH20 0xFFFFFFFFFFFFFFFFFFFFFFFFFFFFFFFFFFFFFFFF SWAP2 DUP3 AND PUSH1 0x0 SWAP1 DUP2 MSTORE PUSH1 0x20 DUP2 DUP2 MSTORE PUSH1 0x40 DUP1 DUP4 KECCAK256 SWAP4 DUP6 AND DUP4 MSTORE SWAP3 SWAP1 MSTORE KECCAK256 SLOAD AND SWAP1 JUMP JUMPDEST PUSH1 0x40 MLOAD PUSH20 0xFFFFFFFFFFFFFFFFFFFFFFFFFFFFFFFFFFFFFFFF SWAP1 SWAP2 AND DUP2 MSTORE PUSH1 0x20 ADD PUSH1 0x40 MLOAD DUP1 SWAP2 SUB SWAP1 RETURN JUMPDEST DUP2 MLOAD DUP4 MLOAD EQ PUSH2 0x14A JUMPI PUSH1 0x40 MLOAD PUSH32 0x8C379A000000000000000000000000000000000000000000000000000000000 DUP2 MSTORE PUSH1 0x20 PUSH1 0x4 DUP3 ADD MSTORE PUSH1 0x1F PUSH1 0x24 DUP3 ADD MSTORE PUSH32 0x5345545F46454544535F494E56414C49445F51554F5445535F4C454E47544800 PUSH1 0x44 DUP3 ADD MSTORE PUSH1 0x64 ADD JUMPDEST PUSH1 0x40 MLOAD DUP1 SWAP2 SUB SWAP1 REVERT JUMPDEST DUP1 MLOAD DUP4 MLOAD EQ PUSH2 0x1B5 JUMPI PUSH1 0x40 MLOAD PUSH32 0x8C379A000000000000000000000000000000000000000000000000000000000 DUP2 MSTORE PUSH1 0x20 PUSH1 0x4 DUP3 ADD MSTORE PUSH1 0x1E PUSH1 0x24 DUP3 ADD MSTORE PUSH32 0x5345545F46454544535F494E56414C49445F46454544535F4C454E4754480000 PUSH1 0x44 DUP3 ADD MSTORE PUSH1 0x64 ADD PUSH2 0x141 JUMP JUMPDEST PUSH1 0x0 JUMPDEST DUP4 MLOAD DUP2 LT ISZERO PUSH2 0x294 JUMPI PUSH2 0x28C DUP5 DUP3 DUP2 MLOAD DUP2 LT PUSH2 0x1FD JUMPI PUSH32 0x4E487B7100000000000000000000000000000000000000000000000000000000 PUSH1 0x0 MSTORE PUSH1 0x32 PUSH1 0x4 MSTORE PUSH1 0x24 PUSH1 0x0 REVERT JUMPDEST PUSH1 0x20 MUL PUSH1 0x20 ADD ADD MLOAD DUP5 DUP4 DUP2 MLOAD DUP2 LT PUSH2 0x23E JUMPI PUSH32 0x4E487B7100000000000000000000000000000000000000000000000000000000 PUSH1 0x0 MSTORE PUSH1 0x32 PUSH1 0x4 MSTORE PUSH1 0x24 PUSH1 0x0 REVERT JUMPDEST PUSH1 0x20 MUL PUSH1 0x20 ADD ADD MLOAD DUP5 DUP5 DUP2 MLOAD DUP2 LT PUSH2 0x27F JUMPI PUSH32 0x4E487B7100000000000000000000000000000000000000000000000000000000 PUSH1 0x0 MSTORE PUSH1 0x32 PUSH1 0x4 MSTORE PUSH1 0x24 PUSH1 0x0 REVERT JUMPDEST PUSH1 0x20 MUL PUSH1 0x20 ADD ADD MLOAD PUSH2 0x29A JUMP JUMPDEST PUSH1 0x1 ADD PUSH2 0x1B8 JUMP JUMPDEST POP POP POP POP JUMP JUMPDEST PUSH20 0xFFFFFFFFFFFFFFFFFFFFFFFFFFFFFFFFFFFFFFFF DUP4 DUP2 AND PUSH1 0x0 DUP2 DUP2 MSTORE PUSH1 0x20 DUP2 DUP2 MSTORE PUSH1 0x40 DUP1 DUP4 KECCAK256 DUP8 DUP7 AND DUP1 DUP6 MSTORE SWAP1 DUP4 MSTORE SWAP3 DUP2 SWAP1 KECCAK256 DUP1 SLOAD PUSH32 0xFFFFFFFFFFFFFFFFFFFFFFFF0000000000000000000000000000000000000000 AND SWAP6 DUP8 AND SWAP6 DUP7 OR SWAP1 SSTORE MLOAD SWAP4 DUP5 MSTORE SWAP1 SWAP3 PUSH32 0x519169F85E741141647FDDD20CE1D573843E55C1CA650E85A3F82F3410EE5D04 SWAP2 ADD PUSH1 0x40 MLOAD DUP1 SWAP2 SUB SWAP1 LOG3 POP POP POP JUMP JUMPDEST DUP1 CALLDATALOAD PUSH20 0xFFFFFFFFFFFFFFFFFFFFFFFFFFFFFFFFFFFFFFFF DUP2 AND DUP2 EQ PUSH2 0x354 JUMPI PUSH1 0x0 DUP1 REVERT JUMPDEST SWAP2 SWAP1 POP JUMP JUMPDEST PUSH1 0x0 DUP3 PUSH1 0x1F DUP4 ADD SLT PUSH2 0x369 JUMPI DUP1 DUP2 REVERT JUMPDEST DUP2 CALLDATALOAD PUSH1 0x20 PUSH8 0xFFFFFFFFFFFFFFFF DUP1 DUP4 GT ISZERO PUSH2 0x386 JUMPI PUSH2 0x386 PUSH2 0x514 JUMP JUMPDEST DUP3 PUSH1 0x5 SHL PUSH1 0x40 MLOAD PUSH32 0xFFFFFFFFFFFFFFFFFFFFFFFFFFFFFFFFFFFFFFFFFFFFFFFFFFFFFFFFFFFFFFE0 PUSH1 0x3F DUP4 ADD AND DUP2 ADD DUP2 DUP2 LT DUP5 DUP3 GT OR ISZERO PUSH2 0x3C9 JUMPI PUSH2 0x3C9 PUSH2 0x514 JUMP JUMPDEST PUSH1 0x40 MSTORE DUP5 DUP2 MSTORE DUP4 DUP2 ADD SWAP3 POP DUP7 DUP5 ADD DUP3 DUP9 ADD DUP6 ADD DUP10 LT ISZERO PUSH2 0x3E7 JUMPI DUP7 DUP8 REVERT JUMPDEST DUP7 SWAP3 POP JUMPDEST DUP6 DUP4 LT ISZERO PUSH2 0x410 JUMPI PUSH2 0x3FC DUP2 PUSH2 0x330 JUMP JUMPDEST DUP5 MSTORE SWAP3 DUP5 ADD SWAP3 PUSH1 0x1 SWAP3 SWAP1 SWAP3 ADD SWAP2 DUP5 ADD PUSH2 0x3EB JUMP JUMPDEST POP SWAP8 SWAP7 POP POP POP POP POP POP POP JUMP JUMPDEST PUSH1 0x0 DUP1 PUSH1 0x40 DUP4 DUP6 SUB SLT ISZERO PUSH2 0x42E JUMPI DUP2 DUP3 REVERT JUMPDEST PUSH2 0x437 DUP4 PUSH2 0x330 JUMP JUMPDEST SWAP2 POP PUSH2 0x445 PUSH1 0x20 DUP5 ADD PUSH2 0x330 JUMP JUMPDEST SWAP1 POP SWAP3 POP SWAP3 SWAP1 POP JUMP JUMPDEST PUSH1 0x0 DUP1 PUSH1 0x0 PUSH1 0x60 DUP5 DUP7 SUB SLT ISZERO PUSH2 0x462 JUMPI DUP1 DUP2 REVERT JUMPDEST PUSH2 0x46B DUP5 PUSH2 0x330 JUMP JUMPDEST SWAP3 POP PUSH2 0x479 PUSH1 0x20 DUP6 ADD PUSH2 0x330 JUMP JUMPDEST SWAP2 POP PUSH2 0x487 PUSH1 0x40 DUP6 ADD PUSH2 0x330 JUMP JUMPDEST SWAP1 POP SWAP3 POP SWAP3 POP SWAP3 JUMP JUMPDEST PUSH1 0x0 DUP1 PUSH1 0x0 PUSH1 0x60 DUP5 DUP7 SUB SLT ISZERO PUSH2 0x4A4 JUMPI DUP3 DUP4 REVERT JUMPDEST DUP4 CALLDATALOAD PUSH8 0xFFFFFFFFFFFFFFFF DUP1 DUP3 GT ISZERO PUSH2 0x4BB JUMPI DUP5 DUP6 REVERT JUMPDEST PUSH2 0x4C7 DUP8 DUP4 DUP9 ADD PUSH2 0x359 JUMP JUMPDEST SWAP5 POP PUSH1 0x20 DUP7 ADD CALLDATALOAD SWAP2 POP DUP1 DUP3 GT ISZERO PUSH2 0x4DC JUMPI DUP4 DUP5 REVERT JUMPDEST PUSH2 0x4E8 DUP8 DUP4 DUP9 ADD PUSH2 0x359 JUMP JUMPDEST SWAP4 POP PUSH1 0x40 DUP7 ADD CALLDATALOAD SWAP2 POP DUP1 DUP3 GT ISZERO PUSH2 0x4FD JUMPI DUP3 DUP4 REVERT JUMPDEST POP PUSH2 0x50A DUP7 DUP3 DUP8 ADD PUSH2 0x359 JUMP JUMPDEST SWAP2 POP POP SWAP3 POP SWAP3 POP SWAP3 JUMP JUMPDEST PUSH32 0x4E487B7100000000000000000000000000000000000000000000000000000000 PUSH1 0x0 MSTORE PUSH1 0x41 PUSH1 0x4 MSTORE PUSH1 0x24 PUSH1 0x0 REVERT INVALID LOG2 PUSH5 0x6970667358 0x22 SLT KECCAK256 0xDA STOP BALANCE 0x4C PUSH31 0x768CD6D167096EA9880B3FE911F51F8B8F2DEC5D38641A870210B964736F6C PUSH4 0x43000803 STOP CALLER "
        },
        "methodIdentifiers": {
          "getPriceFeed(address,address)": "9f0514ad",
          "setPriceFeed(address,address,address)": "67a1d5ab",
          "setPriceFeeds(address[],address[],address[])": "4ed31090"
        }
      }
    }
  }
}