{"@mimic-fi/v2-smart-vault/contracts/SmartVault.sol":{"SmartVault":{"abi":[{"inputs":[{"internalType":"address","name":"_wrappedNativeToken","type":"address"},{"internalType":"address","name":"_registry","type":"address"}],"stateMutability":"nonpayable","type":"constructor"},{"anonymous":false,"inputs":[{"indexed":true,"internalType":"address","name":"who","type":"address"},{"indexed":false,"internalType":"bytes4","name":"what","type":"bytes4"}],"name":"Authorized","type":"event"},{"anonymous":false,"inputs":[{"indexed":true,"internalType":"address","name":"target","type":"address"},{"indexed":false,"internalType":"bytes","name":"callData","type":"bytes"},{"indexed":false,"internalType":"uint256","name":"value","type":"uint256"},{"indexed":false,"internalType":"bytes","name":"result","type":"bytes"},{"indexed":false,"internalType":"bytes","name":"data","type":"bytes"}],"name":"Call","type":"event"},{"anonymous":false,"inputs":[{"indexed":true,"internalType":"address","name":"strategy","type":"address"},{"indexed":false,"internalType":"address[]","name":"tokens","type":"address[]"},{"indexed":false,"internalType":"uint256[]","name":"amounts","type":"uint256[]"},{"indexed":false,"internalType":"bytes","name":"data","type":"bytes"}],"name":"Claim","type":"event"},{"anonymous":false,"inputs":[{"indexed":true,"internalType":"address","name":"token","type":"address"},{"indexed":true,"internalType":"address","name":"from","type":"address"},{"indexed":false,"internalType":"uint256","name":"collected","type":"uint256"},{"indexed":false,"internalType":"bytes","name":"data","type":"bytes"}],"name":"Collect","type":"event"},{"anonymous":false,"inputs":[{"indexed":true,"internalType":"address","name":"strategy","type":"address"},{"indexed":false,"internalType":"address[]","name":"tokensIn","type":"address[]"},{"indexed":false,"internalType":"uint256[]","name":"amountsIn","type":"uint256[]"},{"indexed":false,"internalType":"address[]","name":"tokensOut","type":"address[]"},{"indexed":false,"internalType":"uint256[]","name":"amountsOut","type":"uint256[]"},{"indexed":false,"internalType":"uint256","name":"value","type":"uint256"},{"indexed":false,"internalType":"uint256[]","name":"fees","type":"uint256[]"},{"indexed":false,"internalType":"uint256","name":"slippage","type":"uint256"},{"indexed":false,"internalType":"bytes","name":"data","type":"bytes"}],"name":"Exit","type":"event"},{"anonymous":false,"inputs":[{"indexed":true,"internalType":"address","name":"feeCollector","type":"address"}],"name":"FeeCollectorSet","type":"event"},{"anonymous":false,"inputs":[{"indexed":false,"internalType":"uint8","name":"version","type":"uint8"}],"name":"Initialized","type":"event"},{"anonymous":false,"inputs":[{"indexed":true,"internalType":"address","name":"strategy","type":"address"},{"indexed":false,"internalType":"address[]","name":"tokensIn","type":"address[]"},{"indexed":false,"internalType":"uint256[]","name":"amountsIn","type":"uint256[]"},{"indexed":false,"internalType":"address[]","name":"tokensOut","type":"address[]"},{"indexed":false,"internalType":"uint256[]","name":"amountsOut","type":"uint256[]"},{"indexed":false,"internalType":"uint256","name":"value","type":"uint256"},{"indexed":false,"internalType":"uint256","name":"slippage","type":"uint256"},{"indexed":false,"internalType":"bytes","name":"data","type":"bytes"}],"name":"Join","type":"event"},{"anonymous":false,"inputs":[{"indexed":false,"internalType":"uint256","name":"pct","type":"uint256"},{"indexed":false,"internalType":"uint256","name":"cap","type":"uint256"},{"indexed":false,"internalType":"address","name":"token","type":"address"},{"indexed":false,"internalType":"uint256","name":"period","type":"uint256"}],"name":"PerformanceFeeSet","type":"event"},{"anonymous":false,"inputs":[{"indexed":true,"internalType":"address","name":"base","type":"address"},{"indexed":true,"internalType":"address","name":"quote","type":"address"},{"indexed":false,"internalType":"address","name":"feed","type":"address"}],"name":"PriceFeedSet","type":"event"},{"anonymous":false,"inputs":[{"indexed":true,"internalType":"address","name":"priceOracle","type":"address"}],"name":"PriceOracleSet","type":"event"},{"anonymous":false,"inputs":[{"indexed":true,"internalType":"address","name":"strategy","type":"address"},{"indexed":false,"internalType":"bool","name":"allowed","type":"bool"}],"name":"StrategySet","type":"event"},{"anonymous":false,"inputs":[{"indexed":true,"internalType":"uint8","name":"source","type":"uint8"},{"indexed":true,"internalType":"address","name":"tokenIn","type":"address"},{"indexed":true,"internalType":"address","name":"tokenOut","type":"address"},{"indexed":false,"internalType":"uint256","name":"amountIn","type":"uint256"},{"indexed":false,"internalType":"uint256","name":"amountOut","type":"uint256"},{"indexed":false,"internalType":"uint256","name":"minAmountOut","type":"uint256"},{"indexed":false,"internalType":"uint256","name":"fee","type":"uint256"},{"indexed":false,"internalType":"bytes","name":"data","type":"bytes"}],"name":"Swap","type":"event"},{"anonymous":false,"inputs":[{"indexed":true,"internalType":"address","name":"swapConnector","type":"address"}],"name":"SwapConnectorSet","type":"event"},{"anonymous":false,"inputs":[{"indexed":false,"internalType":"uint256","name":"pct","type":"uint256"},{"indexed":false,"internalType":"uint256","name":"cap","type":"uint256"},{"indexed":false,"internalType":"address","name":"token","type":"address"},{"indexed":false,"internalType":"uint256","name":"period","type":"uint256"}],"name":"SwapFeeSet","type":"event"},{"anonymous":false,"inputs":[{"indexed":true,"internalType":"address","name":"who","type":"address"},{"indexed":false,"internalType":"bytes4","name":"what","type":"bytes4"}],"name":"Unauthorized","type":"event"},{"anonymous":false,"inputs":[{"indexed":false,"internalType":"uint256","name":"amount","type":"uint256"},{"indexed":false,"internalType":"uint256","name":"unwrapped","type":"uint256"},{"indexed":false,"internalType":"bytes","name":"data","type":"bytes"}],"name":"Unwrap","type":"event"},{"anonymous":false,"inputs":[{"indexed":true,"internalType":"address","name":"token","type":"address"},{"indexed":true,"internalType":"address","name":"recipient","type":"address"},{"indexed":false,"internalType":"uint256","name":"withdrawn","type":"uint256"},{"indexed":false,"internalType":"uint256","name":"fee","type":"uint256"},{"indexed":false,"internalType":"bytes","name":"data","type":"bytes"}],"name":"Withdraw","type":"event"},{"anonymous":false,"inputs":[{"indexed":false,"internalType":"uint256","name":"pct","type":"uint256"},{"indexed":false,"internalType":"uint256","name":"cap","type":"uint256"},{"indexed":false,"internalType":"address","name":"token","type":"address"},{"indexed":false,"internalType":"uint256","name":"period","type":"uint256"}],"name":"WithdrawFeeSet","type":"event"},{"anonymous":false,"inputs":[{"indexed":false,"internalType":"uint256","name":"amount","type":"uint256"},{"indexed":false,"internalType":"uint256","name":"wrapped","type":"uint256"},{"indexed":false,"internalType":"bytes","name":"data","type":"bytes"}],"name":"Wrap","type":"event"},{"inputs":[],"name":"ANY_ADDRESS","outputs":[{"internalType":"address","name":"","type":"address"}],"stateMutability":"view","type":"function"},{"inputs":[],"name":"NAMESPACE","outputs":[{"internalType":"bytes32","name":"","type":"bytes32"}],"stateMutability":"view","type":"function"},{"inputs":[{"internalType":"address","name":"who","type":"address"},{"internalType":"bytes4","name":"what","type":"bytes4"}],"name":"authorize","outputs":[],"stateMutability":"nonpayable","type":"function"},{"inputs":[{"internalType":"address","name":"target","type":"address"},{"internalType":"bytes","name":"callData","type":"bytes"},{"internalType":"uint256","name":"value","type":"uint256"},{"internalType":"bytes","name":"data","type":"bytes"}],"name":"call","outputs":[{"internalType":"bytes","name":"result","type":"bytes"}],"stateMutability":"nonpayable","type":"function"},{"inputs":[{"internalType":"address","name":"strategy","type":"address"},{"internalType":"bytes","name":"data","type":"bytes"}],"name":"claim","outputs":[{"internalType":"address[]","name":"tokens","type":"address[]"},{"internalType":"uint256[]","name":"amounts","type":"uint256[]"}],"stateMutability":"nonpayable","type":"function"},{"inputs":[{"internalType":"address","name":"token","type":"address"},{"internalType":"address","name":"from","type":"address"},{"internalType":"uint256","name":"amount","type":"uint256"},{"internalType":"bytes","name":"data","type":"bytes"}],"name":"collect","outputs":[{"internalType":"uint256","name":"collected","type":"uint256"}],"stateMutability":"nonpayable","type":"function"},{"inputs":[{"internalType":"address","name":"strategy","type":"address"},{"internalType":"address[]","name":"tokensIn","type":"address[]"},{"internalType":"uint256[]","name":"amountsIn","type":"uint256[]"},{"internalType":"uint256","name":"slippage","type":"uint256"},{"internalType":"bytes","name":"data","type":"bytes"}],"name":"exit","outputs":[{"internalType":"address[]","name":"tokensOut","type":"address[]"},{"internalType":"uint256[]","name":"amountsOut","type":"uint256[]"}],"stateMutability":"nonpayable","type":"function"},{"inputs":[],"name":"feeCollector","outputs":[{"internalType":"address","name":"","type":"address"}],"stateMutability":"view","type":"function"},{"inputs":[{"internalType":"address","name":"base","type":"address"},{"internalType":"address","name":"quote","type":"address"}],"name":"getPrice","outputs":[{"internalType":"uint256","name":"","type":"uint256"}],"stateMutability":"view","type":"function"},{"inputs":[{"internalType":"address","name":"base","type":"address"},{"internalType":"address","name":"quote","type":"address"}],"name":"getPriceFeed","outputs":[{"internalType":"address","name":"","type":"address"}],"stateMutability":"view","type":"function"},{"inputs":[{"internalType":"address","name":"admin","type":"address"}],"name":"initialize","outputs":[],"stateMutability":"nonpayable","type":"function"},{"inputs":[{"internalType":"address","name":"","type":"address"}],"name":"investedValue","outputs":[{"internalType":"uint256","name":"","type":"uint256"}],"stateMutability":"view","type":"function"},{"inputs":[{"internalType":"address","name":"who","type":"address"},{"internalType":"bytes4","name":"what","type":"bytes4"}],"name":"isAuthorized","outputs":[{"internalType":"bool","name":"","type":"bool"}],"stateMutability":"view","type":"function"},{"inputs":[{"internalType":"address","name":"","type":"address"}],"name":"isStrategyAllowed","outputs":[{"internalType":"bool","name":"","type":"bool"}],"stateMutability":"view","type":"function"},{"inputs":[{"internalType":"address","name":"strategy","type":"address"},{"internalType":"address[]","name":"tokensIn","type":"address[]"},{"internalType":"uint256[]","name":"amountsIn","type":"uint256[]"},{"internalType":"uint256","name":"slippage","type":"uint256"},{"internalType":"bytes","name":"data","type":"bytes"}],"name":"join","outputs":[{"internalType":"address[]","name":"tokensOut","type":"address[]"},{"internalType":"uint256[]","name":"amountsOut","type":"uint256[]"}],"stateMutability":"nonpayable","type":"function"},{"inputs":[{"internalType":"address","name":"strategy","type":"address"}],"name":"lastValue","outputs":[{"internalType":"uint256","name":"","type":"uint256"}],"stateMutability":"view","type":"function"},{"inputs":[],"name":"performanceFee","outputs":[{"internalType":"uint256","name":"pct","type":"uint256"},{"internalType":"uint256","name":"cap","type":"uint256"},{"internalType":"address","name":"token","type":"address"},{"internalType":"uint256","name":"period","type":"uint256"},{"internalType":"uint256","name":"totalCharged","type":"uint256"},{"internalType":"uint256","name":"nextResetTime","type":"uint256"}],"stateMutability":"view","type":"function"},{"inputs":[],"name":"priceOracle","outputs":[{"internalType":"address","name":"","type":"address"}],"stateMutability":"view","type":"function"},{"inputs":[],"name":"registry","outputs":[{"internalType":"address","name":"","type":"address"}],"stateMutability":"view","type":"function"},{"inputs":[{"internalType":"address","name":"newFeeCollector","type":"address"}],"name":"setFeeCollector","outputs":[],"stateMutability":"nonpayable","type":"function"},{"inputs":[{"internalType":"uint256","name":"pct","type":"uint256"},{"internalType":"uint256","name":"cap","type":"uint256"},{"internalType":"address","name":"token","type":"address"},{"internalType":"uint256","name":"period","type":"uint256"}],"name":"setPerformanceFee","outputs":[],"stateMutability":"nonpayable","type":"function"},{"inputs":[{"internalType":"address","name":"base","type":"address"},{"internalType":"address","name":"quote","type":"address"},{"internalType":"address","name":"feed","type":"address"}],"name":"setPriceFeed","outputs":[],"stateMutability":"nonpayable","type":"function"},{"inputs":[{"internalType":"address[]","name":"bases","type":"address[]"},{"internalType":"address[]","name":"quotes","type":"address[]"},{"internalType":"address[]","name":"feeds","type":"address[]"}],"name":"setPriceFeeds","outputs":[],"stateMutability":"nonpayable","type":"function"},{"inputs":[{"internalType":"address","name":"newPriceOracle","type":"address"}],"name":"setPriceOracle","outputs":[],"stateMutability":"nonpayable","type":"function"},{"inputs":[{"internalType":"address","name":"strategy","type":"address"},{"internalType":"bool","name":"allowed","type":"bool"}],"name":"setStrategy","outputs":[],"stateMutability":"nonpayable","type":"function"},{"inputs":[{"internalType":"address","name":"newSwapConnector","type":"address"}],"name":"setSwapConnector","outputs":[],"stateMutability":"nonpayable","type":"function"},{"inputs":[{"internalType":"uint256","name":"pct","type":"uint256"},{"internalType":"uint256","name":"cap","type":"uint256"},{"internalType":"address","name":"token","type":"address"},{"internalType":"uint256","name":"period","type":"uint256"}],"name":"setSwapFee","outputs":[],"stateMutability":"nonpayable","type":"function"},{"inputs":[{"internalType":"uint256","name":"pct","type":"uint256"},{"internalType":"uint256","name":"cap","type":"uint256"},{"internalType":"address","name":"token","type":"address"},{"internalType":"uint256","name":"period","type":"uint256"}],"name":"setWithdrawFee","outputs":[],"stateMutability":"nonpayable","type":"function"},{"inputs":[{"internalType":"uint8","name":"source","type":"uint8"},{"internalType":"address","name":"tokenIn","type":"address"},{"internalType":"address","name":"tokenOut","type":"address"},{"internalType":"uint256","name":"amountIn","type":"uint256"},{"internalType":"enum ISmartVault.SwapLimit","name":"limitType","type":"uint8"},{"internalType":"uint256","name":"limitAmount","type":"uint256"},{"internalType":"bytes","name":"data","type":"bytes"}],"name":"swap","outputs":[{"internalType":"uint256","name":"amountOut","type":"uint256"}],"stateMutability":"nonpayable","type":"function"},{"inputs":[],"name":"swapConnector","outputs":[{"internalType":"address","name":"","type":"address"}],"stateMutability":"view","type":"function"},{"inputs":[],"name":"swapFee","outputs":[{"internalType":"uint256","name":"pct","type":"uint256"},{"internalType":"uint256","name":"cap","type":"uint256"},{"internalType":"address","name":"token","type":"address"},{"internalType":"uint256","name":"period","type":"uint256"},{"internalType":"uint256","name":"totalCharged","type":"uint256"},{"internalType":"uint256","name":"nextResetTime","type":"uint256"}],"stateMutability":"view","type":"function"},{"inputs":[{"internalType":"address","name":"who","type":"address"},{"internalType":"bytes4","name":"what","type":"bytes4"}],"name":"unauthorize","outputs":[],"stateMutability":"nonpayable","type":"function"},{"inputs":[{"internalType":"uint256","name":"amount","type":"uint256"},{"internalType":"bytes","name":"data","type":"bytes"}],"name":"unwrap","outputs":[{"internalType":"uint256","name":"unwrapped","type":"uint256"}],"stateMutability":"nonpayable","type":"function"},{"inputs":[{"internalType":"address","name":"token","type":"address"},{"internalType":"uint256","name":"amount","type":"uint256"},{"internalType":"address","name":"recipient","type":"address"},{"internalType":"bytes","name":"data","type":"bytes"}],"name":"withdraw","outputs":[{"internalType":"uint256","name":"withdrawn","type":"uint256"}],"stateMutability":"nonpayable","type":"function"},{"inputs":[],"name":"withdrawFee","outputs":[{"internalType":"uint256","name":"pct","type":"uint256"},{"internalType":"uint256","name":"cap","type":"uint256"},{"internalType":"address","name":"token","type":"address"},{"internalType":"uint256","name":"period","type":"uint256"},{"internalType":"uint256","name":"totalCharged","type":"uint256"},{"internalType":"uint256","name":"nextResetTime","type":"uint256"}],"stateMutability":"view","type":"function"},{"inputs":[{"internalType":"uint256","name":"amount","type":"uint256"},{"internalType":"bytes","name":"data","type":"bytes"}],"name":"wrap","outputs":[{"internalType":"uint256","name":"wrapped","type":"uint256"}],"stateMutability":"nonpayable","type":"function"},{"inputs":[],"name":"wrappedNativeToken","outputs":[{"internalType":"address","name":"","type":"address"}],"stateMutability":"view","type":"function"},{"stateMutability":"payable","type":"receive"}],"evm":{"bytecode":{"linkReferences":{},"object":"60c06040523480156200001157600080fd5b5060405162004fa538038062004fa583398101604081905262000034916200014a565b6001600160601b0319606082901b166080528080620000526200006b565b50505060601b6001600160601b03191660a05262000181565b600054610100900460ff1615620000d85760405162461bcd60e51b815260206004820152602760248201527f496e697469616c697a61626c653a20636f6e747261637420697320696e697469604482015266616c697a696e6760c81b606482015260840160405180910390fd5b60005460ff90811610156200012b576000805460ff191660ff9081179091556040519081527f7f26b83ff96e1f2b6a682f133852f6798a09c465da95921460cefb38474024989060200160405180910390a15b565b80516001600160a01b03811681146200014557600080fd5b919050565b600080604083850312156200015d578182fd5b62000168836200012d565b915062000178602084016200012d565b90509250929050565b60805160601c60a05160601c614dce620001d7600039600081816102bf015281816109400152611a2701526000818161058601528181613b5401528181613c6b01528181613e340152613f0a0152614dce6000f3fe60806040526004361061026e5760003560e01c80638778878211610153578063baa82a34116100cb578063d9972b961161007f578063ea8148a611610064578063ea8148a6146107dd578063eea5c1ea146107fd578063fee415f81461081d57610275565b8063d9972b9614610789578063e941fa78146107a957610275565b8063c415b95c116100b0578063c415b95c1461071c578063c4d66de81461073c578063cc58002c1461075c57610275565b8063baa82a34146106dc578063bb1757cf146106fc57610275565b80639f0514ad11610122578063ac41865a11610107578063ac41865a1461067c578063b413148e1461069c578063ba03e93f146106bc57610275565b80639f0514ad1461063c578063a42dce801461065c57610275565b806387788782146105a85780639003afee146105dc578063933f0f3c146105fc5780639907dcf61461061c57610275565b8063530e784f116101e65780636646a436116101b557806367c1def91161019a57806367c1def9146105145780636d9a76a9146105545780637b1039991461057457610275565b80636646a436146104d457806367a1d5ab146104f457610275565b8063530e784f146103f8578063543b92351461041857806354cf2aeb146104455780635af547e6146104b457610275565b80632630c12f1161023d5780633f81a192116102225780633f81a1921461038757806344ba1fca146103a25780634ed31090146103d657610275565b80632630c12f1461034757806337e0ac021461036757610275565b8063109b3c831461027a57806317fcb39b146102ad57806318f51fea146102f95780631facc5d61461031957610275565b3661027557005b600080fd5b34801561028657600080fd5b5061029a61029536600461476e565b61083d565b6040519081526020015b60405180910390f35b3480156102b957600080fd5b506102e17f000000000000000000000000000000000000000000000000000000000000000081565b6040516001600160a01b0390911681526020016102a4565b34801561030557600080fd5b506004546102e1906001600160a01b031681565b34801561032557600080fd5b50610339610334366004614328565b610b02565b6040516102a4929190614954565b34801561035357600080fd5b506003546102e1906001600160a01b031681565b34801561037357600080fd5b5061029a6103823660046147db565b610d45565b34801561039357600080fd5b506102e16001600160a01b0381565b3480156103ae57600080fd5b5061029a7fdd327ba0ba6e7bb0e0099273577340e52e9e071b1b87834b866bafccdc4c14cb81565b3480156103e257600080fd5b506103f66103f13660046145b3565b611185565b005b34801561040457600080fd5b506103f6610413366004614204565b6112c1565b34801561042457600080fd5b5061029a610433366004614204565b60066020526000908152604090205481565b34801561045157600080fd5b506014546015546016546017546018546019546104799594936001600160a01b031692919086565b6040805196875260208701959095526001600160a01b03909316938501939093526060840152608083019190915260a082015260c0016102a4565b3480156104c057600080fd5b5061029a6104cf3660046142be565b6112fb565b3480156104e057600080fd5b506103f66104ef366004614451565b61151d565b34801561050057600080fd5b506103f661050f366004614274565b611559565b34801561052057600080fd5b5061054461052f366004614204565b60056020526000908152604090205460ff1681565b60405190151581526020016102a4565b34801561056057600080fd5b506103f661056f36600461479d565b611597565b34801561058057600080fd5b506102e17f000000000000000000000000000000000000000000000000000000000000000081565b3480156105b457600080fd5b50600e54600f546010546011546012546013546104799594936001600160a01b031692919086565b3480156105e857600080fd5b5061029a6105f7366004614561565b61162d565b34801561060857600080fd5b506103f6610617366004614451565b6117a0565b34801561062857600080fd5b506103f661063736600461479d565b6117d8565b34801561064857600080fd5b506102e161065736600461423c565b611864565b34801561066857600080fd5b506103f6610677366004614204565b611893565b34801561068857600080fd5b5061029a61069736600461423c565b6118ca565b3480156106a857600080fd5b5061029a6106b736600461476e565b611976565b3480156106c857600080fd5b5061029a6106d7366004614204565b611ade565b3480156106e857600080fd5b506103f66106f7366004614424565b611b71565b34801561070857600080fd5b506103396107173660046144a2565b611ba9565b34801561072857600080fd5b506007546102e1906001600160a01b031681565b34801561074857600080fd5b506103f6610757366004614204565b611ca8565b34801561076857600080fd5b5061077c6107773660046144f0565b611e21565b6040516102a49190614b03565b34801561079557600080fd5b506105446107a4366004614451565b611ee3565b3480156107b557600080fd5b50600854600954600a54600b54600c54600d546104799594936001600160a01b031692919086565b3480156107e957600080fd5b506103396107f8366004614328565b611f8c565b34801561080957600080fd5b506103f661081836600461479d565b612482565b34801561082957600080fd5b506103f6610838366004614204565b61250e565b600061086d336000357fffffffff0000000000000000000000000000000000000000000000000000000016612545565b600083116108c25760405162461bcd60e51b815260206004820152601060248201527f575241505f414d4f554e545f5a45524f0000000000000000000000000000000060448201526064015b60405180910390fd5b824710156109125760405162461bcd60e51b815260206004820152601860248201527f575241505f494e53554646494349454e545f414d4f554e54000000000000000060448201526064016108b9565b6040517f70a082310000000000000000000000000000000000000000000000000000000081523060048201527f0000000000000000000000000000000000000000000000000000000000000000906000906001600160a01b038316906370a082319060240160206040518083038186803b15801561098f57600080fd5b505afa1580156109a3573d6000803e3d6000fd5b505050506040513d601f19601f820116820180604052508101906109c79190614756565b9050816001600160a01b031663d0e30db0866040518263ffffffff1660e01b81526004016000604051808303818588803b158015610a0457600080fd5b505af1158015610a18573d6000803e3d6000fd5b50506040517f70a08231000000000000000000000000000000000000000000000000000000008152306004820152600093506001600160a01b03861692506370a08231915060240160206040518083038186803b158015610a7857600080fd5b505afa158015610a8c573d6000803e3d6000fd5b505050506040513d601f19601f82011682018060405250810190610ab09190614756565b9050610abc8282614d06565b93507f26b89b7c87cfae6e0c27cb572c5b1eaa577f2223fe8dca0d76a62034579b7a1e868587604051610af193929190614bd4565b60405180910390a150505092915050565b606080610b33336000357fffffffff0000000000000000000000000000000000000000000000000000000016612545565b6001600160a01b03871660009081526005602052604090205460ff16610b9b5760405162461bcd60e51b815260206004820152601460248201527f53545241544547595f4e4f545f414c4c4f57454400000000000000000000000060448201526064016108b9565b670de0b6b3a7640000841115610bf35760405162461bcd60e51b815260206004820152601760248201527f4a4f494e5f534c4950504147455f41424f56455f4f4e4500000000000000000060448201526064016108b9565b8451865114610c445760405162461bcd60e51b815260206004820152601960248201527f4a4f494e5f494e5055545f494e56414c49445f4c454e4754480000000000000060448201526064016108b9565b6000610c5c6001600160a01b0389168888888861259b565b81518351939650919450925014610cb55760405162461bcd60e51b815260206004820152601a60248201527f4a4f494e5f4f55545055545f494e56414c49445f4c454e47544800000000000060448201526064016108b9565b6001600160a01b038816600090815260066020526040902054610cd9908290614c91565b6001600160a01b038916600081815260066020526040908190209290925590517f6be300d66e65741e7cc134f5e6b6815e65361424ab43526b3f51742a2b2ea95290610d32908a908a908890889088908d908d90614a06565b60405180910390a2509550959350505050565b6000610d75336000357fffffffff0000000000000000000000000000000000000000000000000000000016612545565b856001600160a01b0316876001600160a01b03161415610dd75760405162461bcd60e51b815260206004820152600f60248201527f535741505f53414d455f544f4b454e000000000000000000000000000000000060448201526064016108b9565b6004546001600160a01b0316610e2f5760405162461bcd60e51b815260206004820152601660248201527f535741505f434f4e4e4543544f525f4e4f545f5345540000000000000000000060448201526064016108b9565b60006001856001811115610e5357634e487b7160e01b600052602160045260246000fd5b1415610e60575082610f5d565b6000856001811115610e8257634e487b7160e01b600052602160045260246000fd5b1415610f1557670de0b6b3a7640000841115610ee05760405162461bcd60e51b815260206004820152601760248201527f535741505f534c4950504147455f41424f56455f4f4e4500000000000000000060448201526064016108b9565b6000610eec89896118ca565b9050610f0d670de0b6b3a7640000869003610f0789846126ed565b906126ed565b915050610f5d565b60405162461bcd60e51b815260206004820152601760248201527f535741505f494e56414c49445f4c494d49545f5459504500000000000000000060448201526064016108b9565b6040517f70a082310000000000000000000000000000000000000000000000000000000081523060048201526000906001600160a01b038916906370a082319060240160206040518083038186803b158015610fb857600080fd5b505afa158015610fcc573d6000803e3d6000fd5b505050506040513d601f19601f82011682018060405250810190610ff09190614756565b60045490915061100e906001600160a01b03168b8b8b8b878a6127ad565b506040517f70a082310000000000000000000000000000000000000000000000000000000081523060048201526000906001600160a01b038a16906370a082319060240160206040518083038186803b15801561106a57600080fd5b505afa15801561107e573d6000803e3d6000fd5b505050506040513d601f19601f820116820180604052508101906110a29190614756565b905060006110b08383614d06565b9050838110156111025760405162461bcd60e51b815260206004820152600f60248201527f535741505f4d494e5f414d4f554e54000000000000000000000000000000000060448201526064016108b9565b60006111108b836014612931565b905061111c8183614d06565b95508a6001600160a01b03168c6001600160a01b03168e60ff167ffc431937278b84c6fa5b23bcc58f673c647fea974d3656e766b22d8c1412e5448d8a8a878e60405161116d959493929190614bf3565b60405180910390a45050505050979650505050505050565b81518351146111d65760405162461bcd60e51b815260206004820152601f60248201527f5345545f46454544535f494e56414c49445f51554f5445535f4c454e4754480060448201526064016108b9565b80518351146112275760405162461bcd60e51b815260206004820152601e60248201527f5345545f46454544535f494e56414c49445f46454544535f4c454e475448000060448201526064016108b9565b60005b83518110156112bb576112b384828151811061125657634e487b7160e01b600052603260045260246000fd5b602002602001015184838151811061127e57634e487b7160e01b600052603260045260246000fd5b60200260200101518484815181106112a657634e487b7160e01b600052603260045260246000fd5b6020026020010151611559565b60010161122a565b50505050565b6112ef336000357fffffffff0000000000000000000000000000000000000000000000000000000016612545565b6112f881612a9f565b50565b600061132b336000357fffffffff0000000000000000000000000000000000000000000000000000000016612545565b6000831161137b5760405162461bcd60e51b815260206004820152601360248201527f434f4c4c4543545f414d4f554e545f5a45524f0000000000000000000000000060448201526064016108b9565b6040517f70a082310000000000000000000000000000000000000000000000000000000081523060048201526000906001600160a01b038716906370a082319060240160206040518083038186803b1580156113d657600080fd5b505afa1580156113ea573d6000803e3d6000fd5b505050506040513d601f19601f8201168201806040525081019061140e9190614756565b90506114256001600160a01b038716863087612b0a565b6040517f70a082310000000000000000000000000000000000000000000000000000000081523060048201526000906001600160a01b038816906370a082319060240160206040518083038186803b15801561148057600080fd5b505afa158015611494573d6000803e3d6000fd5b505050506040513d601f19601f820116820180604052508101906114b89190614756565b90506114c48282614d06565b9250856001600160a01b0316876001600160a01b03167f42bd73ea702d7cf4505c06a7ac02a171536177d9cc2c7665443151ec91cc43fc858760405161150b929190614bbb565b60405180910390a35050949350505050565b61154b336000357fffffffff0000000000000000000000000000000000000000000000000000000016612545565b6115558282612bd9565b5050565b611587336000357fffffffff0000000000000000000000000000000000000000000000000000000016612545565b611592838383612c7b565b505050565b6115c5336000357fffffffff0000000000000000000000000000000000000000000000000000000016612545565b6115d3601485858585612d06565b60408051858152602081018590526001600160a01b03841691810191909152606081018290527f4374e92441315a747b6c3e2c80e356b78d580bde720326dc3a9b45055414041b906080015b60405180910390a150505050565b600061165d336000357fffffffff0000000000000000000000000000000000000000000000000000000016612545565b600084116116ad5760405162461bcd60e51b815260206004820152601460248201527f57495448445241575f414d4f554e545f5a45524f00000000000000000000000060448201526064016108b9565b6001600160a01b0383166117035760405162461bcd60e51b815260206004820152600e60248201527f524543495049454e545f5a45524f00000000000000000000000000000000000060448201526064016108b9565b6007546000906001600160a01b0385811691161461172c5761172786866008612931565b61172f565b60005b905061173b8186614d06565b9150611748868584612f28565b836001600160a01b0316866001600160a01b03167f33be7eabd8ed368ca1aa14ce2ad1e90a0c9bf21edbb3820d5591546e4eb8415784848760405161178f93929190614bd4565b60405180910390a350949350505050565b6117ce336000357fffffffff0000000000000000000000000000000000000000000000000000000016612545565b6115558282612f7a565b611806336000357fffffffff0000000000000000000000000000000000000000000000000000000016612545565b611814600e85858585612d06565b60408051858152602081018590526001600160a01b03841691810191909152606081018290527f8db23ab1f209b6252f45cba9848d0a1ebbb63e50328a308fa3aa01cdf151f75d9060800161161f565b6001600160a01b0380831660009081526001602090815260408083208585168452909152902054165b92915050565b6118c1336000357fffffffff0000000000000000000000000000000000000000000000000000000016612545565b6112f881613017565b6003546040517f7100d05c0000000000000000000000000000000000000000000000000000000081523060048201526001600160a01b03848116602483015283811660448301526000921690637100d05c9060640160206040518083038186803b15801561193757600080fd5b505afa15801561194b573d6000803e3d6000fd5b505050506040513d601f19601f8201168201806040525081019061196f9190614756565b9392505050565b60006119a6336000357fffffffff0000000000000000000000000000000000000000000000000000000016612545565b600083116119f65760405162461bcd60e51b815260206004820152601260248201527f554e575241505f414d4f554e545f5a45524f000000000000000000000000000060448201526064016108b9565b6040517f2e1a7d4d0000000000000000000000000000000000000000000000000000000081526004810184905247907f00000000000000000000000000000000000000000000000000000000000000006001600160a01b031690632e1a7d4d90602401600060405180830381600087803b158015611a7357600080fd5b505af1158015611a87573d6000803e3d6000fd5b50479250611a99915083905082614d06565b92507fb4d99315c288c112a1d49da08c3fa85f78e2c83392f63f0a8964418f96aa24ed858486604051611ace93929190614bd4565b60405180910390a1505092915050565b6040517fba03e93f0000000000000000000000000000000000000000000000000000000081523060048201526000906001600160a01b0383169063ba03e93f9060240160206040518083038186803b158015611b3957600080fd5b505afa158015611b4d573d6000803e3d6000fd5b505050506040513d601f19601f8201168201806040525081019061188d9190614756565b611b9f336000357fffffffff0000000000000000000000000000000000000000000000000000000016612545565b61155582826130cf565b606080611bda336000357fffffffff0000000000000000000000000000000000000000000000000000000016612545565b6001600160a01b03841660009081526005602052604090205460ff16611c425760405162461bcd60e51b815260206004820152601460248201527f53545241544547595f4e4f545f414c4c4f57454400000000000000000000000060448201526064016108b9565b611c556001600160a01b03851684613154565b60405191935091506001600160a01b038516907fb28d414fdc0dd1ebae12befebefd04f6ae5f8dec2a2fdbed9191be3c4d13715a90611c9990859085908890614a81565b60405180910390a29250929050565b600054610100900460ff1615808015611cc85750600054600160ff909116105b80611ce25750303b158015611ce2575060005460ff166001145b611d545760405162461bcd60e51b815260206004820152602e60248201527f496e697469616c697a61626c653a20636f6e747261637420697320616c72656160448201527f647920696e697469616c697a656400000000000000000000000000000000000060648201526084016108b9565b600080547fffffffffffffffffffffffffffffffffffffffffffffffffffffffffffffff001660011790558015611db257600080547fffffffffffffffffffffffffffffffffffffffffffffffffffffffffffff00ff166101001790555b611dbb82613294565b801561155557600080547fffffffffffffffffffffffffffffffffffffffffffffffffffffffffffff00ff169055604051600181527f7f26b83ff96e1f2b6a682f133852f6798a09c465da95921460cefb38474024989060200160405180910390a15050565b6060611e51336000357fffffffff0000000000000000000000000000000000000000000000000000000016612545565b611e928585856040518060400160405280601f81526020017f534d4152545f5641554c545f4152424954524152595f43414c4c5f4641494c0081525061336d565b9050846001600160a01b03167f76c91e1f3e02d952ab790867a8364513b69ada16ed33a67dbcd80de0e8cbfde985858486604051611ed39493929190614b16565b60405180910390a2949350505050565b7fffffffff00000000000000000000000000000000000000000000000000000000811660009081527f86cf984b44bed1f7f8b143f6052803e8b74964b2ee297832a77790be6d6308f1602052604081205460ff168061196f5750506001600160a01b039190911660009081526002602090815260408083207fffffffff000000000000000000000000000000000000000000000000000000009094168352929052205460ff1690565b606080611fbd336000357fffffffff0000000000000000000000000000000000000000000000000000000016612545565b6001600160a01b03871660009081526005602052604090205460ff166120255760405162461bcd60e51b815260206004820152601460248201527f53545241544547595f4e4f545f414c4c4f57454400000000000000000000000060448201526064016108b9565b6001600160a01b03871660009081526006602052604090205461208a5760405162461bcd60e51b815260206004820152601660248201527f455849545f4e4f5f494e5645535445445f56414c55450000000000000000000060448201526064016108b9565b670de0b6b3a76400008411156120e25760405162461bcd60e51b815260206004820152601760248201527f455849545f534c4950504147455f41424f56455f4f4e4500000000000000000060448201526064016108b9565b84518651146121335760405162461bcd60e51b815260206004820152601960248201527f455849545f494e5055545f494e56414c49445f4c454e4754480000000000000060448201526064016108b9565b600061214b6001600160a01b038916888888886134b5565b815183519396509194509250146121a45760405162461bcd60e51b815260206004820152601a60248201527f455849545f4f55545055545f494e56414c49445f4c454e47544800000000000060448201526064016108b9565b6000825167ffffffffffffffff8111156121ce57634e487b7160e01b600052604160045260246000fd5b6040519080825280602002602001820160405280156121f7578160200160208202803683370190505b5090506000826122068b611ade565b6122109190614c91565b6001600160a01b038b166000908152600660205260409020549091508111612294576001600160a01b038a1660009081526006602052604090205461226190829061225b90866126ed565b906135d9565b6001600160a01b038b1660009081526006602052604081208054909190612289908490614d06565b909155506124269050565b6001600160a01b038a166000908152600660205260408120548203908482101590816122c2578286036122c5565b60005b6001600160a01b038e166000908152600660205260409020549091506122ec908290614d06565b6001600160a01b038e166000908152600660205260408120919091555b885181101561242157600089828151811061233457634e487b7160e01b600052603260045260246000fd5b60200260200101519050600089838151811061236057634e487b7160e01b600052603260045260246000fd5b6020026020010151905060008561238b578961237c8884614cc9565b6123869190614ca9565b61238d565b815b9050600061239d8483600e612931565b90506123a98184614d06565b8c86815181106123c957634e487b7160e01b600052603260045260246000fd5b602002602001018181525050808a86815181106123f657634e487b7160e01b600052603260045260246000fd5b6020026020010181815250505050505061241a600182612a9b90919063ffffffff16565b9050612309565b505050505b896001600160a01b03167f93d8f30ee317e072a8ef28fa15d7b971a88f92a36f75dbf70b6465b6773a3a418a8a888888888e8e60405161246d989796959493929190614982565b60405180910390a25050509550959350505050565b6124b0336000357fffffffff0000000000000000000000000000000000000000000000000000000016612545565b6124be600885858585612d06565b60408051858152602081018590526001600160a01b03841691810191909152606081018290527fe5978c2a23ccc9af802b0a59f3e9d95ec28487eea5c5fa85557a26854e263f679060800161161f565b61253c336000357fffffffff0000000000000000000000000000000000000000000000000000000016612545565b6112f8816136da565b61254f8282611ee3565b6115555760405162461bcd60e51b815260206004820152601760248201527f415554485f53454e4445525f4e4f545f414c4c4f57454400000000000000000060448201526064016108b9565b60608060008063cfede73460e01b888888886040516024016125c09493929190614ac4565b604051602081830303815290604052907bffffffffffffffffffffffffffffffffffffffffffffffffffffffff19166020820180517bffffffffffffffffffffffffffffffffffffffffffffffffffffffff838183161783525050505090506000808a6001600160a01b03168360405161263a9190614938565b600060405180830381855af49150503d8060008114612675576040519150601f19603f3d011682016040523d82523d6000602084013e61267a565b606091505b50915091506126bf82826040518060400160405280601281526020017f4a4f494e5f43414c4c5f52455645525445440000000000000000000000000000815250613745565b50808060200190518101906126d4919061468e565b955095509550505050955095509592505050565b900390565b600082820283158061271b57508284828161271857634e487b7160e01b600052601260045260246000fd5b04145b6127675760405162461bcd60e51b815260206004820152600c60248201527f4d554c5f4f564552464c4f57000000000000000000000000000000000000000060448201526064016108b9565b80156127a257670de0b6b3a76400007fffffffffffffffffffffffffffffffffffffffffffffffffffffffffffffffff8201046001016127a5565b60005b949350505050565b6000807fa231a7800000000000000000000000000000000000000000000000000000000060ff891660038111156127f457634e487b7160e01b600052602160045260246000fd5b888888888860405160240161280e96959493929190614b55565b604051602081830303815290604052907bffffffffffffffffffffffffffffffffffffffffffffffffffffffff19166020820180517bffffffffffffffffffffffffffffffffffffffffffffffffffffffff838183161783525050505090506000808a6001600160a01b0316836040516128889190614938565b600060405180830381855af49150503d80600081146128c3576040519150601f19603f3d011682016040523d82523d6000602084013e6128c8565b606091505b509150915061290d82826040518060400160405280601281526020017f535741505f43414c4c5f52455645525445440000000000000000000000000000815250613745565b50808060200190518101906129229190614756565b9b9a5050505050505050505050565b8054600090819061294390859061377e565b60028401549091506001600160a01b0316158061296257506001830154155b8061296f57506003830154155b156129935760075461298c9086906001600160a01b031683612f28565b905061196f565b826005015442106129ba576000600484015560038301546129b49042614c91565b60058401555b60028301546000906129d69087906001600160a01b03166118ca565b905060006129e4838361377e565b905084600101548186600401546129fb9190614c91565b11612a225782935080856004016000828254612a179190614c91565b90915550612a799050565b846001015485600401541015612a74578083612a4f876004015488600101546126e890919063ffffffff16565b612a599190614cc9565b612a639190614ca9565b600186015460048701559350612a79565b600093505b600754612a919088906001600160a01b031686612f28565b5050509392505050565b0190565b612aa88161380a565b600380547fffffffffffffffffffffffff0000000000000000000000000000000000000000166001600160a01b0383169081179091556040517f6536690106168bdf4ba72c128a053d817999b1db90cae23f139b293bf862cb7590600090a250565b6040516001600160a01b03808516602483015283166044820152606481018290526112bb9085907f23b872dd00000000000000000000000000000000000000000000000000000000906084015b604080517fffffffffffffffffffffffffffffffffffffffffffffffffffffffffffffffe08184030181529190526020810180517bffffffffffffffffffffffffffffffffffffffffffffffffffffffff167fffffffff000000000000000000000000000000000000000000000000000000009093169290921790915261385f565b6001600160a01b03821660008181526002602090815260408083207fffffffff0000000000000000000000000000000000000000000000000000000086168085529083529281902080547fffffffffffffffffffffffffffffffffffffffffffffffffffffffffffffff00169055519182527fa2e97b9eea8d1168700e334304edd057dff89c0384ca6f920c73cc3e48c8e52391015b60405180910390a25050565b6001600160a01b0383811660008181526001602090815260408083208786168085529083529281902080547fffffffffffffffffffffffff00000000000000000000000000000000000000001695871695861790555193845290927f519169f85e741141647fddd20ce1d573843e55c1ca650e85a3f82f3410ee5d04910160405180910390a3505050565b670de0b6b3a7640000841115612d5e5760405162461bcd60e51b815260206004820152601160248201527f4645455f5043545f41424f56455f4f4e4500000000000000000000000000000060448201526064016108b9565b60006001600160a01b038316158015612d75575083155b8015612d7f575081155b905084151580612d8c5750805b612dd85760405162461bcd60e51b815260206004820152601960248201527f494e56414c49445f4341505f574954485f4645455f5a45524f0000000000000060448201526064016108b9565b60006001600160a01b03841615801590612df157508415155b8015612dfc57508215155b90508180612e075750805b612e535760405162461bcd60e51b815260206004820152601760248201527f494e434f4e53495354454e545f4341505f56414c55455300000000000000000060448201526064016108b9565b85875560018701859055600387018390558115612e7d576000600488018190556005880155612ee5565b6005870154612e9a57612e908342614c91565b6005880155612ee5565b60028701546001600160a01b03858116911614612ee5576002870154600090612ecc906001600160a01b0316866118ca565b6004890154909150612ede908261377e565b6004890155505b50505060029390930180547fffffffffffffffffffffffff0000000000000000000000000000000000000000166001600160a01b03909416939093179092555050565b80612f3257611592565b6001600160a01b03831673eeeeeeeeeeeeeeeeeeeeeeeeeeeeeeeeeeeeeeee1415612f6657612f618282613944565b611592565b6115926001600160a01b0384168383613a5d565b6001600160a01b03821660008181526002602090815260408083207fffffffff0000000000000000000000000000000000000000000000000000000086168085529083529281902080547fffffffffffffffffffffffffffffffffffffffffffffffffffffffffffffff00166001179055519182527f7f06c1c34ad47198873da9dcde2e40904035d41b23da3a9132df674a75022df79101612c6f565b6001600160a01b03811661306d5760405162461bcd60e51b815260206004820152601260248201527f4645455f434f4c4c4543544f525f5a45524f000000000000000000000000000060448201526064016108b9565b600780547fffffffffffffffffffffffff0000000000000000000000000000000000000000166001600160a01b0383169081179091556040517f12e1d17016b94668449f97876f4a8d5cc2c19f314db337418894734037cc19d490600090a250565b80156130de576130de8261380a565b6001600160a01b03821660008181526005602090815260409182902080547fffffffffffffffffffffffffffffffffffffffffffffffffffffffffffffff001685151590811790915591519182527f0b9ad240c35681e1d7a33b6b271c4aba6024a102ba32e826ae4f2e20103307569101612c6f565b606080600063c63ff8dd60e01b846040516024016131729190614b03565b604051602081830303815290604052907bffffffffffffffffffffffffffffffffffffffffffffffffffffffff19166020820180517bffffffffffffffffffffffffffffffffffffffffffffffffffffffff83818316178352505050509050600080866001600160a01b0316836040516131ec9190614938565b600060405180830381855af49150503d8060008114613227576040519150601f19603f3d011682016040523d82523d6000602084013e61322c565b606091505b509150915061327182826040518060400160405280601381526020017f434c41494d5f43414c4c5f524556455254454400000000000000000000000000815250613745565b50808060200190518101906132869190614637565b945094505050509250929050565b600054610100900460ff166133115760405162461bcd60e51b815260206004820152602b60248201527f496e697469616c697a61626c653a20636f6e7472616374206973206e6f74206960448201527f6e697469616c697a696e6700000000000000000000000000000000000000000060648201526084016108b9565b613319613aa6565b613343817f933f0f3c00000000000000000000000000000000000000000000000000000000612f7a565b6112f8817f6646a43600000000000000000000000000000000000000000000000000000000612f7a565b6060824710156133e55760405162461bcd60e51b815260206004820152602660248201527f416464726573733a20696e73756666696369656e742062616c616e636520666f60448201527f722063616c6c000000000000000000000000000000000000000000000000000060648201526084016108b9565b6001600160a01b0385163b61343c5760405162461bcd60e51b815260206004820152601d60248201527f416464726573733a2063616c6c20746f206e6f6e2d636f6e747261637400000060448201526064016108b9565b600080866001600160a01b031685876040516134589190614938565b60006040518083038185875af1925050503d8060008114613495576040519150601f19603f3d011682016040523d82523d6000602084013e61349a565b606091505b50915091506134aa828286613745565b979650505050505050565b60608060008063a9a80d2660e01b888888886040516024016134da9493929190614ac4565b604051602081830303815290604052907bffffffffffffffffffffffffffffffffffffffffffffffffffffffff19166020820180517bffffffffffffffffffffffffffffffffffffffffffffffffffffffff838183161783525050505090506000808a6001600160a01b0316836040516135549190614938565b600060405180830381855af49150503d806000811461358f576040519150601f19603f3d011682016040523d82523d6000602084013e613594565b606091505b50915091506126bf82826040518060400160405280601281526020017f455849545f43414c4c5f52455645525445440000000000000000000000000000815250613745565b6000816136285760405162461bcd60e51b815260206004820152600d60248201527f5a45524f5f4449564953494f4e0000000000000000000000000000000000000060448201526064016108b9565b826136355750600061188d565b670de0b6b3a76400008381029084828161365f57634e487b7160e01b600052601260045260246000fd5b04146136ad5760405162461bcd60e51b815260206004820152600c60248201527f4449565f494e5445524e414c000000000000000000000000000000000000000060448201526064016108b9565b8260018203816136cd57634e487b7160e01b600052601260045260246000fd5b0460010191505092915050565b6136e38161380a565b600480547fffffffffffffffffffffffff0000000000000000000000000000000000000000166001600160a01b0383169081179091556040517f68817df76a175ba84beeb646224c32929b792a33280e3f4bc3e8089552edaa6090600090a250565b6060831561375457508161196f565b8251156137645782518084602001fd5b8160405162461bcd60e51b81526004016108b99190614b03565b60008282028315806137ac5750828482816137a957634e487b7160e01b600052601260045260246000fd5b04145b6137f85760405162461bcd60e51b815260206004820152600c60248201527f4d554c5f4f564552464c4f57000000000000000000000000000000000000000060448201526064016108b9565b670de0b6b3a764000090049392505050565b61381381613df7565b6112f85760405162461bcd60e51b815260206004820152601860248201527f444550454e44454e43595f4e4f545f53544154454c455353000000000000000060448201526064016108b9565b60006138b4826040518060400160405280602081526020017f5361666545524332303a206c6f772d6c6576656c2063616c6c206661696c6564815250856001600160a01b03166140319092919063ffffffff16565b80519091501561159257808060200190518101906138d291906146f8565b6115925760405162461bcd60e51b815260206004820152602a60248201527f5361666545524332303a204552433230206f7065726174696f6e20646964206e60448201527f6f7420737563636565640000000000000000000000000000000000000000000060648201526084016108b9565b804710156139945760405162461bcd60e51b815260206004820152601d60248201527f416464726573733a20696e73756666696369656e742062616c616e636500000060448201526064016108b9565b6000826001600160a01b03168260405160006040518083038185875af1925050503d80600081146139e1576040519150601f19603f3d011682016040523d82523d6000602084013e6139e6565b606091505b50509050806115925760405162461bcd60e51b815260206004820152603a60248201527f416464726573733a20756e61626c6520746f2073656e642076616c75652c207260448201527f6563697069656e74206d6179206861766520726576657274656400000000000060648201526084016108b9565b6040516001600160a01b0383166024820152604481018290526115929084907fa9059cbb0000000000000000000000000000000000000000000000000000000090606401612b57565b600054610100900460ff16613b235760405162461bcd60e51b815260206004820152602b60248201527f496e697469616c697a61626c653a20636f6e7472616374206973206e6f74206960448201527f6e697469616c697a696e6700000000000000000000000000000000000000000060648201526084016108b9565b6040517f8b4872b80000000000000000000000000000000000000000000000000000000081523060048201526000907f00000000000000000000000000000000000000000000000000000000000000006001600160a01b031690638b4872b89060240160206040518083038186803b158015613b9e57600080fd5b505afa158015613bb2573d6000803e3d6000fd5b505050506040513d601f19601f82011682018060405250810190613bd69190614220565b90506001600160a01b038116613c2e5760405162461bcd60e51b815260206004820152601d60248201527f494d504c454d454e544154494f4e5f4e4f545f5245474953544552454400000060448201526064016108b9565b6040517f9235dcf80000000000000000000000000000000000000000000000000000000081526001600160a01b03828116600483015260009182917f00000000000000000000000000000000000000000000000000000000000000001690639235dcf89060240160606040518083038186803b158015613cad57600080fd5b505afa158015613cc1573d6000803e3d6000fd5b505050506040513d601f19601f82011682018060405250810190613ce59190614714565b92509250508115613d385760405162461bcd60e51b815260206004820152601960248201527f494d504c454d454e544154494f4e5f444550524543415445440000000000000060448201526064016108b9565b80306001600160a01b03166344ba1fca6040518163ffffffff1660e01b815260040160206040518083038186803b158015613d7257600080fd5b505afa158015613d86573d6000803e3d6000fd5b505050506040513d601f19601f82011682018060405250810190613daa9190614756565b146115925760405162461bcd60e51b815260206004820181905260248201527f494e56414c49445f494d504c454d454e544154494f4e5f4e414d45535041434560448201526064016108b9565b6040517f8b4872b80000000000000000000000000000000000000000000000000000000081526001600160a01b03828116600483015260009182917f00000000000000000000000000000000000000000000000000000000000000001690638b4872b89060240160206040518083038186803b158015613e7657600080fd5b505afa158015613e8a573d6000803e3d6000fd5b505050506040513d601f19601f82011682018060405250810190613eae9190614220565b905060006001600160a01b038216613ec65783613ec8565b815b6040517f9235dcf80000000000000000000000000000000000000000000000000000000081526001600160a01b038083166004830152919250600091829182917f00000000000000000000000000000000000000000000000000000000000000001690639235dcf89060240160606040518083038186803b158015613f4c57600080fd5b505afa158015613f60573d6000803e3d6000fd5b505050506040513d601f19601f82011682018060405250810190613f849190614714565b9194509250905080613fd85760405162461bcd60e51b815260206004820152601960248201527f444550454e44454e43595f4e4f545f524547495354455245440000000000000060448201526064016108b9565b81156140265760405162461bcd60e51b815260206004820152601560248201527f444550454e44454e43595f44455052454341544544000000000000000000000060448201526064016108b9565b509095945050505050565b60606127a5848460008561336d565b600082601f830112614050578081fd5b8135602061406561406083614c6d565b614c1e565b80838252828201915082860187848660051b8901011115614084578586fd5b855b858110156140ab57813561409981614d75565b84529284019290840190600101614086565b5090979650505050505050565b600082601f8301126140c8578081fd5b815160206140d861406083614c6d565b80838252828201915082860187848660051b89010111156140f7578586fd5b855b858110156140ab57815161410c81614d75565b845292840192908401906001016140f9565b600082601f83011261412e578081fd5b8151602061413e61406083614c6d565b80838252828201915082860187848660051b890101111561415d578586fd5b855b858110156140ab5781518452928401929084019060010161415f565b600082601f83011261418b578081fd5b813567ffffffffffffffff8111156141a5576141a5614d5f565b6141d660207fffffffffffffffffffffffffffffffffffffffffffffffffffffffffffffffe0601f84011601614c1e565b8181528460208386010111156141ea578283fd5b816020850160208301379081016020019190915292915050565b600060208284031215614215578081fd5b813561196f81614d75565b600060208284031215614231578081fd5b815161196f81614d75565b6000806040838503121561424e578081fd5b823561425981614d75565b9150602083013561426981614d75565b809150509250929050565b600080600060608486031215614288578081fd5b833561429381614d75565b925060208401356142a381614d75565b915060408401356142b381614d75565b809150509250925092565b600080600080608085870312156142d3578182fd5b84356142de81614d75565b935060208501356142ee81614d75565b925060408501359150606085013567ffffffffffffffff811115614310578182fd5b61431c8782880161417b565b91505092959194509250565b600080600080600060a0868803121561433f578283fd5b853561434a81614d75565b945060208681013567ffffffffffffffff80821115614367578586fd5b6143738a838b01614040565b96506040890135915080821115614388578586fd5b818901915089601f83011261439b578586fd5b81356143a961406082614c6d565b8082825285820191508585018d878560051b88010111156143c857898afd5b8995505b838610156143ea5780358352600195909501949186019186016143cc565b5097505050606089013594506080890135925080831115614409578384fd5b50506144178882890161417b565b9150509295509295909350565b60008060408385031215614436578182fd5b823561444181614d75565b9150602083013561426981614d8a565b60008060408385031215614463578182fd5b823561446e81614d75565b915060208301357fffffffff0000000000000000000000000000000000000000000000000000000081168114614269578182fd5b600080604083850312156144b4578182fd5b82356144bf81614d75565b9150602083013567ffffffffffffffff8111156144da578182fd5b6144e68582860161417b565b9150509250929050565b60008060008060808587031215614505578182fd5b843561451081614d75565b9350602085013567ffffffffffffffff8082111561452c578384fd5b6145388883890161417b565b9450604087013593506060870135915080821115614554578283fd5b5061431c8782880161417b565b60008060008060808587031215614576578182fd5b843561458181614d75565b935060208501359250604085013561459881614d75565b9150606085013567ffffffffffffffff811115614310578182fd5b6000806000606084860312156145c7578081fd5b833567ffffffffffffffff808211156145de578283fd5b6145ea87838801614040565b945060208601359150808211156145ff578283fd5b61460b87838801614040565b93506040860135915080821115614620578283fd5b5061462d86828701614040565b9150509250925092565b60008060408385031215614649578182fd5b825167ffffffffffffffff80821115614660578384fd5b61466c868387016140b8565b93506020850151915080821115614681578283fd5b506144e68582860161411e565b6000806000606084860312156146a2578081fd5b835167ffffffffffffffff808211156146b9578283fd5b6146c5878388016140b8565b945060208601519150808211156146da578283fd5b506146e78682870161411e565b925050604084015190509250925092565b600060208284031215614709578081fd5b815161196f81614d8a565b600080600060608486031215614728578081fd5b835161473381614d8a565b602085015190935061474481614d8a565b80925050604084015190509250925092565b600060208284031215614767578081fd5b5051919050565b60008060408385031215614780578182fd5b82359150602083013567ffffffffffffffff8111156144da578182fd5b600080600080608085870312156147b2578182fd5b843593506020850135925060408501356147cb81614d75565b9396929550929360600135925050565b600080600080600080600060e0888a0312156147f5578485fd5b873560ff81168114614805578586fd5b9650602088013561481581614d75565b9550604088013561482581614d75565b94506060880135935060808801356002811061483f578283fd5b925060a0880135915060c088013567ffffffffffffffff811115614861578182fd5b61486d8a828b0161417b565b91505092959891949750929550565b6000815180845260208085019450808401835b838110156148b45781516001600160a01b03168752958201959082019060010161488f565b509495945050505050565b6000815180845260208085019450808401835b838110156148b4578151875295820195908201906001016148d2565b60008151808452614906816020860160208601614d1d565b601f017fffffffffffffffffffffffffffffffffffffffffffffffffffffffffffffffe0169290920160200192915050565b6000825161494a818460208701614d1d565b9190910192915050565b600060408252614967604083018561487c565b828103602084015261497981856148bf565b95945050505050565b60006101008083526149968184018c61487c565b905082810360208401526149aa818b6148bf565b905082810360408401526149be818a61487c565b905082810360608401526149d281896148bf565b905086608084015282810360a08401526149ec81876148bf565b90508460c084015282810360e084015261292281856148ee565b600060e08252614a1960e083018a61487c565b8281036020840152614a2b818a6148bf565b90508281036040840152614a3f818961487c565b90508281036060840152614a5381886148bf565b90508560808401528460a084015282810360c0840152614a7381856148ee565b9a9950505050505050505050565b600060608252614a94606083018661487c565b8281036020840152614aa681866148bf565b90508281036040840152614aba81856148ee565b9695505050505050565b600060808252614ad7608083018761487c565b8281036020840152614ae981876148bf565b905084604084015282810360608401526134aa81856148ee565b60006020825261196f60208301846148ee565b600060808252614b2960808301876148ee565b8560208401528281036040840152614b4181866148ee565b905082810360608401526134aa81856148ee565b600060048810614b7357634e487b7160e01b81526021600452602481fd5b8782526001600160a01b03808816602084015280871660408401525084606083015283608083015260c060a0830152614baf60c08301846148ee565b98975050505050505050565b6000838252604060208301526127a560408301846148ee565b60008482528360208301526060604083015261497960608301846148ee565b600086825285602083015284604083015283606083015260a060808301526134aa60a08301846148ee565b604051601f82017fffffffffffffffffffffffffffffffffffffffffffffffffffffffffffffffe016810167ffffffffffffffff81118282101715614c6557614c65614d5f565b604052919050565b600067ffffffffffffffff821115614c8757614c87614d5f565b5060051b60200190565b60008219821115614ca457614ca4614d49565b500190565b600082614cc457634e487b7160e01b81526012600452602481fd5b500490565b6000817fffffffffffffffffffffffffffffffffffffffffffffffffffffffffffffffff0483118215151615614d0157614d01614d49565b500290565b600082821015614d1857614d18614d49565b500390565b60005b83811015614d38578181015183820152602001614d20565b838111156112bb5750506000910152565b634e487b7160e01b600052601160045260246000fd5b634e487b7160e01b600052604160045260246000fd5b6001600160a01b03811681146112f857600080fd5b80151581146112f857600080fdfea264697066735822122076b062fadc9366e4c40f45889971f592789b5d76a157f3ef6955bccdd48bade064736f6c63430008030033","opcodes":"PUSH1 0xC0 PUSH1 0x40 MSTORE CALLVALUE DUP1 ISZERO PUSH3 0x11 JUMPI PUSH1 0x0 DUP1 REVERT JUMPDEST POP PUSH1 0x40 MLOAD PUSH3 0x4FA5 CODESIZE SUB DUP1 PUSH3 0x4FA5 DUP4 CODECOPY DUP2 ADD PUSH1 0x40 DUP2 SWAP1 MSTORE PUSH3 0x34 SWAP2 PUSH3 0x14A JUMP JUMPDEST PUSH1 0x1 PUSH1 0x1 PUSH1 0x60 SHL SUB NOT PUSH1 0x60 DUP3 SWAP1 SHL AND PUSH1 0x80 MSTORE DUP1 DUP1 PUSH3 0x52 PUSH3 0x6B JUMP JUMPDEST POP POP POP PUSH1 0x60 SHL PUSH1 0x1 PUSH1 0x1 PUSH1 0x60 SHL SUB NOT AND PUSH1 0xA0 MSTORE PUSH3 0x181 JUMP JUMPDEST PUSH1 0x0 SLOAD PUSH2 0x100 SWAP1 DIV PUSH1 0xFF AND ISZERO PUSH3 0xD8 JUMPI PUSH1 0x40 MLOAD PUSH3 0x461BCD PUSH1 0xE5 SHL DUP2 MSTORE PUSH1 0x20 PUSH1 0x4 DUP3 ADD MSTORE PUSH1 0x27 PUSH1 0x24 DUP3 ADD MSTORE PUSH32 0x496E697469616C697A61626C653A20636F6E747261637420697320696E697469 PUSH1 0x44 DUP3 ADD MSTORE PUSH7 0x616C697A696E67 PUSH1 0xC8 SHL PUSH1 0x64 DUP3 ADD MSTORE PUSH1 0x84 ADD PUSH1 0x40 MLOAD DUP1 SWAP2 SUB SWAP1 REVERT JUMPDEST PUSH1 0x0 SLOAD PUSH1 0xFF SWAP1 DUP2 AND LT ISZERO PUSH3 0x12B JUMPI PUSH1 0x0 DUP1 SLOAD PUSH1 0xFF NOT AND PUSH1 0xFF SWAP1 DUP2 OR SWAP1 SWAP2 SSTORE PUSH1 0x40 MLOAD SWAP1 DUP2 MSTORE PUSH32 0x7F26B83FF96E1F2B6A682F133852F6798A09C465DA95921460CEFB3847402498 SWAP1 PUSH1 0x20 ADD PUSH1 0x40 MLOAD DUP1 SWAP2 SUB SWAP1 LOG1 JUMPDEST JUMP JUMPDEST DUP1 MLOAD PUSH1 0x1 PUSH1 0x1 PUSH1 0xA0 SHL SUB DUP2 AND DUP2 EQ PUSH3 0x145 JUMPI PUSH1 0x0 DUP1 REVERT JUMPDEST SWAP2 SWAP1 POP JUMP JUMPDEST PUSH1 0x0 DUP1 PUSH1 0x40 DUP4 DUP6 SUB SLT ISZERO PUSH3 0x15D JUMPI DUP2 DUP3 REVERT JUMPDEST PUSH3 0x168 DUP4 PUSH3 0x12D JUMP JUMPDEST SWAP2 POP PUSH3 0x178 PUSH1 0x20 DUP5 ADD PUSH3 0x12D JUMP JUMPDEST SWAP1 POP SWAP3 POP SWAP3 SWAP1 POP JUMP JUMPDEST PUSH1 0x80 MLOAD PUSH1 0x60 SHR PUSH1 0xA0 MLOAD PUSH1 0x60 SHR PUSH2 0x4DCE PUSH3 0x1D7 PUSH1 0x0 CODECOPY PUSH1 0x0 DUP2 DUP2 PUSH2 0x2BF ADD MSTORE DUP2 DUP2 PUSH2 0x940 ADD MSTORE PUSH2 0x1A27 ADD MSTORE PUSH1 0x0 DUP2 DUP2 PUSH2 0x586 ADD MSTORE DUP2 DUP2 PUSH2 0x3B54 ADD MSTORE DUP2 DUP2 PUSH2 0x3C6B ADD MSTORE DUP2 DUP2 PUSH2 0x3E34 ADD MSTORE PUSH2 0x3F0A ADD MSTORE PUSH2 0x4DCE PUSH1 0x0 RETURN INVALID PUSH1 0x80 PUSH1 0x40 MSTORE PUSH1 0x4 CALLDATASIZE LT PUSH2 0x26E JUMPI PUSH1 0x0 CALLDATALOAD PUSH1 0xE0 SHR DUP1 PUSH4 0x87788782 GT PUSH2 0x153 JUMPI DUP1 PUSH4 0xBAA82A34 GT PUSH2 0xCB JUMPI DUP1 PUSH4 0xD9972B96 GT PUSH2 0x7F JUMPI DUP1 PUSH4 0xEA8148A6 GT PUSH2 0x64 JUMPI DUP1 PUSH4 0xEA8148A6 EQ PUSH2 0x7DD JUMPI DUP1 PUSH4 0xEEA5C1EA EQ PUSH2 0x7FD JUMPI DUP1 PUSH4 0xFEE415F8 EQ PUSH2 0x81D JUMPI PUSH2 0x275 JUMP JUMPDEST DUP1 PUSH4 0xD9972B96 EQ PUSH2 0x789 JUMPI DUP1 PUSH4 0xE941FA78 EQ PUSH2 0x7A9 JUMPI PUSH2 0x275 JUMP JUMPDEST DUP1 PUSH4 0xC415B95C GT PUSH2 0xB0 JUMPI DUP1 PUSH4 0xC415B95C EQ PUSH2 0x71C JUMPI DUP1 PUSH4 0xC4D66DE8 EQ PUSH2 0x73C JUMPI DUP1 PUSH4 0xCC58002C EQ PUSH2 0x75C JUMPI PUSH2 0x275 JUMP JUMPDEST DUP1 PUSH4 0xBAA82A34 EQ PUSH2 0x6DC JUMPI DUP1 PUSH4 0xBB1757CF EQ PUSH2 0x6FC JUMPI PUSH2 0x275 JUMP JUMPDEST DUP1 PUSH4 0x9F0514AD GT PUSH2 0x122 JUMPI DUP1 PUSH4 0xAC41865A GT PUSH2 0x107 JUMPI DUP1 PUSH4 0xAC41865A EQ PUSH2 0x67C JUMPI DUP1 PUSH4 0xB413148E EQ PUSH2 0x69C JUMPI DUP1 PUSH4 0xBA03E93F EQ PUSH2 0x6BC JUMPI PUSH2 0x275 JUMP JUMPDEST DUP1 PUSH4 0x9F0514AD EQ PUSH2 0x63C JUMPI DUP1 PUSH4 0xA42DCE80 EQ PUSH2 0x65C JUMPI PUSH2 0x275 JUMP JUMPDEST DUP1 PUSH4 0x87788782 EQ PUSH2 0x5A8 JUMPI DUP1 PUSH4 0x9003AFEE EQ PUSH2 0x5DC JUMPI DUP1 PUSH4 0x933F0F3C EQ PUSH2 0x5FC JUMPI DUP1 PUSH4 0x9907DCF6 EQ PUSH2 0x61C JUMPI PUSH2 0x275 JUMP JUMPDEST DUP1 PUSH4 0x530E784F GT PUSH2 0x1E6 JUMPI DUP1 PUSH4 0x6646A436 GT PUSH2 0x1B5 JUMPI DUP1 PUSH4 0x67C1DEF9 GT PUSH2 0x19A JUMPI DUP1 PUSH4 0x67C1DEF9 EQ PUSH2 0x514 JUMPI DUP1 PUSH4 0x6D9A76A9 EQ PUSH2 0x554 JUMPI DUP1 PUSH4 0x7B103999 EQ PUSH2 0x574 JUMPI PUSH2 0x275 JUMP JUMPDEST DUP1 PUSH4 0x6646A436 EQ PUSH2 0x4D4 JUMPI DUP1 PUSH4 0x67A1D5AB EQ PUSH2 0x4F4 JUMPI PUSH2 0x275 JUMP JUMPDEST DUP1 PUSH4 0x530E784F EQ PUSH2 0x3F8 JUMPI DUP1 PUSH4 0x543B9235 EQ PUSH2 0x418 JUMPI DUP1 PUSH4 0x54CF2AEB EQ PUSH2 0x445 JUMPI DUP1 PUSH4 0x5AF547E6 EQ PUSH2 0x4B4 JUMPI PUSH2 0x275 JUMP JUMPDEST DUP1 PUSH4 0x2630C12F GT PUSH2 0x23D JUMPI DUP1 PUSH4 0x3F81A192 GT PUSH2 0x222 JUMPI DUP1 PUSH4 0x3F81A192 EQ PUSH2 0x387 JUMPI DUP1 PUSH4 0x44BA1FCA EQ PUSH2 0x3A2 JUMPI DUP1 PUSH4 0x4ED31090 EQ PUSH2 0x3D6 JUMPI PUSH2 0x275 JUMP JUMPDEST DUP1 PUSH4 0x2630C12F EQ PUSH2 0x347 JUMPI DUP1 PUSH4 0x37E0AC02 EQ PUSH2 0x367 JUMPI PUSH2 0x275 JUMP JUMPDEST DUP1 PUSH4 0x109B3C83 EQ PUSH2 0x27A JUMPI DUP1 PUSH4 0x17FCB39B EQ PUSH2 0x2AD JUMPI DUP1 PUSH4 0x18F51FEA EQ PUSH2 0x2F9 JUMPI DUP1 PUSH4 0x1FACC5D6 EQ PUSH2 0x319 JUMPI PUSH2 0x275 JUMP JUMPDEST CALLDATASIZE PUSH2 0x275 JUMPI STOP JUMPDEST PUSH1 0x0 DUP1 REVERT JUMPDEST CALLVALUE DUP1 ISZERO PUSH2 0x286 JUMPI PUSH1 0x0 DUP1 REVERT JUMPDEST POP PUSH2 0x29A PUSH2 0x295 CALLDATASIZE PUSH1 0x4 PUSH2 0x476E JUMP JUMPDEST PUSH2 0x83D JUMP JUMPDEST PUSH1 0x40 MLOAD SWAP1 DUP2 MSTORE PUSH1 0x20 ADD JUMPDEST PUSH1 0x40 MLOAD DUP1 SWAP2 SUB SWAP1 RETURN JUMPDEST CALLVALUE DUP1 ISZERO PUSH2 0x2B9 JUMPI PUSH1 0x0 DUP1 REVERT JUMPDEST POP PUSH2 0x2E1 PUSH32 0x0 DUP2 JUMP JUMPDEST PUSH1 0x40 MLOAD PUSH1 0x1 PUSH1 0x1 PUSH1 0xA0 SHL SUB SWAP1 SWAP2 AND DUP2 MSTORE PUSH1 0x20 ADD PUSH2 0x2A4 JUMP JUMPDEST CALLVALUE DUP1 ISZERO PUSH2 0x305 JUMPI PUSH1 0x0 DUP1 REVERT JUMPDEST POP PUSH1 0x4 SLOAD PUSH2 0x2E1 SWAP1 PUSH1 0x1 PUSH1 0x1 PUSH1 0xA0 SHL SUB AND DUP2 JUMP JUMPDEST CALLVALUE DUP1 ISZERO PUSH2 0x325 JUMPI PUSH1 0x0 DUP1 REVERT JUMPDEST POP PUSH2 0x339 PUSH2 0x334 CALLDATASIZE PUSH1 0x4 PUSH2 0x4328 JUMP JUMPDEST PUSH2 0xB02 JUMP JUMPDEST PUSH1 0x40 MLOAD PUSH2 0x2A4 SWAP3 SWAP2 SWAP1 PUSH2 0x4954 JUMP JUMPDEST CALLVALUE DUP1 ISZERO PUSH2 0x353 JUMPI PUSH1 0x0 DUP1 REVERT JUMPDEST POP PUSH1 0x3 SLOAD PUSH2 0x2E1 SWAP1 PUSH1 0x1 PUSH1 0x1 PUSH1 0xA0 SHL SUB AND DUP2 JUMP JUMPDEST CALLVALUE DUP1 ISZERO PUSH2 0x373 JUMPI PUSH1 0x0 DUP1 REVERT JUMPDEST POP PUSH2 0x29A PUSH2 0x382 CALLDATASIZE PUSH1 0x4 PUSH2 0x47DB JUMP JUMPDEST PUSH2 0xD45 JUMP JUMPDEST CALLVALUE DUP1 ISZERO PUSH2 0x393 JUMPI PUSH1 0x0 DUP1 REVERT JUMPDEST POP PUSH2 0x2E1 PUSH1 0x1 PUSH1 0x1 PUSH1 0xA0 SHL SUB DUP2 JUMP JUMPDEST CALLVALUE DUP1 ISZERO PUSH2 0x3AE JUMPI PUSH1 0x0 DUP1 REVERT JUMPDEST POP PUSH2 0x29A PUSH32 0xDD327BA0BA6E7BB0E0099273577340E52E9E071B1B87834B866BAFCCDC4C14CB DUP2 JUMP JUMPDEST CALLVALUE DUP1 ISZERO PUSH2 0x3E2 JUMPI PUSH1 0x0 DUP1 REVERT JUMPDEST POP PUSH2 0x3F6 PUSH2 0x3F1 CALLDATASIZE PUSH1 0x4 PUSH2 0x45B3 JUMP JUMPDEST PUSH2 0x1185 JUMP JUMPDEST STOP JUMPDEST CALLVALUE DUP1 ISZERO PUSH2 0x404 JUMPI PUSH1 0x0 DUP1 REVERT JUMPDEST POP PUSH2 0x3F6 PUSH2 0x413 CALLDATASIZE PUSH1 0x4 PUSH2 0x4204 JUMP JUMPDEST PUSH2 0x12C1 JUMP JUMPDEST CALLVALUE DUP1 ISZERO PUSH2 0x424 JUMPI PUSH1 0x0 DUP1 REVERT JUMPDEST POP PUSH2 0x29A PUSH2 0x433 CALLDATASIZE PUSH1 0x4 PUSH2 0x4204 JUMP JUMPDEST PUSH1 0x6 PUSH1 0x20 MSTORE PUSH1 0x0 SWAP1 DUP2 MSTORE PUSH1 0x40 SWAP1 KECCAK256 SLOAD DUP2 JUMP JUMPDEST CALLVALUE DUP1 ISZERO PUSH2 0x451 JUMPI PUSH1 0x0 DUP1 REVERT JUMPDEST POP PUSH1 0x14 SLOAD PUSH1 0x15 SLOAD PUSH1 0x16 SLOAD PUSH1 0x17 SLOAD PUSH1 0x18 SLOAD PUSH1 0x19 SLOAD PUSH2 0x479 SWAP6 SWAP5 SWAP4 PUSH1 0x1 PUSH1 0x1 PUSH1 0xA0 SHL SUB AND SWAP3 SWAP2 SWAP1 DUP7 JUMP JUMPDEST PUSH1 0x40 DUP1 MLOAD SWAP7 DUP8 MSTORE PUSH1 0x20 DUP8 ADD SWAP6 SWAP1 SWAP6 MSTORE PUSH1 0x1 PUSH1 0x1 PUSH1 0xA0 SHL SUB SWAP1 SWAP4 AND SWAP4 DUP6 ADD SWAP4 SWAP1 SWAP4 MSTORE PUSH1 0x60 DUP5 ADD MSTORE PUSH1 0x80 DUP4 ADD SWAP2 SWAP1 SWAP2 MSTORE PUSH1 0xA0 DUP3 ADD MSTORE PUSH1 0xC0 ADD PUSH2 0x2A4 JUMP JUMPDEST CALLVALUE DUP1 ISZERO PUSH2 0x4C0 JUMPI PUSH1 0x0 DUP1 REVERT JUMPDEST POP PUSH2 0x29A PUSH2 0x4CF CALLDATASIZE PUSH1 0x4 PUSH2 0x42BE JUMP JUMPDEST PUSH2 0x12FB JUMP JUMPDEST CALLVALUE DUP1 ISZERO PUSH2 0x4E0 JUMPI PUSH1 0x0 DUP1 REVERT JUMPDEST POP PUSH2 0x3F6 PUSH2 0x4EF CALLDATASIZE PUSH1 0x4 PUSH2 0x4451 JUMP JUMPDEST PUSH2 0x151D JUMP JUMPDEST CALLVALUE DUP1 ISZERO PUSH2 0x500 JUMPI PUSH1 0x0 DUP1 REVERT JUMPDEST POP PUSH2 0x3F6 PUSH2 0x50F CALLDATASIZE PUSH1 0x4 PUSH2 0x4274 JUMP JUMPDEST PUSH2 0x1559 JUMP JUMPDEST CALLVALUE DUP1 ISZERO PUSH2 0x520 JUMPI PUSH1 0x0 DUP1 REVERT JUMPDEST POP PUSH2 0x544 PUSH2 0x52F CALLDATASIZE PUSH1 0x4 PUSH2 0x4204 JUMP JUMPDEST PUSH1 0x5 PUSH1 0x20 MSTORE PUSH1 0x0 SWAP1 DUP2 MSTORE PUSH1 0x40 SWAP1 KECCAK256 SLOAD PUSH1 0xFF AND DUP2 JUMP JUMPDEST PUSH1 0x40 MLOAD SWAP1 ISZERO ISZERO DUP2 MSTORE PUSH1 0x20 ADD PUSH2 0x2A4 JUMP JUMPDEST CALLVALUE DUP1 ISZERO PUSH2 0x560 JUMPI PUSH1 0x0 DUP1 REVERT JUMPDEST POP PUSH2 0x3F6 PUSH2 0x56F CALLDATASIZE PUSH1 0x4 PUSH2 0x479D JUMP JUMPDEST PUSH2 0x1597 JUMP JUMPDEST CALLVALUE DUP1 ISZERO PUSH2 0x580 JUMPI PUSH1 0x0 DUP1 REVERT JUMPDEST POP PUSH2 0x2E1 PUSH32 0x0 DUP2 JUMP JUMPDEST CALLVALUE DUP1 ISZERO PUSH2 0x5B4 JUMPI PUSH1 0x0 DUP1 REVERT JUMPDEST POP PUSH1 0xE SLOAD PUSH1 0xF SLOAD PUSH1 0x10 SLOAD PUSH1 0x11 SLOAD PUSH1 0x12 SLOAD PUSH1 0x13 SLOAD PUSH2 0x479 SWAP6 SWAP5 SWAP4 PUSH1 0x1 PUSH1 0x1 PUSH1 0xA0 SHL SUB AND SWAP3 SWAP2 SWAP1 DUP7 JUMP JUMPDEST CALLVALUE DUP1 ISZERO PUSH2 0x5E8 JUMPI PUSH1 0x0 DUP1 REVERT JUMPDEST POP PUSH2 0x29A PUSH2 0x5F7 CALLDATASIZE PUSH1 0x4 PUSH2 0x4561 JUMP JUMPDEST PUSH2 0x162D JUMP JUMPDEST CALLVALUE DUP1 ISZERO PUSH2 0x608 JUMPI PUSH1 0x0 DUP1 REVERT JUMPDEST POP PUSH2 0x3F6 PUSH2 0x617 CALLDATASIZE PUSH1 0x4 PUSH2 0x4451 JUMP JUMPDEST PUSH2 0x17A0 JUMP JUMPDEST CALLVALUE DUP1 ISZERO PUSH2 0x628 JUMPI PUSH1 0x0 DUP1 REVERT JUMPDEST POP PUSH2 0x3F6 PUSH2 0x637 CALLDATASIZE PUSH1 0x4 PUSH2 0x479D JUMP JUMPDEST PUSH2 0x17D8 JUMP JUMPDEST CALLVALUE DUP1 ISZERO PUSH2 0x648 JUMPI PUSH1 0x0 DUP1 REVERT JUMPDEST POP PUSH2 0x2E1 PUSH2 0x657 CALLDATASIZE PUSH1 0x4 PUSH2 0x423C JUMP JUMPDEST PUSH2 0x1864 JUMP JUMPDEST CALLVALUE DUP1 ISZERO PUSH2 0x668 JUMPI PUSH1 0x0 DUP1 REVERT JUMPDEST POP PUSH2 0x3F6 PUSH2 0x677 CALLDATASIZE PUSH1 0x4 PUSH2 0x4204 JUMP JUMPDEST PUSH2 0x1893 JUMP JUMPDEST CALLVALUE DUP1 ISZERO PUSH2 0x688 JUMPI PUSH1 0x0 DUP1 REVERT JUMPDEST POP PUSH2 0x29A PUSH2 0x697 CALLDATASIZE PUSH1 0x4 PUSH2 0x423C JUMP JUMPDEST PUSH2 0x18CA JUMP JUMPDEST CALLVALUE DUP1 ISZERO PUSH2 0x6A8 JUMPI PUSH1 0x0 DUP1 REVERT JUMPDEST POP PUSH2 0x29A PUSH2 0x6B7 CALLDATASIZE PUSH1 0x4 PUSH2 0x476E JUMP JUMPDEST PUSH2 0x1976 JUMP JUMPDEST CALLVALUE DUP1 ISZERO PUSH2 0x6C8 JUMPI PUSH1 0x0 DUP1 REVERT JUMPDEST POP PUSH2 0x29A PUSH2 0x6D7 CALLDATASIZE PUSH1 0x4 PUSH2 0x4204 JUMP JUMPDEST PUSH2 0x1ADE JUMP JUMPDEST CALLVALUE DUP1 ISZERO PUSH2 0x6E8 JUMPI PUSH1 0x0 DUP1 REVERT JUMPDEST POP PUSH2 0x3F6 PUSH2 0x6F7 CALLDATASIZE PUSH1 0x4 PUSH2 0x4424 JUMP JUMPDEST PUSH2 0x1B71 JUMP JUMPDEST CALLVALUE DUP1 ISZERO PUSH2 0x708 JUMPI PUSH1 0x0 DUP1 REVERT JUMPDEST POP PUSH2 0x339 PUSH2 0x717 CALLDATASIZE PUSH1 0x4 PUSH2 0x44A2 JUMP JUMPDEST PUSH2 0x1BA9 JUMP JUMPDEST CALLVALUE DUP1 ISZERO PUSH2 0x728 JUMPI PUSH1 0x0 DUP1 REVERT JUMPDEST POP PUSH1 0x7 SLOAD PUSH2 0x2E1 SWAP1 PUSH1 0x1 PUSH1 0x1 PUSH1 0xA0 SHL SUB AND DUP2 JUMP JUMPDEST CALLVALUE DUP1 ISZERO PUSH2 0x748 JUMPI PUSH1 0x0 DUP1 REVERT JUMPDEST POP PUSH2 0x3F6 PUSH2 0x757 CALLDATASIZE PUSH1 0x4 PUSH2 0x4204 JUMP JUMPDEST PUSH2 0x1CA8 JUMP JUMPDEST CALLVALUE DUP1 ISZERO PUSH2 0x768 JUMPI PUSH1 0x0 DUP1 REVERT JUMPDEST POP PUSH2 0x77C PUSH2 0x777 CALLDATASIZE PUSH1 0x4 PUSH2 0x44F0 JUMP JUMPDEST PUSH2 0x1E21 JUMP JUMPDEST PUSH1 0x40 MLOAD PUSH2 0x2A4 SWAP2 SWAP1 PUSH2 0x4B03 JUMP JUMPDEST CALLVALUE DUP1 ISZERO PUSH2 0x795 JUMPI PUSH1 0x0 DUP1 REVERT JUMPDEST POP PUSH2 0x544 PUSH2 0x7A4 CALLDATASIZE PUSH1 0x4 PUSH2 0x4451 JUMP JUMPDEST PUSH2 0x1EE3 JUMP JUMPDEST CALLVALUE DUP1 ISZERO PUSH2 0x7B5 JUMPI PUSH1 0x0 DUP1 REVERT JUMPDEST POP PUSH1 0x8 SLOAD PUSH1 0x9 SLOAD PUSH1 0xA SLOAD PUSH1 0xB SLOAD PUSH1 0xC SLOAD PUSH1 0xD SLOAD PUSH2 0x479 SWAP6 SWAP5 SWAP4 PUSH1 0x1 PUSH1 0x1 PUSH1 0xA0 SHL SUB AND SWAP3 SWAP2 SWAP1 DUP7 JUMP JUMPDEST CALLVALUE DUP1 ISZERO PUSH2 0x7E9 JUMPI PUSH1 0x0 DUP1 REVERT JUMPDEST POP PUSH2 0x339 PUSH2 0x7F8 CALLDATASIZE PUSH1 0x4 PUSH2 0x4328 JUMP JUMPDEST PUSH2 0x1F8C JUMP JUMPDEST CALLVALUE DUP1 ISZERO PUSH2 0x809 JUMPI PUSH1 0x0 DUP1 REVERT JUMPDEST POP PUSH2 0x3F6 PUSH2 0x818 CALLDATASIZE PUSH1 0x4 PUSH2 0x479D JUMP JUMPDEST PUSH2 0x2482 JUMP JUMPDEST CALLVALUE DUP1 ISZERO PUSH2 0x829 JUMPI PUSH1 0x0 DUP1 REVERT JUMPDEST POP PUSH2 0x3F6 PUSH2 0x838 CALLDATASIZE PUSH1 0x4 PUSH2 0x4204 JUMP JUMPDEST PUSH2 0x250E JUMP JUMPDEST PUSH1 0x0 PUSH2 0x86D CALLER PUSH1 0x0 CALLDATALOAD PUSH32 0xFFFFFFFF00000000000000000000000000000000000000000000000000000000 AND PUSH2 0x2545 JUMP JUMPDEST PUSH1 0x0 DUP4 GT PUSH2 0x8C2 JUMPI PUSH1 0x40 MLOAD PUSH3 0x461BCD PUSH1 0xE5 SHL DUP2 MSTORE PUSH1 0x20 PUSH1 0x4 DUP3 ADD MSTORE PUSH1 0x10 PUSH1 0x24 DUP3 ADD MSTORE PUSH32 0x575241505F414D4F554E545F5A45524F00000000000000000000000000000000 PUSH1 0x44 DUP3 ADD MSTORE PUSH1 0x64 ADD JUMPDEST PUSH1 0x40 MLOAD DUP1 SWAP2 SUB SWAP1 REVERT JUMPDEST DUP3 SELFBALANCE LT ISZERO PUSH2 0x912 JUMPI PUSH1 0x40 MLOAD PUSH3 0x461BCD PUSH1 0xE5 SHL DUP2 MSTORE PUSH1 0x20 PUSH1 0x4 DUP3 ADD MSTORE PUSH1 0x18 PUSH1 0x24 DUP3 ADD MSTORE PUSH32 0x575241505F494E53554646494349454E545F414D4F554E540000000000000000 PUSH1 0x44 DUP3 ADD MSTORE PUSH1 0x64 ADD PUSH2 0x8B9 JUMP JUMPDEST PUSH1 0x40 MLOAD PUSH32 0x70A0823100000000000000000000000000000000000000000000000000000000 DUP2 MSTORE ADDRESS PUSH1 0x4 DUP3 ADD MSTORE PUSH32 0x0 SWAP1 PUSH1 0x0 SWAP1 PUSH1 0x1 PUSH1 0x1 PUSH1 0xA0 SHL SUB DUP4 AND SWAP1 PUSH4 0x70A08231 SWAP1 PUSH1 0x24 ADD PUSH1 0x20 PUSH1 0x40 MLOAD DUP1 DUP4 SUB DUP2 DUP7 DUP1 EXTCODESIZE ISZERO DUP1 ISZERO PUSH2 0x98F JUMPI PUSH1 0x0 DUP1 REVERT JUMPDEST POP GAS STATICCALL ISZERO DUP1 ISZERO PUSH2 0x9A3 JUMPI RETURNDATASIZE PUSH1 0x0 DUP1 RETURNDATACOPY RETURNDATASIZE PUSH1 0x0 REVERT JUMPDEST POP POP POP POP PUSH1 0x40 MLOAD RETURNDATASIZE PUSH1 0x1F NOT PUSH1 0x1F DUP3 ADD AND DUP3 ADD DUP1 PUSH1 0x40 MSTORE POP DUP2 ADD SWAP1 PUSH2 0x9C7 SWAP2 SWAP1 PUSH2 0x4756 JUMP JUMPDEST SWAP1 POP DUP2 PUSH1 0x1 PUSH1 0x1 PUSH1 0xA0 SHL SUB AND PUSH4 0xD0E30DB0 DUP7 PUSH1 0x40 MLOAD DUP3 PUSH4 0xFFFFFFFF AND PUSH1 0xE0 SHL DUP2 MSTORE PUSH1 0x4 ADD PUSH1 0x0 PUSH1 0x40 MLOAD DUP1 DUP4 SUB DUP2 DUP6 DUP9 DUP1 EXTCODESIZE ISZERO DUP1 ISZERO PUSH2 0xA04 JUMPI PUSH1 0x0 DUP1 REVERT JUMPDEST POP GAS CALL ISZERO DUP1 ISZERO PUSH2 0xA18 JUMPI RETURNDATASIZE PUSH1 0x0 DUP1 RETURNDATACOPY RETURNDATASIZE PUSH1 0x0 REVERT JUMPDEST POP POP PUSH1 0x40 MLOAD PUSH32 0x70A0823100000000000000000000000000000000000000000000000000000000 DUP2 MSTORE ADDRESS PUSH1 0x4 DUP3 ADD MSTORE PUSH1 0x0 SWAP4 POP PUSH1 0x1 PUSH1 0x1 PUSH1 0xA0 SHL SUB DUP7 AND SWAP3 POP PUSH4 0x70A08231 SWAP2 POP PUSH1 0x24 ADD PUSH1 0x20 PUSH1 0x40 MLOAD DUP1 DUP4 SUB DUP2 DUP7 DUP1 EXTCODESIZE ISZERO DUP1 ISZERO PUSH2 0xA78 JUMPI PUSH1 0x0 DUP1 REVERT JUMPDEST POP GAS STATICCALL ISZERO DUP1 ISZERO PUSH2 0xA8C JUMPI RETURNDATASIZE PUSH1 0x0 DUP1 RETURNDATACOPY RETURNDATASIZE PUSH1 0x0 REVERT JUMPDEST POP POP POP POP PUSH1 0x40 MLOAD RETURNDATASIZE PUSH1 0x1F NOT PUSH1 0x1F DUP3 ADD AND DUP3 ADD DUP1 PUSH1 0x40 MSTORE POP DUP2 ADD SWAP1 PUSH2 0xAB0 SWAP2 SWAP1 PUSH2 0x4756 JUMP JUMPDEST SWAP1 POP PUSH2 0xABC DUP3 DUP3 PUSH2 0x4D06 JUMP JUMPDEST SWAP4 POP PUSH32 0x26B89B7C87CFAE6E0C27CB572C5B1EAA577F2223FE8DCA0D76A62034579B7A1E DUP7 DUP6 DUP8 PUSH1 0x40 MLOAD PUSH2 0xAF1 SWAP4 SWAP3 SWAP2 SWAP1 PUSH2 0x4BD4 JUMP JUMPDEST PUSH1 0x40 MLOAD DUP1 SWAP2 SUB SWAP1 LOG1 POP POP POP SWAP3 SWAP2 POP POP JUMP JUMPDEST PUSH1 0x60 DUP1 PUSH2 0xB33 CALLER PUSH1 0x0 CALLDATALOAD PUSH32 0xFFFFFFFF00000000000000000000000000000000000000000000000000000000 AND PUSH2 0x2545 JUMP JUMPDEST PUSH1 0x1 PUSH1 0x1 PUSH1 0xA0 SHL SUB DUP8 AND PUSH1 0x0 SWAP1 DUP2 MSTORE PUSH1 0x5 PUSH1 0x20 MSTORE PUSH1 0x40 SWAP1 KECCAK256 SLOAD PUSH1 0xFF AND PUSH2 0xB9B JUMPI PUSH1 0x40 MLOAD PUSH3 0x461BCD PUSH1 0xE5 SHL DUP2 MSTORE PUSH1 0x20 PUSH1 0x4 DUP3 ADD MSTORE PUSH1 0x14 PUSH1 0x24 DUP3 ADD MSTORE PUSH32 0x53545241544547595F4E4F545F414C4C4F574544000000000000000000000000 PUSH1 0x44 DUP3 ADD MSTORE PUSH1 0x64 ADD PUSH2 0x8B9 JUMP JUMPDEST PUSH8 0xDE0B6B3A7640000 DUP5 GT ISZERO PUSH2 0xBF3 JUMPI PUSH1 0x40 MLOAD PUSH3 0x461BCD PUSH1 0xE5 SHL DUP2 MSTORE PUSH1 0x20 PUSH1 0x4 DUP3 ADD MSTORE PUSH1 0x17 PUSH1 0x24 DUP3 ADD MSTORE PUSH32 0x4A4F494E5F534C4950504147455F41424F56455F4F4E45000000000000000000 PUSH1 0x44 DUP3 ADD MSTORE PUSH1 0x64 ADD PUSH2 0x8B9 JUMP JUMPDEST DUP5 MLOAD DUP7 MLOAD EQ PUSH2 0xC44 JUMPI PUSH1 0x40 MLOAD PUSH3 0x461BCD PUSH1 0xE5 SHL DUP2 MSTORE PUSH1 0x20 PUSH1 0x4 DUP3 ADD MSTORE PUSH1 0x19 PUSH1 0x24 DUP3 ADD MSTORE PUSH32 0x4A4F494E5F494E5055545F494E56414C49445F4C454E47544800000000000000 PUSH1 0x44 DUP3 ADD MSTORE PUSH1 0x64 ADD PUSH2 0x8B9 JUMP JUMPDEST PUSH1 0x0 PUSH2 0xC5C PUSH1 0x1 PUSH1 0x1 PUSH1 0xA0 SHL SUB DUP10 AND DUP9 DUP9 DUP9 DUP9 PUSH2 0x259B JUMP JUMPDEST DUP2 MLOAD DUP4 MLOAD SWAP4 SWAP7 POP SWAP2 SWAP5 POP SWAP3 POP EQ PUSH2 0xCB5 JUMPI PUSH1 0x40 MLOAD PUSH3 0x461BCD PUSH1 0xE5 SHL DUP2 MSTORE PUSH1 0x20 PUSH1 0x4 DUP3 ADD MSTORE PUSH1 0x1A PUSH1 0x24 DUP3 ADD MSTORE PUSH32 0x4A4F494E5F4F55545055545F494E56414C49445F4C454E475448000000000000 PUSH1 0x44 DUP3 ADD MSTORE PUSH1 0x64 ADD PUSH2 0x8B9 JUMP JUMPDEST PUSH1 0x1 PUSH1 0x1 PUSH1 0xA0 SHL SUB DUP9 AND PUSH1 0x0 SWAP1 DUP2 MSTORE PUSH1 0x6 PUSH1 0x20 MSTORE PUSH1 0x40 SWAP1 KECCAK256 SLOAD PUSH2 0xCD9 SWAP1 DUP3 SWAP1 PUSH2 0x4C91 JUMP JUMPDEST PUSH1 0x1 PUSH1 0x1 PUSH1 0xA0 SHL SUB DUP10 AND PUSH1 0x0 DUP2 DUP2 MSTORE PUSH1 0x6 PUSH1 0x20 MSTORE PUSH1 0x40 SWAP1 DUP2 SWAP1 KECCAK256 SWAP3 SWAP1 SWAP3 SSTORE SWAP1 MLOAD PUSH32 0x6BE300D66E65741E7CC134F5E6B6815E65361424AB43526B3F51742A2B2EA952 SWAP1 PUSH2 0xD32 SWAP1 DUP11 SWAP1 DUP11 SWAP1 DUP9 SWAP1 DUP9 SWAP1 DUP9 SWAP1 DUP14 SWAP1 DUP14 SWAP1 PUSH2 0x4A06 JUMP JUMPDEST PUSH1 0x40 MLOAD DUP1 SWAP2 SUB SWAP1 LOG2 POP SWAP6 POP SWAP6 SWAP4 POP POP POP POP JUMP JUMPDEST PUSH1 0x0 PUSH2 0xD75 CALLER PUSH1 0x0 CALLDATALOAD PUSH32 0xFFFFFFFF00000000000000000000000000000000000000000000000000000000 AND PUSH2 0x2545 JUMP JUMPDEST DUP6 PUSH1 0x1 PUSH1 0x1 PUSH1 0xA0 SHL SUB AND DUP8 PUSH1 0x1 PUSH1 0x1 PUSH1 0xA0 SHL SUB AND EQ ISZERO PUSH2 0xDD7 JUMPI PUSH1 0x40 MLOAD PUSH3 0x461BCD PUSH1 0xE5 SHL DUP2 MSTORE PUSH1 0x20 PUSH1 0x4 DUP3 ADD MSTORE PUSH1 0xF PUSH1 0x24 DUP3 ADD MSTORE PUSH32 0x535741505F53414D455F544F4B454E0000000000000000000000000000000000 PUSH1 0x44 DUP3 ADD MSTORE PUSH1 0x64 ADD PUSH2 0x8B9 JUMP JUMPDEST PUSH1 0x4 SLOAD PUSH1 0x1 PUSH1 0x1 PUSH1 0xA0 SHL SUB AND PUSH2 0xE2F JUMPI PUSH1 0x40 MLOAD PUSH3 0x461BCD PUSH1 0xE5 SHL DUP2 MSTORE PUSH1 0x20 PUSH1 0x4 DUP3 ADD MSTORE PUSH1 0x16 PUSH1 0x24 DUP3 ADD MSTORE PUSH32 0x535741505F434F4E4E4543544F525F4E4F545F53455400000000000000000000 PUSH1 0x44 DUP3 ADD MSTORE PUSH1 0x64 ADD PUSH2 0x8B9 JUMP JUMPDEST PUSH1 0x0 PUSH1 0x1 DUP6 PUSH1 0x1 DUP2 GT ISZERO PUSH2 0xE53 JUMPI PUSH4 0x4E487B71 PUSH1 0xE0 SHL PUSH1 0x0 MSTORE PUSH1 0x21 PUSH1 0x4 MSTORE PUSH1 0x24 PUSH1 0x0 REVERT JUMPDEST EQ ISZERO PUSH2 0xE60 JUMPI POP DUP3 PUSH2 0xF5D JUMP JUMPDEST PUSH1 0x0 DUP6 PUSH1 0x1 DUP2 GT ISZERO PUSH2 0xE82 JUMPI PUSH4 0x4E487B71 PUSH1 0xE0 SHL PUSH1 0x0 MSTORE PUSH1 0x21 PUSH1 0x4 MSTORE PUSH1 0x24 PUSH1 0x0 REVERT JUMPDEST EQ ISZERO PUSH2 0xF15 JUMPI PUSH8 0xDE0B6B3A7640000 DUP5 GT ISZERO PUSH2 0xEE0 JUMPI PUSH1 0x40 MLOAD PUSH3 0x461BCD PUSH1 0xE5 SHL DUP2 MSTORE PUSH1 0x20 PUSH1 0x4 DUP3 ADD MSTORE PUSH1 0x17 PUSH1 0x24 DUP3 ADD MSTORE PUSH32 0x535741505F534C4950504147455F41424F56455F4F4E45000000000000000000 PUSH1 0x44 DUP3 ADD MSTORE PUSH1 0x64 ADD PUSH2 0x8B9 JUMP JUMPDEST PUSH1 0x0 PUSH2 0xEEC DUP10 DUP10 PUSH2 0x18CA JUMP JUMPDEST SWAP1 POP PUSH2 0xF0D PUSH8 0xDE0B6B3A7640000 DUP7 SWAP1 SUB PUSH2 0xF07 DUP10 DUP5 PUSH2 0x26ED JUMP JUMPDEST SWAP1 PUSH2 0x26ED JUMP JUMPDEST SWAP2 POP POP PUSH2 0xF5D JUMP JUMPDEST PUSH1 0x40 MLOAD PUSH3 0x461BCD PUSH1 0xE5 SHL DUP2 MSTORE PUSH1 0x20 PUSH1 0x4 DUP3 ADD MSTORE PUSH1 0x17 PUSH1 0x24 DUP3 ADD MSTORE PUSH32 0x535741505F494E56414C49445F4C494D49545F54595045000000000000000000 PUSH1 0x44 DUP3 ADD MSTORE PUSH1 0x64 ADD PUSH2 0x8B9 JUMP JUMPDEST PUSH1 0x40 MLOAD PUSH32 0x70A0823100000000000000000000000000000000000000000000000000000000 DUP2 MSTORE ADDRESS PUSH1 0x4 DUP3 ADD MSTORE PUSH1 0x0 SWAP1 PUSH1 0x1 PUSH1 0x1 PUSH1 0xA0 SHL SUB DUP10 AND SWAP1 PUSH4 0x70A08231 SWAP1 PUSH1 0x24 ADD PUSH1 0x20 PUSH1 0x40 MLOAD DUP1 DUP4 SUB DUP2 DUP7 DUP1 EXTCODESIZE ISZERO DUP1 ISZERO PUSH2 0xFB8 JUMPI PUSH1 0x0 DUP1 REVERT JUMPDEST POP GAS STATICCALL ISZERO DUP1 ISZERO PUSH2 0xFCC JUMPI RETURNDATASIZE PUSH1 0x0 DUP1 RETURNDATACOPY RETURNDATASIZE PUSH1 0x0 REVERT JUMPDEST POP POP POP POP PUSH1 0x40 MLOAD RETURNDATASIZE PUSH1 0x1F NOT PUSH1 0x1F DUP3 ADD AND DUP3 ADD DUP1 PUSH1 0x40 MSTORE POP DUP2 ADD SWAP1 PUSH2 0xFF0 SWAP2 SWAP1 PUSH2 0x4756 JUMP JUMPDEST PUSH1 0x4 SLOAD SWAP1 SWAP2 POP PUSH2 0x100E SWAP1 PUSH1 0x1 PUSH1 0x1 PUSH1 0xA0 SHL SUB AND DUP12 DUP12 DUP12 DUP12 DUP8 DUP11 PUSH2 0x27AD JUMP JUMPDEST POP PUSH1 0x40 MLOAD PUSH32 0x70A0823100000000000000000000000000000000000000000000000000000000 DUP2 MSTORE ADDRESS PUSH1 0x4 DUP3 ADD MSTORE PUSH1 0x0 SWAP1 PUSH1 0x1 PUSH1 0x1 PUSH1 0xA0 SHL SUB DUP11 AND SWAP1 PUSH4 0x70A08231 SWAP1 PUSH1 0x24 ADD PUSH1 0x20 PUSH1 0x40 MLOAD DUP1 DUP4 SUB DUP2 DUP7 DUP1 EXTCODESIZE ISZERO DUP1 ISZERO PUSH2 0x106A JUMPI PUSH1 0x0 DUP1 REVERT JUMPDEST POP GAS STATICCALL ISZERO DUP1 ISZERO PUSH2 0x107E JUMPI RETURNDATASIZE PUSH1 0x0 DUP1 RETURNDATACOPY RETURNDATASIZE PUSH1 0x0 REVERT JUMPDEST POP POP POP POP PUSH1 0x40 MLOAD RETURNDATASIZE PUSH1 0x1F NOT PUSH1 0x1F DUP3 ADD AND DUP3 ADD DUP1 PUSH1 0x40 MSTORE POP DUP2 ADD SWAP1 PUSH2 0x10A2 SWAP2 SWAP1 PUSH2 0x4756 JUMP JUMPDEST SWAP1 POP PUSH1 0x0 PUSH2 0x10B0 DUP4 DUP4 PUSH2 0x4D06 JUMP JUMPDEST SWAP1 POP DUP4 DUP2 LT ISZERO PUSH2 0x1102 JUMPI PUSH1 0x40 MLOAD PUSH3 0x461BCD PUSH1 0xE5 SHL DUP2 MSTORE PUSH1 0x20 PUSH1 0x4 DUP3 ADD MSTORE PUSH1 0xF PUSH1 0x24 DUP3 ADD MSTORE PUSH32 0x535741505F4D494E5F414D4F554E540000000000000000000000000000000000 PUSH1 0x44 DUP3 ADD MSTORE PUSH1 0x64 ADD PUSH2 0x8B9 JUMP JUMPDEST PUSH1 0x0 PUSH2 0x1110 DUP12 DUP4 PUSH1 0x14 PUSH2 0x2931 JUMP JUMPDEST SWAP1 POP PUSH2 0x111C DUP2 DUP4 PUSH2 0x4D06 JUMP JUMPDEST SWAP6 POP DUP11 PUSH1 0x1 PUSH1 0x1 PUSH1 0xA0 SHL SUB AND DUP13 PUSH1 0x1 PUSH1 0x1 PUSH1 0xA0 SHL SUB AND DUP15 PUSH1 0xFF AND PUSH32 0xFC431937278B84C6FA5B23BCC58F673C647FEA974D3656E766B22D8C1412E544 DUP14 DUP11 DUP11 DUP8 DUP15 PUSH1 0x40 MLOAD PUSH2 0x116D SWAP6 SWAP5 SWAP4 SWAP3 SWAP2 SWAP1 PUSH2 0x4BF3 JUMP JUMPDEST PUSH1 0x40 MLOAD DUP1 SWAP2 SUB SWAP1 LOG4 POP POP POP POP POP SWAP8 SWAP7 POP POP POP POP POP POP POP JUMP JUMPDEST DUP2 MLOAD DUP4 MLOAD EQ PUSH2 0x11D6 JUMPI PUSH1 0x40 MLOAD PUSH3 0x461BCD PUSH1 0xE5 SHL DUP2 MSTORE PUSH1 0x20 PUSH1 0x4 DUP3 ADD MSTORE PUSH1 0x1F PUSH1 0x24 DUP3 ADD MSTORE PUSH32 0x5345545F46454544535F494E56414C49445F51554F5445535F4C454E47544800 PUSH1 0x44 DUP3 ADD MSTORE PUSH1 0x64 ADD PUSH2 0x8B9 JUMP JUMPDEST DUP1 MLOAD DUP4 MLOAD EQ PUSH2 0x1227 JUMPI PUSH1 0x40 MLOAD PUSH3 0x461BCD PUSH1 0xE5 SHL DUP2 MSTORE PUSH1 0x20 PUSH1 0x4 DUP3 ADD MSTORE PUSH1 0x1E PUSH1 0x24 DUP3 ADD MSTORE PUSH32 0x5345545F46454544535F494E56414C49445F46454544535F4C454E4754480000 PUSH1 0x44 DUP3 ADD MSTORE PUSH1 0x64 ADD PUSH2 0x8B9 JUMP JUMPDEST PUSH1 0x0 JUMPDEST DUP4 MLOAD DUP2 LT ISZERO PUSH2 0x12BB JUMPI PUSH2 0x12B3 DUP5 DUP3 DUP2 MLOAD DUP2 LT PUSH2 0x1256 JUMPI PUSH4 0x4E487B71 PUSH1 0xE0 SHL PUSH1 0x0 MSTORE PUSH1 0x32 PUSH1 0x4 MSTORE PUSH1 0x24 PUSH1 0x0 REVERT JUMPDEST PUSH1 0x20 MUL PUSH1 0x20 ADD ADD MLOAD DUP5 DUP4 DUP2 MLOAD DUP2 LT PUSH2 0x127E JUMPI PUSH4 0x4E487B71 PUSH1 0xE0 SHL PUSH1 0x0 MSTORE PUSH1 0x32 PUSH1 0x4 MSTORE PUSH1 0x24 PUSH1 0x0 REVERT JUMPDEST PUSH1 0x20 MUL PUSH1 0x20 ADD ADD MLOAD DUP5 DUP5 DUP2 MLOAD DUP2 LT PUSH2 0x12A6 JUMPI PUSH4 0x4E487B71 PUSH1 0xE0 SHL PUSH1 0x0 MSTORE PUSH1 0x32 PUSH1 0x4 MSTORE PUSH1 0x24 PUSH1 0x0 REVERT JUMPDEST PUSH1 0x20 MUL PUSH1 0x20 ADD ADD MLOAD PUSH2 0x1559 JUMP JUMPDEST PUSH1 0x1 ADD PUSH2 0x122A JUMP JUMPDEST POP POP POP POP JUMP JUMPDEST PUSH2 0x12EF CALLER PUSH1 0x0 CALLDATALOAD PUSH32 0xFFFFFFFF00000000000000000000000000000000000000000000000000000000 AND PUSH2 0x2545 JUMP JUMPDEST PUSH2 0x12F8 DUP2 PUSH2 0x2A9F JUMP JUMPDEST POP JUMP JUMPDEST PUSH1 0x0 PUSH2 0x132B CALLER PUSH1 0x0 CALLDATALOAD PUSH32 0xFFFFFFFF00000000000000000000000000000000000000000000000000000000 AND PUSH2 0x2545 JUMP JUMPDEST PUSH1 0x0 DUP4 GT PUSH2 0x137B JUMPI PUSH1 0x40 MLOAD PUSH3 0x461BCD PUSH1 0xE5 SHL DUP2 MSTORE PUSH1 0x20 PUSH1 0x4 DUP3 ADD MSTORE PUSH1 0x13 PUSH1 0x24 DUP3 ADD MSTORE PUSH32 0x434F4C4C4543545F414D4F554E545F5A45524F00000000000000000000000000 PUSH1 0x44 DUP3 ADD MSTORE PUSH1 0x64 ADD PUSH2 0x8B9 JUMP JUMPDEST PUSH1 0x40 MLOAD PUSH32 0x70A0823100000000000000000000000000000000000000000000000000000000 DUP2 MSTORE ADDRESS PUSH1 0x4 DUP3 ADD MSTORE PUSH1 0x0 SWAP1 PUSH1 0x1 PUSH1 0x1 PUSH1 0xA0 SHL SUB DUP8 AND SWAP1 PUSH4 0x70A08231 SWAP1 PUSH1 0x24 ADD PUSH1 0x20 PUSH1 0x40 MLOAD DUP1 DUP4 SUB DUP2 DUP7 DUP1 EXTCODESIZE ISZERO DUP1 ISZERO PUSH2 0x13D6 JUMPI PUSH1 0x0 DUP1 REVERT JUMPDEST POP GAS STATICCALL ISZERO DUP1 ISZERO PUSH2 0x13EA JUMPI RETURNDATASIZE PUSH1 0x0 DUP1 RETURNDATACOPY RETURNDATASIZE PUSH1 0x0 REVERT JUMPDEST POP POP POP POP PUSH1 0x40 MLOAD RETURNDATASIZE PUSH1 0x1F NOT PUSH1 0x1F DUP3 ADD AND DUP3 ADD DUP1 PUSH1 0x40 MSTORE POP DUP2 ADD SWAP1 PUSH2 0x140E SWAP2 SWAP1 PUSH2 0x4756 JUMP JUMPDEST SWAP1 POP PUSH2 0x1425 PUSH1 0x1 PUSH1 0x1 PUSH1 0xA0 SHL SUB DUP8 AND DUP7 ADDRESS DUP8 PUSH2 0x2B0A JUMP JUMPDEST PUSH1 0x40 MLOAD PUSH32 0x70A0823100000000000000000000000000000000000000000000000000000000 DUP2 MSTORE ADDRESS PUSH1 0x4 DUP3 ADD MSTORE PUSH1 0x0 SWAP1 PUSH1 0x1 PUSH1 0x1 PUSH1 0xA0 SHL SUB DUP9 AND SWAP1 PUSH4 0x70A08231 SWAP1 PUSH1 0x24 ADD PUSH1 0x20 PUSH1 0x40 MLOAD DUP1 DUP4 SUB DUP2 DUP7 DUP1 EXTCODESIZE ISZERO DUP1 ISZERO PUSH2 0x1480 JUMPI PUSH1 0x0 DUP1 REVERT JUMPDEST POP GAS STATICCALL ISZERO DUP1 ISZERO PUSH2 0x1494 JUMPI RETURNDATASIZE PUSH1 0x0 DUP1 RETURNDATACOPY RETURNDATASIZE PUSH1 0x0 REVERT JUMPDEST POP POP POP POP PUSH1 0x40 MLOAD RETURNDATASIZE PUSH1 0x1F NOT PUSH1 0x1F DUP3 ADD AND DUP3 ADD DUP1 PUSH1 0x40 MSTORE POP DUP2 ADD SWAP1 PUSH2 0x14B8 SWAP2 SWAP1 PUSH2 0x4756 JUMP JUMPDEST SWAP1 POP PUSH2 0x14C4 DUP3 DUP3 PUSH2 0x4D06 JUMP JUMPDEST SWAP3 POP DUP6 PUSH1 0x1 PUSH1 0x1 PUSH1 0xA0 SHL SUB AND DUP8 PUSH1 0x1 PUSH1 0x1 PUSH1 0xA0 SHL SUB AND PUSH32 0x42BD73EA702D7CF4505C06A7AC02A171536177D9CC2C7665443151EC91CC43FC DUP6 DUP8 PUSH1 0x40 MLOAD PUSH2 0x150B SWAP3 SWAP2 SWAP1 PUSH2 0x4BBB JUMP JUMPDEST PUSH1 0x40 MLOAD DUP1 SWAP2 SUB SWAP1 LOG3 POP POP SWAP5 SWAP4 POP POP POP POP JUMP JUMPDEST PUSH2 0x154B CALLER PUSH1 0x0 CALLDATALOAD PUSH32 0xFFFFFFFF00000000000000000000000000000000000000000000000000000000 AND PUSH2 0x2545 JUMP JUMPDEST PUSH2 0x1555 DUP3 DUP3 PUSH2 0x2BD9 JUMP JUMPDEST POP POP JUMP JUMPDEST PUSH2 0x1587 CALLER PUSH1 0x0 CALLDATALOAD PUSH32 0xFFFFFFFF00000000000000000000000000000000000000000000000000000000 AND PUSH2 0x2545 JUMP JUMPDEST PUSH2 0x1592 DUP4 DUP4 DUP4 PUSH2 0x2C7B JUMP JUMPDEST POP POP POP JUMP JUMPDEST PUSH2 0x15C5 CALLER PUSH1 0x0 CALLDATALOAD PUSH32 0xFFFFFFFF00000000000000000000000000000000000000000000000000000000 AND PUSH2 0x2545 JUMP JUMPDEST PUSH2 0x15D3 PUSH1 0x14 DUP6 DUP6 DUP6 DUP6 PUSH2 0x2D06 JUMP JUMPDEST PUSH1 0x40 DUP1 MLOAD DUP6 DUP2 MSTORE PUSH1 0x20 DUP2 ADD DUP6 SWAP1 MSTORE PUSH1 0x1 PUSH1 0x1 PUSH1 0xA0 SHL SUB DUP5 AND SWAP2 DUP2 ADD SWAP2 SWAP1 SWAP2 MSTORE PUSH1 0x60 DUP2 ADD DUP3 SWAP1 MSTORE PUSH32 0x4374E92441315A747B6C3E2C80E356B78D580BDE720326DC3A9B45055414041B SWAP1 PUSH1 0x80 ADD JUMPDEST PUSH1 0x40 MLOAD DUP1 SWAP2 SUB SWAP1 LOG1 POP POP POP POP JUMP JUMPDEST PUSH1 0x0 PUSH2 0x165D CALLER PUSH1 0x0 CALLDATALOAD PUSH32 0xFFFFFFFF00000000000000000000000000000000000000000000000000000000 AND PUSH2 0x2545 JUMP JUMPDEST PUSH1 0x0 DUP5 GT PUSH2 0x16AD JUMPI PUSH1 0x40 MLOAD PUSH3 0x461BCD PUSH1 0xE5 SHL DUP2 MSTORE PUSH1 0x20 PUSH1 0x4 DUP3 ADD MSTORE PUSH1 0x14 PUSH1 0x24 DUP3 ADD MSTORE PUSH32 0x57495448445241575F414D4F554E545F5A45524F000000000000000000000000 PUSH1 0x44 DUP3 ADD MSTORE PUSH1 0x64 ADD PUSH2 0x8B9 JUMP JUMPDEST PUSH1 0x1 PUSH1 0x1 PUSH1 0xA0 SHL SUB DUP4 AND PUSH2 0x1703 JUMPI PUSH1 0x40 MLOAD PUSH3 0x461BCD PUSH1 0xE5 SHL DUP2 MSTORE PUSH1 0x20 PUSH1 0x4 DUP3 ADD MSTORE PUSH1 0xE PUSH1 0x24 DUP3 ADD MSTORE PUSH32 0x524543495049454E545F5A45524F000000000000000000000000000000000000 PUSH1 0x44 DUP3 ADD MSTORE PUSH1 0x64 ADD PUSH2 0x8B9 JUMP JUMPDEST PUSH1 0x7 SLOAD PUSH1 0x0 SWAP1 PUSH1 0x1 PUSH1 0x1 PUSH1 0xA0 SHL SUB DUP6 DUP2 AND SWAP2 AND EQ PUSH2 0x172C JUMPI PUSH2 0x1727 DUP7 DUP7 PUSH1 0x8 PUSH2 0x2931 JUMP JUMPDEST PUSH2 0x172F JUMP JUMPDEST PUSH1 0x0 JUMPDEST SWAP1 POP PUSH2 0x173B DUP2 DUP7 PUSH2 0x4D06 JUMP JUMPDEST SWAP2 POP PUSH2 0x1748 DUP7 DUP6 DUP5 PUSH2 0x2F28 JUMP JUMPDEST DUP4 PUSH1 0x1 PUSH1 0x1 PUSH1 0xA0 SHL SUB AND DUP7 PUSH1 0x1 PUSH1 0x1 PUSH1 0xA0 SHL SUB AND PUSH32 0x33BE7EABD8ED368CA1AA14CE2AD1E90A0C9BF21EDBB3820D5591546E4EB84157 DUP5 DUP5 DUP8 PUSH1 0x40 MLOAD PUSH2 0x178F SWAP4 SWAP3 SWAP2 SWAP1 PUSH2 0x4BD4 JUMP JUMPDEST PUSH1 0x40 MLOAD DUP1 SWAP2 SUB SWAP1 LOG3 POP SWAP5 SWAP4 POP POP POP POP JUMP JUMPDEST PUSH2 0x17CE CALLER PUSH1 0x0 CALLDATALOAD PUSH32 0xFFFFFFFF00000000000000000000000000000000000000000000000000000000 AND PUSH2 0x2545 JUMP JUMPDEST PUSH2 0x1555 DUP3 DUP3 PUSH2 0x2F7A JUMP JUMPDEST PUSH2 0x1806 CALLER PUSH1 0x0 CALLDATALOAD PUSH32 0xFFFFFFFF00000000000000000000000000000000000000000000000000000000 AND PUSH2 0x2545 JUMP JUMPDEST PUSH2 0x1814 PUSH1 0xE DUP6 DUP6 DUP6 DUP6 PUSH2 0x2D06 JUMP JUMPDEST PUSH1 0x40 DUP1 MLOAD DUP6 DUP2 MSTORE PUSH1 0x20 DUP2 ADD DUP6 SWAP1 MSTORE PUSH1 0x1 PUSH1 0x1 PUSH1 0xA0 SHL SUB DUP5 AND SWAP2 DUP2 ADD SWAP2 SWAP1 SWAP2 MSTORE PUSH1 0x60 DUP2 ADD DUP3 SWAP1 MSTORE PUSH32 0x8DB23AB1F209B6252F45CBA9848D0A1EBBB63E50328A308FA3AA01CDF151F75D SWAP1 PUSH1 0x80 ADD PUSH2 0x161F JUMP JUMPDEST PUSH1 0x1 PUSH1 0x1 PUSH1 0xA0 SHL SUB DUP1 DUP4 AND PUSH1 0x0 SWAP1 DUP2 MSTORE PUSH1 0x1 PUSH1 0x20 SWAP1 DUP2 MSTORE PUSH1 0x40 DUP1 DUP4 KECCAK256 DUP6 DUP6 AND DUP5 MSTORE SWAP1 SWAP2 MSTORE SWAP1 KECCAK256 SLOAD AND JUMPDEST SWAP3 SWAP2 POP POP JUMP JUMPDEST PUSH2 0x18C1 CALLER PUSH1 0x0 CALLDATALOAD PUSH32 0xFFFFFFFF00000000000000000000000000000000000000000000000000000000 AND PUSH2 0x2545 JUMP JUMPDEST PUSH2 0x12F8 DUP2 PUSH2 0x3017 JUMP JUMPDEST PUSH1 0x3 SLOAD PUSH1 0x40 MLOAD PUSH32 0x7100D05C00000000000000000000000000000000000000000000000000000000 DUP2 MSTORE ADDRESS PUSH1 0x4 DUP3 ADD MSTORE PUSH1 0x1 PUSH1 0x1 PUSH1 0xA0 SHL SUB DUP5 DUP2 AND PUSH1 0x24 DUP4 ADD MSTORE DUP4 DUP2 AND PUSH1 0x44 DUP4 ADD MSTORE PUSH1 0x0 SWAP3 AND SWAP1 PUSH4 0x7100D05C SWAP1 PUSH1 0x64 ADD PUSH1 0x20 PUSH1 0x40 MLOAD DUP1 DUP4 SUB DUP2 DUP7 DUP1 EXTCODESIZE ISZERO DUP1 ISZERO PUSH2 0x1937 JUMPI PUSH1 0x0 DUP1 REVERT JUMPDEST POP GAS STATICCALL ISZERO DUP1 ISZERO PUSH2 0x194B JUMPI RETURNDATASIZE PUSH1 0x0 DUP1 RETURNDATACOPY RETURNDATASIZE PUSH1 0x0 REVERT JUMPDEST POP POP POP POP PUSH1 0x40 MLOAD RETURNDATASIZE PUSH1 0x1F NOT PUSH1 0x1F DUP3 ADD AND DUP3 ADD DUP1 PUSH1 0x40 MSTORE POP DUP2 ADD SWAP1 PUSH2 0x196F SWAP2 SWAP1 PUSH2 0x4756 JUMP JUMPDEST SWAP4 SWAP3 POP POP POP JUMP JUMPDEST PUSH1 0x0 PUSH2 0x19A6 CALLER PUSH1 0x0 CALLDATALOAD PUSH32 0xFFFFFFFF00000000000000000000000000000000000000000000000000000000 AND PUSH2 0x2545 JUMP JUMPDEST PUSH1 0x0 DUP4 GT PUSH2 0x19F6 JUMPI PUSH1 0x40 MLOAD PUSH3 0x461BCD PUSH1 0xE5 SHL DUP2 MSTORE PUSH1 0x20 PUSH1 0x4 DUP3 ADD MSTORE PUSH1 0x12 PUSH1 0x24 DUP3 ADD MSTORE PUSH32 0x554E575241505F414D4F554E545F5A45524F0000000000000000000000000000 PUSH1 0x44 DUP3 ADD MSTORE PUSH1 0x64 ADD PUSH2 0x8B9 JUMP JUMPDEST PUSH1 0x40 MLOAD PUSH32 0x2E1A7D4D00000000000000000000000000000000000000000000000000000000 DUP2 MSTORE PUSH1 0x4 DUP2 ADD DUP5 SWAP1 MSTORE SELFBALANCE SWAP1 PUSH32 0x0 PUSH1 0x1 PUSH1 0x1 PUSH1 0xA0 SHL SUB AND SWAP1 PUSH4 0x2E1A7D4D SWAP1 PUSH1 0x24 ADD PUSH1 0x0 PUSH1 0x40 MLOAD DUP1 DUP4 SUB DUP2 PUSH1 0x0 DUP8 DUP1 EXTCODESIZE ISZERO DUP1 ISZERO PUSH2 0x1A73 JUMPI PUSH1 0x0 DUP1 REVERT JUMPDEST POP GAS CALL ISZERO DUP1 ISZERO PUSH2 0x1A87 JUMPI RETURNDATASIZE PUSH1 0x0 DUP1 RETURNDATACOPY RETURNDATASIZE PUSH1 0x0 REVERT JUMPDEST POP SELFBALANCE SWAP3 POP PUSH2 0x1A99 SWAP2 POP DUP4 SWAP1 POP DUP3 PUSH2 0x4D06 JUMP JUMPDEST SWAP3 POP PUSH32 0xB4D99315C288C112A1D49DA08C3FA85F78E2C83392F63F0A8964418F96AA24ED DUP6 DUP5 DUP7 PUSH1 0x40 MLOAD PUSH2 0x1ACE SWAP4 SWAP3 SWAP2 SWAP1 PUSH2 0x4BD4 JUMP JUMPDEST PUSH1 0x40 MLOAD DUP1 SWAP2 SUB SWAP1 LOG1 POP POP SWAP3 SWAP2 POP POP JUMP JUMPDEST PUSH1 0x40 MLOAD PUSH32 0xBA03E93F00000000000000000000000000000000000000000000000000000000 DUP2 MSTORE ADDRESS PUSH1 0x4 DUP3 ADD MSTORE PUSH1 0x0 SWAP1 PUSH1 0x1 PUSH1 0x1 PUSH1 0xA0 SHL SUB DUP4 AND SWAP1 PUSH4 0xBA03E93F SWAP1 PUSH1 0x24 ADD PUSH1 0x20 PUSH1 0x40 MLOAD DUP1 DUP4 SUB DUP2 DUP7 DUP1 EXTCODESIZE ISZERO DUP1 ISZERO PUSH2 0x1B39 JUMPI PUSH1 0x0 DUP1 REVERT JUMPDEST POP GAS STATICCALL ISZERO DUP1 ISZERO PUSH2 0x1B4D JUMPI RETURNDATASIZE PUSH1 0x0 DUP1 RETURNDATACOPY RETURNDATASIZE PUSH1 0x0 REVERT JUMPDEST POP POP POP POP PUSH1 0x40 MLOAD RETURNDATASIZE PUSH1 0x1F NOT PUSH1 0x1F DUP3 ADD AND DUP3 ADD DUP1 PUSH1 0x40 MSTORE POP DUP2 ADD SWAP1 PUSH2 0x188D SWAP2 SWAP1 PUSH2 0x4756 JUMP JUMPDEST PUSH2 0x1B9F CALLER PUSH1 0x0 CALLDATALOAD PUSH32 0xFFFFFFFF00000000000000000000000000000000000000000000000000000000 AND PUSH2 0x2545 JUMP JUMPDEST PUSH2 0x1555 DUP3 DUP3 PUSH2 0x30CF JUMP JUMPDEST PUSH1 0x60 DUP1 PUSH2 0x1BDA CALLER PUSH1 0x0 CALLDATALOAD PUSH32 0xFFFFFFFF00000000000000000000000000000000000000000000000000000000 AND PUSH2 0x2545 JUMP JUMPDEST PUSH1 0x1 PUSH1 0x1 PUSH1 0xA0 SHL SUB DUP5 AND PUSH1 0x0 SWAP1 DUP2 MSTORE PUSH1 0x5 PUSH1 0x20 MSTORE PUSH1 0x40 SWAP1 KECCAK256 SLOAD PUSH1 0xFF AND PUSH2 0x1C42 JUMPI PUSH1 0x40 MLOAD PUSH3 0x461BCD PUSH1 0xE5 SHL DUP2 MSTORE PUSH1 0x20 PUSH1 0x4 DUP3 ADD MSTORE PUSH1 0x14 PUSH1 0x24 DUP3 ADD MSTORE PUSH32 0x53545241544547595F4E4F545F414C4C4F574544000000000000000000000000 PUSH1 0x44 DUP3 ADD MSTORE PUSH1 0x64 ADD PUSH2 0x8B9 JUMP JUMPDEST PUSH2 0x1C55 PUSH1 0x1 PUSH1 0x1 PUSH1 0xA0 SHL SUB DUP6 AND DUP5 PUSH2 0x3154 JUMP JUMPDEST PUSH1 0x40 MLOAD SWAP2 SWAP4 POP SWAP2 POP PUSH1 0x1 PUSH1 0x1 PUSH1 0xA0 SHL SUB DUP6 AND SWAP1 PUSH32 0xB28D414FDC0DD1EBAE12BEFEBEFD04F6AE5F8DEC2A2FDBED9191BE3C4D13715A SWAP1 PUSH2 0x1C99 SWAP1 DUP6 SWAP1 DUP6 SWAP1 DUP9 SWAP1 PUSH2 0x4A81 JUMP JUMPDEST PUSH1 0x40 MLOAD DUP1 SWAP2 SUB SWAP1 LOG2 SWAP3 POP SWAP3 SWAP1 POP JUMP JUMPDEST PUSH1 0x0 SLOAD PUSH2 0x100 SWAP1 DIV PUSH1 0xFF AND ISZERO DUP1 DUP1 ISZERO PUSH2 0x1CC8 JUMPI POP PUSH1 0x0 SLOAD PUSH1 0x1 PUSH1 0xFF SWAP1 SWAP2 AND LT JUMPDEST DUP1 PUSH2 0x1CE2 JUMPI POP ADDRESS EXTCODESIZE ISZERO DUP1 ISZERO PUSH2 0x1CE2 JUMPI POP PUSH1 0x0 SLOAD PUSH1 0xFF AND PUSH1 0x1 EQ JUMPDEST PUSH2 0x1D54 JUMPI PUSH1 0x40 MLOAD PUSH3 0x461BCD PUSH1 0xE5 SHL DUP2 MSTORE PUSH1 0x20 PUSH1 0x4 DUP3 ADD MSTORE PUSH1 0x2E PUSH1 0x24 DUP3 ADD MSTORE PUSH32 0x496E697469616C697A61626C653A20636F6E747261637420697320616C726561 PUSH1 0x44 DUP3 ADD MSTORE PUSH32 0x647920696E697469616C697A6564000000000000000000000000000000000000 PUSH1 0x64 DUP3 ADD MSTORE PUSH1 0x84 ADD PUSH2 0x8B9 JUMP JUMPDEST PUSH1 0x0 DUP1 SLOAD PUSH32 0xFFFFFFFFFFFFFFFFFFFFFFFFFFFFFFFFFFFFFFFFFFFFFFFFFFFFFFFFFFFFFF00 AND PUSH1 0x1 OR SWAP1 SSTORE DUP1 ISZERO PUSH2 0x1DB2 JUMPI PUSH1 0x0 DUP1 SLOAD PUSH32 0xFFFFFFFFFFFFFFFFFFFFFFFFFFFFFFFFFFFFFFFFFFFFFFFFFFFFFFFFFFFF00FF AND PUSH2 0x100 OR SWAP1 SSTORE JUMPDEST PUSH2 0x1DBB DUP3 PUSH2 0x3294 JUMP JUMPDEST DUP1 ISZERO PUSH2 0x1555 JUMPI PUSH1 0x0 DUP1 SLOAD PUSH32 0xFFFFFFFFFFFFFFFFFFFFFFFFFFFFFFFFFFFFFFFFFFFFFFFFFFFFFFFFFFFF00FF AND SWAP1 SSTORE PUSH1 0x40 MLOAD PUSH1 0x1 DUP2 MSTORE PUSH32 0x7F26B83FF96E1F2B6A682F133852F6798A09C465DA95921460CEFB3847402498 SWAP1 PUSH1 0x20 ADD PUSH1 0x40 MLOAD DUP1 SWAP2 SUB SWAP1 LOG1 POP POP JUMP JUMPDEST PUSH1 0x60 PUSH2 0x1E51 CALLER PUSH1 0x0 CALLDATALOAD PUSH32 0xFFFFFFFF00000000000000000000000000000000000000000000000000000000 AND PUSH2 0x2545 JUMP JUMPDEST PUSH2 0x1E92 DUP6 DUP6 DUP6 PUSH1 0x40 MLOAD DUP1 PUSH1 0x40 ADD PUSH1 0x40 MSTORE DUP1 PUSH1 0x1F DUP2 MSTORE PUSH1 0x20 ADD PUSH32 0x534D4152545F5641554C545F4152424954524152595F43414C4C5F4641494C00 DUP2 MSTORE POP PUSH2 0x336D JUMP JUMPDEST SWAP1 POP DUP5 PUSH1 0x1 PUSH1 0x1 PUSH1 0xA0 SHL SUB AND PUSH32 0x76C91E1F3E02D952AB790867A8364513B69ADA16ED33A67DBCD80DE0E8CBFDE9 DUP6 DUP6 DUP5 DUP7 PUSH1 0x40 MLOAD PUSH2 0x1ED3 SWAP5 SWAP4 SWAP3 SWAP2 SWAP1 PUSH2 0x4B16 JUMP JUMPDEST PUSH1 0x40 MLOAD DUP1 SWAP2 SUB SWAP1 LOG2 SWAP5 SWAP4 POP POP POP POP JUMP JUMPDEST PUSH32 0xFFFFFFFF00000000000000000000000000000000000000000000000000000000 DUP2 AND PUSH1 0x0 SWAP1 DUP2 MSTORE PUSH32 0x86CF984B44BED1F7F8B143F6052803E8B74964B2EE297832A77790BE6D6308F1 PUSH1 0x20 MSTORE PUSH1 0x40 DUP2 KECCAK256 SLOAD PUSH1 0xFF AND DUP1 PUSH2 0x196F JUMPI POP POP PUSH1 0x1 PUSH1 0x1 PUSH1 0xA0 SHL SUB SWAP2 SWAP1 SWAP2 AND PUSH1 0x0 SWAP1 DUP2 MSTORE PUSH1 0x2 PUSH1 0x20 SWAP1 DUP2 MSTORE PUSH1 0x40 DUP1 DUP4 KECCAK256 PUSH32 0xFFFFFFFF00000000000000000000000000000000000000000000000000000000 SWAP1 SWAP5 AND DUP4 MSTORE SWAP3 SWAP1 MSTORE KECCAK256 SLOAD PUSH1 0xFF AND SWAP1 JUMP JUMPDEST PUSH1 0x60 DUP1 PUSH2 0x1FBD CALLER PUSH1 0x0 CALLDATALOAD PUSH32 0xFFFFFFFF00000000000000000000000000000000000000000000000000000000 AND PUSH2 0x2545 JUMP JUMPDEST PUSH1 0x1 PUSH1 0x1 PUSH1 0xA0 SHL SUB DUP8 AND PUSH1 0x0 SWAP1 DUP2 MSTORE PUSH1 0x5 PUSH1 0x20 MSTORE PUSH1 0x40 SWAP1 KECCAK256 SLOAD PUSH1 0xFF AND PUSH2 0x2025 JUMPI PUSH1 0x40 MLOAD PUSH3 0x461BCD PUSH1 0xE5 SHL DUP2 MSTORE PUSH1 0x20 PUSH1 0x4 DUP3 ADD MSTORE PUSH1 0x14 PUSH1 0x24 DUP3 ADD MSTORE PUSH32 0x53545241544547595F4E4F545F414C4C4F574544000000000000000000000000 PUSH1 0x44 DUP3 ADD MSTORE PUSH1 0x64 ADD PUSH2 0x8B9 JUMP JUMPDEST PUSH1 0x1 PUSH1 0x1 PUSH1 0xA0 SHL SUB DUP8 AND PUSH1 0x0 SWAP1 DUP2 MSTORE PUSH1 0x6 PUSH1 0x20 MSTORE PUSH1 0x40 SWAP1 KECCAK256 SLOAD PUSH2 0x208A JUMPI PUSH1 0x40 MLOAD PUSH3 0x461BCD PUSH1 0xE5 SHL DUP2 MSTORE PUSH1 0x20 PUSH1 0x4 DUP3 ADD MSTORE PUSH1 0x16 PUSH1 0x24 DUP3 ADD MSTORE PUSH32 0x455849545F4E4F5F494E5645535445445F56414C554500000000000000000000 PUSH1 0x44 DUP3 ADD MSTORE PUSH1 0x64 ADD PUSH2 0x8B9 JUMP JUMPDEST PUSH8 0xDE0B6B3A7640000 DUP5 GT ISZERO PUSH2 0x20E2 JUMPI PUSH1 0x40 MLOAD PUSH3 0x461BCD PUSH1 0xE5 SHL DUP2 MSTORE PUSH1 0x20 PUSH1 0x4 DUP3 ADD MSTORE PUSH1 0x17 PUSH1 0x24 DUP3 ADD MSTORE PUSH32 0x455849545F534C4950504147455F41424F56455F4F4E45000000000000000000 PUSH1 0x44 DUP3 ADD MSTORE PUSH1 0x64 ADD PUSH2 0x8B9 JUMP JUMPDEST DUP5 MLOAD DUP7 MLOAD EQ PUSH2 0x2133 JUMPI PUSH1 0x40 MLOAD PUSH3 0x461BCD PUSH1 0xE5 SHL DUP2 MSTORE PUSH1 0x20 PUSH1 0x4 DUP3 ADD MSTORE PUSH1 0x19 PUSH1 0x24 DUP3 ADD MSTORE PUSH32 0x455849545F494E5055545F494E56414C49445F4C454E47544800000000000000 PUSH1 0x44 DUP3 ADD MSTORE PUSH1 0x64 ADD PUSH2 0x8B9 JUMP JUMPDEST PUSH1 0x0 PUSH2 0x214B PUSH1 0x1 PUSH1 0x1 PUSH1 0xA0 SHL SUB DUP10 AND DUP9 DUP9 DUP9 DUP9 PUSH2 0x34B5 JUMP JUMPDEST DUP2 MLOAD DUP4 MLOAD SWAP4 SWAP7 POP SWAP2 SWAP5 POP SWAP3 POP EQ PUSH2 0x21A4 JUMPI PUSH1 0x40 MLOAD PUSH3 0x461BCD PUSH1 0xE5 SHL DUP2 MSTORE PUSH1 0x20 PUSH1 0x4 DUP3 ADD MSTORE PUSH1 0x1A PUSH1 0x24 DUP3 ADD MSTORE PUSH32 0x455849545F4F55545055545F494E56414C49445F4C454E475448000000000000 PUSH1 0x44 DUP3 ADD MSTORE PUSH1 0x64 ADD PUSH2 0x8B9 JUMP JUMPDEST PUSH1 0x0 DUP3 MLOAD PUSH8 0xFFFFFFFFFFFFFFFF DUP2 GT ISZERO PUSH2 0x21CE JUMPI PUSH4 0x4E487B71 PUSH1 0xE0 SHL PUSH1 0x0 MSTORE PUSH1 0x41 PUSH1 0x4 MSTORE PUSH1 0x24 PUSH1 0x0 REVERT JUMPDEST PUSH1 0x40 MLOAD SWAP1 DUP1 DUP3 MSTORE DUP1 PUSH1 0x20 MUL PUSH1 0x20 ADD DUP3 ADD PUSH1 0x40 MSTORE DUP1 ISZERO PUSH2 0x21F7 JUMPI DUP2 PUSH1 0x20 ADD PUSH1 0x20 DUP3 MUL DUP1 CALLDATASIZE DUP4 CALLDATACOPY ADD SWAP1 POP JUMPDEST POP SWAP1 POP PUSH1 0x0 DUP3 PUSH2 0x2206 DUP12 PUSH2 0x1ADE JUMP JUMPDEST PUSH2 0x2210 SWAP2 SWAP1 PUSH2 0x4C91 JUMP JUMPDEST PUSH1 0x1 PUSH1 0x1 PUSH1 0xA0 SHL SUB DUP12 AND PUSH1 0x0 SWAP1 DUP2 MSTORE PUSH1 0x6 PUSH1 0x20 MSTORE PUSH1 0x40 SWAP1 KECCAK256 SLOAD SWAP1 SWAP2 POP DUP2 GT PUSH2 0x2294 JUMPI PUSH1 0x1 PUSH1 0x1 PUSH1 0xA0 SHL SUB DUP11 AND PUSH1 0x0 SWAP1 DUP2 MSTORE PUSH1 0x6 PUSH1 0x20 MSTORE PUSH1 0x40 SWAP1 KECCAK256 SLOAD PUSH2 0x2261 SWAP1 DUP3 SWAP1 PUSH2 0x225B SWAP1 DUP7 PUSH2 0x26ED JUMP JUMPDEST SWAP1 PUSH2 0x35D9 JUMP JUMPDEST PUSH1 0x1 PUSH1 0x1 PUSH1 0xA0 SHL SUB DUP12 AND PUSH1 0x0 SWAP1 DUP2 MSTORE PUSH1 0x6 PUSH1 0x20 MSTORE PUSH1 0x40 DUP2 KECCAK256 DUP1 SLOAD SWAP1 SWAP2 SWAP1 PUSH2 0x2289 SWAP1 DUP5 SWAP1 PUSH2 0x4D06 JUMP JUMPDEST SWAP1 SWAP2 SSTORE POP PUSH2 0x2426 SWAP1 POP JUMP JUMPDEST PUSH1 0x1 PUSH1 0x1 PUSH1 0xA0 SHL SUB DUP11 AND PUSH1 0x0 SWAP1 DUP2 MSTORE PUSH1 0x6 PUSH1 0x20 MSTORE PUSH1 0x40 DUP2 KECCAK256 SLOAD DUP3 SUB SWAP1 DUP5 DUP3 LT ISZERO SWAP1 DUP2 PUSH2 0x22C2 JUMPI DUP3 DUP7 SUB PUSH2 0x22C5 JUMP JUMPDEST PUSH1 0x0 JUMPDEST PUSH1 0x1 PUSH1 0x1 PUSH1 0xA0 SHL SUB DUP15 AND PUSH1 0x0 SWAP1 DUP2 MSTORE PUSH1 0x6 PUSH1 0x20 MSTORE PUSH1 0x40 SWAP1 KECCAK256 SLOAD SWAP1 SWAP2 POP PUSH2 0x22EC SWAP1 DUP3 SWAP1 PUSH2 0x4D06 JUMP JUMPDEST PUSH1 0x1 PUSH1 0x1 PUSH1 0xA0 SHL SUB DUP15 AND PUSH1 0x0 SWAP1 DUP2 MSTORE PUSH1 0x6 PUSH1 0x20 MSTORE PUSH1 0x40 DUP2 KECCAK256 SWAP2 SWAP1 SWAP2 SSTORE JUMPDEST DUP9 MLOAD DUP2 LT ISZERO PUSH2 0x2421 JUMPI PUSH1 0x0 DUP10 DUP3 DUP2 MLOAD DUP2 LT PUSH2 0x2334 JUMPI PUSH4 0x4E487B71 PUSH1 0xE0 SHL PUSH1 0x0 MSTORE PUSH1 0x32 PUSH1 0x4 MSTORE PUSH1 0x24 PUSH1 0x0 REVERT JUMPDEST PUSH1 0x20 MUL PUSH1 0x20 ADD ADD MLOAD SWAP1 POP PUSH1 0x0 DUP10 DUP4 DUP2 MLOAD DUP2 LT PUSH2 0x2360 JUMPI PUSH4 0x4E487B71 PUSH1 0xE0 SHL PUSH1 0x0 MSTORE PUSH1 0x32 PUSH1 0x4 MSTORE PUSH1 0x24 PUSH1 0x0 REVERT JUMPDEST PUSH1 0x20 MUL PUSH1 0x20 ADD ADD MLOAD SWAP1 POP PUSH1 0x0 DUP6 PUSH2 0x238B JUMPI DUP10 PUSH2 0x237C DUP9 DUP5 PUSH2 0x4CC9 JUMP JUMPDEST PUSH2 0x2386 SWAP2 SWAP1 PUSH2 0x4CA9 JUMP JUMPDEST PUSH2 0x238D JUMP JUMPDEST DUP2 JUMPDEST SWAP1 POP PUSH1 0x0 PUSH2 0x239D DUP5 DUP4 PUSH1 0xE PUSH2 0x2931 JUMP JUMPDEST SWAP1 POP PUSH2 0x23A9 DUP2 DUP5 PUSH2 0x4D06 JUMP JUMPDEST DUP13 DUP7 DUP2 MLOAD DUP2 LT PUSH2 0x23C9 JUMPI PUSH4 0x4E487B71 PUSH1 0xE0 SHL PUSH1 0x0 MSTORE PUSH1 0x32 PUSH1 0x4 MSTORE PUSH1 0x24 PUSH1 0x0 REVERT JUMPDEST PUSH1 0x20 MUL PUSH1 0x20 ADD ADD DUP2 DUP2 MSTORE POP POP DUP1 DUP11 DUP7 DUP2 MLOAD DUP2 LT PUSH2 0x23F6 JUMPI PUSH4 0x4E487B71 PUSH1 0xE0 SHL PUSH1 0x0 MSTORE PUSH1 0x32 PUSH1 0x4 MSTORE PUSH1 0x24 PUSH1 0x0 REVERT JUMPDEST PUSH1 0x20 MUL PUSH1 0x20 ADD ADD DUP2 DUP2 MSTORE POP POP POP POP POP POP PUSH2 0x241A PUSH1 0x1 DUP3 PUSH2 0x2A9B SWAP1 SWAP2 SWAP1 PUSH4 0xFFFFFFFF AND JUMP JUMPDEST SWAP1 POP PUSH2 0x2309 JUMP JUMPDEST POP POP POP POP JUMPDEST DUP10 PUSH1 0x1 PUSH1 0x1 PUSH1 0xA0 SHL SUB AND PUSH32 0x93D8F30EE317E072A8EF28FA15D7B971A88F92A36F75DBF70B6465B6773A3A41 DUP11 DUP11 DUP9 DUP9 DUP9 DUP9 DUP15 DUP15 PUSH1 0x40 MLOAD PUSH2 0x246D SWAP9 SWAP8 SWAP7 SWAP6 SWAP5 SWAP4 SWAP3 SWAP2 SWAP1 PUSH2 0x4982 JUMP JUMPDEST PUSH1 0x40 MLOAD DUP1 SWAP2 SUB SWAP1 LOG2 POP POP POP SWAP6 POP SWAP6 SWAP4 POP POP POP POP JUMP JUMPDEST PUSH2 0x24B0 CALLER PUSH1 0x0 CALLDATALOAD PUSH32 0xFFFFFFFF00000000000000000000000000000000000000000000000000000000 AND PUSH2 0x2545 JUMP JUMPDEST PUSH2 0x24BE PUSH1 0x8 DUP6 DUP6 DUP6 DUP6 PUSH2 0x2D06 JUMP JUMPDEST PUSH1 0x40 DUP1 MLOAD DUP6 DUP2 MSTORE PUSH1 0x20 DUP2 ADD DUP6 SWAP1 MSTORE PUSH1 0x1 PUSH1 0x1 PUSH1 0xA0 SHL SUB DUP5 AND SWAP2 DUP2 ADD SWAP2 SWAP1 SWAP2 MSTORE PUSH1 0x60 DUP2 ADD DUP3 SWAP1 MSTORE PUSH32 0xE5978C2A23CCC9AF802B0A59F3E9D95EC28487EEA5C5FA85557A26854E263F67 SWAP1 PUSH1 0x80 ADD PUSH2 0x161F JUMP JUMPDEST PUSH2 0x253C CALLER PUSH1 0x0 CALLDATALOAD PUSH32 0xFFFFFFFF00000000000000000000000000000000000000000000000000000000 AND PUSH2 0x2545 JUMP JUMPDEST PUSH2 0x12F8 DUP2 PUSH2 0x36DA JUMP JUMPDEST PUSH2 0x254F DUP3 DUP3 PUSH2 0x1EE3 JUMP JUMPDEST PUSH2 0x1555 JUMPI PUSH1 0x40 MLOAD PUSH3 0x461BCD PUSH1 0xE5 SHL DUP2 MSTORE PUSH1 0x20 PUSH1 0x4 DUP3 ADD MSTORE PUSH1 0x17 PUSH1 0x24 DUP3 ADD MSTORE PUSH32 0x415554485F53454E4445525F4E4F545F414C4C4F574544000000000000000000 PUSH1 0x44 DUP3 ADD MSTORE PUSH1 0x64 ADD PUSH2 0x8B9 JUMP JUMPDEST PUSH1 0x60 DUP1 PUSH1 0x0 DUP1 PUSH4 0xCFEDE734 PUSH1 0xE0 SHL DUP9 DUP9 DUP9 DUP9 PUSH1 0x40 MLOAD PUSH1 0x24 ADD PUSH2 0x25C0 SWAP5 SWAP4 SWAP3 SWAP2 SWAP1 PUSH2 0x4AC4 JUMP JUMPDEST PUSH1 0x40 MLOAD PUSH1 0x20 DUP2 DUP4 SUB SUB DUP2 MSTORE SWAP1 PUSH1 0x40 MSTORE SWAP1 PUSH28 0xFFFFFFFFFFFFFFFFFFFFFFFFFFFFFFFFFFFFFFFFFFFFFFFFFFFFFFFF NOT AND PUSH1 0x20 DUP3 ADD DUP1 MLOAD PUSH28 0xFFFFFFFFFFFFFFFFFFFFFFFFFFFFFFFFFFFFFFFFFFFFFFFFFFFFFFFF DUP4 DUP2 DUP4 AND OR DUP4 MSTORE POP POP POP POP SWAP1 POP PUSH1 0x0 DUP1 DUP11 PUSH1 0x1 PUSH1 0x1 PUSH1 0xA0 SHL SUB AND DUP4 PUSH1 0x40 MLOAD PUSH2 0x263A SWAP2 SWAP1 PUSH2 0x4938 JUMP JUMPDEST PUSH1 0x0 PUSH1 0x40 MLOAD DUP1 DUP4 SUB DUP2 DUP6 GAS DELEGATECALL SWAP2 POP POP RETURNDATASIZE DUP1 PUSH1 0x0 DUP2 EQ PUSH2 0x2675 JUMPI PUSH1 0x40 MLOAD SWAP2 POP PUSH1 0x1F NOT PUSH1 0x3F RETURNDATASIZE ADD AND DUP3 ADD PUSH1 0x40 MSTORE RETURNDATASIZE DUP3 MSTORE RETURNDATASIZE PUSH1 0x0 PUSH1 0x20 DUP5 ADD RETURNDATACOPY PUSH2 0x267A JUMP JUMPDEST PUSH1 0x60 SWAP2 POP JUMPDEST POP SWAP2 POP SWAP2 POP PUSH2 0x26BF DUP3 DUP3 PUSH1 0x40 MLOAD DUP1 PUSH1 0x40 ADD PUSH1 0x40 MSTORE DUP1 PUSH1 0x12 DUP2 MSTORE PUSH1 0x20 ADD PUSH32 0x4A4F494E5F43414C4C5F52455645525445440000000000000000000000000000 DUP2 MSTORE POP PUSH2 0x3745 JUMP JUMPDEST POP DUP1 DUP1 PUSH1 0x20 ADD SWAP1 MLOAD DUP2 ADD SWAP1 PUSH2 0x26D4 SWAP2 SWAP1 PUSH2 0x468E JUMP JUMPDEST SWAP6 POP SWAP6 POP SWAP6 POP POP POP POP SWAP6 POP SWAP6 POP SWAP6 SWAP3 POP POP POP JUMP JUMPDEST SWAP1 SUB SWAP1 JUMP JUMPDEST PUSH1 0x0 DUP3 DUP3 MUL DUP4 ISZERO DUP1 PUSH2 0x271B JUMPI POP DUP3 DUP5 DUP3 DUP2 PUSH2 0x2718 JUMPI PUSH4 0x4E487B71 PUSH1 0xE0 SHL PUSH1 0x0 MSTORE PUSH1 0x12 PUSH1 0x4 MSTORE PUSH1 0x24 PUSH1 0x0 REVERT JUMPDEST DIV EQ JUMPDEST PUSH2 0x2767 JUMPI PUSH1 0x40 MLOAD PUSH3 0x461BCD PUSH1 0xE5 SHL DUP2 MSTORE PUSH1 0x20 PUSH1 0x4 DUP3 ADD MSTORE PUSH1 0xC PUSH1 0x24 DUP3 ADD MSTORE PUSH32 0x4D554C5F4F564552464C4F570000000000000000000000000000000000000000 PUSH1 0x44 DUP3 ADD MSTORE PUSH1 0x64 ADD PUSH2 0x8B9 JUMP JUMPDEST DUP1 ISZERO PUSH2 0x27A2 JUMPI PUSH8 0xDE0B6B3A7640000 PUSH32 0xFFFFFFFFFFFFFFFFFFFFFFFFFFFFFFFFFFFFFFFFFFFFFFFFFFFFFFFFFFFFFFFF DUP3 ADD DIV PUSH1 0x1 ADD PUSH2 0x27A5 JUMP JUMPDEST PUSH1 0x0 JUMPDEST SWAP5 SWAP4 POP POP POP POP JUMP JUMPDEST PUSH1 0x0 DUP1 PUSH32 0xA231A78000000000000000000000000000000000000000000000000000000000 PUSH1 0xFF DUP10 AND PUSH1 0x3 DUP2 GT ISZERO PUSH2 0x27F4 JUMPI PUSH4 0x4E487B71 PUSH1 0xE0 SHL PUSH1 0x0 MSTORE PUSH1 0x21 PUSH1 0x4 MSTORE PUSH1 0x24 PUSH1 0x0 REVERT JUMPDEST DUP9 DUP9 DUP9 DUP9 DUP9 PUSH1 0x40 MLOAD PUSH1 0x24 ADD PUSH2 0x280E SWAP7 SWAP6 SWAP5 SWAP4 SWAP3 SWAP2 SWAP1 PUSH2 0x4B55 JUMP JUMPDEST PUSH1 0x40 MLOAD PUSH1 0x20 DUP2 DUP4 SUB SUB DUP2 MSTORE SWAP1 PUSH1 0x40 MSTORE SWAP1 PUSH28 0xFFFFFFFFFFFFFFFFFFFFFFFFFFFFFFFFFFFFFFFFFFFFFFFFFFFFFFFF NOT AND PUSH1 0x20 DUP3 ADD DUP1 MLOAD PUSH28 0xFFFFFFFFFFFFFFFFFFFFFFFFFFFFFFFFFFFFFFFFFFFFFFFFFFFFFFFF DUP4 DUP2 DUP4 AND OR DUP4 MSTORE POP POP POP POP SWAP1 POP PUSH1 0x0 DUP1 DUP11 PUSH1 0x1 PUSH1 0x1 PUSH1 0xA0 SHL SUB AND DUP4 PUSH1 0x40 MLOAD PUSH2 0x2888 SWAP2 SWAP1 PUSH2 0x4938 JUMP JUMPDEST PUSH1 0x0 PUSH1 0x40 MLOAD DUP1 DUP4 SUB DUP2 DUP6 GAS DELEGATECALL SWAP2 POP POP RETURNDATASIZE DUP1 PUSH1 0x0 DUP2 EQ PUSH2 0x28C3 JUMPI PUSH1 0x40 MLOAD SWAP2 POP PUSH1 0x1F NOT PUSH1 0x3F RETURNDATASIZE ADD AND DUP3 ADD PUSH1 0x40 MSTORE RETURNDATASIZE DUP3 MSTORE RETURNDATASIZE PUSH1 0x0 PUSH1 0x20 DUP5 ADD RETURNDATACOPY PUSH2 0x28C8 JUMP JUMPDEST PUSH1 0x60 SWAP2 POP JUMPDEST POP SWAP2 POP SWAP2 POP PUSH2 0x290D DUP3 DUP3 PUSH1 0x40 MLOAD DUP1 PUSH1 0x40 ADD PUSH1 0x40 MSTORE DUP1 PUSH1 0x12 DUP2 MSTORE PUSH1 0x20 ADD PUSH32 0x535741505F43414C4C5F52455645525445440000000000000000000000000000 DUP2 MSTORE POP PUSH2 0x3745 JUMP JUMPDEST POP DUP1 DUP1 PUSH1 0x20 ADD SWAP1 MLOAD DUP2 ADD SWAP1 PUSH2 0x2922 SWAP2 SWAP1 PUSH2 0x4756 JUMP JUMPDEST SWAP12 SWAP11 POP POP POP POP POP POP POP POP POP POP POP JUMP JUMPDEST DUP1 SLOAD PUSH1 0x0 SWAP1 DUP2 SWAP1 PUSH2 0x2943 SWAP1 DUP6 SWAP1 PUSH2 0x377E JUMP JUMPDEST PUSH1 0x2 DUP5 ADD SLOAD SWAP1 SWAP2 POP PUSH1 0x1 PUSH1 0x1 PUSH1 0xA0 SHL SUB AND ISZERO DUP1 PUSH2 0x2962 JUMPI POP PUSH1 0x1 DUP4 ADD SLOAD ISZERO JUMPDEST DUP1 PUSH2 0x296F JUMPI POP PUSH1 0x3 DUP4 ADD SLOAD ISZERO JUMPDEST ISZERO PUSH2 0x2993 JUMPI PUSH1 0x7 SLOAD PUSH2 0x298C SWAP1 DUP7 SWAP1 PUSH1 0x1 PUSH1 0x1 PUSH1 0xA0 SHL SUB AND DUP4 PUSH2 0x2F28 JUMP JUMPDEST SWAP1 POP PUSH2 0x196F JUMP JUMPDEST DUP3 PUSH1 0x5 ADD SLOAD TIMESTAMP LT PUSH2 0x29BA JUMPI PUSH1 0x0 PUSH1 0x4 DUP5 ADD SSTORE PUSH1 0x3 DUP4 ADD SLOAD PUSH2 0x29B4 SWAP1 TIMESTAMP PUSH2 0x4C91 JUMP JUMPDEST PUSH1 0x5 DUP5 ADD SSTORE JUMPDEST PUSH1 0x2 DUP4 ADD SLOAD PUSH1 0x0 SWAP1 PUSH2 0x29D6 SWAP1 DUP8 SWAP1 PUSH1 0x1 PUSH1 0x1 PUSH1 0xA0 SHL SUB AND PUSH2 0x18CA JUMP JUMPDEST SWAP1 POP PUSH1 0x0 PUSH2 0x29E4 DUP4 DUP4 PUSH2 0x377E JUMP JUMPDEST SWAP1 POP DUP5 PUSH1 0x1 ADD SLOAD DUP2 DUP7 PUSH1 0x4 ADD SLOAD PUSH2 0x29FB SWAP2 SWAP1 PUSH2 0x4C91 JUMP JUMPDEST GT PUSH2 0x2A22 JUMPI DUP3 SWAP4 POP DUP1 DUP6 PUSH1 0x4 ADD PUSH1 0x0 DUP3 DUP3 SLOAD PUSH2 0x2A17 SWAP2 SWAP1 PUSH2 0x4C91 JUMP JUMPDEST SWAP1 SWAP2 SSTORE POP PUSH2 0x2A79 SWAP1 POP JUMP JUMPDEST DUP5 PUSH1 0x1 ADD SLOAD DUP6 PUSH1 0x4 ADD SLOAD LT ISZERO PUSH2 0x2A74 JUMPI DUP1 DUP4 PUSH2 0x2A4F DUP8 PUSH1 0x4 ADD SLOAD DUP9 PUSH1 0x1 ADD SLOAD PUSH2 0x26E8 SWAP1 SWAP2 SWAP1 PUSH4 0xFFFFFFFF AND JUMP JUMPDEST PUSH2 0x2A59 SWAP2 SWAP1 PUSH2 0x4CC9 JUMP JUMPDEST PUSH2 0x2A63 SWAP2 SWAP1 PUSH2 0x4CA9 JUMP JUMPDEST PUSH1 0x1 DUP7 ADD SLOAD PUSH1 0x4 DUP8 ADD SSTORE SWAP4 POP PUSH2 0x2A79 JUMP JUMPDEST PUSH1 0x0 SWAP4 POP JUMPDEST PUSH1 0x7 SLOAD PUSH2 0x2A91 SWAP1 DUP9 SWAP1 PUSH1 0x1 PUSH1 0x1 PUSH1 0xA0 SHL SUB AND DUP7 PUSH2 0x2F28 JUMP JUMPDEST POP POP POP SWAP4 SWAP3 POP POP POP JUMP JUMPDEST ADD SWAP1 JUMP JUMPDEST PUSH2 0x2AA8 DUP2 PUSH2 0x380A JUMP JUMPDEST PUSH1 0x3 DUP1 SLOAD PUSH32 0xFFFFFFFFFFFFFFFFFFFFFFFF0000000000000000000000000000000000000000 AND PUSH1 0x1 PUSH1 0x1 PUSH1 0xA0 SHL SUB DUP4 AND SWAP1 DUP2 OR SWAP1 SWAP2 SSTORE PUSH1 0x40 MLOAD PUSH32 0x6536690106168BDF4BA72C128A053D817999B1DB90CAE23F139B293BF862CB75 SWAP1 PUSH1 0x0 SWAP1 LOG2 POP JUMP JUMPDEST PUSH1 0x40 MLOAD PUSH1 0x1 PUSH1 0x1 PUSH1 0xA0 SHL SUB DUP1 DUP6 AND PUSH1 0x24 DUP4 ADD MSTORE DUP4 AND PUSH1 0x44 DUP3 ADD MSTORE PUSH1 0x64 DUP2 ADD DUP3 SWAP1 MSTORE PUSH2 0x12BB SWAP1 DUP6 SWAP1 PUSH32 0x23B872DD00000000000000000000000000000000000000000000000000000000 SWAP1 PUSH1 0x84 ADD JUMPDEST PUSH1 0x40 DUP1 MLOAD PUSH32 0xFFFFFFFFFFFFFFFFFFFFFFFFFFFFFFFFFFFFFFFFFFFFFFFFFFFFFFFFFFFFFFE0 DUP2 DUP5 SUB ADD DUP2 MSTORE SWAP2 SWAP1 MSTORE PUSH1 0x20 DUP2 ADD DUP1 MLOAD PUSH28 0xFFFFFFFFFFFFFFFFFFFFFFFFFFFFFFFFFFFFFFFFFFFFFFFFFFFFFFFF AND PUSH32 0xFFFFFFFF00000000000000000000000000000000000000000000000000000000 SWAP1 SWAP4 AND SWAP3 SWAP1 SWAP3 OR SWAP1 SWAP2 MSTORE PUSH2 0x385F JUMP JUMPDEST PUSH1 0x1 PUSH1 0x1 PUSH1 0xA0 SHL SUB DUP3 AND PUSH1 0x0 DUP2 DUP2 MSTORE PUSH1 0x2 PUSH1 0x20 SWAP1 DUP2 MSTORE PUSH1 0x40 DUP1 DUP4 KECCAK256 PUSH32 0xFFFFFFFF00000000000000000000000000000000000000000000000000000000 DUP7 AND DUP1 DUP6 MSTORE SWAP1 DUP4 MSTORE SWAP3 DUP2 SWAP1 KECCAK256 DUP1 SLOAD PUSH32 0xFFFFFFFFFFFFFFFFFFFFFFFFFFFFFFFFFFFFFFFFFFFFFFFFFFFFFFFFFFFFFF00 AND SWAP1 SSTORE MLOAD SWAP2 DUP3 MSTORE PUSH32 0xA2E97B9EEA8D1168700E334304EDD057DFF89C0384CA6F920C73CC3E48C8E523 SWAP2 ADD JUMPDEST PUSH1 0x40 MLOAD DUP1 SWAP2 SUB SWAP1 LOG2 POP POP JUMP JUMPDEST PUSH1 0x1 PUSH1 0x1 PUSH1 0xA0 SHL SUB DUP4 DUP2 AND PUSH1 0x0 DUP2 DUP2 MSTORE PUSH1 0x1 PUSH1 0x20 SWAP1 DUP2 MSTORE PUSH1 0x40 DUP1 DUP4 KECCAK256 DUP8 DUP7 AND DUP1 DUP6 MSTORE SWAP1 DUP4 MSTORE SWAP3 DUP2 SWAP1 KECCAK256 DUP1 SLOAD PUSH32 0xFFFFFFFFFFFFFFFFFFFFFFFF0000000000000000000000000000000000000000 AND SWAP6 DUP8 AND SWAP6 DUP7 OR SWAP1 SSTORE MLOAD SWAP4 DUP5 MSTORE SWAP1 SWAP3 PUSH32 0x519169F85E741141647FDDD20CE1D573843E55C1CA650E85A3F82F3410EE5D04 SWAP2 ADD PUSH1 0x40 MLOAD DUP1 SWAP2 SUB SWAP1 LOG3 POP POP POP JUMP JUMPDEST PUSH8 0xDE0B6B3A7640000 DUP5 GT ISZERO PUSH2 0x2D5E JUMPI PUSH1 0x40 MLOAD PUSH3 0x461BCD PUSH1 0xE5 SHL DUP2 MSTORE PUSH1 0x20 PUSH1 0x4 DUP3 ADD MSTORE PUSH1 0x11 PUSH1 0x24 DUP3 ADD MSTORE PUSH32 0x4645455F5043545F41424F56455F4F4E45000000000000000000000000000000 PUSH1 0x44 DUP3 ADD MSTORE PUSH1 0x64 ADD PUSH2 0x8B9 JUMP JUMPDEST PUSH1 0x0 PUSH1 0x1 PUSH1 0x1 PUSH1 0xA0 SHL SUB DUP4 AND ISZERO DUP1 ISZERO PUSH2 0x2D75 JUMPI POP DUP4 ISZERO JUMPDEST DUP1 ISZERO PUSH2 0x2D7F JUMPI POP DUP2 ISZERO JUMPDEST SWAP1 POP DUP5 ISZERO ISZERO DUP1 PUSH2 0x2D8C JUMPI POP DUP1 JUMPDEST PUSH2 0x2DD8 JUMPI PUSH1 0x40 MLOAD PUSH3 0x461BCD PUSH1 0xE5 SHL DUP2 MSTORE PUSH1 0x20 PUSH1 0x4 DUP3 ADD MSTORE PUSH1 0x19 PUSH1 0x24 DUP3 ADD MSTORE PUSH32 0x494E56414C49445F4341505F574954485F4645455F5A45524F00000000000000 PUSH1 0x44 DUP3 ADD MSTORE PUSH1 0x64 ADD PUSH2 0x8B9 JUMP JUMPDEST PUSH1 0x0 PUSH1 0x1 PUSH1 0x1 PUSH1 0xA0 SHL SUB DUP5 AND ISZERO DUP1 ISZERO SWAP1 PUSH2 0x2DF1 JUMPI POP DUP5 ISZERO ISZERO JUMPDEST DUP1 ISZERO PUSH2 0x2DFC JUMPI POP DUP3 ISZERO ISZERO JUMPDEST SWAP1 POP DUP2 DUP1 PUSH2 0x2E07 JUMPI POP DUP1 JUMPDEST PUSH2 0x2E53 JUMPI PUSH1 0x40 MLOAD PUSH3 0x461BCD PUSH1 0xE5 SHL DUP2 MSTORE PUSH1 0x20 PUSH1 0x4 DUP3 ADD MSTORE PUSH1 0x17 PUSH1 0x24 DUP3 ADD MSTORE PUSH32 0x494E434F4E53495354454E545F4341505F56414C554553000000000000000000 PUSH1 0x44 DUP3 ADD MSTORE PUSH1 0x64 ADD PUSH2 0x8B9 JUMP JUMPDEST DUP6 DUP8 SSTORE PUSH1 0x1 DUP8 ADD DUP6 SWAP1 SSTORE PUSH1 0x3 DUP8 ADD DUP4 SWAP1 SSTORE DUP2 ISZERO PUSH2 0x2E7D JUMPI PUSH1 0x0 PUSH1 0x4 DUP9 ADD DUP2 SWAP1 SSTORE PUSH1 0x5 DUP9 ADD SSTORE PUSH2 0x2EE5 JUMP JUMPDEST PUSH1 0x5 DUP8 ADD SLOAD PUSH2 0x2E9A JUMPI PUSH2 0x2E90 DUP4 TIMESTAMP PUSH2 0x4C91 JUMP JUMPDEST PUSH1 0x5 DUP9 ADD SSTORE PUSH2 0x2EE5 JUMP JUMPDEST PUSH1 0x2 DUP8 ADD SLOAD PUSH1 0x1 PUSH1 0x1 PUSH1 0xA0 SHL SUB DUP6 DUP2 AND SWAP2 AND EQ PUSH2 0x2EE5 JUMPI PUSH1 0x2 DUP8 ADD SLOAD PUSH1 0x0 SWAP1 PUSH2 0x2ECC SWAP1 PUSH1 0x1 PUSH1 0x1 PUSH1 0xA0 SHL SUB AND DUP7 PUSH2 0x18CA JUMP JUMPDEST PUSH1 0x4 DUP10 ADD SLOAD SWAP1 SWAP2 POP PUSH2 0x2EDE SWAP1 DUP3 PUSH2 0x377E JUMP JUMPDEST PUSH1 0x4 DUP10 ADD SSTORE POP JUMPDEST POP POP POP PUSH1 0x2 SWAP4 SWAP1 SWAP4 ADD DUP1 SLOAD PUSH32 0xFFFFFFFFFFFFFFFFFFFFFFFF0000000000000000000000000000000000000000 AND PUSH1 0x1 PUSH1 0x1 PUSH1 0xA0 SHL SUB SWAP1 SWAP5 AND SWAP4 SWAP1 SWAP4 OR SWAP1 SWAP3 SSTORE POP POP JUMP JUMPDEST DUP1 PUSH2 0x2F32 JUMPI PUSH2 0x1592 JUMP JUMPDEST PUSH1 0x1 PUSH1 0x1 PUSH1 0xA0 SHL SUB DUP4 AND PUSH20 0xEEEEEEEEEEEEEEEEEEEEEEEEEEEEEEEEEEEEEEEE EQ ISZERO PUSH2 0x2F66 JUMPI PUSH2 0x2F61 DUP3 DUP3 PUSH2 0x3944 JUMP JUMPDEST PUSH2 0x1592 JUMP JUMPDEST PUSH2 0x1592 PUSH1 0x1 PUSH1 0x1 PUSH1 0xA0 SHL SUB DUP5 AND DUP4 DUP4 PUSH2 0x3A5D JUMP JUMPDEST PUSH1 0x1 PUSH1 0x1 PUSH1 0xA0 SHL SUB DUP3 AND PUSH1 0x0 DUP2 DUP2 MSTORE PUSH1 0x2 PUSH1 0x20 SWAP1 DUP2 MSTORE PUSH1 0x40 DUP1 DUP4 KECCAK256 PUSH32 0xFFFFFFFF00000000000000000000000000000000000000000000000000000000 DUP7 AND DUP1 DUP6 MSTORE SWAP1 DUP4 MSTORE SWAP3 DUP2 SWAP1 KECCAK256 DUP1 SLOAD PUSH32 0xFFFFFFFFFFFFFFFFFFFFFFFFFFFFFFFFFFFFFFFFFFFFFFFFFFFFFFFFFFFFFF00 AND PUSH1 0x1 OR SWAP1 SSTORE MLOAD SWAP2 DUP3 MSTORE PUSH32 0x7F06C1C34AD47198873DA9DCDE2E40904035D41B23DA3A9132DF674A75022DF7 SWAP2 ADD PUSH2 0x2C6F JUMP JUMPDEST PUSH1 0x1 PUSH1 0x1 PUSH1 0xA0 SHL SUB DUP2 AND PUSH2 0x306D JUMPI PUSH1 0x40 MLOAD PUSH3 0x461BCD PUSH1 0xE5 SHL DUP2 MSTORE PUSH1 0x20 PUSH1 0x4 DUP3 ADD MSTORE PUSH1 0x12 PUSH1 0x24 DUP3 ADD MSTORE PUSH32 0x4645455F434F4C4C4543544F525F5A45524F0000000000000000000000000000 PUSH1 0x44 DUP3 ADD MSTORE PUSH1 0x64 ADD PUSH2 0x8B9 JUMP JUMPDEST PUSH1 0x7 DUP1 SLOAD PUSH32 0xFFFFFFFFFFFFFFFFFFFFFFFF0000000000000000000000000000000000000000 AND PUSH1 0x1 PUSH1 0x1 PUSH1 0xA0 SHL SUB DUP4 AND SWAP1 DUP2 OR SWAP1 SWAP2 SSTORE PUSH1 0x40 MLOAD PUSH32 0x12E1D17016B94668449F97876F4A8D5CC2C19F314DB337418894734037CC19D4 SWAP1 PUSH1 0x0 SWAP1 LOG2 POP JUMP JUMPDEST DUP1 ISZERO PUSH2 0x30DE JUMPI PUSH2 0x30DE DUP3 PUSH2 0x380A JUMP JUMPDEST PUSH1 0x1 PUSH1 0x1 PUSH1 0xA0 SHL SUB DUP3 AND PUSH1 0x0 DUP2 DUP2 MSTORE PUSH1 0x5 PUSH1 0x20 SWAP1 DUP2 MSTORE PUSH1 0x40 SWAP2 DUP3 SWAP1 KECCAK256 DUP1 SLOAD PUSH32 0xFFFFFFFFFFFFFFFFFFFFFFFFFFFFFFFFFFFFFFFFFFFFFFFFFFFFFFFFFFFFFF00 AND DUP6 ISZERO ISZERO SWAP1 DUP2 OR SWAP1 SWAP2 SSTORE SWAP2 MLOAD SWAP2 DUP3 MSTORE PUSH32 0xB9AD240C35681E1D7A33B6B271C4ABA6024A102BA32E826AE4F2E2010330756 SWAP2 ADD PUSH2 0x2C6F JUMP JUMPDEST PUSH1 0x60 DUP1 PUSH1 0x0 PUSH4 0xC63FF8DD PUSH1 0xE0 SHL DUP5 PUSH1 0x40 MLOAD PUSH1 0x24 ADD PUSH2 0x3172 SWAP2 SWAP1 PUSH2 0x4B03 JUMP JUMPDEST PUSH1 0x40 MLOAD PUSH1 0x20 DUP2 DUP4 SUB SUB DUP2 MSTORE SWAP1 PUSH1 0x40 MSTORE SWAP1 PUSH28 0xFFFFFFFFFFFFFFFFFFFFFFFFFFFFFFFFFFFFFFFFFFFFFFFFFFFFFFFF NOT AND PUSH1 0x20 DUP3 ADD DUP1 MLOAD PUSH28 0xFFFFFFFFFFFFFFFFFFFFFFFFFFFFFFFFFFFFFFFFFFFFFFFFFFFFFFFF DUP4 DUP2 DUP4 AND OR DUP4 MSTORE POP POP POP POP SWAP1 POP PUSH1 0x0 DUP1 DUP7 PUSH1 0x1 PUSH1 0x1 PUSH1 0xA0 SHL SUB AND DUP4 PUSH1 0x40 MLOAD PUSH2 0x31EC SWAP2 SWAP1 PUSH2 0x4938 JUMP JUMPDEST PUSH1 0x0 PUSH1 0x40 MLOAD DUP1 DUP4 SUB DUP2 DUP6 GAS DELEGATECALL SWAP2 POP POP RETURNDATASIZE DUP1 PUSH1 0x0 DUP2 EQ PUSH2 0x3227 JUMPI PUSH1 0x40 MLOAD SWAP2 POP PUSH1 0x1F NOT PUSH1 0x3F RETURNDATASIZE ADD AND DUP3 ADD PUSH1 0x40 MSTORE RETURNDATASIZE DUP3 MSTORE RETURNDATASIZE PUSH1 0x0 PUSH1 0x20 DUP5 ADD RETURNDATACOPY PUSH2 0x322C JUMP JUMPDEST PUSH1 0x60 SWAP2 POP JUMPDEST POP SWAP2 POP SWAP2 POP PUSH2 0x3271 DUP3 DUP3 PUSH1 0x40 MLOAD DUP1 PUSH1 0x40 ADD PUSH1 0x40 MSTORE DUP1 PUSH1 0x13 DUP2 MSTORE PUSH1 0x20 ADD PUSH32 0x434C41494D5F43414C4C5F524556455254454400000000000000000000000000 DUP2 MSTORE POP PUSH2 0x3745 JUMP JUMPDEST POP DUP1 DUP1 PUSH1 0x20 ADD SWAP1 MLOAD DUP2 ADD SWAP1 PUSH2 0x3286 SWAP2 SWAP1 PUSH2 0x4637 JUMP JUMPDEST SWAP5 POP SWAP5 POP POP POP POP SWAP3 POP SWAP3 SWAP1 POP JUMP JUMPDEST PUSH1 0x0 SLOAD PUSH2 0x100 SWAP1 DIV PUSH1 0xFF AND PUSH2 0x3311 JUMPI PUSH1 0x40 MLOAD PUSH3 0x461BCD PUSH1 0xE5 SHL DUP2 MSTORE PUSH1 0x20 PUSH1 0x4 DUP3 ADD MSTORE PUSH1 0x2B PUSH1 0x24 DUP3 ADD MSTORE PUSH32 0x496E697469616C697A61626C653A20636F6E7472616374206973206E6F742069 PUSH1 0x44 DUP3 ADD MSTORE PUSH32 0x6E697469616C697A696E67000000000000000000000000000000000000000000 PUSH1 0x64 DUP3 ADD MSTORE PUSH1 0x84 ADD PUSH2 0x8B9 JUMP JUMPDEST PUSH2 0x3319 PUSH2 0x3AA6 JUMP JUMPDEST PUSH2 0x3343 DUP2 PUSH32 0x933F0F3C00000000000000000000000000000000000000000000000000000000 PUSH2 0x2F7A JUMP JUMPDEST PUSH2 0x12F8 DUP2 PUSH32 0x6646A43600000000000000000000000000000000000000000000000000000000 PUSH2 0x2F7A JUMP JUMPDEST PUSH1 0x60 DUP3 SELFBALANCE LT ISZERO PUSH2 0x33E5 JUMPI PUSH1 0x40 MLOAD PUSH3 0x461BCD PUSH1 0xE5 SHL DUP2 MSTORE PUSH1 0x20 PUSH1 0x4 DUP3 ADD MSTORE PUSH1 0x26 PUSH1 0x24 DUP3 ADD MSTORE PUSH32 0x416464726573733A20696E73756666696369656E742062616C616E636520666F PUSH1 0x44 DUP3 ADD MSTORE PUSH32 0x722063616C6C0000000000000000000000000000000000000000000000000000 PUSH1 0x64 DUP3 ADD MSTORE PUSH1 0x84 ADD PUSH2 0x8B9 JUMP JUMPDEST PUSH1 0x1 PUSH1 0x1 PUSH1 0xA0 SHL SUB DUP6 AND EXTCODESIZE PUSH2 0x343C JUMPI PUSH1 0x40 MLOAD PUSH3 0x461BCD PUSH1 0xE5 SHL DUP2 MSTORE PUSH1 0x20 PUSH1 0x4 DUP3 ADD MSTORE PUSH1 0x1D PUSH1 0x24 DUP3 ADD MSTORE PUSH32 0x416464726573733A2063616C6C20746F206E6F6E2D636F6E7472616374000000 PUSH1 0x44 DUP3 ADD MSTORE PUSH1 0x64 ADD PUSH2 0x8B9 JUMP JUMPDEST PUSH1 0x0 DUP1 DUP7 PUSH1 0x1 PUSH1 0x1 PUSH1 0xA0 SHL SUB AND DUP6 DUP8 PUSH1 0x40 MLOAD PUSH2 0x3458 SWAP2 SWAP1 PUSH2 0x4938 JUMP JUMPDEST PUSH1 0x0 PUSH1 0x40 MLOAD DUP1 DUP4 SUB DUP2 DUP6 DUP8 GAS CALL SWAP3 POP POP POP RETURNDATASIZE DUP1 PUSH1 0x0 DUP2 EQ PUSH2 0x3495 JUMPI PUSH1 0x40 MLOAD SWAP2 POP PUSH1 0x1F NOT PUSH1 0x3F RETURNDATASIZE ADD AND DUP3 ADD PUSH1 0x40 MSTORE RETURNDATASIZE DUP3 MSTORE RETURNDATASIZE PUSH1 0x0 PUSH1 0x20 DUP5 ADD RETURNDATACOPY PUSH2 0x349A JUMP JUMPDEST PUSH1 0x60 SWAP2 POP JUMPDEST POP SWAP2 POP SWAP2 POP PUSH2 0x34AA DUP3 DUP3 DUP7 PUSH2 0x3745 JUMP JUMPDEST SWAP8 SWAP7 POP POP POP POP POP POP POP JUMP JUMPDEST PUSH1 0x60 DUP1 PUSH1 0x0 DUP1 PUSH4 0xA9A80D26 PUSH1 0xE0 SHL DUP9 DUP9 DUP9 DUP9 PUSH1 0x40 MLOAD PUSH1 0x24 ADD PUSH2 0x34DA SWAP5 SWAP4 SWAP3 SWAP2 SWAP1 PUSH2 0x4AC4 JUMP JUMPDEST PUSH1 0x40 MLOAD PUSH1 0x20 DUP2 DUP4 SUB SUB DUP2 MSTORE SWAP1 PUSH1 0x40 MSTORE SWAP1 PUSH28 0xFFFFFFFFFFFFFFFFFFFFFFFFFFFFFFFFFFFFFFFFFFFFFFFFFFFFFFFF NOT AND PUSH1 0x20 DUP3 ADD DUP1 MLOAD PUSH28 0xFFFFFFFFFFFFFFFFFFFFFFFFFFFFFFFFFFFFFFFFFFFFFFFFFFFFFFFF DUP4 DUP2 DUP4 AND OR DUP4 MSTORE POP POP POP POP SWAP1 POP PUSH1 0x0 DUP1 DUP11 PUSH1 0x1 PUSH1 0x1 PUSH1 0xA0 SHL SUB AND DUP4 PUSH1 0x40 MLOAD PUSH2 0x3554 SWAP2 SWAP1 PUSH2 0x4938 JUMP JUMPDEST PUSH1 0x0 PUSH1 0x40 MLOAD DUP1 DUP4 SUB DUP2 DUP6 GAS DELEGATECALL SWAP2 POP POP RETURNDATASIZE DUP1 PUSH1 0x0 DUP2 EQ PUSH2 0x358F JUMPI PUSH1 0x40 MLOAD SWAP2 POP PUSH1 0x1F NOT PUSH1 0x3F RETURNDATASIZE ADD AND DUP3 ADD PUSH1 0x40 MSTORE RETURNDATASIZE DUP3 MSTORE RETURNDATASIZE PUSH1 0x0 PUSH1 0x20 DUP5 ADD RETURNDATACOPY PUSH2 0x3594 JUMP JUMPDEST PUSH1 0x60 SWAP2 POP JUMPDEST POP SWAP2 POP SWAP2 POP PUSH2 0x26BF DUP3 DUP3 PUSH1 0x40 MLOAD DUP1 PUSH1 0x40 ADD PUSH1 0x40 MSTORE DUP1 PUSH1 0x12 DUP2 MSTORE PUSH1 0x20 ADD PUSH32 0x455849545F43414C4C5F52455645525445440000000000000000000000000000 DUP2 MSTORE POP PUSH2 0x3745 JUMP JUMPDEST PUSH1 0x0 DUP2 PUSH2 0x3628 JUMPI PUSH1 0x40 MLOAD PUSH3 0x461BCD PUSH1 0xE5 SHL DUP2 MSTORE PUSH1 0x20 PUSH1 0x4 DUP3 ADD MSTORE PUSH1 0xD PUSH1 0x24 DUP3 ADD MSTORE PUSH32 0x5A45524F5F4449564953494F4E00000000000000000000000000000000000000 PUSH1 0x44 DUP3 ADD MSTORE PUSH1 0x64 ADD PUSH2 0x8B9 JUMP JUMPDEST DUP3 PUSH2 0x3635 JUMPI POP PUSH1 0x0 PUSH2 0x188D JUMP JUMPDEST PUSH8 0xDE0B6B3A7640000 DUP4 DUP2 MUL SWAP1 DUP5 DUP3 DUP2 PUSH2 0x365F JUMPI PUSH4 0x4E487B71 PUSH1 0xE0 SHL PUSH1 0x0 MSTORE PUSH1 0x12 PUSH1 0x4 MSTORE PUSH1 0x24 PUSH1 0x0 REVERT JUMPDEST DIV EQ PUSH2 0x36AD JUMPI PUSH1 0x40 MLOAD PUSH3 0x461BCD PUSH1 0xE5 SHL DUP2 MSTORE PUSH1 0x20 PUSH1 0x4 DUP3 ADD MSTORE PUSH1 0xC PUSH1 0x24 DUP3 ADD MSTORE PUSH32 0x4449565F494E5445524E414C0000000000000000000000000000000000000000 PUSH1 0x44 DUP3 ADD MSTORE PUSH1 0x64 ADD PUSH2 0x8B9 JUMP JUMPDEST DUP3 PUSH1 0x1 DUP3 SUB DUP2 PUSH2 0x36CD JUMPI PUSH4 0x4E487B71 PUSH1 0xE0 SHL PUSH1 0x0 MSTORE PUSH1 0x12 PUSH1 0x4 MSTORE PUSH1 0x24 PUSH1 0x0 REVERT JUMPDEST DIV PUSH1 0x1 ADD SWAP2 POP POP SWAP3 SWAP2 POP POP JUMP JUMPDEST PUSH2 0x36E3 DUP2 PUSH2 0x380A JUMP JUMPDEST PUSH1 0x4 DUP1 SLOAD PUSH32 0xFFFFFFFFFFFFFFFFFFFFFFFF0000000000000000000000000000000000000000 AND PUSH1 0x1 PUSH1 0x1 PUSH1 0xA0 SHL SUB DUP4 AND SWAP1 DUP2 OR SWAP1 SWAP2 SSTORE PUSH1 0x40 MLOAD PUSH32 0x68817DF76A175BA84BEEB646224C32929B792A33280E3F4BC3E8089552EDAA60 SWAP1 PUSH1 0x0 SWAP1 LOG2 POP JUMP JUMPDEST PUSH1 0x60 DUP4 ISZERO PUSH2 0x3754 JUMPI POP DUP2 PUSH2 0x196F JUMP JUMPDEST DUP3 MLOAD ISZERO PUSH2 0x3764 JUMPI DUP3 MLOAD DUP1 DUP5 PUSH1 0x20 ADD REVERT JUMPDEST DUP2 PUSH1 0x40 MLOAD PUSH3 0x461BCD PUSH1 0xE5 SHL DUP2 MSTORE PUSH1 0x4 ADD PUSH2 0x8B9 SWAP2 SWAP1 PUSH2 0x4B03 JUMP JUMPDEST PUSH1 0x0 DUP3 DUP3 MUL DUP4 ISZERO DUP1 PUSH2 0x37AC JUMPI POP DUP3 DUP5 DUP3 DUP2 PUSH2 0x37A9 JUMPI PUSH4 0x4E487B71 PUSH1 0xE0 SHL PUSH1 0x0 MSTORE PUSH1 0x12 PUSH1 0x4 MSTORE PUSH1 0x24 PUSH1 0x0 REVERT JUMPDEST DIV EQ JUMPDEST PUSH2 0x37F8 JUMPI PUSH1 0x40 MLOAD PUSH3 0x461BCD PUSH1 0xE5 SHL DUP2 MSTORE PUSH1 0x20 PUSH1 0x4 DUP3 ADD MSTORE PUSH1 0xC PUSH1 0x24 DUP3 ADD MSTORE PUSH32 0x4D554C5F4F564552464C4F570000000000000000000000000000000000000000 PUSH1 0x44 DUP3 ADD MSTORE PUSH1 0x64 ADD PUSH2 0x8B9 JUMP JUMPDEST PUSH8 0xDE0B6B3A7640000 SWAP1 DIV SWAP4 SWAP3 POP POP POP JUMP JUMPDEST PUSH2 0x3813 DUP2 PUSH2 0x3DF7 JUMP JUMPDEST PUSH2 0x12F8 JUMPI PUSH1 0x40 MLOAD PUSH3 0x461BCD PUSH1 0xE5 SHL DUP2 MSTORE PUSH1 0x20 PUSH1 0x4 DUP3 ADD MSTORE PUSH1 0x18 PUSH1 0x24 DUP3 ADD MSTORE PUSH32 0x444550454E44454E43595F4E4F545F53544154454C4553530000000000000000 PUSH1 0x44 DUP3 ADD MSTORE PUSH1 0x64 ADD PUSH2 0x8B9 JUMP JUMPDEST PUSH1 0x0 PUSH2 0x38B4 DUP3 PUSH1 0x40 MLOAD DUP1 PUSH1 0x40 ADD PUSH1 0x40 MSTORE DUP1 PUSH1 0x20 DUP2 MSTORE PUSH1 0x20 ADD PUSH32 0x5361666545524332303A206C6F772D6C6576656C2063616C6C206661696C6564 DUP2 MSTORE POP DUP6 PUSH1 0x1 PUSH1 0x1 PUSH1 0xA0 SHL SUB AND PUSH2 0x4031 SWAP1 SWAP3 SWAP2 SWAP1 PUSH4 0xFFFFFFFF AND JUMP JUMPDEST DUP1 MLOAD SWAP1 SWAP2 POP ISZERO PUSH2 0x1592 JUMPI DUP1 DUP1 PUSH1 0x20 ADD SWAP1 MLOAD DUP2 ADD SWAP1 PUSH2 0x38D2 SWAP2 SWAP1 PUSH2 0x46F8 JUMP JUMPDEST PUSH2 0x1592 JUMPI PUSH1 0x40 MLOAD PUSH3 0x461BCD PUSH1 0xE5 SHL DUP2 MSTORE PUSH1 0x20 PUSH1 0x4 DUP3 ADD MSTORE PUSH1 0x2A PUSH1 0x24 DUP3 ADD MSTORE PUSH32 0x5361666545524332303A204552433230206F7065726174696F6E20646964206E PUSH1 0x44 DUP3 ADD MSTORE PUSH32 0x6F74207375636365656400000000000000000000000000000000000000000000 PUSH1 0x64 DUP3 ADD MSTORE PUSH1 0x84 ADD PUSH2 0x8B9 JUMP JUMPDEST DUP1 SELFBALANCE LT ISZERO PUSH2 0x3994 JUMPI PUSH1 0x40 MLOAD PUSH3 0x461BCD PUSH1 0xE5 SHL DUP2 MSTORE PUSH1 0x20 PUSH1 0x4 DUP3 ADD MSTORE PUSH1 0x1D PUSH1 0x24 DUP3 ADD MSTORE PUSH32 0x416464726573733A20696E73756666696369656E742062616C616E6365000000 PUSH1 0x44 DUP3 ADD MSTORE PUSH1 0x64 ADD PUSH2 0x8B9 JUMP JUMPDEST PUSH1 0x0 DUP3 PUSH1 0x1 PUSH1 0x1 PUSH1 0xA0 SHL SUB AND DUP3 PUSH1 0x40 MLOAD PUSH1 0x0 PUSH1 0x40 MLOAD DUP1 DUP4 SUB DUP2 DUP6 DUP8 GAS CALL SWAP3 POP POP POP RETURNDATASIZE DUP1 PUSH1 0x0 DUP2 EQ PUSH2 0x39E1 JUMPI PUSH1 0x40 MLOAD SWAP2 POP PUSH1 0x1F NOT PUSH1 0x3F RETURNDATASIZE ADD AND DUP3 ADD PUSH1 0x40 MSTORE RETURNDATASIZE DUP3 MSTORE RETURNDATASIZE PUSH1 0x0 PUSH1 0x20 DUP5 ADD RETURNDATACOPY PUSH2 0x39E6 JUMP JUMPDEST PUSH1 0x60 SWAP2 POP JUMPDEST POP POP SWAP1 POP DUP1 PUSH2 0x1592 JUMPI PUSH1 0x40 MLOAD PUSH3 0x461BCD PUSH1 0xE5 SHL DUP2 MSTORE PUSH1 0x20 PUSH1 0x4 DUP3 ADD MSTORE PUSH1 0x3A PUSH1 0x24 DUP3 ADD MSTORE PUSH32 0x416464726573733A20756E61626C6520746F2073656E642076616C75652C2072 PUSH1 0x44 DUP3 ADD MSTORE PUSH32 0x6563697069656E74206D61792068617665207265766572746564000000000000 PUSH1 0x64 DUP3 ADD MSTORE PUSH1 0x84 ADD PUSH2 0x8B9 JUMP JUMPDEST PUSH1 0x40 MLOAD PUSH1 0x1 PUSH1 0x1 PUSH1 0xA0 SHL SUB DUP4 AND PUSH1 0x24 DUP3 ADD MSTORE PUSH1 0x44 DUP2 ADD DUP3 SWAP1 MSTORE PUSH2 0x1592 SWAP1 DUP5 SWAP1 PUSH32 0xA9059CBB00000000000000000000000000000000000000000000000000000000 SWAP1 PUSH1 0x64 ADD PUSH2 0x2B57 JUMP JUMPDEST PUSH1 0x0 SLOAD PUSH2 0x100 SWAP1 DIV PUSH1 0xFF AND PUSH2 0x3B23 JUMPI PUSH1 0x40 MLOAD PUSH3 0x461BCD PUSH1 0xE5 SHL DUP2 MSTORE PUSH1 0x20 PUSH1 0x4 DUP3 ADD MSTORE PUSH1 0x2B PUSH1 0x24 DUP3 ADD MSTORE PUSH32 0x496E697469616C697A61626C653A20636F6E7472616374206973206E6F742069 PUSH1 0x44 DUP3 ADD MSTORE PUSH32 0x6E697469616C697A696E67000000000000000000000000000000000000000000 PUSH1 0x64 DUP3 ADD MSTORE PUSH1 0x84 ADD PUSH2 0x8B9 JUMP JUMPDEST PUSH1 0x40 MLOAD PUSH32 0x8B4872B800000000000000000000000000000000000000000000000000000000 DUP2 MSTORE ADDRESS PUSH1 0x4 DUP3 ADD MSTORE PUSH1 0x0 SWAP1 PUSH32 0x0 PUSH1 0x1 PUSH1 0x1 PUSH1 0xA0 SHL SUB AND SWAP1 PUSH4 0x8B4872B8 SWAP1 PUSH1 0x24 ADD PUSH1 0x20 PUSH1 0x40 MLOAD DUP1 DUP4 SUB DUP2 DUP7 DUP1 EXTCODESIZE ISZERO DUP1 ISZERO PUSH2 0x3B9E JUMPI PUSH1 0x0 DUP1 REVERT JUMPDEST POP GAS STATICCALL ISZERO DUP1 ISZERO PUSH2 0x3BB2 JUMPI RETURNDATASIZE PUSH1 0x0 DUP1 RETURNDATACOPY RETURNDATASIZE PUSH1 0x0 REVERT JUMPDEST POP POP POP POP PUSH1 0x40 MLOAD RETURNDATASIZE PUSH1 0x1F NOT PUSH1 0x1F DUP3 ADD AND DUP3 ADD DUP1 PUSH1 0x40 MSTORE POP DUP2 ADD SWAP1 PUSH2 0x3BD6 SWAP2 SWAP1 PUSH2 0x4220 JUMP JUMPDEST SWAP1 POP PUSH1 0x1 PUSH1 0x1 PUSH1 0xA0 SHL SUB DUP2 AND PUSH2 0x3C2E JUMPI PUSH1 0x40 MLOAD PUSH3 0x461BCD PUSH1 0xE5 SHL DUP2 MSTORE PUSH1 0x20 PUSH1 0x4 DUP3 ADD MSTORE PUSH1 0x1D PUSH1 0x24 DUP3 ADD MSTORE PUSH32 0x494D504C454D454E544154494F4E5F4E4F545F52454749535445524544000000 PUSH1 0x44 DUP3 ADD MSTORE PUSH1 0x64 ADD PUSH2 0x8B9 JUMP JUMPDEST PUSH1 0x40 MLOAD PUSH32 0x9235DCF800000000000000000000000000000000000000000000000000000000 DUP2 MSTORE PUSH1 0x1 PUSH1 0x1 PUSH1 0xA0 SHL SUB DUP3 DUP2 AND PUSH1 0x4 DUP4 ADD MSTORE PUSH1 0x0 SWAP2 DUP3 SWAP2 PUSH32 0x0 AND SWAP1 PUSH4 0x9235DCF8 SWAP1 PUSH1 0x24 ADD PUSH1 0x60 PUSH1 0x40 MLOAD DUP1 DUP4 SUB DUP2 DUP7 DUP1 EXTCODESIZE ISZERO DUP1 ISZERO PUSH2 0x3CAD JUMPI PUSH1 0x0 DUP1 REVERT JUMPDEST POP GAS STATICCALL ISZERO DUP1 ISZERO PUSH2 0x3CC1 JUMPI RETURNDATASIZE PUSH1 0x0 DUP1 RETURNDATACOPY RETURNDATASIZE PUSH1 0x0 REVERT JUMPDEST POP POP POP POP PUSH1 0x40 MLOAD RETURNDATASIZE PUSH1 0x1F NOT PUSH1 0x1F DUP3 ADD AND DUP3 ADD DUP1 PUSH1 0x40 MSTORE POP DUP2 ADD SWAP1 PUSH2 0x3CE5 SWAP2 SWAP1 PUSH2 0x4714 JUMP JUMPDEST SWAP3 POP SWAP3 POP POP DUP2 ISZERO PUSH2 0x3D38 JUMPI PUSH1 0x40 MLOAD PUSH3 0x461BCD PUSH1 0xE5 SHL DUP2 MSTORE PUSH1 0x20 PUSH1 0x4 DUP3 ADD MSTORE PUSH1 0x19 PUSH1 0x24 DUP3 ADD MSTORE PUSH32 0x494D504C454D454E544154494F4E5F4445505245434154454400000000000000 PUSH1 0x44 DUP3 ADD MSTORE PUSH1 0x64 ADD PUSH2 0x8B9 JUMP JUMPDEST DUP1 ADDRESS PUSH1 0x1 PUSH1 0x1 PUSH1 0xA0 SHL SUB AND PUSH4 0x44BA1FCA PUSH1 0x40 MLOAD DUP2 PUSH4 0xFFFFFFFF AND PUSH1 0xE0 SHL DUP2 MSTORE PUSH1 0x4 ADD PUSH1 0x20 PUSH1 0x40 MLOAD DUP1 DUP4 SUB DUP2 DUP7 DUP1 EXTCODESIZE ISZERO DUP1 ISZERO PUSH2 0x3D72 JUMPI PUSH1 0x0 DUP1 REVERT JUMPDEST POP GAS STATICCALL ISZERO DUP1 ISZERO PUSH2 0x3D86 JUMPI RETURNDATASIZE PUSH1 0x0 DUP1 RETURNDATACOPY RETURNDATASIZE PUSH1 0x0 REVERT JUMPDEST POP POP POP POP PUSH1 0x40 MLOAD RETURNDATASIZE PUSH1 0x1F NOT PUSH1 0x1F DUP3 ADD AND DUP3 ADD DUP1 PUSH1 0x40 MSTORE POP DUP2 ADD SWAP1 PUSH2 0x3DAA SWAP2 SWAP1 PUSH2 0x4756 JUMP JUMPDEST EQ PUSH2 0x1592 JUMPI PUSH1 0x40 MLOAD PUSH3 0x461BCD PUSH1 0xE5 SHL DUP2 MSTORE PUSH1 0x20 PUSH1 0x4 DUP3 ADD DUP2 SWAP1 MSTORE PUSH1 0x24 DUP3 ADD MSTORE PUSH32 0x494E56414C49445F494D504C454D454E544154494F4E5F4E414D455350414345 PUSH1 0x44 DUP3 ADD MSTORE PUSH1 0x64 ADD PUSH2 0x8B9 JUMP JUMPDEST PUSH1 0x40 MLOAD PUSH32 0x8B4872B800000000000000000000000000000000000000000000000000000000 DUP2 MSTORE PUSH1 0x1 PUSH1 0x1 PUSH1 0xA0 SHL SUB DUP3 DUP2 AND PUSH1 0x4 DUP4 ADD MSTORE PUSH1 0x0 SWAP2 DUP3 SWAP2 PUSH32 0x0 AND SWAP1 PUSH4 0x8B4872B8 SWAP1 PUSH1 0x24 ADD PUSH1 0x20 PUSH1 0x40 MLOAD DUP1 DUP4 SUB DUP2 DUP7 DUP1 EXTCODESIZE ISZERO DUP1 ISZERO PUSH2 0x3E76 JUMPI PUSH1 0x0 DUP1 REVERT JUMPDEST POP GAS STATICCALL ISZERO DUP1 ISZERO PUSH2 0x3E8A JUMPI RETURNDATASIZE PUSH1 0x0 DUP1 RETURNDATACOPY RETURNDATASIZE PUSH1 0x0 REVERT JUMPDEST POP POP POP POP PUSH1 0x40 MLOAD RETURNDATASIZE PUSH1 0x1F NOT PUSH1 0x1F DUP3 ADD AND DUP3 ADD DUP1 PUSH1 0x40 MSTORE POP DUP2 ADD SWAP1 PUSH2 0x3EAE SWAP2 SWAP1 PUSH2 0x4220 JUMP JUMPDEST SWAP1 POP PUSH1 0x0 PUSH1 0x1 PUSH1 0x1 PUSH1 0xA0 SHL SUB DUP3 AND PUSH2 0x3EC6 JUMPI DUP4 PUSH2 0x3EC8 JUMP JUMPDEST DUP2 JUMPDEST PUSH1 0x40 MLOAD PUSH32 0x9235DCF800000000000000000000000000000000000000000000000000000000 DUP2 MSTORE PUSH1 0x1 PUSH1 0x1 PUSH1 0xA0 SHL SUB DUP1 DUP4 AND PUSH1 0x4 DUP4 ADD MSTORE SWAP2 SWAP3 POP PUSH1 0x0 SWAP2 DUP3 SWAP2 DUP3 SWAP2 PUSH32 0x0 AND SWAP1 PUSH4 0x9235DCF8 SWAP1 PUSH1 0x24 ADD PUSH1 0x60 PUSH1 0x40 MLOAD DUP1 DUP4 SUB DUP2 DUP7 DUP1 EXTCODESIZE ISZERO DUP1 ISZERO PUSH2 0x3F4C JUMPI PUSH1 0x0 DUP1 REVERT JUMPDEST POP GAS STATICCALL ISZERO DUP1 ISZERO PUSH2 0x3F60 JUMPI RETURNDATASIZE PUSH1 0x0 DUP1 RETURNDATACOPY RETURNDATASIZE PUSH1 0x0 REVERT JUMPDEST POP POP POP POP PUSH1 0x40 MLOAD RETURNDATASIZE PUSH1 0x1F NOT PUSH1 0x1F DUP3 ADD AND DUP3 ADD DUP1 PUSH1 0x40 MSTORE POP DUP2 ADD SWAP1 PUSH2 0x3F84 SWAP2 SWAP1 PUSH2 0x4714 JUMP JUMPDEST SWAP2 SWAP5 POP SWAP3 POP SWAP1 POP DUP1 PUSH2 0x3FD8 JUMPI PUSH1 0x40 MLOAD PUSH3 0x461BCD PUSH1 0xE5 SHL DUP2 MSTORE PUSH1 0x20 PUSH1 0x4 DUP3 ADD MSTORE PUSH1 0x19 PUSH1 0x24 DUP3 ADD MSTORE PUSH32 0x444550454E44454E43595F4E4F545F5245474953544552454400000000000000 PUSH1 0x44 DUP3 ADD MSTORE PUSH1 0x64 ADD PUSH2 0x8B9 JUMP JUMPDEST DUP2 ISZERO PUSH2 0x4026 JUMPI PUSH1 0x40 MLOAD PUSH3 0x461BCD PUSH1 0xE5 SHL DUP2 MSTORE PUSH1 0x20 PUSH1 0x4 DUP3 ADD MSTORE PUSH1 0x15 PUSH1 0x24 DUP3 ADD MSTORE PUSH32 0x444550454E44454E43595F444550524543415445440000000000000000000000 PUSH1 0x44 DUP3 ADD MSTORE PUSH1 0x64 ADD PUSH2 0x8B9 JUMP JUMPDEST POP SWAP1 SWAP6 SWAP5 POP POP POP POP POP JUMP JUMPDEST PUSH1 0x60 PUSH2 0x27A5 DUP5 DUP5 PUSH1 0x0 DUP6 PUSH2 0x336D JUMP JUMPDEST PUSH1 0x0 DUP3 PUSH1 0x1F DUP4 ADD SLT PUSH2 0x4050 JUMPI DUP1 DUP2 REVERT JUMPDEST DUP2 CALLDATALOAD PUSH1 0x20 PUSH2 0x4065 PUSH2 0x4060 DUP4 PUSH2 0x4C6D JUMP JUMPDEST PUSH2 0x4C1E JUMP JUMPDEST DUP1 DUP4 DUP3 MSTORE DUP3 DUP3 ADD SWAP2 POP DUP3 DUP7 ADD DUP8 DUP5 DUP7 PUSH1 0x5 SHL DUP10 ADD ADD GT ISZERO PUSH2 0x4084 JUMPI DUP6 DUP7 REVERT JUMPDEST DUP6 JUMPDEST DUP6 DUP2 LT ISZERO PUSH2 0x40AB JUMPI DUP2 CALLDATALOAD PUSH2 0x4099 DUP2 PUSH2 0x4D75 JUMP JUMPDEST DUP5 MSTORE SWAP3 DUP5 ADD SWAP3 SWAP1 DUP5 ADD SWAP1 PUSH1 0x1 ADD PUSH2 0x4086 JUMP JUMPDEST POP SWAP1 SWAP8 SWAP7 POP POP POP POP POP POP POP JUMP JUMPDEST PUSH1 0x0 DUP3 PUSH1 0x1F DUP4 ADD SLT PUSH2 0x40C8 JUMPI DUP1 DUP2 REVERT JUMPDEST DUP2 MLOAD PUSH1 0x20 PUSH2 0x40D8 PUSH2 0x4060 DUP4 PUSH2 0x4C6D JUMP JUMPDEST DUP1 DUP4 DUP3 MSTORE DUP3 DUP3 ADD SWAP2 POP DUP3 DUP7 ADD DUP8 DUP5 DUP7 PUSH1 0x5 SHL DUP10 ADD ADD GT ISZERO PUSH2 0x40F7 JUMPI DUP6 DUP7 REVERT JUMPDEST DUP6 JUMPDEST DUP6 DUP2 LT ISZERO PUSH2 0x40AB JUMPI DUP2 MLOAD PUSH2 0x410C DUP2 PUSH2 0x4D75 JUMP JUMPDEST DUP5 MSTORE SWAP3 DUP5 ADD SWAP3 SWAP1 DUP5 ADD SWAP1 PUSH1 0x1 ADD PUSH2 0x40F9 JUMP JUMPDEST PUSH1 0x0 DUP3 PUSH1 0x1F DUP4 ADD SLT PUSH2 0x412E JUMPI DUP1 DUP2 REVERT JUMPDEST DUP2 MLOAD PUSH1 0x20 PUSH2 0x413E PUSH2 0x4060 DUP4 PUSH2 0x4C6D JUMP JUMPDEST DUP1 DUP4 DUP3 MSTORE DUP3 DUP3 ADD SWAP2 POP DUP3 DUP7 ADD DUP8 DUP5 DUP7 PUSH1 0x5 SHL DUP10 ADD ADD GT ISZERO PUSH2 0x415D JUMPI DUP6 DUP7 REVERT JUMPDEST DUP6 JUMPDEST DUP6 DUP2 LT ISZERO PUSH2 0x40AB JUMPI DUP2 MLOAD DUP5 MSTORE SWAP3 DUP5 ADD SWAP3 SWAP1 DUP5 ADD SWAP1 PUSH1 0x1 ADD PUSH2 0x415F JUMP JUMPDEST PUSH1 0x0 DUP3 PUSH1 0x1F DUP4 ADD SLT PUSH2 0x418B JUMPI DUP1 DUP2 REVERT JUMPDEST DUP2 CALLDATALOAD PUSH8 0xFFFFFFFFFFFFFFFF DUP2 GT ISZERO PUSH2 0x41A5 JUMPI PUSH2 0x41A5 PUSH2 0x4D5F JUMP JUMPDEST PUSH2 0x41D6 PUSH1 0x20 PUSH32 0xFFFFFFFFFFFFFFFFFFFFFFFFFFFFFFFFFFFFFFFFFFFFFFFFFFFFFFFFFFFFFFE0 PUSH1 0x1F DUP5 ADD AND ADD PUSH2 0x4C1E JUMP JUMPDEST DUP2 DUP2 MSTORE DUP5 PUSH1 0x20 DUP4 DUP7 ADD ADD GT ISZERO PUSH2 0x41EA JUMPI DUP3 DUP4 REVERT JUMPDEST DUP2 PUSH1 0x20 DUP6 ADD PUSH1 0x20 DUP4 ADD CALLDATACOPY SWAP1 DUP2 ADD PUSH1 0x20 ADD SWAP2 SWAP1 SWAP2 MSTORE SWAP3 SWAP2 POP POP JUMP JUMPDEST PUSH1 0x0 PUSH1 0x20 DUP3 DUP5 SUB SLT ISZERO PUSH2 0x4215 JUMPI DUP1 DUP2 REVERT JUMPDEST DUP2 CALLDATALOAD PUSH2 0x196F DUP2 PUSH2 0x4D75 JUMP JUMPDEST PUSH1 0x0 PUSH1 0x20 DUP3 DUP5 SUB SLT ISZERO PUSH2 0x4231 JUMPI DUP1 DUP2 REVERT JUMPDEST DUP2 MLOAD PUSH2 0x196F DUP2 PUSH2 0x4D75 JUMP JUMPDEST PUSH1 0x0 DUP1 PUSH1 0x40 DUP4 DUP6 SUB SLT ISZERO PUSH2 0x424E JUMPI DUP1 DUP2 REVERT JUMPDEST DUP3 CALLDATALOAD PUSH2 0x4259 DUP2 PUSH2 0x4D75 JUMP JUMPDEST SWAP2 POP PUSH1 0x20 DUP4 ADD CALLDATALOAD PUSH2 0x4269 DUP2 PUSH2 0x4D75 JUMP JUMPDEST DUP1 SWAP2 POP POP SWAP3 POP SWAP3 SWAP1 POP JUMP JUMPDEST PUSH1 0x0 DUP1 PUSH1 0x0 PUSH1 0x60 DUP5 DUP7 SUB SLT ISZERO PUSH2 0x4288 JUMPI DUP1 DUP2 REVERT JUMPDEST DUP4 CALLDATALOAD PUSH2 0x4293 DUP2 PUSH2 0x4D75 JUMP JUMPDEST SWAP3 POP PUSH1 0x20 DUP5 ADD CALLDATALOAD PUSH2 0x42A3 DUP2 PUSH2 0x4D75 JUMP JUMPDEST SWAP2 POP PUSH1 0x40 DUP5 ADD CALLDATALOAD PUSH2 0x42B3 DUP2 PUSH2 0x4D75 JUMP JUMPDEST DUP1 SWAP2 POP POP SWAP3 POP SWAP3 POP SWAP3 JUMP JUMPDEST PUSH1 0x0 DUP1 PUSH1 0x0 DUP1 PUSH1 0x80 DUP6 DUP8 SUB SLT ISZERO PUSH2 0x42D3 JUMPI DUP2 DUP3 REVERT JUMPDEST DUP5 CALLDATALOAD PUSH2 0x42DE DUP2 PUSH2 0x4D75 JUMP JUMPDEST SWAP4 POP PUSH1 0x20 DUP6 ADD CALLDATALOAD PUSH2 0x42EE DUP2 PUSH2 0x4D75 JUMP JUMPDEST SWAP3 POP PUSH1 0x40 DUP6 ADD CALLDATALOAD SWAP2 POP PUSH1 0x60 DUP6 ADD CALLDATALOAD PUSH8 0xFFFFFFFFFFFFFFFF DUP2 GT ISZERO PUSH2 0x4310 JUMPI DUP2 DUP3 REVERT JUMPDEST PUSH2 0x431C DUP8 DUP3 DUP9 ADD PUSH2 0x417B JUMP JUMPDEST SWAP2 POP POP SWAP3 SWAP6 SWAP2 SWAP5 POP SWAP3 POP JUMP JUMPDEST PUSH1 0x0 DUP1 PUSH1 0x0 DUP1 PUSH1 0x0 PUSH1 0xA0 DUP7 DUP9 SUB SLT ISZERO PUSH2 0x433F JUMPI DUP3 DUP4 REVERT JUMPDEST DUP6 CALLDATALOAD PUSH2 0x434A DUP2 PUSH2 0x4D75 JUMP JUMPDEST SWAP5 POP PUSH1 0x20 DUP7 DUP2 ADD CALLDATALOAD PUSH8 0xFFFFFFFFFFFFFFFF DUP1 DUP3 GT ISZERO PUSH2 0x4367 JUMPI DUP6 DUP7 REVERT JUMPDEST PUSH2 0x4373 DUP11 DUP4 DUP12 ADD PUSH2 0x4040 JUMP JUMPDEST SWAP7 POP PUSH1 0x40 DUP10 ADD CALLDATALOAD SWAP2 POP DUP1 DUP3 GT ISZERO PUSH2 0x4388 JUMPI DUP6 DUP7 REVERT JUMPDEST DUP2 DUP10 ADD SWAP2 POP DUP10 PUSH1 0x1F DUP4 ADD SLT PUSH2 0x439B JUMPI DUP6 DUP7 REVERT JUMPDEST DUP2 CALLDATALOAD PUSH2 0x43A9 PUSH2 0x4060 DUP3 PUSH2 0x4C6D JUMP JUMPDEST DUP1 DUP3 DUP3 MSTORE DUP6 DUP3 ADD SWAP2 POP DUP6 DUP6 ADD DUP14 DUP8 DUP6 PUSH1 0x5 SHL DUP9 ADD ADD GT ISZERO PUSH2 0x43C8 JUMPI DUP10 DUP11 REVERT JUMPDEST DUP10 SWAP6 POP JUMPDEST DUP4 DUP7 LT ISZERO PUSH2 0x43EA JUMPI DUP1 CALLDATALOAD DUP4 MSTORE PUSH1 0x1 SWAP6 SWAP1 SWAP6 ADD SWAP5 SWAP2 DUP7 ADD SWAP2 DUP7 ADD PUSH2 0x43CC JUMP JUMPDEST POP SWAP8 POP POP POP PUSH1 0x60 DUP10 ADD CALLDATALOAD SWAP5 POP PUSH1 0x80 DUP10 ADD CALLDATALOAD SWAP3 POP DUP1 DUP4 GT ISZERO PUSH2 0x4409 JUMPI DUP4 DUP5 REVERT JUMPDEST POP POP PUSH2 0x4417 DUP9 DUP3 DUP10 ADD PUSH2 0x417B JUMP JUMPDEST SWAP2 POP POP SWAP3 SWAP6 POP SWAP3 SWAP6 SWAP1 SWAP4 POP JUMP JUMPDEST PUSH1 0x0 DUP1 PUSH1 0x40 DUP4 DUP6 SUB SLT ISZERO PUSH2 0x4436 JUMPI DUP2 DUP3 REVERT JUMPDEST DUP3 CALLDATALOAD PUSH2 0x4441 DUP2 PUSH2 0x4D75 JUMP JUMPDEST SWAP2 POP PUSH1 0x20 DUP4 ADD CALLDATALOAD PUSH2 0x4269 DUP2 PUSH2 0x4D8A JUMP JUMPDEST PUSH1 0x0 DUP1 PUSH1 0x40 DUP4 DUP6 SUB SLT ISZERO PUSH2 0x4463 JUMPI DUP2 DUP3 REVERT JUMPDEST DUP3 CALLDATALOAD PUSH2 0x446E DUP2 PUSH2 0x4D75 JUMP JUMPDEST SWAP2 POP PUSH1 0x20 DUP4 ADD CALLDATALOAD PUSH32 0xFFFFFFFF00000000000000000000000000000000000000000000000000000000 DUP2 AND DUP2 EQ PUSH2 0x4269 JUMPI DUP2 DUP3 REVERT JUMPDEST PUSH1 0x0 DUP1 PUSH1 0x40 DUP4 DUP6 SUB SLT ISZERO PUSH2 0x44B4 JUMPI DUP2 DUP3 REVERT JUMPDEST DUP3 CALLDATALOAD PUSH2 0x44BF DUP2 PUSH2 0x4D75 JUMP JUMPDEST SWAP2 POP PUSH1 0x20 DUP4 ADD CALLDATALOAD PUSH8 0xFFFFFFFFFFFFFFFF DUP2 GT ISZERO PUSH2 0x44DA JUMPI DUP2 DUP3 REVERT JUMPDEST PUSH2 0x44E6 DUP6 DUP3 DUP7 ADD PUSH2 0x417B JUMP JUMPDEST SWAP2 POP POP SWAP3 POP SWAP3 SWAP1 POP JUMP JUMPDEST PUSH1 0x0 DUP1 PUSH1 0x0 DUP1 PUSH1 0x80 DUP6 DUP8 SUB SLT ISZERO PUSH2 0x4505 JUMPI DUP2 DUP3 REVERT JUMPDEST DUP5 CALLDATALOAD PUSH2 0x4510 DUP2 PUSH2 0x4D75 JUMP JUMPDEST SWAP4 POP PUSH1 0x20 DUP6 ADD CALLDATALOAD PUSH8 0xFFFFFFFFFFFFFFFF DUP1 DUP3 GT ISZERO PUSH2 0x452C JUMPI DUP4 DUP5 REVERT JUMPDEST PUSH2 0x4538 DUP9 DUP4 DUP10 ADD PUSH2 0x417B JUMP JUMPDEST SWAP5 POP PUSH1 0x40 DUP8 ADD CALLDATALOAD SWAP4 POP PUSH1 0x60 DUP8 ADD CALLDATALOAD SWAP2 POP DUP1 DUP3 GT ISZERO PUSH2 0x4554 JUMPI DUP3 DUP4 REVERT JUMPDEST POP PUSH2 0x431C DUP8 DUP3 DUP9 ADD PUSH2 0x417B JUMP JUMPDEST PUSH1 0x0 DUP1 PUSH1 0x0 DUP1 PUSH1 0x80 DUP6 DUP8 SUB SLT ISZERO PUSH2 0x4576 JUMPI DUP2 DUP3 REVERT JUMPDEST DUP5 CALLDATALOAD PUSH2 0x4581 DUP2 PUSH2 0x4D75 JUMP JUMPDEST SWAP4 POP PUSH1 0x20 DUP6 ADD CALLDATALOAD SWAP3 POP PUSH1 0x40 DUP6 ADD CALLDATALOAD PUSH2 0x4598 DUP2 PUSH2 0x4D75 JUMP JUMPDEST SWAP2 POP PUSH1 0x60 DUP6 ADD CALLDATALOAD PUSH8 0xFFFFFFFFFFFFFFFF DUP2 GT ISZERO PUSH2 0x4310 JUMPI DUP2 DUP3 REVERT JUMPDEST PUSH1 0x0 DUP1 PUSH1 0x0 PUSH1 0x60 DUP5 DUP7 SUB SLT ISZERO PUSH2 0x45C7 JUMPI DUP1 DUP2 REVERT JUMPDEST DUP4 CALLDATALOAD PUSH8 0xFFFFFFFFFFFFFFFF DUP1 DUP3 GT ISZERO PUSH2 0x45DE JUMPI DUP3 DUP4 REVERT JUMPDEST PUSH2 0x45EA DUP8 DUP4 DUP9 ADD PUSH2 0x4040 JUMP JUMPDEST SWAP5 POP PUSH1 0x20 DUP7 ADD CALLDATALOAD SWAP2 POP DUP1 DUP3 GT ISZERO PUSH2 0x45FF JUMPI DUP3 DUP4 REVERT JUMPDEST PUSH2 0x460B DUP8 DUP4 DUP9 ADD PUSH2 0x4040 JUMP JUMPDEST SWAP4 POP PUSH1 0x40 DUP7 ADD CALLDATALOAD SWAP2 POP DUP1 DUP3 GT ISZERO PUSH2 0x4620 JUMPI DUP3 DUP4 REVERT JUMPDEST POP PUSH2 0x462D DUP7 DUP3 DUP8 ADD PUSH2 0x4040 JUMP JUMPDEST SWAP2 POP POP SWAP3 POP SWAP3 POP SWAP3 JUMP JUMPDEST PUSH1 0x0 DUP1 PUSH1 0x40 DUP4 DUP6 SUB SLT ISZERO PUSH2 0x4649 JUMPI DUP2 DUP3 REVERT JUMPDEST DUP3 MLOAD PUSH8 0xFFFFFFFFFFFFFFFF DUP1 DUP3 GT ISZERO PUSH2 0x4660 JUMPI DUP4 DUP5 REVERT JUMPDEST PUSH2 0x466C DUP7 DUP4 DUP8 ADD PUSH2 0x40B8 JUMP JUMPDEST SWAP4 POP PUSH1 0x20 DUP6 ADD MLOAD SWAP2 POP DUP1 DUP3 GT ISZERO PUSH2 0x4681 JUMPI DUP3 DUP4 REVERT JUMPDEST POP PUSH2 0x44E6 DUP6 DUP3 DUP7 ADD PUSH2 0x411E JUMP JUMPDEST PUSH1 0x0 DUP1 PUSH1 0x0 PUSH1 0x60 DUP5 DUP7 SUB SLT ISZERO PUSH2 0x46A2 JUMPI DUP1 DUP2 REVERT JUMPDEST DUP4 MLOAD PUSH8 0xFFFFFFFFFFFFFFFF DUP1 DUP3 GT ISZERO PUSH2 0x46B9 JUMPI DUP3 DUP4 REVERT JUMPDEST PUSH2 0x46C5 DUP8 DUP4 DUP9 ADD PUSH2 0x40B8 JUMP JUMPDEST SWAP5 POP PUSH1 0x20 DUP7 ADD MLOAD SWAP2 POP DUP1 DUP3 GT ISZERO PUSH2 0x46DA JUMPI DUP3 DUP4 REVERT JUMPDEST POP PUSH2 0x46E7 DUP7 DUP3 DUP8 ADD PUSH2 0x411E JUMP JUMPDEST SWAP3 POP POP PUSH1 0x40 DUP5 ADD MLOAD SWAP1 POP SWAP3 POP SWAP3 POP SWAP3 JUMP JUMPDEST PUSH1 0x0 PUSH1 0x20 DUP3 DUP5 SUB SLT ISZERO PUSH2 0x4709 JUMPI DUP1 DUP2 REVERT JUMPDEST DUP2 MLOAD PUSH2 0x196F DUP2 PUSH2 0x4D8A JUMP JUMPDEST PUSH1 0x0 DUP1 PUSH1 0x0 PUSH1 0x60 DUP5 DUP7 SUB SLT ISZERO PUSH2 0x4728 JUMPI DUP1 DUP2 REVERT JUMPDEST DUP4 MLOAD PUSH2 0x4733 DUP2 PUSH2 0x4D8A JUMP JUMPDEST PUSH1 0x20 DUP6 ADD MLOAD SWAP1 SWAP4 POP PUSH2 0x4744 DUP2 PUSH2 0x4D8A JUMP JUMPDEST DUP1 SWAP3 POP POP PUSH1 0x40 DUP5 ADD MLOAD SWAP1 POP SWAP3 POP SWAP3 POP SWAP3 JUMP JUMPDEST PUSH1 0x0 PUSH1 0x20 DUP3 DUP5 SUB SLT ISZERO PUSH2 0x4767 JUMPI DUP1 DUP2 REVERT JUMPDEST POP MLOAD SWAP2 SWAP1 POP JUMP JUMPDEST PUSH1 0x0 DUP1 PUSH1 0x40 DUP4 DUP6 SUB SLT ISZERO PUSH2 0x4780 JUMPI DUP2 DUP3 REVERT JUMPDEST DUP3 CALLDATALOAD SWAP2 POP PUSH1 0x20 DUP4 ADD CALLDATALOAD PUSH8 0xFFFFFFFFFFFFFFFF DUP2 GT ISZERO PUSH2 0x44DA JUMPI DUP2 DUP3 REVERT JUMPDEST PUSH1 0x0 DUP1 PUSH1 0x0 DUP1 PUSH1 0x80 DUP6 DUP8 SUB SLT ISZERO PUSH2 0x47B2 JUMPI DUP2 DUP3 REVERT JUMPDEST DUP5 CALLDATALOAD SWAP4 POP PUSH1 0x20 DUP6 ADD CALLDATALOAD SWAP3 POP PUSH1 0x40 DUP6 ADD CALLDATALOAD PUSH2 0x47CB DUP2 PUSH2 0x4D75 JUMP JUMPDEST SWAP4 SWAP7 SWAP3 SWAP6 POP SWAP3 SWAP4 PUSH1 0x60 ADD CALLDATALOAD SWAP3 POP POP JUMP JUMPDEST PUSH1 0x0 DUP1 PUSH1 0x0 DUP1 PUSH1 0x0 DUP1 PUSH1 0x0 PUSH1 0xE0 DUP9 DUP11 SUB SLT ISZERO PUSH2 0x47F5 JUMPI DUP5 DUP6 REVERT JUMPDEST DUP8 CALLDATALOAD PUSH1 0xFF DUP2 AND DUP2 EQ PUSH2 0x4805 JUMPI DUP6 DUP7 REVERT JUMPDEST SWAP7 POP PUSH1 0x20 DUP9 ADD CALLDATALOAD PUSH2 0x4815 DUP2 PUSH2 0x4D75 JUMP JUMPDEST SWAP6 POP PUSH1 0x40 DUP9 ADD CALLDATALOAD PUSH2 0x4825 DUP2 PUSH2 0x4D75 JUMP JUMPDEST SWAP5 POP PUSH1 0x60 DUP9 ADD CALLDATALOAD SWAP4 POP PUSH1 0x80 DUP9 ADD CALLDATALOAD PUSH1 0x2 DUP2 LT PUSH2 0x483F JUMPI DUP3 DUP4 REVERT JUMPDEST SWAP3 POP PUSH1 0xA0 DUP9 ADD CALLDATALOAD SWAP2 POP PUSH1 0xC0 DUP9 ADD CALLDATALOAD PUSH8 0xFFFFFFFFFFFFFFFF DUP2 GT ISZERO PUSH2 0x4861 JUMPI DUP2 DUP3 REVERT JUMPDEST PUSH2 0x486D DUP11 DUP3 DUP12 ADD PUSH2 0x417B JUMP JUMPDEST SWAP2 POP POP SWAP3 SWAP6 SWAP9 SWAP2 SWAP5 SWAP8 POP SWAP3 SWAP6 POP JUMP JUMPDEST PUSH1 0x0 DUP2 MLOAD DUP1 DUP5 MSTORE PUSH1 0x20 DUP1 DUP6 ADD SWAP5 POP DUP1 DUP5 ADD DUP4 JUMPDEST DUP4 DUP2 LT ISZERO PUSH2 0x48B4 JUMPI DUP2 MLOAD PUSH1 0x1 PUSH1 0x1 PUSH1 0xA0 SHL SUB AND DUP8 MSTORE SWAP6 DUP3 ADD SWAP6 SWAP1 DUP3 ADD SWAP1 PUSH1 0x1 ADD PUSH2 0x488F JUMP JUMPDEST POP SWAP5 SWAP6 SWAP5 POP POP POP POP POP JUMP JUMPDEST PUSH1 0x0 DUP2 MLOAD DUP1 DUP5 MSTORE PUSH1 0x20 DUP1 DUP6 ADD SWAP5 POP DUP1 DUP5 ADD DUP4 JUMPDEST DUP4 DUP2 LT ISZERO PUSH2 0x48B4 JUMPI DUP2 MLOAD DUP8 MSTORE SWAP6 DUP3 ADD SWAP6 SWAP1 DUP3 ADD SWAP1 PUSH1 0x1 ADD PUSH2 0x48D2 JUMP JUMPDEST PUSH1 0x0 DUP2 MLOAD DUP1 DUP5 MSTORE PUSH2 0x4906 DUP2 PUSH1 0x20 DUP7 ADD PUSH1 0x20 DUP7 ADD PUSH2 0x4D1D JUMP JUMPDEST PUSH1 0x1F ADD PUSH32 0xFFFFFFFFFFFFFFFFFFFFFFFFFFFFFFFFFFFFFFFFFFFFFFFFFFFFFFFFFFFFFFE0 AND SWAP3 SWAP1 SWAP3 ADD PUSH1 0x20 ADD SWAP3 SWAP2 POP POP JUMP JUMPDEST PUSH1 0x0 DUP3 MLOAD PUSH2 0x494A DUP2 DUP5 PUSH1 0x20 DUP8 ADD PUSH2 0x4D1D JUMP JUMPDEST SWAP2 SWAP1 SWAP2 ADD SWAP3 SWAP2 POP POP JUMP JUMPDEST PUSH1 0x0 PUSH1 0x40 DUP3 MSTORE PUSH2 0x4967 PUSH1 0x40 DUP4 ADD DUP6 PUSH2 0x487C JUMP JUMPDEST DUP3 DUP2 SUB PUSH1 0x20 DUP5 ADD MSTORE PUSH2 0x4979 DUP2 DUP6 PUSH2 0x48BF JUMP JUMPDEST SWAP6 SWAP5 POP POP POP POP POP JUMP JUMPDEST PUSH1 0x0 PUSH2 0x100 DUP1 DUP4 MSTORE PUSH2 0x4996 DUP2 DUP5 ADD DUP13 PUSH2 0x487C JUMP JUMPDEST SWAP1 POP DUP3 DUP2 SUB PUSH1 0x20 DUP5 ADD MSTORE PUSH2 0x49AA DUP2 DUP12 PUSH2 0x48BF JUMP JUMPDEST SWAP1 POP DUP3 DUP2 SUB PUSH1 0x40 DUP5 ADD MSTORE PUSH2 0x49BE DUP2 DUP11 PUSH2 0x487C JUMP JUMPDEST SWAP1 POP DUP3 DUP2 SUB PUSH1 0x60 DUP5 ADD MSTORE PUSH2 0x49D2 DUP2 DUP10 PUSH2 0x48BF JUMP JUMPDEST SWAP1 POP DUP7 PUSH1 0x80 DUP5 ADD MSTORE DUP3 DUP2 SUB PUSH1 0xA0 DUP5 ADD MSTORE PUSH2 0x49EC DUP2 DUP8 PUSH2 0x48BF JUMP JUMPDEST SWAP1 POP DUP5 PUSH1 0xC0 DUP5 ADD MSTORE DUP3 DUP2 SUB PUSH1 0xE0 DUP5 ADD MSTORE PUSH2 0x2922 DUP2 DUP6 PUSH2 0x48EE JUMP JUMPDEST PUSH1 0x0 PUSH1 0xE0 DUP3 MSTORE PUSH2 0x4A19 PUSH1 0xE0 DUP4 ADD DUP11 PUSH2 0x487C JUMP JUMPDEST DUP3 DUP2 SUB PUSH1 0x20 DUP5 ADD MSTORE PUSH2 0x4A2B DUP2 DUP11 PUSH2 0x48BF JUMP JUMPDEST SWAP1 POP DUP3 DUP2 SUB PUSH1 0x40 DUP5 ADD MSTORE PUSH2 0x4A3F DUP2 DUP10 PUSH2 0x487C JUMP JUMPDEST SWAP1 POP DUP3 DUP2 SUB PUSH1 0x60 DUP5 ADD MSTORE PUSH2 0x4A53 DUP2 DUP9 PUSH2 0x48BF JUMP JUMPDEST SWAP1 POP DUP6 PUSH1 0x80 DUP5 ADD MSTORE DUP5 PUSH1 0xA0 DUP5 ADD MSTORE DUP3 DUP2 SUB PUSH1 0xC0 DUP5 ADD MSTORE PUSH2 0x4A73 DUP2 DUP6 PUSH2 0x48EE JUMP JUMPDEST SWAP11 SWAP10 POP POP POP POP POP POP POP POP POP POP JUMP JUMPDEST PUSH1 0x0 PUSH1 0x60 DUP3 MSTORE PUSH2 0x4A94 PUSH1 0x60 DUP4 ADD DUP7 PUSH2 0x487C JUMP JUMPDEST DUP3 DUP2 SUB PUSH1 0x20 DUP5 ADD MSTORE PUSH2 0x4AA6 DUP2 DUP7 PUSH2 0x48BF JUMP JUMPDEST SWAP1 POP DUP3 DUP2 SUB PUSH1 0x40 DUP5 ADD MSTORE PUSH2 0x4ABA DUP2 DUP6 PUSH2 0x48EE JUMP JUMPDEST SWAP7 SWAP6 POP POP POP POP POP POP JUMP JUMPDEST PUSH1 0x0 PUSH1 0x80 DUP3 MSTORE PUSH2 0x4AD7 PUSH1 0x80 DUP4 ADD DUP8 PUSH2 0x487C JUMP JUMPDEST DUP3 DUP2 SUB PUSH1 0x20 DUP5 ADD MSTORE PUSH2 0x4AE9 DUP2 DUP8 PUSH2 0x48BF JUMP JUMPDEST SWAP1 POP DUP5 PUSH1 0x40 DUP5 ADD MSTORE DUP3 DUP2 SUB PUSH1 0x60 DUP5 ADD MSTORE PUSH2 0x34AA DUP2 DUP6 PUSH2 0x48EE JUMP JUMPDEST PUSH1 0x0 PUSH1 0x20 DUP3 MSTORE PUSH2 0x196F PUSH1 0x20 DUP4 ADD DUP5 PUSH2 0x48EE JUMP JUMPDEST PUSH1 0x0 PUSH1 0x80 DUP3 MSTORE PUSH2 0x4B29 PUSH1 0x80 DUP4 ADD DUP8 PUSH2 0x48EE JUMP JUMPDEST DUP6 PUSH1 0x20 DUP5 ADD MSTORE DUP3 DUP2 SUB PUSH1 0x40 DUP5 ADD MSTORE PUSH2 0x4B41 DUP2 DUP7 PUSH2 0x48EE JUMP JUMPDEST SWAP1 POP DUP3 DUP2 SUB PUSH1 0x60 DUP5 ADD MSTORE PUSH2 0x34AA DUP2 DUP6 PUSH2 0x48EE JUMP JUMPDEST PUSH1 0x0 PUSH1 0x4 DUP9 LT PUSH2 0x4B73 JUMPI PUSH4 0x4E487B71 PUSH1 0xE0 SHL DUP2 MSTORE PUSH1 0x21 PUSH1 0x4 MSTORE PUSH1 0x24 DUP2 REVERT JUMPDEST DUP8 DUP3 MSTORE PUSH1 0x1 PUSH1 0x1 PUSH1 0xA0 SHL SUB DUP1 DUP9 AND PUSH1 0x20 DUP5 ADD MSTORE DUP1 DUP8 AND PUSH1 0x40 DUP5 ADD MSTORE POP DUP5 PUSH1 0x60 DUP4 ADD MSTORE DUP4 PUSH1 0x80 DUP4 ADD MSTORE PUSH1 0xC0 PUSH1 0xA0 DUP4 ADD MSTORE PUSH2 0x4BAF PUSH1 0xC0 DUP4 ADD DUP5 PUSH2 0x48EE JUMP JUMPDEST SWAP9 SWAP8 POP POP POP POP POP POP POP POP JUMP JUMPDEST PUSH1 0x0 DUP4 DUP3 MSTORE PUSH1 0x40 PUSH1 0x20 DUP4 ADD MSTORE PUSH2 0x27A5 PUSH1 0x40 DUP4 ADD DUP5 PUSH2 0x48EE JUMP JUMPDEST PUSH1 0x0 DUP5 DUP3 MSTORE DUP4 PUSH1 0x20 DUP4 ADD MSTORE PUSH1 0x60 PUSH1 0x40 DUP4 ADD MSTORE PUSH2 0x4979 PUSH1 0x60 DUP4 ADD DUP5 PUSH2 0x48EE JUMP JUMPDEST PUSH1 0x0 DUP7 DUP3 MSTORE DUP6 PUSH1 0x20 DUP4 ADD MSTORE DUP5 PUSH1 0x40 DUP4 ADD MSTORE DUP4 PUSH1 0x60 DUP4 ADD MSTORE PUSH1 0xA0 PUSH1 0x80 DUP4 ADD MSTORE PUSH2 0x34AA PUSH1 0xA0 DUP4 ADD DUP5 PUSH2 0x48EE JUMP JUMPDEST PUSH1 0x40 MLOAD PUSH1 0x1F DUP3 ADD PUSH32 0xFFFFFFFFFFFFFFFFFFFFFFFFFFFFFFFFFFFFFFFFFFFFFFFFFFFFFFFFFFFFFFE0 AND DUP2 ADD PUSH8 0xFFFFFFFFFFFFFFFF DUP2 GT DUP3 DUP3 LT OR ISZERO PUSH2 0x4C65 JUMPI PUSH2 0x4C65 PUSH2 0x4D5F JUMP JUMPDEST PUSH1 0x40 MSTORE SWAP2 SWAP1 POP JUMP JUMPDEST PUSH1 0x0 PUSH8 0xFFFFFFFFFFFFFFFF DUP3 GT ISZERO PUSH2 0x4C87 JUMPI PUSH2 0x4C87 PUSH2 0x4D5F JUMP JUMPDEST POP PUSH1 0x5 SHL PUSH1 0x20 ADD SWAP1 JUMP JUMPDEST PUSH1 0x0 DUP3 NOT DUP3 GT ISZERO PUSH2 0x4CA4 JUMPI PUSH2 0x4CA4 PUSH2 0x4D49 JUMP JUMPDEST POP ADD SWAP1 JUMP JUMPDEST PUSH1 0x0 DUP3 PUSH2 0x4CC4 JUMPI PUSH4 0x4E487B71 PUSH1 0xE0 SHL DUP2 MSTORE PUSH1 0x12 PUSH1 0x4 MSTORE PUSH1 0x24 DUP2 REVERT JUMPDEST POP DIV SWAP1 JUMP JUMPDEST PUSH1 0x0 DUP2 PUSH32 0xFFFFFFFFFFFFFFFFFFFFFFFFFFFFFFFFFFFFFFFFFFFFFFFFFFFFFFFFFFFFFFFF DIV DUP4 GT DUP3 ISZERO ISZERO AND ISZERO PUSH2 0x4D01 JUMPI PUSH2 0x4D01 PUSH2 0x4D49 JUMP JUMPDEST POP MUL SWAP1 JUMP JUMPDEST PUSH1 0x0 DUP3 DUP3 LT ISZERO PUSH2 0x4D18 JUMPI PUSH2 0x4D18 PUSH2 0x4D49 JUMP JUMPDEST POP SUB SWAP1 JUMP JUMPDEST PUSH1 0x0 JUMPDEST DUP4 DUP2 LT ISZERO PUSH2 0x4D38 JUMPI DUP2 DUP2 ADD MLOAD DUP4 DUP3 ADD MSTORE PUSH1 0x20 ADD PUSH2 0x4D20 JUMP JUMPDEST DUP4 DUP2 GT ISZERO PUSH2 0x12BB JUMPI POP POP PUSH1 0x0 SWAP2 ADD MSTORE JUMP JUMPDEST PUSH4 0x4E487B71 PUSH1 0xE0 SHL PUSH1 0x0 MSTORE PUSH1 0x11 PUSH1 0x4 MSTORE PUSH1 0x24 PUSH1 0x0 REVERT JUMPDEST PUSH4 0x4E487B71 PUSH1 0xE0 SHL PUSH1 0x0 MSTORE PUSH1 0x41 PUSH1 0x4 MSTORE PUSH1 0x24 PUSH1 0x0 REVERT JUMPDEST PUSH1 0x1 PUSH1 0x1 PUSH1 0xA0 SHL SUB DUP2 AND DUP2 EQ PUSH2 0x12F8 JUMPI PUSH1 0x0 DUP1 REVERT JUMPDEST DUP1 ISZERO ISZERO DUP2 EQ PUSH2 0x12F8 JUMPI PUSH1 0x0 DUP1 REVERT INVALID LOG2 PUSH5 0x6970667358 0x22 SLT KECCAK256 PUSH23 0xB062FADC9366E4C40F45889971F592789B5D76A157F3EF PUSH10 0x55BCCDD48BADE064736F PUSH13 0x63430008030033000000000000 "},"methodIdentifiers":{"ANY_ADDRESS()":"3f81a192","NAMESPACE()":"44ba1fca","authorize(address,bytes4)":"933f0f3c","call(address,bytes,uint256,bytes)":"cc58002c","claim(address,bytes)":"bb1757cf","collect(address,address,uint256,bytes)":"5af547e6","exit(address,address[],uint256[],uint256,bytes)":"ea8148a6","feeCollector()":"c415b95c","getPrice(address,address)":"ac41865a","getPriceFeed(address,address)":"9f0514ad","initialize(address)":"c4d66de8","investedValue(address)":"543b9235","isAuthorized(address,bytes4)":"d9972b96","isStrategyAllowed(address)":"67c1def9","join(address,address[],uint256[],uint256,bytes)":"1facc5d6","lastValue(address)":"ba03e93f","performanceFee()":"87788782","priceOracle()":"2630c12f","registry()":"7b103999","setFeeCollector(address)":"a42dce80","setPerformanceFee(uint256,uint256,address,uint256)":"9907dcf6","setPriceFeed(address,address,address)":"67a1d5ab","setPriceFeeds(address[],address[],address[])":"4ed31090","setPriceOracle(address)":"530e784f","setStrategy(address,bool)":"baa82a34","setSwapConnector(address)":"fee415f8","setSwapFee(uint256,uint256,address,uint256)":"6d9a76a9","setWithdrawFee(uint256,uint256,address,uint256)":"eea5c1ea","swap(uint8,address,address,uint256,uint8,uint256,bytes)":"37e0ac02","swapConnector()":"18f51fea","swapFee()":"54cf2aeb","unauthorize(address,bytes4)":"6646a436","unwrap(uint256,bytes)":"b413148e","withdraw(address,uint256,address,bytes)":"9003afee","withdrawFee()":"e941fa78","wrap(uint256,bytes)":"109b3c83","wrappedNativeToken()":"17fcb39b"}}}}}