{"contracts/SmartVaultDeployer.sol":{"SmartVaultDeployer":{"abi":[{"inputs":[{"components":[{"internalType":"contract IRegistry","name":"registry","type":"address"},{"components":[{"internalType":"address","name":"impl","type":"address"},{"internalType":"address","name":"admin","type":"address"},{"internalType":"address[]","name":"managers","type":"address[]"},{"components":[{"internalType":"address[]","name":"relayers","type":"address[]"},{"internalType":"uint256","name":"gasPriceLimit","type":"uint256"},{"internalType":"uint256","name":"totalCostLimit","type":"uint256"},{"internalType":"address","name":"payingGasToken","type":"address"}],"internalType":"struct Deployer.RelayedActionParams","name":"relayedActionParams","type":"tuple"},{"components":[{"internalType":"address","name":"recipient","type":"address"}],"internalType":"struct Deployer.WithdrawalActionParams","name":"withdrawalActionParams","type":"tuple"},{"components":[{"internalType":"address","name":"token","type":"address"},{"internalType":"uint256","name":"amount","type":"uint256"}],"internalType":"struct Deployer.TokenThresholdActionParams","name":"tokenThresholdActionParams","type":"tuple"}],"internalType":"struct SmartVaultDeployer.WrapperActionParams","name":"wrapperActionParams","type":"tuple"},{"components":[{"internalType":"address","name":"impl","type":"address"},{"internalType":"address","name":"admin","type":"address"},{"internalType":"address[]","name":"strategies","type":"address[]"},{"internalType":"address","name":"swapConnector","type":"address"},{"internalType":"address","name":"priceOracle","type":"address"},{"components":[{"internalType":"address","name":"base","type":"address"},{"internalType":"address","name":"quote","type":"address"},{"internalType":"address","name":"feed","type":"address"}],"internalType":"struct Deployer.PriceFeedParams[]","name":"priceFeedParams","type":"tuple[]"},{"internalType":"address","name":"feeCollector","type":"address"},{"components":[{"internalType":"uint256","name":"pct","type":"uint256"},{"internalType":"uint256","name":"cap","type":"uint256"},{"internalType":"address","name":"token","type":"address"},{"internalType":"uint256","name":"period","type":"uint256"}],"internalType":"struct Deployer.SmartVaultFeeParams","name":"swapFee","type":"tuple"},{"components":[{"internalType":"uint256","name":"pct","type":"uint256"},{"internalType":"uint256","name":"cap","type":"uint256"},{"internalType":"address","name":"token","type":"address"},{"internalType":"uint256","name":"period","type":"uint256"}],"internalType":"struct Deployer.SmartVaultFeeParams","name":"withdrawFee","type":"tuple"},{"components":[{"internalType":"uint256","name":"pct","type":"uint256"},{"internalType":"uint256","name":"cap","type":"uint256"},{"internalType":"address","name":"token","type":"address"},{"internalType":"uint256","name":"period","type":"uint256"}],"internalType":"struct Deployer.SmartVaultFeeParams","name":"performanceFee","type":"tuple"}],"internalType":"struct Deployer.SmartVaultParams","name":"smartVaultParams","type":"tuple"}],"internalType":"struct SmartVaultDeployer.Params","name":"params","type":"tuple"}],"name":"deploy","outputs":[],"stateMutability":"nonpayable","type":"function"}],"evm":{"bytecode":{"linkReferences":{"@mimic-fi/v2-smart-vaults-base/contracts/Deployer.sol":{"Deployer":[{"length":20,"start":151},{"length":20,"start":376},{"length":20,"start":553},{"length":20,"start":702},{"length":20,"start":875},{"length":20,"start":1071},{"length":20,"start":1245},{"length":20,"start":1404}]}},"object":"608060405234801561001057600080fd5b50611305806100206000396000f3fe608060405234801561001057600080fd5b506004361061002b5760003560e01c80637cac4a2714610030575b600080fd5b61004361003e366004610d34565b610045565b005b805160408083015190517fca5e274100000000000000000000000000000000000000000000000000000000815260009273__$d7dd469b5984c9ddc814a7a578689cee63$__9263ca5e2741926100a19291908690600401610f1a565b60206040518083038186803b1580156100b957600080fd5b505af41580156100cd573d6000803e3d6000fd5b505050506040513d601f19601f820116820180604052508101906100f19190610d11565b90506101018183602001516101a9565b506040828101516020015190517f366fc1af00000000000000000000000000000000000000000000000000000000815273ffffffffffffffffffffffffffffffffffffffff8084166004830152909116602482015273__$d7dd469b5984c9ddc814a7a578689cee63$__9063366fc1af9060440160006040518083038186803b15801561018d57600080fd5b505af41580156101a1573d6000803e3d6000fd5b505050505050565b805160208201516040517fd396850a00000000000000000000000000000000000000000000000000000000815273ffffffffffffffffffffffffffffffffffffffff8084166004830152918216602482015290841660448201526000919073__$d7dd469b5984c9ddc814a7a578689cee63$__9063d396850a9060640160006040518083038186803b15801561023e57600080fd5b505af4158015610252573d6000803e3d6000fd5b50505050600061027384602001518560400151866060015160000151610700565b6040517f8f81877d00000000000000000000000000000000000000000000000000000000815290915073__$d7dd469b5984c9ddc814a7a578689cee63$__90638f81877d906102ea90859085907f28b5e32b00000000000000000000000000000000000000000000000000000000906004016111a7565b60006040518083038186803b15801561030257600080fd5b505af4158015610316573d6000803e3d6000fd5b505050602085015160608601516040517fd2411b7200000000000000000000000000000000000000000000000000000000815273__$d7dd469b5984c9ddc814a7a578689cee63$__935063d2411b7292610374928792600401611137565b60006040518083038186803b15801561038c57600080fd5b505af41580156103a0573d6000803e3d6000fd5b5050505060208481015160a08601516040517f40b2fa1600000000000000000000000000000000000000000000000000000000815273ffffffffffffffffffffffffffffffffffffffff808716600483015292831660248201528151909216604483015290910151606482015273__$d7dd469b5984c9ddc814a7a578689cee63$__906340b2fa169060840160006040518083038186803b15801561044457600080fd5b505af4158015610458573d6000803e3d6000fd5b50505050602084015160808501516040517f7eff8a2900000000000000000000000000000000000000000000000000000000815273ffffffffffffffffffffffffffffffffffffffff808616600483015292831660248201529051909116604482015273__$d7dd469b5984c9ddc814a7a578689cee63$__90637eff8a299060640160006040518083038186803b1580156104f257600080fd5b505af4158015610506573d6000803e3d6000fd5b5050505060208401516040517f366fc1af00000000000000000000000000000000000000000000000000000000815273ffffffffffffffffffffffffffffffffffffffff8085166004830152909116602482015273__$d7dd469b5984c9ddc814a7a578689cee63$__9063366fc1af9060440160006040518083038186803b15801561059157600080fd5b505af41580156105a5573d6000803e3d6000fd5b50506040517f933f0f3c00000000000000000000000000000000000000000000000000000000815273ffffffffffffffffffffffffffffffffffffffff85811660048301527f109b3c830000000000000000000000000000000000000000000000000000000060248301528816925063933f0f3c9150604401600060405180830381600087803b15801561063857600080fd5b505af115801561064c573d6000803e3d6000fd5b50506040517f933f0f3c00000000000000000000000000000000000000000000000000000000815273ffffffffffffffffffffffffffffffffffffffff85811660048301527f9003afee0000000000000000000000000000000000000000000000000000000060248301528816925063933f0f3c9150604401600060405180830381600087803b1580156106df57600080fd5b505af11580156106f3573d6000803e3d6000fd5b5093979650505050505050565b6060610720600161071c8451865161071c90919063ffffffff16565b0190565b67ffffffffffffffff81111561075f577f4e487b7100000000000000000000000000000000000000000000000000000000600052604160045260246000fd5b604051908082528060200260200182016040528015610788578160200160208202803683370190505b50905083816000815181106107c6577f4e487b7100000000000000000000000000000000000000000000000000000000600052603260045260246000fd5b602002602001019073ffffffffffffffffffffffffffffffffffffffff16908173ffffffffffffffffffffffffffffffffffffffff168152505060005b83518110156108cf57838181518110610845577f4e487b7100000000000000000000000000000000000000000000000000000000600052603260045260246000fd5b60200260200101518261086260018461071c90919063ffffffff16565b81518110610899577f4e487b7100000000000000000000000000000000000000000000000000000000600052603260045260246000fd5b73ffffffffffffffffffffffffffffffffffffffff909216602092830291909101909101526108c88160010190565b9050610803565b5060005b82518110156109a457828181518110610915577f4e487b7100000000000000000000000000000000000000000000000000000000600052603260045260246000fd5b6020026020010151826109378361071c6001895161071c90919063ffffffff16565b8151811061096e577f4e487b7100000000000000000000000000000000000000000000000000000000600052603260045260246000fd5b73ffffffffffffffffffffffffffffffffffffffff9092166020928302919091019091015261099d8160010190565b90506108d3565b509392505050565b80356109b7816112aa565b919050565b600082601f8301126109cc578081fd5b813560206109e16109dc83611257565b611208565b80838252828201915082860187848660051b8901011115610a00578586fd5b855b85811015610a27578135610a15816112aa565b84529284019290840190600101610a02565b5090979650505050505050565b600082601f830112610a44578081fd5b81356020610a546109dc83611257565b82815281810190858301606080860288018501891015610a72578687fd5b865b86811015610ad65781838b031215610a8a578788fd5b610a9382611208565b8335610a9e816112aa565b815283870135610aad816112aa565b81880152604084810135610ac0816112aa565b9082015285529385019391810191600101610a74565b509198975050505050505050565b600060808284031215610af5578081fd5b610aff6080611208565b9050813567ffffffffffffffff811115610b1857600080fd5b610b24848285016109bc565b82525060208201356020820152604082013560408201526060820135610b49816112aa565b606082015292915050565b600060808284031215610b65578081fd5b610b6f6080611208565b905081358152602082013560208201526040820135610b8d816112aa565b806040830152506060820135606082015292915050565b60006102608284031215610bb6578081fd5b610bc1610140611208565b9050610bcc826109ac565b8152610bda602083016109ac565b6020820152604082013567ffffffffffffffff80821115610bfa57600080fd5b610c06858386016109bc565b6040840152610c17606085016109ac565b6060840152610c28608085016109ac565b608084015260a0840135915080821115610c4157600080fd5b50610c4e84828501610a34565b60a083015250610c6060c083016109ac565b60c0820152610c728360e08401610b54565b60e0820152610c85836101608401610b54565b610100820152610c99836101e08401610b54565b61012082015292915050565b600060408284031215610cb6578081fd5b610cc06040611208565b90508135610ccd816112aa565b808252506020820135602082015292915050565b600060208284031215610cf2578081fd5b610cfc6020611208565b90508135610d09816112aa565b815292915050565b600060208284031215610d22578081fd5b8151610d2d816112aa565b9392505050565b600060208284031215610d45578081fd5b813567ffffffffffffffff80821115610d5c578283fd5b9083019060608286031215610d6f578283fd5b610d796060611208565b8235610d84816112aa565b8152602083013582811115610d97578485fd5b830160e08188031215610da8578485fd5b610db260c0611208565b610dbb826109ac565b8152610dc9602083016109ac565b6020820152604082013584811115610ddf578687fd5b610deb898285016109bc565b604083015250606082013584811115610e02578687fd5b610e0e89828501610ae4565b606083015250610e218860808401610ce1565b6080820152610e338860a08401610ca5565b60a0820152602083015250604083013582811115610e4f578485fd5b610e5b87828601610ba4565b60408301525095945050505050565b6000815180845260208085019450808401835b83811015610eaf57815173ffffffffffffffffffffffffffffffffffffffff1687529582019590820190600101610e7d565b509495945050505050565b6000815180845260208085019450808401835b83811015610eaf578151805173ffffffffffffffffffffffffffffffffffffffff9081168952848201518116858a0152604091820151169088015260609096019590820190600101610ecd565b600073ffffffffffffffffffffffffffffffffffffffff8516825260606020830152610f5f60608301855173ffffffffffffffffffffffffffffffffffffffff169052565b602084015173ffffffffffffffffffffffffffffffffffffffff166080830152604084015161026060a0840152610f9a6102c0840182610e6a565b90506060850151610fc360c085018273ffffffffffffffffffffffffffffffffffffffff169052565b50608085015173ffffffffffffffffffffffffffffffffffffffff811660e08501525060a08501516101007fffffffffffffffffffffffffffffffffffffffffffffffffffffffffffffffa085840301818601526110218383610eba565b925060c0870151915061012061104e8187018473ffffffffffffffffffffffffffffffffffffffff169052565b60e088015180516101408801526020810151610160880152604081015173ffffffffffffffffffffffffffffffffffffffff1661018088015260608101516101a088015292508782015180516101c088015260208101516101e0880152604081015173ffffffffffffffffffffffffffffffffffffffff166102008801526060810151610220880152925087015180516102408701526020810151610260870152604081015173ffffffffffffffffffffffffffffffffffffffff1661028087015260608101516102a087015291506111249050565b5083151560408401529050949350505050565b600073ffffffffffffffffffffffffffffffffffffffff808616835280851660208401526060604084015283516080606085015261117860e0850182610e6a565b905060208501516080850152604085015160a08501528160608601511660c08501528092505050949350505050565b600073ffffffffffffffffffffffffffffffffffffffff85168252606060208301526111d66060830185610e6a565b90507fffffffff0000000000000000000000000000000000000000000000000000000083166040830152949350505050565b604051601f82017fffffffffffffffffffffffffffffffffffffffffffffffffffffffffffffffe016810167ffffffffffffffff8111828210171561124f5761124f61127b565b604052919050565b600067ffffffffffffffff8211156112715761127161127b565b5060051b60200190565b7f4e487b7100000000000000000000000000000000000000000000000000000000600052604160045260246000fd5b73ffffffffffffffffffffffffffffffffffffffff811681146112cc57600080fd5b5056fea2646970667358221220d2c3d61909b1458e86e9679cd1157f2db8a2017446a1060eef1f49f897a6fe2164736f6c63430008030033","opcodes":"PUSH1 0x80 PUSH1 0x40 MSTORE CALLVALUE DUP1 ISZERO PUSH2 0x10 JUMPI PUSH1 0x0 DUP1 REVERT JUMPDEST POP PUSH2 0x1305 DUP1 PUSH2 0x20 PUSH1 0x0 CODECOPY PUSH1 0x0 RETURN INVALID PUSH1 0x80 PUSH1 0x40 MSTORE CALLVALUE DUP1 ISZERO PUSH2 0x10 JUMPI PUSH1 0x0 DUP1 REVERT JUMPDEST POP PUSH1 0x4 CALLDATASIZE LT PUSH2 0x2B JUMPI PUSH1 0x0 CALLDATALOAD PUSH1 0xE0 SHR DUP1 PUSH4 0x7CAC4A27 EQ PUSH2 0x30 JUMPI JUMPDEST PUSH1 0x0 DUP1 REVERT JUMPDEST PUSH2 0x43 PUSH2 0x3E CALLDATASIZE PUSH1 0x4 PUSH2 0xD34 JUMP JUMPDEST PUSH2 0x45 JUMP JUMPDEST STOP JUMPDEST DUP1 MLOAD PUSH1 0x40 DUP1 DUP4 ADD MLOAD SWAP1 MLOAD PUSH32 0xCA5E274100000000000000000000000000000000000000000000000000000000 DUP2 MSTORE PUSH1 0x0 SWAP3 PUSH20 0x0 SWAP3 PUSH4 0xCA5E2741 SWAP3 PUSH2 0xA1 SWAP3 SWAP2 SWAP1 DUP7 SWAP1 PUSH1 0x4 ADD PUSH2 0xF1A JUMP JUMPDEST PUSH1 0x20 PUSH1 0x40 MLOAD DUP1 DUP4 SUB DUP2 DUP7 DUP1 EXTCODESIZE ISZERO DUP1 ISZERO PUSH2 0xB9 JUMPI PUSH1 0x0 DUP1 REVERT JUMPDEST POP GAS DELEGATECALL ISZERO DUP1 ISZERO PUSH2 0xCD JUMPI RETURNDATASIZE PUSH1 0x0 DUP1 RETURNDATACOPY RETURNDATASIZE PUSH1 0x0 REVERT JUMPDEST POP POP POP POP PUSH1 0x40 MLOAD RETURNDATASIZE PUSH1 0x1F NOT PUSH1 0x1F DUP3 ADD AND DUP3 ADD DUP1 PUSH1 0x40 MSTORE POP DUP2 ADD SWAP1 PUSH2 0xF1 SWAP2 SWAP1 PUSH2 0xD11 JUMP JUMPDEST SWAP1 POP PUSH2 0x101 DUP2 DUP4 PUSH1 0x20 ADD MLOAD PUSH2 0x1A9 JUMP JUMPDEST POP PUSH1 0x40 DUP3 DUP2 ADD MLOAD PUSH1 0x20 ADD MLOAD SWAP1 MLOAD PUSH32 0x366FC1AF00000000000000000000000000000000000000000000000000000000 DUP2 MSTORE PUSH20 0xFFFFFFFFFFFFFFFFFFFFFFFFFFFFFFFFFFFFFFFF DUP1 DUP5 AND PUSH1 0x4 DUP4 ADD MSTORE SWAP1 SWAP2 AND PUSH1 0x24 DUP3 ADD MSTORE PUSH20 0x0 SWAP1 PUSH4 0x366FC1AF SWAP1 PUSH1 0x44 ADD PUSH1 0x0 PUSH1 0x40 MLOAD DUP1 DUP4 SUB DUP2 DUP7 DUP1 EXTCODESIZE ISZERO DUP1 ISZERO PUSH2 0x18D JUMPI PUSH1 0x0 DUP1 REVERT JUMPDEST POP GAS DELEGATECALL ISZERO DUP1 ISZERO PUSH2 0x1A1 JUMPI RETURNDATASIZE PUSH1 0x0 DUP1 RETURNDATACOPY RETURNDATASIZE PUSH1 0x0 REVERT JUMPDEST POP POP POP POP POP POP JUMP JUMPDEST DUP1 MLOAD PUSH1 0x20 DUP3 ADD MLOAD PUSH1 0x40 MLOAD PUSH32 0xD396850A00000000000000000000000000000000000000000000000000000000 DUP2 MSTORE PUSH20 0xFFFFFFFFFFFFFFFFFFFFFFFFFFFFFFFFFFFFFFFF DUP1 DUP5 AND PUSH1 0x4 DUP4 ADD MSTORE SWAP2 DUP3 AND PUSH1 0x24 DUP3 ADD MSTORE SWAP1 DUP5 AND PUSH1 0x44 DUP3 ADD MSTORE PUSH1 0x0 SWAP2 SWAP1 PUSH20 0x0 SWAP1 PUSH4 0xD396850A SWAP1 PUSH1 0x64 ADD PUSH1 0x0 PUSH1 0x40 MLOAD DUP1 DUP4 SUB DUP2 DUP7 DUP1 EXTCODESIZE ISZERO DUP1 ISZERO PUSH2 0x23E JUMPI PUSH1 0x0 DUP1 REVERT JUMPDEST POP GAS DELEGATECALL ISZERO DUP1 ISZERO PUSH2 0x252 JUMPI RETURNDATASIZE PUSH1 0x0 DUP1 RETURNDATACOPY RETURNDATASIZE PUSH1 0x0 REVERT JUMPDEST POP POP POP POP PUSH1 0x0 PUSH2 0x273 DUP5 PUSH1 0x20 ADD MLOAD DUP6 PUSH1 0x40 ADD MLOAD DUP7 PUSH1 0x60 ADD MLOAD PUSH1 0x0 ADD MLOAD PUSH2 0x700 JUMP JUMPDEST PUSH1 0x40 MLOAD PUSH32 0x8F81877D00000000000000000000000000000000000000000000000000000000 DUP2 MSTORE SWAP1 SWAP2 POP PUSH20 0x0 SWAP1 PUSH4 0x8F81877D SWAP1 PUSH2 0x2EA SWAP1 DUP6 SWAP1 DUP6 SWAP1 PUSH32 0x28B5E32B00000000000000000000000000000000000000000000000000000000 SWAP1 PUSH1 0x4 ADD PUSH2 0x11A7 JUMP JUMPDEST PUSH1 0x0 PUSH1 0x40 MLOAD DUP1 DUP4 SUB DUP2 DUP7 DUP1 EXTCODESIZE ISZERO DUP1 ISZERO PUSH2 0x302 JUMPI PUSH1 0x0 DUP1 REVERT JUMPDEST POP GAS DELEGATECALL ISZERO DUP1 ISZERO PUSH2 0x316 JUMPI RETURNDATASIZE PUSH1 0x0 DUP1 RETURNDATACOPY RETURNDATASIZE PUSH1 0x0 REVERT JUMPDEST POP POP POP PUSH1 0x20 DUP6 ADD MLOAD PUSH1 0x60 DUP7 ADD MLOAD PUSH1 0x40 MLOAD PUSH32 0xD2411B7200000000000000000000000000000000000000000000000000000000 DUP2 MSTORE PUSH20 0x0 SWAP4 POP PUSH4 0xD2411B72 SWAP3 PUSH2 0x374 SWAP3 DUP8 SWAP3 PUSH1 0x4 ADD PUSH2 0x1137 JUMP JUMPDEST PUSH1 0x0 PUSH1 0x40 MLOAD DUP1 DUP4 SUB DUP2 DUP7 DUP1 EXTCODESIZE ISZERO DUP1 ISZERO PUSH2 0x38C JUMPI PUSH1 0x0 DUP1 REVERT JUMPDEST POP GAS DELEGATECALL ISZERO DUP1 ISZERO PUSH2 0x3A0 JUMPI RETURNDATASIZE PUSH1 0x0 DUP1 RETURNDATACOPY RETURNDATASIZE PUSH1 0x0 REVERT JUMPDEST POP POP POP POP PUSH1 0x20 DUP5 DUP2 ADD MLOAD PUSH1 0xA0 DUP7 ADD MLOAD PUSH1 0x40 MLOAD PUSH32 0x40B2FA1600000000000000000000000000000000000000000000000000000000 DUP2 MSTORE PUSH20 0xFFFFFFFFFFFFFFFFFFFFFFFFFFFFFFFFFFFFFFFF DUP1 DUP8 AND PUSH1 0x4 DUP4 ADD MSTORE SWAP3 DUP4 AND PUSH1 0x24 DUP3 ADD MSTORE DUP2 MLOAD SWAP1 SWAP3 AND PUSH1 0x44 DUP4 ADD MSTORE SWAP1 SWAP2 ADD MLOAD PUSH1 0x64 DUP3 ADD MSTORE PUSH20 0x0 SWAP1 PUSH4 0x40B2FA16 SWAP1 PUSH1 0x84 ADD PUSH1 0x0 PUSH1 0x40 MLOAD DUP1 DUP4 SUB DUP2 DUP7 DUP1 EXTCODESIZE ISZERO DUP1 ISZERO PUSH2 0x444 JUMPI PUSH1 0x0 DUP1 REVERT JUMPDEST POP GAS DELEGATECALL ISZERO DUP1 ISZERO PUSH2 0x458 JUMPI RETURNDATASIZE PUSH1 0x0 DUP1 RETURNDATACOPY RETURNDATASIZE PUSH1 0x0 REVERT JUMPDEST POP POP POP POP PUSH1 0x20 DUP5 ADD MLOAD PUSH1 0x80 DUP6 ADD MLOAD PUSH1 0x40 MLOAD PUSH32 0x7EFF8A2900000000000000000000000000000000000000000000000000000000 DUP2 MSTORE PUSH20 0xFFFFFFFFFFFFFFFFFFFFFFFFFFFFFFFFFFFFFFFF DUP1 DUP7 AND PUSH1 0x4 DUP4 ADD MSTORE SWAP3 DUP4 AND PUSH1 0x24 DUP3 ADD MSTORE SWAP1 MLOAD SWAP1 SWAP2 AND PUSH1 0x44 DUP3 ADD MSTORE PUSH20 0x0 SWAP1 PUSH4 0x7EFF8A29 SWAP1 PUSH1 0x64 ADD PUSH1 0x0 PUSH1 0x40 MLOAD DUP1 DUP4 SUB DUP2 DUP7 DUP1 EXTCODESIZE ISZERO DUP1 ISZERO PUSH2 0x4F2 JUMPI PUSH1 0x0 DUP1 REVERT JUMPDEST POP GAS DELEGATECALL ISZERO DUP1 ISZERO PUSH2 0x506 JUMPI RETURNDATASIZE PUSH1 0x0 DUP1 RETURNDATACOPY RETURNDATASIZE PUSH1 0x0 REVERT JUMPDEST POP POP POP POP PUSH1 0x20 DUP5 ADD MLOAD PUSH1 0x40 MLOAD PUSH32 0x366FC1AF00000000000000000000000000000000000000000000000000000000 DUP2 MSTORE PUSH20 0xFFFFFFFFFFFFFFFFFFFFFFFFFFFFFFFFFFFFFFFF DUP1 DUP6 AND PUSH1 0x4 DUP4 ADD MSTORE SWAP1 SWAP2 AND PUSH1 0x24 DUP3 ADD MSTORE PUSH20 0x0 SWAP1 PUSH4 0x366FC1AF SWAP1 PUSH1 0x44 ADD PUSH1 0x0 PUSH1 0x40 MLOAD DUP1 DUP4 SUB DUP2 DUP7 DUP1 EXTCODESIZE ISZERO DUP1 ISZERO PUSH2 0x591 JUMPI PUSH1 0x0 DUP1 REVERT JUMPDEST POP GAS DELEGATECALL ISZERO DUP1 ISZERO PUSH2 0x5A5 JUMPI RETURNDATASIZE PUSH1 0x0 DUP1 RETURNDATACOPY RETURNDATASIZE PUSH1 0x0 REVERT JUMPDEST POP POP PUSH1 0x40 MLOAD PUSH32 0x933F0F3C00000000000000000000000000000000000000000000000000000000 DUP2 MSTORE PUSH20 0xFFFFFFFFFFFFFFFFFFFFFFFFFFFFFFFFFFFFFFFF DUP6 DUP2 AND PUSH1 0x4 DUP4 ADD MSTORE PUSH32 0x109B3C8300000000000000000000000000000000000000000000000000000000 PUSH1 0x24 DUP4 ADD MSTORE DUP9 AND SWAP3 POP PUSH4 0x933F0F3C SWAP2 POP PUSH1 0x44 ADD PUSH1 0x0 PUSH1 0x40 MLOAD DUP1 DUP4 SUB DUP2 PUSH1 0x0 DUP8 DUP1 EXTCODESIZE ISZERO DUP1 ISZERO PUSH2 0x638 JUMPI PUSH1 0x0 DUP1 REVERT JUMPDEST POP GAS CALL ISZERO DUP1 ISZERO PUSH2 0x64C JUMPI RETURNDATASIZE PUSH1 0x0 DUP1 RETURNDATACOPY RETURNDATASIZE PUSH1 0x0 REVERT JUMPDEST POP POP PUSH1 0x40 MLOAD PUSH32 0x933F0F3C00000000000000000000000000000000000000000000000000000000 DUP2 MSTORE PUSH20 0xFFFFFFFFFFFFFFFFFFFFFFFFFFFFFFFFFFFFFFFF DUP6 DUP2 AND PUSH1 0x4 DUP4 ADD MSTORE PUSH32 0x9003AFEE00000000000000000000000000000000000000000000000000000000 PUSH1 0x24 DUP4 ADD MSTORE DUP9 AND SWAP3 POP PUSH4 0x933F0F3C SWAP2 POP PUSH1 0x44 ADD PUSH1 0x0 PUSH1 0x40 MLOAD DUP1 DUP4 SUB DUP2 PUSH1 0x0 DUP8 DUP1 EXTCODESIZE ISZERO DUP1 ISZERO PUSH2 0x6DF JUMPI PUSH1 0x0 DUP1 REVERT JUMPDEST POP GAS CALL ISZERO DUP1 ISZERO PUSH2 0x6F3 JUMPI RETURNDATASIZE PUSH1 0x0 DUP1 RETURNDATACOPY RETURNDATASIZE PUSH1 0x0 REVERT JUMPDEST POP SWAP4 SWAP8 SWAP7 POP POP POP POP POP POP POP JUMP JUMPDEST PUSH1 0x60 PUSH2 0x720 PUSH1 0x1 PUSH2 0x71C DUP5 MLOAD DUP7 MLOAD PUSH2 0x71C SWAP1 SWAP2 SWAP1 PUSH4 0xFFFFFFFF AND JUMP JUMPDEST ADD SWAP1 JUMP JUMPDEST PUSH8 0xFFFFFFFFFFFFFFFF DUP2 GT ISZERO PUSH2 0x75F JUMPI PUSH32 0x4E487B7100000000000000000000000000000000000000000000000000000000 PUSH1 0x0 MSTORE PUSH1 0x41 PUSH1 0x4 MSTORE PUSH1 0x24 PUSH1 0x0 REVERT JUMPDEST PUSH1 0x40 MLOAD SWAP1 DUP1 DUP3 MSTORE DUP1 PUSH1 0x20 MUL PUSH1 0x20 ADD DUP3 ADD PUSH1 0x40 MSTORE DUP1 ISZERO PUSH2 0x788 JUMPI DUP2 PUSH1 0x20 ADD PUSH1 0x20 DUP3 MUL DUP1 CALLDATASIZE DUP4 CALLDATACOPY ADD SWAP1 POP JUMPDEST POP SWAP1 POP DUP4 DUP2 PUSH1 0x0 DUP2 MLOAD DUP2 LT PUSH2 0x7C6 JUMPI PUSH32 0x4E487B7100000000000000000000000000000000000000000000000000000000 PUSH1 0x0 MSTORE PUSH1 0x32 PUSH1 0x4 MSTORE PUSH1 0x24 PUSH1 0x0 REVERT JUMPDEST PUSH1 0x20 MUL PUSH1 0x20 ADD ADD SWAP1 PUSH20 0xFFFFFFFFFFFFFFFFFFFFFFFFFFFFFFFFFFFFFFFF AND SWAP1 DUP2 PUSH20 0xFFFFFFFFFFFFFFFFFFFFFFFFFFFFFFFFFFFFFFFF AND DUP2 MSTORE POP POP PUSH1 0x0 JUMPDEST DUP4 MLOAD DUP2 LT ISZERO PUSH2 0x8CF JUMPI DUP4 DUP2 DUP2 MLOAD DUP2 LT PUSH2 0x845 JUMPI PUSH32 0x4E487B7100000000000000000000000000000000000000000000000000000000 PUSH1 0x0 MSTORE PUSH1 0x32 PUSH1 0x4 MSTORE PUSH1 0x24 PUSH1 0x0 REVERT JUMPDEST PUSH1 0x20 MUL PUSH1 0x20 ADD ADD MLOAD DUP3 PUSH2 0x862 PUSH1 0x1 DUP5 PUSH2 0x71C SWAP1 SWAP2 SWAP1 PUSH4 0xFFFFFFFF AND JUMP JUMPDEST DUP2 MLOAD DUP2 LT PUSH2 0x899 JUMPI PUSH32 0x4E487B7100000000000000000000000000000000000000000000000000000000 PUSH1 0x0 MSTORE PUSH1 0x32 PUSH1 0x4 MSTORE PUSH1 0x24 PUSH1 0x0 REVERT JUMPDEST PUSH20 0xFFFFFFFFFFFFFFFFFFFFFFFFFFFFFFFFFFFFFFFF SWAP1 SWAP3 AND PUSH1 0x20 SWAP3 DUP4 MUL SWAP2 SWAP1 SWAP2 ADD SWAP1 SWAP2 ADD MSTORE PUSH2 0x8C8 DUP2 PUSH1 0x1 ADD SWAP1 JUMP JUMPDEST SWAP1 POP PUSH2 0x803 JUMP JUMPDEST POP PUSH1 0x0 JUMPDEST DUP3 MLOAD DUP2 LT ISZERO PUSH2 0x9A4 JUMPI DUP3 DUP2 DUP2 MLOAD DUP2 LT PUSH2 0x915 JUMPI PUSH32 0x4E487B7100000000000000000000000000000000000000000000000000000000 PUSH1 0x0 MSTORE PUSH1 0x32 PUSH1 0x4 MSTORE PUSH1 0x24 PUSH1 0x0 REVERT JUMPDEST PUSH1 0x20 MUL PUSH1 0x20 ADD ADD MLOAD DUP3 PUSH2 0x937 DUP4 PUSH2 0x71C PUSH1 0x1 DUP10 MLOAD PUSH2 0x71C SWAP1 SWAP2 SWAP1 PUSH4 0xFFFFFFFF AND JUMP JUMPDEST DUP2 MLOAD DUP2 LT PUSH2 0x96E JUMPI PUSH32 0x4E487B7100000000000000000000000000000000000000000000000000000000 PUSH1 0x0 MSTORE PUSH1 0x32 PUSH1 0x4 MSTORE PUSH1 0x24 PUSH1 0x0 REVERT JUMPDEST PUSH20 0xFFFFFFFFFFFFFFFFFFFFFFFFFFFFFFFFFFFFFFFF SWAP1 SWAP3 AND PUSH1 0x20 SWAP3 DUP4 MUL SWAP2 SWAP1 SWAP2 ADD SWAP1 SWAP2 ADD MSTORE PUSH2 0x99D DUP2 PUSH1 0x1 ADD SWAP1 JUMP JUMPDEST SWAP1 POP PUSH2 0x8D3 JUMP JUMPDEST POP SWAP4 SWAP3 POP POP POP JUMP JUMPDEST DUP1 CALLDATALOAD PUSH2 0x9B7 DUP2 PUSH2 0x12AA JUMP JUMPDEST SWAP2 SWAP1 POP JUMP JUMPDEST PUSH1 0x0 DUP3 PUSH1 0x1F DUP4 ADD SLT PUSH2 0x9CC JUMPI DUP1 DUP2 REVERT JUMPDEST DUP2 CALLDATALOAD PUSH1 0x20 PUSH2 0x9E1 PUSH2 0x9DC DUP4 PUSH2 0x1257 JUMP JUMPDEST PUSH2 0x1208 JUMP JUMPDEST DUP1 DUP4 DUP3 MSTORE DUP3 DUP3 ADD SWAP2 POP DUP3 DUP7 ADD DUP8 DUP5 DUP7 PUSH1 0x5 SHL DUP10 ADD ADD GT ISZERO PUSH2 0xA00 JUMPI DUP6 DUP7 REVERT JUMPDEST DUP6 JUMPDEST DUP6 DUP2 LT ISZERO PUSH2 0xA27 JUMPI DUP2 CALLDATALOAD PUSH2 0xA15 DUP2 PUSH2 0x12AA JUMP JUMPDEST DUP5 MSTORE SWAP3 DUP5 ADD SWAP3 SWAP1 DUP5 ADD SWAP1 PUSH1 0x1 ADD PUSH2 0xA02 JUMP JUMPDEST POP SWAP1 SWAP8 SWAP7 POP POP POP POP POP POP POP JUMP JUMPDEST PUSH1 0x0 DUP3 PUSH1 0x1F DUP4 ADD SLT PUSH2 0xA44 JUMPI DUP1 DUP2 REVERT JUMPDEST DUP2 CALLDATALOAD PUSH1 0x20 PUSH2 0xA54 PUSH2 0x9DC DUP4 PUSH2 0x1257 JUMP JUMPDEST DUP3 DUP2 MSTORE DUP2 DUP2 ADD SWAP1 DUP6 DUP4 ADD PUSH1 0x60 DUP1 DUP7 MUL DUP9 ADD DUP6 ADD DUP10 LT ISZERO PUSH2 0xA72 JUMPI DUP7 DUP8 REVERT JUMPDEST DUP7 JUMPDEST DUP7 DUP2 LT ISZERO PUSH2 0xAD6 JUMPI DUP2 DUP4 DUP12 SUB SLT ISZERO PUSH2 0xA8A JUMPI DUP8 DUP9 REVERT JUMPDEST PUSH2 0xA93 DUP3 PUSH2 0x1208 JUMP JUMPDEST DUP4 CALLDATALOAD PUSH2 0xA9E DUP2 PUSH2 0x12AA JUMP JUMPDEST DUP2 MSTORE DUP4 DUP8 ADD CALLDATALOAD PUSH2 0xAAD DUP2 PUSH2 0x12AA JUMP JUMPDEST DUP2 DUP9 ADD MSTORE PUSH1 0x40 DUP5 DUP2 ADD CALLDATALOAD PUSH2 0xAC0 DUP2 PUSH2 0x12AA JUMP JUMPDEST SWAP1 DUP3 ADD MSTORE DUP6 MSTORE SWAP4 DUP6 ADD SWAP4 SWAP2 DUP2 ADD SWAP2 PUSH1 0x1 ADD PUSH2 0xA74 JUMP JUMPDEST POP SWAP2 SWAP9 SWAP8 POP POP POP POP POP POP POP POP JUMP JUMPDEST PUSH1 0x0 PUSH1 0x80 DUP3 DUP5 SUB SLT ISZERO PUSH2 0xAF5 JUMPI DUP1 DUP2 REVERT JUMPDEST PUSH2 0xAFF PUSH1 0x80 PUSH2 0x1208 JUMP JUMPDEST SWAP1 POP DUP2 CALLDATALOAD PUSH8 0xFFFFFFFFFFFFFFFF DUP2 GT ISZERO PUSH2 0xB18 JUMPI PUSH1 0x0 DUP1 REVERT JUMPDEST PUSH2 0xB24 DUP5 DUP3 DUP6 ADD PUSH2 0x9BC JUMP JUMPDEST DUP3 MSTORE POP PUSH1 0x20 DUP3 ADD CALLDATALOAD PUSH1 0x20 DUP3 ADD MSTORE PUSH1 0x40 DUP3 ADD CALLDATALOAD PUSH1 0x40 DUP3 ADD MSTORE PUSH1 0x60 DUP3 ADD CALLDATALOAD PUSH2 0xB49 DUP2 PUSH2 0x12AA JUMP JUMPDEST PUSH1 0x60 DUP3 ADD MSTORE SWAP3 SWAP2 POP POP JUMP JUMPDEST PUSH1 0x0 PUSH1 0x80 DUP3 DUP5 SUB SLT ISZERO PUSH2 0xB65 JUMPI DUP1 DUP2 REVERT JUMPDEST PUSH2 0xB6F PUSH1 0x80 PUSH2 0x1208 JUMP JUMPDEST SWAP1 POP DUP2 CALLDATALOAD DUP2 MSTORE PUSH1 0x20 DUP3 ADD CALLDATALOAD PUSH1 0x20 DUP3 ADD MSTORE PUSH1 0x40 DUP3 ADD CALLDATALOAD PUSH2 0xB8D DUP2 PUSH2 0x12AA JUMP JUMPDEST DUP1 PUSH1 0x40 DUP4 ADD MSTORE POP PUSH1 0x60 DUP3 ADD CALLDATALOAD PUSH1 0x60 DUP3 ADD MSTORE SWAP3 SWAP2 POP POP JUMP JUMPDEST PUSH1 0x0 PUSH2 0x260 DUP3 DUP5 SUB SLT ISZERO PUSH2 0xBB6 JUMPI DUP1 DUP2 REVERT JUMPDEST PUSH2 0xBC1 PUSH2 0x140 PUSH2 0x1208 JUMP JUMPDEST SWAP1 POP PUSH2 0xBCC DUP3 PUSH2 0x9AC JUMP JUMPDEST DUP2 MSTORE PUSH2 0xBDA PUSH1 0x20 DUP4 ADD PUSH2 0x9AC JUMP JUMPDEST PUSH1 0x20 DUP3 ADD MSTORE PUSH1 0x40 DUP3 ADD CALLDATALOAD PUSH8 0xFFFFFFFFFFFFFFFF DUP1 DUP3 GT ISZERO PUSH2 0xBFA JUMPI PUSH1 0x0 DUP1 REVERT JUMPDEST PUSH2 0xC06 DUP6 DUP4 DUP7 ADD PUSH2 0x9BC JUMP JUMPDEST PUSH1 0x40 DUP5 ADD MSTORE PUSH2 0xC17 PUSH1 0x60 DUP6 ADD PUSH2 0x9AC JUMP JUMPDEST PUSH1 0x60 DUP5 ADD MSTORE PUSH2 0xC28 PUSH1 0x80 DUP6 ADD PUSH2 0x9AC JUMP JUMPDEST PUSH1 0x80 DUP5 ADD MSTORE PUSH1 0xA0 DUP5 ADD CALLDATALOAD SWAP2 POP DUP1 DUP3 GT ISZERO PUSH2 0xC41 JUMPI PUSH1 0x0 DUP1 REVERT JUMPDEST POP PUSH2 0xC4E DUP5 DUP3 DUP6 ADD PUSH2 0xA34 JUMP JUMPDEST PUSH1 0xA0 DUP4 ADD MSTORE POP PUSH2 0xC60 PUSH1 0xC0 DUP4 ADD PUSH2 0x9AC JUMP JUMPDEST PUSH1 0xC0 DUP3 ADD MSTORE PUSH2 0xC72 DUP4 PUSH1 0xE0 DUP5 ADD PUSH2 0xB54 JUMP JUMPDEST PUSH1 0xE0 DUP3 ADD MSTORE PUSH2 0xC85 DUP4 PUSH2 0x160 DUP5 ADD PUSH2 0xB54 JUMP JUMPDEST PUSH2 0x100 DUP3 ADD MSTORE PUSH2 0xC99 DUP4 PUSH2 0x1E0 DUP5 ADD PUSH2 0xB54 JUMP JUMPDEST PUSH2 0x120 DUP3 ADD MSTORE SWAP3 SWAP2 POP POP JUMP JUMPDEST PUSH1 0x0 PUSH1 0x40 DUP3 DUP5 SUB SLT ISZERO PUSH2 0xCB6 JUMPI DUP1 DUP2 REVERT JUMPDEST PUSH2 0xCC0 PUSH1 0x40 PUSH2 0x1208 JUMP JUMPDEST SWAP1 POP DUP2 CALLDATALOAD PUSH2 0xCCD DUP2 PUSH2 0x12AA JUMP JUMPDEST DUP1 DUP3 MSTORE POP PUSH1 0x20 DUP3 ADD CALLDATALOAD PUSH1 0x20 DUP3 ADD MSTORE SWAP3 SWAP2 POP POP JUMP JUMPDEST PUSH1 0x0 PUSH1 0x20 DUP3 DUP5 SUB SLT ISZERO PUSH2 0xCF2 JUMPI DUP1 DUP2 REVERT JUMPDEST PUSH2 0xCFC PUSH1 0x20 PUSH2 0x1208 JUMP JUMPDEST SWAP1 POP DUP2 CALLDATALOAD PUSH2 0xD09 DUP2 PUSH2 0x12AA JUMP JUMPDEST DUP2 MSTORE SWAP3 SWAP2 POP POP JUMP JUMPDEST PUSH1 0x0 PUSH1 0x20 DUP3 DUP5 SUB SLT ISZERO PUSH2 0xD22 JUMPI DUP1 DUP2 REVERT JUMPDEST DUP2 MLOAD PUSH2 0xD2D DUP2 PUSH2 0x12AA JUMP JUMPDEST SWAP4 SWAP3 POP POP POP JUMP JUMPDEST PUSH1 0x0 PUSH1 0x20 DUP3 DUP5 SUB SLT ISZERO PUSH2 0xD45 JUMPI DUP1 DUP2 REVERT JUMPDEST DUP2 CALLDATALOAD PUSH8 0xFFFFFFFFFFFFFFFF DUP1 DUP3 GT ISZERO PUSH2 0xD5C JUMPI DUP3 DUP4 REVERT JUMPDEST SWAP1 DUP4 ADD SWAP1 PUSH1 0x60 DUP3 DUP7 SUB SLT ISZERO PUSH2 0xD6F JUMPI DUP3 DUP4 REVERT JUMPDEST PUSH2 0xD79 PUSH1 0x60 PUSH2 0x1208 JUMP JUMPDEST DUP3 CALLDATALOAD PUSH2 0xD84 DUP2 PUSH2 0x12AA JUMP JUMPDEST DUP2 MSTORE PUSH1 0x20 DUP4 ADD CALLDATALOAD DUP3 DUP2 GT ISZERO PUSH2 0xD97 JUMPI DUP5 DUP6 REVERT JUMPDEST DUP4 ADD PUSH1 0xE0 DUP2 DUP9 SUB SLT ISZERO PUSH2 0xDA8 JUMPI DUP5 DUP6 REVERT JUMPDEST PUSH2 0xDB2 PUSH1 0xC0 PUSH2 0x1208 JUMP JUMPDEST PUSH2 0xDBB DUP3 PUSH2 0x9AC JUMP JUMPDEST DUP2 MSTORE PUSH2 0xDC9 PUSH1 0x20 DUP4 ADD PUSH2 0x9AC JUMP JUMPDEST PUSH1 0x20 DUP3 ADD MSTORE PUSH1 0x40 DUP3 ADD CALLDATALOAD DUP5 DUP2 GT ISZERO PUSH2 0xDDF JUMPI DUP7 DUP8 REVERT JUMPDEST PUSH2 0xDEB DUP10 DUP3 DUP6 ADD PUSH2 0x9BC JUMP JUMPDEST PUSH1 0x40 DUP4 ADD MSTORE POP PUSH1 0x60 DUP3 ADD CALLDATALOAD DUP5 DUP2 GT ISZERO PUSH2 0xE02 JUMPI DUP7 DUP8 REVERT JUMPDEST PUSH2 0xE0E DUP10 DUP3 DUP6 ADD PUSH2 0xAE4 JUMP JUMPDEST PUSH1 0x60 DUP4 ADD MSTORE POP PUSH2 0xE21 DUP9 PUSH1 0x80 DUP5 ADD PUSH2 0xCE1 JUMP JUMPDEST PUSH1 0x80 DUP3 ADD MSTORE PUSH2 0xE33 DUP9 PUSH1 0xA0 DUP5 ADD PUSH2 0xCA5 JUMP JUMPDEST PUSH1 0xA0 DUP3 ADD MSTORE PUSH1 0x20 DUP4 ADD MSTORE POP PUSH1 0x40 DUP4 ADD CALLDATALOAD DUP3 DUP2 GT ISZERO PUSH2 0xE4F JUMPI DUP5 DUP6 REVERT JUMPDEST PUSH2 0xE5B DUP8 DUP3 DUP7 ADD PUSH2 0xBA4 JUMP JUMPDEST PUSH1 0x40 DUP4 ADD MSTORE POP SWAP6 SWAP5 POP POP POP POP POP JUMP JUMPDEST PUSH1 0x0 DUP2 MLOAD DUP1 DUP5 MSTORE PUSH1 0x20 DUP1 DUP6 ADD SWAP5 POP DUP1 DUP5 ADD DUP4 JUMPDEST DUP4 DUP2 LT ISZERO PUSH2 0xEAF JUMPI DUP2 MLOAD PUSH20 0xFFFFFFFFFFFFFFFFFFFFFFFFFFFFFFFFFFFFFFFF AND DUP8 MSTORE SWAP6 DUP3 ADD SWAP6 SWAP1 DUP3 ADD SWAP1 PUSH1 0x1 ADD PUSH2 0xE7D JUMP JUMPDEST POP SWAP5 SWAP6 SWAP5 POP POP POP POP POP JUMP JUMPDEST PUSH1 0x0 DUP2 MLOAD DUP1 DUP5 MSTORE PUSH1 0x20 DUP1 DUP6 ADD SWAP5 POP DUP1 DUP5 ADD DUP4 JUMPDEST DUP4 DUP2 LT ISZERO PUSH2 0xEAF JUMPI DUP2 MLOAD DUP1 MLOAD PUSH20 0xFFFFFFFFFFFFFFFFFFFFFFFFFFFFFFFFFFFFFFFF SWAP1 DUP2 AND DUP10 MSTORE DUP5 DUP3 ADD MLOAD DUP2 AND DUP6 DUP11 ADD MSTORE PUSH1 0x40 SWAP2 DUP3 ADD MLOAD AND SWAP1 DUP9 ADD MSTORE PUSH1 0x60 SWAP1 SWAP7 ADD SWAP6 SWAP1 DUP3 ADD SWAP1 PUSH1 0x1 ADD PUSH2 0xECD JUMP JUMPDEST PUSH1 0x0 PUSH20 0xFFFFFFFFFFFFFFFFFFFFFFFFFFFFFFFFFFFFFFFF DUP6 AND DUP3 MSTORE PUSH1 0x60 PUSH1 0x20 DUP4 ADD MSTORE PUSH2 0xF5F PUSH1 0x60 DUP4 ADD DUP6 MLOAD PUSH20 0xFFFFFFFFFFFFFFFFFFFFFFFFFFFFFFFFFFFFFFFF AND SWAP1 MSTORE JUMP JUMPDEST PUSH1 0x20 DUP5 ADD MLOAD PUSH20 0xFFFFFFFFFFFFFFFFFFFFFFFFFFFFFFFFFFFFFFFF AND PUSH1 0x80 DUP4 ADD MSTORE PUSH1 0x40 DUP5 ADD MLOAD PUSH2 0x260 PUSH1 0xA0 DUP5 ADD MSTORE PUSH2 0xF9A PUSH2 0x2C0 DUP5 ADD DUP3 PUSH2 0xE6A JUMP JUMPDEST SWAP1 POP PUSH1 0x60 DUP6 ADD MLOAD PUSH2 0xFC3 PUSH1 0xC0 DUP6 ADD DUP3 PUSH20 0xFFFFFFFFFFFFFFFFFFFFFFFFFFFFFFFFFFFFFFFF AND SWAP1 MSTORE JUMP JUMPDEST POP PUSH1 0x80 DUP6 ADD MLOAD PUSH20 0xFFFFFFFFFFFFFFFFFFFFFFFFFFFFFFFFFFFFFFFF DUP2 AND PUSH1 0xE0 DUP6 ADD MSTORE POP PUSH1 0xA0 DUP6 ADD MLOAD PUSH2 0x100 PUSH32 0xFFFFFFFFFFFFFFFFFFFFFFFFFFFFFFFFFFFFFFFFFFFFFFFFFFFFFFFFFFFFFFA0 DUP6 DUP5 SUB ADD DUP2 DUP7 ADD MSTORE PUSH2 0x1021 DUP4 DUP4 PUSH2 0xEBA JUMP JUMPDEST SWAP3 POP PUSH1 0xC0 DUP8 ADD MLOAD SWAP2 POP PUSH2 0x120 PUSH2 0x104E DUP2 DUP8 ADD DUP5 PUSH20 0xFFFFFFFFFFFFFFFFFFFFFFFFFFFFFFFFFFFFFFFF AND SWAP1 MSTORE JUMP JUMPDEST PUSH1 0xE0 DUP9 ADD MLOAD DUP1 MLOAD PUSH2 0x140 DUP9 ADD MSTORE PUSH1 0x20 DUP2 ADD MLOAD PUSH2 0x160 DUP9 ADD MSTORE PUSH1 0x40 DUP2 ADD MLOAD PUSH20 0xFFFFFFFFFFFFFFFFFFFFFFFFFFFFFFFFFFFFFFFF AND PUSH2 0x180 DUP9 ADD MSTORE PUSH1 0x60 DUP2 ADD MLOAD PUSH2 0x1A0 DUP9 ADD MSTORE SWAP3 POP DUP8 DUP3 ADD MLOAD DUP1 MLOAD PUSH2 0x1C0 DUP9 ADD MSTORE PUSH1 0x20 DUP2 ADD MLOAD PUSH2 0x1E0 DUP9 ADD MSTORE PUSH1 0x40 DUP2 ADD MLOAD PUSH20 0xFFFFFFFFFFFFFFFFFFFFFFFFFFFFFFFFFFFFFFFF AND PUSH2 0x200 DUP9 ADD MSTORE PUSH1 0x60 DUP2 ADD MLOAD PUSH2 0x220 DUP9 ADD MSTORE SWAP3 POP DUP8 ADD MLOAD DUP1 MLOAD PUSH2 0x240 DUP8 ADD MSTORE PUSH1 0x20 DUP2 ADD MLOAD PUSH2 0x260 DUP8 ADD MSTORE PUSH1 0x40 DUP2 ADD MLOAD PUSH20 0xFFFFFFFFFFFFFFFFFFFFFFFFFFFFFFFFFFFFFFFF AND PUSH2 0x280 DUP8 ADD MSTORE PUSH1 0x60 DUP2 ADD MLOAD PUSH2 0x2A0 DUP8 ADD MSTORE SWAP2 POP PUSH2 0x1124 SWAP1 POP JUMP JUMPDEST POP DUP4 ISZERO ISZERO PUSH1 0x40 DUP5 ADD MSTORE SWAP1 POP SWAP5 SWAP4 POP POP POP POP JUMP JUMPDEST PUSH1 0x0 PUSH20 0xFFFFFFFFFFFFFFFFFFFFFFFFFFFFFFFFFFFFFFFF DUP1 DUP7 AND DUP4 MSTORE DUP1 DUP6 AND PUSH1 0x20 DUP5 ADD MSTORE PUSH1 0x60 PUSH1 0x40 DUP5 ADD MSTORE DUP4 MLOAD PUSH1 0x80 PUSH1 0x60 DUP6 ADD MSTORE PUSH2 0x1178 PUSH1 0xE0 DUP6 ADD DUP3 PUSH2 0xE6A JUMP JUMPDEST SWAP1 POP PUSH1 0x20 DUP6 ADD MLOAD PUSH1 0x80 DUP6 ADD MSTORE PUSH1 0x40 DUP6 ADD MLOAD PUSH1 0xA0 DUP6 ADD MSTORE DUP2 PUSH1 0x60 DUP7 ADD MLOAD AND PUSH1 0xC0 DUP6 ADD MSTORE DUP1 SWAP3 POP POP POP SWAP5 SWAP4 POP POP POP POP JUMP JUMPDEST PUSH1 0x0 PUSH20 0xFFFFFFFFFFFFFFFFFFFFFFFFFFFFFFFFFFFFFFFF DUP6 AND DUP3 MSTORE PUSH1 0x60 PUSH1 0x20 DUP4 ADD MSTORE PUSH2 0x11D6 PUSH1 0x60 DUP4 ADD DUP6 PUSH2 0xE6A JUMP JUMPDEST SWAP1 POP PUSH32 0xFFFFFFFF00000000000000000000000000000000000000000000000000000000 DUP4 AND PUSH1 0x40 DUP4 ADD MSTORE SWAP5 SWAP4 POP POP POP POP JUMP JUMPDEST PUSH1 0x40 MLOAD PUSH1 0x1F DUP3 ADD PUSH32 0xFFFFFFFFFFFFFFFFFFFFFFFFFFFFFFFFFFFFFFFFFFFFFFFFFFFFFFFFFFFFFFE0 AND DUP2 ADD PUSH8 0xFFFFFFFFFFFFFFFF DUP2 GT DUP3 DUP3 LT OR ISZERO PUSH2 0x124F JUMPI PUSH2 0x124F PUSH2 0x127B JUMP JUMPDEST PUSH1 0x40 MSTORE SWAP2 SWAP1 POP JUMP JUMPDEST PUSH1 0x0 PUSH8 0xFFFFFFFFFFFFFFFF DUP3 GT ISZERO PUSH2 0x1271 JUMPI PUSH2 0x1271 PUSH2 0x127B JUMP JUMPDEST POP PUSH1 0x5 SHL PUSH1 0x20 ADD SWAP1 JUMP JUMPDEST PUSH32 0x4E487B7100000000000000000000000000000000000000000000000000000000 PUSH1 0x0 MSTORE PUSH1 0x41 PUSH1 0x4 MSTORE PUSH1 0x24 PUSH1 0x0 REVERT JUMPDEST PUSH20 0xFFFFFFFFFFFFFFFFFFFFFFFFFFFFFFFFFFFFFFFF DUP2 AND DUP2 EQ PUSH2 0x12CC JUMPI PUSH1 0x0 DUP1 REVERT JUMPDEST POP JUMP INVALID LOG2 PUSH5 0x6970667358 0x22 SLT KECCAK256 0xD2 0xC3 0xD6 NOT MULMOD 0xB1 GASLIMIT DUP15 DUP7 0xE9 PUSH8 0x9CD1157F2DB8A201 PUSH21 0x46A1060EEF1F49F897A6FE2164736F6C6343000803 STOP CALLER "},"methodIdentifiers":{"deploy((address,(address,address,address[],(address[],uint256,uint256,address),(address),(address,uint256)),(address,address,address[],address,address,(address,address,address)[],address,(uint256,uint256,address,uint256),(uint256,uint256,address,uint256),(uint256,uint256,address,uint256))))":"7cac4a27"}}}}}