{"contracts/actions/Wrapper.sol":{"Wrapper":{"abi":[{"inputs":[{"internalType":"address","name":"admin","type":"address"},{"internalType":"address","name":"registry","type":"address"}],"stateMutability":"nonpayable","type":"constructor"},{"anonymous":false,"inputs":[{"indexed":true,"internalType":"address","name":"who","type":"address"},{"indexed":false,"internalType":"bytes4","name":"what","type":"bytes4"}],"name":"Authorized","type":"event"},{"anonymous":false,"inputs":[],"name":"Executed","type":"event"},{"anonymous":false,"inputs":[{"indexed":false,"internalType":"uint256","name":"gasPriceLimit","type":"uint256"},{"indexed":false,"internalType":"uint256","name":"totalCostLimit","type":"uint256"},{"indexed":false,"internalType":"address","name":"payingGasToken","type":"address"}],"name":"LimitsSet","type":"event"},{"anonymous":false,"inputs":[{"indexed":false,"internalType":"bool","name":"active","type":"bool"}],"name":"PermissiveModeSet","type":"event"},{"anonymous":false,"inputs":[{"indexed":true,"internalType":"address","name":"recipient","type":"address"}],"name":"RecipientSet","type":"event"},{"anonymous":false,"inputs":[{"indexed":true,"internalType":"address","name":"relayer","type":"address"},{"indexed":false,"internalType":"bool","name":"allowed","type":"bool"}],"name":"RelayerSet","type":"event"},{"anonymous":false,"inputs":[{"indexed":true,"internalType":"address","name":"smartVault","type":"address"}],"name":"SmartVaultSet","type":"event"},{"anonymous":false,"inputs":[{"indexed":true,"internalType":"address","name":"token","type":"address"},{"indexed":false,"internalType":"uint256","name":"amount","type":"uint256"}],"name":"ThresholdSet","type":"event"},{"anonymous":false,"inputs":[{"indexed":true,"internalType":"address","name":"who","type":"address"},{"indexed":false,"internalType":"bytes4","name":"what","type":"bytes4"}],"name":"Unauthorized","type":"event"},{"inputs":[],"name":"ANY_ADDRESS","outputs":[{"internalType":"address","name":"","type":"address"}],"stateMutability":"view","type":"function"},{"inputs":[],"name":"BASE_GAS","outputs":[{"internalType":"uint256","name":"","type":"uint256"}],"stateMutability":"view","type":"function"},{"inputs":[],"name":"NAMESPACE","outputs":[{"internalType":"bytes32","name":"","type":"bytes32"}],"stateMutability":"view","type":"function"},{"inputs":[{"internalType":"address","name":"who","type":"address"},{"internalType":"bytes4","name":"what","type":"bytes4"}],"name":"authorize","outputs":[],"stateMutability":"nonpayable","type":"function"},{"inputs":[],"name":"call","outputs":[],"stateMutability":"nonpayable","type":"function"},{"inputs":[],"name":"gasPriceLimit","outputs":[{"internalType":"uint256","name":"","type":"uint256"}],"stateMutability":"view","type":"function"},{"inputs":[{"internalType":"address","name":"who","type":"address"},{"internalType":"bytes4","name":"what","type":"bytes4"}],"name":"isAuthorized","outputs":[{"internalType":"bool","name":"","type":"bool"}],"stateMutability":"view","type":"function"},{"inputs":[],"name":"isPermissiveModeActive","outputs":[{"internalType":"bool","name":"","type":"bool"}],"stateMutability":"view","type":"function"},{"inputs":[{"internalType":"address","name":"","type":"address"}],"name":"isRelayer","outputs":[{"internalType":"bool","name":"","type":"bool"}],"stateMutability":"view","type":"function"},{"inputs":[],"name":"payingGasToken","outputs":[{"internalType":"address","name":"","type":"address"}],"stateMutability":"view","type":"function"},{"inputs":[],"name":"recipient","outputs":[{"internalType":"address","name":"","type":"address"}],"stateMutability":"view","type":"function"},{"inputs":[],"name":"registry","outputs":[{"internalType":"address","name":"","type":"address"}],"stateMutability":"view","type":"function"},{"inputs":[{"internalType":"uint256","name":"_gasPriceLimit","type":"uint256"},{"internalType":"uint256","name":"_totalCostLimit","type":"uint256"},{"internalType":"address","name":"_payingGasToken","type":"address"}],"name":"setLimits","outputs":[],"stateMutability":"nonpayable","type":"function"},{"inputs":[{"internalType":"bool","name":"active","type":"bool"}],"name":"setPermissiveMode","outputs":[],"stateMutability":"nonpayable","type":"function"},{"inputs":[{"internalType":"address","name":"newRecipient","type":"address"}],"name":"setRecipient","outputs":[],"stateMutability":"nonpayable","type":"function"},{"inputs":[{"internalType":"address","name":"relayer","type":"address"},{"internalType":"bool","name":"allowed","type":"bool"}],"name":"setRelayer","outputs":[],"stateMutability":"nonpayable","type":"function"},{"inputs":[{"internalType":"address","name":"newSmartVault","type":"address"}],"name":"setSmartVault","outputs":[],"stateMutability":"nonpayable","type":"function"},{"inputs":[{"internalType":"address","name":"token","type":"address"},{"internalType":"uint256","name":"amount","type":"uint256"}],"name":"setThreshold","outputs":[],"stateMutability":"nonpayable","type":"function"},{"inputs":[],"name":"smartVault","outputs":[{"internalType":"contract ISmartVault","name":"","type":"address"}],"stateMutability":"view","type":"function"},{"inputs":[],"name":"thresholdAmount","outputs":[{"internalType":"uint256","name":"","type":"uint256"}],"stateMutability":"view","type":"function"},{"inputs":[],"name":"thresholdToken","outputs":[{"internalType":"address","name":"","type":"address"}],"stateMutability":"view","type":"function"},{"inputs":[],"name":"totalCostLimit","outputs":[{"internalType":"uint256","name":"","type":"uint256"}],"stateMutability":"view","type":"function"},{"inputs":[{"internalType":"address","name":"who","type":"address"},{"internalType":"bytes4","name":"what","type":"bytes4"}],"name":"unauthorize","outputs":[],"stateMutability":"nonpayable","type":"function"}],"evm":{"bytecode":{"linkReferences":{},"object":"60a06040523480156200001157600080fd5b5060405162001f7e38038062001f7e833981016040819052620000349162000105565b6001600160601b0319606082901b16608052818181816200005d826324cfc3cf60e21b6200007c565b6200007082633323521b60e11b6200007c565b5050505050506200013c565b6001600160a01b0382166000818152602081815260408083206001600160e01b0319861680855290835292819020805460ff19166001179055519182527f7f06c1c34ad47198873da9dcde2e40904035d41b23da3a9132df674a75022df7910160405180910390a25050565b80516001600160a01b03811681146200010057600080fd5b919050565b6000806040838503121562000118578182fd5b6200012383620000e8565b91506200013360208401620000e8565b90509250929050565b60805160601c611e15620001696000396000818161030901528181610fc701526110b70152611e156000f3fe608060405234801561001057600080fd5b506004361061018d5760003560e01c8063541d5548116100e35780639d8799901161008c578063d9972b9611610066578063d9972b9614610387578063ecd8dc3a1461039a578063f5aabb1a146103ad5761018d565b80639d87999014610347578063b42953e71461035a578063c66197bf1461037a5761018d565b80637b103999116100bd5780637b10399914610304578063933f0f3c1461032b578063961a929c1461033e5761018d565b8063541d55481461029e5780636646a436146102d157806366d003ac146102e45761018d565b8063389aa3421161014557806344ba1fca1161011f57806344ba1fca146102445780634fd49efd1461026b5780635247c1ca1461028b5761018d565b8063389aa342146101e75780633bbed4a0146101f15780633f81a192146102045761018d565b806313e3b57c1161017657806313e3b57c146101c357806328b5e32b146101d657806328f4dbb6146101de5761018d565b806301cfdd29146101925780630d0eda8b146101ae575b600080fd5b61019b60075481565b6040519081526020015b60405180910390f35b6101c16101bc366004611b9b565b6103cd565b005b6101c16101d1366004611aa8565b610460565b6101c1610571565b61019b60035481565b61019b6201388081565b6101c16101ff366004611aa8565b610676565b61021f73ffffffffffffffffffffffffffffffffffffffff81565b60405173ffffffffffffffffffffffffffffffffffffffff90911681526020016101a5565b61019b7ff66b632ae3b479ef109dee46eb319414289a8426a08b64d81aad232941f9d22a81565b60015461021f9073ffffffffffffffffffffffffffffffffffffffff1681565b6101c1610299366004611c11565b610776565b6102c16102ac366004611aa8565b60096020526000908152604090205460ff1681565b60405190151581526020016101a5565b6101c16102df366004611b1f565b61089b565b600a5461021f9073ffffffffffffffffffffffffffffffffffffffff1681565b61021f7f000000000000000000000000000000000000000000000000000000000000000081565b6101c1610339366004611b1f565b6108d7565b61019b60065481565b6101c1610355366004611b70565b61090f565b60025461021f9073ffffffffffffffffffffffffffffffffffffffff1681565b6005546102c19060ff1681565b6102c1610395366004611b1f565b6109bd565b6101c16103a8366004611ae7565b610a75565b60085461021f9073ffffffffffffffffffffffffffffffffffffffff1681565b6103fb336000357fffffffff0000000000000000000000000000000000000000000000000000000016610b26565b600580547fffffffffffffffffffffffffffffffffffffffffffffffffffffffffffffff00168215159081179091556040519081527fe8693871decef495d3ddb20b4c2fdc4734c37f8ed6f875fbe1e6a718adbf0fdd9060200160405180910390a150565b61048e336000357fffffffff0000000000000000000000000000000000000000000000000000000016610b26565b60015473ffffffffffffffffffffffffffffffffffffffff16156104f95760405162461bcd60e51b815260206004820152601760248201527f534d4152545f5641554c545f414c52454144595f53455400000000000000000060448201526064015b60405180910390fd5b61050281610b7c565b600180547fffffffffffffffffffffffff00000000000000000000000000000000000000001673ffffffffffffffffffffffffffffffffffffffff83169081179091556040517f6a7abc646862eeb16d8760c0c56dff37a2d2c6b012a3419910005e57e503a08790600090a250565b61059f336000357fffffffff0000000000000000000000000000000000000000000000000000000016610b26565b3360009081526009602052604090205460ff166105c3576105be610bd5565b6105cb565b6105cb610d67565b600154604080517f17fcb39b00000000000000000000000000000000000000000000000000000000815290516106749273ffffffffffffffffffffffffffffffffffffffff16916317fcb39b916004808301926020929190829003018186803b15801561063757600080fd5b505afa15801561064b573d6000803e3d6000fd5b505050506040513d601f19601f8201168201806040525081019061066f9190611acb565b610d7f565b565b6106a4336000357fffffffff0000000000000000000000000000000000000000000000000000000016610b26565b73ffffffffffffffffffffffffffffffffffffffff81166107075760405162461bcd60e51b815260206004820152600e60248201527f524543495049454e545f5a45524f00000000000000000000000000000000000060448201526064016104f0565b600a80547fffffffffffffffffffffffff00000000000000000000000000000000000000001673ffffffffffffffffffffffffffffffffffffffff83169081179091556040517f9d900d71c28433348acb1bec780a061608a96b149370abce77fd54ba2d47940190600090a250565b6107a4336000357fffffffff0000000000000000000000000000000000000000000000000000000016610b26565b73ffffffffffffffffffffffffffffffffffffffff81166108075760405162461bcd60e51b815260206004820152601560248201527f504159494e475f4741535f544f4b454e5f5a45524f000000000000000000000060448201526064016104f0565b60068390556007829055600880547fffffffffffffffffffffffff00000000000000000000000000000000000000001673ffffffffffffffffffffffffffffffffffffffff83169081179091556040805185815260208101859052908101919091527f7bd6a5fc2b1371f48a3ea03997aebaa84a60fb8d4e4a970b9f98a1b4c3d4bb889060600160405180910390a1505050565b6108c9336000357fffffffff0000000000000000000000000000000000000000000000000000000016610b26565b6108d38282610e30565b5050565b610905336000357fffffffff0000000000000000000000000000000000000000000000000000000016610b26565b6108d38282610ed5565b61093d336000357fffffffff0000000000000000000000000000000000000000000000000000000016610b26565b600280547fffffffffffffffffffffffff00000000000000000000000000000000000000001673ffffffffffffffffffffffffffffffffffffffff841690811790915560038290556040518281527ff7e18aa0532694077d6fc7df02e85d86b91ba964f958d1949d45c5776d36eb6e906020015b60405180910390a25050565b7fffffffff00000000000000000000000000000000000000000000000000000000811660009081527f50c7a3d1a23c7ff4a61d37c3f2c4aeb36cf60b43ee893723db201d3eb941cbad602052604081205460ff1680610a6c575073ffffffffffffffffffffffffffffffffffffffff83166000908152602081815260408083207fffffffff000000000000000000000000000000000000000000000000000000008616845290915290205460ff165b90505b92915050565b610aa3336000357fffffffff0000000000000000000000000000000000000000000000000000000016610b26565b73ffffffffffffffffffffffffffffffffffffffff821660008181526009602090815260409182902080547fffffffffffffffffffffffffffffffffffffffffffffffffffffffffffffff001685151590811790915591519182527fee42947bc760229eeff964017ac68eddb00ba98b0defcd90a1bc85a5afceb05791016109b1565b610b3082826109bd565b6108d35760405162461bcd60e51b815260206004820152601760248201527f415554485f53454e4445525f4e4f545f414c4c4f57454400000000000000000060448201526064016104f0565b610b8581610f7d565b15610bd25760405162461bcd60e51b815260206004820152601760248201527f444550454e44454e43595f4e4f545f535441544546554c00000000000000000060448201526064016104f0565b50565b600154604080517f17fcb39b000000000000000000000000000000000000000000000000000000008152905173ffffffffffffffffffffffffffffffffffffffff909216803192610c83926317fcb39b916004808301926020929190829003018186803b158015610c4557600080fd5b505afa158015610c59573d6000803e3d6000fd5b505050506040513d601f19601f82011682018060405250810190610c7d9190611acb565b826111de565b600154604080516000815260208101918290527f109b3c830000000000000000000000000000000000000000000000000000000090915273ffffffffffffffffffffffffffffffffffffffff9091169063109b3c8390610ce890849060248101611cfb565b602060405180830381600087803b158015610d0257600080fd5b505af1158015610d16573d6000803e3d6000fd5b505050506040513d601f19601f82011682018060405250810190610d3a9190611bf9565b506040517f68f46c45a243a0e9065a97649faf9a5afe1692f2679e650c2f853b9cd734cc0e90600090a150565b610d6f6112f3565b610d77610bd5565b6106746113b2565b6001546040517f70a0823100000000000000000000000000000000000000000000000000000000815273ffffffffffffffffffffffffffffffffffffffff91821660048201526000918316906370a082319060240160206040518083038186803b158015610dec57600080fd5b505afa158015610e00573d6000803e3d6000fd5b505050506040513d601f19601f82011682018060405250810190610e249190611bf9565b90506108d3828261165c565b73ffffffffffffffffffffffffffffffffffffffff82166000818152602081815260408083207fffffffff0000000000000000000000000000000000000000000000000000000086168085529083529281902080547fffffffffffffffffffffffffffffffffffffffffffffffffffffffffffffff00169055519182527fa2e97b9eea8d1168700e334304edd057dff89c0384ca6f920c73cc3e48c8e52391016109b1565b73ffffffffffffffffffffffffffffffffffffffff82166000818152602081815260408083207fffffffff0000000000000000000000000000000000000000000000000000000086168085529083529281902080547fffffffffffffffffffffffffffffffffffffffffffffffffffffffffffffff00166001179055519182527f7f06c1c34ad47198873da9dcde2e40904035d41b23da3a9132df674a75022df791016109b1565b6040517f8b4872b800000000000000000000000000000000000000000000000000000000815273ffffffffffffffffffffffffffffffffffffffff828116600483015260009182917f00000000000000000000000000000000000000000000000000000000000000001690638b4872b89060240160206040518083038186803b15801561100957600080fd5b505afa15801561101d573d6000803e3d6000fd5b505050506040513d601f19601f820116820180604052508101906110419190611acb565b9050600073ffffffffffffffffffffffffffffffffffffffff82166110665783611068565b815b6040517f9235dcf800000000000000000000000000000000000000000000000000000000815273ffffffffffffffffffffffffffffffffffffffff8083166004830152919250600091829182917f00000000000000000000000000000000000000000000000000000000000000001690639235dcf89060240160606040518083038186803b1580156110f957600080fd5b505afa15801561110d573d6000803e3d6000fd5b505050506040513d601f19601f820116820180604052508101906111319190611bb7565b91945092509050806111855760405162461bcd60e51b815260206004820152601960248201527f444550454e44454e43595f4e4f545f524547495354455245440000000000000060448201526064016104f0565b81156111d35760405162461bcd60e51b815260206004820152601560248201527f444550454e44454e43595f44455052454341544544000000000000000000000060448201526064016104f0565b509095945050505050565b6001546002546040517fac41865a00000000000000000000000000000000000000000000000000000000815273ffffffffffffffffffffffffffffffffffffffff85811660048301529182166024820152600092919091169063ac41865a9060440160206040518083038186803b15801561125857600080fd5b505afa15801561126c573d6000803e3d6000fd5b505050506040513d601f19601f820116820180604052508101906112909190611bf9565b6003549091506112a0838361171a565b10156112ee5760405162461bcd60e51b815260206004820152601560248201527f4d494e5f5448524553484f4c445f4e4f545f4d4554000000000000000000000060448201526064016104f0565b505050565b5a6004553360009081526009602052604090205460ff166113565760405162461bcd60e51b815260206004820152601260248201527f53454e4445525f4e4f545f52454c41594552000000000000000000000000000060448201526064016104f0565b6006548015806113665750803a11155b610bd25760405162461bcd60e51b815260206004820152601560248201527f4741535f50524943455f41424f56455f4c494d4954000000000000000000000060448201526064016104f0565b60005a6004546113c29190611d69565b905060003a3073ffffffffffffffffffffffffffffffffffffffff1663389aa3426040518163ffffffff1660e01b815260040160206040518083038186803b15801561140d57600080fd5b505afa158015611421573d6000803e3d6000fd5b505050506040513d601f19601f820116820180604052508101906114459190611bf9565b61144f9084611d14565b6114599190611d2c565b6007546008549192509073ffffffffffffffffffffffffffffffffffffffff16600061148e611487836117bf565b859061171a565b905082158061149d5750828111155b6114e95760405162461bcd60e51b815260206004820152601360248201527f54585f434f53545f41424f56455f4c494d49540000000000000000000000000060448201526064016104f0565b6114f38282611992565b1561165057600154604080517fc415b95c000000000000000000000000000000000000000000000000000000008152905173ffffffffffffffffffffffffffffffffffffffff90921691639003afee9185918591859163c415b95c91600480820192602092909190829003018186803b15801561156f57600080fd5b505afa158015611583573d6000803e3d6000fd5b505050506040513d601f19601f820116820180604052508101906115a79190611acb565b6040518060400160405280600781526020017f52454c41594552000000000000000000000000000000000000000000000000008152506040518563ffffffff1660e01b81526004016115fc9493929190611cb2565b602060405180830381600087803b15801561161657600080fd5b505af115801561162a573d6000803e3d6000fd5b505050506040513d601f19601f8201168201806040525081019061164e9190611bf9565b505b50506000600455505050565b600154600a54604080516000815260208101918290527f9003afee0000000000000000000000000000000000000000000000000000000090915273ffffffffffffffffffffffffffffffffffffffff92831692639003afee926116c89287928792169060248101611cb2565b602060405180830381600087803b1580156116e257600080fd5b505af11580156116f6573d6000803e3d6000fd5b505050506040513d601f19601f820116820180604052508101906112ee9190611bf9565b600082820283158061176157508284828161175e577f4e487b7100000000000000000000000000000000000000000000000000000000600052601260045260246000fd5b04145b6117ad5760405162461bcd60e51b815260206004820152600c60248201527f4d554c5f4f564552464c4f57000000000000000000000000000000000000000060448201526064016104f0565b670de0b6b3a764000090049392505050565b600080600160009054906101000a900473ffffffffffffffffffffffffffffffffffffffff1673ffffffffffffffffffffffffffffffffffffffff166317fcb39b6040518163ffffffff1660e01b815260040160206040518083038186803b15801561182a57600080fd5b505afa15801561183e573d6000803e3d6000fd5b505050506040513d601f19601f820116820180604052508101906118629190611acb565b9050600073ffffffffffffffffffffffffffffffffffffffff841673eeeeeeeeeeeeeeeeeeeeeeeeeeeeeeeeeeeeeeee14806118c957508173ffffffffffffffffffffffffffffffffffffffff168473ffffffffffffffffffffffffffffffffffffffff16145b905080611980576001546040517fac41865a00000000000000000000000000000000000000000000000000000000815273ffffffffffffffffffffffffffffffffffffffff848116600483015286811660248301529091169063ac41865a9060440160206040518083038186803b15801561194357600080fd5b505afa158015611957573d6000803e3d6000fd5b505050506040513d601f19601f8201168201806040525081019061197b9190611bf9565b61198a565b670de0b6b3a76400005b949350505050565b60055460009060ff166119a757506001610a6f565b600073ffffffffffffffffffffffffffffffffffffffff841673eeeeeeeeeeeeeeeeeeeeeeeeeeeeeeeeeeeeeeee14611a82576001546040517f70a0823100000000000000000000000000000000000000000000000000000000815273ffffffffffffffffffffffffffffffffffffffff9182166004820152908516906370a082319060240160206040518083038186803b158015611a4557600080fd5b505afa158015611a59573d6000803e3d6000fd5b505050506040513d601f19601f82011682018060405250810190611a7d9190611bf9565b611a9d565b60015473ffffffffffffffffffffffffffffffffffffffff16315b909211159392505050565b600060208284031215611ab9578081fd5b8135611ac481611daf565b9392505050565b600060208284031215611adc578081fd5b8151611ac481611daf565b60008060408385031215611af9578081fd5b8235611b0481611daf565b91506020830135611b1481611dd1565b809150509250929050565b60008060408385031215611b31578182fd5b8235611b3c81611daf565b915060208301357fffffffff0000000000000000000000000000000000000000000000000000000081168114611b14578182fd5b60008060408385031215611b82578182fd5b8235611b8d81611daf565b946020939093013593505050565b600060208284031215611bac578081fd5b8135611ac481611dd1565b600080600060608486031215611bcb578081fd5b8351611bd681611dd1565b6020850151909350611be781611dd1565b80925050604084015190509250925092565b600060208284031215611c0a578081fd5b5051919050565b600080600060608486031215611c25578283fd5b83359250602084013591506040840135611c3e81611daf565b809150509250925092565b60008151808452815b81811015611c6e57602081850181015186830182015201611c52565b81811115611c7f5782602083870101525b50601f017fffffffffffffffffffffffffffffffffffffffffffffffffffffffffffffffe0169290920160200192915050565b600073ffffffffffffffffffffffffffffffffffffffff808716835285602084015280851660408401525060806060830152611cf16080830184611c49565b9695505050505050565b60008382526040602083015261198a6040830184611c49565b60008219821115611d2757611d27611d80565b500190565b6000817fffffffffffffffffffffffffffffffffffffffffffffffffffffffffffffffff0483118215151615611d6457611d64611d80565b500290565b600082821015611d7b57611d7b611d80565b500390565b7f4e487b7100000000000000000000000000000000000000000000000000000000600052601160045260246000fd5b73ffffffffffffffffffffffffffffffffffffffff81168114610bd257600080fd5b8015158114610bd257600080fdfea264697066735822122076ad81463d7f5c081ece54993ee1e5a4efc546822d19218d1d95d0b05679a01f64736f6c63430008030033","opcodes":"PUSH1 0xA0 PUSH1 0x40 MSTORE CALLVALUE DUP1 ISZERO PUSH3 0x11 JUMPI PUSH1 0x0 DUP1 REVERT JUMPDEST POP PUSH1 0x40 MLOAD PUSH3 0x1F7E CODESIZE SUB DUP1 PUSH3 0x1F7E DUP4 CODECOPY DUP2 ADD PUSH1 0x40 DUP2 SWAP1 MSTORE PUSH3 0x34 SWAP2 PUSH3 0x105 JUMP JUMPDEST PUSH1 0x1 PUSH1 0x1 PUSH1 0x60 SHL SUB NOT PUSH1 0x60 DUP3 SWAP1 SHL AND PUSH1 0x80 MSTORE DUP2 DUP2 DUP2 DUP2 PUSH3 0x5D DUP3 PUSH4 0x24CFC3CF PUSH1 0xE2 SHL PUSH3 0x7C JUMP JUMPDEST PUSH3 0x70 DUP3 PUSH4 0x3323521B PUSH1 0xE1 SHL PUSH3 0x7C JUMP JUMPDEST POP POP POP POP POP POP PUSH3 0x13C JUMP JUMPDEST PUSH1 0x1 PUSH1 0x1 PUSH1 0xA0 SHL SUB DUP3 AND PUSH1 0x0 DUP2 DUP2 MSTORE PUSH1 0x20 DUP2 DUP2 MSTORE PUSH1 0x40 DUP1 DUP4 KECCAK256 PUSH1 0x1 PUSH1 0x1 PUSH1 0xE0 SHL SUB NOT DUP7 AND DUP1 DUP6 MSTORE SWAP1 DUP4 MSTORE SWAP3 DUP2 SWAP1 KECCAK256 DUP1 SLOAD PUSH1 0xFF NOT AND PUSH1 0x1 OR SWAP1 SSTORE MLOAD SWAP2 DUP3 MSTORE PUSH32 0x7F06C1C34AD47198873DA9DCDE2E40904035D41B23DA3A9132DF674A75022DF7 SWAP2 ADD PUSH1 0x40 MLOAD DUP1 SWAP2 SUB SWAP1 LOG2 POP POP JUMP JUMPDEST DUP1 MLOAD PUSH1 0x1 PUSH1 0x1 PUSH1 0xA0 SHL SUB DUP2 AND DUP2 EQ PUSH3 0x100 JUMPI PUSH1 0x0 DUP1 REVERT JUMPDEST SWAP2 SWAP1 POP JUMP JUMPDEST PUSH1 0x0 DUP1 PUSH1 0x40 DUP4 DUP6 SUB SLT ISZERO PUSH3 0x118 JUMPI DUP2 DUP3 REVERT JUMPDEST PUSH3 0x123 DUP4 PUSH3 0xE8 JUMP JUMPDEST SWAP2 POP PUSH3 0x133 PUSH1 0x20 DUP5 ADD PUSH3 0xE8 JUMP JUMPDEST SWAP1 POP SWAP3 POP SWAP3 SWAP1 POP JUMP JUMPDEST PUSH1 0x80 MLOAD PUSH1 0x60 SHR PUSH2 0x1E15 PUSH3 0x169 PUSH1 0x0 CODECOPY PUSH1 0x0 DUP2 DUP2 PUSH2 0x309 ADD MSTORE DUP2 DUP2 PUSH2 0xFC7 ADD MSTORE PUSH2 0x10B7 ADD MSTORE PUSH2 0x1E15 PUSH1 0x0 RETURN INVALID PUSH1 0x80 PUSH1 0x40 MSTORE CALLVALUE DUP1 ISZERO PUSH2 0x10 JUMPI PUSH1 0x0 DUP1 REVERT JUMPDEST POP PUSH1 0x4 CALLDATASIZE LT PUSH2 0x18D JUMPI PUSH1 0x0 CALLDATALOAD PUSH1 0xE0 SHR DUP1 PUSH4 0x541D5548 GT PUSH2 0xE3 JUMPI DUP1 PUSH4 0x9D879990 GT PUSH2 0x8C JUMPI DUP1 PUSH4 0xD9972B96 GT PUSH2 0x66 JUMPI DUP1 PUSH4 0xD9972B96 EQ PUSH2 0x387 JUMPI DUP1 PUSH4 0xECD8DC3A EQ PUSH2 0x39A JUMPI DUP1 PUSH4 0xF5AABB1A EQ PUSH2 0x3AD JUMPI PUSH2 0x18D JUMP JUMPDEST DUP1 PUSH4 0x9D879990 EQ PUSH2 0x347 JUMPI DUP1 PUSH4 0xB42953E7 EQ PUSH2 0x35A JUMPI DUP1 PUSH4 0xC66197BF EQ PUSH2 0x37A JUMPI PUSH2 0x18D JUMP JUMPDEST DUP1 PUSH4 0x7B103999 GT PUSH2 0xBD JUMPI DUP1 PUSH4 0x7B103999 EQ PUSH2 0x304 JUMPI DUP1 PUSH4 0x933F0F3C EQ PUSH2 0x32B JUMPI DUP1 PUSH4 0x961A929C EQ PUSH2 0x33E JUMPI PUSH2 0x18D JUMP JUMPDEST DUP1 PUSH4 0x541D5548 EQ PUSH2 0x29E JUMPI DUP1 PUSH4 0x6646A436 EQ PUSH2 0x2D1 JUMPI DUP1 PUSH4 0x66D003AC EQ PUSH2 0x2E4 JUMPI PUSH2 0x18D JUMP JUMPDEST DUP1 PUSH4 0x389AA342 GT PUSH2 0x145 JUMPI DUP1 PUSH4 0x44BA1FCA GT PUSH2 0x11F JUMPI DUP1 PUSH4 0x44BA1FCA EQ PUSH2 0x244 JUMPI DUP1 PUSH4 0x4FD49EFD EQ PUSH2 0x26B JUMPI DUP1 PUSH4 0x5247C1CA EQ PUSH2 0x28B JUMPI PUSH2 0x18D JUMP JUMPDEST DUP1 PUSH4 0x389AA342 EQ PUSH2 0x1E7 JUMPI DUP1 PUSH4 0x3BBED4A0 EQ PUSH2 0x1F1 JUMPI DUP1 PUSH4 0x3F81A192 EQ PUSH2 0x204 JUMPI PUSH2 0x18D JUMP JUMPDEST DUP1 PUSH4 0x13E3B57C GT PUSH2 0x176 JUMPI DUP1 PUSH4 0x13E3B57C EQ PUSH2 0x1C3 JUMPI DUP1 PUSH4 0x28B5E32B EQ PUSH2 0x1D6 JUMPI DUP1 PUSH4 0x28F4DBB6 EQ PUSH2 0x1DE JUMPI PUSH2 0x18D JUMP JUMPDEST DUP1 PUSH4 0x1CFDD29 EQ PUSH2 0x192 JUMPI DUP1 PUSH4 0xD0EDA8B EQ PUSH2 0x1AE JUMPI JUMPDEST PUSH1 0x0 DUP1 REVERT JUMPDEST PUSH2 0x19B PUSH1 0x7 SLOAD DUP2 JUMP JUMPDEST PUSH1 0x40 MLOAD SWAP1 DUP2 MSTORE PUSH1 0x20 ADD JUMPDEST PUSH1 0x40 MLOAD DUP1 SWAP2 SUB SWAP1 RETURN JUMPDEST PUSH2 0x1C1 PUSH2 0x1BC CALLDATASIZE PUSH1 0x4 PUSH2 0x1B9B JUMP JUMPDEST PUSH2 0x3CD JUMP JUMPDEST STOP JUMPDEST PUSH2 0x1C1 PUSH2 0x1D1 CALLDATASIZE PUSH1 0x4 PUSH2 0x1AA8 JUMP JUMPDEST PUSH2 0x460 JUMP JUMPDEST PUSH2 0x1C1 PUSH2 0x571 JUMP JUMPDEST PUSH2 0x19B PUSH1 0x3 SLOAD DUP2 JUMP JUMPDEST PUSH2 0x19B PUSH3 0x13880 DUP2 JUMP JUMPDEST PUSH2 0x1C1 PUSH2 0x1FF CALLDATASIZE PUSH1 0x4 PUSH2 0x1AA8 JUMP JUMPDEST PUSH2 0x676 JUMP JUMPDEST PUSH2 0x21F PUSH20 0xFFFFFFFFFFFFFFFFFFFFFFFFFFFFFFFFFFFFFFFF DUP2 JUMP JUMPDEST PUSH1 0x40 MLOAD PUSH20 0xFFFFFFFFFFFFFFFFFFFFFFFFFFFFFFFFFFFFFFFF SWAP1 SWAP2 AND DUP2 MSTORE PUSH1 0x20 ADD PUSH2 0x1A5 JUMP JUMPDEST PUSH2 0x19B PUSH32 0xF66B632AE3B479EF109DEE46EB319414289A8426A08B64D81AAD232941F9D22A DUP2 JUMP JUMPDEST PUSH1 0x1 SLOAD PUSH2 0x21F SWAP1 PUSH20 0xFFFFFFFFFFFFFFFFFFFFFFFFFFFFFFFFFFFFFFFF AND DUP2 JUMP JUMPDEST PUSH2 0x1C1 PUSH2 0x299 CALLDATASIZE PUSH1 0x4 PUSH2 0x1C11 JUMP JUMPDEST PUSH2 0x776 JUMP JUMPDEST PUSH2 0x2C1 PUSH2 0x2AC CALLDATASIZE PUSH1 0x4 PUSH2 0x1AA8 JUMP JUMPDEST PUSH1 0x9 PUSH1 0x20 MSTORE PUSH1 0x0 SWAP1 DUP2 MSTORE PUSH1 0x40 SWAP1 KECCAK256 SLOAD PUSH1 0xFF AND DUP2 JUMP JUMPDEST PUSH1 0x40 MLOAD SWAP1 ISZERO ISZERO DUP2 MSTORE PUSH1 0x20 ADD PUSH2 0x1A5 JUMP JUMPDEST PUSH2 0x1C1 PUSH2 0x2DF CALLDATASIZE PUSH1 0x4 PUSH2 0x1B1F JUMP JUMPDEST PUSH2 0x89B JUMP JUMPDEST PUSH1 0xA SLOAD PUSH2 0x21F SWAP1 PUSH20 0xFFFFFFFFFFFFFFFFFFFFFFFFFFFFFFFFFFFFFFFF AND DUP2 JUMP JUMPDEST PUSH2 0x21F PUSH32 0x0 DUP2 JUMP JUMPDEST PUSH2 0x1C1 PUSH2 0x339 CALLDATASIZE PUSH1 0x4 PUSH2 0x1B1F JUMP JUMPDEST PUSH2 0x8D7 JUMP JUMPDEST PUSH2 0x19B PUSH1 0x6 SLOAD DUP2 JUMP JUMPDEST PUSH2 0x1C1 PUSH2 0x355 CALLDATASIZE PUSH1 0x4 PUSH2 0x1B70 JUMP JUMPDEST PUSH2 0x90F JUMP JUMPDEST PUSH1 0x2 SLOAD PUSH2 0x21F SWAP1 PUSH20 0xFFFFFFFFFFFFFFFFFFFFFFFFFFFFFFFFFFFFFFFF AND DUP2 JUMP JUMPDEST PUSH1 0x5 SLOAD PUSH2 0x2C1 SWAP1 PUSH1 0xFF AND DUP2 JUMP JUMPDEST PUSH2 0x2C1 PUSH2 0x395 CALLDATASIZE PUSH1 0x4 PUSH2 0x1B1F JUMP JUMPDEST PUSH2 0x9BD JUMP JUMPDEST PUSH2 0x1C1 PUSH2 0x3A8 CALLDATASIZE PUSH1 0x4 PUSH2 0x1AE7 JUMP JUMPDEST PUSH2 0xA75 JUMP JUMPDEST PUSH1 0x8 SLOAD PUSH2 0x21F SWAP1 PUSH20 0xFFFFFFFFFFFFFFFFFFFFFFFFFFFFFFFFFFFFFFFF AND DUP2 JUMP JUMPDEST PUSH2 0x3FB CALLER PUSH1 0x0 CALLDATALOAD PUSH32 0xFFFFFFFF00000000000000000000000000000000000000000000000000000000 AND PUSH2 0xB26 JUMP JUMPDEST PUSH1 0x5 DUP1 SLOAD PUSH32 0xFFFFFFFFFFFFFFFFFFFFFFFFFFFFFFFFFFFFFFFFFFFFFFFFFFFFFFFFFFFFFF00 AND DUP3 ISZERO ISZERO SWAP1 DUP2 OR SWAP1 SWAP2 SSTORE PUSH1 0x40 MLOAD SWAP1 DUP2 MSTORE PUSH32 0xE8693871DECEF495D3DDB20B4C2FDC4734C37F8ED6F875FBE1E6A718ADBF0FDD SWAP1 PUSH1 0x20 ADD PUSH1 0x40 MLOAD DUP1 SWAP2 SUB SWAP1 LOG1 POP JUMP JUMPDEST PUSH2 0x48E CALLER PUSH1 0x0 CALLDATALOAD PUSH32 0xFFFFFFFF00000000000000000000000000000000000000000000000000000000 AND PUSH2 0xB26 JUMP JUMPDEST PUSH1 0x1 SLOAD PUSH20 0xFFFFFFFFFFFFFFFFFFFFFFFFFFFFFFFFFFFFFFFF AND ISZERO PUSH2 0x4F9 JUMPI PUSH1 0x40 MLOAD PUSH3 0x461BCD PUSH1 0xE5 SHL DUP2 MSTORE PUSH1 0x20 PUSH1 0x4 DUP3 ADD MSTORE PUSH1 0x17 PUSH1 0x24 DUP3 ADD MSTORE PUSH32 0x534D4152545F5641554C545F414C52454144595F534554000000000000000000 PUSH1 0x44 DUP3 ADD MSTORE PUSH1 0x64 ADD JUMPDEST PUSH1 0x40 MLOAD DUP1 SWAP2 SUB SWAP1 REVERT JUMPDEST PUSH2 0x502 DUP2 PUSH2 0xB7C JUMP JUMPDEST PUSH1 0x1 DUP1 SLOAD PUSH32 0xFFFFFFFFFFFFFFFFFFFFFFFF0000000000000000000000000000000000000000 AND PUSH20 0xFFFFFFFFFFFFFFFFFFFFFFFFFFFFFFFFFFFFFFFF DUP4 AND SWAP1 DUP2 OR SWAP1 SWAP2 SSTORE PUSH1 0x40 MLOAD PUSH32 0x6A7ABC646862EEB16D8760C0C56DFF37A2D2C6B012A3419910005E57E503A087 SWAP1 PUSH1 0x0 SWAP1 LOG2 POP JUMP JUMPDEST PUSH2 0x59F CALLER PUSH1 0x0 CALLDATALOAD PUSH32 0xFFFFFFFF00000000000000000000000000000000000000000000000000000000 AND PUSH2 0xB26 JUMP JUMPDEST CALLER PUSH1 0x0 SWAP1 DUP2 MSTORE PUSH1 0x9 PUSH1 0x20 MSTORE PUSH1 0x40 SWAP1 KECCAK256 SLOAD PUSH1 0xFF AND PUSH2 0x5C3 JUMPI PUSH2 0x5BE PUSH2 0xBD5 JUMP JUMPDEST PUSH2 0x5CB JUMP JUMPDEST PUSH2 0x5CB PUSH2 0xD67 JUMP JUMPDEST PUSH1 0x1 SLOAD PUSH1 0x40 DUP1 MLOAD PUSH32 0x17FCB39B00000000000000000000000000000000000000000000000000000000 DUP2 MSTORE SWAP1 MLOAD PUSH2 0x674 SWAP3 PUSH20 0xFFFFFFFFFFFFFFFFFFFFFFFFFFFFFFFFFFFFFFFF AND SWAP2 PUSH4 0x17FCB39B SWAP2 PUSH1 0x4 DUP1 DUP4 ADD SWAP3 PUSH1 0x20 SWAP3 SWAP2 SWAP1 DUP3 SWAP1 SUB ADD DUP2 DUP7 DUP1 EXTCODESIZE ISZERO DUP1 ISZERO PUSH2 0x637 JUMPI PUSH1 0x0 DUP1 REVERT JUMPDEST POP GAS STATICCALL ISZERO DUP1 ISZERO PUSH2 0x64B JUMPI RETURNDATASIZE PUSH1 0x0 DUP1 RETURNDATACOPY RETURNDATASIZE PUSH1 0x0 REVERT JUMPDEST POP POP POP POP PUSH1 0x40 MLOAD RETURNDATASIZE PUSH1 0x1F NOT PUSH1 0x1F DUP3 ADD AND DUP3 ADD DUP1 PUSH1 0x40 MSTORE POP DUP2 ADD SWAP1 PUSH2 0x66F SWAP2 SWAP1 PUSH2 0x1ACB JUMP JUMPDEST PUSH2 0xD7F JUMP JUMPDEST JUMP JUMPDEST PUSH2 0x6A4 CALLER PUSH1 0x0 CALLDATALOAD PUSH32 0xFFFFFFFF00000000000000000000000000000000000000000000000000000000 AND PUSH2 0xB26 JUMP JUMPDEST PUSH20 0xFFFFFFFFFFFFFFFFFFFFFFFFFFFFFFFFFFFFFFFF DUP2 AND PUSH2 0x707 JUMPI PUSH1 0x40 MLOAD PUSH3 0x461BCD PUSH1 0xE5 SHL DUP2 MSTORE PUSH1 0x20 PUSH1 0x4 DUP3 ADD MSTORE PUSH1 0xE PUSH1 0x24 DUP3 ADD MSTORE PUSH32 0x524543495049454E545F5A45524F000000000000000000000000000000000000 PUSH1 0x44 DUP3 ADD MSTORE PUSH1 0x64 ADD PUSH2 0x4F0 JUMP JUMPDEST PUSH1 0xA DUP1 SLOAD PUSH32 0xFFFFFFFFFFFFFFFFFFFFFFFF0000000000000000000000000000000000000000 AND PUSH20 0xFFFFFFFFFFFFFFFFFFFFFFFFFFFFFFFFFFFFFFFF DUP4 AND SWAP1 DUP2 OR SWAP1 SWAP2 SSTORE PUSH1 0x40 MLOAD PUSH32 0x9D900D71C28433348ACB1BEC780A061608A96B149370ABCE77FD54BA2D479401 SWAP1 PUSH1 0x0 SWAP1 LOG2 POP JUMP JUMPDEST PUSH2 0x7A4 CALLER PUSH1 0x0 CALLDATALOAD PUSH32 0xFFFFFFFF00000000000000000000000000000000000000000000000000000000 AND PUSH2 0xB26 JUMP JUMPDEST PUSH20 0xFFFFFFFFFFFFFFFFFFFFFFFFFFFFFFFFFFFFFFFF DUP2 AND PUSH2 0x807 JUMPI PUSH1 0x40 MLOAD PUSH3 0x461BCD PUSH1 0xE5 SHL DUP2 MSTORE PUSH1 0x20 PUSH1 0x4 DUP3 ADD MSTORE PUSH1 0x15 PUSH1 0x24 DUP3 ADD MSTORE PUSH32 0x504159494E475F4741535F544F4B454E5F5A45524F0000000000000000000000 PUSH1 0x44 DUP3 ADD MSTORE PUSH1 0x64 ADD PUSH2 0x4F0 JUMP JUMPDEST PUSH1 0x6 DUP4 SWAP1 SSTORE PUSH1 0x7 DUP3 SWAP1 SSTORE PUSH1 0x8 DUP1 SLOAD PUSH32 0xFFFFFFFFFFFFFFFFFFFFFFFF0000000000000000000000000000000000000000 AND PUSH20 0xFFFFFFFFFFFFFFFFFFFFFFFFFFFFFFFFFFFFFFFF DUP4 AND SWAP1 DUP2 OR SWAP1 SWAP2 SSTORE PUSH1 0x40 DUP1 MLOAD DUP6 DUP2 MSTORE PUSH1 0x20 DUP2 ADD DUP6 SWAP1 MSTORE SWAP1 DUP2 ADD SWAP2 SWAP1 SWAP2 MSTORE PUSH32 0x7BD6A5FC2B1371F48A3EA03997AEBAA84A60FB8D4E4A970B9F98A1B4C3D4BB88 SWAP1 PUSH1 0x60 ADD PUSH1 0x40 MLOAD DUP1 SWAP2 SUB SWAP1 LOG1 POP POP POP JUMP JUMPDEST PUSH2 0x8C9 CALLER PUSH1 0x0 CALLDATALOAD PUSH32 0xFFFFFFFF00000000000000000000000000000000000000000000000000000000 AND PUSH2 0xB26 JUMP JUMPDEST PUSH2 0x8D3 DUP3 DUP3 PUSH2 0xE30 JUMP JUMPDEST POP POP JUMP JUMPDEST PUSH2 0x905 CALLER PUSH1 0x0 CALLDATALOAD PUSH32 0xFFFFFFFF00000000000000000000000000000000000000000000000000000000 AND PUSH2 0xB26 JUMP JUMPDEST PUSH2 0x8D3 DUP3 DUP3 PUSH2 0xED5 JUMP JUMPDEST PUSH2 0x93D CALLER PUSH1 0x0 CALLDATALOAD PUSH32 0xFFFFFFFF00000000000000000000000000000000000000000000000000000000 AND PUSH2 0xB26 JUMP JUMPDEST PUSH1 0x2 DUP1 SLOAD PUSH32 0xFFFFFFFFFFFFFFFFFFFFFFFF0000000000000000000000000000000000000000 AND PUSH20 0xFFFFFFFFFFFFFFFFFFFFFFFFFFFFFFFFFFFFFFFF DUP5 AND SWAP1 DUP2 OR SWAP1 SWAP2 SSTORE PUSH1 0x3 DUP3 SWAP1 SSTORE PUSH1 0x40 MLOAD DUP3 DUP2 MSTORE PUSH32 0xF7E18AA0532694077D6FC7DF02E85D86B91BA964F958D1949D45C5776D36EB6E SWAP1 PUSH1 0x20 ADD JUMPDEST PUSH1 0x40 MLOAD DUP1 SWAP2 SUB SWAP1 LOG2 POP POP JUMP JUMPDEST PUSH32 0xFFFFFFFF00000000000000000000000000000000000000000000000000000000 DUP2 AND PUSH1 0x0 SWAP1 DUP2 MSTORE PUSH32 0x50C7A3D1A23C7FF4A61D37C3F2C4AEB36CF60B43EE893723DB201D3EB941CBAD PUSH1 0x20 MSTORE PUSH1 0x40 DUP2 KECCAK256 SLOAD PUSH1 0xFF AND DUP1 PUSH2 0xA6C JUMPI POP PUSH20 0xFFFFFFFFFFFFFFFFFFFFFFFFFFFFFFFFFFFFFFFF DUP4 AND PUSH1 0x0 SWAP1 DUP2 MSTORE PUSH1 0x20 DUP2 DUP2 MSTORE PUSH1 0x40 DUP1 DUP4 KECCAK256 PUSH32 0xFFFFFFFF00000000000000000000000000000000000000000000000000000000 DUP7 AND DUP5 MSTORE SWAP1 SWAP2 MSTORE SWAP1 KECCAK256 SLOAD PUSH1 0xFF AND JUMPDEST SWAP1 POP JUMPDEST SWAP3 SWAP2 POP POP JUMP JUMPDEST PUSH2 0xAA3 CALLER PUSH1 0x0 CALLDATALOAD PUSH32 0xFFFFFFFF00000000000000000000000000000000000000000000000000000000 AND PUSH2 0xB26 JUMP JUMPDEST PUSH20 0xFFFFFFFFFFFFFFFFFFFFFFFFFFFFFFFFFFFFFFFF DUP3 AND PUSH1 0x0 DUP2 DUP2 MSTORE PUSH1 0x9 PUSH1 0x20 SWAP1 DUP2 MSTORE PUSH1 0x40 SWAP2 DUP3 SWAP1 KECCAK256 DUP1 SLOAD PUSH32 0xFFFFFFFFFFFFFFFFFFFFFFFFFFFFFFFFFFFFFFFFFFFFFFFFFFFFFFFFFFFFFF00 AND DUP6 ISZERO ISZERO SWAP1 DUP2 OR SWAP1 SWAP2 SSTORE SWAP2 MLOAD SWAP2 DUP3 MSTORE PUSH32 0xEE42947BC760229EEFF964017AC68EDDB00BA98B0DEFCD90A1BC85A5AFCEB057 SWAP2 ADD PUSH2 0x9B1 JUMP JUMPDEST PUSH2 0xB30 DUP3 DUP3 PUSH2 0x9BD JUMP JUMPDEST PUSH2 0x8D3 JUMPI PUSH1 0x40 MLOAD PUSH3 0x461BCD PUSH1 0xE5 SHL DUP2 MSTORE PUSH1 0x20 PUSH1 0x4 DUP3 ADD MSTORE PUSH1 0x17 PUSH1 0x24 DUP3 ADD MSTORE PUSH32 0x415554485F53454E4445525F4E4F545F414C4C4F574544000000000000000000 PUSH1 0x44 DUP3 ADD MSTORE PUSH1 0x64 ADD PUSH2 0x4F0 JUMP JUMPDEST PUSH2 0xB85 DUP2 PUSH2 0xF7D JUMP JUMPDEST ISZERO PUSH2 0xBD2 JUMPI PUSH1 0x40 MLOAD PUSH3 0x461BCD PUSH1 0xE5 SHL DUP2 MSTORE PUSH1 0x20 PUSH1 0x4 DUP3 ADD MSTORE PUSH1 0x17 PUSH1 0x24 DUP3 ADD MSTORE PUSH32 0x444550454E44454E43595F4E4F545F535441544546554C000000000000000000 PUSH1 0x44 DUP3 ADD MSTORE PUSH1 0x64 ADD PUSH2 0x4F0 JUMP JUMPDEST POP JUMP JUMPDEST PUSH1 0x1 SLOAD PUSH1 0x40 DUP1 MLOAD PUSH32 0x17FCB39B00000000000000000000000000000000000000000000000000000000 DUP2 MSTORE SWAP1 MLOAD PUSH20 0xFFFFFFFFFFFFFFFFFFFFFFFFFFFFFFFFFFFFFFFF SWAP1 SWAP3 AND DUP1 BALANCE SWAP3 PUSH2 0xC83 SWAP3 PUSH4 0x17FCB39B SWAP2 PUSH1 0x4 DUP1 DUP4 ADD SWAP3 PUSH1 0x20 SWAP3 SWAP2 SWAP1 DUP3 SWAP1 SUB ADD DUP2 DUP7 DUP1 EXTCODESIZE ISZERO DUP1 ISZERO PUSH2 0xC45 JUMPI PUSH1 0x0 DUP1 REVERT JUMPDEST POP GAS STATICCALL ISZERO DUP1 ISZERO PUSH2 0xC59 JUMPI RETURNDATASIZE PUSH1 0x0 DUP1 RETURNDATACOPY RETURNDATASIZE PUSH1 0x0 REVERT JUMPDEST POP POP POP POP PUSH1 0x40 MLOAD RETURNDATASIZE PUSH1 0x1F NOT PUSH1 0x1F DUP3 ADD AND DUP3 ADD DUP1 PUSH1 0x40 MSTORE POP DUP2 ADD SWAP1 PUSH2 0xC7D SWAP2 SWAP1 PUSH2 0x1ACB JUMP JUMPDEST DUP3 PUSH2 0x11DE JUMP JUMPDEST PUSH1 0x1 SLOAD PUSH1 0x40 DUP1 MLOAD PUSH1 0x0 DUP2 MSTORE PUSH1 0x20 DUP2 ADD SWAP2 DUP3 SWAP1 MSTORE PUSH32 0x109B3C8300000000000000000000000000000000000000000000000000000000 SWAP1 SWAP2 MSTORE PUSH20 0xFFFFFFFFFFFFFFFFFFFFFFFFFFFFFFFFFFFFFFFF SWAP1 SWAP2 AND SWAP1 PUSH4 0x109B3C83 SWAP1 PUSH2 0xCE8 SWAP1 DUP5 SWAP1 PUSH1 0x24 DUP2 ADD PUSH2 0x1CFB JUMP JUMPDEST PUSH1 0x20 PUSH1 0x40 MLOAD DUP1 DUP4 SUB DUP2 PUSH1 0x0 DUP8 DUP1 EXTCODESIZE ISZERO DUP1 ISZERO PUSH2 0xD02 JUMPI PUSH1 0x0 DUP1 REVERT JUMPDEST POP GAS CALL ISZERO DUP1 ISZERO PUSH2 0xD16 JUMPI RETURNDATASIZE PUSH1 0x0 DUP1 RETURNDATACOPY RETURNDATASIZE PUSH1 0x0 REVERT JUMPDEST POP POP POP POP PUSH1 0x40 MLOAD RETURNDATASIZE PUSH1 0x1F NOT PUSH1 0x1F DUP3 ADD AND DUP3 ADD DUP1 PUSH1 0x40 MSTORE POP DUP2 ADD SWAP1 PUSH2 0xD3A SWAP2 SWAP1 PUSH2 0x1BF9 JUMP JUMPDEST POP PUSH1 0x40 MLOAD PUSH32 0x68F46C45A243A0E9065A97649FAF9A5AFE1692F2679E650C2F853B9CD734CC0E SWAP1 PUSH1 0x0 SWAP1 LOG1 POP JUMP JUMPDEST PUSH2 0xD6F PUSH2 0x12F3 JUMP JUMPDEST PUSH2 0xD77 PUSH2 0xBD5 JUMP JUMPDEST PUSH2 0x674 PUSH2 0x13B2 JUMP JUMPDEST PUSH1 0x1 SLOAD PUSH1 0x40 MLOAD PUSH32 0x70A0823100000000000000000000000000000000000000000000000000000000 DUP2 MSTORE PUSH20 0xFFFFFFFFFFFFFFFFFFFFFFFFFFFFFFFFFFFFFFFF SWAP2 DUP3 AND PUSH1 0x4 DUP3 ADD MSTORE PUSH1 0x0 SWAP2 DUP4 AND SWAP1 PUSH4 0x70A08231 SWAP1 PUSH1 0x24 ADD PUSH1 0x20 PUSH1 0x40 MLOAD DUP1 DUP4 SUB DUP2 DUP7 DUP1 EXTCODESIZE ISZERO DUP1 ISZERO PUSH2 0xDEC JUMPI PUSH1 0x0 DUP1 REVERT JUMPDEST POP GAS STATICCALL ISZERO DUP1 ISZERO PUSH2 0xE00 JUMPI RETURNDATASIZE PUSH1 0x0 DUP1 RETURNDATACOPY RETURNDATASIZE PUSH1 0x0 REVERT JUMPDEST POP POP POP POP PUSH1 0x40 MLOAD RETURNDATASIZE PUSH1 0x1F NOT PUSH1 0x1F DUP3 ADD AND DUP3 ADD DUP1 PUSH1 0x40 MSTORE POP DUP2 ADD SWAP1 PUSH2 0xE24 SWAP2 SWAP1 PUSH2 0x1BF9 JUMP JUMPDEST SWAP1 POP PUSH2 0x8D3 DUP3 DUP3 PUSH2 0x165C JUMP JUMPDEST PUSH20 0xFFFFFFFFFFFFFFFFFFFFFFFFFFFFFFFFFFFFFFFF DUP3 AND PUSH1 0x0 DUP2 DUP2 MSTORE PUSH1 0x20 DUP2 DUP2 MSTORE PUSH1 0x40 DUP1 DUP4 KECCAK256 PUSH32 0xFFFFFFFF00000000000000000000000000000000000000000000000000000000 DUP7 AND DUP1 DUP6 MSTORE SWAP1 DUP4 MSTORE SWAP3 DUP2 SWAP1 KECCAK256 DUP1 SLOAD PUSH32 0xFFFFFFFFFFFFFFFFFFFFFFFFFFFFFFFFFFFFFFFFFFFFFFFFFFFFFFFFFFFFFF00 AND SWAP1 SSTORE MLOAD SWAP2 DUP3 MSTORE PUSH32 0xA2E97B9EEA8D1168700E334304EDD057DFF89C0384CA6F920C73CC3E48C8E523 SWAP2 ADD PUSH2 0x9B1 JUMP JUMPDEST PUSH20 0xFFFFFFFFFFFFFFFFFFFFFFFFFFFFFFFFFFFFFFFF DUP3 AND PUSH1 0x0 DUP2 DUP2 MSTORE PUSH1 0x20 DUP2 DUP2 MSTORE PUSH1 0x40 DUP1 DUP4 KECCAK256 PUSH32 0xFFFFFFFF00000000000000000000000000000000000000000000000000000000 DUP7 AND DUP1 DUP6 MSTORE SWAP1 DUP4 MSTORE SWAP3 DUP2 SWAP1 KECCAK256 DUP1 SLOAD PUSH32 0xFFFFFFFFFFFFFFFFFFFFFFFFFFFFFFFFFFFFFFFFFFFFFFFFFFFFFFFFFFFFFF00 AND PUSH1 0x1 OR SWAP1 SSTORE MLOAD SWAP2 DUP3 MSTORE PUSH32 0x7F06C1C34AD47198873DA9DCDE2E40904035D41B23DA3A9132DF674A75022DF7 SWAP2 ADD PUSH2 0x9B1 JUMP JUMPDEST PUSH1 0x40 MLOAD PUSH32 0x8B4872B800000000000000000000000000000000000000000000000000000000 DUP2 MSTORE PUSH20 0xFFFFFFFFFFFFFFFFFFFFFFFFFFFFFFFFFFFFFFFF DUP3 DUP2 AND PUSH1 0x4 DUP4 ADD MSTORE PUSH1 0x0 SWAP2 DUP3 SWAP2 PUSH32 0x0 AND SWAP1 PUSH4 0x8B4872B8 SWAP1 PUSH1 0x24 ADD PUSH1 0x20 PUSH1 0x40 MLOAD DUP1 DUP4 SUB DUP2 DUP7 DUP1 EXTCODESIZE ISZERO DUP1 ISZERO PUSH2 0x1009 JUMPI PUSH1 0x0 DUP1 REVERT JUMPDEST POP GAS STATICCALL ISZERO DUP1 ISZERO PUSH2 0x101D JUMPI RETURNDATASIZE PUSH1 0x0 DUP1 RETURNDATACOPY RETURNDATASIZE PUSH1 0x0 REVERT JUMPDEST POP POP POP POP PUSH1 0x40 MLOAD RETURNDATASIZE PUSH1 0x1F NOT PUSH1 0x1F DUP3 ADD AND DUP3 ADD DUP1 PUSH1 0x40 MSTORE POP DUP2 ADD SWAP1 PUSH2 0x1041 SWAP2 SWAP1 PUSH2 0x1ACB JUMP JUMPDEST SWAP1 POP PUSH1 0x0 PUSH20 0xFFFFFFFFFFFFFFFFFFFFFFFFFFFFFFFFFFFFFFFF DUP3 AND PUSH2 0x1066 JUMPI DUP4 PUSH2 0x1068 JUMP JUMPDEST DUP2 JUMPDEST PUSH1 0x40 MLOAD PUSH32 0x9235DCF800000000000000000000000000000000000000000000000000000000 DUP2 MSTORE PUSH20 0xFFFFFFFFFFFFFFFFFFFFFFFFFFFFFFFFFFFFFFFF DUP1 DUP4 AND PUSH1 0x4 DUP4 ADD MSTORE SWAP2 SWAP3 POP PUSH1 0x0 SWAP2 DUP3 SWAP2 DUP3 SWAP2 PUSH32 0x0 AND SWAP1 PUSH4 0x9235DCF8 SWAP1 PUSH1 0x24 ADD PUSH1 0x60 PUSH1 0x40 MLOAD DUP1 DUP4 SUB DUP2 DUP7 DUP1 EXTCODESIZE ISZERO DUP1 ISZERO PUSH2 0x10F9 JUMPI PUSH1 0x0 DUP1 REVERT JUMPDEST POP GAS STATICCALL ISZERO DUP1 ISZERO PUSH2 0x110D JUMPI RETURNDATASIZE PUSH1 0x0 DUP1 RETURNDATACOPY RETURNDATASIZE PUSH1 0x0 REVERT JUMPDEST POP POP POP POP PUSH1 0x40 MLOAD RETURNDATASIZE PUSH1 0x1F NOT PUSH1 0x1F DUP3 ADD AND DUP3 ADD DUP1 PUSH1 0x40 MSTORE POP DUP2 ADD SWAP1 PUSH2 0x1131 SWAP2 SWAP1 PUSH2 0x1BB7 JUMP JUMPDEST SWAP2 SWAP5 POP SWAP3 POP SWAP1 POP DUP1 PUSH2 0x1185 JUMPI PUSH1 0x40 MLOAD PUSH3 0x461BCD PUSH1 0xE5 SHL DUP2 MSTORE PUSH1 0x20 PUSH1 0x4 DUP3 ADD MSTORE PUSH1 0x19 PUSH1 0x24 DUP3 ADD MSTORE PUSH32 0x444550454E44454E43595F4E4F545F5245474953544552454400000000000000 PUSH1 0x44 DUP3 ADD MSTORE PUSH1 0x64 ADD PUSH2 0x4F0 JUMP JUMPDEST DUP2 ISZERO PUSH2 0x11D3 JUMPI PUSH1 0x40 MLOAD PUSH3 0x461BCD PUSH1 0xE5 SHL DUP2 MSTORE PUSH1 0x20 PUSH1 0x4 DUP3 ADD MSTORE PUSH1 0x15 PUSH1 0x24 DUP3 ADD MSTORE PUSH32 0x444550454E44454E43595F444550524543415445440000000000000000000000 PUSH1 0x44 DUP3 ADD MSTORE PUSH1 0x64 ADD PUSH2 0x4F0 JUMP JUMPDEST POP SWAP1 SWAP6 SWAP5 POP POP POP POP POP JUMP JUMPDEST PUSH1 0x1 SLOAD PUSH1 0x2 SLOAD PUSH1 0x40 MLOAD PUSH32 0xAC41865A00000000000000000000000000000000000000000000000000000000 DUP2 MSTORE PUSH20 0xFFFFFFFFFFFFFFFFFFFFFFFFFFFFFFFFFFFFFFFF DUP6 DUP2 AND PUSH1 0x4 DUP4 ADD MSTORE SWAP2 DUP3 AND PUSH1 0x24 DUP3 ADD MSTORE PUSH1 0x0 SWAP3 SWAP2 SWAP1 SWAP2 AND SWAP1 PUSH4 0xAC41865A SWAP1 PUSH1 0x44 ADD PUSH1 0x20 PUSH1 0x40 MLOAD DUP1 DUP4 SUB DUP2 DUP7 DUP1 EXTCODESIZE ISZERO DUP1 ISZERO PUSH2 0x1258 JUMPI PUSH1 0x0 DUP1 REVERT JUMPDEST POP GAS STATICCALL ISZERO DUP1 ISZERO PUSH2 0x126C JUMPI RETURNDATASIZE PUSH1 0x0 DUP1 RETURNDATACOPY RETURNDATASIZE PUSH1 0x0 REVERT JUMPDEST POP POP POP POP PUSH1 0x40 MLOAD RETURNDATASIZE PUSH1 0x1F NOT PUSH1 0x1F DUP3 ADD AND DUP3 ADD DUP1 PUSH1 0x40 MSTORE POP DUP2 ADD SWAP1 PUSH2 0x1290 SWAP2 SWAP1 PUSH2 0x1BF9 JUMP JUMPDEST PUSH1 0x3 SLOAD SWAP1 SWAP2 POP PUSH2 0x12A0 DUP4 DUP4 PUSH2 0x171A JUMP JUMPDEST LT ISZERO PUSH2 0x12EE JUMPI PUSH1 0x40 MLOAD PUSH3 0x461BCD PUSH1 0xE5 SHL DUP2 MSTORE PUSH1 0x20 PUSH1 0x4 DUP3 ADD MSTORE PUSH1 0x15 PUSH1 0x24 DUP3 ADD MSTORE PUSH32 0x4D494E5F5448524553484F4C445F4E4F545F4D45540000000000000000000000 PUSH1 0x44 DUP3 ADD MSTORE PUSH1 0x64 ADD PUSH2 0x4F0 JUMP JUMPDEST POP POP POP JUMP JUMPDEST GAS PUSH1 0x4 SSTORE CALLER PUSH1 0x0 SWAP1 DUP2 MSTORE PUSH1 0x9 PUSH1 0x20 MSTORE PUSH1 0x40 SWAP1 KECCAK256 SLOAD PUSH1 0xFF AND PUSH2 0x1356 JUMPI PUSH1 0x40 MLOAD PUSH3 0x461BCD PUSH1 0xE5 SHL DUP2 MSTORE PUSH1 0x20 PUSH1 0x4 DUP3 ADD MSTORE PUSH1 0x12 PUSH1 0x24 DUP3 ADD MSTORE PUSH32 0x53454E4445525F4E4F545F52454C415945520000000000000000000000000000 PUSH1 0x44 DUP3 ADD MSTORE PUSH1 0x64 ADD PUSH2 0x4F0 JUMP JUMPDEST PUSH1 0x6 SLOAD DUP1 ISZERO DUP1 PUSH2 0x1366 JUMPI POP DUP1 GASPRICE GT ISZERO JUMPDEST PUSH2 0xBD2 JUMPI PUSH1 0x40 MLOAD PUSH3 0x461BCD PUSH1 0xE5 SHL DUP2 MSTORE PUSH1 0x20 PUSH1 0x4 DUP3 ADD MSTORE PUSH1 0x15 PUSH1 0x24 DUP3 ADD MSTORE PUSH32 0x4741535F50524943455F41424F56455F4C494D49540000000000000000000000 PUSH1 0x44 DUP3 ADD MSTORE PUSH1 0x64 ADD PUSH2 0x4F0 JUMP JUMPDEST PUSH1 0x0 GAS PUSH1 0x4 SLOAD PUSH2 0x13C2 SWAP2 SWAP1 PUSH2 0x1D69 JUMP JUMPDEST SWAP1 POP PUSH1 0x0 GASPRICE ADDRESS PUSH20 0xFFFFFFFFFFFFFFFFFFFFFFFFFFFFFFFFFFFFFFFF AND PUSH4 0x389AA342 PUSH1 0x40 MLOAD DUP2 PUSH4 0xFFFFFFFF AND PUSH1 0xE0 SHL DUP2 MSTORE PUSH1 0x4 ADD PUSH1 0x20 PUSH1 0x40 MLOAD DUP1 DUP4 SUB DUP2 DUP7 DUP1 EXTCODESIZE ISZERO DUP1 ISZERO PUSH2 0x140D JUMPI PUSH1 0x0 DUP1 REVERT JUMPDEST POP GAS STATICCALL ISZERO DUP1 ISZERO PUSH2 0x1421 JUMPI RETURNDATASIZE PUSH1 0x0 DUP1 RETURNDATACOPY RETURNDATASIZE PUSH1 0x0 REVERT JUMPDEST POP POP POP POP PUSH1 0x40 MLOAD RETURNDATASIZE PUSH1 0x1F NOT PUSH1 0x1F DUP3 ADD AND DUP3 ADD DUP1 PUSH1 0x40 MSTORE POP DUP2 ADD SWAP1 PUSH2 0x1445 SWAP2 SWAP1 PUSH2 0x1BF9 JUMP JUMPDEST PUSH2 0x144F SWAP1 DUP5 PUSH2 0x1D14 JUMP JUMPDEST PUSH2 0x1459 SWAP2 SWAP1 PUSH2 0x1D2C JUMP JUMPDEST PUSH1 0x7 SLOAD PUSH1 0x8 SLOAD SWAP2 SWAP3 POP SWAP1 PUSH20 0xFFFFFFFFFFFFFFFFFFFFFFFFFFFFFFFFFFFFFFFF AND PUSH1 0x0 PUSH2 0x148E PUSH2 0x1487 DUP4 PUSH2 0x17BF JUMP JUMPDEST DUP6 SWAP1 PUSH2 0x171A JUMP JUMPDEST SWAP1 POP DUP3 ISZERO DUP1 PUSH2 0x149D JUMPI POP DUP3 DUP2 GT ISZERO JUMPDEST PUSH2 0x14E9 JUMPI PUSH1 0x40 MLOAD PUSH3 0x461BCD PUSH1 0xE5 SHL DUP2 MSTORE PUSH1 0x20 PUSH1 0x4 DUP3 ADD MSTORE PUSH1 0x13 PUSH1 0x24 DUP3 ADD MSTORE PUSH32 0x54585F434F53545F41424F56455F4C494D495400000000000000000000000000 PUSH1 0x44 DUP3 ADD MSTORE PUSH1 0x64 ADD PUSH2 0x4F0 JUMP JUMPDEST PUSH2 0x14F3 DUP3 DUP3 PUSH2 0x1992 JUMP JUMPDEST ISZERO PUSH2 0x1650 JUMPI PUSH1 0x1 SLOAD PUSH1 0x40 DUP1 MLOAD PUSH32 0xC415B95C00000000000000000000000000000000000000000000000000000000 DUP2 MSTORE SWAP1 MLOAD PUSH20 0xFFFFFFFFFFFFFFFFFFFFFFFFFFFFFFFFFFFFFFFF SWAP1 SWAP3 AND SWAP2 PUSH4 0x9003AFEE SWAP2 DUP6 SWAP2 DUP6 SWAP2 DUP6 SWAP2 PUSH4 0xC415B95C SWAP2 PUSH1 0x4 DUP1 DUP3 ADD SWAP3 PUSH1 0x20 SWAP3 SWAP1 SWAP2 SWAP1 DUP3 SWAP1 SUB ADD DUP2 DUP7 DUP1 EXTCODESIZE ISZERO DUP1 ISZERO PUSH2 0x156F JUMPI PUSH1 0x0 DUP1 REVERT JUMPDEST POP GAS STATICCALL ISZERO DUP1 ISZERO PUSH2 0x1583 JUMPI RETURNDATASIZE PUSH1 0x0 DUP1 RETURNDATACOPY RETURNDATASIZE PUSH1 0x0 REVERT JUMPDEST POP POP POP POP PUSH1 0x40 MLOAD RETURNDATASIZE PUSH1 0x1F NOT PUSH1 0x1F DUP3 ADD AND DUP3 ADD DUP1 PUSH1 0x40 MSTORE POP DUP2 ADD SWAP1 PUSH2 0x15A7 SWAP2 SWAP1 PUSH2 0x1ACB JUMP JUMPDEST PUSH1 0x40 MLOAD DUP1 PUSH1 0x40 ADD PUSH1 0x40 MSTORE DUP1 PUSH1 0x7 DUP2 MSTORE PUSH1 0x20 ADD PUSH32 0x52454C4159455200000000000000000000000000000000000000000000000000 DUP2 MSTORE POP PUSH1 0x40 MLOAD DUP6 PUSH4 0xFFFFFFFF AND PUSH1 0xE0 SHL DUP2 MSTORE PUSH1 0x4 ADD PUSH2 0x15FC SWAP5 SWAP4 SWAP3 SWAP2 SWAP1 PUSH2 0x1CB2 JUMP JUMPDEST PUSH1 0x20 PUSH1 0x40 MLOAD DUP1 DUP4 SUB DUP2 PUSH1 0x0 DUP8 DUP1 EXTCODESIZE ISZERO DUP1 ISZERO PUSH2 0x1616 JUMPI PUSH1 0x0 DUP1 REVERT JUMPDEST POP GAS CALL ISZERO DUP1 ISZERO PUSH2 0x162A JUMPI RETURNDATASIZE PUSH1 0x0 DUP1 RETURNDATACOPY RETURNDATASIZE PUSH1 0x0 REVERT JUMPDEST POP POP POP POP PUSH1 0x40 MLOAD RETURNDATASIZE PUSH1 0x1F NOT PUSH1 0x1F DUP3 ADD AND DUP3 ADD DUP1 PUSH1 0x40 MSTORE POP DUP2 ADD SWAP1 PUSH2 0x164E SWAP2 SWAP1 PUSH2 0x1BF9 JUMP JUMPDEST POP JUMPDEST POP POP PUSH1 0x0 PUSH1 0x4 SSTORE POP POP POP JUMP JUMPDEST PUSH1 0x1 SLOAD PUSH1 0xA SLOAD PUSH1 0x40 DUP1 MLOAD PUSH1 0x0 DUP2 MSTORE PUSH1 0x20 DUP2 ADD SWAP2 DUP3 SWAP1 MSTORE PUSH32 0x9003AFEE00000000000000000000000000000000000000000000000000000000 SWAP1 SWAP2 MSTORE PUSH20 0xFFFFFFFFFFFFFFFFFFFFFFFFFFFFFFFFFFFFFFFF SWAP3 DUP4 AND SWAP3 PUSH4 0x9003AFEE SWAP3 PUSH2 0x16C8 SWAP3 DUP8 SWAP3 DUP8 SWAP3 AND SWAP1 PUSH1 0x24 DUP2 ADD PUSH2 0x1CB2 JUMP JUMPDEST PUSH1 0x20 PUSH1 0x40 MLOAD DUP1 DUP4 SUB DUP2 PUSH1 0x0 DUP8 DUP1 EXTCODESIZE ISZERO DUP1 ISZERO PUSH2 0x16E2 JUMPI PUSH1 0x0 DUP1 REVERT JUMPDEST POP GAS CALL ISZERO DUP1 ISZERO PUSH2 0x16F6 JUMPI RETURNDATASIZE PUSH1 0x0 DUP1 RETURNDATACOPY RETURNDATASIZE PUSH1 0x0 REVERT JUMPDEST POP POP POP POP PUSH1 0x40 MLOAD RETURNDATASIZE PUSH1 0x1F NOT PUSH1 0x1F DUP3 ADD AND DUP3 ADD DUP1 PUSH1 0x40 MSTORE POP DUP2 ADD SWAP1 PUSH2 0x12EE SWAP2 SWAP1 PUSH2 0x1BF9 JUMP JUMPDEST PUSH1 0x0 DUP3 DUP3 MUL DUP4 ISZERO DUP1 PUSH2 0x1761 JUMPI POP DUP3 DUP5 DUP3 DUP2 PUSH2 0x175E JUMPI PUSH32 0x4E487B7100000000000000000000000000000000000000000000000000000000 PUSH1 0x0 MSTORE PUSH1 0x12 PUSH1 0x4 MSTORE PUSH1 0x24 PUSH1 0x0 REVERT JUMPDEST DIV EQ JUMPDEST PUSH2 0x17AD JUMPI PUSH1 0x40 MLOAD PUSH3 0x461BCD PUSH1 0xE5 SHL DUP2 MSTORE PUSH1 0x20 PUSH1 0x4 DUP3 ADD MSTORE PUSH1 0xC PUSH1 0x24 DUP3 ADD MSTORE PUSH32 0x4D554C5F4F564552464C4F570000000000000000000000000000000000000000 PUSH1 0x44 DUP3 ADD MSTORE PUSH1 0x64 ADD PUSH2 0x4F0 JUMP JUMPDEST PUSH8 0xDE0B6B3A7640000 SWAP1 DIV SWAP4 SWAP3 POP POP POP JUMP JUMPDEST PUSH1 0x0 DUP1 PUSH1 0x1 PUSH1 0x0 SWAP1 SLOAD SWAP1 PUSH2 0x100 EXP SWAP1 DIV PUSH20 0xFFFFFFFFFFFFFFFFFFFFFFFFFFFFFFFFFFFFFFFF AND PUSH20 0xFFFFFFFFFFFFFFFFFFFFFFFFFFFFFFFFFFFFFFFF AND PUSH4 0x17FCB39B PUSH1 0x40 MLOAD DUP2 PUSH4 0xFFFFFFFF AND PUSH1 0xE0 SHL DUP2 MSTORE PUSH1 0x4 ADD PUSH1 0x20 PUSH1 0x40 MLOAD DUP1 DUP4 SUB DUP2 DUP7 DUP1 EXTCODESIZE ISZERO DUP1 ISZERO PUSH2 0x182A JUMPI PUSH1 0x0 DUP1 REVERT JUMPDEST POP GAS STATICCALL ISZERO DUP1 ISZERO PUSH2 0x183E JUMPI RETURNDATASIZE PUSH1 0x0 DUP1 RETURNDATACOPY RETURNDATASIZE PUSH1 0x0 REVERT JUMPDEST POP POP POP POP PUSH1 0x40 MLOAD RETURNDATASIZE PUSH1 0x1F NOT PUSH1 0x1F DUP3 ADD AND DUP3 ADD DUP1 PUSH1 0x40 MSTORE POP DUP2 ADD SWAP1 PUSH2 0x1862 SWAP2 SWAP1 PUSH2 0x1ACB JUMP JUMPDEST SWAP1 POP PUSH1 0x0 PUSH20 0xFFFFFFFFFFFFFFFFFFFFFFFFFFFFFFFFFFFFFFFF DUP5 AND PUSH20 0xEEEEEEEEEEEEEEEEEEEEEEEEEEEEEEEEEEEEEEEE EQ DUP1 PUSH2 0x18C9 JUMPI POP DUP2 PUSH20 0xFFFFFFFFFFFFFFFFFFFFFFFFFFFFFFFFFFFFFFFF AND DUP5 PUSH20 0xFFFFFFFFFFFFFFFFFFFFFFFFFFFFFFFFFFFFFFFF AND EQ JUMPDEST SWAP1 POP DUP1 PUSH2 0x1980 JUMPI PUSH1 0x1 SLOAD PUSH1 0x40 MLOAD PUSH32 0xAC41865A00000000000000000000000000000000000000000000000000000000 DUP2 MSTORE PUSH20 0xFFFFFFFFFFFFFFFFFFFFFFFFFFFFFFFFFFFFFFFF DUP5 DUP2 AND PUSH1 0x4 DUP4 ADD MSTORE DUP7 DUP2 AND PUSH1 0x24 DUP4 ADD MSTORE SWAP1 SWAP2 AND SWAP1 PUSH4 0xAC41865A SWAP1 PUSH1 0x44 ADD PUSH1 0x20 PUSH1 0x40 MLOAD DUP1 DUP4 SUB DUP2 DUP7 DUP1 EXTCODESIZE ISZERO DUP1 ISZERO PUSH2 0x1943 JUMPI PUSH1 0x0 DUP1 REVERT JUMPDEST POP GAS STATICCALL ISZERO DUP1 ISZERO PUSH2 0x1957 JUMPI RETURNDATASIZE PUSH1 0x0 DUP1 RETURNDATACOPY RETURNDATASIZE PUSH1 0x0 REVERT JUMPDEST POP POP POP POP PUSH1 0x40 MLOAD RETURNDATASIZE PUSH1 0x1F NOT PUSH1 0x1F DUP3 ADD AND DUP3 ADD DUP1 PUSH1 0x40 MSTORE POP DUP2 ADD SWAP1 PUSH2 0x197B SWAP2 SWAP1 PUSH2 0x1BF9 JUMP JUMPDEST PUSH2 0x198A JUMP JUMPDEST PUSH8 0xDE0B6B3A7640000 JUMPDEST SWAP5 SWAP4 POP POP POP POP JUMP JUMPDEST PUSH1 0x5 SLOAD PUSH1 0x0 SWAP1 PUSH1 0xFF AND PUSH2 0x19A7 JUMPI POP PUSH1 0x1 PUSH2 0xA6F JUMP JUMPDEST PUSH1 0x0 PUSH20 0xFFFFFFFFFFFFFFFFFFFFFFFFFFFFFFFFFFFFFFFF DUP5 AND PUSH20 0xEEEEEEEEEEEEEEEEEEEEEEEEEEEEEEEEEEEEEEEE EQ PUSH2 0x1A82 JUMPI PUSH1 0x1 SLOAD PUSH1 0x40 MLOAD PUSH32 0x70A0823100000000000000000000000000000000000000000000000000000000 DUP2 MSTORE PUSH20 0xFFFFFFFFFFFFFFFFFFFFFFFFFFFFFFFFFFFFFFFF SWAP2 DUP3 AND PUSH1 0x4 DUP3 ADD MSTORE SWAP1 DUP6 AND SWAP1 PUSH4 0x70A08231 SWAP1 PUSH1 0x24 ADD PUSH1 0x20 PUSH1 0x40 MLOAD DUP1 DUP4 SUB DUP2 DUP7 DUP1 EXTCODESIZE ISZERO DUP1 ISZERO PUSH2 0x1A45 JUMPI PUSH1 0x0 DUP1 REVERT JUMPDEST POP GAS STATICCALL ISZERO DUP1 ISZERO PUSH2 0x1A59 JUMPI RETURNDATASIZE PUSH1 0x0 DUP1 RETURNDATACOPY RETURNDATASIZE PUSH1 0x0 REVERT JUMPDEST POP POP POP POP PUSH1 0x40 MLOAD RETURNDATASIZE PUSH1 0x1F NOT PUSH1 0x1F DUP3 ADD AND DUP3 ADD DUP1 PUSH1 0x40 MSTORE POP DUP2 ADD SWAP1 PUSH2 0x1A7D SWAP2 SWAP1 PUSH2 0x1BF9 JUMP JUMPDEST PUSH2 0x1A9D JUMP JUMPDEST PUSH1 0x1 SLOAD PUSH20 0xFFFFFFFFFFFFFFFFFFFFFFFFFFFFFFFFFFFFFFFF AND BALANCE JUMPDEST SWAP1 SWAP3 GT ISZERO SWAP4 SWAP3 POP POP POP JUMP JUMPDEST PUSH1 0x0 PUSH1 0x20 DUP3 DUP5 SUB SLT ISZERO PUSH2 0x1AB9 JUMPI DUP1 DUP2 REVERT JUMPDEST DUP2 CALLDATALOAD PUSH2 0x1AC4 DUP2 PUSH2 0x1DAF JUMP JUMPDEST SWAP4 SWAP3 POP POP POP JUMP JUMPDEST PUSH1 0x0 PUSH1 0x20 DUP3 DUP5 SUB SLT ISZERO PUSH2 0x1ADC JUMPI DUP1 DUP2 REVERT JUMPDEST DUP2 MLOAD PUSH2 0x1AC4 DUP2 PUSH2 0x1DAF JUMP JUMPDEST PUSH1 0x0 DUP1 PUSH1 0x40 DUP4 DUP6 SUB SLT ISZERO PUSH2 0x1AF9 JUMPI DUP1 DUP2 REVERT JUMPDEST DUP3 CALLDATALOAD PUSH2 0x1B04 DUP2 PUSH2 0x1DAF JUMP JUMPDEST SWAP2 POP PUSH1 0x20 DUP4 ADD CALLDATALOAD PUSH2 0x1B14 DUP2 PUSH2 0x1DD1 JUMP JUMPDEST DUP1 SWAP2 POP POP SWAP3 POP SWAP3 SWAP1 POP JUMP JUMPDEST PUSH1 0x0 DUP1 PUSH1 0x40 DUP4 DUP6 SUB SLT ISZERO PUSH2 0x1B31 JUMPI DUP2 DUP3 REVERT JUMPDEST DUP3 CALLDATALOAD PUSH2 0x1B3C DUP2 PUSH2 0x1DAF JUMP JUMPDEST SWAP2 POP PUSH1 0x20 DUP4 ADD CALLDATALOAD PUSH32 0xFFFFFFFF00000000000000000000000000000000000000000000000000000000 DUP2 AND DUP2 EQ PUSH2 0x1B14 JUMPI DUP2 DUP3 REVERT JUMPDEST PUSH1 0x0 DUP1 PUSH1 0x40 DUP4 DUP6 SUB SLT ISZERO PUSH2 0x1B82 JUMPI DUP2 DUP3 REVERT JUMPDEST DUP3 CALLDATALOAD PUSH2 0x1B8D DUP2 PUSH2 0x1DAF JUMP JUMPDEST SWAP5 PUSH1 0x20 SWAP4 SWAP1 SWAP4 ADD CALLDATALOAD SWAP4 POP POP POP JUMP JUMPDEST PUSH1 0x0 PUSH1 0x20 DUP3 DUP5 SUB SLT ISZERO PUSH2 0x1BAC JUMPI DUP1 DUP2 REVERT JUMPDEST DUP2 CALLDATALOAD PUSH2 0x1AC4 DUP2 PUSH2 0x1DD1 JUMP JUMPDEST PUSH1 0x0 DUP1 PUSH1 0x0 PUSH1 0x60 DUP5 DUP7 SUB SLT ISZERO PUSH2 0x1BCB JUMPI DUP1 DUP2 REVERT JUMPDEST DUP4 MLOAD PUSH2 0x1BD6 DUP2 PUSH2 0x1DD1 JUMP JUMPDEST PUSH1 0x20 DUP6 ADD MLOAD SWAP1 SWAP4 POP PUSH2 0x1BE7 DUP2 PUSH2 0x1DD1 JUMP JUMPDEST DUP1 SWAP3 POP POP PUSH1 0x40 DUP5 ADD MLOAD SWAP1 POP SWAP3 POP SWAP3 POP SWAP3 JUMP JUMPDEST PUSH1 0x0 PUSH1 0x20 DUP3 DUP5 SUB SLT ISZERO PUSH2 0x1C0A JUMPI DUP1 DUP2 REVERT JUMPDEST POP MLOAD SWAP2 SWAP1 POP JUMP JUMPDEST PUSH1 0x0 DUP1 PUSH1 0x0 PUSH1 0x60 DUP5 DUP7 SUB SLT ISZERO PUSH2 0x1C25 JUMPI DUP3 DUP4 REVERT JUMPDEST DUP4 CALLDATALOAD SWAP3 POP PUSH1 0x20 DUP5 ADD CALLDATALOAD SWAP2 POP PUSH1 0x40 DUP5 ADD CALLDATALOAD PUSH2 0x1C3E DUP2 PUSH2 0x1DAF JUMP JUMPDEST DUP1 SWAP2 POP POP SWAP3 POP SWAP3 POP SWAP3 JUMP JUMPDEST PUSH1 0x0 DUP2 MLOAD DUP1 DUP5 MSTORE DUP2 JUMPDEST DUP2 DUP2 LT ISZERO PUSH2 0x1C6E JUMPI PUSH1 0x20 DUP2 DUP6 ADD DUP2 ADD MLOAD DUP7 DUP4 ADD DUP3 ADD MSTORE ADD PUSH2 0x1C52 JUMP JUMPDEST DUP2 DUP2 GT ISZERO PUSH2 0x1C7F JUMPI DUP3 PUSH1 0x20 DUP4 DUP8 ADD ADD MSTORE JUMPDEST POP PUSH1 0x1F ADD PUSH32 0xFFFFFFFFFFFFFFFFFFFFFFFFFFFFFFFFFFFFFFFFFFFFFFFFFFFFFFFFFFFFFFE0 AND SWAP3 SWAP1 SWAP3 ADD PUSH1 0x20 ADD SWAP3 SWAP2 POP POP JUMP JUMPDEST PUSH1 0x0 PUSH20 0xFFFFFFFFFFFFFFFFFFFFFFFFFFFFFFFFFFFFFFFF DUP1 DUP8 AND DUP4 MSTORE DUP6 PUSH1 0x20 DUP5 ADD MSTORE DUP1 DUP6 AND PUSH1 0x40 DUP5 ADD MSTORE POP PUSH1 0x80 PUSH1 0x60 DUP4 ADD MSTORE PUSH2 0x1CF1 PUSH1 0x80 DUP4 ADD DUP5 PUSH2 0x1C49 JUMP JUMPDEST SWAP7 SWAP6 POP POP POP POP POP POP JUMP JUMPDEST PUSH1 0x0 DUP4 DUP3 MSTORE PUSH1 0x40 PUSH1 0x20 DUP4 ADD MSTORE PUSH2 0x198A PUSH1 0x40 DUP4 ADD DUP5 PUSH2 0x1C49 JUMP JUMPDEST PUSH1 0x0 DUP3 NOT DUP3 GT ISZERO PUSH2 0x1D27 JUMPI PUSH2 0x1D27 PUSH2 0x1D80 JUMP JUMPDEST POP ADD SWAP1 JUMP JUMPDEST PUSH1 0x0 DUP2 PUSH32 0xFFFFFFFFFFFFFFFFFFFFFFFFFFFFFFFFFFFFFFFFFFFFFFFFFFFFFFFFFFFFFFFF DIV DUP4 GT DUP3 ISZERO ISZERO AND ISZERO PUSH2 0x1D64 JUMPI PUSH2 0x1D64 PUSH2 0x1D80 JUMP JUMPDEST POP MUL SWAP1 JUMP JUMPDEST PUSH1 0x0 DUP3 DUP3 LT ISZERO PUSH2 0x1D7B JUMPI PUSH2 0x1D7B PUSH2 0x1D80 JUMP JUMPDEST POP SUB SWAP1 JUMP JUMPDEST PUSH32 0x4E487B7100000000000000000000000000000000000000000000000000000000 PUSH1 0x0 MSTORE PUSH1 0x11 PUSH1 0x4 MSTORE PUSH1 0x24 PUSH1 0x0 REVERT JUMPDEST PUSH20 0xFFFFFFFFFFFFFFFFFFFFFFFFFFFFFFFFFFFFFFFF DUP2 AND DUP2 EQ PUSH2 0xBD2 JUMPI PUSH1 0x0 DUP1 REVERT JUMPDEST DUP1 ISZERO ISZERO DUP2 EQ PUSH2 0xBD2 JUMPI PUSH1 0x0 DUP1 REVERT INVALID LOG2 PUSH5 0x6970667358 0x22 SLT KECCAK256 PUSH23 0xAD81463D7F5C081ECE54993EE1E5A4EFC546822D19218D SAR SWAP6 0xD0 0xB0 JUMP PUSH26 0xA01F64736F6C6343000803003300000000000000000000000000 "},"methodIdentifiers":{"ANY_ADDRESS()":"3f81a192","BASE_GAS()":"389aa342","NAMESPACE()":"44ba1fca","authorize(address,bytes4)":"933f0f3c","call()":"28b5e32b","gasPriceLimit()":"961a929c","isAuthorized(address,bytes4)":"d9972b96","isPermissiveModeActive()":"c66197bf","isRelayer(address)":"541d5548","payingGasToken()":"f5aabb1a","recipient()":"66d003ac","registry()":"7b103999","setLimits(uint256,uint256,address)":"5247c1ca","setPermissiveMode(bool)":"0d0eda8b","setRecipient(address)":"3bbed4a0","setRelayer(address,bool)":"ecd8dc3a","setSmartVault(address)":"13e3b57c","setThreshold(address,uint256)":"9d879990","smartVault()":"4fd49efd","thresholdAmount()":"28f4dbb6","thresholdToken()":"b42953e7","totalCostLimit()":"01cfdd29","unauthorize(address,bytes4)":"6646a436"}}}}}