{"contracts/actions/DEXSwapperV2.sol":{"DEXSwapperV2":{"abi":[{"inputs":[{"components":[{"internalType":"address","name":"smartVault","type":"address"},{"internalType":"address","name":"tokenIn","type":"address"},{"internalType":"address","name":"tokenOut","type":"address"},{"internalType":"uint256","name":"maxSlippage","type":"uint256"},{"internalType":"address","name":"swapLimitToken","type":"address"},{"internalType":"uint256","name":"swapLimitAmount","type":"uint256"},{"internalType":"uint256","name":"swapLimitPeriod","type":"uint256"},{"internalType":"address","name":"thresholdToken","type":"address"},{"internalType":"uint256","name":"thresholdAmount","type":"uint256"},{"internalType":"address","name":"relayer","type":"address"},{"internalType":"uint256","name":"gasPriceLimit","type":"uint256"},{"internalType":"uint256","name":"totalCostLimit","type":"uint256"},{"internalType":"address","name":"payingGasToken","type":"address"},{"internalType":"address","name":"admin","type":"address"},{"internalType":"address","name":"registry","type":"address"}],"internalType":"struct DEXSwapperV2.DEXSwapperV2Params","name":"params","type":"tuple"}],"stateMutability":"nonpayable","type":"constructor"},{"anonymous":false,"inputs":[{"indexed":true,"internalType":"address","name":"who","type":"address"},{"indexed":false,"internalType":"bytes4","name":"what","type":"bytes4"}],"name":"Authorized","type":"event"},{"anonymous":false,"inputs":[],"name":"Executed","type":"event"},{"anonymous":false,"inputs":[{"indexed":false,"internalType":"uint256","name":"gasPriceLimit","type":"uint256"},{"indexed":false,"internalType":"uint256","name":"totalCostLimit","type":"uint256"},{"indexed":false,"internalType":"address","name":"payingGasToken","type":"address"}],"name":"LimitsSet","type":"event"},{"anonymous":false,"inputs":[{"indexed":false,"internalType":"uint256","name":"maxSlippage","type":"uint256"}],"name":"MaxSlippageSet","type":"event"},{"anonymous":false,"inputs":[{"indexed":false,"internalType":"bool","name":"active","type":"bool"}],"name":"PermissiveModeSet","type":"event"},{"anonymous":false,"inputs":[{"indexed":true,"internalType":"address","name":"relayer","type":"address"},{"indexed":false,"internalType":"bool","name":"allowed","type":"bool"}],"name":"RelayerSet","type":"event"},{"anonymous":false,"inputs":[{"indexed":true,"internalType":"address","name":"smartVault","type":"address"}],"name":"SmartVaultSet","type":"event"},{"anonymous":false,"inputs":[{"indexed":true,"internalType":"address","name":"token","type":"address"},{"indexed":false,"internalType":"uint256","name":"amount","type":"uint256"},{"indexed":false,"internalType":"uint256","name":"period","type":"uint256"}],"name":"SwapLimitSet","type":"event"},{"anonymous":false,"inputs":[{"indexed":true,"internalType":"address","name":"token","type":"address"},{"indexed":false,"internalType":"uint256","name":"amount","type":"uint256"}],"name":"ThresholdSet","type":"event"},{"anonymous":false,"inputs":[{"indexed":true,"internalType":"address","name":"tokenIn","type":"address"}],"name":"TokenInSet","type":"event"},{"anonymous":false,"inputs":[{"indexed":true,"internalType":"address","name":"tokenOut","type":"address"}],"name":"TokenOutSet","type":"event"},{"anonymous":false,"inputs":[{"indexed":true,"internalType":"address","name":"who","type":"address"},{"indexed":false,"internalType":"bytes4","name":"what","type":"bytes4"}],"name":"Unauthorized","type":"event"},{"inputs":[],"name":"ANY_ADDRESS","outputs":[{"internalType":"address","name":"","type":"address"}],"stateMutability":"view","type":"function"},{"inputs":[],"name":"BASE_GAS","outputs":[{"internalType":"uint256","name":"","type":"uint256"}],"stateMutability":"view","type":"function"},{"inputs":[],"name":"NAMESPACE","outputs":[{"internalType":"bytes32","name":"","type":"bytes32"}],"stateMutability":"view","type":"function"},{"inputs":[{"internalType":"address","name":"who","type":"address"},{"internalType":"bytes4","name":"what","type":"bytes4"}],"name":"authorize","outputs":[],"stateMutability":"nonpayable","type":"function"},{"inputs":[{"internalType":"uint8","name":"source","type":"uint8"},{"internalType":"uint256","name":"amountIn","type":"uint256"},{"internalType":"uint256","name":"slippage","type":"uint256"},{"internalType":"bytes","name":"data","type":"bytes"}],"name":"call","outputs":[],"stateMutability":"nonpayable","type":"function"},{"inputs":[{"internalType":"uint256","name":"amountIn","type":"uint256"},{"internalType":"uint256","name":"slippage","type":"uint256"}],"name":"canExecute","outputs":[{"internalType":"bool","name":"","type":"bool"}],"stateMutability":"view","type":"function"},{"inputs":[],"name":"gasPriceLimit","outputs":[{"internalType":"uint256","name":"","type":"uint256"}],"stateMutability":"view","type":"function"},{"inputs":[{"internalType":"address","name":"who","type":"address"},{"internalType":"bytes4","name":"what","type":"bytes4"}],"name":"isAuthorized","outputs":[{"internalType":"bool","name":"","type":"bool"}],"stateMutability":"view","type":"function"},{"inputs":[],"name":"isPermissiveModeActive","outputs":[{"internalType":"bool","name":"","type":"bool"}],"stateMutability":"view","type":"function"},{"inputs":[{"internalType":"address","name":"","type":"address"}],"name":"isRelayer","outputs":[{"internalType":"bool","name":"","type":"bool"}],"stateMutability":"view","type":"function"},{"inputs":[],"name":"maxSlippage","outputs":[{"internalType":"uint256","name":"","type":"uint256"}],"stateMutability":"view","type":"function"},{"inputs":[],"name":"payingGasToken","outputs":[{"internalType":"address","name":"","type":"address"}],"stateMutability":"view","type":"function"},{"inputs":[],"name":"registry","outputs":[{"internalType":"address","name":"","type":"address"}],"stateMutability":"view","type":"function"},{"inputs":[{"internalType":"uint256","name":"_gasPriceLimit","type":"uint256"},{"internalType":"uint256","name":"_totalCostLimit","type":"uint256"},{"internalType":"address","name":"_payingGasToken","type":"address"}],"name":"setLimits","outputs":[],"stateMutability":"nonpayable","type":"function"},{"inputs":[{"internalType":"uint256","name":"newMaxSlippage","type":"uint256"}],"name":"setMaxSlippage","outputs":[],"stateMutability":"nonpayable","type":"function"},{"inputs":[{"internalType":"bool","name":"active","type":"bool"}],"name":"setPermissiveMode","outputs":[],"stateMutability":"nonpayable","type":"function"},{"inputs":[{"internalType":"address","name":"relayer","type":"address"},{"internalType":"bool","name":"allowed","type":"bool"}],"name":"setRelayer","outputs":[],"stateMutability":"nonpayable","type":"function"},{"inputs":[{"internalType":"address","name":"newSmartVault","type":"address"}],"name":"setSmartVault","outputs":[],"stateMutability":"nonpayable","type":"function"},{"inputs":[{"internalType":"address","name":"token","type":"address"},{"internalType":"uint256","name":"amount","type":"uint256"},{"internalType":"uint256","name":"period","type":"uint256"}],"name":"setSwapLimit","outputs":[],"stateMutability":"nonpayable","type":"function"},{"inputs":[{"internalType":"address","name":"token","type":"address"},{"internalType":"uint256","name":"amount","type":"uint256"}],"name":"setThreshold","outputs":[],"stateMutability":"nonpayable","type":"function"},{"inputs":[{"internalType":"address","name":"token","type":"address"}],"name":"setTokenIn","outputs":[],"stateMutability":"nonpayable","type":"function"},{"inputs":[{"internalType":"address","name":"token","type":"address"}],"name":"setTokenOut","outputs":[],"stateMutability":"nonpayable","type":"function"},{"inputs":[],"name":"smartVault","outputs":[{"internalType":"contract ISmartVault","name":"","type":"address"}],"stateMutability":"view","type":"function"},{"inputs":[],"name":"swapLimit","outputs":[{"internalType":"address","name":"token","type":"address"},{"internalType":"uint256","name":"amount","type":"uint256"},{"internalType":"uint256","name":"accrued","type":"uint256"},{"internalType":"uint256","name":"period","type":"uint256"},{"internalType":"uint256","name":"nextResetTime","type":"uint256"}],"stateMutability":"view","type":"function"},{"inputs":[],"name":"thresholdAmount","outputs":[{"internalType":"uint256","name":"","type":"uint256"}],"stateMutability":"view","type":"function"},{"inputs":[],"name":"thresholdToken","outputs":[{"internalType":"address","name":"","type":"address"}],"stateMutability":"view","type":"function"},{"inputs":[],"name":"tokenIn","outputs":[{"internalType":"address","name":"","type":"address"}],"stateMutability":"view","type":"function"},{"inputs":[],"name":"tokenOut","outputs":[{"internalType":"address","name":"","type":"address"}],"stateMutability":"view","type":"function"},{"inputs":[],"name":"totalCostLimit","outputs":[{"internalType":"uint256","name":"","type":"uint256"}],"stateMutability":"view","type":"function"},{"inputs":[{"internalType":"address","name":"who","type":"address"},{"internalType":"bytes4","name":"what","type":"bytes4"}],"name":"unauthorize","outputs":[],"stateMutability":"nonpayable","type":"function"}],"evm":{"bytecode":{"linkReferences":{},"object":"60a06040523480156200001157600080fd5b5060405162002f2738038062002f278339810160408190526200003491620008ae565b6101a08101516101c08201516001600160601b0319606082901b166080528181818162000069826324cfc3cf60e21b62000592565b6200007c82633323521b60e11b62000592565b505084516001600160a01b031615159350620000e3925050505760405162461bcd60e51b815260206004820152601860248201527f535741505045525f534d4152545f5641554c545f5a45524f000000000000000060448201526064015b60405180910390fd5b8051600180546001600160a01b0319166001600160a01b0390921691821790556040517f6a7abc646862eeb16d8760c0c56dff37a2d2c6b012a3419910005e57e503a08790600090a260208101516001600160a01b0316620001885760405162461bcd60e51b815260206004820152601560248201527f535741505045525f544f4b454e5f494e5f5a45524f00000000000000000000006044820152606401620000da565b6020810151600a80546001600160a01b0319166001600160a01b0390921691821790556040517fa3d6317ebb002931da5a635166601544ede202515d892d0cd8d9f8cdf3f6c02b90600090a260408101516001600160a01b0316620002305760405162461bcd60e51b815260206004820152601660248201527f535741505045525f544f4b454e5f4f55545f5a45524f000000000000000000006044820152606401620000da565b80604001516001600160a01b031681602001516001600160a01b031614156200029c5760405162461bcd60e51b815260206004820152601760248201527f535741505045525f544f4b454e5f4f55545f45515f494e0000000000000000006044820152606401620000da565b604081810151600b80546001600160a01b0319166001600160a01b03909216918217905590517f911ee1e2b03817cdb041d13f742d20850bfa79a83a1748a1b13bfc492ad5ba6090600090a26200030781608001518260a001518360c00151620005fe60201b60201c565b606081015115620003ae57670de0b6b3a764000081606001511115620003705760405162461bcd60e51b815260206004820152601a60248201527f535741505045525f534c4950504147455f41424f56455f4f4e450000000000006044820152606401620000da565b6060810151600c8190556040519081527f655eeddda94c0a9de22c1474e6b5aa4f18d3e8048dc9eff185437c7fe3bfb5059060200160405180910390a15b60e08101516001600160a01b031615801590620003d057506000816101000151115b15620004385760e0810151600280546001600160a01b0319166001600160a01b03909216918217905561010082015160038190556040519081527ff7e18aa0532694077d6fc7df02e85d86b91ba964f958d1949d45c5776d36eb6e9060200160405180910390a25b6101208101516001600160a01b031615620004d757610120810180516001600160a01b03166000908152600960205260409020805460ff19166001179055516200048a90630d54abf160e41b62000592565b8061012001516001600160a01b03167fee42947bc760229eeff964017ac68eddb00ba98b0defcd90a1bc85a5afceb0576001604051620004ce911515815260200190565b60405180910390a25b6101808101516001600160a01b0316158015906200050a5750600081610140015111806200050a57506000816101600151115b156200058b5761014081015160068190556101608201516007819055610180830151600880546001600160a01b0319166001600160a01b039092169182179055604080519384526020840192909252908201527f7bd6a5fc2b1371f48a3ea03997aebaa84a60fb8d4e4a970b9f98a1b4c3d4bb889060600160405180910390a15b5062000a3b565b6001600160a01b0382166000818152602081815260408083206001600160e01b0319861680855290835292819020805460ff19166001179055519182527f7f06c1c34ad47198873da9dcde2e40904035d41b23da3a9132df674a75022df7910160405180910390a25050565b60006001600160a01b03841615801562000616575082155b801562000621575081155b905060006001600160a01b038516158015906200063e5750600084115b80156200064b5750600083115b90508180620006575750805b620006a55760405162461bcd60e51b815260206004820181905260248201527f535741505045525f494e56414c49445f535741505f4c494d49545f494e5055546044820152606401620000da565b6010839055600e8490558115620006c6576000600f819055601155620007b4565b601154620006e8576000600f55620006df834262000a16565b601155620007b4565b600d546001600160a01b03868116911614620007b457600154600d54604051635620c32d60e11b81526001600160a01b0391821660048201528782166024820152600092919091169063ac41865a9060440160206040518083038186803b1580156200075357600080fd5b505afa15801562000768573d6000803e3d6000fd5b505050506040513d601f19601f820116820180604052508101906200078e9190620009be565b9050620007af81600d600201546200081260201b62000d1e1790919060201c565b600f55505b600d80546001600160a01b0319166001600160a01b03871690811790915560408051868152602081018690527f1ee947827037956a0bcf304205b0a18ff50f9da7c690188ed716898cadeca89c910160405180910390a25050505050565b6000828202831580620008425750828482816200083f57634e487b7160e01b600052601260045260246000fd5b04145b6200087f5760405162461bcd60e51b815260206004820152600c60248201526b4d554c5f4f564552464c4f5760a01b6044820152606401620000da565b670de0b6b3a764000090049392505050565b80516001600160a01b0381168114620008a957600080fd5b919050565b60006101e0808385031215620008c2578182fd5b620008cd81620009d7565b9050620008da8362000891565b8152620008ea6020840162000891565b6020820152620008fd6040840162000891565b6040820152606083015160608201526200091a6080840162000891565b608082015260a083015160a082015260c083015160c08201526200094160e0840162000891565b60e082015261010083810151908201526101206200096181850162000891565b90820152610140838101519082015261016080840151908201526101806200098b81850162000891565b908201526101a06200099f84820162000891565b908201526101c0620009b384820162000891565b908201529392505050565b600060208284031215620009d0578081fd5b5051919050565b604051601f8201601f191681016001600160401b038111828210171562000a0e57634e487b7160e01b600052604160045260246000fd5b604052919050565b6000821982111562000a3657634e487b7160e01b81526011600452602481fd5b500190565b60805160601c6124bf62000a68600039600081816103a70152818161148f015261156501526124bf6000f3fe608060405234801561001057600080fd5b50600436106101da5760003560e01c80636a01f09c11610104578063b42953e7116100a2578063d54abf1011610071578063d54abf1014610447578063d9972b961461045a578063ecd8dc3a1461046d578063f5aabb1a14610480576101da565b8063b42953e714610401578063c158910d14610414578063c66197bf14610427578063d0202d3b14610434576101da565b80638c04166f116100de5780638c04166f146103c9578063933f0f3c146103d2578063961a929c146103e55780639d879990146103ee576101da565b80636a01f09c1461033a5780636daf390b1461038f5780637b103999146103a2576101da565b80633f81a1921161017c5780634fd49efd1161014b5780634fd49efd146102de5780635247c1ca146102f1578063541d5548146103045780636646a43614610327576101da565b80633f81a1921461026b57806343f68a491461029157806344ba1fca146102a457806346f6b1bf146102cb576101da565b806313e3b57c116101b857806313e3b57c1461022357806328f4dbb6146102365780632ba292171461023f578063389aa34214610262576101da565b806301cfdd29146101df5780630d0eda8b146101fb5780630f0f3c4114610210575b600080fd5b6101e860075481565b6040519081526020015b60405180910390f35b61020e610209366004612095565b610493565b005b61020e61021e366004611f75565b610527565b61020e610231366004611f75565b61062c565b6101e860035481565b61025261024d366004612123565b61071e565b60405190151581526020016101f2565b6101e86188b881565b6102796001600160a01b0381565b6040516001600160a01b0390911681526020016101f2565b61020e61029f3660046120f3565b61074d565b6101e87ff66b632ae3b479ef109dee46eb319414289a8426a08b64d81aad232941f9d22a81565b61020e6102d9366004612061565b610808565b600154610279906001600160a01b031681565b61020e6102ff366004612144565b610846565b610252610312366004611f75565b60096020526000908152604090205460ff1681565b61020e610335366004611fe5565b610951565b600d54600e54600f5460105460115461035d946001600160a01b03169392919085565b604080516001600160a01b0390961686526020860194909452928401919091526060830152608082015260a0016101f2565b600a54610279906001600160a01b031681565b6102797f000000000000000000000000000000000000000000000000000000000000000081565b6101e8600c5481565b61020e6103e0366004611fe5565b61098d565b6101e860065481565b61020e6103fc366004612036565b6109c5565b600254610279906001600160a01b031681565b61020e610422366004611f75565b610a66565b6005546102529060ff1681565b600b54610279906001600160a01b031681565b61020e61045536600461217c565b610b66565b610252610468366004611fe5565b610bd1565b61020e61047b366004611fad565b610c7a565b600854610279906001600160a01b031681565b6104c1336000357fffffffff0000000000000000000000000000000000000000000000000000000016610dc3565b600580547fffffffffffffffffffffffffffffffffffffffffffffffffffffffffffffff00168215159081179091556040519081527fe8693871decef495d3ddb20b4c2fdc4734c37f8ed6f875fbe1e6a718adbf0fdd906020015b60405180910390a150565b610555336000357fffffffff0000000000000000000000000000000000000000000000000000000016610dc3565b6001600160a01b03811615806105795750600b546001600160a01b03828116911614155b6105ca5760405162461bcd60e51b815260206004820152601760248201527f535741505045525f544f4b454e5f494e5f45515f4f555400000000000000000060448201526064015b60405180910390fd5b600a80547fffffffffffffffffffffffff0000000000000000000000000000000000000000166001600160a01b0383169081179091556040517fa3d6317ebb002931da5a635166601544ede202515d892d0cd8d9f8cdf3f6c02b90600090a250565b61065a336000357fffffffff0000000000000000000000000000000000000000000000000000000016610dc3565b6001546001600160a01b0316156106b35760405162461bcd60e51b815260206004820152601760248201527f534d4152545f5641554c545f414c52454144595f53455400000000000000000060448201526064016105c1565b6106bc81610e19565b600180547fffffffffffffffffffffffff0000000000000000000000000000000000000000166001600160a01b0383169081179091556040517f6a7abc646862eeb16d8760c0c56dff37a2d2c6b012a3419910005e57e503a08790600090a250565b600061072a8383610e72565b61073657506000610747565b600061074184610ec4565b50159150505b92915050565b61077b336000357fffffffff0000000000000000000000000000000000000000000000000000000016610dc3565b670de0b6b3a76400008111156107d35760405162461bcd60e51b815260206004820152601a60248201527f535741505045525f534c4950504147455f41424f56455f4f4e4500000000000060448201526064016105c1565b600c8190556040518181527f655eeddda94c0a9de22c1474e6b5aa4f18d3e8048dc9eff185437c7fe3bfb5059060200161051c565b610836336000357fffffffff0000000000000000000000000000000000000000000000000000000016610dc3565b610841838383610ff7565b505050565b610874336000357fffffffff0000000000000000000000000000000000000000000000000000000016610dc3565b6001600160a01b0381166108ca5760405162461bcd60e51b815260206004820152601560248201527f504159494e475f4741535f544f4b454e5f5a45524f000000000000000000000060448201526064016105c1565b60068390556007829055600880547fffffffffffffffffffffffff0000000000000000000000000000000000000000166001600160a01b0383169081179091556040805185815260208101859052908101919091527f7bd6a5fc2b1371f48a3ea03997aebaa84a60fb8d4e4a970b9f98a1b4c3d4bb889060600160405180910390a1505050565b61097f336000357fffffffff0000000000000000000000000000000000000000000000000000000016610dc3565b6109898282611219565b5050565b6109bb336000357fffffffff0000000000000000000000000000000000000000000000000000000016610dc3565b61098982826112b1565b6109f3336000357fffffffff0000000000000000000000000000000000000000000000000000000016610dc3565b600280547fffffffffffffffffffffffff0000000000000000000000000000000000000000166001600160a01b03841690811790915560038290556040518281527ff7e18aa0532694077d6fc7df02e85d86b91ba964f958d1949d45c5776d36eb6e906020015b60405180910390a25050565b610a94336000357fffffffff0000000000000000000000000000000000000000000000000000000016610dc3565b6001600160a01b0381161580610ab85750600a546001600160a01b03828116911614155b610b045760405162461bcd60e51b815260206004820152601760248201527f535741505045525f544f4b454e5f4f55545f45515f494e00000000000000000060448201526064016105c1565b600b80547fffffffffffffffffffffffff0000000000000000000000000000000000000000166001600160a01b0383169081179091556040517f911ee1e2b03817cdb041d13f742d20850bfa79a83a1748a1b13bfc492ad5ba6090600090a250565b610b94336000357fffffffff0000000000000000000000000000000000000000000000000000000016610dc3565b33600090815260096020526040902054610bcb90859085908590859060ff16610bbf5761134c610bc3565b6114365b63ffffffff16565b50505050565b7fffffffff00000000000000000000000000000000000000000000000000000000811660009081527f50c7a3d1a23c7ff4a61d37c3f2c4aeb36cf60b43ee893723db201d3eb941cbad602052604081205460ff1680610c7357506001600160a01b0383166000908152602081815260408083207fffffffff000000000000000000000000000000000000000000000000000000008616845290915290205460ff165b9392505050565b610ca8336000357fffffffff0000000000000000000000000000000000000000000000000000000016610dc3565b6001600160a01b03821660008181526009602090815260409182902080547fffffffffffffffffffffffffffffffffffffffffffffffffffffffffffffff001685151590811790915591519182527fee42947bc760229eeff964017ac68eddb00ba98b0defcd90a1bc85a5afceb0579101610a5a565b6000828202831580610d65575082848281610d62577f4e487b7100000000000000000000000000000000000000000000000000000000600052601260045260246000fd5b04145b610db15760405162461bcd60e51b815260206004820152600c60248201527f4d554c5f4f564552464c4f57000000000000000000000000000000000000000060448201526064016105c1565b670de0b6b3a764000090049392505050565b610dcd8282610bd1565b6109895760405162461bcd60e51b815260206004820152601760248201527f415554485f53454e4445525f4e4f545f414c4c4f57454400000000000000000060448201526064016105c1565b610e2281611452565b15610e6f5760405162461bcd60e51b815260206004820152601760248201527f444550454e44454e43595f4e4f545f535441544546554c00000000000000000060448201526064016105c1565b50565b600a546000906001600160a01b031615801590610e995750600b546001600160a01b031615155b8015610ea75750600c548211155b8015610c735750600a54610c73906001600160a01b03168461168c565b600e5460009081901580610ee15750600d546001600160a01b0316155b15610ef157506000905080610ff2565b600d54600a546001600160a01b0390811691161415610f11575081610fc9565b600154600a54600d546040517fac41865a0000000000000000000000000000000000000000000000000000000081526001600160a01b0392831660048201529082166024820152600092919091169063ac41865a9060440160206040518083038186803b158015610f8157600080fd5b505afa158015610f95573d6000803e3d6000fd5b505050506040513d601f19601f82011682018060405250810190610fb9919061210b565b9050610fc58482610d1e565b9150505b6011546000904210610fdc576000610fe0565b600f545b610fea908361239c565b600e54109250505b915091565b60006001600160a01b03841615801561100e575082155b8015611018575081155b905060006001600160a01b038516158015906110345750600084115b80156110405750600083115b9050818061104b5750805b6110975760405162461bcd60e51b815260206004820181905260248201527f535741505045525f494e56414c49445f535741505f4c494d49545f494e50555460448201526064016105c1565b6010839055600e84905581156110b6576000600f8190556011556111a3565b6011546110d4576000600f556110cc834261239c565b6011556111a3565b600d546001600160a01b038681169116146111a357600154600d546040517fac41865a0000000000000000000000000000000000000000000000000000000081526001600160a01b0391821660048201528782166024820152600092919091169063ac41865a9060440160206040518083038186803b15801561115657600080fd5b505afa15801561116a573d6000803e3d6000fd5b505050506040513d601f19601f8201168201806040525081019061118e919061210b565b600f5490915061119e9082610d1e565b600f55505b600d80547fffffffffffffffffffffffff0000000000000000000000000000000000000000166001600160a01b03871690811790915560408051868152602081018690527f1ee947827037956a0bcf304205b0a18ff50f9da7c690188ed716898cadeca89c910160405180910390a25050505050565b6001600160a01b0382166000818152602081815260408083207fffffffff0000000000000000000000000000000000000000000000000000000086168085529083529281902080547fffffffffffffffffffffffffffffffffffffffffffffffffffffffffffffff00169055519182527fa2e97b9eea8d1168700e334304edd057dff89c0384ca6f920c73cc3e48c8e5239101610a5a565b6001600160a01b0382166000818152602081815260408083207fffffffff0000000000000000000000000000000000000000000000000000000086168085529083529281902080547fffffffffffffffffffffffffffffffffffffffffffffffffffffffffffffff00166001179055519182527f7f06c1c34ad47198873da9dcde2e40904035d41b23da3a9132df674a75022df79101610a5a565b611356838361174a565b600154600a54600b546040517f37e0ac020000000000000000000000000000000000000000000000000000000081526001600160a01b03938416936337e0ac02936113b4938a9391831692169089906000908a908a90600401612314565b602060405180830381600087803b1580156113ce57600080fd5b505af11580156113e2573d6000803e3d6000fd5b505050506040513d601f19601f82011682018060405250810190611406919061210b565b506040517f68f46c45a243a0e9065a97649faf9a5afe1692f2679e650c2f853b9cd734cc0e90600090a150505050565b61143e6117f1565b61144a8484848461134c565b610bcb6118b0565b6040517f8b4872b80000000000000000000000000000000000000000000000000000000081526001600160a01b03828116600483015260009182917f00000000000000000000000000000000000000000000000000000000000000001690638b4872b89060240160206040518083038186803b1580156114d157600080fd5b505afa1580156114e5573d6000803e3d6000fd5b505050506040513d601f19601f820116820180604052508101906115099190611f91565b905060006001600160a01b0382166115215783611523565b815b6040517f9235dcf80000000000000000000000000000000000000000000000000000000081526001600160a01b038083166004830152919250600091829182917f00000000000000000000000000000000000000000000000000000000000000001690639235dcf89060240160606040518083038186803b1580156115a757600080fd5b505afa1580156115bb573d6000803e3d6000fd5b505050506040513d601f19601f820116820180604052508101906115df91906120b1565b91945092509050806116335760405162461bcd60e51b815260206004820152601960248201527f444550454e44454e43595f4e4f545f524547495354455245440000000000000060448201526064016105c1565b81156116815760405162461bcd60e51b815260206004820152601560248201527f444550454e44454e43595f44455052454341544544000000000000000000000060448201526064016105c1565b509095945050505050565b6001546002546040517fac41865a0000000000000000000000000000000000000000000000000000000081526001600160a01b03858116600483015291821660248201526000928392169063ac41865a9060440160206040518083038186803b1580156116f857600080fd5b505afa15801561170c573d6000803e3d6000fd5b505050506040513d601f19601f82011682018060405250810190611730919061210b565b6003549091506117408483610d1e565b1015949350505050565b6117548282611b33565b60008061176084610ec4565b9150915081156117b25760405162461bcd60e51b815260206004820152601b60248201527f535741505045525f535741505f4c494d49545f4558434545444544000000000060448201526064016105c1565b60115442106117d1576000600f556010546117cd904261239c565b6011555b80600d60020160008282546117e6919061239c565b909155505050505050565b5a6004553360009081526009602052604090205460ff166118545760405162461bcd60e51b815260206004820152601260248201527f53454e4445525f4e4f545f52454c41594552000000000000000000000000000060448201526064016105c1565b6006548015806118645750803a11155b610e6f5760405162461bcd60e51b815260206004820152601560248201527f4741535f50524943455f41424f56455f4c494d4954000000000000000000000060448201526064016105c1565b60005a6004546118c091906123f1565b905060003a306001600160a01b031663389aa3426040518163ffffffff1660e01b815260040160206040518083038186803b1580156118fe57600080fd5b505afa158015611912573d6000803e3d6000fd5b505050506040513d601f19601f82011682018060405250810190611936919061210b565b611940908461239c565b61194a91906123b4565b600754600854919250906001600160a01b0316600061197261196b83611c4b565b8590610d1e565b90508215806119815750828111155b6119cd5760405162461bcd60e51b815260206004820152601360248201527f54585f434f53545f41424f56455f4c494d49540000000000000000000000000060448201526064016105c1565b6119d78282611da9565b15611b2757600154604080517fc415b95c00000000000000000000000000000000000000000000000000000000815290516001600160a01b0390921691639003afee9185918591859163c415b95c91600480820192602092909190829003018186803b158015611a4657600080fd5b505afa158015611a5a573d6000803e3d6000fd5b505050506040513d601f19601f82011682018060405250810190611a7e9190611f91565b6040518060400160405280600781526020017f52454c41594552000000000000000000000000000000000000000000000000008152506040518563ffffffff1660e01b8152600401611ad394939291906122d8565b602060405180830381600087803b158015611aed57600080fd5b505af1158015611b01573d6000803e3d6000fd5b505050506040513d601f19601f82011682018060405250810190611b25919061210b565b505b50506000600455505050565b600a546001600160a01b0316611b8b5760405162461bcd60e51b815260206004820152601860248201527f535741505045525f544f4b454e5f494e5f4e4f545f534554000000000000000060448201526064016105c1565b600b546001600160a01b0316611be35760405162461bcd60e51b815260206004820152601960248201527f535741505045525f544f4b454e5f4f55545f4e4f545f5345540000000000000060448201526064016105c1565b600c54811115611c355760405162461bcd60e51b815260206004820152601a60248201527f535741505045525f534c4950504147455f41424f56455f4d415800000000000060448201526064016105c1565b600a54610989906001600160a01b031683611dd1565b600080611c5783611e27565b905080611d9957600154604080517f17fcb39b00000000000000000000000000000000000000000000000000000000815290516001600160a01b039092169163ac41865a9183916317fcb39b91600480820192602092909190829003018186803b158015611cc457600080fd5b505afa158015611cd8573d6000803e3d6000fd5b505050506040513d601f19601f82011682018060405250810190611cfc9190611f91565b6040517fffffffff0000000000000000000000000000000000000000000000000000000060e084901b1681526001600160a01b03918216600482015290861660248201526044015b60206040518083038186803b158015611d5c57600080fd5b505afa158015611d70573d6000803e3d6000fd5b505050506040513d601f19601f82011682018060405250810190611d94919061210b565b610c73565b670de0b6b3a76400009392505050565b60055460009060ff16611dbe57506001610747565b81611dc884611eef565b10159392505050565b611ddb828261168c565b6109895760405162461bcd60e51b815260206004820152601560248201527f4d494e5f5448524553484f4c445f4e4f545f4d4554000000000000000000000060448201526064016105c1565b600073eeeeeeeeeeeeeeeeeeeeeeeeeeeeeeeeeeeeeeee6001600160a01b03831614806107475750600160009054906101000a90046001600160a01b03166001600160a01b03166317fcb39b6040518163ffffffff1660e01b815260040160206040518083038186803b158015611e9d57600080fd5b505afa158015611eb1573d6000803e3d6000fd5b505050506040513d601f19601f82011682018060405250810190611ed59190611f91565b6001600160a01b0316826001600160a01b03161492915050565b60006001600160a01b03821673eeeeeeeeeeeeeeeeeeeeeeeeeeeeeeeeeeeeeeee1480611f61576001546040517f70a082310000000000000000000000000000000000000000000000000000000081526001600160a01b039182166004820152908416906370a0823190602401611d44565b50506001546001600160a01b031631919050565b600060208284031215611f86578081fd5b8135610c7381612466565b600060208284031215611fa2578081fd5b8151610c7381612466565b60008060408385031215611fbf578081fd5b8235611fca81612466565b91506020830135611fda8161247b565b809150509250929050565b60008060408385031215611ff7578182fd5b823561200281612466565b915060208301357fffffffff0000000000000000000000000000000000000000000000000000000081168114611fda578182fd5b60008060408385031215612048578182fd5b823561205381612466565b946020939093013593505050565b600080600060608486031215612075578081fd5b833561208081612466565b95602085013595506040909401359392505050565b6000602082840312156120a6578081fd5b8135610c738161247b565b6000806000606084860312156120c5578283fd5b83516120d08161247b565b60208501519093506120e18161247b565b80925050604084015190509250925092565b600060208284031215612104578081fd5b5035919050565b60006020828403121561211c578081fd5b5051919050565b60008060408385031215612135578182fd5b50508035926020909101359150565b600080600060608486031215612158578283fd5b8335925060208401359150604084013561217181612466565b809150509250925092565b60008060008060808587031215612191578081fd5b843560ff811681146121a1578182fd5b93506020850135925060408501359150606085013567ffffffffffffffff808211156121cb578283fd5b818701915087601f8301126121de578283fd5b8135818111156121f0576121f0612437565b604051601f82017fffffffffffffffffffffffffffffffffffffffffffffffffffffffffffffffe0908116603f0116810190838211818310171561223657612236612437565b816040528281528a602084870101111561224e578586fd5b82602086016020830137918201602001949094529598949750929550505050565b60008151808452815b8181101561229457602081850181015186830182015201612278565b818111156122a55782602083870101525b50601f017fffffffffffffffffffffffffffffffffffffffffffffffffffffffffffffffe0169290920160200192915050565b60006001600160a01b0380871683528560208401528085166040840152506080606083015261230a608083018461226f565b9695505050505050565b60ff881681526001600160a01b038781166020830152861660408201526060810185905260006002851061236f577f4e487b710000000000000000000000000000000000000000000000000000000081526021600452602481fd5b8460808301528360a083015260e060c083015261238f60e083018461226f565b9998505050505050505050565b600082198211156123af576123af612408565b500190565b6000817fffffffffffffffffffffffffffffffffffffffffffffffffffffffffffffffff04831182151516156123ec576123ec612408565b500290565b60008282101561240357612403612408565b500390565b7f4e487b7100000000000000000000000000000000000000000000000000000000600052601160045260246000fd5b7f4e487b7100000000000000000000000000000000000000000000000000000000600052604160045260246000fd5b6001600160a01b0381168114610e6f57600080fd5b8015158114610e6f57600080fdfea2646970667358221220519e652d3f8af262299d83ae828127a84f5ca61a82d34493452a765c9e11a39f64736f6c63430008030033","opcodes":"PUSH1 0xA0 PUSH1 0x40 MSTORE CALLVALUE DUP1 ISZERO PUSH3 0x11 JUMPI PUSH1 0x0 DUP1 REVERT JUMPDEST POP PUSH1 0x40 MLOAD PUSH3 0x2F27 CODESIZE SUB DUP1 PUSH3 0x2F27 DUP4 CODECOPY DUP2 ADD PUSH1 0x40 DUP2 SWAP1 MSTORE PUSH3 0x34 SWAP2 PUSH3 0x8AE JUMP JUMPDEST PUSH2 0x1A0 DUP2 ADD MLOAD PUSH2 0x1C0 DUP3 ADD MLOAD PUSH1 0x1 PUSH1 0x1 PUSH1 0x60 SHL SUB NOT PUSH1 0x60 DUP3 SWAP1 SHL AND PUSH1 0x80 MSTORE DUP2 DUP2 DUP2 DUP2 PUSH3 0x69 DUP3 PUSH4 0x24CFC3CF PUSH1 0xE2 SHL PUSH3 0x592 JUMP JUMPDEST PUSH3 0x7C DUP3 PUSH4 0x3323521B PUSH1 0xE1 SHL PUSH3 0x592 JUMP JUMPDEST POP POP DUP5 MLOAD PUSH1 0x1 PUSH1 0x1 PUSH1 0xA0 SHL SUB AND ISZERO ISZERO SWAP4 POP PUSH3 0xE3 SWAP3 POP POP POP JUMPI PUSH1 0x40 MLOAD PUSH3 0x461BCD PUSH1 0xE5 SHL DUP2 MSTORE PUSH1 0x20 PUSH1 0x4 DUP3 ADD MSTORE PUSH1 0x18 PUSH1 0x24 DUP3 ADD MSTORE PUSH32 0x535741505045525F534D4152545F5641554C545F5A45524F0000000000000000 PUSH1 0x44 DUP3 ADD MSTORE PUSH1 0x64 ADD JUMPDEST PUSH1 0x40 MLOAD DUP1 SWAP2 SUB SWAP1 REVERT JUMPDEST DUP1 MLOAD PUSH1 0x1 DUP1 SLOAD PUSH1 0x1 PUSH1 0x1 PUSH1 0xA0 SHL SUB NOT AND PUSH1 0x1 PUSH1 0x1 PUSH1 0xA0 SHL SUB SWAP1 SWAP3 AND SWAP2 DUP3 OR SWAP1 SSTORE PUSH1 0x40 MLOAD PUSH32 0x6A7ABC646862EEB16D8760C0C56DFF37A2D2C6B012A3419910005E57E503A087 SWAP1 PUSH1 0x0 SWAP1 LOG2 PUSH1 0x20 DUP2 ADD MLOAD PUSH1 0x1 PUSH1 0x1 PUSH1 0xA0 SHL SUB AND PUSH3 0x188 JUMPI PUSH1 0x40 MLOAD PUSH3 0x461BCD PUSH1 0xE5 SHL DUP2 MSTORE PUSH1 0x20 PUSH1 0x4 DUP3 ADD MSTORE PUSH1 0x15 PUSH1 0x24 DUP3 ADD MSTORE PUSH32 0x535741505045525F544F4B454E5F494E5F5A45524F0000000000000000000000 PUSH1 0x44 DUP3 ADD MSTORE PUSH1 0x64 ADD PUSH3 0xDA JUMP JUMPDEST PUSH1 0x20 DUP2 ADD MLOAD PUSH1 0xA DUP1 SLOAD PUSH1 0x1 PUSH1 0x1 PUSH1 0xA0 SHL SUB NOT AND PUSH1 0x1 PUSH1 0x1 PUSH1 0xA0 SHL SUB SWAP1 SWAP3 AND SWAP2 DUP3 OR SWAP1 SSTORE PUSH1 0x40 MLOAD PUSH32 0xA3D6317EBB002931DA5A635166601544EDE202515D892D0CD8D9F8CDF3F6C02B SWAP1 PUSH1 0x0 SWAP1 LOG2 PUSH1 0x40 DUP2 ADD MLOAD PUSH1 0x1 PUSH1 0x1 PUSH1 0xA0 SHL SUB AND PUSH3 0x230 JUMPI PUSH1 0x40 MLOAD PUSH3 0x461BCD PUSH1 0xE5 SHL DUP2 MSTORE PUSH1 0x20 PUSH1 0x4 DUP3 ADD MSTORE PUSH1 0x16 PUSH1 0x24 DUP3 ADD MSTORE PUSH32 0x535741505045525F544F4B454E5F4F55545F5A45524F00000000000000000000 PUSH1 0x44 DUP3 ADD MSTORE PUSH1 0x64 ADD PUSH3 0xDA JUMP JUMPDEST DUP1 PUSH1 0x40 ADD MLOAD PUSH1 0x1 PUSH1 0x1 PUSH1 0xA0 SHL SUB AND DUP2 PUSH1 0x20 ADD MLOAD PUSH1 0x1 PUSH1 0x1 PUSH1 0xA0 SHL SUB AND EQ ISZERO PUSH3 0x29C JUMPI PUSH1 0x40 MLOAD PUSH3 0x461BCD PUSH1 0xE5 SHL DUP2 MSTORE PUSH1 0x20 PUSH1 0x4 DUP3 ADD MSTORE PUSH1 0x17 PUSH1 0x24 DUP3 ADD MSTORE PUSH32 0x535741505045525F544F4B454E5F4F55545F45515F494E000000000000000000 PUSH1 0x44 DUP3 ADD MSTORE PUSH1 0x64 ADD PUSH3 0xDA JUMP JUMPDEST PUSH1 0x40 DUP2 DUP2 ADD MLOAD PUSH1 0xB DUP1 SLOAD PUSH1 0x1 PUSH1 0x1 PUSH1 0xA0 SHL SUB NOT AND PUSH1 0x1 PUSH1 0x1 PUSH1 0xA0 SHL SUB SWAP1 SWAP3 AND SWAP2 DUP3 OR SWAP1 SSTORE SWAP1 MLOAD PUSH32 0x911EE1E2B03817CDB041D13F742D20850BFA79A83A1748A1B13BFC492AD5BA60 SWAP1 PUSH1 0x0 SWAP1 LOG2 PUSH3 0x307 DUP2 PUSH1 0x80 ADD MLOAD DUP3 PUSH1 0xA0 ADD MLOAD DUP4 PUSH1 0xC0 ADD MLOAD PUSH3 0x5FE PUSH1 0x20 SHL PUSH1 0x20 SHR JUMP JUMPDEST PUSH1 0x60 DUP2 ADD MLOAD ISZERO PUSH3 0x3AE JUMPI PUSH8 0xDE0B6B3A7640000 DUP2 PUSH1 0x60 ADD MLOAD GT ISZERO PUSH3 0x370 JUMPI PUSH1 0x40 MLOAD PUSH3 0x461BCD PUSH1 0xE5 SHL DUP2 MSTORE PUSH1 0x20 PUSH1 0x4 DUP3 ADD MSTORE PUSH1 0x1A PUSH1 0x24 DUP3 ADD MSTORE PUSH32 0x535741505045525F534C4950504147455F41424F56455F4F4E45000000000000 PUSH1 0x44 DUP3 ADD MSTORE PUSH1 0x64 ADD PUSH3 0xDA JUMP JUMPDEST PUSH1 0x60 DUP2 ADD MLOAD PUSH1 0xC DUP2 SWAP1 SSTORE PUSH1 0x40 MLOAD SWAP1 DUP2 MSTORE PUSH32 0x655EEDDDA94C0A9DE22C1474E6B5AA4F18D3E8048DC9EFF185437C7FE3BFB505 SWAP1 PUSH1 0x20 ADD PUSH1 0x40 MLOAD DUP1 SWAP2 SUB SWAP1 LOG1 JUMPDEST PUSH1 0xE0 DUP2 ADD MLOAD PUSH1 0x1 PUSH1 0x1 PUSH1 0xA0 SHL SUB AND ISZERO DUP1 ISZERO SWAP1 PUSH3 0x3D0 JUMPI POP PUSH1 0x0 DUP2 PUSH2 0x100 ADD MLOAD GT JUMPDEST ISZERO PUSH3 0x438 JUMPI PUSH1 0xE0 DUP2 ADD MLOAD PUSH1 0x2 DUP1 SLOAD PUSH1 0x1 PUSH1 0x1 PUSH1 0xA0 SHL SUB NOT AND PUSH1 0x1 PUSH1 0x1 PUSH1 0xA0 SHL SUB SWAP1 SWAP3 AND SWAP2 DUP3 OR SWAP1 SSTORE PUSH2 0x100 DUP3 ADD MLOAD PUSH1 0x3 DUP2 SWAP1 SSTORE PUSH1 0x40 MLOAD SWAP1 DUP2 MSTORE PUSH32 0xF7E18AA0532694077D6FC7DF02E85D86B91BA964F958D1949D45C5776D36EB6E SWAP1 PUSH1 0x20 ADD PUSH1 0x40 MLOAD DUP1 SWAP2 SUB SWAP1 LOG2 JUMPDEST PUSH2 0x120 DUP2 ADD MLOAD PUSH1 0x1 PUSH1 0x1 PUSH1 0xA0 SHL SUB AND ISZERO PUSH3 0x4D7 JUMPI PUSH2 0x120 DUP2 ADD DUP1 MLOAD PUSH1 0x1 PUSH1 0x1 PUSH1 0xA0 SHL SUB AND PUSH1 0x0 SWAP1 DUP2 MSTORE PUSH1 0x9 PUSH1 0x20 MSTORE PUSH1 0x40 SWAP1 KECCAK256 DUP1 SLOAD PUSH1 0xFF NOT AND PUSH1 0x1 OR SWAP1 SSTORE MLOAD PUSH3 0x48A SWAP1 PUSH4 0xD54ABF1 PUSH1 0xE4 SHL PUSH3 0x592 JUMP JUMPDEST DUP1 PUSH2 0x120 ADD MLOAD PUSH1 0x1 PUSH1 0x1 PUSH1 0xA0 SHL SUB AND PUSH32 0xEE42947BC760229EEFF964017AC68EDDB00BA98B0DEFCD90A1BC85A5AFCEB057 PUSH1 0x1 PUSH1 0x40 MLOAD PUSH3 0x4CE SWAP2 ISZERO ISZERO DUP2 MSTORE PUSH1 0x20 ADD SWAP1 JUMP JUMPDEST PUSH1 0x40 MLOAD DUP1 SWAP2 SUB SWAP1 LOG2 JUMPDEST PUSH2 0x180 DUP2 ADD MLOAD PUSH1 0x1 PUSH1 0x1 PUSH1 0xA0 SHL SUB AND ISZERO DUP1 ISZERO SWAP1 PUSH3 0x50A JUMPI POP PUSH1 0x0 DUP2 PUSH2 0x140 ADD MLOAD GT DUP1 PUSH3 0x50A JUMPI POP PUSH1 0x0 DUP2 PUSH2 0x160 ADD MLOAD GT JUMPDEST ISZERO PUSH3 0x58B JUMPI PUSH2 0x140 DUP2 ADD MLOAD PUSH1 0x6 DUP2 SWAP1 SSTORE PUSH2 0x160 DUP3 ADD MLOAD PUSH1 0x7 DUP2 SWAP1 SSTORE PUSH2 0x180 DUP4 ADD MLOAD PUSH1 0x8 DUP1 SLOAD PUSH1 0x1 PUSH1 0x1 PUSH1 0xA0 SHL SUB NOT AND PUSH1 0x1 PUSH1 0x1 PUSH1 0xA0 SHL SUB SWAP1 SWAP3 AND SWAP2 DUP3 OR SWAP1 SSTORE PUSH1 0x40 DUP1 MLOAD SWAP4 DUP5 MSTORE PUSH1 0x20 DUP5 ADD SWAP3 SWAP1 SWAP3 MSTORE SWAP1 DUP3 ADD MSTORE PUSH32 0x7BD6A5FC2B1371F48A3EA03997AEBAA84A60FB8D4E4A970B9F98A1B4C3D4BB88 SWAP1 PUSH1 0x60 ADD PUSH1 0x40 MLOAD DUP1 SWAP2 SUB SWAP1 LOG1 JUMPDEST POP PUSH3 0xA3B JUMP JUMPDEST PUSH1 0x1 PUSH1 0x1 PUSH1 0xA0 SHL SUB DUP3 AND PUSH1 0x0 DUP2 DUP2 MSTORE PUSH1 0x20 DUP2 DUP2 MSTORE PUSH1 0x40 DUP1 DUP4 KECCAK256 PUSH1 0x1 PUSH1 0x1 PUSH1 0xE0 SHL SUB NOT DUP7 AND DUP1 DUP6 MSTORE SWAP1 DUP4 MSTORE SWAP3 DUP2 SWAP1 KECCAK256 DUP1 SLOAD PUSH1 0xFF NOT AND PUSH1 0x1 OR SWAP1 SSTORE MLOAD SWAP2 DUP3 MSTORE PUSH32 0x7F06C1C34AD47198873DA9DCDE2E40904035D41B23DA3A9132DF674A75022DF7 SWAP2 ADD PUSH1 0x40 MLOAD DUP1 SWAP2 SUB SWAP1 LOG2 POP POP JUMP JUMPDEST PUSH1 0x0 PUSH1 0x1 PUSH1 0x1 PUSH1 0xA0 SHL SUB DUP5 AND ISZERO DUP1 ISZERO PUSH3 0x616 JUMPI POP DUP3 ISZERO JUMPDEST DUP1 ISZERO PUSH3 0x621 JUMPI POP DUP2 ISZERO JUMPDEST SWAP1 POP PUSH1 0x0 PUSH1 0x1 PUSH1 0x1 PUSH1 0xA0 SHL SUB DUP6 AND ISZERO DUP1 ISZERO SWAP1 PUSH3 0x63E JUMPI POP PUSH1 0x0 DUP5 GT JUMPDEST DUP1 ISZERO PUSH3 0x64B JUMPI POP PUSH1 0x0 DUP4 GT JUMPDEST SWAP1 POP DUP2 DUP1 PUSH3 0x657 JUMPI POP DUP1 JUMPDEST PUSH3 0x6A5 JUMPI PUSH1 0x40 MLOAD PUSH3 0x461BCD PUSH1 0xE5 SHL DUP2 MSTORE PUSH1 0x20 PUSH1 0x4 DUP3 ADD DUP2 SWAP1 MSTORE PUSH1 0x24 DUP3 ADD MSTORE PUSH32 0x535741505045525F494E56414C49445F535741505F4C494D49545F494E505554 PUSH1 0x44 DUP3 ADD MSTORE PUSH1 0x64 ADD PUSH3 0xDA JUMP JUMPDEST PUSH1 0x10 DUP4 SWAP1 SSTORE PUSH1 0xE DUP5 SWAP1 SSTORE DUP2 ISZERO PUSH3 0x6C6 JUMPI PUSH1 0x0 PUSH1 0xF DUP2 SWAP1 SSTORE PUSH1 0x11 SSTORE PUSH3 0x7B4 JUMP JUMPDEST PUSH1 0x11 SLOAD PUSH3 0x6E8 JUMPI PUSH1 0x0 PUSH1 0xF SSTORE PUSH3 0x6DF DUP4 TIMESTAMP PUSH3 0xA16 JUMP JUMPDEST PUSH1 0x11 SSTORE PUSH3 0x7B4 JUMP JUMPDEST PUSH1 0xD SLOAD PUSH1 0x1 PUSH1 0x1 PUSH1 0xA0 SHL SUB DUP7 DUP2 AND SWAP2 AND EQ PUSH3 0x7B4 JUMPI PUSH1 0x1 SLOAD PUSH1 0xD SLOAD PUSH1 0x40 MLOAD PUSH4 0x5620C32D PUSH1 0xE1 SHL DUP2 MSTORE PUSH1 0x1 PUSH1 0x1 PUSH1 0xA0 SHL SUB SWAP2 DUP3 AND PUSH1 0x4 DUP3 ADD MSTORE DUP8 DUP3 AND PUSH1 0x24 DUP3 ADD MSTORE PUSH1 0x0 SWAP3 SWAP2 SWAP1 SWAP2 AND SWAP1 PUSH4 0xAC41865A SWAP1 PUSH1 0x44 ADD PUSH1 0x20 PUSH1 0x40 MLOAD DUP1 DUP4 SUB DUP2 DUP7 DUP1 EXTCODESIZE ISZERO DUP1 ISZERO PUSH3 0x753 JUMPI PUSH1 0x0 DUP1 REVERT JUMPDEST POP GAS STATICCALL ISZERO DUP1 ISZERO PUSH3 0x768 JUMPI RETURNDATASIZE PUSH1 0x0 DUP1 RETURNDATACOPY RETURNDATASIZE PUSH1 0x0 REVERT JUMPDEST POP POP POP POP PUSH1 0x40 MLOAD RETURNDATASIZE PUSH1 0x1F NOT PUSH1 0x1F DUP3 ADD AND DUP3 ADD DUP1 PUSH1 0x40 MSTORE POP DUP2 ADD SWAP1 PUSH3 0x78E SWAP2 SWAP1 PUSH3 0x9BE JUMP JUMPDEST SWAP1 POP PUSH3 0x7AF DUP2 PUSH1 0xD PUSH1 0x2 ADD SLOAD PUSH3 0x812 PUSH1 0x20 SHL PUSH3 0xD1E OR SWAP1 SWAP2 SWAP1 PUSH1 0x20 SHR JUMP JUMPDEST PUSH1 0xF SSTORE POP JUMPDEST PUSH1 0xD DUP1 SLOAD PUSH1 0x1 PUSH1 0x1 PUSH1 0xA0 SHL SUB NOT AND PUSH1 0x1 PUSH1 0x1 PUSH1 0xA0 SHL SUB DUP8 AND SWAP1 DUP2 OR SWAP1 SWAP2 SSTORE PUSH1 0x40 DUP1 MLOAD DUP7 DUP2 MSTORE PUSH1 0x20 DUP2 ADD DUP7 SWAP1 MSTORE PUSH32 0x1EE947827037956A0BCF304205B0A18FF50F9DA7C690188ED716898CADECA89C SWAP2 ADD PUSH1 0x40 MLOAD DUP1 SWAP2 SUB SWAP1 LOG2 POP POP POP POP POP JUMP JUMPDEST PUSH1 0x0 DUP3 DUP3 MUL DUP4 ISZERO DUP1 PUSH3 0x842 JUMPI POP DUP3 DUP5 DUP3 DUP2 PUSH3 0x83F JUMPI PUSH4 0x4E487B71 PUSH1 0xE0 SHL PUSH1 0x0 MSTORE PUSH1 0x12 PUSH1 0x4 MSTORE PUSH1 0x24 PUSH1 0x0 REVERT JUMPDEST DIV EQ JUMPDEST PUSH3 0x87F JUMPI PUSH1 0x40 MLOAD PUSH3 0x461BCD PUSH1 0xE5 SHL DUP2 MSTORE PUSH1 0x20 PUSH1 0x4 DUP3 ADD MSTORE PUSH1 0xC PUSH1 0x24 DUP3 ADD MSTORE PUSH12 0x4D554C5F4F564552464C4F57 PUSH1 0xA0 SHL PUSH1 0x44 DUP3 ADD MSTORE PUSH1 0x64 ADD PUSH3 0xDA JUMP JUMPDEST PUSH8 0xDE0B6B3A7640000 SWAP1 DIV SWAP4 SWAP3 POP POP POP JUMP JUMPDEST DUP1 MLOAD PUSH1 0x1 PUSH1 0x1 PUSH1 0xA0 SHL SUB DUP2 AND DUP2 EQ PUSH3 0x8A9 JUMPI PUSH1 0x0 DUP1 REVERT JUMPDEST SWAP2 SWAP1 POP JUMP JUMPDEST PUSH1 0x0 PUSH2 0x1E0 DUP1 DUP4 DUP6 SUB SLT ISZERO PUSH3 0x8C2 JUMPI DUP2 DUP3 REVERT JUMPDEST PUSH3 0x8CD DUP2 PUSH3 0x9D7 JUMP JUMPDEST SWAP1 POP PUSH3 0x8DA DUP4 PUSH3 0x891 JUMP JUMPDEST DUP2 MSTORE PUSH3 0x8EA PUSH1 0x20 DUP5 ADD PUSH3 0x891 JUMP JUMPDEST PUSH1 0x20 DUP3 ADD MSTORE PUSH3 0x8FD PUSH1 0x40 DUP5 ADD PUSH3 0x891 JUMP JUMPDEST PUSH1 0x40 DUP3 ADD MSTORE PUSH1 0x60 DUP4 ADD MLOAD PUSH1 0x60 DUP3 ADD MSTORE PUSH3 0x91A PUSH1 0x80 DUP5 ADD PUSH3 0x891 JUMP JUMPDEST PUSH1 0x80 DUP3 ADD MSTORE PUSH1 0xA0 DUP4 ADD MLOAD PUSH1 0xA0 DUP3 ADD MSTORE PUSH1 0xC0 DUP4 ADD MLOAD PUSH1 0xC0 DUP3 ADD MSTORE PUSH3 0x941 PUSH1 0xE0 DUP5 ADD PUSH3 0x891 JUMP JUMPDEST PUSH1 0xE0 DUP3 ADD MSTORE PUSH2 0x100 DUP4 DUP2 ADD MLOAD SWAP1 DUP3 ADD MSTORE PUSH2 0x120 PUSH3 0x961 DUP2 DUP6 ADD PUSH3 0x891 JUMP JUMPDEST SWAP1 DUP3 ADD MSTORE PUSH2 0x140 DUP4 DUP2 ADD MLOAD SWAP1 DUP3 ADD MSTORE PUSH2 0x160 DUP1 DUP5 ADD MLOAD SWAP1 DUP3 ADD MSTORE PUSH2 0x180 PUSH3 0x98B DUP2 DUP6 ADD PUSH3 0x891 JUMP JUMPDEST SWAP1 DUP3 ADD MSTORE PUSH2 0x1A0 PUSH3 0x99F DUP5 DUP3 ADD PUSH3 0x891 JUMP JUMPDEST SWAP1 DUP3 ADD MSTORE PUSH2 0x1C0 PUSH3 0x9B3 DUP5 DUP3 ADD PUSH3 0x891 JUMP JUMPDEST SWAP1 DUP3 ADD MSTORE SWAP4 SWAP3 POP POP POP JUMP JUMPDEST PUSH1 0x0 PUSH1 0x20 DUP3 DUP5 SUB SLT ISZERO PUSH3 0x9D0 JUMPI DUP1 DUP2 REVERT JUMPDEST POP MLOAD SWAP2 SWAP1 POP JUMP JUMPDEST PUSH1 0x40 MLOAD PUSH1 0x1F DUP3 ADD PUSH1 0x1F NOT AND DUP2 ADD PUSH1 0x1 PUSH1 0x1 PUSH1 0x40 SHL SUB DUP2 GT DUP3 DUP3 LT OR ISZERO PUSH3 0xA0E JUMPI PUSH4 0x4E487B71 PUSH1 0xE0 SHL PUSH1 0x0 MSTORE PUSH1 0x41 PUSH1 0x4 MSTORE PUSH1 0x24 PUSH1 0x0 REVERT JUMPDEST PUSH1 0x40 MSTORE SWAP2 SWAP1 POP JUMP JUMPDEST PUSH1 0x0 DUP3 NOT DUP3 GT ISZERO PUSH3 0xA36 JUMPI PUSH4 0x4E487B71 PUSH1 0xE0 SHL DUP2 MSTORE PUSH1 0x11 PUSH1 0x4 MSTORE PUSH1 0x24 DUP2 REVERT JUMPDEST POP ADD SWAP1 JUMP JUMPDEST PUSH1 0x80 MLOAD PUSH1 0x60 SHR PUSH2 0x24BF PUSH3 0xA68 PUSH1 0x0 CODECOPY PUSH1 0x0 DUP2 DUP2 PUSH2 0x3A7 ADD MSTORE DUP2 DUP2 PUSH2 0x148F ADD MSTORE PUSH2 0x1565 ADD MSTORE PUSH2 0x24BF PUSH1 0x0 RETURN INVALID PUSH1 0x80 PUSH1 0x40 MSTORE CALLVALUE DUP1 ISZERO PUSH2 0x10 JUMPI PUSH1 0x0 DUP1 REVERT JUMPDEST POP PUSH1 0x4 CALLDATASIZE LT PUSH2 0x1DA JUMPI PUSH1 0x0 CALLDATALOAD PUSH1 0xE0 SHR DUP1 PUSH4 0x6A01F09C GT PUSH2 0x104 JUMPI DUP1 PUSH4 0xB42953E7 GT PUSH2 0xA2 JUMPI DUP1 PUSH4 0xD54ABF10 GT PUSH2 0x71 JUMPI DUP1 PUSH4 0xD54ABF10 EQ PUSH2 0x447 JUMPI DUP1 PUSH4 0xD9972B96 EQ PUSH2 0x45A JUMPI DUP1 PUSH4 0xECD8DC3A EQ PUSH2 0x46D JUMPI DUP1 PUSH4 0xF5AABB1A EQ PUSH2 0x480 JUMPI PUSH2 0x1DA JUMP JUMPDEST DUP1 PUSH4 0xB42953E7 EQ PUSH2 0x401 JUMPI DUP1 PUSH4 0xC158910D EQ PUSH2 0x414 JUMPI DUP1 PUSH4 0xC66197BF EQ PUSH2 0x427 JUMPI DUP1 PUSH4 0xD0202D3B EQ PUSH2 0x434 JUMPI PUSH2 0x1DA JUMP JUMPDEST DUP1 PUSH4 0x8C04166F GT PUSH2 0xDE JUMPI DUP1 PUSH4 0x8C04166F EQ PUSH2 0x3C9 JUMPI DUP1 PUSH4 0x933F0F3C EQ PUSH2 0x3D2 JUMPI DUP1 PUSH4 0x961A929C EQ PUSH2 0x3E5 JUMPI DUP1 PUSH4 0x9D879990 EQ PUSH2 0x3EE JUMPI PUSH2 0x1DA JUMP JUMPDEST DUP1 PUSH4 0x6A01F09C EQ PUSH2 0x33A JUMPI DUP1 PUSH4 0x6DAF390B EQ PUSH2 0x38F JUMPI DUP1 PUSH4 0x7B103999 EQ PUSH2 0x3A2 JUMPI PUSH2 0x1DA JUMP JUMPDEST DUP1 PUSH4 0x3F81A192 GT PUSH2 0x17C JUMPI DUP1 PUSH4 0x4FD49EFD GT PUSH2 0x14B JUMPI DUP1 PUSH4 0x4FD49EFD EQ PUSH2 0x2DE JUMPI DUP1 PUSH4 0x5247C1CA EQ PUSH2 0x2F1 JUMPI DUP1 PUSH4 0x541D5548 EQ PUSH2 0x304 JUMPI DUP1 PUSH4 0x6646A436 EQ PUSH2 0x327 JUMPI PUSH2 0x1DA JUMP JUMPDEST DUP1 PUSH4 0x3F81A192 EQ PUSH2 0x26B JUMPI DUP1 PUSH4 0x43F68A49 EQ PUSH2 0x291 JUMPI DUP1 PUSH4 0x44BA1FCA EQ PUSH2 0x2A4 JUMPI DUP1 PUSH4 0x46F6B1BF EQ PUSH2 0x2CB JUMPI PUSH2 0x1DA JUMP JUMPDEST DUP1 PUSH4 0x13E3B57C GT PUSH2 0x1B8 JUMPI DUP1 PUSH4 0x13E3B57C EQ PUSH2 0x223 JUMPI DUP1 PUSH4 0x28F4DBB6 EQ PUSH2 0x236 JUMPI DUP1 PUSH4 0x2BA29217 EQ PUSH2 0x23F JUMPI DUP1 PUSH4 0x389AA342 EQ PUSH2 0x262 JUMPI PUSH2 0x1DA JUMP JUMPDEST DUP1 PUSH4 0x1CFDD29 EQ PUSH2 0x1DF JUMPI DUP1 PUSH4 0xD0EDA8B EQ PUSH2 0x1FB JUMPI DUP1 PUSH4 0xF0F3C41 EQ PUSH2 0x210 JUMPI JUMPDEST PUSH1 0x0 DUP1 REVERT JUMPDEST PUSH2 0x1E8 PUSH1 0x7 SLOAD DUP2 JUMP JUMPDEST PUSH1 0x40 MLOAD SWAP1 DUP2 MSTORE PUSH1 0x20 ADD JUMPDEST PUSH1 0x40 MLOAD DUP1 SWAP2 SUB SWAP1 RETURN JUMPDEST PUSH2 0x20E PUSH2 0x209 CALLDATASIZE PUSH1 0x4 PUSH2 0x2095 JUMP JUMPDEST PUSH2 0x493 JUMP JUMPDEST STOP JUMPDEST PUSH2 0x20E PUSH2 0x21E CALLDATASIZE PUSH1 0x4 PUSH2 0x1F75 JUMP JUMPDEST PUSH2 0x527 JUMP JUMPDEST PUSH2 0x20E PUSH2 0x231 CALLDATASIZE PUSH1 0x4 PUSH2 0x1F75 JUMP JUMPDEST PUSH2 0x62C JUMP JUMPDEST PUSH2 0x1E8 PUSH1 0x3 SLOAD DUP2 JUMP JUMPDEST PUSH2 0x252 PUSH2 0x24D CALLDATASIZE PUSH1 0x4 PUSH2 0x2123 JUMP JUMPDEST PUSH2 0x71E JUMP JUMPDEST PUSH1 0x40 MLOAD SWAP1 ISZERO ISZERO DUP2 MSTORE PUSH1 0x20 ADD PUSH2 0x1F2 JUMP JUMPDEST PUSH2 0x1E8 PUSH2 0x88B8 DUP2 JUMP JUMPDEST PUSH2 0x279 PUSH1 0x1 PUSH1 0x1 PUSH1 0xA0 SHL SUB DUP2 JUMP JUMPDEST PUSH1 0x40 MLOAD PUSH1 0x1 PUSH1 0x1 PUSH1 0xA0 SHL SUB SWAP1 SWAP2 AND DUP2 MSTORE PUSH1 0x20 ADD PUSH2 0x1F2 JUMP JUMPDEST PUSH2 0x20E PUSH2 0x29F CALLDATASIZE PUSH1 0x4 PUSH2 0x20F3 JUMP JUMPDEST PUSH2 0x74D JUMP JUMPDEST PUSH2 0x1E8 PUSH32 0xF66B632AE3B479EF109DEE46EB319414289A8426A08B64D81AAD232941F9D22A DUP2 JUMP JUMPDEST PUSH2 0x20E PUSH2 0x2D9 CALLDATASIZE PUSH1 0x4 PUSH2 0x2061 JUMP JUMPDEST PUSH2 0x808 JUMP JUMPDEST PUSH1 0x1 SLOAD PUSH2 0x279 SWAP1 PUSH1 0x1 PUSH1 0x1 PUSH1 0xA0 SHL SUB AND DUP2 JUMP JUMPDEST PUSH2 0x20E PUSH2 0x2FF CALLDATASIZE PUSH1 0x4 PUSH2 0x2144 JUMP JUMPDEST PUSH2 0x846 JUMP JUMPDEST PUSH2 0x252 PUSH2 0x312 CALLDATASIZE PUSH1 0x4 PUSH2 0x1F75 JUMP JUMPDEST PUSH1 0x9 PUSH1 0x20 MSTORE PUSH1 0x0 SWAP1 DUP2 MSTORE PUSH1 0x40 SWAP1 KECCAK256 SLOAD PUSH1 0xFF AND DUP2 JUMP JUMPDEST PUSH2 0x20E PUSH2 0x335 CALLDATASIZE PUSH1 0x4 PUSH2 0x1FE5 JUMP JUMPDEST PUSH2 0x951 JUMP JUMPDEST PUSH1 0xD SLOAD PUSH1 0xE SLOAD PUSH1 0xF SLOAD PUSH1 0x10 SLOAD PUSH1 0x11 SLOAD PUSH2 0x35D SWAP5 PUSH1 0x1 PUSH1 0x1 PUSH1 0xA0 SHL SUB AND SWAP4 SWAP3 SWAP2 SWAP1 DUP6 JUMP JUMPDEST PUSH1 0x40 DUP1 MLOAD PUSH1 0x1 PUSH1 0x1 PUSH1 0xA0 SHL SUB SWAP1 SWAP7 AND DUP7 MSTORE PUSH1 0x20 DUP7 ADD SWAP5 SWAP1 SWAP5 MSTORE SWAP3 DUP5 ADD SWAP2 SWAP1 SWAP2 MSTORE PUSH1 0x60 DUP4 ADD MSTORE PUSH1 0x80 DUP3 ADD MSTORE PUSH1 0xA0 ADD PUSH2 0x1F2 JUMP JUMPDEST PUSH1 0xA SLOAD PUSH2 0x279 SWAP1 PUSH1 0x1 PUSH1 0x1 PUSH1 0xA0 SHL SUB AND DUP2 JUMP JUMPDEST PUSH2 0x279 PUSH32 0x0 DUP2 JUMP JUMPDEST PUSH2 0x1E8 PUSH1 0xC SLOAD DUP2 JUMP JUMPDEST PUSH2 0x20E PUSH2 0x3E0 CALLDATASIZE PUSH1 0x4 PUSH2 0x1FE5 JUMP JUMPDEST PUSH2 0x98D JUMP JUMPDEST PUSH2 0x1E8 PUSH1 0x6 SLOAD DUP2 JUMP JUMPDEST PUSH2 0x20E PUSH2 0x3FC CALLDATASIZE PUSH1 0x4 PUSH2 0x2036 JUMP JUMPDEST PUSH2 0x9C5 JUMP JUMPDEST PUSH1 0x2 SLOAD PUSH2 0x279 SWAP1 PUSH1 0x1 PUSH1 0x1 PUSH1 0xA0 SHL SUB AND DUP2 JUMP JUMPDEST PUSH2 0x20E PUSH2 0x422 CALLDATASIZE PUSH1 0x4 PUSH2 0x1F75 JUMP JUMPDEST PUSH2 0xA66 JUMP JUMPDEST PUSH1 0x5 SLOAD PUSH2 0x252 SWAP1 PUSH1 0xFF AND DUP2 JUMP JUMPDEST PUSH1 0xB SLOAD PUSH2 0x279 SWAP1 PUSH1 0x1 PUSH1 0x1 PUSH1 0xA0 SHL SUB AND DUP2 JUMP JUMPDEST PUSH2 0x20E PUSH2 0x455 CALLDATASIZE PUSH1 0x4 PUSH2 0x217C JUMP JUMPDEST PUSH2 0xB66 JUMP JUMPDEST PUSH2 0x252 PUSH2 0x468 CALLDATASIZE PUSH1 0x4 PUSH2 0x1FE5 JUMP JUMPDEST PUSH2 0xBD1 JUMP JUMPDEST PUSH2 0x20E PUSH2 0x47B CALLDATASIZE PUSH1 0x4 PUSH2 0x1FAD JUMP JUMPDEST PUSH2 0xC7A JUMP JUMPDEST PUSH1 0x8 SLOAD PUSH2 0x279 SWAP1 PUSH1 0x1 PUSH1 0x1 PUSH1 0xA0 SHL SUB AND DUP2 JUMP JUMPDEST PUSH2 0x4C1 CALLER PUSH1 0x0 CALLDATALOAD PUSH32 0xFFFFFFFF00000000000000000000000000000000000000000000000000000000 AND PUSH2 0xDC3 JUMP JUMPDEST PUSH1 0x5 DUP1 SLOAD PUSH32 0xFFFFFFFFFFFFFFFFFFFFFFFFFFFFFFFFFFFFFFFFFFFFFFFFFFFFFFFFFFFFFF00 AND DUP3 ISZERO ISZERO SWAP1 DUP2 OR SWAP1 SWAP2 SSTORE PUSH1 0x40 MLOAD SWAP1 DUP2 MSTORE PUSH32 0xE8693871DECEF495D3DDB20B4C2FDC4734C37F8ED6F875FBE1E6A718ADBF0FDD SWAP1 PUSH1 0x20 ADD JUMPDEST PUSH1 0x40 MLOAD DUP1 SWAP2 SUB SWAP1 LOG1 POP JUMP JUMPDEST PUSH2 0x555 CALLER PUSH1 0x0 CALLDATALOAD PUSH32 0xFFFFFFFF00000000000000000000000000000000000000000000000000000000 AND PUSH2 0xDC3 JUMP JUMPDEST PUSH1 0x1 PUSH1 0x1 PUSH1 0xA0 SHL SUB DUP2 AND ISZERO DUP1 PUSH2 0x579 JUMPI POP PUSH1 0xB SLOAD PUSH1 0x1 PUSH1 0x1 PUSH1 0xA0 SHL SUB DUP3 DUP2 AND SWAP2 AND EQ ISZERO JUMPDEST PUSH2 0x5CA JUMPI PUSH1 0x40 MLOAD PUSH3 0x461BCD PUSH1 0xE5 SHL DUP2 MSTORE PUSH1 0x20 PUSH1 0x4 DUP3 ADD MSTORE PUSH1 0x17 PUSH1 0x24 DUP3 ADD MSTORE PUSH32 0x535741505045525F544F4B454E5F494E5F45515F4F5554000000000000000000 PUSH1 0x44 DUP3 ADD MSTORE PUSH1 0x64 ADD JUMPDEST PUSH1 0x40 MLOAD DUP1 SWAP2 SUB SWAP1 REVERT JUMPDEST PUSH1 0xA DUP1 SLOAD PUSH32 0xFFFFFFFFFFFFFFFFFFFFFFFF0000000000000000000000000000000000000000 AND PUSH1 0x1 PUSH1 0x1 PUSH1 0xA0 SHL SUB DUP4 AND SWAP1 DUP2 OR SWAP1 SWAP2 SSTORE PUSH1 0x40 MLOAD PUSH32 0xA3D6317EBB002931DA5A635166601544EDE202515D892D0CD8D9F8CDF3F6C02B SWAP1 PUSH1 0x0 SWAP1 LOG2 POP JUMP JUMPDEST PUSH2 0x65A CALLER PUSH1 0x0 CALLDATALOAD PUSH32 0xFFFFFFFF00000000000000000000000000000000000000000000000000000000 AND PUSH2 0xDC3 JUMP JUMPDEST PUSH1 0x1 SLOAD PUSH1 0x1 PUSH1 0x1 PUSH1 0xA0 SHL SUB AND ISZERO PUSH2 0x6B3 JUMPI PUSH1 0x40 MLOAD PUSH3 0x461BCD PUSH1 0xE5 SHL DUP2 MSTORE PUSH1 0x20 PUSH1 0x4 DUP3 ADD MSTORE PUSH1 0x17 PUSH1 0x24 DUP3 ADD MSTORE PUSH32 0x534D4152545F5641554C545F414C52454144595F534554000000000000000000 PUSH1 0x44 DUP3 ADD MSTORE PUSH1 0x64 ADD PUSH2 0x5C1 JUMP JUMPDEST PUSH2 0x6BC DUP2 PUSH2 0xE19 JUMP JUMPDEST PUSH1 0x1 DUP1 SLOAD PUSH32 0xFFFFFFFFFFFFFFFFFFFFFFFF0000000000000000000000000000000000000000 AND PUSH1 0x1 PUSH1 0x1 PUSH1 0xA0 SHL SUB DUP4 AND SWAP1 DUP2 OR SWAP1 SWAP2 SSTORE PUSH1 0x40 MLOAD PUSH32 0x6A7ABC646862EEB16D8760C0C56DFF37A2D2C6B012A3419910005E57E503A087 SWAP1 PUSH1 0x0 SWAP1 LOG2 POP JUMP JUMPDEST PUSH1 0x0 PUSH2 0x72A DUP4 DUP4 PUSH2 0xE72 JUMP JUMPDEST PUSH2 0x736 JUMPI POP PUSH1 0x0 PUSH2 0x747 JUMP JUMPDEST PUSH1 0x0 PUSH2 0x741 DUP5 PUSH2 0xEC4 JUMP JUMPDEST POP ISZERO SWAP2 POP POP JUMPDEST SWAP3 SWAP2 POP POP JUMP JUMPDEST PUSH2 0x77B CALLER PUSH1 0x0 CALLDATALOAD PUSH32 0xFFFFFFFF00000000000000000000000000000000000000000000000000000000 AND PUSH2 0xDC3 JUMP JUMPDEST PUSH8 0xDE0B6B3A7640000 DUP2 GT ISZERO PUSH2 0x7D3 JUMPI PUSH1 0x40 MLOAD PUSH3 0x461BCD PUSH1 0xE5 SHL DUP2 MSTORE PUSH1 0x20 PUSH1 0x4 DUP3 ADD MSTORE PUSH1 0x1A PUSH1 0x24 DUP3 ADD MSTORE PUSH32 0x535741505045525F534C4950504147455F41424F56455F4F4E45000000000000 PUSH1 0x44 DUP3 ADD MSTORE PUSH1 0x64 ADD PUSH2 0x5C1 JUMP JUMPDEST PUSH1 0xC DUP2 SWAP1 SSTORE PUSH1 0x40 MLOAD DUP2 DUP2 MSTORE PUSH32 0x655EEDDDA94C0A9DE22C1474E6B5AA4F18D3E8048DC9EFF185437C7FE3BFB505 SWAP1 PUSH1 0x20 ADD PUSH2 0x51C JUMP JUMPDEST PUSH2 0x836 CALLER PUSH1 0x0 CALLDATALOAD PUSH32 0xFFFFFFFF00000000000000000000000000000000000000000000000000000000 AND PUSH2 0xDC3 JUMP JUMPDEST PUSH2 0x841 DUP4 DUP4 DUP4 PUSH2 0xFF7 JUMP JUMPDEST POP POP POP JUMP JUMPDEST PUSH2 0x874 CALLER PUSH1 0x0 CALLDATALOAD PUSH32 0xFFFFFFFF00000000000000000000000000000000000000000000000000000000 AND PUSH2 0xDC3 JUMP JUMPDEST PUSH1 0x1 PUSH1 0x1 PUSH1 0xA0 SHL SUB DUP2 AND PUSH2 0x8CA JUMPI PUSH1 0x40 MLOAD PUSH3 0x461BCD PUSH1 0xE5 SHL DUP2 MSTORE PUSH1 0x20 PUSH1 0x4 DUP3 ADD MSTORE PUSH1 0x15 PUSH1 0x24 DUP3 ADD MSTORE PUSH32 0x504159494E475F4741535F544F4B454E5F5A45524F0000000000000000000000 PUSH1 0x44 DUP3 ADD MSTORE PUSH1 0x64 ADD PUSH2 0x5C1 JUMP JUMPDEST PUSH1 0x6 DUP4 SWAP1 SSTORE PUSH1 0x7 DUP3 SWAP1 SSTORE PUSH1 0x8 DUP1 SLOAD PUSH32 0xFFFFFFFFFFFFFFFFFFFFFFFF0000000000000000000000000000000000000000 AND PUSH1 0x1 PUSH1 0x1 PUSH1 0xA0 SHL SUB DUP4 AND SWAP1 DUP2 OR SWAP1 SWAP2 SSTORE PUSH1 0x40 DUP1 MLOAD DUP6 DUP2 MSTORE PUSH1 0x20 DUP2 ADD DUP6 SWAP1 MSTORE SWAP1 DUP2 ADD SWAP2 SWAP1 SWAP2 MSTORE PUSH32 0x7BD6A5FC2B1371F48A3EA03997AEBAA84A60FB8D4E4A970B9F98A1B4C3D4BB88 SWAP1 PUSH1 0x60 ADD PUSH1 0x40 MLOAD DUP1 SWAP2 SUB SWAP1 LOG1 POP POP POP JUMP JUMPDEST PUSH2 0x97F CALLER PUSH1 0x0 CALLDATALOAD PUSH32 0xFFFFFFFF00000000000000000000000000000000000000000000000000000000 AND PUSH2 0xDC3 JUMP JUMPDEST PUSH2 0x989 DUP3 DUP3 PUSH2 0x1219 JUMP JUMPDEST POP POP JUMP JUMPDEST PUSH2 0x9BB CALLER PUSH1 0x0 CALLDATALOAD PUSH32 0xFFFFFFFF00000000000000000000000000000000000000000000000000000000 AND PUSH2 0xDC3 JUMP JUMPDEST PUSH2 0x989 DUP3 DUP3 PUSH2 0x12B1 JUMP JUMPDEST PUSH2 0x9F3 CALLER PUSH1 0x0 CALLDATALOAD PUSH32 0xFFFFFFFF00000000000000000000000000000000000000000000000000000000 AND PUSH2 0xDC3 JUMP JUMPDEST PUSH1 0x2 DUP1 SLOAD PUSH32 0xFFFFFFFFFFFFFFFFFFFFFFFF0000000000000000000000000000000000000000 AND PUSH1 0x1 PUSH1 0x1 PUSH1 0xA0 SHL SUB DUP5 AND SWAP1 DUP2 OR SWAP1 SWAP2 SSTORE PUSH1 0x3 DUP3 SWAP1 SSTORE PUSH1 0x40 MLOAD DUP3 DUP2 MSTORE PUSH32 0xF7E18AA0532694077D6FC7DF02E85D86B91BA964F958D1949D45C5776D36EB6E SWAP1 PUSH1 0x20 ADD JUMPDEST PUSH1 0x40 MLOAD DUP1 SWAP2 SUB SWAP1 LOG2 POP POP JUMP JUMPDEST PUSH2 0xA94 CALLER PUSH1 0x0 CALLDATALOAD PUSH32 0xFFFFFFFF00000000000000000000000000000000000000000000000000000000 AND PUSH2 0xDC3 JUMP JUMPDEST PUSH1 0x1 PUSH1 0x1 PUSH1 0xA0 SHL SUB DUP2 AND ISZERO DUP1 PUSH2 0xAB8 JUMPI POP PUSH1 0xA SLOAD PUSH1 0x1 PUSH1 0x1 PUSH1 0xA0 SHL SUB DUP3 DUP2 AND SWAP2 AND EQ ISZERO JUMPDEST PUSH2 0xB04 JUMPI PUSH1 0x40 MLOAD PUSH3 0x461BCD PUSH1 0xE5 SHL DUP2 MSTORE PUSH1 0x20 PUSH1 0x4 DUP3 ADD MSTORE PUSH1 0x17 PUSH1 0x24 DUP3 ADD MSTORE PUSH32 0x535741505045525F544F4B454E5F4F55545F45515F494E000000000000000000 PUSH1 0x44 DUP3 ADD MSTORE PUSH1 0x64 ADD PUSH2 0x5C1 JUMP JUMPDEST PUSH1 0xB DUP1 SLOAD PUSH32 0xFFFFFFFFFFFFFFFFFFFFFFFF0000000000000000000000000000000000000000 AND PUSH1 0x1 PUSH1 0x1 PUSH1 0xA0 SHL SUB DUP4 AND SWAP1 DUP2 OR SWAP1 SWAP2 SSTORE PUSH1 0x40 MLOAD PUSH32 0x911EE1E2B03817CDB041D13F742D20850BFA79A83A1748A1B13BFC492AD5BA60 SWAP1 PUSH1 0x0 SWAP1 LOG2 POP JUMP JUMPDEST PUSH2 0xB94 CALLER PUSH1 0x0 CALLDATALOAD PUSH32 0xFFFFFFFF00000000000000000000000000000000000000000000000000000000 AND PUSH2 0xDC3 JUMP JUMPDEST CALLER PUSH1 0x0 SWAP1 DUP2 MSTORE PUSH1 0x9 PUSH1 0x20 MSTORE PUSH1 0x40 SWAP1 KECCAK256 SLOAD PUSH2 0xBCB SWAP1 DUP6 SWAP1 DUP6 SWAP1 DUP6 SWAP1 DUP6 SWAP1 PUSH1 0xFF AND PUSH2 0xBBF JUMPI PUSH2 0x134C PUSH2 0xBC3 JUMP JUMPDEST PUSH2 0x1436 JUMPDEST PUSH4 0xFFFFFFFF AND JUMP JUMPDEST POP POP POP POP JUMP JUMPDEST PUSH32 0xFFFFFFFF00000000000000000000000000000000000000000000000000000000 DUP2 AND PUSH1 0x0 SWAP1 DUP2 MSTORE PUSH32 0x50C7A3D1A23C7FF4A61D37C3F2C4AEB36CF60B43EE893723DB201D3EB941CBAD PUSH1 0x20 MSTORE PUSH1 0x40 DUP2 KECCAK256 SLOAD PUSH1 0xFF AND DUP1 PUSH2 0xC73 JUMPI POP PUSH1 0x1 PUSH1 0x1 PUSH1 0xA0 SHL SUB DUP4 AND PUSH1 0x0 SWAP1 DUP2 MSTORE PUSH1 0x20 DUP2 DUP2 MSTORE PUSH1 0x40 DUP1 DUP4 KECCAK256 PUSH32 0xFFFFFFFF00000000000000000000000000000000000000000000000000000000 DUP7 AND DUP5 MSTORE SWAP1 SWAP2 MSTORE SWAP1 KECCAK256 SLOAD PUSH1 0xFF AND JUMPDEST SWAP4 SWAP3 POP POP POP JUMP JUMPDEST PUSH2 0xCA8 CALLER PUSH1 0x0 CALLDATALOAD PUSH32 0xFFFFFFFF00000000000000000000000000000000000000000000000000000000 AND PUSH2 0xDC3 JUMP JUMPDEST PUSH1 0x1 PUSH1 0x1 PUSH1 0xA0 SHL SUB DUP3 AND PUSH1 0x0 DUP2 DUP2 MSTORE PUSH1 0x9 PUSH1 0x20 SWAP1 DUP2 MSTORE PUSH1 0x40 SWAP2 DUP3 SWAP1 KECCAK256 DUP1 SLOAD PUSH32 0xFFFFFFFFFFFFFFFFFFFFFFFFFFFFFFFFFFFFFFFFFFFFFFFFFFFFFFFFFFFFFF00 AND DUP6 ISZERO ISZERO SWAP1 DUP2 OR SWAP1 SWAP2 SSTORE SWAP2 MLOAD SWAP2 DUP3 MSTORE PUSH32 0xEE42947BC760229EEFF964017AC68EDDB00BA98B0DEFCD90A1BC85A5AFCEB057 SWAP2 ADD PUSH2 0xA5A JUMP JUMPDEST PUSH1 0x0 DUP3 DUP3 MUL DUP4 ISZERO DUP1 PUSH2 0xD65 JUMPI POP DUP3 DUP5 DUP3 DUP2 PUSH2 0xD62 JUMPI PUSH32 0x4E487B7100000000000000000000000000000000000000000000000000000000 PUSH1 0x0 MSTORE PUSH1 0x12 PUSH1 0x4 MSTORE PUSH1 0x24 PUSH1 0x0 REVERT JUMPDEST DIV EQ JUMPDEST PUSH2 0xDB1 JUMPI PUSH1 0x40 MLOAD PUSH3 0x461BCD PUSH1 0xE5 SHL DUP2 MSTORE PUSH1 0x20 PUSH1 0x4 DUP3 ADD MSTORE PUSH1 0xC PUSH1 0x24 DUP3 ADD MSTORE PUSH32 0x4D554C5F4F564552464C4F570000000000000000000000000000000000000000 PUSH1 0x44 DUP3 ADD MSTORE PUSH1 0x64 ADD PUSH2 0x5C1 JUMP JUMPDEST PUSH8 0xDE0B6B3A7640000 SWAP1 DIV SWAP4 SWAP3 POP POP POP JUMP JUMPDEST PUSH2 0xDCD DUP3 DUP3 PUSH2 0xBD1 JUMP JUMPDEST PUSH2 0x989 JUMPI PUSH1 0x40 MLOAD PUSH3 0x461BCD PUSH1 0xE5 SHL DUP2 MSTORE PUSH1 0x20 PUSH1 0x4 DUP3 ADD MSTORE PUSH1 0x17 PUSH1 0x24 DUP3 ADD MSTORE PUSH32 0x415554485F53454E4445525F4E4F545F414C4C4F574544000000000000000000 PUSH1 0x44 DUP3 ADD MSTORE PUSH1 0x64 ADD PUSH2 0x5C1 JUMP JUMPDEST PUSH2 0xE22 DUP2 PUSH2 0x1452 JUMP JUMPDEST ISZERO PUSH2 0xE6F JUMPI PUSH1 0x40 MLOAD PUSH3 0x461BCD PUSH1 0xE5 SHL DUP2 MSTORE PUSH1 0x20 PUSH1 0x4 DUP3 ADD MSTORE PUSH1 0x17 PUSH1 0x24 DUP3 ADD MSTORE PUSH32 0x444550454E44454E43595F4E4F545F535441544546554C000000000000000000 PUSH1 0x44 DUP3 ADD MSTORE PUSH1 0x64 ADD PUSH2 0x5C1 JUMP JUMPDEST POP JUMP JUMPDEST PUSH1 0xA SLOAD PUSH1 0x0 SWAP1 PUSH1 0x1 PUSH1 0x1 PUSH1 0xA0 SHL SUB AND ISZERO DUP1 ISZERO SWAP1 PUSH2 0xE99 JUMPI POP PUSH1 0xB SLOAD PUSH1 0x1 PUSH1 0x1 PUSH1 0xA0 SHL SUB AND ISZERO ISZERO JUMPDEST DUP1 ISZERO PUSH2 0xEA7 JUMPI POP PUSH1 0xC SLOAD DUP3 GT ISZERO JUMPDEST DUP1 ISZERO PUSH2 0xC73 JUMPI POP PUSH1 0xA SLOAD PUSH2 0xC73 SWAP1 PUSH1 0x1 PUSH1 0x1 PUSH1 0xA0 SHL SUB AND DUP5 PUSH2 0x168C JUMP JUMPDEST PUSH1 0xE SLOAD PUSH1 0x0 SWAP1 DUP2 SWAP1 ISZERO DUP1 PUSH2 0xEE1 JUMPI POP PUSH1 0xD SLOAD PUSH1 0x1 PUSH1 0x1 PUSH1 0xA0 SHL SUB AND ISZERO JUMPDEST ISZERO PUSH2 0xEF1 JUMPI POP PUSH1 0x0 SWAP1 POP DUP1 PUSH2 0xFF2 JUMP JUMPDEST PUSH1 0xD SLOAD PUSH1 0xA SLOAD PUSH1 0x1 PUSH1 0x1 PUSH1 0xA0 SHL SUB SWAP1 DUP2 AND SWAP2 AND EQ ISZERO PUSH2 0xF11 JUMPI POP DUP2 PUSH2 0xFC9 JUMP JUMPDEST PUSH1 0x1 SLOAD PUSH1 0xA SLOAD PUSH1 0xD SLOAD PUSH1 0x40 MLOAD PUSH32 0xAC41865A00000000000000000000000000000000000000000000000000000000 DUP2 MSTORE PUSH1 0x1 PUSH1 0x1 PUSH1 0xA0 SHL SUB SWAP3 DUP4 AND PUSH1 0x4 DUP3 ADD MSTORE SWAP1 DUP3 AND PUSH1 0x24 DUP3 ADD MSTORE PUSH1 0x0 SWAP3 SWAP2 SWAP1 SWAP2 AND SWAP1 PUSH4 0xAC41865A SWAP1 PUSH1 0x44 ADD PUSH1 0x20 PUSH1 0x40 MLOAD DUP1 DUP4 SUB DUP2 DUP7 DUP1 EXTCODESIZE ISZERO DUP1 ISZERO PUSH2 0xF81 JUMPI PUSH1 0x0 DUP1 REVERT JUMPDEST POP GAS STATICCALL ISZERO DUP1 ISZERO PUSH2 0xF95 JUMPI RETURNDATASIZE PUSH1 0x0 DUP1 RETURNDATACOPY RETURNDATASIZE PUSH1 0x0 REVERT JUMPDEST POP POP POP POP PUSH1 0x40 MLOAD RETURNDATASIZE PUSH1 0x1F NOT PUSH1 0x1F DUP3 ADD AND DUP3 ADD DUP1 PUSH1 0x40 MSTORE POP DUP2 ADD SWAP1 PUSH2 0xFB9 SWAP2 SWAP1 PUSH2 0x210B JUMP JUMPDEST SWAP1 POP PUSH2 0xFC5 DUP5 DUP3 PUSH2 0xD1E JUMP JUMPDEST SWAP2 POP POP JUMPDEST PUSH1 0x11 SLOAD PUSH1 0x0 SWAP1 TIMESTAMP LT PUSH2 0xFDC JUMPI PUSH1 0x0 PUSH2 0xFE0 JUMP JUMPDEST PUSH1 0xF SLOAD JUMPDEST PUSH2 0xFEA SWAP1 DUP4 PUSH2 0x239C JUMP JUMPDEST PUSH1 0xE SLOAD LT SWAP3 POP POP JUMPDEST SWAP2 POP SWAP2 JUMP JUMPDEST PUSH1 0x0 PUSH1 0x1 PUSH1 0x1 PUSH1 0xA0 SHL SUB DUP5 AND ISZERO DUP1 ISZERO PUSH2 0x100E JUMPI POP DUP3 ISZERO JUMPDEST DUP1 ISZERO PUSH2 0x1018 JUMPI POP DUP2 ISZERO JUMPDEST SWAP1 POP PUSH1 0x0 PUSH1 0x1 PUSH1 0x1 PUSH1 0xA0 SHL SUB DUP6 AND ISZERO DUP1 ISZERO SWAP1 PUSH2 0x1034 JUMPI POP PUSH1 0x0 DUP5 GT JUMPDEST DUP1 ISZERO PUSH2 0x1040 JUMPI POP PUSH1 0x0 DUP4 GT JUMPDEST SWAP1 POP DUP2 DUP1 PUSH2 0x104B JUMPI POP DUP1 JUMPDEST PUSH2 0x1097 JUMPI PUSH1 0x40 MLOAD PUSH3 0x461BCD PUSH1 0xE5 SHL DUP2 MSTORE PUSH1 0x20 PUSH1 0x4 DUP3 ADD DUP2 SWAP1 MSTORE PUSH1 0x24 DUP3 ADD MSTORE PUSH32 0x535741505045525F494E56414C49445F535741505F4C494D49545F494E505554 PUSH1 0x44 DUP3 ADD MSTORE PUSH1 0x64 ADD PUSH2 0x5C1 JUMP JUMPDEST PUSH1 0x10 DUP4 SWAP1 SSTORE PUSH1 0xE DUP5 SWAP1 SSTORE DUP2 ISZERO PUSH2 0x10B6 JUMPI PUSH1 0x0 PUSH1 0xF DUP2 SWAP1 SSTORE PUSH1 0x11 SSTORE PUSH2 0x11A3 JUMP JUMPDEST PUSH1 0x11 SLOAD PUSH2 0x10D4 JUMPI PUSH1 0x0 PUSH1 0xF SSTORE PUSH2 0x10CC DUP4 TIMESTAMP PUSH2 0x239C JUMP JUMPDEST PUSH1 0x11 SSTORE PUSH2 0x11A3 JUMP JUMPDEST PUSH1 0xD SLOAD PUSH1 0x1 PUSH1 0x1 PUSH1 0xA0 SHL SUB DUP7 DUP2 AND SWAP2 AND EQ PUSH2 0x11A3 JUMPI PUSH1 0x1 SLOAD PUSH1 0xD SLOAD PUSH1 0x40 MLOAD PUSH32 0xAC41865A00000000000000000000000000000000000000000000000000000000 DUP2 MSTORE PUSH1 0x1 PUSH1 0x1 PUSH1 0xA0 SHL SUB SWAP2 DUP3 AND PUSH1 0x4 DUP3 ADD MSTORE DUP8 DUP3 AND PUSH1 0x24 DUP3 ADD MSTORE PUSH1 0x0 SWAP3 SWAP2 SWAP1 SWAP2 AND SWAP1 PUSH4 0xAC41865A SWAP1 PUSH1 0x44 ADD PUSH1 0x20 PUSH1 0x40 MLOAD DUP1 DUP4 SUB DUP2 DUP7 DUP1 EXTCODESIZE ISZERO DUP1 ISZERO PUSH2 0x1156 JUMPI PUSH1 0x0 DUP1 REVERT JUMPDEST POP GAS STATICCALL ISZERO DUP1 ISZERO PUSH2 0x116A JUMPI RETURNDATASIZE PUSH1 0x0 DUP1 RETURNDATACOPY RETURNDATASIZE PUSH1 0x0 REVERT JUMPDEST POP POP POP POP PUSH1 0x40 MLOAD RETURNDATASIZE PUSH1 0x1F NOT PUSH1 0x1F DUP3 ADD AND DUP3 ADD DUP1 PUSH1 0x40 MSTORE POP DUP2 ADD SWAP1 PUSH2 0x118E SWAP2 SWAP1 PUSH2 0x210B JUMP JUMPDEST PUSH1 0xF SLOAD SWAP1 SWAP2 POP PUSH2 0x119E SWAP1 DUP3 PUSH2 0xD1E JUMP JUMPDEST PUSH1 0xF SSTORE POP JUMPDEST PUSH1 0xD DUP1 SLOAD PUSH32 0xFFFFFFFFFFFFFFFFFFFFFFFF0000000000000000000000000000000000000000 AND PUSH1 0x1 PUSH1 0x1 PUSH1 0xA0 SHL SUB DUP8 AND SWAP1 DUP2 OR SWAP1 SWAP2 SSTORE PUSH1 0x40 DUP1 MLOAD DUP7 DUP2 MSTORE PUSH1 0x20 DUP2 ADD DUP7 SWAP1 MSTORE PUSH32 0x1EE947827037956A0BCF304205B0A18FF50F9DA7C690188ED716898CADECA89C SWAP2 ADD PUSH1 0x40 MLOAD DUP1 SWAP2 SUB SWAP1 LOG2 POP POP POP POP POP JUMP JUMPDEST PUSH1 0x1 PUSH1 0x1 PUSH1 0xA0 SHL SUB DUP3 AND PUSH1 0x0 DUP2 DUP2 MSTORE PUSH1 0x20 DUP2 DUP2 MSTORE PUSH1 0x40 DUP1 DUP4 KECCAK256 PUSH32 0xFFFFFFFF00000000000000000000000000000000000000000000000000000000 DUP7 AND DUP1 DUP6 MSTORE SWAP1 DUP4 MSTORE SWAP3 DUP2 SWAP1 KECCAK256 DUP1 SLOAD PUSH32 0xFFFFFFFFFFFFFFFFFFFFFFFFFFFFFFFFFFFFFFFFFFFFFFFFFFFFFFFFFFFFFF00 AND SWAP1 SSTORE MLOAD SWAP2 DUP3 MSTORE PUSH32 0xA2E97B9EEA8D1168700E334304EDD057DFF89C0384CA6F920C73CC3E48C8E523 SWAP2 ADD PUSH2 0xA5A JUMP JUMPDEST PUSH1 0x1 PUSH1 0x1 PUSH1 0xA0 SHL SUB DUP3 AND PUSH1 0x0 DUP2 DUP2 MSTORE PUSH1 0x20 DUP2 DUP2 MSTORE PUSH1 0x40 DUP1 DUP4 KECCAK256 PUSH32 0xFFFFFFFF00000000000000000000000000000000000000000000000000000000 DUP7 AND DUP1 DUP6 MSTORE SWAP1 DUP4 MSTORE SWAP3 DUP2 SWAP1 KECCAK256 DUP1 SLOAD PUSH32 0xFFFFFFFFFFFFFFFFFFFFFFFFFFFFFFFFFFFFFFFFFFFFFFFFFFFFFFFFFFFFFF00 AND PUSH1 0x1 OR SWAP1 SSTORE MLOAD SWAP2 DUP3 MSTORE PUSH32 0x7F06C1C34AD47198873DA9DCDE2E40904035D41B23DA3A9132DF674A75022DF7 SWAP2 ADD PUSH2 0xA5A JUMP JUMPDEST PUSH2 0x1356 DUP4 DUP4 PUSH2 0x174A JUMP JUMPDEST PUSH1 0x1 SLOAD PUSH1 0xA SLOAD PUSH1 0xB SLOAD PUSH1 0x40 MLOAD PUSH32 0x37E0AC0200000000000000000000000000000000000000000000000000000000 DUP2 MSTORE PUSH1 0x1 PUSH1 0x1 PUSH1 0xA0 SHL SUB SWAP4 DUP5 AND SWAP4 PUSH4 0x37E0AC02 SWAP4 PUSH2 0x13B4 SWAP4 DUP11 SWAP4 SWAP2 DUP4 AND SWAP3 AND SWAP1 DUP10 SWAP1 PUSH1 0x0 SWAP1 DUP11 SWAP1 DUP11 SWAP1 PUSH1 0x4 ADD PUSH2 0x2314 JUMP JUMPDEST PUSH1 0x20 PUSH1 0x40 MLOAD DUP1 DUP4 SUB DUP2 PUSH1 0x0 DUP8 DUP1 EXTCODESIZE ISZERO DUP1 ISZERO PUSH2 0x13CE JUMPI PUSH1 0x0 DUP1 REVERT JUMPDEST POP GAS CALL ISZERO DUP1 ISZERO PUSH2 0x13E2 JUMPI RETURNDATASIZE PUSH1 0x0 DUP1 RETURNDATACOPY RETURNDATASIZE PUSH1 0x0 REVERT JUMPDEST POP POP POP POP PUSH1 0x40 MLOAD RETURNDATASIZE PUSH1 0x1F NOT PUSH1 0x1F DUP3 ADD AND DUP3 ADD DUP1 PUSH1 0x40 MSTORE POP DUP2 ADD SWAP1 PUSH2 0x1406 SWAP2 SWAP1 PUSH2 0x210B JUMP JUMPDEST POP PUSH1 0x40 MLOAD PUSH32 0x68F46C45A243A0E9065A97649FAF9A5AFE1692F2679E650C2F853B9CD734CC0E SWAP1 PUSH1 0x0 SWAP1 LOG1 POP POP POP POP JUMP JUMPDEST PUSH2 0x143E PUSH2 0x17F1 JUMP JUMPDEST PUSH2 0x144A DUP5 DUP5 DUP5 DUP5 PUSH2 0x134C JUMP JUMPDEST PUSH2 0xBCB PUSH2 0x18B0 JUMP JUMPDEST PUSH1 0x40 MLOAD PUSH32 0x8B4872B800000000000000000000000000000000000000000000000000000000 DUP2 MSTORE PUSH1 0x1 PUSH1 0x1 PUSH1 0xA0 SHL SUB DUP3 DUP2 AND PUSH1 0x4 DUP4 ADD MSTORE PUSH1 0x0 SWAP2 DUP3 SWAP2 PUSH32 0x0 AND SWAP1 PUSH4 0x8B4872B8 SWAP1 PUSH1 0x24 ADD PUSH1 0x20 PUSH1 0x40 MLOAD DUP1 DUP4 SUB DUP2 DUP7 DUP1 EXTCODESIZE ISZERO DUP1 ISZERO PUSH2 0x14D1 JUMPI PUSH1 0x0 DUP1 REVERT JUMPDEST POP GAS STATICCALL ISZERO DUP1 ISZERO PUSH2 0x14E5 JUMPI RETURNDATASIZE PUSH1 0x0 DUP1 RETURNDATACOPY RETURNDATASIZE PUSH1 0x0 REVERT JUMPDEST POP POP POP POP PUSH1 0x40 MLOAD RETURNDATASIZE PUSH1 0x1F NOT PUSH1 0x1F DUP3 ADD AND DUP3 ADD DUP1 PUSH1 0x40 MSTORE POP DUP2 ADD SWAP1 PUSH2 0x1509 SWAP2 SWAP1 PUSH2 0x1F91 JUMP JUMPDEST SWAP1 POP PUSH1 0x0 PUSH1 0x1 PUSH1 0x1 PUSH1 0xA0 SHL SUB DUP3 AND PUSH2 0x1521 JUMPI DUP4 PUSH2 0x1523 JUMP JUMPDEST DUP2 JUMPDEST PUSH1 0x40 MLOAD PUSH32 0x9235DCF800000000000000000000000000000000000000000000000000000000 DUP2 MSTORE PUSH1 0x1 PUSH1 0x1 PUSH1 0xA0 SHL SUB DUP1 DUP4 AND PUSH1 0x4 DUP4 ADD MSTORE SWAP2 SWAP3 POP PUSH1 0x0 SWAP2 DUP3 SWAP2 DUP3 SWAP2 PUSH32 0x0 AND SWAP1 PUSH4 0x9235DCF8 SWAP1 PUSH1 0x24 ADD PUSH1 0x60 PUSH1 0x40 MLOAD DUP1 DUP4 SUB DUP2 DUP7 DUP1 EXTCODESIZE ISZERO DUP1 ISZERO PUSH2 0x15A7 JUMPI PUSH1 0x0 DUP1 REVERT JUMPDEST POP GAS STATICCALL ISZERO DUP1 ISZERO PUSH2 0x15BB JUMPI RETURNDATASIZE PUSH1 0x0 DUP1 RETURNDATACOPY RETURNDATASIZE PUSH1 0x0 REVERT JUMPDEST POP POP POP POP PUSH1 0x40 MLOAD RETURNDATASIZE PUSH1 0x1F NOT PUSH1 0x1F DUP3 ADD AND DUP3 ADD DUP1 PUSH1 0x40 MSTORE POP DUP2 ADD SWAP1 PUSH2 0x15DF SWAP2 SWAP1 PUSH2 0x20B1 JUMP JUMPDEST SWAP2 SWAP5 POP SWAP3 POP SWAP1 POP DUP1 PUSH2 0x1633 JUMPI PUSH1 0x40 MLOAD PUSH3 0x461BCD PUSH1 0xE5 SHL DUP2 MSTORE PUSH1 0x20 PUSH1 0x4 DUP3 ADD MSTORE PUSH1 0x19 PUSH1 0x24 DUP3 ADD MSTORE PUSH32 0x444550454E44454E43595F4E4F545F5245474953544552454400000000000000 PUSH1 0x44 DUP3 ADD MSTORE PUSH1 0x64 ADD PUSH2 0x5C1 JUMP JUMPDEST DUP2 ISZERO PUSH2 0x1681 JUMPI PUSH1 0x40 MLOAD PUSH3 0x461BCD PUSH1 0xE5 SHL DUP2 MSTORE PUSH1 0x20 PUSH1 0x4 DUP3 ADD MSTORE PUSH1 0x15 PUSH1 0x24 DUP3 ADD MSTORE PUSH32 0x444550454E44454E43595F444550524543415445440000000000000000000000 PUSH1 0x44 DUP3 ADD MSTORE PUSH1 0x64 ADD PUSH2 0x5C1 JUMP JUMPDEST POP SWAP1 SWAP6 SWAP5 POP POP POP POP POP JUMP JUMPDEST PUSH1 0x1 SLOAD PUSH1 0x2 SLOAD PUSH1 0x40 MLOAD PUSH32 0xAC41865A00000000000000000000000000000000000000000000000000000000 DUP2 MSTORE PUSH1 0x1 PUSH1 0x1 PUSH1 0xA0 SHL SUB DUP6 DUP2 AND PUSH1 0x4 DUP4 ADD MSTORE SWAP2 DUP3 AND PUSH1 0x24 DUP3 ADD MSTORE PUSH1 0x0 SWAP3 DUP4 SWAP3 AND SWAP1 PUSH4 0xAC41865A SWAP1 PUSH1 0x44 ADD PUSH1 0x20 PUSH1 0x40 MLOAD DUP1 DUP4 SUB DUP2 DUP7 DUP1 EXTCODESIZE ISZERO DUP1 ISZERO PUSH2 0x16F8 JUMPI PUSH1 0x0 DUP1 REVERT JUMPDEST POP GAS STATICCALL ISZERO DUP1 ISZERO PUSH2 0x170C JUMPI RETURNDATASIZE PUSH1 0x0 DUP1 RETURNDATACOPY RETURNDATASIZE PUSH1 0x0 REVERT JUMPDEST POP POP POP POP PUSH1 0x40 MLOAD RETURNDATASIZE PUSH1 0x1F NOT PUSH1 0x1F DUP3 ADD AND DUP3 ADD DUP1 PUSH1 0x40 MSTORE POP DUP2 ADD SWAP1 PUSH2 0x1730 SWAP2 SWAP1 PUSH2 0x210B JUMP JUMPDEST PUSH1 0x3 SLOAD SWAP1 SWAP2 POP PUSH2 0x1740 DUP5 DUP4 PUSH2 0xD1E JUMP JUMPDEST LT ISZERO SWAP5 SWAP4 POP POP POP POP JUMP JUMPDEST PUSH2 0x1754 DUP3 DUP3 PUSH2 0x1B33 JUMP JUMPDEST PUSH1 0x0 DUP1 PUSH2 0x1760 DUP5 PUSH2 0xEC4 JUMP JUMPDEST SWAP2 POP SWAP2 POP DUP2 ISZERO PUSH2 0x17B2 JUMPI PUSH1 0x40 MLOAD PUSH3 0x461BCD PUSH1 0xE5 SHL DUP2 MSTORE PUSH1 0x20 PUSH1 0x4 DUP3 ADD MSTORE PUSH1 0x1B PUSH1 0x24 DUP3 ADD MSTORE PUSH32 0x535741505045525F535741505F4C494D49545F45584345454445440000000000 PUSH1 0x44 DUP3 ADD MSTORE PUSH1 0x64 ADD PUSH2 0x5C1 JUMP JUMPDEST PUSH1 0x11 SLOAD TIMESTAMP LT PUSH2 0x17D1 JUMPI PUSH1 0x0 PUSH1 0xF SSTORE PUSH1 0x10 SLOAD PUSH2 0x17CD SWAP1 TIMESTAMP PUSH2 0x239C JUMP JUMPDEST PUSH1 0x11 SSTORE JUMPDEST DUP1 PUSH1 0xD PUSH1 0x2 ADD PUSH1 0x0 DUP3 DUP3 SLOAD PUSH2 0x17E6 SWAP2 SWAP1 PUSH2 0x239C JUMP JUMPDEST SWAP1 SWAP2 SSTORE POP POP POP POP POP POP JUMP JUMPDEST GAS PUSH1 0x4 SSTORE CALLER PUSH1 0x0 SWAP1 DUP2 MSTORE PUSH1 0x9 PUSH1 0x20 MSTORE PUSH1 0x40 SWAP1 KECCAK256 SLOAD PUSH1 0xFF AND PUSH2 0x1854 JUMPI PUSH1 0x40 MLOAD PUSH3 0x461BCD PUSH1 0xE5 SHL DUP2 MSTORE PUSH1 0x20 PUSH1 0x4 DUP3 ADD MSTORE PUSH1 0x12 PUSH1 0x24 DUP3 ADD MSTORE PUSH32 0x53454E4445525F4E4F545F52454C415945520000000000000000000000000000 PUSH1 0x44 DUP3 ADD MSTORE PUSH1 0x64 ADD PUSH2 0x5C1 JUMP JUMPDEST PUSH1 0x6 SLOAD DUP1 ISZERO DUP1 PUSH2 0x1864 JUMPI POP DUP1 GASPRICE GT ISZERO JUMPDEST PUSH2 0xE6F JUMPI PUSH1 0x40 MLOAD PUSH3 0x461BCD PUSH1 0xE5 SHL DUP2 MSTORE PUSH1 0x20 PUSH1 0x4 DUP3 ADD MSTORE PUSH1 0x15 PUSH1 0x24 DUP3 ADD MSTORE PUSH32 0x4741535F50524943455F41424F56455F4C494D49540000000000000000000000 PUSH1 0x44 DUP3 ADD MSTORE PUSH1 0x64 ADD PUSH2 0x5C1 JUMP JUMPDEST PUSH1 0x0 GAS PUSH1 0x4 SLOAD PUSH2 0x18C0 SWAP2 SWAP1 PUSH2 0x23F1 JUMP JUMPDEST SWAP1 POP PUSH1 0x0 GASPRICE ADDRESS PUSH1 0x1 PUSH1 0x1 PUSH1 0xA0 SHL SUB AND PUSH4 0x389AA342 PUSH1 0x40 MLOAD DUP2 PUSH4 0xFFFFFFFF AND PUSH1 0xE0 SHL DUP2 MSTORE PUSH1 0x4 ADD PUSH1 0x20 PUSH1 0x40 MLOAD DUP1 DUP4 SUB DUP2 DUP7 DUP1 EXTCODESIZE ISZERO DUP1 ISZERO PUSH2 0x18FE JUMPI PUSH1 0x0 DUP1 REVERT JUMPDEST POP GAS STATICCALL ISZERO DUP1 ISZERO PUSH2 0x1912 JUMPI RETURNDATASIZE PUSH1 0x0 DUP1 RETURNDATACOPY RETURNDATASIZE PUSH1 0x0 REVERT JUMPDEST POP POP POP POP PUSH1 0x40 MLOAD RETURNDATASIZE PUSH1 0x1F NOT PUSH1 0x1F DUP3 ADD AND DUP3 ADD DUP1 PUSH1 0x40 MSTORE POP DUP2 ADD SWAP1 PUSH2 0x1936 SWAP2 SWAP1 PUSH2 0x210B JUMP JUMPDEST PUSH2 0x1940 SWAP1 DUP5 PUSH2 0x239C JUMP JUMPDEST PUSH2 0x194A SWAP2 SWAP1 PUSH2 0x23B4 JUMP JUMPDEST PUSH1 0x7 SLOAD PUSH1 0x8 SLOAD SWAP2 SWAP3 POP SWAP1 PUSH1 0x1 PUSH1 0x1 PUSH1 0xA0 SHL SUB AND PUSH1 0x0 PUSH2 0x1972 PUSH2 0x196B DUP4 PUSH2 0x1C4B JUMP JUMPDEST DUP6 SWAP1 PUSH2 0xD1E JUMP JUMPDEST SWAP1 POP DUP3 ISZERO DUP1 PUSH2 0x1981 JUMPI POP DUP3 DUP2 GT ISZERO JUMPDEST PUSH2 0x19CD JUMPI PUSH1 0x40 MLOAD PUSH3 0x461BCD PUSH1 0xE5 SHL DUP2 MSTORE PUSH1 0x20 PUSH1 0x4 DUP3 ADD MSTORE PUSH1 0x13 PUSH1 0x24 DUP3 ADD MSTORE PUSH32 0x54585F434F53545F41424F56455F4C494D495400000000000000000000000000 PUSH1 0x44 DUP3 ADD MSTORE PUSH1 0x64 ADD PUSH2 0x5C1 JUMP JUMPDEST PUSH2 0x19D7 DUP3 DUP3 PUSH2 0x1DA9 JUMP JUMPDEST ISZERO PUSH2 0x1B27 JUMPI PUSH1 0x1 SLOAD PUSH1 0x40 DUP1 MLOAD PUSH32 0xC415B95C00000000000000000000000000000000000000000000000000000000 DUP2 MSTORE SWAP1 MLOAD PUSH1 0x1 PUSH1 0x1 PUSH1 0xA0 SHL SUB SWAP1 SWAP3 AND SWAP2 PUSH4 0x9003AFEE SWAP2 DUP6 SWAP2 DUP6 SWAP2 DUP6 SWAP2 PUSH4 0xC415B95C SWAP2 PUSH1 0x4 DUP1 DUP3 ADD SWAP3 PUSH1 0x20 SWAP3 SWAP1 SWAP2 SWAP1 DUP3 SWAP1 SUB ADD DUP2 DUP7 DUP1 EXTCODESIZE ISZERO DUP1 ISZERO PUSH2 0x1A46 JUMPI PUSH1 0x0 DUP1 REVERT JUMPDEST POP GAS STATICCALL ISZERO DUP1 ISZERO PUSH2 0x1A5A JUMPI RETURNDATASIZE PUSH1 0x0 DUP1 RETURNDATACOPY RETURNDATASIZE PUSH1 0x0 REVERT JUMPDEST POP POP POP POP PUSH1 0x40 MLOAD RETURNDATASIZE PUSH1 0x1F NOT PUSH1 0x1F DUP3 ADD AND DUP3 ADD DUP1 PUSH1 0x40 MSTORE POP DUP2 ADD SWAP1 PUSH2 0x1A7E SWAP2 SWAP1 PUSH2 0x1F91 JUMP JUMPDEST PUSH1 0x40 MLOAD DUP1 PUSH1 0x40 ADD PUSH1 0x40 MSTORE DUP1 PUSH1 0x7 DUP2 MSTORE PUSH1 0x20 ADD PUSH32 0x52454C4159455200000000000000000000000000000000000000000000000000 DUP2 MSTORE POP PUSH1 0x40 MLOAD DUP6 PUSH4 0xFFFFFFFF AND PUSH1 0xE0 SHL DUP2 MSTORE PUSH1 0x4 ADD PUSH2 0x1AD3 SWAP5 SWAP4 SWAP3 SWAP2 SWAP1 PUSH2 0x22D8 JUMP JUMPDEST PUSH1 0x20 PUSH1 0x40 MLOAD DUP1 DUP4 SUB DUP2 PUSH1 0x0 DUP8 DUP1 EXTCODESIZE ISZERO DUP1 ISZERO PUSH2 0x1AED JUMPI PUSH1 0x0 DUP1 REVERT JUMPDEST POP GAS CALL ISZERO DUP1 ISZERO PUSH2 0x1B01 JUMPI RETURNDATASIZE PUSH1 0x0 DUP1 RETURNDATACOPY RETURNDATASIZE PUSH1 0x0 REVERT JUMPDEST POP POP POP POP PUSH1 0x40 MLOAD RETURNDATASIZE PUSH1 0x1F NOT PUSH1 0x1F DUP3 ADD AND DUP3 ADD DUP1 PUSH1 0x40 MSTORE POP DUP2 ADD SWAP1 PUSH2 0x1B25 SWAP2 SWAP1 PUSH2 0x210B JUMP JUMPDEST POP JUMPDEST POP POP PUSH1 0x0 PUSH1 0x4 SSTORE POP POP POP JUMP JUMPDEST PUSH1 0xA SLOAD PUSH1 0x1 PUSH1 0x1 PUSH1 0xA0 SHL SUB AND PUSH2 0x1B8B JUMPI PUSH1 0x40 MLOAD PUSH3 0x461BCD PUSH1 0xE5 SHL DUP2 MSTORE PUSH1 0x20 PUSH1 0x4 DUP3 ADD MSTORE PUSH1 0x18 PUSH1 0x24 DUP3 ADD MSTORE PUSH32 0x535741505045525F544F4B454E5F494E5F4E4F545F5345540000000000000000 PUSH1 0x44 DUP3 ADD MSTORE PUSH1 0x64 ADD PUSH2 0x5C1 JUMP JUMPDEST PUSH1 0xB SLOAD PUSH1 0x1 PUSH1 0x1 PUSH1 0xA0 SHL SUB AND PUSH2 0x1BE3 JUMPI PUSH1 0x40 MLOAD PUSH3 0x461BCD PUSH1 0xE5 SHL DUP2 MSTORE PUSH1 0x20 PUSH1 0x4 DUP3 ADD MSTORE PUSH1 0x19 PUSH1 0x24 DUP3 ADD MSTORE PUSH32 0x535741505045525F544F4B454E5F4F55545F4E4F545F53455400000000000000 PUSH1 0x44 DUP3 ADD MSTORE PUSH1 0x64 ADD PUSH2 0x5C1 JUMP JUMPDEST PUSH1 0xC SLOAD DUP2 GT ISZERO PUSH2 0x1C35 JUMPI PUSH1 0x40 MLOAD PUSH3 0x461BCD PUSH1 0xE5 SHL DUP2 MSTORE PUSH1 0x20 PUSH1 0x4 DUP3 ADD MSTORE PUSH1 0x1A PUSH1 0x24 DUP3 ADD MSTORE PUSH32 0x535741505045525F534C4950504147455F41424F56455F4D4158000000000000 PUSH1 0x44 DUP3 ADD MSTORE PUSH1 0x64 ADD PUSH2 0x5C1 JUMP JUMPDEST PUSH1 0xA SLOAD PUSH2 0x989 SWAP1 PUSH1 0x1 PUSH1 0x1 PUSH1 0xA0 SHL SUB AND DUP4 PUSH2 0x1DD1 JUMP JUMPDEST PUSH1 0x0 DUP1 PUSH2 0x1C57 DUP4 PUSH2 0x1E27 JUMP JUMPDEST SWAP1 POP DUP1 PUSH2 0x1D99 JUMPI PUSH1 0x1 SLOAD PUSH1 0x40 DUP1 MLOAD PUSH32 0x17FCB39B00000000000000000000000000000000000000000000000000000000 DUP2 MSTORE SWAP1 MLOAD PUSH1 0x1 PUSH1 0x1 PUSH1 0xA0 SHL SUB SWAP1 SWAP3 AND SWAP2 PUSH4 0xAC41865A SWAP2 DUP4 SWAP2 PUSH4 0x17FCB39B SWAP2 PUSH1 0x4 DUP1 DUP3 ADD SWAP3 PUSH1 0x20 SWAP3 SWAP1 SWAP2 SWAP1 DUP3 SWAP1 SUB ADD DUP2 DUP7 DUP1 EXTCODESIZE ISZERO DUP1 ISZERO PUSH2 0x1CC4 JUMPI PUSH1 0x0 DUP1 REVERT JUMPDEST POP GAS STATICCALL ISZERO DUP1 ISZERO PUSH2 0x1CD8 JUMPI RETURNDATASIZE PUSH1 0x0 DUP1 RETURNDATACOPY RETURNDATASIZE PUSH1 0x0 REVERT JUMPDEST POP POP POP POP PUSH1 0x40 MLOAD RETURNDATASIZE PUSH1 0x1F NOT PUSH1 0x1F DUP3 ADD AND DUP3 ADD DUP1 PUSH1 0x40 MSTORE POP DUP2 ADD SWAP1 PUSH2 0x1CFC SWAP2 SWAP1 PUSH2 0x1F91 JUMP JUMPDEST PUSH1 0x40 MLOAD PUSH32 0xFFFFFFFF00000000000000000000000000000000000000000000000000000000 PUSH1 0xE0 DUP5 SWAP1 SHL AND DUP2 MSTORE PUSH1 0x1 PUSH1 0x1 PUSH1 0xA0 SHL SUB SWAP2 DUP3 AND PUSH1 0x4 DUP3 ADD MSTORE SWAP1 DUP7 AND PUSH1 0x24 DUP3 ADD MSTORE PUSH1 0x44 ADD JUMPDEST PUSH1 0x20 PUSH1 0x40 MLOAD DUP1 DUP4 SUB DUP2 DUP7 DUP1 EXTCODESIZE ISZERO DUP1 ISZERO PUSH2 0x1D5C JUMPI PUSH1 0x0 DUP1 REVERT JUMPDEST POP GAS STATICCALL ISZERO DUP1 ISZERO PUSH2 0x1D70 JUMPI RETURNDATASIZE PUSH1 0x0 DUP1 RETURNDATACOPY RETURNDATASIZE PUSH1 0x0 REVERT JUMPDEST POP POP POP POP PUSH1 0x40 MLOAD RETURNDATASIZE PUSH1 0x1F NOT PUSH1 0x1F DUP3 ADD AND DUP3 ADD DUP1 PUSH1 0x40 MSTORE POP DUP2 ADD SWAP1 PUSH2 0x1D94 SWAP2 SWAP1 PUSH2 0x210B JUMP JUMPDEST PUSH2 0xC73 JUMP JUMPDEST PUSH8 0xDE0B6B3A7640000 SWAP4 SWAP3 POP POP POP JUMP JUMPDEST PUSH1 0x5 SLOAD PUSH1 0x0 SWAP1 PUSH1 0xFF AND PUSH2 0x1DBE JUMPI POP PUSH1 0x1 PUSH2 0x747 JUMP JUMPDEST DUP2 PUSH2 0x1DC8 DUP5 PUSH2 0x1EEF JUMP JUMPDEST LT ISZERO SWAP4 SWAP3 POP POP POP JUMP JUMPDEST PUSH2 0x1DDB DUP3 DUP3 PUSH2 0x168C JUMP JUMPDEST PUSH2 0x989 JUMPI PUSH1 0x40 MLOAD PUSH3 0x461BCD PUSH1 0xE5 SHL DUP2 MSTORE PUSH1 0x20 PUSH1 0x4 DUP3 ADD MSTORE PUSH1 0x15 PUSH1 0x24 DUP3 ADD MSTORE PUSH32 0x4D494E5F5448524553484F4C445F4E4F545F4D45540000000000000000000000 PUSH1 0x44 DUP3 ADD MSTORE PUSH1 0x64 ADD PUSH2 0x5C1 JUMP JUMPDEST PUSH1 0x0 PUSH20 0xEEEEEEEEEEEEEEEEEEEEEEEEEEEEEEEEEEEEEEEE PUSH1 0x1 PUSH1 0x1 PUSH1 0xA0 SHL SUB DUP4 AND EQ DUP1 PUSH2 0x747 JUMPI POP PUSH1 0x1 PUSH1 0x0 SWAP1 SLOAD SWAP1 PUSH2 0x100 EXP SWAP1 DIV PUSH1 0x1 PUSH1 0x1 PUSH1 0xA0 SHL SUB AND PUSH1 0x1 PUSH1 0x1 PUSH1 0xA0 SHL SUB AND PUSH4 0x17FCB39B PUSH1 0x40 MLOAD DUP2 PUSH4 0xFFFFFFFF AND PUSH1 0xE0 SHL DUP2 MSTORE PUSH1 0x4 ADD PUSH1 0x20 PUSH1 0x40 MLOAD DUP1 DUP4 SUB DUP2 DUP7 DUP1 EXTCODESIZE ISZERO DUP1 ISZERO PUSH2 0x1E9D JUMPI PUSH1 0x0 DUP1 REVERT JUMPDEST POP GAS STATICCALL ISZERO DUP1 ISZERO PUSH2 0x1EB1 JUMPI RETURNDATASIZE PUSH1 0x0 DUP1 RETURNDATACOPY RETURNDATASIZE PUSH1 0x0 REVERT JUMPDEST POP POP POP POP PUSH1 0x40 MLOAD RETURNDATASIZE PUSH1 0x1F NOT PUSH1 0x1F DUP3 ADD AND DUP3 ADD DUP1 PUSH1 0x40 MSTORE POP DUP2 ADD SWAP1 PUSH2 0x1ED5 SWAP2 SWAP1 PUSH2 0x1F91 JUMP JUMPDEST PUSH1 0x1 PUSH1 0x1 PUSH1 0xA0 SHL SUB AND DUP3 PUSH1 0x1 PUSH1 0x1 PUSH1 0xA0 SHL SUB AND EQ SWAP3 SWAP2 POP POP JUMP JUMPDEST PUSH1 0x0 PUSH1 0x1 PUSH1 0x1 PUSH1 0xA0 SHL SUB DUP3 AND PUSH20 0xEEEEEEEEEEEEEEEEEEEEEEEEEEEEEEEEEEEEEEEE EQ DUP1 PUSH2 0x1F61 JUMPI PUSH1 0x1 SLOAD PUSH1 0x40 MLOAD PUSH32 0x70A0823100000000000000000000000000000000000000000000000000000000 DUP2 MSTORE PUSH1 0x1 PUSH1 0x1 PUSH1 0xA0 SHL SUB SWAP2 DUP3 AND PUSH1 0x4 DUP3 ADD MSTORE SWAP1 DUP5 AND SWAP1 PUSH4 0x70A08231 SWAP1 PUSH1 0x24 ADD PUSH2 0x1D44 JUMP JUMPDEST POP POP PUSH1 0x1 SLOAD PUSH1 0x1 PUSH1 0x1 PUSH1 0xA0 SHL SUB AND BALANCE SWAP2 SWAP1 POP JUMP JUMPDEST PUSH1 0x0 PUSH1 0x20 DUP3 DUP5 SUB SLT ISZERO PUSH2 0x1F86 JUMPI DUP1 DUP2 REVERT JUMPDEST DUP2 CALLDATALOAD PUSH2 0xC73 DUP2 PUSH2 0x2466 JUMP JUMPDEST PUSH1 0x0 PUSH1 0x20 DUP3 DUP5 SUB SLT ISZERO PUSH2 0x1FA2 JUMPI DUP1 DUP2 REVERT JUMPDEST DUP2 MLOAD PUSH2 0xC73 DUP2 PUSH2 0x2466 JUMP JUMPDEST PUSH1 0x0 DUP1 PUSH1 0x40 DUP4 DUP6 SUB SLT ISZERO PUSH2 0x1FBF JUMPI DUP1 DUP2 REVERT JUMPDEST DUP3 CALLDATALOAD PUSH2 0x1FCA DUP2 PUSH2 0x2466 JUMP JUMPDEST SWAP2 POP PUSH1 0x20 DUP4 ADD CALLDATALOAD PUSH2 0x1FDA DUP2 PUSH2 0x247B JUMP JUMPDEST DUP1 SWAP2 POP POP SWAP3 POP SWAP3 SWAP1 POP JUMP JUMPDEST PUSH1 0x0 DUP1 PUSH1 0x40 DUP4 DUP6 SUB SLT ISZERO PUSH2 0x1FF7 JUMPI DUP2 DUP3 REVERT JUMPDEST DUP3 CALLDATALOAD PUSH2 0x2002 DUP2 PUSH2 0x2466 JUMP JUMPDEST SWAP2 POP PUSH1 0x20 DUP4 ADD CALLDATALOAD PUSH32 0xFFFFFFFF00000000000000000000000000000000000000000000000000000000 DUP2 AND DUP2 EQ PUSH2 0x1FDA JUMPI DUP2 DUP3 REVERT JUMPDEST PUSH1 0x0 DUP1 PUSH1 0x40 DUP4 DUP6 SUB SLT ISZERO PUSH2 0x2048 JUMPI DUP2 DUP3 REVERT JUMPDEST DUP3 CALLDATALOAD PUSH2 0x2053 DUP2 PUSH2 0x2466 JUMP JUMPDEST SWAP5 PUSH1 0x20 SWAP4 SWAP1 SWAP4 ADD CALLDATALOAD SWAP4 POP POP POP JUMP JUMPDEST PUSH1 0x0 DUP1 PUSH1 0x0 PUSH1 0x60 DUP5 DUP7 SUB SLT ISZERO PUSH2 0x2075 JUMPI DUP1 DUP2 REVERT JUMPDEST DUP4 CALLDATALOAD PUSH2 0x2080 DUP2 PUSH2 0x2466 JUMP JUMPDEST SWAP6 PUSH1 0x20 DUP6 ADD CALLDATALOAD SWAP6 POP PUSH1 0x40 SWAP1 SWAP5 ADD CALLDATALOAD SWAP4 SWAP3 POP POP POP JUMP JUMPDEST PUSH1 0x0 PUSH1 0x20 DUP3 DUP5 SUB SLT ISZERO PUSH2 0x20A6 JUMPI DUP1 DUP2 REVERT JUMPDEST DUP2 CALLDATALOAD PUSH2 0xC73 DUP2 PUSH2 0x247B JUMP JUMPDEST PUSH1 0x0 DUP1 PUSH1 0x0 PUSH1 0x60 DUP5 DUP7 SUB SLT ISZERO PUSH2 0x20C5 JUMPI DUP3 DUP4 REVERT JUMPDEST DUP4 MLOAD PUSH2 0x20D0 DUP2 PUSH2 0x247B JUMP JUMPDEST PUSH1 0x20 DUP6 ADD MLOAD SWAP1 SWAP4 POP PUSH2 0x20E1 DUP2 PUSH2 0x247B JUMP JUMPDEST DUP1 SWAP3 POP POP PUSH1 0x40 DUP5 ADD MLOAD SWAP1 POP SWAP3 POP SWAP3 POP SWAP3 JUMP JUMPDEST PUSH1 0x0 PUSH1 0x20 DUP3 DUP5 SUB SLT ISZERO PUSH2 0x2104 JUMPI DUP1 DUP2 REVERT JUMPDEST POP CALLDATALOAD SWAP2 SWAP1 POP JUMP JUMPDEST PUSH1 0x0 PUSH1 0x20 DUP3 DUP5 SUB SLT ISZERO PUSH2 0x211C JUMPI DUP1 DUP2 REVERT JUMPDEST POP MLOAD SWAP2 SWAP1 POP JUMP JUMPDEST PUSH1 0x0 DUP1 PUSH1 0x40 DUP4 DUP6 SUB SLT ISZERO PUSH2 0x2135 JUMPI DUP2 DUP3 REVERT JUMPDEST POP POP DUP1 CALLDATALOAD SWAP3 PUSH1 0x20 SWAP1 SWAP2 ADD CALLDATALOAD SWAP2 POP JUMP JUMPDEST PUSH1 0x0 DUP1 PUSH1 0x0 PUSH1 0x60 DUP5 DUP7 SUB SLT ISZERO PUSH2 0x2158 JUMPI DUP3 DUP4 REVERT JUMPDEST DUP4 CALLDATALOAD SWAP3 POP PUSH1 0x20 DUP5 ADD CALLDATALOAD SWAP2 POP PUSH1 0x40 DUP5 ADD CALLDATALOAD PUSH2 0x2171 DUP2 PUSH2 0x2466 JUMP JUMPDEST DUP1 SWAP2 POP POP SWAP3 POP SWAP3 POP SWAP3 JUMP JUMPDEST PUSH1 0x0 DUP1 PUSH1 0x0 DUP1 PUSH1 0x80 DUP6 DUP8 SUB SLT ISZERO PUSH2 0x2191 JUMPI DUP1 DUP2 REVERT JUMPDEST DUP5 CALLDATALOAD PUSH1 0xFF DUP2 AND DUP2 EQ PUSH2 0x21A1 JUMPI DUP2 DUP3 REVERT JUMPDEST SWAP4 POP PUSH1 0x20 DUP6 ADD CALLDATALOAD SWAP3 POP PUSH1 0x40 DUP6 ADD CALLDATALOAD SWAP2 POP PUSH1 0x60 DUP6 ADD CALLDATALOAD PUSH8 0xFFFFFFFFFFFFFFFF DUP1 DUP3 GT ISZERO PUSH2 0x21CB JUMPI DUP3 DUP4 REVERT JUMPDEST DUP2 DUP8 ADD SWAP2 POP DUP8 PUSH1 0x1F DUP4 ADD SLT PUSH2 0x21DE JUMPI DUP3 DUP4 REVERT JUMPDEST DUP2 CALLDATALOAD DUP2 DUP2 GT ISZERO PUSH2 0x21F0 JUMPI PUSH2 0x21F0 PUSH2 0x2437 JUMP JUMPDEST PUSH1 0x40 MLOAD PUSH1 0x1F DUP3 ADD PUSH32 0xFFFFFFFFFFFFFFFFFFFFFFFFFFFFFFFFFFFFFFFFFFFFFFFFFFFFFFFFFFFFFFE0 SWAP1 DUP2 AND PUSH1 0x3F ADD AND DUP2 ADD SWAP1 DUP4 DUP3 GT DUP2 DUP4 LT OR ISZERO PUSH2 0x2236 JUMPI PUSH2 0x2236 PUSH2 0x2437 JUMP JUMPDEST DUP2 PUSH1 0x40 MSTORE DUP3 DUP2 MSTORE DUP11 PUSH1 0x20 DUP5 DUP8 ADD ADD GT ISZERO PUSH2 0x224E JUMPI DUP6 DUP7 REVERT JUMPDEST DUP3 PUSH1 0x20 DUP7 ADD PUSH1 0x20 DUP4 ADD CALLDATACOPY SWAP2 DUP3 ADD PUSH1 0x20 ADD SWAP5 SWAP1 SWAP5 MSTORE SWAP6 SWAP9 SWAP5 SWAP8 POP SWAP3 SWAP6 POP POP POP POP JUMP JUMPDEST PUSH1 0x0 DUP2 MLOAD DUP1 DUP5 MSTORE DUP2 JUMPDEST DUP2 DUP2 LT ISZERO PUSH2 0x2294 JUMPI PUSH1 0x20 DUP2 DUP6 ADD DUP2 ADD MLOAD DUP7 DUP4 ADD DUP3 ADD MSTORE ADD PUSH2 0x2278 JUMP JUMPDEST DUP2 DUP2 GT ISZERO PUSH2 0x22A5 JUMPI DUP3 PUSH1 0x20 DUP4 DUP8 ADD ADD MSTORE JUMPDEST POP PUSH1 0x1F ADD PUSH32 0xFFFFFFFFFFFFFFFFFFFFFFFFFFFFFFFFFFFFFFFFFFFFFFFFFFFFFFFFFFFFFFE0 AND SWAP3 SWAP1 SWAP3 ADD PUSH1 0x20 ADD SWAP3 SWAP2 POP POP JUMP JUMPDEST PUSH1 0x0 PUSH1 0x1 PUSH1 0x1 PUSH1 0xA0 SHL SUB DUP1 DUP8 AND DUP4 MSTORE DUP6 PUSH1 0x20 DUP5 ADD MSTORE DUP1 DUP6 AND PUSH1 0x40 DUP5 ADD MSTORE POP PUSH1 0x80 PUSH1 0x60 DUP4 ADD MSTORE PUSH2 0x230A PUSH1 0x80 DUP4 ADD DUP5 PUSH2 0x226F JUMP JUMPDEST SWAP7 SWAP6 POP POP POP POP POP POP JUMP JUMPDEST PUSH1 0xFF DUP9 AND DUP2 MSTORE PUSH1 0x1 PUSH1 0x1 PUSH1 0xA0 SHL SUB DUP8 DUP2 AND PUSH1 0x20 DUP4 ADD MSTORE DUP7 AND PUSH1 0x40 DUP3 ADD MSTORE PUSH1 0x60 DUP2 ADD DUP6 SWAP1 MSTORE PUSH1 0x0 PUSH1 0x2 DUP6 LT PUSH2 0x236F JUMPI PUSH32 0x4E487B7100000000000000000000000000000000000000000000000000000000 DUP2 MSTORE PUSH1 0x21 PUSH1 0x4 MSTORE PUSH1 0x24 DUP2 REVERT JUMPDEST DUP5 PUSH1 0x80 DUP4 ADD MSTORE DUP4 PUSH1 0xA0 DUP4 ADD MSTORE PUSH1 0xE0 PUSH1 0xC0 DUP4 ADD MSTORE PUSH2 0x238F PUSH1 0xE0 DUP4 ADD DUP5 PUSH2 0x226F JUMP JUMPDEST SWAP10 SWAP9 POP POP POP POP POP POP POP POP POP JUMP JUMPDEST PUSH1 0x0 DUP3 NOT DUP3 GT ISZERO PUSH2 0x23AF JUMPI PUSH2 0x23AF PUSH2 0x2408 JUMP JUMPDEST POP ADD SWAP1 JUMP JUMPDEST PUSH1 0x0 DUP2 PUSH32 0xFFFFFFFFFFFFFFFFFFFFFFFFFFFFFFFFFFFFFFFFFFFFFFFFFFFFFFFFFFFFFFFF DIV DUP4 GT DUP3 ISZERO ISZERO AND ISZERO PUSH2 0x23EC JUMPI PUSH2 0x23EC PUSH2 0x2408 JUMP JUMPDEST POP MUL SWAP1 JUMP JUMPDEST PUSH1 0x0 DUP3 DUP3 LT ISZERO PUSH2 0x2403 JUMPI PUSH2 0x2403 PUSH2 0x2408 JUMP JUMPDEST POP SUB SWAP1 JUMP JUMPDEST PUSH32 0x4E487B7100000000000000000000000000000000000000000000000000000000 PUSH1 0x0 MSTORE PUSH1 0x11 PUSH1 0x4 MSTORE PUSH1 0x24 PUSH1 0x0 REVERT JUMPDEST PUSH32 0x4E487B7100000000000000000000000000000000000000000000000000000000 PUSH1 0x0 MSTORE PUSH1 0x41 PUSH1 0x4 MSTORE PUSH1 0x24 PUSH1 0x0 REVERT JUMPDEST PUSH1 0x1 PUSH1 0x1 PUSH1 0xA0 SHL SUB DUP2 AND DUP2 EQ PUSH2 0xE6F JUMPI PUSH1 0x0 DUP1 REVERT JUMPDEST DUP1 ISZERO ISZERO DUP2 EQ PUSH2 0xE6F JUMPI PUSH1 0x0 DUP1 REVERT INVALID LOG2 PUSH5 0x6970667358 0x22 SLT KECCAK256 MLOAD SWAP15 PUSH6 0x2D3F8AF26229 SWAP14 DUP4 0xAE DUP3 DUP2 0x27 0xA8 0x4F 0x5C 0xA6 BYTE DUP3 0xD3 DIFFICULTY SWAP4 GASLIMIT 0x2A PUSH23 0x5C9E11A39F64736F6C6343000803003300000000000000 "},"methodIdentifiers":{"ANY_ADDRESS()":"3f81a192","BASE_GAS()":"389aa342","NAMESPACE()":"44ba1fca","authorize(address,bytes4)":"933f0f3c","call(uint8,uint256,uint256,bytes)":"d54abf10","canExecute(uint256,uint256)":"2ba29217","gasPriceLimit()":"961a929c","isAuthorized(address,bytes4)":"d9972b96","isPermissiveModeActive()":"c66197bf","isRelayer(address)":"541d5548","maxSlippage()":"8c04166f","payingGasToken()":"f5aabb1a","registry()":"7b103999","setLimits(uint256,uint256,address)":"5247c1ca","setMaxSlippage(uint256)":"43f68a49","setPermissiveMode(bool)":"0d0eda8b","setRelayer(address,bool)":"ecd8dc3a","setSmartVault(address)":"13e3b57c","setSwapLimit(address,uint256,uint256)":"46f6b1bf","setThreshold(address,uint256)":"9d879990","setTokenIn(address)":"0f0f3c41","setTokenOut(address)":"c158910d","smartVault()":"4fd49efd","swapLimit()":"6a01f09c","thresholdAmount()":"28f4dbb6","thresholdToken()":"b42953e7","tokenIn()":"6daf390b","tokenOut()":"d0202d3b","totalCostLimit()":"01cfdd29","unauthorize(address,bytes4)":"6646a436"}}}}}