{
  "contracts/registry/Registry.sol": {
    "Registry": {
      "abi": [
        {
          "inputs": [
            {
              "internalType": "address",
              "name": "admin",
              "type": "address"
            }
          ],
          "stateMutability": "nonpayable",
          "type": "constructor"
        },
        {
          "anonymous": false,
          "inputs": [
            {
              "indexed": true,
              "internalType": "address",
              "name": "who",
              "type": "address"
            },
            {
              "indexed": false,
              "internalType": "bytes4",
              "name": "what",
              "type": "bytes4"
            }
          ],
          "name": "Authorized",
          "type": "event"
        },
        {
          "anonymous": false,
          "inputs": [
            {
              "indexed": true,
              "internalType": "bytes32",
              "name": "namespace",
              "type": "bytes32"
            },
            {
              "indexed": true,
              "internalType": "address",
              "name": "implementation",
              "type": "address"
            },
            {
              "indexed": false,
              "internalType": "address",
              "name": "instance",
              "type": "address"
            },
            {
              "indexed": false,
              "internalType": "bytes",
              "name": "initResult",
              "type": "bytes"
            }
          ],
          "name": "Cloned",
          "type": "event"
        },
        {
          "anonymous": false,
          "inputs": [
            {
              "indexed": true,
              "internalType": "bytes32",
              "name": "namespace",
              "type": "bytes32"
            },
            {
              "indexed": true,
              "internalType": "address",
              "name": "implementation",
              "type": "address"
            }
          ],
          "name": "Deprecated",
          "type": "event"
        },
        {
          "anonymous": false,
          "inputs": [
            {
              "indexed": true,
              "internalType": "bytes32",
              "name": "namespace",
              "type": "bytes32"
            },
            {
              "indexed": true,
              "internalType": "address",
              "name": "implementation",
              "type": "address"
            },
            {
              "indexed": false,
              "internalType": "bool",
              "name": "stateless",
              "type": "bool"
            }
          ],
          "name": "Registered",
          "type": "event"
        },
        {
          "anonymous": false,
          "inputs": [
            {
              "indexed": true,
              "internalType": "address",
              "name": "who",
              "type": "address"
            },
            {
              "indexed": false,
              "internalType": "bytes4",
              "name": "what",
              "type": "bytes4"
            }
          ],
          "name": "Unauthorized",
          "type": "event"
        },
        {
          "inputs": [],
          "name": "ANY_ADDRESS",
          "outputs": [
            {
              "internalType": "address",
              "name": "",
              "type": "address"
            }
          ],
          "stateMutability": "view",
          "type": "function"
        },
        {
          "inputs": [
            {
              "internalType": "address",
              "name": "who",
              "type": "address"
            },
            {
              "internalType": "bytes4",
              "name": "what",
              "type": "bytes4"
            }
          ],
          "name": "authorize",
          "outputs": [],
          "stateMutability": "nonpayable",
          "type": "function"
        },
        {
          "inputs": [
            {
              "internalType": "address",
              "name": "implementation",
              "type": "address"
            },
            {
              "internalType": "bytes",
              "name": "initializeData",
              "type": "bytes"
            }
          ],
          "name": "clone",
          "outputs": [
            {
              "internalType": "address",
              "name": "instance",
              "type": "address"
            }
          ],
          "stateMutability": "nonpayable",
          "type": "function"
        },
        {
          "inputs": [
            {
              "internalType": "address",
              "name": "implementation",
              "type": "address"
            }
          ],
          "name": "deprecate",
          "outputs": [],
          "stateMutability": "nonpayable",
          "type": "function"
        },
        {
          "inputs": [
            {
              "internalType": "address",
              "name": "",
              "type": "address"
            }
          ],
          "name": "implementationData",
          "outputs": [
            {
              "internalType": "bool",
              "name": "stateless",
              "type": "bool"
            },
            {
              "internalType": "bool",
              "name": "deprecated",
              "type": "bool"
            },
            {
              "internalType": "bytes32",
              "name": "namespace",
              "type": "bytes32"
            }
          ],
          "stateMutability": "view",
          "type": "function"
        },
        {
          "inputs": [
            {
              "internalType": "address",
              "name": "",
              "type": "address"
            }
          ],
          "name": "implementationOf",
          "outputs": [
            {
              "internalType": "address",
              "name": "",
              "type": "address"
            }
          ],
          "stateMutability": "view",
          "type": "function"
        },
        {
          "inputs": [
            {
              "internalType": "bytes32",
              "name": "namespace",
              "type": "bytes32"
            },
            {
              "internalType": "address",
              "name": "implementation",
              "type": "address"
            }
          ],
          "name": "isActive",
          "outputs": [
            {
              "internalType": "bool",
              "name": "",
              "type": "bool"
            }
          ],
          "stateMutability": "view",
          "type": "function"
        },
        {
          "inputs": [
            {
              "internalType": "address",
              "name": "who",
              "type": "address"
            },
            {
              "internalType": "bytes4",
              "name": "what",
              "type": "bytes4"
            }
          ],
          "name": "isAuthorized",
          "outputs": [
            {
              "internalType": "bool",
              "name": "",
              "type": "bool"
            }
          ],
          "stateMutability": "view",
          "type": "function"
        },
        {
          "inputs": [
            {
              "internalType": "bytes32",
              "name": "namespace",
              "type": "bytes32"
            },
            {
              "internalType": "address",
              "name": "implementation",
              "type": "address"
            },
            {
              "internalType": "bool",
              "name": "stateless",
              "type": "bool"
            }
          ],
          "name": "register",
          "outputs": [],
          "stateMutability": "nonpayable",
          "type": "function"
        },
        {
          "inputs": [
            {
              "internalType": "address",
              "name": "who",
              "type": "address"
            },
            {
              "internalType": "bytes4",
              "name": "what",
              "type": "bytes4"
            }
          ],
          "name": "unauthorize",
          "outputs": [],
          "stateMutability": "nonpayable",
          "type": "function"
        }
      ],
      "evm": {
        "bytecode": {
          "linkReferences": {},
          "object": "608060405234801561001057600080fd5b506040516200128438038062001284833981016040819052610031916100e7565b610042816319e1127560e21b61007b565b610053816301d4f0c360e21b61007b565b610064816324cfc3cf60e21b61007b565b61007581633323521b60e11b61007b565b50610115565b6001600160a01b0382166000818152602081815260408083206001600160e01b0319861680855290835292819020805460ff19166001179055519182527f7f06c1c34ad47198873da9dcde2e40904035d41b23da3a9132df674a75022df7910160405180910390a25050565b6000602082840312156100f8578081fd5b81516001600160a01b038116811461010e578182fd5b9392505050565b61115f80620001256000396000f3fe608060405234801561001057600080fd5b50600436106100be5760003560e01c80638b4872b811610076578063933f0f3c1161005b578063933f0f3c146101dd578063ca0f8f3b146101f0578063d9972b9614610213576100be565b80638b4872b8146101565780639235dcf81461018c576100be565b80633f81a192116100a75780633f81a192146101155780636646a43614610130578063678449d414610143576100be565b80630753c30c146100c35780630fbe133c146100d8575b600080fd5b6100d66100d1366004610e65565b610226565b005b6100eb6100e6366004610ed9565b6103fe565b60405173ffffffffffffffffffffffffffffffffffffffff90911681526020015b60405180910390f35b6100eb73ffffffffffffffffffffffffffffffffffffffff81565b6100d661013e366004610e7f565b610663565b6100d6610151366004610fdf565b61069f565b6100eb610164366004610e65565b60016020526000908152604090205473ffffffffffffffffffffffffffffffffffffffff1681565b6101c061019a366004610e65565b6002602052600090815260409020805460019091015460ff808316926101009004169083565b60408051931515845291151560208401529082015260600161010c565b6100d66101eb366004610e7f565b6108ef565b6102036101fe366004610fb4565b610927565b604051901515815260200161010c565b610203610221366004610e7f565b61096e565b610254336000357fffffffff0000000000000000000000000000000000000000000000000000000016610a24565b73ffffffffffffffffffffffffffffffffffffffff81166102bc5760405162461bcd60e51b815260206004820152601b60248201527f494d504c454d454e544154494f4e5f414444524553535f5a45524f000000000060448201526064015b60405180910390fd5b73ffffffffffffffffffffffffffffffffffffffff8116600090815260026020526040902060018101546103325760405162461bcd60e51b815260206004820152601b60248201527f554e524547495354455245445f494d504c454d454e544154494f4e000000000060448201526064016102b3565b8054610100900460ff16156103895760405162461bcd60e51b815260206004820152601960248201527f444550524543415445445f494d504c454d454e544154494f4e0000000000000060448201526064016102b3565b80547fffffffffffffffffffffffffffffffffffffffffffffffffffffffffffff00ff16610100178155600181015460405173ffffffffffffffffffffffffffffffffffffffff841691907f9dedfb457c94655f88c417e108167137f3f2458254592c596f04441cb4c351fe90600090a35050565b600073ffffffffffffffffffffffffffffffffffffffff83166104635760405162461bcd60e51b815260206004820152601b60248201527f494d504c454d454e544154494f4e5f414444524553535f5a45524f000000000060448201526064016102b3565b73ffffffffffffffffffffffffffffffffffffffff8316600090815260026020526040902060018101546104d95760405162461bcd60e51b815260206004820152601b60248201527f554e524547495354455245445f494d504c454d454e544154494f4e000000000060448201526064016102b3565b8054610100900460ff16156105305760405162461bcd60e51b815260206004820152601960248201527f444550524543415445445f494d504c454d454e544154494f4e0000000000000060448201526064016102b3565b61053984610a7a565b73ffffffffffffffffffffffffffffffffffffffff818116600090815260016020526040812080547fffffffffffffffffffffffff00000000000000000000000000000000000000001692881692909217909155845191935090156105f45760408051808201909152601181527f434c4f4e455f494e49545f4641494c454400000000000000000000000000000060208201526105ef9073ffffffffffffffffffffffffffffffffffffffff8516908690610b42565b610604565b6040805160008152602081019091525b90508473ffffffffffffffffffffffffffffffffffffffff1682600101547f8316db2b1e4fe4451f1f3fdad0e106a648a807d121a880297b8a0ddb3231bcd48584604051610653929190611088565b60405180910390a3505092915050565b610691336000357fffffffff0000000000000000000000000000000000000000000000000000000016610a24565b61069b8282610b51565b5050565b6106cd336000357fffffffff0000000000000000000000000000000000000000000000000000000016610a24565b8261071a5760405162461bcd60e51b815260206004820152601160248201527f494e56414c49445f4e414d45535041434500000000000000000000000000000060448201526064016102b3565b73ffffffffffffffffffffffffffffffffffffffff821661077d5760405162461bcd60e51b815260206004820152601660248201527f494e56414c49445f494d504c454d454e544154494f4e0000000000000000000060448201526064016102b3565b73ffffffffffffffffffffffffffffffffffffffff821660009081526002602052604090206001810154156107f45760405162461bcd60e51b815260206004820152601960248201527f524547495354455245445f494d504c454d454e544154494f4e0000000000000060448201526064016102b3565b73ffffffffffffffffffffffffffffffffffffffff83811660009081526001602052604090205416156108695760405162461bcd60e51b815260206004820152601860248201527f43414e4e4f545f52454749535445525f494e5354414e4345000000000000000060448201526064016102b3565b80547fffffffffffffffffffffffffffffffffffffffffffffffffffffffffffff00001682151590811782556001820185905560405190815273ffffffffffffffffffffffffffffffffffffffff84169085907f9757e66b5a012762865eeeeaa7190b148500cbc2631d0a90dde0cc7946a92bc09060200160405180910390a350505050565b61091d336000357fffffffff0000000000000000000000000000000000000000000000000000000016610a24565b61069b8282610bfe565b73ffffffffffffffffffffffffffffffffffffffff811660009081526002602052604081208054610100900460ff161580156109665750838160010154145b949350505050565b7fffffffff00000000000000000000000000000000000000000000000000000000811660009081527f50c7a3d1a23c7ff4a61d37c3f2c4aeb36cf60b43ee893723db201d3eb941cbad602052604081205460ff1680610a1d575073ffffffffffffffffffffffffffffffffffffffff83166000908152602081815260408083207fffffffff000000000000000000000000000000000000000000000000000000008616845290915290205460ff165b9392505050565b610a2e828261096e565b61069b5760405162461bcd60e51b815260206004820152601760248201527f415554485f53454e4445525f4e4f545f414c4c4f57454400000000000000000060448201526064016102b3565b60006040517f3d602d80600a3d3981f3363d3d373d3d3d363d7300000000000000000000000081528260601b60148201527f5af43d82803e903d91602b57fd5bf3000000000000000000000000000000000060288201526037816000f091505073ffffffffffffffffffffffffffffffffffffffff8116610b3d5760405162461bcd60e51b815260206004820152601660248201527f455243313136373a20637265617465206661696c65640000000000000000000060448201526064016102b3565b919050565b60606109668484600085610ca6565b73ffffffffffffffffffffffffffffffffffffffff82166000818152602081815260408083207fffffffff0000000000000000000000000000000000000000000000000000000086168085529083529281902080547fffffffffffffffffffffffffffffffffffffffffffffffffffffffffffffff00169055519182527fa2e97b9eea8d1168700e334304edd057dff89c0384ca6f920c73cc3e48c8e52391015b60405180910390a25050565b73ffffffffffffffffffffffffffffffffffffffff82166000818152602081815260408083207fffffffff0000000000000000000000000000000000000000000000000000000086168085529083529281902080547fffffffffffffffffffffffffffffffffffffffffffffffffffffffffffffff00166001179055519182527f7f06c1c34ad47198873da9dcde2e40904035d41b23da3a9132df674a75022df79101610bf2565b606082471015610d1e5760405162461bcd60e51b815260206004820152602660248201527f416464726573733a20696e73756666696369656e742062616c616e636520666f60448201527f722063616c6c000000000000000000000000000000000000000000000000000060648201526084016102b3565b73ffffffffffffffffffffffffffffffffffffffff85163b610d825760405162461bcd60e51b815260206004820152601d60248201527f416464726573733a2063616c6c20746f206e6f6e2d636f6e747261637400000060448201526064016102b3565b6000808673ffffffffffffffffffffffffffffffffffffffff168587604051610dab919061106c565b60006040518083038185875af1925050503d8060008114610de8576040519150601f19603f3d011682016040523d82523d6000602084013e610ded565b606091505b5091509150610dfd828286610e08565b979650505050505050565b60608315610e17575081610a1d565b825115610e275782518084602001fd5b8160405162461bcd60e51b81526004016102b391906110b7565b803573ffffffffffffffffffffffffffffffffffffffff81168114610b3d57600080fd5b600060208284031215610e76578081fd5b610a1d82610e41565b60008060408385031215610e91578081fd5b610e9a83610e41565b915060208301357fffffffff0000000000000000000000000000000000000000000000000000000081168114610ece578182fd5b809150509250929050565b60008060408385031215610eeb578182fd5b610ef483610e41565b9150602083013567ffffffffffffffff80821115610f10578283fd5b818501915085601f830112610f23578283fd5b813581811115610f3557610f356110fa565b604051601f82017fffffffffffffffffffffffffffffffffffffffffffffffffffffffffffffffe0908116603f01168101908382118183101715610f7b57610f7b6110fa565b81604052828152886020848701011115610f93578586fd5b82602086016020830137856020848301015280955050505050509250929050565b60008060408385031215610fc6578182fd5b82359150610fd660208401610e41565b90509250929050565b600080600060608486031215610ff3578081fd5b8335925061100360208501610e41565b915060408401358015158114611017578182fd5b809150509250925092565b6000815180845261103a8160208601602086016110ca565b601f017fffffffffffffffffffffffffffffffffffffffffffffffffffffffffffffffe0169290920160200192915050565b6000825161107e8184602087016110ca565b9190910192915050565b600073ffffffffffffffffffffffffffffffffffffffff84168252604060208301526109666040830184611022565b600060208252610a1d6020830184611022565b60005b838110156110e55781810151838201526020016110cd565b838111156110f4576000848401525b50505050565b7f4e487b7100000000000000000000000000000000000000000000000000000000600052604160045260246000fdfea26469706673582212204b6534a5c5a8f2e6e838a9eb256772e8b5b47280a73edf4c4c4f501d79ba0d0564736f6c63430008030033",
          "opcodes": "PUSH1 0x80 PUSH1 0x40 MSTORE CALLVALUE DUP1 ISZERO PUSH2 0x10 JUMPI PUSH1 0x0 DUP1 REVERT JUMPDEST POP PUSH1 0x40 MLOAD PUSH3 0x1284 CODESIZE SUB DUP1 PUSH3 0x1284 DUP4 CODECOPY DUP2 ADD PUSH1 0x40 DUP2 SWAP1 MSTORE PUSH2 0x31 SWAP2 PUSH2 0xE7 JUMP JUMPDEST PUSH2 0x42 DUP2 PUSH4 0x19E11275 PUSH1 0xE2 SHL PUSH2 0x7B JUMP JUMPDEST PUSH2 0x53 DUP2 PUSH4 0x1D4F0C3 PUSH1 0xE2 SHL PUSH2 0x7B JUMP JUMPDEST PUSH2 0x64 DUP2 PUSH4 0x24CFC3CF PUSH1 0xE2 SHL PUSH2 0x7B JUMP JUMPDEST PUSH2 0x75 DUP2 PUSH4 0x3323521B PUSH1 0xE1 SHL PUSH2 0x7B JUMP JUMPDEST POP PUSH2 0x115 JUMP JUMPDEST PUSH1 0x1 PUSH1 0x1 PUSH1 0xA0 SHL SUB DUP3 AND PUSH1 0x0 DUP2 DUP2 MSTORE PUSH1 0x20 DUP2 DUP2 MSTORE PUSH1 0x40 DUP1 DUP4 KECCAK256 PUSH1 0x1 PUSH1 0x1 PUSH1 0xE0 SHL SUB NOT DUP7 AND DUP1 DUP6 MSTORE SWAP1 DUP4 MSTORE SWAP3 DUP2 SWAP1 KECCAK256 DUP1 SLOAD PUSH1 0xFF NOT AND PUSH1 0x1 OR SWAP1 SSTORE MLOAD SWAP2 DUP3 MSTORE PUSH32 0x7F06C1C34AD47198873DA9DCDE2E40904035D41B23DA3A9132DF674A75022DF7 SWAP2 ADD PUSH1 0x40 MLOAD DUP1 SWAP2 SUB SWAP1 LOG2 POP POP JUMP JUMPDEST PUSH1 0x0 PUSH1 0x20 DUP3 DUP5 SUB SLT ISZERO PUSH2 0xF8 JUMPI DUP1 DUP2 REVERT JUMPDEST DUP2 MLOAD PUSH1 0x1 PUSH1 0x1 PUSH1 0xA0 SHL SUB DUP2 AND DUP2 EQ PUSH2 0x10E JUMPI DUP2 DUP3 REVERT JUMPDEST SWAP4 SWAP3 POP POP POP JUMP JUMPDEST PUSH2 0x115F DUP1 PUSH3 0x125 PUSH1 0x0 CODECOPY PUSH1 0x0 RETURN INVALID PUSH1 0x80 PUSH1 0x40 MSTORE CALLVALUE DUP1 ISZERO PUSH2 0x10 JUMPI PUSH1 0x0 DUP1 REVERT JUMPDEST POP PUSH1 0x4 CALLDATASIZE LT PUSH2 0xBE JUMPI PUSH1 0x0 CALLDATALOAD PUSH1 0xE0 SHR DUP1 PUSH4 0x8B4872B8 GT PUSH2 0x76 JUMPI DUP1 PUSH4 0x933F0F3C GT PUSH2 0x5B JUMPI DUP1 PUSH4 0x933F0F3C EQ PUSH2 0x1DD JUMPI DUP1 PUSH4 0xCA0F8F3B EQ PUSH2 0x1F0 JUMPI DUP1 PUSH4 0xD9972B96 EQ PUSH2 0x213 JUMPI PUSH2 0xBE JUMP JUMPDEST DUP1 PUSH4 0x8B4872B8 EQ PUSH2 0x156 JUMPI DUP1 PUSH4 0x9235DCF8 EQ PUSH2 0x18C JUMPI PUSH2 0xBE JUMP JUMPDEST DUP1 PUSH4 0x3F81A192 GT PUSH2 0xA7 JUMPI DUP1 PUSH4 0x3F81A192 EQ PUSH2 0x115 JUMPI DUP1 PUSH4 0x6646A436 EQ PUSH2 0x130 JUMPI DUP1 PUSH4 0x678449D4 EQ PUSH2 0x143 JUMPI PUSH2 0xBE JUMP JUMPDEST DUP1 PUSH4 0x753C30C EQ PUSH2 0xC3 JUMPI DUP1 PUSH4 0xFBE133C EQ PUSH2 0xD8 JUMPI JUMPDEST PUSH1 0x0 DUP1 REVERT JUMPDEST PUSH2 0xD6 PUSH2 0xD1 CALLDATASIZE PUSH1 0x4 PUSH2 0xE65 JUMP JUMPDEST PUSH2 0x226 JUMP JUMPDEST STOP JUMPDEST PUSH2 0xEB PUSH2 0xE6 CALLDATASIZE PUSH1 0x4 PUSH2 0xED9 JUMP JUMPDEST PUSH2 0x3FE JUMP JUMPDEST PUSH1 0x40 MLOAD PUSH20 0xFFFFFFFFFFFFFFFFFFFFFFFFFFFFFFFFFFFFFFFF SWAP1 SWAP2 AND DUP2 MSTORE PUSH1 0x20 ADD JUMPDEST PUSH1 0x40 MLOAD DUP1 SWAP2 SUB SWAP1 RETURN JUMPDEST PUSH2 0xEB PUSH20 0xFFFFFFFFFFFFFFFFFFFFFFFFFFFFFFFFFFFFFFFF DUP2 JUMP JUMPDEST PUSH2 0xD6 PUSH2 0x13E CALLDATASIZE PUSH1 0x4 PUSH2 0xE7F JUMP JUMPDEST PUSH2 0x663 JUMP JUMPDEST PUSH2 0xD6 PUSH2 0x151 CALLDATASIZE PUSH1 0x4 PUSH2 0xFDF JUMP JUMPDEST PUSH2 0x69F JUMP JUMPDEST PUSH2 0xEB PUSH2 0x164 CALLDATASIZE PUSH1 0x4 PUSH2 0xE65 JUMP JUMPDEST PUSH1 0x1 PUSH1 0x20 MSTORE PUSH1 0x0 SWAP1 DUP2 MSTORE PUSH1 0x40 SWAP1 KECCAK256 SLOAD PUSH20 0xFFFFFFFFFFFFFFFFFFFFFFFFFFFFFFFFFFFFFFFF AND DUP2 JUMP JUMPDEST PUSH2 0x1C0 PUSH2 0x19A CALLDATASIZE PUSH1 0x4 PUSH2 0xE65 JUMP JUMPDEST PUSH1 0x2 PUSH1 0x20 MSTORE PUSH1 0x0 SWAP1 DUP2 MSTORE PUSH1 0x40 SWAP1 KECCAK256 DUP1 SLOAD PUSH1 0x1 SWAP1 SWAP2 ADD SLOAD PUSH1 0xFF DUP1 DUP4 AND SWAP3 PUSH2 0x100 SWAP1 DIV AND SWAP1 DUP4 JUMP JUMPDEST PUSH1 0x40 DUP1 MLOAD SWAP4 ISZERO ISZERO DUP5 MSTORE SWAP2 ISZERO ISZERO PUSH1 0x20 DUP5 ADD MSTORE SWAP1 DUP3 ADD MSTORE PUSH1 0x60 ADD PUSH2 0x10C JUMP JUMPDEST PUSH2 0xD6 PUSH2 0x1EB CALLDATASIZE PUSH1 0x4 PUSH2 0xE7F JUMP JUMPDEST PUSH2 0x8EF JUMP JUMPDEST PUSH2 0x203 PUSH2 0x1FE CALLDATASIZE PUSH1 0x4 PUSH2 0xFB4 JUMP JUMPDEST PUSH2 0x927 JUMP JUMPDEST PUSH1 0x40 MLOAD SWAP1 ISZERO ISZERO DUP2 MSTORE PUSH1 0x20 ADD PUSH2 0x10C JUMP JUMPDEST PUSH2 0x203 PUSH2 0x221 CALLDATASIZE PUSH1 0x4 PUSH2 0xE7F JUMP JUMPDEST PUSH2 0x96E JUMP JUMPDEST PUSH2 0x254 CALLER PUSH1 0x0 CALLDATALOAD PUSH32 0xFFFFFFFF00000000000000000000000000000000000000000000000000000000 AND PUSH2 0xA24 JUMP JUMPDEST PUSH20 0xFFFFFFFFFFFFFFFFFFFFFFFFFFFFFFFFFFFFFFFF DUP2 AND PUSH2 0x2BC JUMPI PUSH1 0x40 MLOAD PUSH3 0x461BCD PUSH1 0xE5 SHL DUP2 MSTORE PUSH1 0x20 PUSH1 0x4 DUP3 ADD MSTORE PUSH1 0x1B PUSH1 0x24 DUP3 ADD MSTORE PUSH32 0x494D504C454D454E544154494F4E5F414444524553535F5A45524F0000000000 PUSH1 0x44 DUP3 ADD MSTORE PUSH1 0x64 ADD JUMPDEST PUSH1 0x40 MLOAD DUP1 SWAP2 SUB SWAP1 REVERT JUMPDEST PUSH20 0xFFFFFFFFFFFFFFFFFFFFFFFFFFFFFFFFFFFFFFFF DUP2 AND PUSH1 0x0 SWAP1 DUP2 MSTORE PUSH1 0x2 PUSH1 0x20 MSTORE PUSH1 0x40 SWAP1 KECCAK256 PUSH1 0x1 DUP2 ADD SLOAD PUSH2 0x332 JUMPI PUSH1 0x40 MLOAD PUSH3 0x461BCD PUSH1 0xE5 SHL DUP2 MSTORE PUSH1 0x20 PUSH1 0x4 DUP3 ADD MSTORE PUSH1 0x1B PUSH1 0x24 DUP3 ADD MSTORE PUSH32 0x554E524547495354455245445F494D504C454D454E544154494F4E0000000000 PUSH1 0x44 DUP3 ADD MSTORE PUSH1 0x64 ADD PUSH2 0x2B3 JUMP JUMPDEST DUP1 SLOAD PUSH2 0x100 SWAP1 DIV PUSH1 0xFF AND ISZERO PUSH2 0x389 JUMPI PUSH1 0x40 MLOAD PUSH3 0x461BCD PUSH1 0xE5 SHL DUP2 MSTORE PUSH1 0x20 PUSH1 0x4 DUP3 ADD MSTORE PUSH1 0x19 PUSH1 0x24 DUP3 ADD MSTORE PUSH32 0x444550524543415445445F494D504C454D454E544154494F4E00000000000000 PUSH1 0x44 DUP3 ADD MSTORE PUSH1 0x64 ADD PUSH2 0x2B3 JUMP JUMPDEST DUP1 SLOAD PUSH32 0xFFFFFFFFFFFFFFFFFFFFFFFFFFFFFFFFFFFFFFFFFFFFFFFFFFFFFFFFFFFF00FF AND PUSH2 0x100 OR DUP2 SSTORE PUSH1 0x1 DUP2 ADD SLOAD PUSH1 0x40 MLOAD PUSH20 0xFFFFFFFFFFFFFFFFFFFFFFFFFFFFFFFFFFFFFFFF DUP5 AND SWAP2 SWAP1 PUSH32 0x9DEDFB457C94655F88C417E108167137F3F2458254592C596F04441CB4C351FE SWAP1 PUSH1 0x0 SWAP1 LOG3 POP POP JUMP JUMPDEST PUSH1 0x0 PUSH20 0xFFFFFFFFFFFFFFFFFFFFFFFFFFFFFFFFFFFFFFFF DUP4 AND PUSH2 0x463 JUMPI PUSH1 0x40 MLOAD PUSH3 0x461BCD PUSH1 0xE5 SHL DUP2 MSTORE PUSH1 0x20 PUSH1 0x4 DUP3 ADD MSTORE PUSH1 0x1B PUSH1 0x24 DUP3 ADD MSTORE PUSH32 0x494D504C454D454E544154494F4E5F414444524553535F5A45524F0000000000 PUSH1 0x44 DUP3 ADD MSTORE PUSH1 0x64 ADD PUSH2 0x2B3 JUMP JUMPDEST PUSH20 0xFFFFFFFFFFFFFFFFFFFFFFFFFFFFFFFFFFFFFFFF DUP4 AND PUSH1 0x0 SWAP1 DUP2 MSTORE PUSH1 0x2 PUSH1 0x20 MSTORE PUSH1 0x40 SWAP1 KECCAK256 PUSH1 0x1 DUP2 ADD SLOAD PUSH2 0x4D9 JUMPI PUSH1 0x40 MLOAD PUSH3 0x461BCD PUSH1 0xE5 SHL DUP2 MSTORE PUSH1 0x20 PUSH1 0x4 DUP3 ADD MSTORE PUSH1 0x1B PUSH1 0x24 DUP3 ADD MSTORE PUSH32 0x554E524547495354455245445F494D504C454D454E544154494F4E0000000000 PUSH1 0x44 DUP3 ADD MSTORE PUSH1 0x64 ADD PUSH2 0x2B3 JUMP JUMPDEST DUP1 SLOAD PUSH2 0x100 SWAP1 DIV PUSH1 0xFF AND ISZERO PUSH2 0x530 JUMPI PUSH1 0x40 MLOAD PUSH3 0x461BCD PUSH1 0xE5 SHL DUP2 MSTORE PUSH1 0x20 PUSH1 0x4 DUP3 ADD MSTORE PUSH1 0x19 PUSH1 0x24 DUP3 ADD MSTORE PUSH32 0x444550524543415445445F494D504C454D454E544154494F4E00000000000000 PUSH1 0x44 DUP3 ADD MSTORE PUSH1 0x64 ADD PUSH2 0x2B3 JUMP JUMPDEST PUSH2 0x539 DUP5 PUSH2 0xA7A JUMP JUMPDEST PUSH20 0xFFFFFFFFFFFFFFFFFFFFFFFFFFFFFFFFFFFFFFFF DUP2 DUP2 AND PUSH1 0x0 SWAP1 DUP2 MSTORE PUSH1 0x1 PUSH1 0x20 MSTORE PUSH1 0x40 DUP2 KECCAK256 DUP1 SLOAD PUSH32 0xFFFFFFFFFFFFFFFFFFFFFFFF0000000000000000000000000000000000000000 AND SWAP3 DUP9 AND SWAP3 SWAP1 SWAP3 OR SWAP1 SWAP2 SSTORE DUP5 MLOAD SWAP2 SWAP4 POP SWAP1 ISZERO PUSH2 0x5F4 JUMPI PUSH1 0x40 DUP1 MLOAD DUP1 DUP3 ADD SWAP1 SWAP2 MSTORE PUSH1 0x11 DUP2 MSTORE PUSH32 0x434C4F4E455F494E49545F4641494C4544000000000000000000000000000000 PUSH1 0x20 DUP3 ADD MSTORE PUSH2 0x5EF SWAP1 PUSH20 0xFFFFFFFFFFFFFFFFFFFFFFFFFFFFFFFFFFFFFFFF DUP6 AND SWAP1 DUP7 SWAP1 PUSH2 0xB42 JUMP JUMPDEST PUSH2 0x604 JUMP JUMPDEST PUSH1 0x40 DUP1 MLOAD PUSH1 0x0 DUP2 MSTORE PUSH1 0x20 DUP2 ADD SWAP1 SWAP2 MSTORE JUMPDEST SWAP1 POP DUP5 PUSH20 0xFFFFFFFFFFFFFFFFFFFFFFFFFFFFFFFFFFFFFFFF AND DUP3 PUSH1 0x1 ADD SLOAD PUSH32 0x8316DB2B1E4FE4451F1F3FDAD0E106A648A807D121A880297B8A0DDB3231BCD4 DUP6 DUP5 PUSH1 0x40 MLOAD PUSH2 0x653 SWAP3 SWAP2 SWAP1 PUSH2 0x1088 JUMP JUMPDEST PUSH1 0x40 MLOAD DUP1 SWAP2 SUB SWAP1 LOG3 POP POP SWAP3 SWAP2 POP POP JUMP JUMPDEST PUSH2 0x691 CALLER PUSH1 0x0 CALLDATALOAD PUSH32 0xFFFFFFFF00000000000000000000000000000000000000000000000000000000 AND PUSH2 0xA24 JUMP JUMPDEST PUSH2 0x69B DUP3 DUP3 PUSH2 0xB51 JUMP JUMPDEST POP POP JUMP JUMPDEST PUSH2 0x6CD CALLER PUSH1 0x0 CALLDATALOAD PUSH32 0xFFFFFFFF00000000000000000000000000000000000000000000000000000000 AND PUSH2 0xA24 JUMP JUMPDEST DUP3 PUSH2 0x71A JUMPI PUSH1 0x40 MLOAD PUSH3 0x461BCD PUSH1 0xE5 SHL DUP2 MSTORE PUSH1 0x20 PUSH1 0x4 DUP3 ADD MSTORE PUSH1 0x11 PUSH1 0x24 DUP3 ADD MSTORE PUSH32 0x494E56414C49445F4E414D455350414345000000000000000000000000000000 PUSH1 0x44 DUP3 ADD MSTORE PUSH1 0x64 ADD PUSH2 0x2B3 JUMP JUMPDEST PUSH20 0xFFFFFFFFFFFFFFFFFFFFFFFFFFFFFFFFFFFFFFFF DUP3 AND PUSH2 0x77D JUMPI PUSH1 0x40 MLOAD PUSH3 0x461BCD PUSH1 0xE5 SHL DUP2 MSTORE PUSH1 0x20 PUSH1 0x4 DUP3 ADD MSTORE PUSH1 0x16 PUSH1 0x24 DUP3 ADD MSTORE PUSH32 0x494E56414C49445F494D504C454D454E544154494F4E00000000000000000000 PUSH1 0x44 DUP3 ADD MSTORE PUSH1 0x64 ADD PUSH2 0x2B3 JUMP JUMPDEST PUSH20 0xFFFFFFFFFFFFFFFFFFFFFFFFFFFFFFFFFFFFFFFF DUP3 AND PUSH1 0x0 SWAP1 DUP2 MSTORE PUSH1 0x2 PUSH1 0x20 MSTORE PUSH1 0x40 SWAP1 KECCAK256 PUSH1 0x1 DUP2 ADD SLOAD ISZERO PUSH2 0x7F4 JUMPI PUSH1 0x40 MLOAD PUSH3 0x461BCD PUSH1 0xE5 SHL DUP2 MSTORE PUSH1 0x20 PUSH1 0x4 DUP3 ADD MSTORE PUSH1 0x19 PUSH1 0x24 DUP3 ADD MSTORE PUSH32 0x524547495354455245445F494D504C454D454E544154494F4E00000000000000 PUSH1 0x44 DUP3 ADD MSTORE PUSH1 0x64 ADD PUSH2 0x2B3 JUMP JUMPDEST PUSH20 0xFFFFFFFFFFFFFFFFFFFFFFFFFFFFFFFFFFFFFFFF DUP4 DUP2 AND PUSH1 0x0 SWAP1 DUP2 MSTORE PUSH1 0x1 PUSH1 0x20 MSTORE PUSH1 0x40 SWAP1 KECCAK256 SLOAD AND ISZERO PUSH2 0x869 JUMPI PUSH1 0x40 MLOAD PUSH3 0x461BCD PUSH1 0xE5 SHL DUP2 MSTORE PUSH1 0x20 PUSH1 0x4 DUP3 ADD MSTORE PUSH1 0x18 PUSH1 0x24 DUP3 ADD MSTORE PUSH32 0x43414E4E4F545F52454749535445525F494E5354414E43450000000000000000 PUSH1 0x44 DUP3 ADD MSTORE PUSH1 0x64 ADD PUSH2 0x2B3 JUMP JUMPDEST DUP1 SLOAD PUSH32 0xFFFFFFFFFFFFFFFFFFFFFFFFFFFFFFFFFFFFFFFFFFFFFFFFFFFFFFFFFFFF0000 AND DUP3 ISZERO ISZERO SWAP1 DUP2 OR DUP3 SSTORE PUSH1 0x1 DUP3 ADD DUP6 SWAP1 SSTORE PUSH1 0x40 MLOAD SWAP1 DUP2 MSTORE PUSH20 0xFFFFFFFFFFFFFFFFFFFFFFFFFFFFFFFFFFFFFFFF DUP5 AND SWAP1 DUP6 SWAP1 PUSH32 0x9757E66B5A012762865EEEEAA7190B148500CBC2631D0A90DDE0CC7946A92BC0 SWAP1 PUSH1 0x20 ADD PUSH1 0x40 MLOAD DUP1 SWAP2 SUB SWAP1 LOG3 POP POP POP POP JUMP JUMPDEST PUSH2 0x91D CALLER PUSH1 0x0 CALLDATALOAD PUSH32 0xFFFFFFFF00000000000000000000000000000000000000000000000000000000 AND PUSH2 0xA24 JUMP JUMPDEST PUSH2 0x69B DUP3 DUP3 PUSH2 0xBFE JUMP JUMPDEST PUSH20 0xFFFFFFFFFFFFFFFFFFFFFFFFFFFFFFFFFFFFFFFF DUP2 AND PUSH1 0x0 SWAP1 DUP2 MSTORE PUSH1 0x2 PUSH1 0x20 MSTORE PUSH1 0x40 DUP2 KECCAK256 DUP1 SLOAD PUSH2 0x100 SWAP1 DIV PUSH1 0xFF AND ISZERO DUP1 ISZERO PUSH2 0x966 JUMPI POP DUP4 DUP2 PUSH1 0x1 ADD SLOAD EQ JUMPDEST SWAP5 SWAP4 POP POP POP POP JUMP JUMPDEST PUSH32 0xFFFFFFFF00000000000000000000000000000000000000000000000000000000 DUP2 AND PUSH1 0x0 SWAP1 DUP2 MSTORE PUSH32 0x50C7A3D1A23C7FF4A61D37C3F2C4AEB36CF60B43EE893723DB201D3EB941CBAD PUSH1 0x20 MSTORE PUSH1 0x40 DUP2 KECCAK256 SLOAD PUSH1 0xFF AND DUP1 PUSH2 0xA1D JUMPI POP PUSH20 0xFFFFFFFFFFFFFFFFFFFFFFFFFFFFFFFFFFFFFFFF DUP4 AND PUSH1 0x0 SWAP1 DUP2 MSTORE PUSH1 0x20 DUP2 DUP2 MSTORE PUSH1 0x40 DUP1 DUP4 KECCAK256 PUSH32 0xFFFFFFFF00000000000000000000000000000000000000000000000000000000 DUP7 AND DUP5 MSTORE SWAP1 SWAP2 MSTORE SWAP1 KECCAK256 SLOAD PUSH1 0xFF AND JUMPDEST SWAP4 SWAP3 POP POP POP JUMP JUMPDEST PUSH2 0xA2E DUP3 DUP3 PUSH2 0x96E JUMP JUMPDEST PUSH2 0x69B JUMPI PUSH1 0x40 MLOAD PUSH3 0x461BCD PUSH1 0xE5 SHL DUP2 MSTORE PUSH1 0x20 PUSH1 0x4 DUP3 ADD MSTORE PUSH1 0x17 PUSH1 0x24 DUP3 ADD MSTORE PUSH32 0x415554485F53454E4445525F4E4F545F414C4C4F574544000000000000000000 PUSH1 0x44 DUP3 ADD MSTORE PUSH1 0x64 ADD PUSH2 0x2B3 JUMP JUMPDEST PUSH1 0x0 PUSH1 0x40 MLOAD PUSH32 0x3D602D80600A3D3981F3363D3D373D3D3D363D73000000000000000000000000 DUP2 MSTORE DUP3 PUSH1 0x60 SHL PUSH1 0x14 DUP3 ADD MSTORE PUSH32 0x5AF43D82803E903D91602B57FD5BF30000000000000000000000000000000000 PUSH1 0x28 DUP3 ADD MSTORE PUSH1 0x37 DUP2 PUSH1 0x0 CREATE SWAP2 POP POP PUSH20 0xFFFFFFFFFFFFFFFFFFFFFFFFFFFFFFFFFFFFFFFF DUP2 AND PUSH2 0xB3D JUMPI PUSH1 0x40 MLOAD PUSH3 0x461BCD PUSH1 0xE5 SHL DUP2 MSTORE PUSH1 0x20 PUSH1 0x4 DUP3 ADD MSTORE PUSH1 0x16 PUSH1 0x24 DUP3 ADD MSTORE PUSH32 0x455243313136373A20637265617465206661696C656400000000000000000000 PUSH1 0x44 DUP3 ADD MSTORE PUSH1 0x64 ADD PUSH2 0x2B3 JUMP JUMPDEST SWAP2 SWAP1 POP JUMP JUMPDEST PUSH1 0x60 PUSH2 0x966 DUP5 DUP5 PUSH1 0x0 DUP6 PUSH2 0xCA6 JUMP JUMPDEST PUSH20 0xFFFFFFFFFFFFFFFFFFFFFFFFFFFFFFFFFFFFFFFF DUP3 AND PUSH1 0x0 DUP2 DUP2 MSTORE PUSH1 0x20 DUP2 DUP2 MSTORE PUSH1 0x40 DUP1 DUP4 KECCAK256 PUSH32 0xFFFFFFFF00000000000000000000000000000000000000000000000000000000 DUP7 AND DUP1 DUP6 MSTORE SWAP1 DUP4 MSTORE SWAP3 DUP2 SWAP1 KECCAK256 DUP1 SLOAD PUSH32 0xFFFFFFFFFFFFFFFFFFFFFFFFFFFFFFFFFFFFFFFFFFFFFFFFFFFFFFFFFFFFFF00 AND SWAP1 SSTORE MLOAD SWAP2 DUP3 MSTORE PUSH32 0xA2E97B9EEA8D1168700E334304EDD057DFF89C0384CA6F920C73CC3E48C8E523 SWAP2 ADD JUMPDEST PUSH1 0x40 MLOAD DUP1 SWAP2 SUB SWAP1 LOG2 POP POP JUMP JUMPDEST PUSH20 0xFFFFFFFFFFFFFFFFFFFFFFFFFFFFFFFFFFFFFFFF DUP3 AND PUSH1 0x0 DUP2 DUP2 MSTORE PUSH1 0x20 DUP2 DUP2 MSTORE PUSH1 0x40 DUP1 DUP4 KECCAK256 PUSH32 0xFFFFFFFF00000000000000000000000000000000000000000000000000000000 DUP7 AND DUP1 DUP6 MSTORE SWAP1 DUP4 MSTORE SWAP3 DUP2 SWAP1 KECCAK256 DUP1 SLOAD PUSH32 0xFFFFFFFFFFFFFFFFFFFFFFFFFFFFFFFFFFFFFFFFFFFFFFFFFFFFFFFFFFFFFF00 AND PUSH1 0x1 OR SWAP1 SSTORE MLOAD SWAP2 DUP3 MSTORE PUSH32 0x7F06C1C34AD47198873DA9DCDE2E40904035D41B23DA3A9132DF674A75022DF7 SWAP2 ADD PUSH2 0xBF2 JUMP JUMPDEST PUSH1 0x60 DUP3 SELFBALANCE LT ISZERO PUSH2 0xD1E JUMPI PUSH1 0x40 MLOAD PUSH3 0x461BCD PUSH1 0xE5 SHL DUP2 MSTORE PUSH1 0x20 PUSH1 0x4 DUP3 ADD MSTORE PUSH1 0x26 PUSH1 0x24 DUP3 ADD MSTORE PUSH32 0x416464726573733A20696E73756666696369656E742062616C616E636520666F PUSH1 0x44 DUP3 ADD MSTORE PUSH32 0x722063616C6C0000000000000000000000000000000000000000000000000000 PUSH1 0x64 DUP3 ADD MSTORE PUSH1 0x84 ADD PUSH2 0x2B3 JUMP JUMPDEST PUSH20 0xFFFFFFFFFFFFFFFFFFFFFFFFFFFFFFFFFFFFFFFF DUP6 AND EXTCODESIZE PUSH2 0xD82 JUMPI PUSH1 0x40 MLOAD PUSH3 0x461BCD PUSH1 0xE5 SHL DUP2 MSTORE PUSH1 0x20 PUSH1 0x4 DUP3 ADD MSTORE PUSH1 0x1D PUSH1 0x24 DUP3 ADD MSTORE PUSH32 0x416464726573733A2063616C6C20746F206E6F6E2D636F6E7472616374000000 PUSH1 0x44 DUP3 ADD MSTORE PUSH1 0x64 ADD PUSH2 0x2B3 JUMP JUMPDEST PUSH1 0x0 DUP1 DUP7 PUSH20 0xFFFFFFFFFFFFFFFFFFFFFFFFFFFFFFFFFFFFFFFF AND DUP6 DUP8 PUSH1 0x40 MLOAD PUSH2 0xDAB SWAP2 SWAP1 PUSH2 0x106C JUMP JUMPDEST PUSH1 0x0 PUSH1 0x40 MLOAD DUP1 DUP4 SUB DUP2 DUP6 DUP8 GAS CALL SWAP3 POP POP POP RETURNDATASIZE DUP1 PUSH1 0x0 DUP2 EQ PUSH2 0xDE8 JUMPI PUSH1 0x40 MLOAD SWAP2 POP PUSH1 0x1F NOT PUSH1 0x3F RETURNDATASIZE ADD AND DUP3 ADD PUSH1 0x40 MSTORE RETURNDATASIZE DUP3 MSTORE RETURNDATASIZE PUSH1 0x0 PUSH1 0x20 DUP5 ADD RETURNDATACOPY PUSH2 0xDED JUMP JUMPDEST PUSH1 0x60 SWAP2 POP JUMPDEST POP SWAP2 POP SWAP2 POP PUSH2 0xDFD DUP3 DUP3 DUP7 PUSH2 0xE08 JUMP JUMPDEST SWAP8 SWAP7 POP POP POP POP POP POP POP JUMP JUMPDEST PUSH1 0x60 DUP4 ISZERO PUSH2 0xE17 JUMPI POP DUP2 PUSH2 0xA1D JUMP JUMPDEST DUP3 MLOAD ISZERO PUSH2 0xE27 JUMPI DUP3 MLOAD DUP1 DUP5 PUSH1 0x20 ADD REVERT JUMPDEST DUP2 PUSH1 0x40 MLOAD PUSH3 0x461BCD PUSH1 0xE5 SHL DUP2 MSTORE PUSH1 0x4 ADD PUSH2 0x2B3 SWAP2 SWAP1 PUSH2 0x10B7 JUMP JUMPDEST DUP1 CALLDATALOAD PUSH20 0xFFFFFFFFFFFFFFFFFFFFFFFFFFFFFFFFFFFFFFFF DUP2 AND DUP2 EQ PUSH2 0xB3D JUMPI PUSH1 0x0 DUP1 REVERT JUMPDEST PUSH1 0x0 PUSH1 0x20 DUP3 DUP5 SUB SLT ISZERO PUSH2 0xE76 JUMPI DUP1 DUP2 REVERT JUMPDEST PUSH2 0xA1D DUP3 PUSH2 0xE41 JUMP JUMPDEST PUSH1 0x0 DUP1 PUSH1 0x40 DUP4 DUP6 SUB SLT ISZERO PUSH2 0xE91 JUMPI DUP1 DUP2 REVERT JUMPDEST PUSH2 0xE9A DUP4 PUSH2 0xE41 JUMP JUMPDEST SWAP2 POP PUSH1 0x20 DUP4 ADD CALLDATALOAD PUSH32 0xFFFFFFFF00000000000000000000000000000000000000000000000000000000 DUP2 AND DUP2 EQ PUSH2 0xECE JUMPI DUP2 DUP3 REVERT JUMPDEST DUP1 SWAP2 POP POP SWAP3 POP SWAP3 SWAP1 POP JUMP JUMPDEST PUSH1 0x0 DUP1 PUSH1 0x40 DUP4 DUP6 SUB SLT ISZERO PUSH2 0xEEB JUMPI DUP2 DUP3 REVERT JUMPDEST PUSH2 0xEF4 DUP4 PUSH2 0xE41 JUMP JUMPDEST SWAP2 POP PUSH1 0x20 DUP4 ADD CALLDATALOAD PUSH8 0xFFFFFFFFFFFFFFFF DUP1 DUP3 GT ISZERO PUSH2 0xF10 JUMPI DUP3 DUP4 REVERT JUMPDEST DUP2 DUP6 ADD SWAP2 POP DUP6 PUSH1 0x1F DUP4 ADD SLT PUSH2 0xF23 JUMPI DUP3 DUP4 REVERT JUMPDEST DUP2 CALLDATALOAD DUP2 DUP2 GT ISZERO PUSH2 0xF35 JUMPI PUSH2 0xF35 PUSH2 0x10FA JUMP JUMPDEST PUSH1 0x40 MLOAD PUSH1 0x1F DUP3 ADD PUSH32 0xFFFFFFFFFFFFFFFFFFFFFFFFFFFFFFFFFFFFFFFFFFFFFFFFFFFFFFFFFFFFFFE0 SWAP1 DUP2 AND PUSH1 0x3F ADD AND DUP2 ADD SWAP1 DUP4 DUP3 GT DUP2 DUP4 LT OR ISZERO PUSH2 0xF7B JUMPI PUSH2 0xF7B PUSH2 0x10FA JUMP JUMPDEST DUP2 PUSH1 0x40 MSTORE DUP3 DUP2 MSTORE DUP9 PUSH1 0x20 DUP5 DUP8 ADD ADD GT ISZERO PUSH2 0xF93 JUMPI DUP6 DUP7 REVERT JUMPDEST DUP3 PUSH1 0x20 DUP7 ADD PUSH1 0x20 DUP4 ADD CALLDATACOPY DUP6 PUSH1 0x20 DUP5 DUP4 ADD ADD MSTORE DUP1 SWAP6 POP POP POP POP POP POP SWAP3 POP SWAP3 SWAP1 POP JUMP JUMPDEST PUSH1 0x0 DUP1 PUSH1 0x40 DUP4 DUP6 SUB SLT ISZERO PUSH2 0xFC6 JUMPI DUP2 DUP3 REVERT JUMPDEST DUP3 CALLDATALOAD SWAP2 POP PUSH2 0xFD6 PUSH1 0x20 DUP5 ADD PUSH2 0xE41 JUMP JUMPDEST SWAP1 POP SWAP3 POP SWAP3 SWAP1 POP JUMP JUMPDEST PUSH1 0x0 DUP1 PUSH1 0x0 PUSH1 0x60 DUP5 DUP7 SUB SLT ISZERO PUSH2 0xFF3 JUMPI DUP1 DUP2 REVERT JUMPDEST DUP4 CALLDATALOAD SWAP3 POP PUSH2 0x1003 PUSH1 0x20 DUP6 ADD PUSH2 0xE41 JUMP JUMPDEST SWAP2 POP PUSH1 0x40 DUP5 ADD CALLDATALOAD DUP1 ISZERO ISZERO DUP2 EQ PUSH2 0x1017 JUMPI DUP2 DUP3 REVERT JUMPDEST DUP1 SWAP2 POP POP SWAP3 POP SWAP3 POP SWAP3 JUMP JUMPDEST PUSH1 0x0 DUP2 MLOAD DUP1 DUP5 MSTORE PUSH2 0x103A DUP2 PUSH1 0x20 DUP7 ADD PUSH1 0x20 DUP7 ADD PUSH2 0x10CA JUMP JUMPDEST PUSH1 0x1F ADD PUSH32 0xFFFFFFFFFFFFFFFFFFFFFFFFFFFFFFFFFFFFFFFFFFFFFFFFFFFFFFFFFFFFFFE0 AND SWAP3 SWAP1 SWAP3 ADD PUSH1 0x20 ADD SWAP3 SWAP2 POP POP JUMP JUMPDEST PUSH1 0x0 DUP3 MLOAD PUSH2 0x107E DUP2 DUP5 PUSH1 0x20 DUP8 ADD PUSH2 0x10CA JUMP JUMPDEST SWAP2 SWAP1 SWAP2 ADD SWAP3 SWAP2 POP POP JUMP JUMPDEST PUSH1 0x0 PUSH20 0xFFFFFFFFFFFFFFFFFFFFFFFFFFFFFFFFFFFFFFFF DUP5 AND DUP3 MSTORE PUSH1 0x40 PUSH1 0x20 DUP4 ADD MSTORE PUSH2 0x966 PUSH1 0x40 DUP4 ADD DUP5 PUSH2 0x1022 JUMP JUMPDEST PUSH1 0x0 PUSH1 0x20 DUP3 MSTORE PUSH2 0xA1D PUSH1 0x20 DUP4 ADD DUP5 PUSH2 0x1022 JUMP JUMPDEST PUSH1 0x0 JUMPDEST DUP4 DUP2 LT ISZERO PUSH2 0x10E5 JUMPI DUP2 DUP2 ADD MLOAD DUP4 DUP3 ADD MSTORE PUSH1 0x20 ADD PUSH2 0x10CD JUMP JUMPDEST DUP4 DUP2 GT ISZERO PUSH2 0x10F4 JUMPI PUSH1 0x0 DUP5 DUP5 ADD MSTORE JUMPDEST POP POP POP POP JUMP JUMPDEST PUSH32 0x4E487B7100000000000000000000000000000000000000000000000000000000 PUSH1 0x0 MSTORE PUSH1 0x41 PUSH1 0x4 MSTORE PUSH1 0x24 PUSH1 0x0 REVERT INVALID LOG2 PUSH5 0x6970667358 0x22 SLT KECCAK256 0x4B PUSH6 0x34A5C5A8F2E6 0xE8 CODESIZE 0xA9 0xEB 0x25 PUSH8 0x72E8B5B47280A73E 0xDF 0x4C 0x4C 0x4F POP SAR PUSH26 0xBA0D0564736F6C63430008030033000000000000000000000000 "
        },
        "methodIdentifiers": {
          "ANY_ADDRESS()": "3f81a192",
          "authorize(address,bytes4)": "933f0f3c",
          "clone(address,bytes)": "0fbe133c",
          "deprecate(address)": "0753c30c",
          "implementationData(address)": "9235dcf8",
          "implementationOf(address)": "8b4872b8",
          "isActive(bytes32,address)": "ca0f8f3b",
          "isAuthorized(address,bytes4)": "d9972b96",
          "register(bytes32,address,bool)": "678449d4",
          "unauthorize(address,bytes4)": "6646a436"
        }
      }
    }
  }
}