{"contracts/registry/Registry.sol":{"Registry":{"abi":[{"inputs":[{"internalType":"address","name":"admin","type":"address"}],"stateMutability":"nonpayable","type":"constructor"},{"anonymous":false,"inputs":[{"indexed":true,"internalType":"address","name":"who","type":"address"},{"indexed":false,"internalType":"bytes4","name":"what","type":"bytes4"}],"name":"Authorized","type":"event"},{"anonymous":false,"inputs":[{"indexed":true,"internalType":"bytes32","name":"namespace","type":"bytes32"},{"indexed":true,"internalType":"address","name":"implementation","type":"address"}],"name":"Deprecated","type":"event"},{"anonymous":false,"inputs":[{"indexed":true,"internalType":"bytes32","name":"namespace","type":"bytes32"},{"indexed":true,"internalType":"address","name":"implementation","type":"address"},{"indexed":false,"internalType":"bool","name":"stateless","type":"bool"}],"name":"Registered","type":"event"},{"anonymous":false,"inputs":[{"indexed":true,"internalType":"address","name":"who","type":"address"},{"indexed":false,"internalType":"bytes4","name":"what","type":"bytes4"}],"name":"Unauthorized","type":"event"},{"inputs":[],"name":"ANY_ADDRESS","outputs":[{"internalType":"address","name":"","type":"address"}],"stateMutability":"view","type":"function"},{"inputs":[{"internalType":"address","name":"who","type":"address"},{"internalType":"bytes4","name":"what","type":"bytes4"}],"name":"authorize","outputs":[],"stateMutability":"nonpayable","type":"function"},{"inputs":[{"internalType":"address","name":"implementation","type":"address"}],"name":"deprecate","outputs":[],"stateMutability":"nonpayable","type":"function"},{"inputs":[{"internalType":"address","name":"","type":"address"}],"name":"implementationData","outputs":[{"internalType":"bool","name":"stateless","type":"bool"},{"internalType":"bool","name":"deprecated","type":"bool"},{"internalType":"bytes32","name":"namespace","type":"bytes32"}],"stateMutability":"view","type":"function"},{"inputs":[{"internalType":"bytes32","name":"namespace","type":"bytes32"},{"internalType":"address","name":"implementation","type":"address"}],"name":"isActive","outputs":[{"internalType":"bool","name":"","type":"bool"}],"stateMutability":"view","type":"function"},{"inputs":[{"internalType":"address","name":"who","type":"address"},{"internalType":"bytes4","name":"what","type":"bytes4"}],"name":"isAuthorized","outputs":[{"internalType":"bool","name":"","type":"bool"}],"stateMutability":"view","type":"function"},{"inputs":[{"internalType":"bytes32","name":"namespace","type":"bytes32"},{"internalType":"address","name":"implementation","type":"address"},{"internalType":"bool","name":"stateless","type":"bool"}],"name":"register","outputs":[],"stateMutability":"nonpayable","type":"function"},{"inputs":[{"internalType":"address","name":"who","type":"address"},{"internalType":"bytes4","name":"what","type":"bytes4"}],"name":"unauthorize","outputs":[],"stateMutability":"nonpayable","type":"function"}],"evm":{"bytecode":{"linkReferences":{},"object":"608060405234801561001057600080fd5b50604051610b93380380610b9383398101604081905261002f916100e5565b610040816319e1127560e21b610079565b610051816301d4f0c360e21b610079565b610062816324cfc3cf60e21b610079565b61007381633323521b60e11b610079565b50610113565b6001600160a01b0382166000818152602081815260408083206001600160e01b0319861680855290835292819020805460ff19166001179055519182527f7f06c1c34ad47198873da9dcde2e40904035d41b23da3a9132df674a75022df7910160405180910390a25050565b6000602082840312156100f6578081fd5b81516001600160a01b038116811461010c578182fd5b9392505050565b610a71806101226000396000f3fe608060405234801561001057600080fd5b50600436106100885760003560e01c80639235dcf81161005b5780639235dcf81461010d578063933f0f3c1461015e578063ca0f8f3b14610171578063d9972b961461019457610088565b80630753c30c1461008d5780633f81a192146100a25780636646a436146100e7578063678449d4146100fa575b600080fd5b6100a061009b366004610959565b6101a7565b005b6100bd73ffffffffffffffffffffffffffffffffffffffff81565b60405173ffffffffffffffffffffffffffffffffffffffff90911681526020015b60405180910390f35b6100a06100f5366004610973565b6103cf565b6100a06101083660046109f8565b61040b565b61014161011b366004610959565b6001602081905260009182526040909120805491015460ff808316926101009004169083565b6040805193151584529115156020840152908201526060016100de565b6100a061016c366004610973565b610636565b61018461017f3660046109cd565b61066e565b60405190151581526020016100de565b6101846101a2366004610973565b6106b5565b6101d5336000357fffffffff000000000000000000000000000000000000000000000000000000001661076b565b73ffffffffffffffffffffffffffffffffffffffff8116610257576040517f08c379a000000000000000000000000000000000000000000000000000000000815260206004820152601b60248201527f494d504c454d454e544154494f4e5f414444524553535f5a45524f000000000060448201526064015b60405180910390fd5b73ffffffffffffffffffffffffffffffffffffffff81166000908152600160208190526040909120908101546102e9576040517f08c379a000000000000000000000000000000000000000000000000000000000815260206004820152601b60248201527f554e524547495354455245445f494d504c454d454e544154494f4e0000000000604482015260640161024e565b8054610100900460ff161561035a576040517f08c379a000000000000000000000000000000000000000000000000000000000815260206004820152601960248201527f444550524543415445445f494d504c454d454e544154494f4e00000000000000604482015260640161024e565b80547fffffffffffffffffffffffffffffffffffffffffffffffffffffffffffff00ff16610100178155600181015460405173ffffffffffffffffffffffffffffffffffffffff841691907f9dedfb457c94655f88c417e108167137f3f2458254592c596f04441cb4c351fe90600090a35050565b6103fd336000357fffffffff000000000000000000000000000000000000000000000000000000001661076b565b61040782826107db565b5050565b610439336000357fffffffff000000000000000000000000000000000000000000000000000000001661076b565b826104a0576040517f08c379a000000000000000000000000000000000000000000000000000000000815260206004820152601160248201527f494e56414c49445f4e414d455350414345000000000000000000000000000000604482015260640161024e565b73ffffffffffffffffffffffffffffffffffffffff821661051d576040517f08c379a000000000000000000000000000000000000000000000000000000000815260206004820152601660248201527f494e56414c49445f494d504c454d454e544154494f4e00000000000000000000604482015260640161024e565b73ffffffffffffffffffffffffffffffffffffffff8216600090815260016020819052604090912090810154156105b0576040517f08c379a000000000000000000000000000000000000000000000000000000000815260206004820152601960248201527f524547495354455245445f494d504c454d454e544154494f4e00000000000000604482015260640161024e565b80547fffffffffffffffffffffffffffffffffffffffffffffffffffffffffffff00001682151590811782556001820185905560405190815273ffffffffffffffffffffffffffffffffffffffff84169085907f9757e66b5a012762865eeeeaa7190b148500cbc2631d0a90dde0cc7946a92bc09060200160405180910390a350505050565b610664336000357fffffffff000000000000000000000000000000000000000000000000000000001661076b565b6104078282610888565b73ffffffffffffffffffffffffffffffffffffffff811660009081526001602052604081208054610100900460ff161580156106ad5750838160010154145b949350505050565b7fffffffff00000000000000000000000000000000000000000000000000000000811660009081527f50c7a3d1a23c7ff4a61d37c3f2c4aeb36cf60b43ee893723db201d3eb941cbad602052604081205460ff1680610764575073ffffffffffffffffffffffffffffffffffffffff83166000908152602081815260408083207fffffffff000000000000000000000000000000000000000000000000000000008616845290915290205460ff165b9392505050565b61077582826106b5565b610407576040517f08c379a000000000000000000000000000000000000000000000000000000000815260206004820152601760248201527f415554485f53454e4445525f4e4f545f414c4c4f574544000000000000000000604482015260640161024e565b73ffffffffffffffffffffffffffffffffffffffff82166000818152602081815260408083207fffffffff0000000000000000000000000000000000000000000000000000000086168085529083529281902080547fffffffffffffffffffffffffffffffffffffffffffffffffffffffffffffff00169055519182527fa2e97b9eea8d1168700e334304edd057dff89c0384ca6f920c73cc3e48c8e52391015b60405180910390a25050565b73ffffffffffffffffffffffffffffffffffffffff82166000818152602081815260408083207fffffffff0000000000000000000000000000000000000000000000000000000086168085529083529281902080547fffffffffffffffffffffffffffffffffffffffffffffffffffffffffffffff00166001179055519182527f7f06c1c34ad47198873da9dcde2e40904035d41b23da3a9132df674a75022df7910161087c565b803573ffffffffffffffffffffffffffffffffffffffff8116811461095457600080fd5b919050565b60006020828403121561096a578081fd5b61076482610930565b60008060408385031215610985578081fd5b61098e83610930565b915060208301357fffffffff00000000000000000000000000000000000000000000000000000000811681146109c2578182fd5b809150509250929050565b600080604083850312156109df578182fd5b823591506109ef60208401610930565b90509250929050565b600080600060608486031215610a0c578081fd5b83359250610a1c60208501610930565b915060408401358015158114610a30578182fd5b80915050925092509256fea2646970667358221220275553922f8c525e24d360e8370444d09d37907ca78ca24efe9b395f357a765d64736f6c63430008030033","opcodes":"PUSH1 0x80 PUSH1 0x40 MSTORE CALLVALUE DUP1 ISZERO PUSH2 0x10 JUMPI PUSH1 0x0 DUP1 REVERT JUMPDEST POP PUSH1 0x40 MLOAD PUSH2 0xB93 CODESIZE SUB DUP1 PUSH2 0xB93 DUP4 CODECOPY DUP2 ADD PUSH1 0x40 DUP2 SWAP1 MSTORE PUSH2 0x2F SWAP2 PUSH2 0xE5 JUMP JUMPDEST PUSH2 0x40 DUP2 PUSH4 0x19E11275 PUSH1 0xE2 SHL PUSH2 0x79 JUMP JUMPDEST PUSH2 0x51 DUP2 PUSH4 0x1D4F0C3 PUSH1 0xE2 SHL PUSH2 0x79 JUMP JUMPDEST PUSH2 0x62 DUP2 PUSH4 0x24CFC3CF PUSH1 0xE2 SHL PUSH2 0x79 JUMP JUMPDEST PUSH2 0x73 DUP2 PUSH4 0x3323521B PUSH1 0xE1 SHL PUSH2 0x79 JUMP JUMPDEST POP PUSH2 0x113 JUMP JUMPDEST PUSH1 0x1 PUSH1 0x1 PUSH1 0xA0 SHL SUB DUP3 AND PUSH1 0x0 DUP2 DUP2 MSTORE PUSH1 0x20 DUP2 DUP2 MSTORE PUSH1 0x40 DUP1 DUP4 KECCAK256 PUSH1 0x1 PUSH1 0x1 PUSH1 0xE0 SHL SUB NOT DUP7 AND DUP1 DUP6 MSTORE SWAP1 DUP4 MSTORE SWAP3 DUP2 SWAP1 KECCAK256 DUP1 SLOAD PUSH1 0xFF NOT AND PUSH1 0x1 OR SWAP1 SSTORE MLOAD SWAP2 DUP3 MSTORE PUSH32 0x7F06C1C34AD47198873DA9DCDE2E40904035D41B23DA3A9132DF674A75022DF7 SWAP2 ADD PUSH1 0x40 MLOAD DUP1 SWAP2 SUB SWAP1 LOG2 POP POP JUMP JUMPDEST PUSH1 0x0 PUSH1 0x20 DUP3 DUP5 SUB SLT ISZERO PUSH2 0xF6 JUMPI DUP1 DUP2 REVERT JUMPDEST DUP2 MLOAD PUSH1 0x1 PUSH1 0x1 PUSH1 0xA0 SHL SUB DUP2 AND DUP2 EQ PUSH2 0x10C JUMPI DUP2 DUP3 REVERT JUMPDEST SWAP4 SWAP3 POP POP POP JUMP JUMPDEST PUSH2 0xA71 DUP1 PUSH2 0x122 PUSH1 0x0 CODECOPY PUSH1 0x0 RETURN INVALID PUSH1 0x80 PUSH1 0x40 MSTORE CALLVALUE DUP1 ISZERO PUSH2 0x10 JUMPI PUSH1 0x0 DUP1 REVERT JUMPDEST POP PUSH1 0x4 CALLDATASIZE LT PUSH2 0x88 JUMPI PUSH1 0x0 CALLDATALOAD PUSH1 0xE0 SHR DUP1 PUSH4 0x9235DCF8 GT PUSH2 0x5B JUMPI DUP1 PUSH4 0x9235DCF8 EQ PUSH2 0x10D JUMPI DUP1 PUSH4 0x933F0F3C EQ PUSH2 0x15E JUMPI DUP1 PUSH4 0xCA0F8F3B EQ PUSH2 0x171 JUMPI DUP1 PUSH4 0xD9972B96 EQ PUSH2 0x194 JUMPI PUSH2 0x88 JUMP JUMPDEST DUP1 PUSH4 0x753C30C EQ PUSH2 0x8D JUMPI DUP1 PUSH4 0x3F81A192 EQ PUSH2 0xA2 JUMPI DUP1 PUSH4 0x6646A436 EQ PUSH2 0xE7 JUMPI DUP1 PUSH4 0x678449D4 EQ PUSH2 0xFA JUMPI JUMPDEST PUSH1 0x0 DUP1 REVERT JUMPDEST PUSH2 0xA0 PUSH2 0x9B CALLDATASIZE PUSH1 0x4 PUSH2 0x959 JUMP JUMPDEST PUSH2 0x1A7 JUMP JUMPDEST STOP JUMPDEST PUSH2 0xBD PUSH20 0xFFFFFFFFFFFFFFFFFFFFFFFFFFFFFFFFFFFFFFFF DUP2 JUMP JUMPDEST PUSH1 0x40 MLOAD PUSH20 0xFFFFFFFFFFFFFFFFFFFFFFFFFFFFFFFFFFFFFFFF SWAP1 SWAP2 AND DUP2 MSTORE PUSH1 0x20 ADD JUMPDEST PUSH1 0x40 MLOAD DUP1 SWAP2 SUB SWAP1 RETURN JUMPDEST PUSH2 0xA0 PUSH2 0xF5 CALLDATASIZE PUSH1 0x4 PUSH2 0x973 JUMP JUMPDEST PUSH2 0x3CF JUMP JUMPDEST PUSH2 0xA0 PUSH2 0x108 CALLDATASIZE PUSH1 0x4 PUSH2 0x9F8 JUMP JUMPDEST PUSH2 0x40B JUMP JUMPDEST PUSH2 0x141 PUSH2 0x11B CALLDATASIZE PUSH1 0x4 PUSH2 0x959 JUMP JUMPDEST PUSH1 0x1 PUSH1 0x20 DUP2 SWAP1 MSTORE PUSH1 0x0 SWAP2 DUP3 MSTORE PUSH1 0x40 SWAP1 SWAP2 KECCAK256 DUP1 SLOAD SWAP2 ADD SLOAD PUSH1 0xFF DUP1 DUP4 AND SWAP3 PUSH2 0x100 SWAP1 DIV AND SWAP1 DUP4 JUMP JUMPDEST PUSH1 0x40 DUP1 MLOAD SWAP4 ISZERO ISZERO DUP5 MSTORE SWAP2 ISZERO ISZERO PUSH1 0x20 DUP5 ADD MSTORE SWAP1 DUP3 ADD MSTORE PUSH1 0x60 ADD PUSH2 0xDE JUMP JUMPDEST PUSH2 0xA0 PUSH2 0x16C CALLDATASIZE PUSH1 0x4 PUSH2 0x973 JUMP JUMPDEST PUSH2 0x636 JUMP JUMPDEST PUSH2 0x184 PUSH2 0x17F CALLDATASIZE PUSH1 0x4 PUSH2 0x9CD JUMP JUMPDEST PUSH2 0x66E JUMP JUMPDEST PUSH1 0x40 MLOAD SWAP1 ISZERO ISZERO DUP2 MSTORE PUSH1 0x20 ADD PUSH2 0xDE JUMP JUMPDEST PUSH2 0x184 PUSH2 0x1A2 CALLDATASIZE PUSH1 0x4 PUSH2 0x973 JUMP JUMPDEST PUSH2 0x6B5 JUMP JUMPDEST PUSH2 0x1D5 CALLER PUSH1 0x0 CALLDATALOAD PUSH32 0xFFFFFFFF00000000000000000000000000000000000000000000000000000000 AND PUSH2 0x76B JUMP JUMPDEST PUSH20 0xFFFFFFFFFFFFFFFFFFFFFFFFFFFFFFFFFFFFFFFF DUP2 AND PUSH2 0x257 JUMPI PUSH1 0x40 MLOAD PUSH32 0x8C379A000000000000000000000000000000000000000000000000000000000 DUP2 MSTORE PUSH1 0x20 PUSH1 0x4 DUP3 ADD MSTORE PUSH1 0x1B PUSH1 0x24 DUP3 ADD MSTORE PUSH32 0x494D504C454D454E544154494F4E5F414444524553535F5A45524F0000000000 PUSH1 0x44 DUP3 ADD MSTORE PUSH1 0x64 ADD JUMPDEST PUSH1 0x40 MLOAD DUP1 SWAP2 SUB SWAP1 REVERT JUMPDEST PUSH20 0xFFFFFFFFFFFFFFFFFFFFFFFFFFFFFFFFFFFFFFFF DUP2 AND PUSH1 0x0 SWAP1 DUP2 MSTORE PUSH1 0x1 PUSH1 0x20 DUP2 SWAP1 MSTORE PUSH1 0x40 SWAP1 SWAP2 KECCAK256 SWAP1 DUP2 ADD SLOAD PUSH2 0x2E9 JUMPI PUSH1 0x40 MLOAD PUSH32 0x8C379A000000000000000000000000000000000000000000000000000000000 DUP2 MSTORE PUSH1 0x20 PUSH1 0x4 DUP3 ADD MSTORE PUSH1 0x1B PUSH1 0x24 DUP3 ADD MSTORE PUSH32 0x554E524547495354455245445F494D504C454D454E544154494F4E0000000000 PUSH1 0x44 DUP3 ADD MSTORE PUSH1 0x64 ADD PUSH2 0x24E JUMP JUMPDEST DUP1 SLOAD PUSH2 0x100 SWAP1 DIV PUSH1 0xFF AND ISZERO PUSH2 0x35A JUMPI PUSH1 0x40 MLOAD PUSH32 0x8C379A000000000000000000000000000000000000000000000000000000000 DUP2 MSTORE PUSH1 0x20 PUSH1 0x4 DUP3 ADD MSTORE PUSH1 0x19 PUSH1 0x24 DUP3 ADD MSTORE PUSH32 0x444550524543415445445F494D504C454D454E544154494F4E00000000000000 PUSH1 0x44 DUP3 ADD MSTORE PUSH1 0x64 ADD PUSH2 0x24E JUMP JUMPDEST DUP1 SLOAD PUSH32 0xFFFFFFFFFFFFFFFFFFFFFFFFFFFFFFFFFFFFFFFFFFFFFFFFFFFFFFFFFFFF00FF AND PUSH2 0x100 OR DUP2 SSTORE PUSH1 0x1 DUP2 ADD SLOAD PUSH1 0x40 MLOAD PUSH20 0xFFFFFFFFFFFFFFFFFFFFFFFFFFFFFFFFFFFFFFFF DUP5 AND SWAP2 SWAP1 PUSH32 0x9DEDFB457C94655F88C417E108167137F3F2458254592C596F04441CB4C351FE SWAP1 PUSH1 0x0 SWAP1 LOG3 POP POP JUMP JUMPDEST PUSH2 0x3FD CALLER PUSH1 0x0 CALLDATALOAD PUSH32 0xFFFFFFFF00000000000000000000000000000000000000000000000000000000 AND PUSH2 0x76B JUMP JUMPDEST PUSH2 0x407 DUP3 DUP3 PUSH2 0x7DB JUMP JUMPDEST POP POP JUMP JUMPDEST PUSH2 0x439 CALLER PUSH1 0x0 CALLDATALOAD PUSH32 0xFFFFFFFF00000000000000000000000000000000000000000000000000000000 AND PUSH2 0x76B JUMP JUMPDEST DUP3 PUSH2 0x4A0 JUMPI PUSH1 0x40 MLOAD PUSH32 0x8C379A000000000000000000000000000000000000000000000000000000000 DUP2 MSTORE PUSH1 0x20 PUSH1 0x4 DUP3 ADD MSTORE PUSH1 0x11 PUSH1 0x24 DUP3 ADD MSTORE PUSH32 0x494E56414C49445F4E414D455350414345000000000000000000000000000000 PUSH1 0x44 DUP3 ADD MSTORE PUSH1 0x64 ADD PUSH2 0x24E JUMP JUMPDEST PUSH20 0xFFFFFFFFFFFFFFFFFFFFFFFFFFFFFFFFFFFFFFFF DUP3 AND PUSH2 0x51D JUMPI PUSH1 0x40 MLOAD PUSH32 0x8C379A000000000000000000000000000000000000000000000000000000000 DUP2 MSTORE PUSH1 0x20 PUSH1 0x4 DUP3 ADD MSTORE PUSH1 0x16 PUSH1 0x24 DUP3 ADD MSTORE PUSH32 0x494E56414C49445F494D504C454D454E544154494F4E00000000000000000000 PUSH1 0x44 DUP3 ADD MSTORE PUSH1 0x64 ADD PUSH2 0x24E JUMP JUMPDEST PUSH20 0xFFFFFFFFFFFFFFFFFFFFFFFFFFFFFFFFFFFFFFFF DUP3 AND PUSH1 0x0 SWAP1 DUP2 MSTORE PUSH1 0x1 PUSH1 0x20 DUP2 SWAP1 MSTORE PUSH1 0x40 SWAP1 SWAP2 KECCAK256 SWAP1 DUP2 ADD SLOAD ISZERO PUSH2 0x5B0 JUMPI PUSH1 0x40 MLOAD PUSH32 0x8C379A000000000000000000000000000000000000000000000000000000000 DUP2 MSTORE PUSH1 0x20 PUSH1 0x4 DUP3 ADD MSTORE PUSH1 0x19 PUSH1 0x24 DUP3 ADD MSTORE PUSH32 0x524547495354455245445F494D504C454D454E544154494F4E00000000000000 PUSH1 0x44 DUP3 ADD MSTORE PUSH1 0x64 ADD PUSH2 0x24E JUMP JUMPDEST DUP1 SLOAD PUSH32 0xFFFFFFFFFFFFFFFFFFFFFFFFFFFFFFFFFFFFFFFFFFFFFFFFFFFFFFFFFFFF0000 AND DUP3 ISZERO ISZERO SWAP1 DUP2 OR DUP3 SSTORE PUSH1 0x1 DUP3 ADD DUP6 SWAP1 SSTORE PUSH1 0x40 MLOAD SWAP1 DUP2 MSTORE PUSH20 0xFFFFFFFFFFFFFFFFFFFFFFFFFFFFFFFFFFFFFFFF DUP5 AND SWAP1 DUP6 SWAP1 PUSH32 0x9757E66B5A012762865EEEEAA7190B148500CBC2631D0A90DDE0CC7946A92BC0 SWAP1 PUSH1 0x20 ADD PUSH1 0x40 MLOAD DUP1 SWAP2 SUB SWAP1 LOG3 POP POP POP POP JUMP JUMPDEST PUSH2 0x664 CALLER PUSH1 0x0 CALLDATALOAD PUSH32 0xFFFFFFFF00000000000000000000000000000000000000000000000000000000 AND PUSH2 0x76B JUMP JUMPDEST PUSH2 0x407 DUP3 DUP3 PUSH2 0x888 JUMP JUMPDEST PUSH20 0xFFFFFFFFFFFFFFFFFFFFFFFFFFFFFFFFFFFFFFFF DUP2 AND PUSH1 0x0 SWAP1 DUP2 MSTORE PUSH1 0x1 PUSH1 0x20 MSTORE PUSH1 0x40 DUP2 KECCAK256 DUP1 SLOAD PUSH2 0x100 SWAP1 DIV PUSH1 0xFF AND ISZERO DUP1 ISZERO PUSH2 0x6AD JUMPI POP DUP4 DUP2 PUSH1 0x1 ADD SLOAD EQ JUMPDEST SWAP5 SWAP4 POP POP POP POP JUMP JUMPDEST PUSH32 0xFFFFFFFF00000000000000000000000000000000000000000000000000000000 DUP2 AND PUSH1 0x0 SWAP1 DUP2 MSTORE PUSH32 0x50C7A3D1A23C7FF4A61D37C3F2C4AEB36CF60B43EE893723DB201D3EB941CBAD PUSH1 0x20 MSTORE PUSH1 0x40 DUP2 KECCAK256 SLOAD PUSH1 0xFF AND DUP1 PUSH2 0x764 JUMPI POP PUSH20 0xFFFFFFFFFFFFFFFFFFFFFFFFFFFFFFFFFFFFFFFF DUP4 AND PUSH1 0x0 SWAP1 DUP2 MSTORE PUSH1 0x20 DUP2 DUP2 MSTORE PUSH1 0x40 DUP1 DUP4 KECCAK256 PUSH32 0xFFFFFFFF00000000000000000000000000000000000000000000000000000000 DUP7 AND DUP5 MSTORE SWAP1 SWAP2 MSTORE SWAP1 KECCAK256 SLOAD PUSH1 0xFF AND JUMPDEST SWAP4 SWAP3 POP POP POP JUMP JUMPDEST PUSH2 0x775 DUP3 DUP3 PUSH2 0x6B5 JUMP JUMPDEST PUSH2 0x407 JUMPI PUSH1 0x40 MLOAD PUSH32 0x8C379A000000000000000000000000000000000000000000000000000000000 DUP2 MSTORE PUSH1 0x20 PUSH1 0x4 DUP3 ADD MSTORE PUSH1 0x17 PUSH1 0x24 DUP3 ADD MSTORE PUSH32 0x415554485F53454E4445525F4E4F545F414C4C4F574544000000000000000000 PUSH1 0x44 DUP3 ADD MSTORE PUSH1 0x64 ADD PUSH2 0x24E JUMP JUMPDEST PUSH20 0xFFFFFFFFFFFFFFFFFFFFFFFFFFFFFFFFFFFFFFFF DUP3 AND PUSH1 0x0 DUP2 DUP2 MSTORE PUSH1 0x20 DUP2 DUP2 MSTORE PUSH1 0x40 DUP1 DUP4 KECCAK256 PUSH32 0xFFFFFFFF00000000000000000000000000000000000000000000000000000000 DUP7 AND DUP1 DUP6 MSTORE SWAP1 DUP4 MSTORE SWAP3 DUP2 SWAP1 KECCAK256 DUP1 SLOAD PUSH32 0xFFFFFFFFFFFFFFFFFFFFFFFFFFFFFFFFFFFFFFFFFFFFFFFFFFFFFFFFFFFFFF00 AND SWAP1 SSTORE MLOAD SWAP2 DUP3 MSTORE PUSH32 0xA2E97B9EEA8D1168700E334304EDD057DFF89C0384CA6F920C73CC3E48C8E523 SWAP2 ADD JUMPDEST PUSH1 0x40 MLOAD DUP1 SWAP2 SUB SWAP1 LOG2 POP POP JUMP JUMPDEST PUSH20 0xFFFFFFFFFFFFFFFFFFFFFFFFFFFFFFFFFFFFFFFF DUP3 AND PUSH1 0x0 DUP2 DUP2 MSTORE PUSH1 0x20 DUP2 DUP2 MSTORE PUSH1 0x40 DUP1 DUP4 KECCAK256 PUSH32 0xFFFFFFFF00000000000000000000000000000000000000000000000000000000 DUP7 AND DUP1 DUP6 MSTORE SWAP1 DUP4 MSTORE SWAP3 DUP2 SWAP1 KECCAK256 DUP1 SLOAD PUSH32 0xFFFFFFFFFFFFFFFFFFFFFFFFFFFFFFFFFFFFFFFFFFFFFFFFFFFFFFFFFFFFFF00 AND PUSH1 0x1 OR SWAP1 SSTORE MLOAD SWAP2 DUP3 MSTORE PUSH32 0x7F06C1C34AD47198873DA9DCDE2E40904035D41B23DA3A9132DF674A75022DF7 SWAP2 ADD PUSH2 0x87C JUMP JUMPDEST DUP1 CALLDATALOAD PUSH20 0xFFFFFFFFFFFFFFFFFFFFFFFFFFFFFFFFFFFFFFFF DUP2 AND DUP2 EQ PUSH2 0x954 JUMPI PUSH1 0x0 DUP1 REVERT JUMPDEST SWAP2 SWAP1 POP JUMP JUMPDEST PUSH1 0x0 PUSH1 0x20 DUP3 DUP5 SUB SLT ISZERO PUSH2 0x96A JUMPI DUP1 DUP2 REVERT JUMPDEST PUSH2 0x764 DUP3 PUSH2 0x930 JUMP JUMPDEST PUSH1 0x0 DUP1 PUSH1 0x40 DUP4 DUP6 SUB SLT ISZERO PUSH2 0x985 JUMPI DUP1 DUP2 REVERT JUMPDEST PUSH2 0x98E DUP4 PUSH2 0x930 JUMP JUMPDEST SWAP2 POP PUSH1 0x20 DUP4 ADD CALLDATALOAD PUSH32 0xFFFFFFFF00000000000000000000000000000000000000000000000000000000 DUP2 AND DUP2 EQ PUSH2 0x9C2 JUMPI DUP2 DUP3 REVERT JUMPDEST DUP1 SWAP2 POP POP SWAP3 POP SWAP3 SWAP1 POP JUMP JUMPDEST PUSH1 0x0 DUP1 PUSH1 0x40 DUP4 DUP6 SUB SLT ISZERO PUSH2 0x9DF JUMPI DUP2 DUP3 REVERT JUMPDEST DUP3 CALLDATALOAD SWAP2 POP PUSH2 0x9EF PUSH1 0x20 DUP5 ADD PUSH2 0x930 JUMP JUMPDEST SWAP1 POP SWAP3 POP SWAP3 SWAP1 POP JUMP JUMPDEST PUSH1 0x0 DUP1 PUSH1 0x0 PUSH1 0x60 DUP5 DUP7 SUB SLT ISZERO PUSH2 0xA0C JUMPI DUP1 DUP2 REVERT JUMPDEST DUP4 CALLDATALOAD SWAP3 POP PUSH2 0xA1C PUSH1 0x20 DUP6 ADD PUSH2 0x930 JUMP JUMPDEST SWAP2 POP PUSH1 0x40 DUP5 ADD CALLDATALOAD DUP1 ISZERO ISZERO DUP2 EQ PUSH2 0xA30 JUMPI DUP2 DUP3 REVERT JUMPDEST DUP1 SWAP2 POP POP SWAP3 POP SWAP3 POP SWAP3 JUMP INVALID LOG2 PUSH5 0x6970667358 0x22 SLT KECCAK256 0x27 SSTORE MSTORE8 SWAP3 0x2F DUP13 MSTORE 0x5E 0x24 0xD3 PUSH1 0xE8 CALLDATACOPY DIV DIFFICULTY 0xD0 SWAP14 CALLDATACOPY SWAP1 PUSH29 0xA78CA24EFE9B395F357A765D64736F6C63430008030033000000000000 "},"methodIdentifiers":{"ANY_ADDRESS()":"3f81a192","authorize(address,bytes4)":"933f0f3c","deprecate(address)":"0753c30c","implementationData(address)":"9235dcf8","isActive(bytes32,address)":"ca0f8f3b","isAuthorized(address,bytes4)":"d9972b96","register(bytes32,address,bool)":"678449d4","unauthorize(address,bytes4)":"6646a436"}}}}}