{"contracts/test/BaseImplementationMock.sol":{"BaseImplementationMock":{"abi":[{"inputs":[{"internalType":"address","name":"registry","type":"address"}],"stateMutability":"nonpayable","type":"constructor"},{"inputs":[],"name":"NAMESPACE","outputs":[{"internalType":"bytes32","name":"","type":"bytes32"}],"stateMutability":"view","type":"function"},{"inputs":[],"name":"registry","outputs":[{"internalType":"address","name":"","type":"address"}],"stateMutability":"view","type":"function"},{"inputs":[{"internalType":"address","name":"dependency","type":"address"}],"name":"validateStatefulDependency","outputs":[],"stateMutability":"view","type":"function"},{"inputs":[{"internalType":"address","name":"dependency","type":"address"}],"name":"validateStatelessDependency","outputs":[],"stateMutability":"view","type":"function"}],"evm":{"bytecode":{"linkReferences":{},"object":"60a060405234801561001057600080fd5b506040516104f33803806104f383398101604081905261002f91610044565b60601b6001600160601b031916608052610072565b600060208284031215610055578081fd5b81516001600160a01b038116811461006b578182fd5b9392505050565b60805160601c61045d6100966000396000818160a50152610246015261045d6000f3fe608060405234801561001057600080fd5b506004361061004c5760003560e01c806344ba1fca146100515780635d1b5f121461008b5780637b103999146100a0578063b1d51210146100ec575b600080fd5b6100787f7d86b200cd6cf95bd41bf9d1083923efc2908df0a6016584cdbfa288a8c00c4881565b6040519081526020015b60405180910390f35b61009e6100993660046103b1565b6100ff565b005b6100c77f000000000000000000000000000000000000000000000000000000000000000081565b60405173ffffffffffffffffffffffffffffffffffffffff9091168152602001610082565b61009e6100fa3660046103b1565b61010b565b61010881610114565b50565b61010881610188565b61011d816101f8565b610108576040517f08c379a000000000000000000000000000000000000000000000000000000000815260206004820152601860248201527f444550454e44454e43595f4e4f545f53544154454c455353000000000000000060448201526064015b60405180910390fd5b610191816101f8565b15610108576040517f08c379a000000000000000000000000000000000000000000000000000000000815260206004820152601760248201527f444550454e44454e43595f4e4f545f535441544546554c000000000000000000604482015260640161017f565b6040517f9235dcf800000000000000000000000000000000000000000000000000000000815273ffffffffffffffffffffffffffffffffffffffff82811660048301526000918291829182917f00000000000000000000000000000000000000000000000000000000000000001690639235dcf89060240160606040518083038186803b15801561028857600080fd5b505afa15801561029c573d6000803e3d6000fd5b505050506040513d601f19601f820116820180604052508101906102c091906103ec565b919450925090508061032e576040517f08c379a000000000000000000000000000000000000000000000000000000000815260206004820152601960248201527f444550454e44454e43595f4e4f545f5245474953544552454400000000000000604482015260640161017f565b8115610396576040517f08c379a000000000000000000000000000000000000000000000000000000000815260206004820152601560248201527f444550454e44454e43595f444550524543415445440000000000000000000000604482015260640161017f565b50909150505b919050565b8051801515811461039c57600080fd5b6000602082840312156103c2578081fd5b813573ffffffffffffffffffffffffffffffffffffffff811681146103e5578182fd5b9392505050565b600080600060608486031215610400578182fd5b610409846103a1565b9250610417602085016103a1565b915060408401519050925092509256fea2646970667358221220bd1617c7b06b6f108e2b30b43e142bca26dc6e4c7f04d38015587d959916f25464736f6c63430008030033","opcodes":"PUSH1 0xA0 PUSH1 0x40 MSTORE CALLVALUE DUP1 ISZERO PUSH2 0x10 JUMPI PUSH1 0x0 DUP1 REVERT JUMPDEST POP PUSH1 0x40 MLOAD PUSH2 0x4F3 CODESIZE SUB DUP1 PUSH2 0x4F3 DUP4 CODECOPY DUP2 ADD PUSH1 0x40 DUP2 SWAP1 MSTORE PUSH2 0x2F SWAP2 PUSH2 0x44 JUMP JUMPDEST PUSH1 0x60 SHL PUSH1 0x1 PUSH1 0x1 PUSH1 0x60 SHL SUB NOT AND PUSH1 0x80 MSTORE PUSH2 0x72 JUMP JUMPDEST PUSH1 0x0 PUSH1 0x20 DUP3 DUP5 SUB SLT ISZERO PUSH2 0x55 JUMPI DUP1 DUP2 REVERT JUMPDEST DUP2 MLOAD PUSH1 0x1 PUSH1 0x1 PUSH1 0xA0 SHL SUB DUP2 AND DUP2 EQ PUSH2 0x6B JUMPI DUP2 DUP3 REVERT JUMPDEST SWAP4 SWAP3 POP POP POP JUMP JUMPDEST PUSH1 0x80 MLOAD PUSH1 0x60 SHR PUSH2 0x45D PUSH2 0x96 PUSH1 0x0 CODECOPY PUSH1 0x0 DUP2 DUP2 PUSH1 0xA5 ADD MSTORE PUSH2 0x246 ADD MSTORE PUSH2 0x45D PUSH1 0x0 RETURN INVALID PUSH1 0x80 PUSH1 0x40 MSTORE CALLVALUE DUP1 ISZERO PUSH2 0x10 JUMPI PUSH1 0x0 DUP1 REVERT JUMPDEST POP PUSH1 0x4 CALLDATASIZE LT PUSH2 0x4C JUMPI PUSH1 0x0 CALLDATALOAD PUSH1 0xE0 SHR DUP1 PUSH4 0x44BA1FCA EQ PUSH2 0x51 JUMPI DUP1 PUSH4 0x5D1B5F12 EQ PUSH2 0x8B JUMPI DUP1 PUSH4 0x7B103999 EQ PUSH2 0xA0 JUMPI DUP1 PUSH4 0xB1D51210 EQ PUSH2 0xEC JUMPI JUMPDEST PUSH1 0x0 DUP1 REVERT JUMPDEST PUSH2 0x78 PUSH32 0x7D86B200CD6CF95BD41BF9D1083923EFC2908DF0A6016584CDBFA288A8C00C48 DUP2 JUMP JUMPDEST PUSH1 0x40 MLOAD SWAP1 DUP2 MSTORE PUSH1 0x20 ADD JUMPDEST PUSH1 0x40 MLOAD DUP1 SWAP2 SUB SWAP1 RETURN JUMPDEST PUSH2 0x9E PUSH2 0x99 CALLDATASIZE PUSH1 0x4 PUSH2 0x3B1 JUMP JUMPDEST PUSH2 0xFF JUMP JUMPDEST STOP JUMPDEST PUSH2 0xC7 PUSH32 0x0 DUP2 JUMP JUMPDEST PUSH1 0x40 MLOAD PUSH20 0xFFFFFFFFFFFFFFFFFFFFFFFFFFFFFFFFFFFFFFFF SWAP1 SWAP2 AND DUP2 MSTORE PUSH1 0x20 ADD PUSH2 0x82 JUMP JUMPDEST PUSH2 0x9E PUSH2 0xFA CALLDATASIZE PUSH1 0x4 PUSH2 0x3B1 JUMP JUMPDEST PUSH2 0x10B JUMP JUMPDEST PUSH2 0x108 DUP2 PUSH2 0x114 JUMP JUMPDEST POP JUMP JUMPDEST PUSH2 0x108 DUP2 PUSH2 0x188 JUMP JUMPDEST PUSH2 0x11D DUP2 PUSH2 0x1F8 JUMP JUMPDEST PUSH2 0x108 JUMPI PUSH1 0x40 MLOAD PUSH32 0x8C379A000000000000000000000000000000000000000000000000000000000 DUP2 MSTORE PUSH1 0x20 PUSH1 0x4 DUP3 ADD MSTORE PUSH1 0x18 PUSH1 0x24 DUP3 ADD MSTORE PUSH32 0x444550454E44454E43595F4E4F545F53544154454C4553530000000000000000 PUSH1 0x44 DUP3 ADD MSTORE PUSH1 0x64 ADD JUMPDEST PUSH1 0x40 MLOAD DUP1 SWAP2 SUB SWAP1 REVERT JUMPDEST PUSH2 0x191 DUP2 PUSH2 0x1F8 JUMP JUMPDEST ISZERO PUSH2 0x108 JUMPI PUSH1 0x40 MLOAD PUSH32 0x8C379A000000000000000000000000000000000000000000000000000000000 DUP2 MSTORE PUSH1 0x20 PUSH1 0x4 DUP3 ADD MSTORE PUSH1 0x17 PUSH1 0x24 DUP3 ADD MSTORE PUSH32 0x444550454E44454E43595F4E4F545F535441544546554C000000000000000000 PUSH1 0x44 DUP3 ADD MSTORE PUSH1 0x64 ADD PUSH2 0x17F JUMP JUMPDEST PUSH1 0x40 MLOAD PUSH32 0x9235DCF800000000000000000000000000000000000000000000000000000000 DUP2 MSTORE PUSH20 0xFFFFFFFFFFFFFFFFFFFFFFFFFFFFFFFFFFFFFFFF DUP3 DUP2 AND PUSH1 0x4 DUP4 ADD MSTORE PUSH1 0x0 SWAP2 DUP3 SWAP2 DUP3 SWAP2 DUP3 SWAP2 PUSH32 0x0 AND SWAP1 PUSH4 0x9235DCF8 SWAP1 PUSH1 0x24 ADD PUSH1 0x60 PUSH1 0x40 MLOAD DUP1 DUP4 SUB DUP2 DUP7 DUP1 EXTCODESIZE ISZERO DUP1 ISZERO PUSH2 0x288 JUMPI PUSH1 0x0 DUP1 REVERT JUMPDEST POP GAS STATICCALL ISZERO DUP1 ISZERO PUSH2 0x29C JUMPI RETURNDATASIZE PUSH1 0x0 DUP1 RETURNDATACOPY RETURNDATASIZE PUSH1 0x0 REVERT JUMPDEST POP POP POP POP PUSH1 0x40 MLOAD RETURNDATASIZE PUSH1 0x1F NOT PUSH1 0x1F DUP3 ADD AND DUP3 ADD DUP1 PUSH1 0x40 MSTORE POP DUP2 ADD SWAP1 PUSH2 0x2C0 SWAP2 SWAP1 PUSH2 0x3EC JUMP JUMPDEST SWAP2 SWAP5 POP SWAP3 POP SWAP1 POP DUP1 PUSH2 0x32E JUMPI PUSH1 0x40 MLOAD PUSH32 0x8C379A000000000000000000000000000000000000000000000000000000000 DUP2 MSTORE PUSH1 0x20 PUSH1 0x4 DUP3 ADD MSTORE PUSH1 0x19 PUSH1 0x24 DUP3 ADD MSTORE PUSH32 0x444550454E44454E43595F4E4F545F5245474953544552454400000000000000 PUSH1 0x44 DUP3 ADD MSTORE PUSH1 0x64 ADD PUSH2 0x17F JUMP JUMPDEST DUP2 ISZERO PUSH2 0x396 JUMPI PUSH1 0x40 MLOAD PUSH32 0x8C379A000000000000000000000000000000000000000000000000000000000 DUP2 MSTORE PUSH1 0x20 PUSH1 0x4 DUP3 ADD MSTORE PUSH1 0x15 PUSH1 0x24 DUP3 ADD MSTORE PUSH32 0x444550454E44454E43595F444550524543415445440000000000000000000000 PUSH1 0x44 DUP3 ADD MSTORE PUSH1 0x64 ADD PUSH2 0x17F JUMP JUMPDEST POP SWAP1 SWAP2 POP POP JUMPDEST SWAP2 SWAP1 POP JUMP JUMPDEST DUP1 MLOAD DUP1 ISZERO ISZERO DUP2 EQ PUSH2 0x39C JUMPI PUSH1 0x0 DUP1 REVERT JUMPDEST PUSH1 0x0 PUSH1 0x20 DUP3 DUP5 SUB SLT ISZERO PUSH2 0x3C2 JUMPI DUP1 DUP2 REVERT JUMPDEST DUP2 CALLDATALOAD PUSH20 0xFFFFFFFFFFFFFFFFFFFFFFFFFFFFFFFFFFFFFFFF DUP2 AND DUP2 EQ PUSH2 0x3E5 JUMPI DUP2 DUP3 REVERT JUMPDEST SWAP4 SWAP3 POP POP POP JUMP JUMPDEST PUSH1 0x0 DUP1 PUSH1 0x0 PUSH1 0x60 DUP5 DUP7 SUB SLT ISZERO PUSH2 0x400 JUMPI DUP2 DUP3 REVERT JUMPDEST PUSH2 0x409 DUP5 PUSH2 0x3A1 JUMP JUMPDEST SWAP3 POP PUSH2 0x417 PUSH1 0x20 DUP6 ADD PUSH2 0x3A1 JUMP JUMPDEST SWAP2 POP PUSH1 0x40 DUP5 ADD MLOAD SWAP1 POP SWAP3 POP SWAP3 POP SWAP3 JUMP INVALID LOG2 PUSH5 0x6970667358 0x22 SLT KECCAK256 0xBD AND OR 0xC7 0xB0 PUSH12 0x6F108E2B30B43E142BCA26DC PUSH15 0x4C7F04D38015587D959916F2546473 PUSH16 0x6C634300080300330000000000000000 "},"methodIdentifiers":{"NAMESPACE()":"44ba1fca","registry()":"7b103999","validateStatefulDependency(address)":"b1d51210","validateStatelessDependency(address)":"5d1b5f12"}}}}}