{"contracts/BridgeConnector.sol":{"BridgeConnector":{"abi":[{"inputs":[{"internalType":"address","name":"wrappedNativeToken","type":"address"},{"internalType":"address","name":"axelarGateway","type":"address"},{"internalType":"address","name":"connext","type":"address"},{"internalType":"address","name":"wormhole","type":"address"},{"internalType":"address","name":"registry","type":"address"}],"stateMutability":"nonpayable","type":"constructor"},{"inputs":[],"name":"NAMESPACE","outputs":[{"internalType":"bytes32","name":"","type":"bytes32"}],"stateMutability":"view","type":"function"},{"inputs":[{"internalType":"uint8","name":"source","type":"uint8"},{"internalType":"uint256","name":"chainId","type":"uint256"},{"internalType":"address","name":"token","type":"address"},{"internalType":"uint256","name":"amountIn","type":"uint256"},{"internalType":"uint256","name":"minAmountOut","type":"uint256"},{"internalType":"address","name":"recipient","type":"address"},{"internalType":"bytes","name":"data","type":"bytes"}],"name":"bridge","outputs":[],"stateMutability":"nonpayable","type":"function"},{"inputs":[],"name":"registry","outputs":[{"internalType":"address","name":"","type":"address"}],"stateMutability":"view","type":"function"},{"stateMutability":"payable","type":"receive"}],"evm":{"bytecode":{"linkReferences":{},"object":"6101206040523480156200001257600080fd5b50604051620021633803806200216383398101604081905262000035916200008a565b6001600160601b0319606091821b811660805294811b851660a05292831b841660c05290821b831660e052901b1661010052620000f9565b80516001600160a01b03811681146200008557600080fd5b919050565b600080600080600060a08688031215620000a2578081fd5b620000ad866200006d565b9450620000bd602087016200006d565b9350620000cd604087016200006d565b9250620000dd606087016200006d565b9150620000ed608087016200006d565b90509295509295909350565b60805160601c60a05160601c60c05160601c60e05160601c6101005160601c611ffb62000168600039600081816108810152818161095c01526109e60152600081816106bb01526106f70152600081816104e3015261050a015260006112b801526000609d0152611ffb6000f3fe6080604052600436106100385760003560e01c806344ba1fca146100445780637b1039991461008b578063f9cf051f146100e45761003f565b3661003f57005b600080fd5b34801561005057600080fd5b506100787fdca1563b323fd68c991db2e5827e72db329017714e37482092e6d078e07ad4e781565b6040519081526020015b60405180910390f35b34801561009757600080fd5b506100bf7f000000000000000000000000000000000000000000000000000000000000000081565b60405173ffffffffffffffffffffffffffffffffffffffff9091168152602001610082565b3480156100f057600080fd5b506101046100ff366004611beb565b610106565b005b4686141561015b5760405162461bcd60e51b815260206004820152601e60248201527f4252494447455f434f4e4e4543544f525f53414d455f434841494e5f4f50000060448201526064015b60405180910390fd5b60008760ff16600381111561018057634e487b7160e01b600052602160045260246000fd5b600381111561019f57634e487b7160e01b600052602160045260246000fd5b14156101b8576101b3868686868686610311565b610308565b60018760ff1660038111156101dd57634e487b7160e01b600052602160045260246000fd5b60038111156101fc57634e487b7160e01b600052602160045260246000fd5b1415610210576101b38686868686866103dd565b60028760ff16600381111561023557634e487b7160e01b600052602160045260246000fd5b600381111561025457634e487b7160e01b600052602160045260246000fd5b1415610268576101b38686868686866105ab565b60038760ff16600381111561028d57634e487b7160e01b600052602160045260246000fd5b60038111156102ac57634e487b7160e01b600052602160045260246000fd5b14156102c0576101b38686868686866107d2565b60405162461bcd60e51b815260206004820152601f60248201527f4252494447455f434f4e4e4543544f525f494e56414c49445f534f55524345006044820152606401610152565b50505050505050565b600061031c87610a6d565b159050600061032a46610a6d565b90508080156103365750815b1561034e57610349888888888888610a86565b6103d3565b801580156103595750815b1561036c57610349888888888888610c14565b80158015610378575081155b1561038b57610349888888888888610dd8565b60405162461bcd60e51b815260206004820152601b60248201527f484f505f4252494447455f4f505f4e4f545f535550504f5254454400000000006044820152606401610152565b5050505050505050565b80511561042c5760405162461bcd60e51b815260206004820152601a60248201527f4158454c41525f494e56414c49445f444154415f4c454e4754480000000000006044820152606401610152565b600061043787610f14565b905060008673ffffffffffffffffffffffffffffffffffffffff166395d89b416040518163ffffffff1660e01b815260040160006040518083038186803b15801561048157600080fd5b505afa158015610495573d6000803e3d6000fd5b505050506040513d6000823e601f3d9081017fffffffffffffffffffffffffffffffffffffffffffffffffffffffffffffffe01682016040526104db9190810190611b4b565b9050610508877f0000000000000000000000000000000000000000000000000000000000000000886110f2565b7f000000000000000000000000000000000000000000000000000000000000000073ffffffffffffffffffffffffffffffffffffffff166326ef699d8361054e8761110e565b848a6040518563ffffffff1660e01b815260040161056f9493929190611d33565b600060405180830381600087803b15801561058957600080fd5b505af115801561059d573d6000803e3d6000fd5b505050505050505050505050565b60208151146105fc5760405162461bcd60e51b815260206004820152601b60248201527f434f4e4e4558545f494e56414c49445f444154415f4c454e47544800000000006044820152606401610152565b6000818060200190518101906106129190611b33565b9050848111156106645760405162461bcd60e51b815260206004820181905260248201527f434f4e4e4558545f52454c415945525f4645455f47545f414d4f554e545f494e6044820152606401610152565b600061066f88611131565b905060008686116106a2578661068787612710611ebb565b6106919190611e9b565b61069d90612710611ef8565b6106a5565b60005b905060006106b38489611ef8565b90506106e0897f00000000000000000000000000000000000000000000000000000000000000008a6110f2565b73ffffffffffffffffffffffffffffffffffffffff7f0000000000000000000000000000000000000000000000000000000000000000166393f18ac584888c30868860006040519080825280601f01601f19166020018201604052801561074e576020820181803683370190505b508c6040518963ffffffff1660e01b8152600401610773989796959493929190611d7e565b602060405180830381600087803b15801561078d57600080fd5b505af11580156107a1573d6000803e3d6000fd5b505050506040513d601f19601f820116820180604052508101906107c59190611b33565b5050505050505050505050565b8051156108215760405162461bcd60e51b815260206004820152601c60248201527f574f524d484f4c455f494e56414c49445f444154415f4c454e475448000000006044820152606401610152565b600061082c876111f1565b6040517f16fb440a00000000000000000000000000000000000000000000000000000000815261ffff8216600482015273ffffffffffffffffffffffffffffffffffffffff88811660248301529192506000917f000000000000000000000000000000000000000000000000000000000000000016906316fb440a9060440160206040518083038186803b1580156108c357600080fd5b505afa1580156108d7573d6000803e3d6000fd5b505050506040513d601f19601f820116820180604052508101906108fb9190611b33565b90506109078187611ef8565b8511156109565760405162461bcd60e51b815260206004820152601f60248201527f574f524d484f4c455f4d494e5f414d4f554e545f4f55545f544f4f5f424947006044820152606401610152565b610981877f0000000000000000000000000000000000000000000000000000000000000000886110f2565b6040517f59b87d8e00000000000000000000000000000000000000000000000000000000815273ffffffffffffffffffffffffffffffffffffffff8881166004830152602482018890526000604483015261ffff8416606483015285811660848301527f000000000000000000000000000000000000000000000000000000000000000016906359b87d8e9060a401602060405180830381600087803b158015610a2a57600080fd5b505af1158015610a3e573d6000803e3d6000fd5b505050506040513d601f19601f82011682018060405250810190610a629190611bc3565b505050505050505050565b60006001821480610a7e5750600582145b90505b919050565b6080815114610ad75760405162461bcd60e51b815260206004820152601d60248201527f484f505f494e56414c49445f4c315f4c325f444154415f4c454e4754480000006044820152606401610152565b60008060008084806020019051810190610af19190611a95565b9350935093509350428311610b485760405162461bcd60e51b815260206004820152601b60248201527f484f505f4252494447455f494e56414c49445f444541444c494e4500000000006044820152606401610152565b6000610b55858b8b6112b4565b6040517fdeace8f5000000000000000000000000000000000000000000000000000000008152600481018d905273ffffffffffffffffffffffffffffffffffffffff8981166024830152604482018c9052606482018b90526084820187905285811660a483015260c482018590529192509086169063deace8f590839060e4016000604051808303818588803b158015610bee57600080fd5b505af1158015610c02573d6000803e3d6000fd5b50505050505050505050505050505050565b6060815114610c655760405162461bcd60e51b815260206004820152601d60248201527f484f505f494e56414c49445f4c325f4c325f444154415f4c454e4754480000006044820152606401610152565b600080600083806020019051810190610c7e9190611add565b925092509250428111610cd35760405162461bcd60e51b815260206004820152601b60248201527f484f505f4252494447455f494e56414c49445f444541444c494e4500000000006044820152606401610152565b60006002610ce1888a611ef8565b610ceb9190611e9b565b610cf59089611ef8565b90508373ffffffffffffffffffffffffffffffffffffffff1663eea0d7b2610d1e868c8c6112b4565b6040517fffffffff0000000000000000000000000000000000000000000000000000000060e084901b168152600481018e905273ffffffffffffffffffffffffffffffffffffffff8a166024820152604481018c905260648101879052608481018590524260a482015260c481018b905260e48101869052610104016000604051808303818588803b158015610db357600080fd5b505af1158015610dc7573d6000803e3d6000fd5b505050505050505050505050505050565b6040815114610e295760405162461bcd60e51b815260206004820152601d60248201527f484f505f494e56414c49445f4c325f4c315f444154415f4c454e4754480000006044820152606401610152565b60008082806020019051810190610e409190611a68565b915091506000610e518389896112b4565b6040517feea0d7b2000000000000000000000000000000000000000000000000000000008152600481018b905273ffffffffffffffffffffffffffffffffffffffff8781166024830152604482018a905260648201859052608482018990524260a4830152600060c4830181905260e48301529192509084169063eea0d7b2908390610104016000604051808303818588803b158015610ef057600080fd5b505af1158015610f04573d6000803e3d6000fd5b5050505050505050505050505050565b60606001821415610f59575060408051808201909152600881527f457468657265756d0000000000000000000000000000000000000000000000006020820152610a81565b6089821415610f9c575060408051808201909152600781527f506f6c79676f6e000000000000000000000000000000000000000000000000006020820152610a81565b61a4b1821415610fe0575060408051808201909152600881527f617262697472756d0000000000000000000000000000000000000000000000006020820152610a81565b6038821415611023575060408051808201909152600781527f62696e616e6365000000000000000000000000000000000000000000000000006020820152610a81565b60fa821415611066575060408051808201909152600681527f46616e746f6d00000000000000000000000000000000000000000000000000006020820152610a81565b61a86a8214156110aa575060408051808201909152600981527f4176616c616e63686500000000000000000000000000000000000000000000006020820152610a81565b60405162461bcd60e51b815260206004820152601760248201527f4158454c41525f554e4b4e4f574e5f434841494e5f49440000000000000000006044820152606401610152565b6110fe838360006113a7565b6111098383836113a7565b505050565b6060610a7e73ffffffffffffffffffffffffffffffffffffffff83166014611555565b60006001821415611146575062657468610a81565b608982141561115a575063706f6c79610a81565b61a4b182141561116f5750636172626f610a81565b600a8214156111835750636f707469610a81565b6064821415611196575062676e6f610a81565b60388214156111a9575062626e62610a81565b60405162461bcd60e51b815260206004820152601860248201527f434f4e4e4558545f554e4b4e4f574e5f434841494e5f494400000000000000006044820152606401610152565b6000600182141561120457506002610a81565b608982141561121557506005610a81565b61a4b182141561122757506017610a81565b600a82141561123857506018610a81565b603882141561124957506004610a81565b60fa82141561125a5750600a610a81565b61a86a82141561126c57506006610a81565b60405162461bcd60e51b815260206004820152601960248201527f574f524d484f4c455f554e4b4e4f574e5f434841494e5f4944000000000000006044820152606401610152565b60007f000000000000000000000000000000000000000000000000000000000000000073ffffffffffffffffffffffffffffffffffffffff168373ffffffffffffffffffffffffffffffffffffffff16141561139257506040517f2e1a7d4d00000000000000000000000000000000000000000000000000000000815260048101829052819073ffffffffffffffffffffffffffffffffffffffff841690632e1a7d4d90602401600060405180830381600087803b15801561137557600080fd5b505af1158015611389573d6000803e3d6000fd5b505050506113a0565b5060006113a08385846110f2565b9392505050565b80158061145657506040517fdd62ed3e00000000000000000000000000000000000000000000000000000000815230600482015273ffffffffffffffffffffffffffffffffffffffff838116602483015284169063dd62ed3e9060440160206040518083038186803b15801561141c57600080fd5b505afa158015611430573d6000803e3d6000fd5b505050506040513d601f19601f820116820180604052508101906114549190611b33565b155b6114c85760405162461bcd60e51b815260206004820152603660248201527f5361666545524332303a20617070726f76652066726f6d206e6f6e2d7a65726f60448201527f20746f206e6f6e2d7a65726f20616c6c6f77616e6365000000000000000000006064820152608401610152565b6040805173ffffffffffffffffffffffffffffffffffffffff8416602482015260448082018490528251808303909101815260649091019091526020810180517bffffffffffffffffffffffffffffffffffffffffffffffffffffffff167f095ea7b3000000000000000000000000000000000000000000000000000000001790526111099084906117c4565b60606000611564836002611ebb565b61156f906002611e83565b67ffffffffffffffff81111561159557634e487b7160e01b600052604160045260246000fd5b6040519080825280601f01601f1916602001820160405280156115bf576020820181803683370190505b5090507f30000000000000000000000000000000000000000000000000000000000000008160008151811061160457634e487b7160e01b600052603260045260246000fd5b60200101907effffffffffffffffffffffffffffffffffffffffffffffffffffffffffffff1916908160001a9053507f78000000000000000000000000000000000000000000000000000000000000008160018151811061167557634e487b7160e01b600052603260045260246000fd5b60200101907effffffffffffffffffffffffffffffffffffffffffffffffffffffffffffff1916908160001a90535060006116b1846002611ebb565b6116bc906001611e83565b90505b6001811115611775577f303132333435363738396162636465660000000000000000000000000000000085600f166010811061170b57634e487b7160e01b600052603260045260246000fd5b1a60f81b82828151811061172f57634e487b7160e01b600052603260045260246000fd5b60200101907effffffffffffffffffffffffffffffffffffffffffffffffffffffffffffff1916908160001a90535060049490941c9361176e81611f3f565b90506116bf565b5083156113a05760405162461bcd60e51b815260206004820181905260248201527f537472696e67733a20686578206c656e67746820696e73756666696369656e746044820152606401610152565b6000611826826040518060400160405280602081526020017f5361666545524332303a206c6f772d6c6576656c2063616c6c206661696c65648152508573ffffffffffffffffffffffffffffffffffffffff166118b69092919063ffffffff16565b80519091501561110957808060200190518101906118449190611b13565b6111095760405162461bcd60e51b815260206004820152602a60248201527f5361666545524332303a204552433230206f7065726174696f6e20646964206e60448201527f6f742073756363656564000000000000000000000000000000000000000000006064820152608401610152565b60606118c584846000856118cd565b949350505050565b6060824710156119455760405162461bcd60e51b815260206004820152602660248201527f416464726573733a20696e73756666696369656e742062616c616e636520666f60448201527f722063616c6c00000000000000000000000000000000000000000000000000006064820152608401610152565b73ffffffffffffffffffffffffffffffffffffffff85163b6119a95760405162461bcd60e51b815260206004820152601d60248201527f416464726573733a2063616c6c20746f206e6f6e2d636f6e74726163740000006044820152606401610152565b6000808673ffffffffffffffffffffffffffffffffffffffff1685876040516119d29190611d04565b60006040518083038185875af1925050503d8060008114611a0f576040519150601f19603f3d011682016040523d82523d6000602084013e611a14565b606091505b5091509150611a24828286611a2f565b979650505050505050565b60608315611a3e5750816113a0565b825115611a4e5782518084602001fd5b8160405162461bcd60e51b81526004016101529190611d20565b60008060408385031215611a7a578182fd5b8251611a8581611fa0565b6020939093015192949293505050565b60008060008060808587031215611aaa578182fd5b8451611ab581611fa0565b602086015160408701519195509350611acd81611fa0565b6060959095015193969295505050565b600080600060608486031215611af1578283fd5b8351611afc81611fa0565b602085015160409095015190969495509392505050565b600060208284031215611b24578081fd5b815180151581146113a0578182fd5b600060208284031215611b44578081fd5b5051919050565b600060208284031215611b5c578081fd5b815167ffffffffffffffff811115611b72578182fd5b8201601f81018413611b82578182fd5b8051611b95611b9082611e3d565b611dee565b818152856020838501011115611ba9578384fd5b611bba826020830160208601611f0f565b95945050505050565b600060208284031215611bd4578081fd5b815167ffffffffffffffff811681146113a0578182fd5b600080600080600080600060e0888a031215611c05578283fd5b873560ff81168114611c15578384fd5b9650602088013595506040880135611c2c81611fa0565b9450606088013593506080880135925060a0880135611c4a81611fa0565b915060c088013567ffffffffffffffff811115611c65578182fd5b8801601f81018a13611c75578182fd5b8035611c83611b9082611e3d565b8181528b6020838501011115611c97578384fd5b816020840160208301379081016020019290925250959894975092955090939092565b60008151808452611cd2816020860160208601611f0f565b601f017fffffffffffffffffffffffffffffffffffffffffffffffffffffffffffffffe0169290920160200192915050565b60008251611d16818460208701611f0f565b9190910192915050565b6000602082526113a06020830184611cba565b600060808252611d466080830187611cba565b8281036020840152611d588187611cba565b90508281036040840152611d6c8186611cba565b91505082606083015295945050505050565b600061010063ffffffff8b16835273ffffffffffffffffffffffffffffffffffffffff808b166020850152808a1660408501528089166060850152508660808401528560a08401528060c0840152611dd881840186611cba565b9150508260e08301529998505050505050505050565b604051601f82017fffffffffffffffffffffffffffffffffffffffffffffffffffffffffffffffe016810167ffffffffffffffff81118282101715611e3557611e35611f8a565b604052919050565b600067ffffffffffffffff821115611e5757611e57611f8a565b50601f017fffffffffffffffffffffffffffffffffffffffffffffffffffffffffffffffe01660200190565b60008219821115611e9657611e96611f74565b500190565b600082611eb657634e487b7160e01b81526012600452602481fd5b500490565b6000817fffffffffffffffffffffffffffffffffffffffffffffffffffffffffffffffff0483118215151615611ef357611ef3611f74565b500290565b600082821015611f0a57611f0a611f74565b500390565b60005b83811015611f2a578181015183820152602001611f12565b83811115611f39576000848401525b50505050565b600081611f4e57611f4e611f74565b507fffffffffffffffffffffffffffffffffffffffffffffffffffffffffffffffff0190565b634e487b7160e01b600052601160045260246000fd5b634e487b7160e01b600052604160045260246000fd5b73ffffffffffffffffffffffffffffffffffffffff81168114611fc257600080fd5b5056fea26469706673582212201962685ceb41f96b4c812126ebde05f920b90fdfd4396bb85f8e742177b53f8764736f6c63430008030033","opcodes":"PUSH2 0x120 PUSH1 0x40 MSTORE CALLVALUE DUP1 ISZERO PUSH3 0x12 JUMPI PUSH1 0x0 DUP1 REVERT JUMPDEST POP PUSH1 0x40 MLOAD PUSH3 0x2163 CODESIZE SUB DUP1 PUSH3 0x2163 DUP4 CODECOPY DUP2 ADD PUSH1 0x40 DUP2 SWAP1 MSTORE PUSH3 0x35 SWAP2 PUSH3 0x8A JUMP JUMPDEST PUSH1 0x1 PUSH1 0x1 PUSH1 0x60 SHL SUB NOT PUSH1 0x60 SWAP2 DUP3 SHL DUP2 AND PUSH1 0x80 MSTORE SWAP5 DUP2 SHL DUP6 AND PUSH1 0xA0 MSTORE SWAP3 DUP4 SHL DUP5 AND PUSH1 0xC0 MSTORE SWAP1 DUP3 SHL DUP4 AND PUSH1 0xE0 MSTORE SWAP1 SHL AND PUSH2 0x100 MSTORE PUSH3 0xF9 JUMP JUMPDEST DUP1 MLOAD PUSH1 0x1 PUSH1 0x1 PUSH1 0xA0 SHL SUB DUP2 AND DUP2 EQ PUSH3 0x85 JUMPI PUSH1 0x0 DUP1 REVERT JUMPDEST SWAP2 SWAP1 POP JUMP JUMPDEST PUSH1 0x0 DUP1 PUSH1 0x0 DUP1 PUSH1 0x0 PUSH1 0xA0 DUP7 DUP9 SUB SLT ISZERO PUSH3 0xA2 JUMPI DUP1 DUP2 REVERT JUMPDEST PUSH3 0xAD DUP7 PUSH3 0x6D JUMP JUMPDEST SWAP5 POP PUSH3 0xBD PUSH1 0x20 DUP8 ADD PUSH3 0x6D JUMP JUMPDEST SWAP4 POP PUSH3 0xCD PUSH1 0x40 DUP8 ADD PUSH3 0x6D JUMP JUMPDEST SWAP3 POP PUSH3 0xDD PUSH1 0x60 DUP8 ADD PUSH3 0x6D JUMP JUMPDEST SWAP2 POP PUSH3 0xED PUSH1 0x80 DUP8 ADD PUSH3 0x6D JUMP JUMPDEST SWAP1 POP SWAP3 SWAP6 POP SWAP3 SWAP6 SWAP1 SWAP4 POP JUMP JUMPDEST PUSH1 0x80 MLOAD PUSH1 0x60 SHR PUSH1 0xA0 MLOAD PUSH1 0x60 SHR PUSH1 0xC0 MLOAD PUSH1 0x60 SHR PUSH1 0xE0 MLOAD PUSH1 0x60 SHR PUSH2 0x100 MLOAD PUSH1 0x60 SHR PUSH2 0x1FFB PUSH3 0x168 PUSH1 0x0 CODECOPY PUSH1 0x0 DUP2 DUP2 PUSH2 0x881 ADD MSTORE DUP2 DUP2 PUSH2 0x95C ADD MSTORE PUSH2 0x9E6 ADD MSTORE PUSH1 0x0 DUP2 DUP2 PUSH2 0x6BB ADD MSTORE PUSH2 0x6F7 ADD MSTORE PUSH1 0x0 DUP2 DUP2 PUSH2 0x4E3 ADD MSTORE PUSH2 0x50A ADD MSTORE PUSH1 0x0 PUSH2 0x12B8 ADD MSTORE PUSH1 0x0 PUSH1 0x9D ADD MSTORE PUSH2 0x1FFB PUSH1 0x0 RETURN INVALID PUSH1 0x80 PUSH1 0x40 MSTORE PUSH1 0x4 CALLDATASIZE LT PUSH2 0x38 JUMPI PUSH1 0x0 CALLDATALOAD PUSH1 0xE0 SHR DUP1 PUSH4 0x44BA1FCA EQ PUSH2 0x44 JUMPI DUP1 PUSH4 0x7B103999 EQ PUSH2 0x8B JUMPI DUP1 PUSH4 0xF9CF051F EQ PUSH2 0xE4 JUMPI PUSH2 0x3F JUMP JUMPDEST CALLDATASIZE PUSH2 0x3F JUMPI STOP JUMPDEST PUSH1 0x0 DUP1 REVERT JUMPDEST CALLVALUE DUP1 ISZERO PUSH2 0x50 JUMPI PUSH1 0x0 DUP1 REVERT JUMPDEST POP PUSH2 0x78 PUSH32 0xDCA1563B323FD68C991DB2E5827E72DB329017714E37482092E6D078E07AD4E7 DUP2 JUMP JUMPDEST PUSH1 0x40 MLOAD SWAP1 DUP2 MSTORE PUSH1 0x20 ADD JUMPDEST PUSH1 0x40 MLOAD DUP1 SWAP2 SUB SWAP1 RETURN JUMPDEST CALLVALUE DUP1 ISZERO PUSH2 0x97 JUMPI PUSH1 0x0 DUP1 REVERT JUMPDEST POP PUSH2 0xBF PUSH32 0x0 DUP2 JUMP JUMPDEST PUSH1 0x40 MLOAD PUSH20 0xFFFFFFFFFFFFFFFFFFFFFFFFFFFFFFFFFFFFFFFF SWAP1 SWAP2 AND DUP2 MSTORE PUSH1 0x20 ADD PUSH2 0x82 JUMP JUMPDEST CALLVALUE DUP1 ISZERO PUSH2 0xF0 JUMPI PUSH1 0x0 DUP1 REVERT JUMPDEST POP PUSH2 0x104 PUSH2 0xFF CALLDATASIZE PUSH1 0x4 PUSH2 0x1BEB JUMP JUMPDEST PUSH2 0x106 JUMP JUMPDEST STOP JUMPDEST CHAINID DUP7 EQ ISZERO PUSH2 0x15B JUMPI PUSH1 0x40 MLOAD PUSH3 0x461BCD PUSH1 0xE5 SHL DUP2 MSTORE PUSH1 0x20 PUSH1 0x4 DUP3 ADD MSTORE PUSH1 0x1E PUSH1 0x24 DUP3 ADD MSTORE PUSH32 0x4252494447455F434F4E4E4543544F525F53414D455F434841494E5F4F500000 PUSH1 0x44 DUP3 ADD MSTORE PUSH1 0x64 ADD JUMPDEST PUSH1 0x40 MLOAD DUP1 SWAP2 SUB SWAP1 REVERT JUMPDEST PUSH1 0x0 DUP8 PUSH1 0xFF AND PUSH1 0x3 DUP2 GT ISZERO PUSH2 0x180 JUMPI PUSH4 0x4E487B71 PUSH1 0xE0 SHL PUSH1 0x0 MSTORE PUSH1 0x21 PUSH1 0x4 MSTORE PUSH1 0x24 PUSH1 0x0 REVERT JUMPDEST PUSH1 0x3 DUP2 GT ISZERO PUSH2 0x19F JUMPI PUSH4 0x4E487B71 PUSH1 0xE0 SHL PUSH1 0x0 MSTORE PUSH1 0x21 PUSH1 0x4 MSTORE PUSH1 0x24 PUSH1 0x0 REVERT JUMPDEST EQ ISZERO PUSH2 0x1B8 JUMPI PUSH2 0x1B3 DUP7 DUP7 DUP7 DUP7 DUP7 DUP7 PUSH2 0x311 JUMP JUMPDEST PUSH2 0x308 JUMP JUMPDEST PUSH1 0x1 DUP8 PUSH1 0xFF AND PUSH1 0x3 DUP2 GT ISZERO PUSH2 0x1DD JUMPI PUSH4 0x4E487B71 PUSH1 0xE0 SHL PUSH1 0x0 MSTORE PUSH1 0x21 PUSH1 0x4 MSTORE PUSH1 0x24 PUSH1 0x0 REVERT JUMPDEST PUSH1 0x3 DUP2 GT ISZERO PUSH2 0x1FC JUMPI PUSH4 0x4E487B71 PUSH1 0xE0 SHL PUSH1 0x0 MSTORE PUSH1 0x21 PUSH1 0x4 MSTORE PUSH1 0x24 PUSH1 0x0 REVERT JUMPDEST EQ ISZERO PUSH2 0x210 JUMPI PUSH2 0x1B3 DUP7 DUP7 DUP7 DUP7 DUP7 DUP7 PUSH2 0x3DD JUMP JUMPDEST PUSH1 0x2 DUP8 PUSH1 0xFF AND PUSH1 0x3 DUP2 GT ISZERO PUSH2 0x235 JUMPI PUSH4 0x4E487B71 PUSH1 0xE0 SHL PUSH1 0x0 MSTORE PUSH1 0x21 PUSH1 0x4 MSTORE PUSH1 0x24 PUSH1 0x0 REVERT JUMPDEST PUSH1 0x3 DUP2 GT ISZERO PUSH2 0x254 JUMPI PUSH4 0x4E487B71 PUSH1 0xE0 SHL PUSH1 0x0 MSTORE PUSH1 0x21 PUSH1 0x4 MSTORE PUSH1 0x24 PUSH1 0x0 REVERT JUMPDEST EQ ISZERO PUSH2 0x268 JUMPI PUSH2 0x1B3 DUP7 DUP7 DUP7 DUP7 DUP7 DUP7 PUSH2 0x5AB JUMP JUMPDEST PUSH1 0x3 DUP8 PUSH1 0xFF AND PUSH1 0x3 DUP2 GT ISZERO PUSH2 0x28D JUMPI PUSH4 0x4E487B71 PUSH1 0xE0 SHL PUSH1 0x0 MSTORE PUSH1 0x21 PUSH1 0x4 MSTORE PUSH1 0x24 PUSH1 0x0 REVERT JUMPDEST PUSH1 0x3 DUP2 GT ISZERO PUSH2 0x2AC JUMPI PUSH4 0x4E487B71 PUSH1 0xE0 SHL PUSH1 0x0 MSTORE PUSH1 0x21 PUSH1 0x4 MSTORE PUSH1 0x24 PUSH1 0x0 REVERT JUMPDEST EQ ISZERO PUSH2 0x2C0 JUMPI PUSH2 0x1B3 DUP7 DUP7 DUP7 DUP7 DUP7 DUP7 PUSH2 0x7D2 JUMP JUMPDEST PUSH1 0x40 MLOAD PUSH3 0x461BCD PUSH1 0xE5 SHL DUP2 MSTORE PUSH1 0x20 PUSH1 0x4 DUP3 ADD MSTORE PUSH1 0x1F PUSH1 0x24 DUP3 ADD MSTORE PUSH32 0x4252494447455F434F4E4E4543544F525F494E56414C49445F534F5552434500 PUSH1 0x44 DUP3 ADD MSTORE PUSH1 0x64 ADD PUSH2 0x152 JUMP JUMPDEST POP POP POP POP POP POP POP JUMP JUMPDEST PUSH1 0x0 PUSH2 0x31C DUP8 PUSH2 0xA6D JUMP JUMPDEST ISZERO SWAP1 POP PUSH1 0x0 PUSH2 0x32A CHAINID PUSH2 0xA6D JUMP JUMPDEST SWAP1 POP DUP1 DUP1 ISZERO PUSH2 0x336 JUMPI POP DUP2 JUMPDEST ISZERO PUSH2 0x34E JUMPI PUSH2 0x349 DUP9 DUP9 DUP9 DUP9 DUP9 DUP9 PUSH2 0xA86 JUMP JUMPDEST PUSH2 0x3D3 JUMP JUMPDEST DUP1 ISZERO DUP1 ISZERO PUSH2 0x359 JUMPI POP DUP2 JUMPDEST ISZERO PUSH2 0x36C JUMPI PUSH2 0x349 DUP9 DUP9 DUP9 DUP9 DUP9 DUP9 PUSH2 0xC14 JUMP JUMPDEST DUP1 ISZERO DUP1 ISZERO PUSH2 0x378 JUMPI POP DUP2 ISZERO JUMPDEST ISZERO PUSH2 0x38B JUMPI PUSH2 0x349 DUP9 DUP9 DUP9 DUP9 DUP9 DUP9 PUSH2 0xDD8 JUMP JUMPDEST PUSH1 0x40 MLOAD PUSH3 0x461BCD PUSH1 0xE5 SHL DUP2 MSTORE PUSH1 0x20 PUSH1 0x4 DUP3 ADD MSTORE PUSH1 0x1B PUSH1 0x24 DUP3 ADD MSTORE PUSH32 0x484F505F4252494447455F4F505F4E4F545F535550504F525445440000000000 PUSH1 0x44 DUP3 ADD MSTORE PUSH1 0x64 ADD PUSH2 0x152 JUMP JUMPDEST POP POP POP POP POP POP POP POP JUMP JUMPDEST DUP1 MLOAD ISZERO PUSH2 0x42C JUMPI PUSH1 0x40 MLOAD PUSH3 0x461BCD PUSH1 0xE5 SHL DUP2 MSTORE PUSH1 0x20 PUSH1 0x4 DUP3 ADD MSTORE PUSH1 0x1A PUSH1 0x24 DUP3 ADD MSTORE PUSH32 0x4158454C41525F494E56414C49445F444154415F4C454E475448000000000000 PUSH1 0x44 DUP3 ADD MSTORE PUSH1 0x64 ADD PUSH2 0x152 JUMP JUMPDEST PUSH1 0x0 PUSH2 0x437 DUP8 PUSH2 0xF14 JUMP JUMPDEST SWAP1 POP PUSH1 0x0 DUP7 PUSH20 0xFFFFFFFFFFFFFFFFFFFFFFFFFFFFFFFFFFFFFFFF AND PUSH4 0x95D89B41 PUSH1 0x40 MLOAD DUP2 PUSH4 0xFFFFFFFF AND PUSH1 0xE0 SHL DUP2 MSTORE PUSH1 0x4 ADD PUSH1 0x0 PUSH1 0x40 MLOAD DUP1 DUP4 SUB DUP2 DUP7 DUP1 EXTCODESIZE ISZERO DUP1 ISZERO PUSH2 0x481 JUMPI PUSH1 0x0 DUP1 REVERT JUMPDEST POP GAS STATICCALL ISZERO DUP1 ISZERO PUSH2 0x495 JUMPI RETURNDATASIZE PUSH1 0x0 DUP1 RETURNDATACOPY RETURNDATASIZE PUSH1 0x0 REVERT JUMPDEST POP POP POP POP PUSH1 0x40 MLOAD RETURNDATASIZE PUSH1 0x0 DUP3 RETURNDATACOPY PUSH1 0x1F RETURNDATASIZE SWAP1 DUP2 ADD PUSH32 0xFFFFFFFFFFFFFFFFFFFFFFFFFFFFFFFFFFFFFFFFFFFFFFFFFFFFFFFFFFFFFFE0 AND DUP3 ADD PUSH1 0x40 MSTORE PUSH2 0x4DB SWAP2 SWAP1 DUP2 ADD SWAP1 PUSH2 0x1B4B JUMP JUMPDEST SWAP1 POP PUSH2 0x508 DUP8 PUSH32 0x0 DUP9 PUSH2 0x10F2 JUMP JUMPDEST PUSH32 0x0 PUSH20 0xFFFFFFFFFFFFFFFFFFFFFFFFFFFFFFFFFFFFFFFF AND PUSH4 0x26EF699D DUP4 PUSH2 0x54E DUP8 PUSH2 0x110E JUMP JUMPDEST DUP5 DUP11 PUSH1 0x40 MLOAD DUP6 PUSH4 0xFFFFFFFF AND PUSH1 0xE0 SHL DUP2 MSTORE PUSH1 0x4 ADD PUSH2 0x56F SWAP5 SWAP4 SWAP3 SWAP2 SWAP1 PUSH2 0x1D33 JUMP JUMPDEST PUSH1 0x0 PUSH1 0x40 MLOAD DUP1 DUP4 SUB DUP2 PUSH1 0x0 DUP8 DUP1 EXTCODESIZE ISZERO DUP1 ISZERO PUSH2 0x589 JUMPI PUSH1 0x0 DUP1 REVERT JUMPDEST POP GAS CALL ISZERO DUP1 ISZERO PUSH2 0x59D JUMPI RETURNDATASIZE PUSH1 0x0 DUP1 RETURNDATACOPY RETURNDATASIZE PUSH1 0x0 REVERT JUMPDEST POP POP POP POP POP POP POP POP POP POP POP POP JUMP JUMPDEST PUSH1 0x20 DUP2 MLOAD EQ PUSH2 0x5FC JUMPI PUSH1 0x40 MLOAD PUSH3 0x461BCD PUSH1 0xE5 SHL DUP2 MSTORE PUSH1 0x20 PUSH1 0x4 DUP3 ADD MSTORE PUSH1 0x1B PUSH1 0x24 DUP3 ADD MSTORE PUSH32 0x434F4E4E4558545F494E56414C49445F444154415F4C454E4754480000000000 PUSH1 0x44 DUP3 ADD MSTORE PUSH1 0x64 ADD PUSH2 0x152 JUMP JUMPDEST PUSH1 0x0 DUP2 DUP1 PUSH1 0x20 ADD SWAP1 MLOAD DUP2 ADD SWAP1 PUSH2 0x612 SWAP2 SWAP1 PUSH2 0x1B33 JUMP JUMPDEST SWAP1 POP DUP5 DUP2 GT ISZERO PUSH2 0x664 JUMPI PUSH1 0x40 MLOAD PUSH3 0x461BCD PUSH1 0xE5 SHL DUP2 MSTORE PUSH1 0x20 PUSH1 0x4 DUP3 ADD DUP2 SWAP1 MSTORE PUSH1 0x24 DUP3 ADD MSTORE PUSH32 0x434F4E4E4558545F52454C415945525F4645455F47545F414D4F554E545F494E PUSH1 0x44 DUP3 ADD MSTORE PUSH1 0x64 ADD PUSH2 0x152 JUMP JUMPDEST PUSH1 0x0 PUSH2 0x66F DUP9 PUSH2 0x1131 JUMP JUMPDEST SWAP1 POP PUSH1 0x0 DUP7 DUP7 GT PUSH2 0x6A2 JUMPI DUP7 PUSH2 0x687 DUP8 PUSH2 0x2710 PUSH2 0x1EBB JUMP JUMPDEST PUSH2 0x691 SWAP2 SWAP1 PUSH2 0x1E9B JUMP JUMPDEST PUSH2 0x69D SWAP1 PUSH2 0x2710 PUSH2 0x1EF8 JUMP JUMPDEST PUSH2 0x6A5 JUMP JUMPDEST PUSH1 0x0 JUMPDEST SWAP1 POP PUSH1 0x0 PUSH2 0x6B3 DUP5 DUP10 PUSH2 0x1EF8 JUMP JUMPDEST SWAP1 POP PUSH2 0x6E0 DUP10 PUSH32 0x0 DUP11 PUSH2 0x10F2 JUMP JUMPDEST PUSH20 0xFFFFFFFFFFFFFFFFFFFFFFFFFFFFFFFFFFFFFFFF PUSH32 0x0 AND PUSH4 0x93F18AC5 DUP5 DUP9 DUP13 ADDRESS DUP7 DUP9 PUSH1 0x0 PUSH1 0x40 MLOAD SWAP1 DUP1 DUP3 MSTORE DUP1 PUSH1 0x1F ADD PUSH1 0x1F NOT AND PUSH1 0x20 ADD DUP3 ADD PUSH1 0x40 MSTORE DUP1 ISZERO PUSH2 0x74E JUMPI PUSH1 0x20 DUP3 ADD DUP2 DUP1 CALLDATASIZE DUP4 CALLDATACOPY ADD SWAP1 POP JUMPDEST POP DUP13 PUSH1 0x40 MLOAD DUP10 PUSH4 0xFFFFFFFF AND PUSH1 0xE0 SHL DUP2 MSTORE PUSH1 0x4 ADD PUSH2 0x773 SWAP9 SWAP8 SWAP7 SWAP6 SWAP5 SWAP4 SWAP3 SWAP2 SWAP1 PUSH2 0x1D7E JUMP JUMPDEST PUSH1 0x20 PUSH1 0x40 MLOAD DUP1 DUP4 SUB DUP2 PUSH1 0x0 DUP8 DUP1 EXTCODESIZE ISZERO DUP1 ISZERO PUSH2 0x78D JUMPI PUSH1 0x0 DUP1 REVERT JUMPDEST POP GAS CALL ISZERO DUP1 ISZERO PUSH2 0x7A1 JUMPI RETURNDATASIZE PUSH1 0x0 DUP1 RETURNDATACOPY RETURNDATASIZE PUSH1 0x0 REVERT JUMPDEST POP POP POP POP PUSH1 0x40 MLOAD RETURNDATASIZE PUSH1 0x1F NOT PUSH1 0x1F DUP3 ADD AND DUP3 ADD DUP1 PUSH1 0x40 MSTORE POP DUP2 ADD SWAP1 PUSH2 0x7C5 SWAP2 SWAP1 PUSH2 0x1B33 JUMP JUMPDEST POP POP POP POP POP POP POP POP POP POP POP JUMP JUMPDEST DUP1 MLOAD ISZERO PUSH2 0x821 JUMPI PUSH1 0x40 MLOAD PUSH3 0x461BCD PUSH1 0xE5 SHL DUP2 MSTORE PUSH1 0x20 PUSH1 0x4 DUP3 ADD MSTORE PUSH1 0x1C PUSH1 0x24 DUP3 ADD MSTORE PUSH32 0x574F524D484F4C455F494E56414C49445F444154415F4C454E47544800000000 PUSH1 0x44 DUP3 ADD MSTORE PUSH1 0x64 ADD PUSH2 0x152 JUMP JUMPDEST PUSH1 0x0 PUSH2 0x82C DUP8 PUSH2 0x11F1 JUMP JUMPDEST PUSH1 0x40 MLOAD PUSH32 0x16FB440A00000000000000000000000000000000000000000000000000000000 DUP2 MSTORE PUSH2 0xFFFF DUP3 AND PUSH1 0x4 DUP3 ADD MSTORE PUSH20 0xFFFFFFFFFFFFFFFFFFFFFFFFFFFFFFFFFFFFFFFF DUP9 DUP2 AND PUSH1 0x24 DUP4 ADD MSTORE SWAP2 SWAP3 POP PUSH1 0x0 SWAP2 PUSH32 0x0 AND SWAP1 PUSH4 0x16FB440A SWAP1 PUSH1 0x44 ADD PUSH1 0x20 PUSH1 0x40 MLOAD DUP1 DUP4 SUB DUP2 DUP7 DUP1 EXTCODESIZE ISZERO DUP1 ISZERO PUSH2 0x8C3 JUMPI PUSH1 0x0 DUP1 REVERT JUMPDEST POP GAS STATICCALL ISZERO DUP1 ISZERO PUSH2 0x8D7 JUMPI RETURNDATASIZE PUSH1 0x0 DUP1 RETURNDATACOPY RETURNDATASIZE PUSH1 0x0 REVERT JUMPDEST POP POP POP POP PUSH1 0x40 MLOAD RETURNDATASIZE PUSH1 0x1F NOT PUSH1 0x1F DUP3 ADD AND DUP3 ADD DUP1 PUSH1 0x40 MSTORE POP DUP2 ADD SWAP1 PUSH2 0x8FB SWAP2 SWAP1 PUSH2 0x1B33 JUMP JUMPDEST SWAP1 POP PUSH2 0x907 DUP2 DUP8 PUSH2 0x1EF8 JUMP JUMPDEST DUP6 GT ISZERO PUSH2 0x956 JUMPI PUSH1 0x40 MLOAD PUSH3 0x461BCD PUSH1 0xE5 SHL DUP2 MSTORE PUSH1 0x20 PUSH1 0x4 DUP3 ADD MSTORE PUSH1 0x1F PUSH1 0x24 DUP3 ADD MSTORE PUSH32 0x574F524D484F4C455F4D494E5F414D4F554E545F4F55545F544F4F5F42494700 PUSH1 0x44 DUP3 ADD MSTORE PUSH1 0x64 ADD PUSH2 0x152 JUMP JUMPDEST PUSH2 0x981 DUP8 PUSH32 0x0 DUP9 PUSH2 0x10F2 JUMP JUMPDEST PUSH1 0x40 MLOAD PUSH32 0x59B87D8E00000000000000000000000000000000000000000000000000000000 DUP2 MSTORE PUSH20 0xFFFFFFFFFFFFFFFFFFFFFFFFFFFFFFFFFFFFFFFF DUP9 DUP2 AND PUSH1 0x4 DUP4 ADD MSTORE PUSH1 0x24 DUP3 ADD DUP9 SWAP1 MSTORE PUSH1 0x0 PUSH1 0x44 DUP4 ADD MSTORE PUSH2 0xFFFF DUP5 AND PUSH1 0x64 DUP4 ADD MSTORE DUP6 DUP2 AND PUSH1 0x84 DUP4 ADD MSTORE PUSH32 0x0 AND SWAP1 PUSH4 0x59B87D8E SWAP1 PUSH1 0xA4 ADD PUSH1 0x20 PUSH1 0x40 MLOAD DUP1 DUP4 SUB DUP2 PUSH1 0x0 DUP8 DUP1 EXTCODESIZE ISZERO DUP1 ISZERO PUSH2 0xA2A JUMPI PUSH1 0x0 DUP1 REVERT JUMPDEST POP GAS CALL ISZERO DUP1 ISZERO PUSH2 0xA3E JUMPI RETURNDATASIZE PUSH1 0x0 DUP1 RETURNDATACOPY RETURNDATASIZE PUSH1 0x0 REVERT JUMPDEST POP POP POP POP PUSH1 0x40 MLOAD RETURNDATASIZE PUSH1 0x1F NOT PUSH1 0x1F DUP3 ADD AND DUP3 ADD DUP1 PUSH1 0x40 MSTORE POP DUP2 ADD SWAP1 PUSH2 0xA62 SWAP2 SWAP1 PUSH2 0x1BC3 JUMP JUMPDEST POP POP POP POP POP POP POP POP POP JUMP JUMPDEST PUSH1 0x0 PUSH1 0x1 DUP3 EQ DUP1 PUSH2 0xA7E JUMPI POP PUSH1 0x5 DUP3 EQ JUMPDEST SWAP1 POP JUMPDEST SWAP2 SWAP1 POP JUMP JUMPDEST PUSH1 0x80 DUP2 MLOAD EQ PUSH2 0xAD7 JUMPI PUSH1 0x40 MLOAD PUSH3 0x461BCD PUSH1 0xE5 SHL DUP2 MSTORE PUSH1 0x20 PUSH1 0x4 DUP3 ADD MSTORE PUSH1 0x1D PUSH1 0x24 DUP3 ADD MSTORE PUSH32 0x484F505F494E56414C49445F4C315F4C325F444154415F4C454E475448000000 PUSH1 0x44 DUP3 ADD MSTORE PUSH1 0x64 ADD PUSH2 0x152 JUMP JUMPDEST PUSH1 0x0 DUP1 PUSH1 0x0 DUP1 DUP5 DUP1 PUSH1 0x20 ADD SWAP1 MLOAD DUP2 ADD SWAP1 PUSH2 0xAF1 SWAP2 SWAP1 PUSH2 0x1A95 JUMP JUMPDEST SWAP4 POP SWAP4 POP SWAP4 POP SWAP4 POP TIMESTAMP DUP4 GT PUSH2 0xB48 JUMPI PUSH1 0x40 MLOAD PUSH3 0x461BCD PUSH1 0xE5 SHL DUP2 MSTORE PUSH1 0x20 PUSH1 0x4 DUP3 ADD MSTORE PUSH1 0x1B PUSH1 0x24 DUP3 ADD MSTORE PUSH32 0x484F505F4252494447455F494E56414C49445F444541444C494E450000000000 PUSH1 0x44 DUP3 ADD MSTORE PUSH1 0x64 ADD PUSH2 0x152 JUMP JUMPDEST PUSH1 0x0 PUSH2 0xB55 DUP6 DUP12 DUP12 PUSH2 0x12B4 JUMP JUMPDEST PUSH1 0x40 MLOAD PUSH32 0xDEACE8F500000000000000000000000000000000000000000000000000000000 DUP2 MSTORE PUSH1 0x4 DUP2 ADD DUP14 SWAP1 MSTORE PUSH20 0xFFFFFFFFFFFFFFFFFFFFFFFFFFFFFFFFFFFFFFFF DUP10 DUP2 AND PUSH1 0x24 DUP4 ADD MSTORE PUSH1 0x44 DUP3 ADD DUP13 SWAP1 MSTORE PUSH1 0x64 DUP3 ADD DUP12 SWAP1 MSTORE PUSH1 0x84 DUP3 ADD DUP8 SWAP1 MSTORE DUP6 DUP2 AND PUSH1 0xA4 DUP4 ADD MSTORE PUSH1 0xC4 DUP3 ADD DUP6 SWAP1 MSTORE SWAP2 SWAP3 POP SWAP1 DUP7 AND SWAP1 PUSH4 0xDEACE8F5 SWAP1 DUP4 SWAP1 PUSH1 0xE4 ADD PUSH1 0x0 PUSH1 0x40 MLOAD DUP1 DUP4 SUB DUP2 DUP6 DUP9 DUP1 EXTCODESIZE ISZERO DUP1 ISZERO PUSH2 0xBEE JUMPI PUSH1 0x0 DUP1 REVERT JUMPDEST POP GAS CALL ISZERO DUP1 ISZERO PUSH2 0xC02 JUMPI RETURNDATASIZE PUSH1 0x0 DUP1 RETURNDATACOPY RETURNDATASIZE PUSH1 0x0 REVERT JUMPDEST POP POP POP POP POP POP POP POP POP POP POP POP POP POP POP POP JUMP JUMPDEST PUSH1 0x60 DUP2 MLOAD EQ PUSH2 0xC65 JUMPI PUSH1 0x40 MLOAD PUSH3 0x461BCD PUSH1 0xE5 SHL DUP2 MSTORE PUSH1 0x20 PUSH1 0x4 DUP3 ADD MSTORE PUSH1 0x1D PUSH1 0x24 DUP3 ADD MSTORE PUSH32 0x484F505F494E56414C49445F4C325F4C325F444154415F4C454E475448000000 PUSH1 0x44 DUP3 ADD MSTORE PUSH1 0x64 ADD PUSH2 0x152 JUMP JUMPDEST PUSH1 0x0 DUP1 PUSH1 0x0 DUP4 DUP1 PUSH1 0x20 ADD SWAP1 MLOAD DUP2 ADD SWAP1 PUSH2 0xC7E SWAP2 SWAP1 PUSH2 0x1ADD JUMP JUMPDEST SWAP3 POP SWAP3 POP SWAP3 POP TIMESTAMP DUP2 GT PUSH2 0xCD3 JUMPI PUSH1 0x40 MLOAD PUSH3 0x461BCD PUSH1 0xE5 SHL DUP2 MSTORE PUSH1 0x20 PUSH1 0x4 DUP3 ADD MSTORE PUSH1 0x1B PUSH1 0x24 DUP3 ADD MSTORE PUSH32 0x484F505F4252494447455F494E56414C49445F444541444C494E450000000000 PUSH1 0x44 DUP3 ADD MSTORE PUSH1 0x64 ADD PUSH2 0x152 JUMP JUMPDEST PUSH1 0x0 PUSH1 0x2 PUSH2 0xCE1 DUP9 DUP11 PUSH2 0x1EF8 JUMP JUMPDEST PUSH2 0xCEB SWAP2 SWAP1 PUSH2 0x1E9B JUMP JUMPDEST PUSH2 0xCF5 SWAP1 DUP10 PUSH2 0x1EF8 JUMP JUMPDEST SWAP1 POP DUP4 PUSH20 0xFFFFFFFFFFFFFFFFFFFFFFFFFFFFFFFFFFFFFFFF AND PUSH4 0xEEA0D7B2 PUSH2 0xD1E DUP7 DUP13 DUP13 PUSH2 0x12B4 JUMP JUMPDEST PUSH1 0x40 MLOAD PUSH32 0xFFFFFFFF00000000000000000000000000000000000000000000000000000000 PUSH1 0xE0 DUP5 SWAP1 SHL AND DUP2 MSTORE PUSH1 0x4 DUP2 ADD DUP15 SWAP1 MSTORE PUSH20 0xFFFFFFFFFFFFFFFFFFFFFFFFFFFFFFFFFFFFFFFF DUP11 AND PUSH1 0x24 DUP3 ADD MSTORE PUSH1 0x44 DUP2 ADD DUP13 SWAP1 MSTORE PUSH1 0x64 DUP2 ADD DUP8 SWAP1 MSTORE PUSH1 0x84 DUP2 ADD DUP6 SWAP1 MSTORE TIMESTAMP PUSH1 0xA4 DUP3 ADD MSTORE PUSH1 0xC4 DUP2 ADD DUP12 SWAP1 MSTORE PUSH1 0xE4 DUP2 ADD DUP7 SWAP1 MSTORE PUSH2 0x104 ADD PUSH1 0x0 PUSH1 0x40 MLOAD DUP1 DUP4 SUB DUP2 DUP6 DUP9 DUP1 EXTCODESIZE ISZERO DUP1 ISZERO PUSH2 0xDB3 JUMPI PUSH1 0x0 DUP1 REVERT JUMPDEST POP GAS CALL ISZERO DUP1 ISZERO PUSH2 0xDC7 JUMPI RETURNDATASIZE PUSH1 0x0 DUP1 RETURNDATACOPY RETURNDATASIZE PUSH1 0x0 REVERT JUMPDEST POP POP POP POP POP POP POP POP POP POP POP POP POP POP POP JUMP JUMPDEST PUSH1 0x40 DUP2 MLOAD EQ PUSH2 0xE29 JUMPI PUSH1 0x40 MLOAD PUSH3 0x461BCD PUSH1 0xE5 SHL DUP2 MSTORE PUSH1 0x20 PUSH1 0x4 DUP3 ADD MSTORE PUSH1 0x1D PUSH1 0x24 DUP3 ADD MSTORE PUSH32 0x484F505F494E56414C49445F4C325F4C315F444154415F4C454E475448000000 PUSH1 0x44 DUP3 ADD MSTORE PUSH1 0x64 ADD PUSH2 0x152 JUMP JUMPDEST PUSH1 0x0 DUP1 DUP3 DUP1 PUSH1 0x20 ADD SWAP1 MLOAD DUP2 ADD SWAP1 PUSH2 0xE40 SWAP2 SWAP1 PUSH2 0x1A68 JUMP JUMPDEST SWAP2 POP SWAP2 POP PUSH1 0x0 PUSH2 0xE51 DUP4 DUP10 DUP10 PUSH2 0x12B4 JUMP JUMPDEST PUSH1 0x40 MLOAD PUSH32 0xEEA0D7B200000000000000000000000000000000000000000000000000000000 DUP2 MSTORE PUSH1 0x4 DUP2 ADD DUP12 SWAP1 MSTORE PUSH20 0xFFFFFFFFFFFFFFFFFFFFFFFFFFFFFFFFFFFFFFFF DUP8 DUP2 AND PUSH1 0x24 DUP4 ADD MSTORE PUSH1 0x44 DUP3 ADD DUP11 SWAP1 MSTORE PUSH1 0x64 DUP3 ADD DUP6 SWAP1 MSTORE PUSH1 0x84 DUP3 ADD DUP10 SWAP1 MSTORE TIMESTAMP PUSH1 0xA4 DUP4 ADD MSTORE PUSH1 0x0 PUSH1 0xC4 DUP4 ADD DUP2 SWAP1 MSTORE PUSH1 0xE4 DUP4 ADD MSTORE SWAP2 SWAP3 POP SWAP1 DUP5 AND SWAP1 PUSH4 0xEEA0D7B2 SWAP1 DUP4 SWAP1 PUSH2 0x104 ADD PUSH1 0x0 PUSH1 0x40 MLOAD DUP1 DUP4 SUB DUP2 DUP6 DUP9 DUP1 EXTCODESIZE ISZERO DUP1 ISZERO PUSH2 0xEF0 JUMPI PUSH1 0x0 DUP1 REVERT JUMPDEST POP GAS CALL ISZERO DUP1 ISZERO PUSH2 0xF04 JUMPI RETURNDATASIZE PUSH1 0x0 DUP1 RETURNDATACOPY RETURNDATASIZE PUSH1 0x0 REVERT JUMPDEST POP POP POP POP POP POP POP POP POP POP POP POP POP POP JUMP JUMPDEST PUSH1 0x60 PUSH1 0x1 DUP3 EQ ISZERO PUSH2 0xF59 JUMPI POP PUSH1 0x40 DUP1 MLOAD DUP1 DUP3 ADD SWAP1 SWAP2 MSTORE PUSH1 0x8 DUP2 MSTORE PUSH32 0x457468657265756D000000000000000000000000000000000000000000000000 PUSH1 0x20 DUP3 ADD MSTORE PUSH2 0xA81 JUMP JUMPDEST PUSH1 0x89 DUP3 EQ ISZERO PUSH2 0xF9C JUMPI POP PUSH1 0x40 DUP1 MLOAD DUP1 DUP3 ADD SWAP1 SWAP2 MSTORE PUSH1 0x7 DUP2 MSTORE PUSH32 0x506F6C79676F6E00000000000000000000000000000000000000000000000000 PUSH1 0x20 DUP3 ADD MSTORE PUSH2 0xA81 JUMP JUMPDEST PUSH2 0xA4B1 DUP3 EQ ISZERO PUSH2 0xFE0 JUMPI POP PUSH1 0x40 DUP1 MLOAD DUP1 DUP3 ADD SWAP1 SWAP2 MSTORE PUSH1 0x8 DUP2 MSTORE PUSH32 0x617262697472756D000000000000000000000000000000000000000000000000 PUSH1 0x20 DUP3 ADD MSTORE PUSH2 0xA81 JUMP JUMPDEST PUSH1 0x38 DUP3 EQ ISZERO PUSH2 0x1023 JUMPI POP PUSH1 0x40 DUP1 MLOAD DUP1 DUP3 ADD SWAP1 SWAP2 MSTORE PUSH1 0x7 DUP2 MSTORE PUSH32 0x62696E616E636500000000000000000000000000000000000000000000000000 PUSH1 0x20 DUP3 ADD MSTORE PUSH2 0xA81 JUMP JUMPDEST PUSH1 0xFA DUP3 EQ ISZERO PUSH2 0x1066 JUMPI POP PUSH1 0x40 DUP1 MLOAD DUP1 DUP3 ADD SWAP1 SWAP2 MSTORE PUSH1 0x6 DUP2 MSTORE PUSH32 0x46616E746F6D0000000000000000000000000000000000000000000000000000 PUSH1 0x20 DUP3 ADD MSTORE PUSH2 0xA81 JUMP JUMPDEST PUSH2 0xA86A DUP3 EQ ISZERO PUSH2 0x10AA JUMPI POP PUSH1 0x40 DUP1 MLOAD DUP1 DUP3 ADD SWAP1 SWAP2 MSTORE PUSH1 0x9 DUP2 MSTORE PUSH32 0x4176616C616E6368650000000000000000000000000000000000000000000000 PUSH1 0x20 DUP3 ADD MSTORE PUSH2 0xA81 JUMP JUMPDEST PUSH1 0x40 MLOAD PUSH3 0x461BCD PUSH1 0xE5 SHL DUP2 MSTORE PUSH1 0x20 PUSH1 0x4 DUP3 ADD MSTORE PUSH1 0x17 PUSH1 0x24 DUP3 ADD MSTORE PUSH32 0x4158454C41525F554E4B4E4F574E5F434841494E5F4944000000000000000000 PUSH1 0x44 DUP3 ADD MSTORE PUSH1 0x64 ADD PUSH2 0x152 JUMP JUMPDEST PUSH2 0x10FE DUP4 DUP4 PUSH1 0x0 PUSH2 0x13A7 JUMP JUMPDEST PUSH2 0x1109 DUP4 DUP4 DUP4 PUSH2 0x13A7 JUMP JUMPDEST POP POP POP JUMP JUMPDEST PUSH1 0x60 PUSH2 0xA7E PUSH20 0xFFFFFFFFFFFFFFFFFFFFFFFFFFFFFFFFFFFFFFFF DUP4 AND PUSH1 0x14 PUSH2 0x1555 JUMP JUMPDEST PUSH1 0x0 PUSH1 0x1 DUP3 EQ ISZERO PUSH2 0x1146 JUMPI POP PUSH3 0x657468 PUSH2 0xA81 JUMP JUMPDEST PUSH1 0x89 DUP3 EQ ISZERO PUSH2 0x115A JUMPI POP PUSH4 0x706F6C79 PUSH2 0xA81 JUMP JUMPDEST PUSH2 0xA4B1 DUP3 EQ ISZERO PUSH2 0x116F JUMPI POP PUSH4 0x6172626F PUSH2 0xA81 JUMP JUMPDEST PUSH1 0xA DUP3 EQ ISZERO PUSH2 0x1183 JUMPI POP PUSH4 0x6F707469 PUSH2 0xA81 JUMP JUMPDEST PUSH1 0x64 DUP3 EQ ISZERO PUSH2 0x1196 JUMPI POP PUSH3 0x676E6F PUSH2 0xA81 JUMP JUMPDEST PUSH1 0x38 DUP3 EQ ISZERO PUSH2 0x11A9 JUMPI POP PUSH3 0x626E62 PUSH2 0xA81 JUMP JUMPDEST PUSH1 0x40 MLOAD PUSH3 0x461BCD PUSH1 0xE5 SHL DUP2 MSTORE PUSH1 0x20 PUSH1 0x4 DUP3 ADD MSTORE PUSH1 0x18 PUSH1 0x24 DUP3 ADD MSTORE PUSH32 0x434F4E4E4558545F554E4B4E4F574E5F434841494E5F49440000000000000000 PUSH1 0x44 DUP3 ADD MSTORE PUSH1 0x64 ADD PUSH2 0x152 JUMP JUMPDEST PUSH1 0x0 PUSH1 0x1 DUP3 EQ ISZERO PUSH2 0x1204 JUMPI POP PUSH1 0x2 PUSH2 0xA81 JUMP JUMPDEST PUSH1 0x89 DUP3 EQ ISZERO PUSH2 0x1215 JUMPI POP PUSH1 0x5 PUSH2 0xA81 JUMP JUMPDEST PUSH2 0xA4B1 DUP3 EQ ISZERO PUSH2 0x1227 JUMPI POP PUSH1 0x17 PUSH2 0xA81 JUMP JUMPDEST PUSH1 0xA DUP3 EQ ISZERO PUSH2 0x1238 JUMPI POP PUSH1 0x18 PUSH2 0xA81 JUMP JUMPDEST PUSH1 0x38 DUP3 EQ ISZERO PUSH2 0x1249 JUMPI POP PUSH1 0x4 PUSH2 0xA81 JUMP JUMPDEST PUSH1 0xFA DUP3 EQ ISZERO PUSH2 0x125A JUMPI POP PUSH1 0xA PUSH2 0xA81 JUMP JUMPDEST PUSH2 0xA86A DUP3 EQ ISZERO PUSH2 0x126C JUMPI POP PUSH1 0x6 PUSH2 0xA81 JUMP JUMPDEST PUSH1 0x40 MLOAD PUSH3 0x461BCD PUSH1 0xE5 SHL DUP2 MSTORE PUSH1 0x20 PUSH1 0x4 DUP3 ADD MSTORE PUSH1 0x19 PUSH1 0x24 DUP3 ADD MSTORE PUSH32 0x574F524D484F4C455F554E4B4E4F574E5F434841494E5F494400000000000000 PUSH1 0x44 DUP3 ADD MSTORE PUSH1 0x64 ADD PUSH2 0x152 JUMP JUMPDEST PUSH1 0x0 PUSH32 0x0 PUSH20 0xFFFFFFFFFFFFFFFFFFFFFFFFFFFFFFFFFFFFFFFF AND DUP4 PUSH20 0xFFFFFFFFFFFFFFFFFFFFFFFFFFFFFFFFFFFFFFFF AND EQ ISZERO PUSH2 0x1392 JUMPI POP PUSH1 0x40 MLOAD PUSH32 0x2E1A7D4D00000000000000000000000000000000000000000000000000000000 DUP2 MSTORE PUSH1 0x4 DUP2 ADD DUP3 SWAP1 MSTORE DUP2 SWAP1 PUSH20 0xFFFFFFFFFFFFFFFFFFFFFFFFFFFFFFFFFFFFFFFF DUP5 AND SWAP1 PUSH4 0x2E1A7D4D SWAP1 PUSH1 0x24 ADD PUSH1 0x0 PUSH1 0x40 MLOAD DUP1 DUP4 SUB DUP2 PUSH1 0x0 DUP8 DUP1 EXTCODESIZE ISZERO DUP1 ISZERO PUSH2 0x1375 JUMPI PUSH1 0x0 DUP1 REVERT JUMPDEST POP GAS CALL ISZERO DUP1 ISZERO PUSH2 0x1389 JUMPI RETURNDATASIZE PUSH1 0x0 DUP1 RETURNDATACOPY RETURNDATASIZE PUSH1 0x0 REVERT JUMPDEST POP POP POP POP PUSH2 0x13A0 JUMP JUMPDEST POP PUSH1 0x0 PUSH2 0x13A0 DUP4 DUP6 DUP5 PUSH2 0x10F2 JUMP JUMPDEST SWAP4 SWAP3 POP POP POP JUMP JUMPDEST DUP1 ISZERO DUP1 PUSH2 0x1456 JUMPI POP PUSH1 0x40 MLOAD PUSH32 0xDD62ED3E00000000000000000000000000000000000000000000000000000000 DUP2 MSTORE ADDRESS PUSH1 0x4 DUP3 ADD MSTORE PUSH20 0xFFFFFFFFFFFFFFFFFFFFFFFFFFFFFFFFFFFFFFFF DUP4 DUP2 AND PUSH1 0x24 DUP4 ADD MSTORE DUP5 AND SWAP1 PUSH4 0xDD62ED3E SWAP1 PUSH1 0x44 ADD PUSH1 0x20 PUSH1 0x40 MLOAD DUP1 DUP4 SUB DUP2 DUP7 DUP1 EXTCODESIZE ISZERO DUP1 ISZERO PUSH2 0x141C JUMPI PUSH1 0x0 DUP1 REVERT JUMPDEST POP GAS STATICCALL ISZERO DUP1 ISZERO PUSH2 0x1430 JUMPI RETURNDATASIZE PUSH1 0x0 DUP1 RETURNDATACOPY RETURNDATASIZE PUSH1 0x0 REVERT JUMPDEST POP POP POP POP PUSH1 0x40 MLOAD RETURNDATASIZE PUSH1 0x1F NOT PUSH1 0x1F DUP3 ADD AND DUP3 ADD DUP1 PUSH1 0x40 MSTORE POP DUP2 ADD SWAP1 PUSH2 0x1454 SWAP2 SWAP1 PUSH2 0x1B33 JUMP JUMPDEST ISZERO JUMPDEST PUSH2 0x14C8 JUMPI PUSH1 0x40 MLOAD PUSH3 0x461BCD PUSH1 0xE5 SHL DUP2 MSTORE PUSH1 0x20 PUSH1 0x4 DUP3 ADD MSTORE PUSH1 0x36 PUSH1 0x24 DUP3 ADD MSTORE PUSH32 0x5361666545524332303A20617070726F76652066726F6D206E6F6E2D7A65726F PUSH1 0x44 DUP3 ADD MSTORE PUSH32 0x20746F206E6F6E2D7A65726F20616C6C6F77616E636500000000000000000000 PUSH1 0x64 DUP3 ADD MSTORE PUSH1 0x84 ADD PUSH2 0x152 JUMP JUMPDEST PUSH1 0x40 DUP1 MLOAD PUSH20 0xFFFFFFFFFFFFFFFFFFFFFFFFFFFFFFFFFFFFFFFF DUP5 AND PUSH1 0x24 DUP3 ADD MSTORE PUSH1 0x44 DUP1 DUP3 ADD DUP5 SWAP1 MSTORE DUP3 MLOAD DUP1 DUP4 SUB SWAP1 SWAP2 ADD DUP2 MSTORE PUSH1 0x64 SWAP1 SWAP2 ADD SWAP1 SWAP2 MSTORE PUSH1 0x20 DUP2 ADD DUP1 MLOAD PUSH28 0xFFFFFFFFFFFFFFFFFFFFFFFFFFFFFFFFFFFFFFFFFFFFFFFFFFFFFFFF AND PUSH32 0x95EA7B300000000000000000000000000000000000000000000000000000000 OR SWAP1 MSTORE PUSH2 0x1109 SWAP1 DUP5 SWAP1 PUSH2 0x17C4 JUMP JUMPDEST PUSH1 0x60 PUSH1 0x0 PUSH2 0x1564 DUP4 PUSH1 0x2 PUSH2 0x1EBB JUMP JUMPDEST PUSH2 0x156F SWAP1 PUSH1 0x2 PUSH2 0x1E83 JUMP JUMPDEST PUSH8 0xFFFFFFFFFFFFFFFF DUP2 GT ISZERO PUSH2 0x1595 JUMPI PUSH4 0x4E487B71 PUSH1 0xE0 SHL PUSH1 0x0 MSTORE PUSH1 0x41 PUSH1 0x4 MSTORE PUSH1 0x24 PUSH1 0x0 REVERT JUMPDEST PUSH1 0x40 MLOAD SWAP1 DUP1 DUP3 MSTORE DUP1 PUSH1 0x1F ADD PUSH1 0x1F NOT AND PUSH1 0x20 ADD DUP3 ADD PUSH1 0x40 MSTORE DUP1 ISZERO PUSH2 0x15BF JUMPI PUSH1 0x20 DUP3 ADD DUP2 DUP1 CALLDATASIZE DUP4 CALLDATACOPY ADD SWAP1 POP JUMPDEST POP SWAP1 POP PUSH32 0x3000000000000000000000000000000000000000000000000000000000000000 DUP2 PUSH1 0x0 DUP2 MLOAD DUP2 LT PUSH2 0x1604 JUMPI PUSH4 0x4E487B71 PUSH1 0xE0 SHL PUSH1 0x0 MSTORE PUSH1 0x32 PUSH1 0x4 MSTORE PUSH1 0x24 PUSH1 0x0 REVERT JUMPDEST PUSH1 0x20 ADD ADD SWAP1 PUSH31 0xFFFFFFFFFFFFFFFFFFFFFFFFFFFFFFFFFFFFFFFFFFFFFFFFFFFFFFFFFFFFFF NOT AND SWAP1 DUP2 PUSH1 0x0 BYTE SWAP1 MSTORE8 POP PUSH32 0x7800000000000000000000000000000000000000000000000000000000000000 DUP2 PUSH1 0x1 DUP2 MLOAD DUP2 LT PUSH2 0x1675 JUMPI PUSH4 0x4E487B71 PUSH1 0xE0 SHL PUSH1 0x0 MSTORE PUSH1 0x32 PUSH1 0x4 MSTORE PUSH1 0x24 PUSH1 0x0 REVERT JUMPDEST PUSH1 0x20 ADD ADD SWAP1 PUSH31 0xFFFFFFFFFFFFFFFFFFFFFFFFFFFFFFFFFFFFFFFFFFFFFFFFFFFFFFFFFFFFFF NOT AND SWAP1 DUP2 PUSH1 0x0 BYTE SWAP1 MSTORE8 POP PUSH1 0x0 PUSH2 0x16B1 DUP5 PUSH1 0x2 PUSH2 0x1EBB JUMP JUMPDEST PUSH2 0x16BC SWAP1 PUSH1 0x1 PUSH2 0x1E83 JUMP JUMPDEST SWAP1 POP JUMPDEST PUSH1 0x1 DUP2 GT ISZERO PUSH2 0x1775 JUMPI PUSH32 0x3031323334353637383961626364656600000000000000000000000000000000 DUP6 PUSH1 0xF AND PUSH1 0x10 DUP2 LT PUSH2 0x170B JUMPI PUSH4 0x4E487B71 PUSH1 0xE0 SHL PUSH1 0x0 MSTORE PUSH1 0x32 PUSH1 0x4 MSTORE PUSH1 0x24 PUSH1 0x0 REVERT JUMPDEST BYTE PUSH1 0xF8 SHL DUP3 DUP3 DUP2 MLOAD DUP2 LT PUSH2 0x172F JUMPI PUSH4 0x4E487B71 PUSH1 0xE0 SHL PUSH1 0x0 MSTORE PUSH1 0x32 PUSH1 0x4 MSTORE PUSH1 0x24 PUSH1 0x0 REVERT JUMPDEST PUSH1 0x20 ADD ADD SWAP1 PUSH31 0xFFFFFFFFFFFFFFFFFFFFFFFFFFFFFFFFFFFFFFFFFFFFFFFFFFFFFFFFFFFFFF NOT AND SWAP1 DUP2 PUSH1 0x0 BYTE SWAP1 MSTORE8 POP PUSH1 0x4 SWAP5 SWAP1 SWAP5 SHR SWAP4 PUSH2 0x176E DUP2 PUSH2 0x1F3F JUMP JUMPDEST SWAP1 POP PUSH2 0x16BF JUMP JUMPDEST POP DUP4 ISZERO PUSH2 0x13A0 JUMPI PUSH1 0x40 MLOAD PUSH3 0x461BCD PUSH1 0xE5 SHL DUP2 MSTORE PUSH1 0x20 PUSH1 0x4 DUP3 ADD DUP2 SWAP1 MSTORE PUSH1 0x24 DUP3 ADD MSTORE PUSH32 0x537472696E67733A20686578206C656E67746820696E73756666696369656E74 PUSH1 0x44 DUP3 ADD MSTORE PUSH1 0x64 ADD PUSH2 0x152 JUMP JUMPDEST PUSH1 0x0 PUSH2 0x1826 DUP3 PUSH1 0x40 MLOAD DUP1 PUSH1 0x40 ADD PUSH1 0x40 MSTORE DUP1 PUSH1 0x20 DUP2 MSTORE PUSH1 0x20 ADD PUSH32 0x5361666545524332303A206C6F772D6C6576656C2063616C6C206661696C6564 DUP2 MSTORE POP DUP6 PUSH20 0xFFFFFFFFFFFFFFFFFFFFFFFFFFFFFFFFFFFFFFFF AND PUSH2 0x18B6 SWAP1 SWAP3 SWAP2 SWAP1 PUSH4 0xFFFFFFFF AND JUMP JUMPDEST DUP1 MLOAD SWAP1 SWAP2 POP ISZERO PUSH2 0x1109 JUMPI DUP1 DUP1 PUSH1 0x20 ADD SWAP1 MLOAD DUP2 ADD SWAP1 PUSH2 0x1844 SWAP2 SWAP1 PUSH2 0x1B13 JUMP JUMPDEST PUSH2 0x1109 JUMPI PUSH1 0x40 MLOAD PUSH3 0x461BCD PUSH1 0xE5 SHL DUP2 MSTORE PUSH1 0x20 PUSH1 0x4 DUP3 ADD MSTORE PUSH1 0x2A PUSH1 0x24 DUP3 ADD MSTORE PUSH32 0x5361666545524332303A204552433230206F7065726174696F6E20646964206E PUSH1 0x44 DUP3 ADD MSTORE PUSH32 0x6F74207375636365656400000000000000000000000000000000000000000000 PUSH1 0x64 DUP3 ADD MSTORE PUSH1 0x84 ADD PUSH2 0x152 JUMP JUMPDEST PUSH1 0x60 PUSH2 0x18C5 DUP5 DUP5 PUSH1 0x0 DUP6 PUSH2 0x18CD JUMP JUMPDEST SWAP5 SWAP4 POP POP POP POP JUMP JUMPDEST PUSH1 0x60 DUP3 SELFBALANCE LT ISZERO PUSH2 0x1945 JUMPI PUSH1 0x40 MLOAD PUSH3 0x461BCD PUSH1 0xE5 SHL DUP2 MSTORE PUSH1 0x20 PUSH1 0x4 DUP3 ADD MSTORE PUSH1 0x26 PUSH1 0x24 DUP3 ADD MSTORE PUSH32 0x416464726573733A20696E73756666696369656E742062616C616E636520666F PUSH1 0x44 DUP3 ADD MSTORE PUSH32 0x722063616C6C0000000000000000000000000000000000000000000000000000 PUSH1 0x64 DUP3 ADD MSTORE PUSH1 0x84 ADD PUSH2 0x152 JUMP JUMPDEST PUSH20 0xFFFFFFFFFFFFFFFFFFFFFFFFFFFFFFFFFFFFFFFF DUP6 AND EXTCODESIZE PUSH2 0x19A9 JUMPI PUSH1 0x40 MLOAD PUSH3 0x461BCD PUSH1 0xE5 SHL DUP2 MSTORE PUSH1 0x20 PUSH1 0x4 DUP3 ADD MSTORE PUSH1 0x1D PUSH1 0x24 DUP3 ADD MSTORE PUSH32 0x416464726573733A2063616C6C20746F206E6F6E2D636F6E7472616374000000 PUSH1 0x44 DUP3 ADD MSTORE PUSH1 0x64 ADD PUSH2 0x152 JUMP JUMPDEST PUSH1 0x0 DUP1 DUP7 PUSH20 0xFFFFFFFFFFFFFFFFFFFFFFFFFFFFFFFFFFFFFFFF AND DUP6 DUP8 PUSH1 0x40 MLOAD PUSH2 0x19D2 SWAP2 SWAP1 PUSH2 0x1D04 JUMP JUMPDEST PUSH1 0x0 PUSH1 0x40 MLOAD DUP1 DUP4 SUB DUP2 DUP6 DUP8 GAS CALL SWAP3 POP POP POP RETURNDATASIZE DUP1 PUSH1 0x0 DUP2 EQ PUSH2 0x1A0F JUMPI PUSH1 0x40 MLOAD SWAP2 POP PUSH1 0x1F NOT PUSH1 0x3F RETURNDATASIZE ADD AND DUP3 ADD PUSH1 0x40 MSTORE RETURNDATASIZE DUP3 MSTORE RETURNDATASIZE PUSH1 0x0 PUSH1 0x20 DUP5 ADD RETURNDATACOPY PUSH2 0x1A14 JUMP JUMPDEST PUSH1 0x60 SWAP2 POP JUMPDEST POP SWAP2 POP SWAP2 POP PUSH2 0x1A24 DUP3 DUP3 DUP7 PUSH2 0x1A2F JUMP JUMPDEST SWAP8 SWAP7 POP POP POP POP POP POP POP JUMP JUMPDEST PUSH1 0x60 DUP4 ISZERO PUSH2 0x1A3E JUMPI POP DUP2 PUSH2 0x13A0 JUMP JUMPDEST DUP3 MLOAD ISZERO PUSH2 0x1A4E JUMPI DUP3 MLOAD DUP1 DUP5 PUSH1 0x20 ADD REVERT JUMPDEST DUP2 PUSH1 0x40 MLOAD PUSH3 0x461BCD PUSH1 0xE5 SHL DUP2 MSTORE PUSH1 0x4 ADD PUSH2 0x152 SWAP2 SWAP1 PUSH2 0x1D20 JUMP JUMPDEST PUSH1 0x0 DUP1 PUSH1 0x40 DUP4 DUP6 SUB SLT ISZERO PUSH2 0x1A7A JUMPI DUP2 DUP3 REVERT JUMPDEST DUP3 MLOAD PUSH2 0x1A85 DUP2 PUSH2 0x1FA0 JUMP JUMPDEST PUSH1 0x20 SWAP4 SWAP1 SWAP4 ADD MLOAD SWAP3 SWAP5 SWAP3 SWAP4 POP POP POP JUMP JUMPDEST PUSH1 0x0 DUP1 PUSH1 0x0 DUP1 PUSH1 0x80 DUP6 DUP8 SUB SLT ISZERO PUSH2 0x1AAA JUMPI DUP2 DUP3 REVERT JUMPDEST DUP5 MLOAD PUSH2 0x1AB5 DUP2 PUSH2 0x1FA0 JUMP JUMPDEST PUSH1 0x20 DUP7 ADD MLOAD PUSH1 0x40 DUP8 ADD MLOAD SWAP2 SWAP6 POP SWAP4 POP PUSH2 0x1ACD DUP2 PUSH2 0x1FA0 JUMP JUMPDEST PUSH1 0x60 SWAP6 SWAP1 SWAP6 ADD MLOAD SWAP4 SWAP7 SWAP3 SWAP6 POP POP POP JUMP JUMPDEST PUSH1 0x0 DUP1 PUSH1 0x0 PUSH1 0x60 DUP5 DUP7 SUB SLT ISZERO PUSH2 0x1AF1 JUMPI DUP3 DUP4 REVERT JUMPDEST DUP4 MLOAD PUSH2 0x1AFC DUP2 PUSH2 0x1FA0 JUMP JUMPDEST PUSH1 0x20 DUP6 ADD MLOAD PUSH1 0x40 SWAP1 SWAP6 ADD MLOAD SWAP1 SWAP7 SWAP5 SWAP6 POP SWAP4 SWAP3 POP POP POP JUMP JUMPDEST PUSH1 0x0 PUSH1 0x20 DUP3 DUP5 SUB SLT ISZERO PUSH2 0x1B24 JUMPI DUP1 DUP2 REVERT JUMPDEST DUP2 MLOAD DUP1 ISZERO ISZERO DUP2 EQ PUSH2 0x13A0 JUMPI DUP2 DUP3 REVERT JUMPDEST PUSH1 0x0 PUSH1 0x20 DUP3 DUP5 SUB SLT ISZERO PUSH2 0x1B44 JUMPI DUP1 DUP2 REVERT JUMPDEST POP MLOAD SWAP2 SWAP1 POP JUMP JUMPDEST PUSH1 0x0 PUSH1 0x20 DUP3 DUP5 SUB SLT ISZERO PUSH2 0x1B5C JUMPI DUP1 DUP2 REVERT JUMPDEST DUP2 MLOAD PUSH8 0xFFFFFFFFFFFFFFFF DUP2 GT ISZERO PUSH2 0x1B72 JUMPI DUP2 DUP3 REVERT JUMPDEST DUP3 ADD PUSH1 0x1F DUP2 ADD DUP5 SGT PUSH2 0x1B82 JUMPI DUP2 DUP3 REVERT JUMPDEST DUP1 MLOAD PUSH2 0x1B95 PUSH2 0x1B90 DUP3 PUSH2 0x1E3D JUMP JUMPDEST PUSH2 0x1DEE JUMP JUMPDEST DUP2 DUP2 MSTORE DUP6 PUSH1 0x20 DUP4 DUP6 ADD ADD GT ISZERO PUSH2 0x1BA9 JUMPI DUP4 DUP5 REVERT JUMPDEST PUSH2 0x1BBA DUP3 PUSH1 0x20 DUP4 ADD PUSH1 0x20 DUP7 ADD PUSH2 0x1F0F JUMP JUMPDEST SWAP6 SWAP5 POP POP POP POP POP JUMP JUMPDEST PUSH1 0x0 PUSH1 0x20 DUP3 DUP5 SUB SLT ISZERO PUSH2 0x1BD4 JUMPI DUP1 DUP2 REVERT JUMPDEST DUP2 MLOAD PUSH8 0xFFFFFFFFFFFFFFFF DUP2 AND DUP2 EQ PUSH2 0x13A0 JUMPI DUP2 DUP3 REVERT JUMPDEST PUSH1 0x0 DUP1 PUSH1 0x0 DUP1 PUSH1 0x0 DUP1 PUSH1 0x0 PUSH1 0xE0 DUP9 DUP11 SUB SLT ISZERO PUSH2 0x1C05 JUMPI DUP3 DUP4 REVERT JUMPDEST DUP8 CALLDATALOAD PUSH1 0xFF DUP2 AND DUP2 EQ PUSH2 0x1C15 JUMPI DUP4 DUP5 REVERT JUMPDEST SWAP7 POP PUSH1 0x20 DUP9 ADD CALLDATALOAD SWAP6 POP PUSH1 0x40 DUP9 ADD CALLDATALOAD PUSH2 0x1C2C DUP2 PUSH2 0x1FA0 JUMP JUMPDEST SWAP5 POP PUSH1 0x60 DUP9 ADD CALLDATALOAD SWAP4 POP PUSH1 0x80 DUP9 ADD CALLDATALOAD SWAP3 POP PUSH1 0xA0 DUP9 ADD CALLDATALOAD PUSH2 0x1C4A DUP2 PUSH2 0x1FA0 JUMP JUMPDEST SWAP2 POP PUSH1 0xC0 DUP9 ADD CALLDATALOAD PUSH8 0xFFFFFFFFFFFFFFFF DUP2 GT ISZERO PUSH2 0x1C65 JUMPI DUP2 DUP3 REVERT JUMPDEST DUP9 ADD PUSH1 0x1F DUP2 ADD DUP11 SGT PUSH2 0x1C75 JUMPI DUP2 DUP3 REVERT JUMPDEST DUP1 CALLDATALOAD PUSH2 0x1C83 PUSH2 0x1B90 DUP3 PUSH2 0x1E3D JUMP JUMPDEST DUP2 DUP2 MSTORE DUP12 PUSH1 0x20 DUP4 DUP6 ADD ADD GT ISZERO PUSH2 0x1C97 JUMPI DUP4 DUP5 REVERT JUMPDEST DUP2 PUSH1 0x20 DUP5 ADD PUSH1 0x20 DUP4 ADD CALLDATACOPY SWAP1 DUP2 ADD PUSH1 0x20 ADD SWAP3 SWAP1 SWAP3 MSTORE POP SWAP6 SWAP9 SWAP5 SWAP8 POP SWAP3 SWAP6 POP SWAP1 SWAP4 SWAP1 SWAP3 JUMP JUMPDEST PUSH1 0x0 DUP2 MLOAD DUP1 DUP5 MSTORE PUSH2 0x1CD2 DUP2 PUSH1 0x20 DUP7 ADD PUSH1 0x20 DUP7 ADD PUSH2 0x1F0F JUMP JUMPDEST PUSH1 0x1F ADD PUSH32 0xFFFFFFFFFFFFFFFFFFFFFFFFFFFFFFFFFFFFFFFFFFFFFFFFFFFFFFFFFFFFFFE0 AND SWAP3 SWAP1 SWAP3 ADD PUSH1 0x20 ADD SWAP3 SWAP2 POP POP JUMP JUMPDEST PUSH1 0x0 DUP3 MLOAD PUSH2 0x1D16 DUP2 DUP5 PUSH1 0x20 DUP8 ADD PUSH2 0x1F0F JUMP JUMPDEST SWAP2 SWAP1 SWAP2 ADD SWAP3 SWAP2 POP POP JUMP JUMPDEST PUSH1 0x0 PUSH1 0x20 DUP3 MSTORE PUSH2 0x13A0 PUSH1 0x20 DUP4 ADD DUP5 PUSH2 0x1CBA JUMP JUMPDEST PUSH1 0x0 PUSH1 0x80 DUP3 MSTORE PUSH2 0x1D46 PUSH1 0x80 DUP4 ADD DUP8 PUSH2 0x1CBA JUMP JUMPDEST DUP3 DUP2 SUB PUSH1 0x20 DUP5 ADD MSTORE PUSH2 0x1D58 DUP2 DUP8 PUSH2 0x1CBA JUMP JUMPDEST SWAP1 POP DUP3 DUP2 SUB PUSH1 0x40 DUP5 ADD MSTORE PUSH2 0x1D6C DUP2 DUP7 PUSH2 0x1CBA JUMP JUMPDEST SWAP2 POP POP DUP3 PUSH1 0x60 DUP4 ADD MSTORE SWAP6 SWAP5 POP POP POP POP POP JUMP JUMPDEST PUSH1 0x0 PUSH2 0x100 PUSH4 0xFFFFFFFF DUP12 AND DUP4 MSTORE PUSH20 0xFFFFFFFFFFFFFFFFFFFFFFFFFFFFFFFFFFFFFFFF DUP1 DUP12 AND PUSH1 0x20 DUP6 ADD MSTORE DUP1 DUP11 AND PUSH1 0x40 DUP6 ADD MSTORE DUP1 DUP10 AND PUSH1 0x60 DUP6 ADD MSTORE POP DUP7 PUSH1 0x80 DUP5 ADD MSTORE DUP6 PUSH1 0xA0 DUP5 ADD MSTORE DUP1 PUSH1 0xC0 DUP5 ADD MSTORE PUSH2 0x1DD8 DUP2 DUP5 ADD DUP7 PUSH2 0x1CBA JUMP JUMPDEST SWAP2 POP POP DUP3 PUSH1 0xE0 DUP4 ADD MSTORE SWAP10 SWAP9 POP POP POP POP POP POP POP POP POP JUMP JUMPDEST PUSH1 0x40 MLOAD PUSH1 0x1F DUP3 ADD PUSH32 0xFFFFFFFFFFFFFFFFFFFFFFFFFFFFFFFFFFFFFFFFFFFFFFFFFFFFFFFFFFFFFFE0 AND DUP2 ADD PUSH8 0xFFFFFFFFFFFFFFFF DUP2 GT DUP3 DUP3 LT OR ISZERO PUSH2 0x1E35 JUMPI PUSH2 0x1E35 PUSH2 0x1F8A JUMP JUMPDEST PUSH1 0x40 MSTORE SWAP2 SWAP1 POP JUMP JUMPDEST PUSH1 0x0 PUSH8 0xFFFFFFFFFFFFFFFF DUP3 GT ISZERO PUSH2 0x1E57 JUMPI PUSH2 0x1E57 PUSH2 0x1F8A JUMP JUMPDEST POP PUSH1 0x1F ADD PUSH32 0xFFFFFFFFFFFFFFFFFFFFFFFFFFFFFFFFFFFFFFFFFFFFFFFFFFFFFFFFFFFFFFE0 AND PUSH1 0x20 ADD SWAP1 JUMP JUMPDEST PUSH1 0x0 DUP3 NOT DUP3 GT ISZERO PUSH2 0x1E96 JUMPI PUSH2 0x1E96 PUSH2 0x1F74 JUMP JUMPDEST POP ADD SWAP1 JUMP JUMPDEST PUSH1 0x0 DUP3 PUSH2 0x1EB6 JUMPI PUSH4 0x4E487B71 PUSH1 0xE0 SHL DUP2 MSTORE PUSH1 0x12 PUSH1 0x4 MSTORE PUSH1 0x24 DUP2 REVERT JUMPDEST POP DIV SWAP1 JUMP JUMPDEST PUSH1 0x0 DUP2 PUSH32 0xFFFFFFFFFFFFFFFFFFFFFFFFFFFFFFFFFFFFFFFFFFFFFFFFFFFFFFFFFFFFFFFF DIV DUP4 GT DUP3 ISZERO ISZERO AND ISZERO PUSH2 0x1EF3 JUMPI PUSH2 0x1EF3 PUSH2 0x1F74 JUMP JUMPDEST POP MUL SWAP1 JUMP JUMPDEST PUSH1 0x0 DUP3 DUP3 LT ISZERO PUSH2 0x1F0A JUMPI PUSH2 0x1F0A PUSH2 0x1F74 JUMP JUMPDEST POP SUB SWAP1 JUMP JUMPDEST PUSH1 0x0 JUMPDEST DUP4 DUP2 LT ISZERO PUSH2 0x1F2A JUMPI DUP2 DUP2 ADD MLOAD DUP4 DUP3 ADD MSTORE PUSH1 0x20 ADD PUSH2 0x1F12 JUMP JUMPDEST DUP4 DUP2 GT ISZERO PUSH2 0x1F39 JUMPI PUSH1 0x0 DUP5 DUP5 ADD MSTORE JUMPDEST POP POP POP POP JUMP JUMPDEST PUSH1 0x0 DUP2 PUSH2 0x1F4E JUMPI PUSH2 0x1F4E PUSH2 0x1F74 JUMP JUMPDEST POP PUSH32 0xFFFFFFFFFFFFFFFFFFFFFFFFFFFFFFFFFFFFFFFFFFFFFFFFFFFFFFFFFFFFFFFF ADD SWAP1 JUMP JUMPDEST PUSH4 0x4E487B71 PUSH1 0xE0 SHL PUSH1 0x0 MSTORE PUSH1 0x11 PUSH1 0x4 MSTORE PUSH1 0x24 PUSH1 0x0 REVERT JUMPDEST PUSH4 0x4E487B71 PUSH1 0xE0 SHL PUSH1 0x0 MSTORE PUSH1 0x41 PUSH1 0x4 MSTORE PUSH1 0x24 PUSH1 0x0 REVERT JUMPDEST PUSH20 0xFFFFFFFFFFFFFFFFFFFFFFFFFFFFFFFFFFFFFFFF DUP2 AND DUP2 EQ PUSH2 0x1FC2 JUMPI PUSH1 0x0 DUP1 REVERT JUMPDEST POP JUMP INVALID LOG2 PUSH5 0x6970667358 0x22 SLT KECCAK256 NOT PUSH3 0x685CEB COINBASE 0xF9 PUSH12 0x4C812126EBDE05F920B90FDF 0xD4 CODECOPY PUSH12 0xB85F8E742177B53F8764736F PUSH13 0x63430008030033000000000000 "},"methodIdentifiers":{"NAMESPACE()":"44ba1fca","bridge(uint8,uint256,address,uint256,uint256,address,bytes)":"f9cf051f","registry()":"7b103999"}}}}}