{"contracts/test/core/PriceOracleMock.sol":{"PriceOracleMock":{"abi":[{"inputs":[{"internalType":"address","name":"registry","type":"address"}],"stateMutability":"nonpayable","type":"constructor"},{"inputs":[],"name":"NAMESPACE","outputs":[{"internalType":"bytes32","name":"","type":"bytes32"}],"stateMutability":"view","type":"function"},{"inputs":[{"internalType":"address","name":"","type":"address"},{"internalType":"address","name":"base","type":"address"},{"internalType":"address","name":"quote","type":"address"}],"name":"getPrice","outputs":[{"internalType":"uint256","name":"","type":"uint256"}],"stateMutability":"view","type":"function"},{"inputs":[{"internalType":"address","name":"base","type":"address"},{"internalType":"address","name":"quote","type":"address"},{"internalType":"uint256","name":"newMockedRate","type":"uint256"}],"name":"mockRate","outputs":[],"stateMutability":"nonpayable","type":"function"},{"inputs":[{"internalType":"address","name":"","type":"address"},{"internalType":"address","name":"","type":"address"}],"name":"mockedFeeds","outputs":[{"internalType":"bool","name":"set","type":"bool"},{"internalType":"uint256","name":"rate","type":"uint256"}],"stateMutability":"view","type":"function"},{"inputs":[],"name":"registry","outputs":[{"internalType":"address","name":"","type":"address"}],"stateMutability":"view","type":"function"}],"evm":{"bytecode":{"linkReferences":{},"object":"60a060405234801561001057600080fd5b5060405161045438038061045483398101604081905261002f91610044565b60601b6001600160601b031916608052610072565b600060208284031215610055578081fd5b81516001600160a01b038116811461006b578182fd5b9392505050565b60805160601c6103c4610090600039600061010a01526103c46000f3fe608060405234801561001057600080fd5b50600436106100675760003560e01c80637100d05c116100505780637100d05c146100f25780637b10399914610105578063a95d991b1461015157610067565b80632ef06db51461006c57806344ba1fca146100bd575b600080fd5b6100a161007a3660046102df565b60006020818152928152604080822090935290815220805460019091015460ff9091169082565b6040805192151583526020830191909152015b60405180910390f35b6100e47fdd24a0f121e5ab7c3e97c63eaaf859e0b46792c3e0edfd86e2b3ad50f63011d881565b6040519081526020016100b4565b6100e4610100366004610311565b6101c4565b61012c7f000000000000000000000000000000000000000000000000000000000000000081565b60405173ffffffffffffffffffffffffffffffffffffffff90911681526020016100b4565b6101c261015f366004610353565b73ffffffffffffffffffffffffffffffffffffffff9283166000908152602081815260408083209490951682529290925291902080547fffffffffffffffffffffffffffffffffffffffffffffffffffffffffffffff0016600190811782550155565b005b60008173ffffffffffffffffffffffffffffffffffffffff168373ffffffffffffffffffffffffffffffffffffffff1614156102095750670de0b6b3a76400006102af565b73ffffffffffffffffffffffffffffffffffffffff808416600090815260208181526040808320938616835292905220805460ff166102a8576040517f08c379a000000000000000000000000000000000000000000000000000000000815260206004820152601960248201527f50524943455f4f5241434c455f464545445f4e4f545f53455400000000000000604482015260640160405180910390fd5b6001015490505b9392505050565b803573ffffffffffffffffffffffffffffffffffffffff811681146102da57600080fd5b919050565b600080604083850312156102f1578182fd5b6102fa836102b6565b9150610308602084016102b6565b90509250929050565b600080600060608486031215610325578081fd5b61032e846102b6565b925061033c602085016102b6565b915061034a604085016102b6565b90509250925092565b600080600060608486031215610367578283fd5b610370846102b6565b925061037e602085016102b6565b915060408401359050925092509256fea2646970667358221220cb4fb3c89fbae34f29bd394dd12c49b7992d923b7db99b359fac5697545abd2f64736f6c63430008030033","opcodes":"PUSH1 0xA0 PUSH1 0x40 MSTORE CALLVALUE DUP1 ISZERO PUSH2 0x10 JUMPI PUSH1 0x0 DUP1 REVERT JUMPDEST POP PUSH1 0x40 MLOAD PUSH2 0x454 CODESIZE SUB DUP1 PUSH2 0x454 DUP4 CODECOPY DUP2 ADD PUSH1 0x40 DUP2 SWAP1 MSTORE PUSH2 0x2F SWAP2 PUSH2 0x44 JUMP JUMPDEST PUSH1 0x60 SHL PUSH1 0x1 PUSH1 0x1 PUSH1 0x60 SHL SUB NOT AND PUSH1 0x80 MSTORE PUSH2 0x72 JUMP JUMPDEST PUSH1 0x0 PUSH1 0x20 DUP3 DUP5 SUB SLT ISZERO PUSH2 0x55 JUMPI DUP1 DUP2 REVERT JUMPDEST DUP2 MLOAD PUSH1 0x1 PUSH1 0x1 PUSH1 0xA0 SHL SUB DUP2 AND DUP2 EQ PUSH2 0x6B JUMPI DUP2 DUP3 REVERT JUMPDEST SWAP4 SWAP3 POP POP POP JUMP JUMPDEST PUSH1 0x80 MLOAD PUSH1 0x60 SHR PUSH2 0x3C4 PUSH2 0x90 PUSH1 0x0 CODECOPY PUSH1 0x0 PUSH2 0x10A ADD MSTORE PUSH2 0x3C4 PUSH1 0x0 RETURN INVALID PUSH1 0x80 PUSH1 0x40 MSTORE CALLVALUE DUP1 ISZERO PUSH2 0x10 JUMPI PUSH1 0x0 DUP1 REVERT JUMPDEST POP PUSH1 0x4 CALLDATASIZE LT PUSH2 0x67 JUMPI PUSH1 0x0 CALLDATALOAD PUSH1 0xE0 SHR DUP1 PUSH4 0x7100D05C GT PUSH2 0x50 JUMPI DUP1 PUSH4 0x7100D05C EQ PUSH2 0xF2 JUMPI DUP1 PUSH4 0x7B103999 EQ PUSH2 0x105 JUMPI DUP1 PUSH4 0xA95D991B EQ PUSH2 0x151 JUMPI PUSH2 0x67 JUMP JUMPDEST DUP1 PUSH4 0x2EF06DB5 EQ PUSH2 0x6C JUMPI DUP1 PUSH4 0x44BA1FCA EQ PUSH2 0xBD JUMPI JUMPDEST PUSH1 0x0 DUP1 REVERT JUMPDEST PUSH2 0xA1 PUSH2 0x7A CALLDATASIZE PUSH1 0x4 PUSH2 0x2DF JUMP JUMPDEST PUSH1 0x0 PUSH1 0x20 DUP2 DUP2 MSTORE SWAP3 DUP2 MSTORE PUSH1 0x40 DUP1 DUP3 KECCAK256 SWAP1 SWAP4 MSTORE SWAP1 DUP2 MSTORE KECCAK256 DUP1 SLOAD PUSH1 0x1 SWAP1 SWAP2 ADD SLOAD PUSH1 0xFF SWAP1 SWAP2 AND SWAP1 DUP3 JUMP JUMPDEST PUSH1 0x40 DUP1 MLOAD SWAP3 ISZERO ISZERO DUP4 MSTORE PUSH1 0x20 DUP4 ADD SWAP2 SWAP1 SWAP2 MSTORE ADD JUMPDEST PUSH1 0x40 MLOAD DUP1 SWAP2 SUB SWAP1 RETURN JUMPDEST PUSH2 0xE4 PUSH32 0xDD24A0F121E5AB7C3E97C63EAAF859E0B46792C3E0EDFD86E2B3AD50F63011D8 DUP2 JUMP JUMPDEST PUSH1 0x40 MLOAD SWAP1 DUP2 MSTORE PUSH1 0x20 ADD PUSH2 0xB4 JUMP JUMPDEST PUSH2 0xE4 PUSH2 0x100 CALLDATASIZE PUSH1 0x4 PUSH2 0x311 JUMP JUMPDEST PUSH2 0x1C4 JUMP JUMPDEST PUSH2 0x12C PUSH32 0x0 DUP2 JUMP JUMPDEST PUSH1 0x40 MLOAD PUSH20 0xFFFFFFFFFFFFFFFFFFFFFFFFFFFFFFFFFFFFFFFF SWAP1 SWAP2 AND DUP2 MSTORE PUSH1 0x20 ADD PUSH2 0xB4 JUMP JUMPDEST PUSH2 0x1C2 PUSH2 0x15F CALLDATASIZE PUSH1 0x4 PUSH2 0x353 JUMP JUMPDEST PUSH20 0xFFFFFFFFFFFFFFFFFFFFFFFFFFFFFFFFFFFFFFFF SWAP3 DUP4 AND PUSH1 0x0 SWAP1 DUP2 MSTORE PUSH1 0x20 DUP2 DUP2 MSTORE PUSH1 0x40 DUP1 DUP4 KECCAK256 SWAP5 SWAP1 SWAP6 AND DUP3 MSTORE SWAP3 SWAP1 SWAP3 MSTORE SWAP2 SWAP1 KECCAK256 DUP1 SLOAD PUSH32 0xFFFFFFFFFFFFFFFFFFFFFFFFFFFFFFFFFFFFFFFFFFFFFFFFFFFFFFFFFFFFFF00 AND PUSH1 0x1 SWAP1 DUP2 OR DUP3 SSTORE ADD SSTORE JUMP JUMPDEST STOP JUMPDEST PUSH1 0x0 DUP2 PUSH20 0xFFFFFFFFFFFFFFFFFFFFFFFFFFFFFFFFFFFFFFFF AND DUP4 PUSH20 0xFFFFFFFFFFFFFFFFFFFFFFFFFFFFFFFFFFFFFFFF AND EQ ISZERO PUSH2 0x209 JUMPI POP PUSH8 0xDE0B6B3A7640000 PUSH2 0x2AF JUMP JUMPDEST PUSH20 0xFFFFFFFFFFFFFFFFFFFFFFFFFFFFFFFFFFFFFFFF DUP1 DUP5 AND PUSH1 0x0 SWAP1 DUP2 MSTORE PUSH1 0x20 DUP2 DUP2 MSTORE PUSH1 0x40 DUP1 DUP4 KECCAK256 SWAP4 DUP7 AND DUP4 MSTORE SWAP3 SWAP1 MSTORE KECCAK256 DUP1 SLOAD PUSH1 0xFF AND PUSH2 0x2A8 JUMPI PUSH1 0x40 MLOAD PUSH32 0x8C379A000000000000000000000000000000000000000000000000000000000 DUP2 MSTORE PUSH1 0x20 PUSH1 0x4 DUP3 ADD MSTORE PUSH1 0x19 PUSH1 0x24 DUP3 ADD MSTORE PUSH32 0x50524943455F4F5241434C455F464545445F4E4F545F53455400000000000000 PUSH1 0x44 DUP3 ADD MSTORE PUSH1 0x64 ADD PUSH1 0x40 MLOAD DUP1 SWAP2 SUB SWAP1 REVERT JUMPDEST PUSH1 0x1 ADD SLOAD SWAP1 POP JUMPDEST SWAP4 SWAP3 POP POP POP JUMP JUMPDEST DUP1 CALLDATALOAD PUSH20 0xFFFFFFFFFFFFFFFFFFFFFFFFFFFFFFFFFFFFFFFF DUP2 AND DUP2 EQ PUSH2 0x2DA JUMPI PUSH1 0x0 DUP1 REVERT JUMPDEST SWAP2 SWAP1 POP JUMP JUMPDEST PUSH1 0x0 DUP1 PUSH1 0x40 DUP4 DUP6 SUB SLT ISZERO PUSH2 0x2F1 JUMPI DUP2 DUP3 REVERT JUMPDEST PUSH2 0x2FA DUP4 PUSH2 0x2B6 JUMP JUMPDEST SWAP2 POP PUSH2 0x308 PUSH1 0x20 DUP5 ADD PUSH2 0x2B6 JUMP JUMPDEST SWAP1 POP SWAP3 POP SWAP3 SWAP1 POP JUMP JUMPDEST PUSH1 0x0 DUP1 PUSH1 0x0 PUSH1 0x60 DUP5 DUP7 SUB SLT ISZERO PUSH2 0x325 JUMPI DUP1 DUP2 REVERT JUMPDEST PUSH2 0x32E DUP5 PUSH2 0x2B6 JUMP JUMPDEST SWAP3 POP PUSH2 0x33C PUSH1 0x20 DUP6 ADD PUSH2 0x2B6 JUMP JUMPDEST SWAP2 POP PUSH2 0x34A PUSH1 0x40 DUP6 ADD PUSH2 0x2B6 JUMP JUMPDEST SWAP1 POP SWAP3 POP SWAP3 POP SWAP3 JUMP JUMPDEST PUSH1 0x0 DUP1 PUSH1 0x0 PUSH1 0x60 DUP5 DUP7 SUB SLT ISZERO PUSH2 0x367 JUMPI DUP3 DUP4 REVERT JUMPDEST PUSH2 0x370 DUP5 PUSH2 0x2B6 JUMP JUMPDEST SWAP3 POP PUSH2 0x37E PUSH1 0x20 DUP6 ADD PUSH2 0x2B6 JUMP JUMPDEST SWAP2 POP PUSH1 0x40 DUP5 ADD CALLDATALOAD SWAP1 POP SWAP3 POP SWAP3 POP SWAP3 JUMP INVALID LOG2 PUSH5 0x6970667358 0x22 SLT KECCAK256 0xCB 0x4F 0xB3 0xC8 SWAP16 0xBA 0xE3 0x4F 0x29 0xBD CODECOPY 0x4D 0xD1 0x2C 0x49 0xB7 SWAP10 0x2D SWAP3 EXTCODESIZE PUSH30 0xB99B359FAC5697545ABD2F64736F6C634300080300330000000000000000 "},"methodIdentifiers":{"NAMESPACE()":"44ba1fca","getPrice(address,address,address)":"7100d05c","mockRate(address,address,uint256)":"a95d991b","mockedFeeds(address,address)":"2ef06db5","registry()":"7b103999"}}}}}