{"contracts/SmartVault.sol":{"SmartVault":{"abi":[{"inputs":[{"internalType":"address","name":"_wrappedNativeToken","type":"address"},{"internalType":"address","name":"_registry","type":"address"}],"stateMutability":"nonpayable","type":"constructor"},{"anonymous":false,"inputs":[{"indexed":true,"internalType":"address","name":"who","type":"address"},{"indexed":false,"internalType":"bytes4","name":"what","type":"bytes4"}],"name":"Authorized","type":"event"},{"anonymous":false,"inputs":[{"indexed":true,"internalType":"uint8","name":"source","type":"uint8"},{"indexed":true,"internalType":"uint256","name":"chainId","type":"uint256"},{"indexed":true,"internalType":"address","name":"token","type":"address"},{"indexed":false,"internalType":"uint256","name":"amountIn","type":"uint256"},{"indexed":false,"internalType":"uint256","name":"minAmountOut","type":"uint256"},{"indexed":false,"internalType":"uint256","name":"fee","type":"uint256"},{"indexed":false,"internalType":"address","name":"recipient","type":"address"},{"indexed":false,"internalType":"bytes","name":"data","type":"bytes"}],"name":"Bridge","type":"event"},{"anonymous":false,"inputs":[{"indexed":true,"internalType":"address","name":"bridgeConnector","type":"address"}],"name":"BridgeConnectorSet","type":"event"},{"anonymous":false,"inputs":[{"indexed":false,"internalType":"uint256","name":"pct","type":"uint256"},{"indexed":false,"internalType":"uint256","name":"cap","type":"uint256"},{"indexed":false,"internalType":"address","name":"token","type":"address"},{"indexed":false,"internalType":"uint256","name":"period","type":"uint256"}],"name":"BridgeFeeSet","type":"event"},{"anonymous":false,"inputs":[{"indexed":true,"internalType":"address","name":"target","type":"address"},{"indexed":false,"internalType":"bytes","name":"callData","type":"bytes"},{"indexed":false,"internalType":"uint256","name":"value","type":"uint256"},{"indexed":false,"internalType":"bytes","name":"result","type":"bytes"},{"indexed":false,"internalType":"bytes","name":"data","type":"bytes"}],"name":"Call","type":"event"},{"anonymous":false,"inputs":[{"indexed":true,"internalType":"address","name":"strategy","type":"address"},{"indexed":false,"internalType":"address[]","name":"tokens","type":"address[]"},{"indexed":false,"internalType":"uint256[]","name":"amounts","type":"uint256[]"},{"indexed":false,"internalType":"bytes","name":"data","type":"bytes"}],"name":"Claim","type":"event"},{"anonymous":false,"inputs":[{"indexed":true,"internalType":"address","name":"token","type":"address"},{"indexed":true,"internalType":"address","name":"from","type":"address"},{"indexed":false,"internalType":"uint256","name":"collected","type":"uint256"},{"indexed":false,"internalType":"bytes","name":"data","type":"bytes"}],"name":"Collect","type":"event"},{"anonymous":false,"inputs":[{"indexed":true,"internalType":"address","name":"strategy","type":"address"},{"indexed":false,"internalType":"address[]","name":"tokensIn","type":"address[]"},{"indexed":false,"internalType":"uint256[]","name":"amountsIn","type":"uint256[]"},{"indexed":false,"internalType":"address[]","name":"tokensOut","type":"address[]"},{"indexed":false,"internalType":"uint256[]","name":"amountsOut","type":"uint256[]"},{"indexed":false,"internalType":"uint256","name":"value","type":"uint256"},{"indexed":false,"internalType":"uint256[]","name":"fees","type":"uint256[]"},{"indexed":false,"internalType":"uint256","name":"slippage","type":"uint256"},{"indexed":false,"internalType":"bytes","name":"data","type":"bytes"}],"name":"Exit","type":"event"},{"anonymous":false,"inputs":[{"indexed":true,"internalType":"address","name":"feeCollector","type":"address"}],"name":"FeeCollectorSet","type":"event"},{"anonymous":false,"inputs":[{"indexed":false,"internalType":"uint8","name":"version","type":"uint8"}],"name":"Initialized","type":"event"},{"anonymous":false,"inputs":[{"indexed":true,"internalType":"address","name":"strategy","type":"address"},{"indexed":false,"internalType":"address[]","name":"tokensIn","type":"address[]"},{"indexed":false,"internalType":"uint256[]","name":"amountsIn","type":"uint256[]"},{"indexed":false,"internalType":"address[]","name":"tokensOut","type":"address[]"},{"indexed":false,"internalType":"uint256[]","name":"amountsOut","type":"uint256[]"},{"indexed":false,"internalType":"uint256","name":"value","type":"uint256"},{"indexed":false,"internalType":"uint256","name":"slippage","type":"uint256"},{"indexed":false,"internalType":"bytes","name":"data","type":"bytes"}],"name":"Join","type":"event"},{"anonymous":false,"inputs":[{"indexed":false,"internalType":"uint256","name":"pct","type":"uint256"},{"indexed":false,"internalType":"uint256","name":"cap","type":"uint256"},{"indexed":false,"internalType":"address","name":"token","type":"address"},{"indexed":false,"internalType":"uint256","name":"period","type":"uint256"}],"name":"PerformanceFeeSet","type":"event"},{"anonymous":false,"inputs":[{"indexed":true,"internalType":"address","name":"base","type":"address"},{"indexed":true,"internalType":"address","name":"quote","type":"address"},{"indexed":false,"internalType":"address","name":"feed","type":"address"}],"name":"PriceFeedSet","type":"event"},{"anonymous":false,"inputs":[{"indexed":true,"internalType":"address","name":"priceOracle","type":"address"}],"name":"PriceOracleSet","type":"event"},{"anonymous":false,"inputs":[{"indexed":true,"internalType":"address","name":"strategy","type":"address"},{"indexed":false,"internalType":"bool","name":"allowed","type":"bool"}],"name":"StrategySet","type":"event"},{"anonymous":false,"inputs":[{"indexed":true,"internalType":"uint8","name":"source","type":"uint8"},{"indexed":true,"internalType":"address","name":"tokenIn","type":"address"},{"indexed":true,"internalType":"address","name":"tokenOut","type":"address"},{"indexed":false,"internalType":"uint256","name":"amountIn","type":"uint256"},{"indexed":false,"internalType":"uint256","name":"amountOut","type":"uint256"},{"indexed":false,"internalType":"uint256","name":"minAmountOut","type":"uint256"},{"indexed":false,"internalType":"uint256","name":"fee","type":"uint256"},{"indexed":false,"internalType":"bytes","name":"data","type":"bytes"}],"name":"Swap","type":"event"},{"anonymous":false,"inputs":[{"indexed":true,"internalType":"address","name":"swapConnector","type":"address"}],"name":"SwapConnectorSet","type":"event"},{"anonymous":false,"inputs":[{"indexed":false,"internalType":"uint256","name":"pct","type":"uint256"},{"indexed":false,"internalType":"uint256","name":"cap","type":"uint256"},{"indexed":false,"internalType":"address","name":"token","type":"address"},{"indexed":false,"internalType":"uint256","name":"period","type":"uint256"}],"name":"SwapFeeSet","type":"event"},{"anonymous":false,"inputs":[{"indexed":true,"internalType":"address","name":"who","type":"address"},{"indexed":false,"internalType":"bytes4","name":"what","type":"bytes4"}],"name":"Unauthorized","type":"event"},{"anonymous":false,"inputs":[{"indexed":false,"internalType":"uint256","name":"amount","type":"uint256"},{"indexed":false,"internalType":"uint256","name":"unwrapped","type":"uint256"},{"indexed":false,"internalType":"bytes","name":"data","type":"bytes"}],"name":"Unwrap","type":"event"},{"anonymous":false,"inputs":[{"indexed":true,"internalType":"address","name":"token","type":"address"},{"indexed":true,"internalType":"address","name":"recipient","type":"address"},{"indexed":false,"internalType":"uint256","name":"withdrawn","type":"uint256"},{"indexed":false,"internalType":"uint256","name":"fee","type":"uint256"},{"indexed":false,"internalType":"bytes","name":"data","type":"bytes"}],"name":"Withdraw","type":"event"},{"anonymous":false,"inputs":[{"indexed":false,"internalType":"uint256","name":"pct","type":"uint256"},{"indexed":false,"internalType":"uint256","name":"cap","type":"uint256"},{"indexed":false,"internalType":"address","name":"token","type":"address"},{"indexed":false,"internalType":"uint256","name":"period","type":"uint256"}],"name":"WithdrawFeeSet","type":"event"},{"anonymous":false,"inputs":[{"indexed":false,"internalType":"uint256","name":"amount","type":"uint256"},{"indexed":false,"internalType":"uint256","name":"wrapped","type":"uint256"},{"indexed":false,"internalType":"bytes","name":"data","type":"bytes"}],"name":"Wrap","type":"event"},{"inputs":[],"name":"ANY_ADDRESS","outputs":[{"internalType":"address","name":"","type":"address"}],"stateMutability":"view","type":"function"},{"inputs":[],"name":"NAMESPACE","outputs":[{"internalType":"bytes32","name":"","type":"bytes32"}],"stateMutability":"view","type":"function"},{"inputs":[{"internalType":"address","name":"who","type":"address"},{"internalType":"bytes4","name":"what","type":"bytes4"}],"name":"authorize","outputs":[],"stateMutability":"nonpayable","type":"function"},{"inputs":[{"internalType":"uint8","name":"source","type":"uint8"},{"internalType":"uint256","name":"chainId","type":"uint256"},{"internalType":"address","name":"token","type":"address"},{"internalType":"uint256","name":"amount","type":"uint256"},{"internalType":"enum ISmartVault.BridgeLimit","name":"limitType","type":"uint8"},{"internalType":"uint256","name":"limitAmount","type":"uint256"},{"internalType":"address","name":"recipient","type":"address"},{"internalType":"bytes","name":"data","type":"bytes"}],"name":"bridge","outputs":[{"internalType":"uint256","name":"bridged","type":"uint256"}],"stateMutability":"nonpayable","type":"function"},{"inputs":[],"name":"bridgeConnector","outputs":[{"internalType":"address","name":"","type":"address"}],"stateMutability":"view","type":"function"},{"inputs":[],"name":"bridgeFee","outputs":[{"internalType":"uint256","name":"pct","type":"uint256"},{"internalType":"uint256","name":"cap","type":"uint256"},{"internalType":"address","name":"token","type":"address"},{"internalType":"uint256","name":"period","type":"uint256"},{"internalType":"uint256","name":"totalCharged","type":"uint256"},{"internalType":"uint256","name":"nextResetTime","type":"uint256"}],"stateMutability":"view","type":"function"},{"inputs":[{"internalType":"address","name":"target","type":"address"},{"internalType":"bytes","name":"callData","type":"bytes"},{"internalType":"uint256","name":"value","type":"uint256"},{"internalType":"bytes","name":"data","type":"bytes"}],"name":"call","outputs":[{"internalType":"bytes","name":"result","type":"bytes"}],"stateMutability":"nonpayable","type":"function"},{"inputs":[{"internalType":"address","name":"strategy","type":"address"},{"internalType":"bytes","name":"data","type":"bytes"}],"name":"claim","outputs":[{"internalType":"address[]","name":"tokens","type":"address[]"},{"internalType":"uint256[]","name":"amounts","type":"uint256[]"}],"stateMutability":"nonpayable","type":"function"},{"inputs":[{"internalType":"address","name":"token","type":"address"},{"internalType":"address","name":"from","type":"address"},{"internalType":"uint256","name":"amount","type":"uint256"},{"internalType":"bytes","name":"data","type":"bytes"}],"name":"collect","outputs":[{"internalType":"uint256","name":"collected","type":"uint256"}],"stateMutability":"nonpayable","type":"function"},{"inputs":[{"internalType":"address","name":"strategy","type":"address"},{"internalType":"address[]","name":"tokensIn","type":"address[]"},{"internalType":"uint256[]","name":"amountsIn","type":"uint256[]"},{"internalType":"uint256","name":"slippage","type":"uint256"},{"internalType":"bytes","name":"data","type":"bytes"}],"name":"exit","outputs":[{"internalType":"address[]","name":"tokensOut","type":"address[]"},{"internalType":"uint256[]","name":"amountsOut","type":"uint256[]"}],"stateMutability":"nonpayable","type":"function"},{"inputs":[],"name":"feeCollector","outputs":[{"internalType":"address","name":"","type":"address"}],"stateMutability":"view","type":"function"},{"inputs":[{"internalType":"address","name":"base","type":"address"},{"internalType":"address","name":"quote","type":"address"}],"name":"getPrice","outputs":[{"internalType":"uint256","name":"","type":"uint256"}],"stateMutability":"view","type":"function"},{"inputs":[{"internalType":"address","name":"base","type":"address"},{"internalType":"address","name":"quote","type":"address"}],"name":"getPriceFeed","outputs":[{"internalType":"address","name":"","type":"address"}],"stateMutability":"view","type":"function"},{"inputs":[{"internalType":"address","name":"admin","type":"address"}],"name":"initialize","outputs":[],"stateMutability":"nonpayable","type":"function"},{"inputs":[{"internalType":"address","name":"","type":"address"}],"name":"investedValue","outputs":[{"internalType":"uint256","name":"","type":"uint256"}],"stateMutability":"view","type":"function"},{"inputs":[{"internalType":"address","name":"who","type":"address"},{"internalType":"bytes4","name":"what","type":"bytes4"}],"name":"isAuthorized","outputs":[{"internalType":"bool","name":"","type":"bool"}],"stateMutability":"view","type":"function"},{"inputs":[{"internalType":"address","name":"","type":"address"}],"name":"isStrategyAllowed","outputs":[{"internalType":"bool","name":"","type":"bool"}],"stateMutability":"view","type":"function"},{"inputs":[{"internalType":"address","name":"strategy","type":"address"},{"internalType":"address[]","name":"tokensIn","type":"address[]"},{"internalType":"uint256[]","name":"amountsIn","type":"uint256[]"},{"internalType":"uint256","name":"slippage","type":"uint256"},{"internalType":"bytes","name":"data","type":"bytes"}],"name":"join","outputs":[{"internalType":"address[]","name":"tokensOut","type":"address[]"},{"internalType":"uint256[]","name":"amountsOut","type":"uint256[]"}],"stateMutability":"nonpayable","type":"function"},{"inputs":[{"internalType":"address","name":"strategy","type":"address"}],"name":"lastValue","outputs":[{"internalType":"uint256","name":"","type":"uint256"}],"stateMutability":"view","type":"function"},{"inputs":[],"name":"performanceFee","outputs":[{"internalType":"uint256","name":"pct","type":"uint256"},{"internalType":"uint256","name":"cap","type":"uint256"},{"internalType":"address","name":"token","type":"address"},{"internalType":"uint256","name":"period","type":"uint256"},{"internalType":"uint256","name":"totalCharged","type":"uint256"},{"internalType":"uint256","name":"nextResetTime","type":"uint256"}],"stateMutability":"view","type":"function"},{"inputs":[],"name":"priceOracle","outputs":[{"internalType":"address","name":"","type":"address"}],"stateMutability":"view","type":"function"},{"inputs":[],"name":"registry","outputs":[{"internalType":"address","name":"","type":"address"}],"stateMutability":"view","type":"function"},{"inputs":[{"internalType":"address","name":"newBridgeConnector","type":"address"}],"name":"setBridgeConnector","outputs":[],"stateMutability":"nonpayable","type":"function"},{"inputs":[{"internalType":"uint256","name":"pct","type":"uint256"},{"internalType":"uint256","name":"cap","type":"uint256"},{"internalType":"address","name":"token","type":"address"},{"internalType":"uint256","name":"period","type":"uint256"}],"name":"setBridgeFee","outputs":[],"stateMutability":"nonpayable","type":"function"},{"inputs":[{"internalType":"address","name":"newFeeCollector","type":"address"}],"name":"setFeeCollector","outputs":[],"stateMutability":"nonpayable","type":"function"},{"inputs":[{"internalType":"uint256","name":"pct","type":"uint256"},{"internalType":"uint256","name":"cap","type":"uint256"},{"internalType":"address","name":"token","type":"address"},{"internalType":"uint256","name":"period","type":"uint256"}],"name":"setPerformanceFee","outputs":[],"stateMutability":"nonpayable","type":"function"},{"inputs":[{"internalType":"address","name":"base","type":"address"},{"internalType":"address","name":"quote","type":"address"},{"internalType":"address","name":"feed","type":"address"}],"name":"setPriceFeed","outputs":[],"stateMutability":"nonpayable","type":"function"},{"inputs":[{"internalType":"address[]","name":"bases","type":"address[]"},{"internalType":"address[]","name":"quotes","type":"address[]"},{"internalType":"address[]","name":"feeds","type":"address[]"}],"name":"setPriceFeeds","outputs":[],"stateMutability":"nonpayable","type":"function"},{"inputs":[{"internalType":"address","name":"newPriceOracle","type":"address"}],"name":"setPriceOracle","outputs":[],"stateMutability":"nonpayable","type":"function"},{"inputs":[{"internalType":"address","name":"strategy","type":"address"},{"internalType":"bool","name":"allowed","type":"bool"}],"name":"setStrategy","outputs":[],"stateMutability":"nonpayable","type":"function"},{"inputs":[{"internalType":"address","name":"newSwapConnector","type":"address"}],"name":"setSwapConnector","outputs":[],"stateMutability":"nonpayable","type":"function"},{"inputs":[{"internalType":"uint256","name":"pct","type":"uint256"},{"internalType":"uint256","name":"cap","type":"uint256"},{"internalType":"address","name":"token","type":"address"},{"internalType":"uint256","name":"period","type":"uint256"}],"name":"setSwapFee","outputs":[],"stateMutability":"nonpayable","type":"function"},{"inputs":[{"internalType":"uint256","name":"pct","type":"uint256"},{"internalType":"uint256","name":"cap","type":"uint256"},{"internalType":"address","name":"token","type":"address"},{"internalType":"uint256","name":"period","type":"uint256"}],"name":"setWithdrawFee","outputs":[],"stateMutability":"nonpayable","type":"function"},{"inputs":[{"internalType":"uint8","name":"source","type":"uint8"},{"internalType":"address","name":"tokenIn","type":"address"},{"internalType":"address","name":"tokenOut","type":"address"},{"internalType":"uint256","name":"amountIn","type":"uint256"},{"internalType":"enum ISmartVault.SwapLimit","name":"limitType","type":"uint8"},{"internalType":"uint256","name":"limitAmount","type":"uint256"},{"internalType":"bytes","name":"data","type":"bytes"}],"name":"swap","outputs":[{"internalType":"uint256","name":"amountOut","type":"uint256"}],"stateMutability":"nonpayable","type":"function"},{"inputs":[],"name":"swapConnector","outputs":[{"internalType":"address","name":"","type":"address"}],"stateMutability":"view","type":"function"},{"inputs":[],"name":"swapFee","outputs":[{"internalType":"uint256","name":"pct","type":"uint256"},{"internalType":"uint256","name":"cap","type":"uint256"},{"internalType":"address","name":"token","type":"address"},{"internalType":"uint256","name":"period","type":"uint256"},{"internalType":"uint256","name":"totalCharged","type":"uint256"},{"internalType":"uint256","name":"nextResetTime","type":"uint256"}],"stateMutability":"view","type":"function"},{"inputs":[{"internalType":"address","name":"who","type":"address"},{"internalType":"bytes4","name":"what","type":"bytes4"}],"name":"unauthorize","outputs":[],"stateMutability":"nonpayable","type":"function"},{"inputs":[{"internalType":"uint256","name":"amount","type":"uint256"},{"internalType":"bytes","name":"data","type":"bytes"}],"name":"unwrap","outputs":[{"internalType":"uint256","name":"unwrapped","type":"uint256"}],"stateMutability":"nonpayable","type":"function"},{"inputs":[{"internalType":"address","name":"token","type":"address"},{"internalType":"uint256","name":"amount","type":"uint256"},{"internalType":"address","name":"recipient","type":"address"},{"internalType":"bytes","name":"data","type":"bytes"}],"name":"withdraw","outputs":[{"internalType":"uint256","name":"withdrawn","type":"uint256"}],"stateMutability":"nonpayable","type":"function"},{"inputs":[],"name":"withdrawFee","outputs":[{"internalType":"uint256","name":"pct","type":"uint256"},{"internalType":"uint256","name":"cap","type":"uint256"},{"internalType":"address","name":"token","type":"address"},{"internalType":"uint256","name":"period","type":"uint256"},{"internalType":"uint256","name":"totalCharged","type":"uint256"},{"internalType":"uint256","name":"nextResetTime","type":"uint256"}],"stateMutability":"view","type":"function"},{"inputs":[{"internalType":"uint256","name":"amount","type":"uint256"},{"internalType":"bytes","name":"data","type":"bytes"}],"name":"wrap","outputs":[{"internalType":"uint256","name":"wrapped","type":"uint256"}],"stateMutability":"nonpayable","type":"function"},{"inputs":[],"name":"wrappedNativeToken","outputs":[{"internalType":"address","name":"","type":"address"}],"stateMutability":"view","type":"function"},{"stateMutability":"payable","type":"receive"}],"evm":{"bytecode":{"linkReferences":{},"object":"60c06040523480156200001157600080fd5b506040516200561c3803806200561c83398101604081905262000034916200014a565b6001600160601b0319606082901b166080528080620000526200006b565b50505060601b6001600160601b03191660a05262000181565b600054610100900460ff1615620000d85760405162461bcd60e51b815260206004820152602760248201527f496e697469616c697a61626c653a20636f6e747261637420697320696e697469604482015266616c697a696e6760c81b606482015260840160405180910390fd5b60005460ff90811610156200012b576000805460ff191660ff9081179091556040519081527f7f26b83ff96e1f2b6a682f133852f6798a09c465da95921460cefb38474024989060200160405180910390a15b565b80516001600160a01b03811681146200014557600080fd5b919050565b600080604083850312156200015d578182fd5b62000168836200012d565b915062000178602084016200012d565b90509250929050565b60805160601c60a05160601c61545a620001c26000396000818161034801528181610af10152611d5101526000818161060d0152614490015261545a6000f3fe6080604052600436106102d55760003560e01c80639003afee11610179578063c415b95c116100d6578063d9972b961161008a578063ea8148a611610064578063ea8148a6146108f8578063eea5c1ea14610918578063fee415f814610938576102dc565b8063d9972b9614610884578063e2a81602146108a4578063e941fa78146108c4576102dc565b8063c56924ba116100bb578063c56924ba14610817578063c9fd86ac14610837578063cc58002c14610857576102dc565b8063c415b95c146107d7578063c4d66de8146107f7576102dc565b8063ac41865a1161012d578063ba03e93f11610112578063ba03e93f14610777578063baa82a3414610797578063bb1757cf146107b7576102dc565b8063ac41865a14610737578063b413148e14610757576102dc565b80639907dcf61161015e5780639907dcf6146106d75780639f0514ad146106f7578063a42dce8014610717576102dc565b80639003afee14610697578063933f0f3c146106b7576102dc565b8063530e784f1161023257806367a1d5ab116101e65780637b103999116101c05780637b103999146105fb57806382b12dd71461062f5780638778878214610663576102dc565b806367a1d5ab1461057b57806367c1def91461059b5780636d9a76a9146105db576102dc565b806354cf2aeb1161021757806354cf2aeb146104cc5780635af547e61461053b5780636646a4361461055b576102dc565b8063530e784f1461047f578063543b92351461049f576102dc565b80632630c12f116102895780633f81a1921161026e5780633f81a1921461041057806344ba1fca1461042b5780634ed310901461045f576102dc565b80632630c12f146103d057806337e0ac02146103f0576102dc565b806317fcb39b116102ba57806317fcb39b1461033657806318f51fea146103825780631facc5d6146103a2576102dc565b806307223781146102e1578063109b3c8314610303576102dc565b366102dc57005b600080fd5b3480156102ed57600080fd5b506103016102fc366004614d16565b610958565b005b34801561030f57600080fd5b5061032361031e366004614ce7565b6109ee565b6040519081526020015b60405180910390f35b34801561034257600080fd5b5061036a7f000000000000000000000000000000000000000000000000000000000000000081565b6040516001600160a01b03909116815260200161032d565b34801561038e57600080fd5b5060045461036a906001600160a01b031681565b3480156103ae57600080fd5b506103c26103bd3660046148a1565b610cb3565b60405161032d929190614f64565b3480156103dc57600080fd5b5060035461036a906001600160a01b031681565b3480156103fc57600080fd5b5061032361040b366004614d54565b610ef6565b34801561041c57600080fd5b5061036a6001600160a01b0381565b34801561043757600080fd5b506103237fdd327ba0ba6e7bb0e0099273577340e52e9e071b1b87834b866bafccdc4c14cb81565b34801561046b57600080fd5b5061030161047a366004614b2c565b6114b9565b34801561048b57600080fd5b5061030161049a366004614799565b6115f5565b3480156104ab57600080fd5b506103236104ba366004614799565b60076020526000908152604090205481565b3480156104d857600080fd5b50601554601654601754601854601954601a546105009594936001600160a01b031692919086565b6040805196875260208701959095526001600160a01b03909316938501939093526060840152608083019190915260a082015260c00161032d565b34801561054757600080fd5b50610323610556366004614837565b61162f565b34801561056757600080fd5b506103016105763660046149ca565b611851565b34801561058757600080fd5b506103016105963660046147ed565b61188d565b3480156105a757600080fd5b506105cb6105b6366004614799565b60066020526000908152604090205460ff1681565b604051901515815260200161032d565b3480156105e757600080fd5b506103016105f6366004614d16565b6118cb565b34801561060757600080fd5b5061036a7f000000000000000000000000000000000000000000000000000000000000000081565b34801561063b57600080fd5b50601b54601c54601d54601e54601f546020546105009594936001600160a01b031692919086565b34801561066f57600080fd5b50600f546010546011546012546013546014546105009594936001600160a01b031692919086565b3480156106a357600080fd5b506103236106b2366004614ada565b611957565b3480156106c357600080fd5b506103016106d23660046149ca565b611aca565b3480156106e357600080fd5b506103016106f2366004614d16565b611b02565b34801561070357600080fd5b5061036a6107123660046147b5565b611b8e565b34801561072357600080fd5b50610301610732366004614799565b611bbd565b34801561074357600080fd5b506103236107523660046147b5565b611bf4565b34801561076357600080fd5b50610323610772366004614ce7565b611ca0565b34801561078357600080fd5b50610323610792366004614799565b611e08565b3480156107a357600080fd5b506103016107b236600461499d565b611ea3565b3480156107c357600080fd5b506103c26107d2366004614a1b565b611edb565b3480156107e357600080fd5b5060085461036a906001600160a01b031681565b34801561080357600080fd5b50610301610812366004614799565b611fda565b34801561082357600080fd5b5060055461036a906001600160a01b031681565b34801561084357600080fd5b50610301610852366004614799565b612153565b34801561086357600080fd5b50610877610872366004614a69565b61218a565b60405161032d9190615113565b34801561089057600080fd5b506105cb61089f3660046149ca565b61224c565b3480156108b057600080fd5b506103236108bf366004614deb565b6122f5565b3480156108d057600080fd5b50600954600a54600b54600c54600d54600e546105009594936001600160a01b031692919086565b34801561090457600080fd5b506103c26109133660046148a1565b612752565b34801561092457600080fd5b50610301610933366004614d16565b612c48565b34801561094457600080fd5b50610301610953366004614799565b612cd4565b610986336000357fffffffff0000000000000000000000000000000000000000000000000000000016612d0b565b610994601b85858585612d61565b60408051858152602081018590526001600160a01b03841691810191909152606081018290527f4b49194a7fb724cb00f6dad71cf91c6da804179096aa90273c6664b59a5acea4906080015b60405180910390a150505050565b6000610a1e336000357fffffffff0000000000000000000000000000000000000000000000000000000016612d0b565b60008311610a735760405162461bcd60e51b815260206004820152601060248201527f575241505f414d4f554e545f5a45524f0000000000000000000000000000000060448201526064015b60405180910390fd5b82471015610ac35760405162461bcd60e51b815260206004820152601860248201527f575241505f494e53554646494349454e545f414d4f554e5400000000000000006044820152606401610a6a565b6040517f70a082310000000000000000000000000000000000000000000000000000000081523060048201527f0000000000000000000000000000000000000000000000000000000000000000906000906001600160a01b038316906370a082319060240160206040518083038186803b158015610b4057600080fd5b505afa158015610b54573d6000803e3d6000fd5b505050506040513d601f19601f82011682018060405250810190610b789190614ccf565b9050816001600160a01b031663d0e30db0866040518263ffffffff1660e01b81526004016000604051808303818588803b158015610bb557600080fd5b505af1158015610bc9573d6000803e3d6000fd5b50506040517f70a08231000000000000000000000000000000000000000000000000000000008152306004820152600093506001600160a01b03861692506370a08231915060240160206040518083038186803b158015610c2957600080fd5b505afa158015610c3d573d6000803e3d6000fd5b505050506040513d601f19601f82011682018060405250810190610c619190614ccf565b9050610c6d8282615385565b93507f26b89b7c87cfae6e0c27cb572c5b1eaa577f2223fe8dca0d76a62034579b7a1e868587604051610ca29392919061517e565b60405180910390a150505092915050565b606080610ce4336000357fffffffff0000000000000000000000000000000000000000000000000000000016612d0b565b6001600160a01b03871660009081526006602052604090205460ff16610d4c5760405162461bcd60e51b815260206004820152601460248201527f53545241544547595f4e4f545f414c4c4f5745440000000000000000000000006044820152606401610a6a565b670de0b6b3a7640000841115610da45760405162461bcd60e51b815260206004820152601760248201527f4a4f494e5f534c4950504147455f41424f56455f4f4e450000000000000000006044820152606401610a6a565b8451865114610df55760405162461bcd60e51b815260206004820152601960248201527f4a4f494e5f494e5055545f494e56414c49445f4c454e475448000000000000006044820152606401610a6a565b6000610e0d6001600160a01b03891688888888612f83565b81518351939650919450925014610e665760405162461bcd60e51b815260206004820152601a60248201527f4a4f494e5f4f55545055545f494e56414c49445f4c454e4754480000000000006044820152606401610a6a565b6001600160a01b038816600090815260076020526040902054610e8a908290615310565b6001600160a01b038916600081815260076020526040908190209290925590517f6be300d66e65741e7cc134f5e6b6815e65361424ab43526b3f51742a2b2ea95290610ee3908a908a908890889088908d908d90615016565b60405180910390a2509550959350505050565b6000610f26336000357fffffffff0000000000000000000000000000000000000000000000000000000016612d0b565b856001600160a01b0316876001600160a01b03161415610f885760405162461bcd60e51b815260206004820152600f60248201527f535741505f53414d455f544f4b454e00000000000000000000000000000000006044820152606401610a6a565b6004546001600160a01b0316610fe05760405162461bcd60e51b815260206004820152601660248201527f535741505f434f4e4e4543544f525f4e4f545f534554000000000000000000006044820152606401610a6a565b6000600185600181111561100457634e487b7160e01b600052602160045260246000fd5b141561101157508261110e565b600085600181111561103357634e487b7160e01b600052602160045260246000fd5b14156110c657670de0b6b3a76400008411156110915760405162461bcd60e51b815260206004820152601760248201527f535741505f534c4950504147455f41424f56455f4f4e450000000000000000006044820152606401610a6a565b600061109d8989611bf4565b90506110be670de0b6b3a76400008690036110b889846130d5565b906130d5565b91505061110e565b60405162461bcd60e51b815260206004820152601760248201527f535741505f494e56414c49445f4c494d49545f545950450000000000000000006044820152606401610a6a565b6040517f70a082310000000000000000000000000000000000000000000000000000000081523060048201526000906001600160a01b038a16906370a082319060240160206040518083038186803b15801561116957600080fd5b505afa15801561117d573d6000803e3d6000fd5b505050506040513d601f19601f820116820180604052508101906111a19190614ccf565b6040517f70a082310000000000000000000000000000000000000000000000000000000081523060048201529091506000906001600160a01b038a16906370a082319060240160206040518083038186803b1580156111ff57600080fd5b505afa158015611213573d6000803e3d6000fd5b505050506040513d601f19601f820116820180604052508101906112379190614ccf565b600454909150611255906001600160a01b03168c8c8c8c888b613195565b506040517f70a082310000000000000000000000000000000000000000000000000000000081523060048201526000906001600160a01b038c16906370a082319060240160206040518083038186803b1580156112b157600080fd5b505afa1580156112c5573d6000803e3d6000fd5b505050506040513d601f19601f820116820180604052508101906112e99190614ccf565b90506112f58984615385565b8110156113445760405162461bcd60e51b815260206004820152601960248201527f535741505f4241445f544f4b454e5f494e5f42414c414e4345000000000000006044820152606401610a6a565b6040517f70a0823100000000000000000000000000000000000000000000000000000000815230600482015260009083906001600160a01b038d16906370a082319060240160206040518083038186803b1580156113a157600080fd5b505afa1580156113b5573d6000803e3d6000fd5b505050506040513d601f19601f820116820180604052508101906113d99190614ccf565b6113e39190615385565b9050848110156114355760405162461bcd60e51b815260206004820152600f60248201527f535741505f4d494e5f414d4f554e5400000000000000000000000000000000006044820152606401610a6a565b60006114438c8360156132de565b905061144f8183615385565b96508b6001600160a01b03168d6001600160a01b03168f60ff167ffc431937278b84c6fa5b23bcc58f673c647fea974d3656e766b22d8c1412e5448e8b8b878f6040516114a09594939291906151d1565b60405180910390a4505050505050979650505050505050565b815183511461150a5760405162461bcd60e51b815260206004820152601f60248201527f5345545f46454544535f494e56414c49445f51554f5445535f4c454e475448006044820152606401610a6a565b805183511461155b5760405162461bcd60e51b815260206004820152601e60248201527f5345545f46454544535f494e56414c49445f46454544535f4c454e47544800006044820152606401610a6a565b60005b83518110156115ef576115e784828151811061158a57634e487b7160e01b600052603260045260246000fd5b60200260200101518483815181106115b257634e487b7160e01b600052603260045260246000fd5b60200260200101518484815181106115da57634e487b7160e01b600052603260045260246000fd5b602002602001015161188d565b60010161155e565b50505050565b611623336000357fffffffff0000000000000000000000000000000000000000000000000000000016612d0b565b61162c8161344c565b50565b600061165f336000357fffffffff0000000000000000000000000000000000000000000000000000000016612d0b565b600083116116af5760405162461bcd60e51b815260206004820152601360248201527f434f4c4c4543545f414d4f554e545f5a45524f000000000000000000000000006044820152606401610a6a565b6040517f70a082310000000000000000000000000000000000000000000000000000000081523060048201526000906001600160a01b038716906370a082319060240160206040518083038186803b15801561170a57600080fd5b505afa15801561171e573d6000803e3d6000fd5b505050506040513d601f19601f820116820180604052508101906117429190614ccf565b90506117596001600160a01b0387168630876134b7565b6040517f70a082310000000000000000000000000000000000000000000000000000000081523060048201526000906001600160a01b038816906370a082319060240160206040518083038186803b1580156117b457600080fd5b505afa1580156117c8573d6000803e3d6000fd5b505050506040513d601f19601f820116820180604052508101906117ec9190614ccf565b90506117f88282615385565b9250856001600160a01b0316876001600160a01b03167f42bd73ea702d7cf4505c06a7ac02a171536177d9cc2c7665443151ec91cc43fc858760405161183f929190615165565b60405180910390a35050949350505050565b61187f336000357fffffffff0000000000000000000000000000000000000000000000000000000016612d0b565b6118898282613586565b5050565b6118bb336000357fffffffff0000000000000000000000000000000000000000000000000000000016612d0b565b6118c6838383613628565b505050565b6118f9336000357fffffffff0000000000000000000000000000000000000000000000000000000016612d0b565b611907601585858585612d61565b60408051858152602081018590526001600160a01b03841691810191909152606081018290527f4374e92441315a747b6c3e2c80e356b78d580bde720326dc3a9b45055414041b906080016109e0565b6000611987336000357fffffffff0000000000000000000000000000000000000000000000000000000016612d0b565b600084116119d75760405162461bcd60e51b815260206004820152601460248201527f57495448445241575f414d4f554e545f5a45524f0000000000000000000000006044820152606401610a6a565b6001600160a01b038316611a2d5760405162461bcd60e51b815260206004820152600e60248201527f524543495049454e545f5a45524f0000000000000000000000000000000000006044820152606401610a6a565b6008546000906001600160a01b03858116911614611a5657611a51868660096132de565b611a59565b60005b9050611a658186615385565b9150611a728685846136b3565b836001600160a01b0316866001600160a01b03167f33be7eabd8ed368ca1aa14ce2ad1e90a0c9bf21edbb3820d5591546e4eb84157848487604051611ab99392919061517e565b60405180910390a350949350505050565b611af8336000357fffffffff0000000000000000000000000000000000000000000000000000000016612d0b565b6118898282613705565b611b30336000357fffffffff0000000000000000000000000000000000000000000000000000000016612d0b565b611b3e600f85858585612d61565b60408051858152602081018590526001600160a01b03841691810191909152606081018290527f8db23ab1f209b6252f45cba9848d0a1ebbb63e50328a308fa3aa01cdf151f75d906080016109e0565b6001600160a01b0380831660009081526001602090815260408083208585168452909152902054165b92915050565b611beb336000357fffffffff0000000000000000000000000000000000000000000000000000000016612d0b565b61162c816137a2565b6003546040517f7100d05c0000000000000000000000000000000000000000000000000000000081523060048201526001600160a01b03848116602483015283811660448301526000921690637100d05c9060640160206040518083038186803b158015611c6157600080fd5b505afa158015611c75573d6000803e3d6000fd5b505050506040513d601f19601f82011682018060405250810190611c999190614ccf565b9392505050565b6000611cd0336000357fffffffff0000000000000000000000000000000000000000000000000000000016612d0b565b60008311611d205760405162461bcd60e51b815260206004820152601260248201527f554e575241505f414d4f554e545f5a45524f00000000000000000000000000006044820152606401610a6a565b6040517f2e1a7d4d0000000000000000000000000000000000000000000000000000000081526004810184905247907f00000000000000000000000000000000000000000000000000000000000000006001600160a01b031690632e1a7d4d90602401600060405180830381600087803b158015611d9d57600080fd5b505af1158015611db1573d6000803e3d6000fd5b50479250611dc3915083905082615385565b92507fb4d99315c288c112a1d49da08c3fa85f78e2c83392f63f0a8964418f96aa24ed858486604051611df89392919061517e565b60405180910390a1505092915050565b6040517fba03e93f0000000000000000000000000000000000000000000000000000000081523060048201526000906001600160a01b0383169063ba03e93f9060240160206040518083038186803b158015611e6357600080fd5b505afa158015611e77573d6000803e3d6000fd5b505050506040513d601f19601f82011682018060405250810190611e9b9190614ccf565b90505b919050565b611ed1336000357fffffffff0000000000000000000000000000000000000000000000000000000016612d0b565b611889828261385a565b606080611f0c336000357fffffffff0000000000000000000000000000000000000000000000000000000016612d0b565b6001600160a01b03841660009081526006602052604090205460ff16611f745760405162461bcd60e51b815260206004820152601460248201527f53545241544547595f4e4f545f414c4c4f5745440000000000000000000000006044820152606401610a6a565b611f876001600160a01b038516846138df565b60405191935091506001600160a01b038516907fb28d414fdc0dd1ebae12befebefd04f6ae5f8dec2a2fdbed9191be3c4d13715a90611fcb90859085908890615091565b60405180910390a29250929050565b600054610100900460ff1615808015611ffa5750600054600160ff909116105b806120145750303b158015612014575060005460ff166001145b6120865760405162461bcd60e51b815260206004820152602e60248201527f496e697469616c697a61626c653a20636f6e747261637420697320616c72656160448201527f647920696e697469616c697a65640000000000000000000000000000000000006064820152608401610a6a565b600080547fffffffffffffffffffffffffffffffffffffffffffffffffffffffffffffff0016600117905580156120e457600080547fffffffffffffffffffffffffffffffffffffffffffffffffffffffffffff00ff166101001790555b6120ed82613a1f565b801561188957600080547fffffffffffffffffffffffffffffffffffffffffffffffffffffffffffff00ff169055604051600181527f7f26b83ff96e1f2b6a682f133852f6798a09c465da95921460cefb38474024989060200160405180910390a15050565b612181336000357fffffffff0000000000000000000000000000000000000000000000000000000016612d0b565b61162c81613af8565b60606121ba336000357fffffffff0000000000000000000000000000000000000000000000000000000016612d0b565b6121fb8585856040518060400160405280601f81526020017f534d4152545f5641554c545f4152424954524152595f43414c4c5f4641494c00815250613b63565b9050846001600160a01b03167f76c91e1f3e02d952ab790867a8364513b69ada16ed33a67dbcd80de0e8cbfde98585848660405161223c9493929190615126565b60405180910390a2949350505050565b7fffffffff00000000000000000000000000000000000000000000000000000000811660009081527f86cf984b44bed1f7f8b143f6052803e8b74964b2ee297832a77790be6d6308f1602052604081205460ff1680611c995750506001600160a01b039190911660009081526002602090815260408083207fffffffff000000000000000000000000000000000000000000000000000000009094168352929052205460ff1690565b6000612325336000357fffffffff0000000000000000000000000000000000000000000000000000000016612d0b565b874614156123755760405162461bcd60e51b815260206004820152601160248201527f4252494447455f53414d455f434841494e0000000000000000000000000000006044820152606401610a6a565b6001600160a01b0383166123cb5760405162461bcd60e51b815260206004820152601560248201527f4252494447455f524543495049454e545f5a45524f00000000000000000000006044820152606401610a6a565b6005546001600160a01b03166124235760405162461bcd60e51b815260206004820152601860248201527f4252494447455f434f4e4e4543544f525f4e4f545f53455400000000000000006044820152606401610a6a565b60006124318888601b6132de565b905061243d8188615385565b91506000600187600181111561246357634e487b7160e01b600052602160045260246000fd5b1415612470575084612554565b600087600181111561249257634e487b7160e01b600052602160045260246000fd5b141561250c57670de0b6b3a76400008611156124f05760405162461bcd60e51b815260206004820152601960248201527f4252494447455f534c4950504147455f41424f56455f4f4e45000000000000006044820152606401610a6a565b61250583670de0b6b3a76400008890036130d5565b9050612554565b60405162461bcd60e51b815260206004820152601960248201527f4252494447455f494e56414c49445f4c494d49545f54595045000000000000006044820152606401610a6a565b6040517f70a082310000000000000000000000000000000000000000000000000000000081523060048201526000906001600160a01b038b16906370a082319060240160206040518083038186803b1580156125af57600080fd5b505afa1580156125c3573d6000803e3d6000fd5b505050506040513d601f19601f820116820180604052508101906125e79190614ccf565b600554909150612606906001600160a01b03168d8d8d88878c8c613cab565b6040517f70a082310000000000000000000000000000000000000000000000000000000081523060048201526000906001600160a01b038c16906370a082319060240160206040518083038186803b15801561266157600080fd5b505afa158015612675573d6000803e3d6000fd5b505050506040513d601f19601f820116820180604052508101906126999190614ccf565b90506126a58583615385565b8110156126f45760405162461bcd60e51b815260206004820152601b60248201527f4252494447455f4241445f544f4b454e5f494e5f42414c414e434500000000006044820152606401610a6a565b8a6001600160a01b03168c8e60ff167fa167c1255bafc7104c4249fd3b9e751bfc085a4865d00431b1184a2d0b71cebc8887898d8d60405161273a95949392919061519d565b60405180910390a45050505098975050505050505050565b606080612783336000357fffffffff0000000000000000000000000000000000000000000000000000000016612d0b565b6001600160a01b03871660009081526006602052604090205460ff166127eb5760405162461bcd60e51b815260206004820152601460248201527f53545241544547595f4e4f545f414c4c4f5745440000000000000000000000006044820152606401610a6a565b6001600160a01b0387166000908152600760205260409020546128505760405162461bcd60e51b815260206004820152601660248201527f455849545f4e4f5f494e5645535445445f56414c5545000000000000000000006044820152606401610a6a565b670de0b6b3a76400008411156128a85760405162461bcd60e51b815260206004820152601760248201527f455849545f534c4950504147455f41424f56455f4f4e450000000000000000006044820152606401610a6a565b84518651146128f95760405162461bcd60e51b815260206004820152601960248201527f455849545f494e5055545f494e56414c49445f4c454e475448000000000000006044820152606401610a6a565b60006129116001600160a01b03891688888888613ddf565b8151835193965091945092501461296a5760405162461bcd60e51b815260206004820152601a60248201527f455849545f4f55545055545f494e56414c49445f4c454e4754480000000000006044820152606401610a6a565b6000825167ffffffffffffffff81111561299457634e487b7160e01b600052604160045260246000fd5b6040519080825280602002602001820160405280156129bd578160200160208202803683370190505b5090506000826129cc8b611e08565b6129d69190615310565b6001600160a01b038b166000908152600760205260409020549091508111612a5a576001600160a01b038a16600090815260076020526040902054612a27908290612a2190866130d5565b90613f03565b6001600160a01b038b1660009081526007602052604081208054909190612a4f908490615385565b90915550612bec9050565b6001600160a01b038a16600090815260076020526040812054820390848210159081612a8857828603612a8b565b60005b6001600160a01b038e16600090815260076020526040902054909150612ab2908290615385565b6001600160a01b038e166000908152600760205260408120919091555b8851811015612be7576000898281518110612afa57634e487b7160e01b600052603260045260246000fd5b602002602001015190506000898381518110612b2657634e487b7160e01b600052603260045260246000fd5b60200260200101519050600085612b515789612b428884615348565b612b4c9190615328565b612b53565b815b90506000612b638483600f6132de565b9050612b6f8184615385565b8c8681518110612b8f57634e487b7160e01b600052603260045260246000fd5b602002602001018181525050808a8681518110612bbc57634e487b7160e01b600052603260045260246000fd5b60200260200101818152505050505050612be060018261344890919063ffffffff16565b9050612acf565b505050505b896001600160a01b03167f93d8f30ee317e072a8ef28fa15d7b971a88f92a36f75dbf70b6465b6773a3a418a8a888888888e8e604051612c33989796959493929190614f92565b60405180910390a25050509550959350505050565b612c76336000357fffffffff0000000000000000000000000000000000000000000000000000000016612d0b565b612c84600985858585612d61565b60408051858152602081018590526001600160a01b03841691810191909152606081018290527fe5978c2a23ccc9af802b0a59f3e9d95ec28487eea5c5fa85557a26854e263f67906080016109e0565b612d02336000357fffffffff0000000000000000000000000000000000000000000000000000000016612d0b565b61162c81614004565b612d15828261224c565b6118895760405162461bcd60e51b815260206004820152601760248201527f415554485f53454e4445525f4e4f545f414c4c4f5745440000000000000000006044820152606401610a6a565b670de0b6b3a7640000841115612db95760405162461bcd60e51b815260206004820152601160248201527f4645455f5043545f41424f56455f4f4e450000000000000000000000000000006044820152606401610a6a565b60006001600160a01b038316158015612dd0575083155b8015612dda575081155b905084151580612de75750805b612e335760405162461bcd60e51b815260206004820152601960248201527f494e56414c49445f4341505f574954485f4645455f5a45524f000000000000006044820152606401610a6a565b60006001600160a01b03841615801590612e4c57508415155b8015612e5757508215155b90508180612e625750805b612eae5760405162461bcd60e51b815260206004820152601760248201527f494e434f4e53495354454e545f4341505f56414c5545530000000000000000006044820152606401610a6a565b85875560018701859055600387018390558115612ed8576000600488018190556005880155612f40565b6005870154612ef557612eeb8342615310565b6005880155612f40565b60028701546001600160a01b03858116911614612f40576002870154600090612f27906001600160a01b031686611bf4565b6004890154909150612f39908261406f565b6004890155505b50505060029390930180547fffffffffffffffffffffffff0000000000000000000000000000000000000000166001600160a01b03909416939093179092555050565b60608060008063cfede73460e01b88888888604051602401612fa894939291906150d4565b604051602081830303815290604052907bffffffffffffffffffffffffffffffffffffffffffffffffffffffff19166020820180517bffffffffffffffffffffffffffffffffffffffffffffffffffffffff838183161783525050505090506000808a6001600160a01b0316836040516130229190614f48565b600060405180830381855af49150503d806000811461305d576040519150601f19603f3d011682016040523d82523d6000602084013e613062565b606091505b50915091506130a782826040518060400160405280601281526020017f4a4f494e5f43414c4c5f524556455254454400000000000000000000000000008152506140fb565b50808060200190518101906130bc9190614c07565b955095509550505050955095509592505050565b900390565b600082820283158061310357508284828161310057634e487b7160e01b600052601260045260246000fd5b04145b61314f5760405162461bcd60e51b815260206004820152600c60248201527f4d554c5f4f564552464c4f5700000000000000000000000000000000000000006044820152606401610a6a565b801561318a57670de0b6b3a76400007fffffffffffffffffffffffffffffffffffffffffffffffffffffffffffffffff82010460010161318d565b60005b949350505050565b60008063a231a78060e01b8888888888886040516024016131bb969594939291906151fc565b604051602081830303815290604052907bffffffffffffffffffffffffffffffffffffffffffffffffffffffff19166020820180517bffffffffffffffffffffffffffffffffffffffffffffffffffffffff838183161783525050505090506000808a6001600160a01b0316836040516132359190614f48565b600060405180830381855af49150503d8060008114613270576040519150601f19603f3d011682016040523d82523d6000602084013e613275565b606091505b50915091506132ba82826040518060400160405280601281526020017f535741505f43414c4c5f524556455254454400000000000000000000000000008152506140fb565b50808060200190518101906132cf9190614ccf565b9b9a5050505050505050505050565b805460009081906132f090859061406f565b60028401549091506001600160a01b0316158061330f57506001830154155b8061331c57506003830154155b15613340576008546133399086906001600160a01b0316836136b3565b9050611c99565b82600501544210613367576000600484015560038301546133619042615310565b60058401555b60028301546000906133839087906001600160a01b0316611bf4565b90506000613391838361406f565b905084600101548186600401546133a89190615310565b116133cf57829350808560040160008282546133c49190615310565b909155506134269050565b8460010154856004015410156134215780836133fc876004015488600101546130d090919063ffffffff16565b6134069190615348565b6134109190615328565b600186015460048701559350613426565b600093505b60085461343e9088906001600160a01b0316866136b3565b5050509392505050565b0190565b61345581614134565b600380547fffffffffffffffffffffffff0000000000000000000000000000000000000000166001600160a01b0383169081179091556040517f6536690106168bdf4ba72c128a053d817999b1db90cae23f139b293bf862cb7590600090a250565b6040516001600160a01b03808516602483015283166044820152606481018290526115ef9085907f23b872dd00000000000000000000000000000000000000000000000000000000906084015b604080517fffffffffffffffffffffffffffffffffffffffffffffffffffffffffffffffe08184030181529190526020810180517bffffffffffffffffffffffffffffffffffffffffffffffffffffffff167fffffffff0000000000000000000000000000000000000000000000000000000090931692909217909152614189565b6001600160a01b03821660008181526002602090815260408083207fffffffff0000000000000000000000000000000000000000000000000000000086168085529083529281902080547fffffffffffffffffffffffffffffffffffffffffffffffffffffffffffffff00169055519182527fa2e97b9eea8d1168700e334304edd057dff89c0384ca6f920c73cc3e48c8e52391015b60405180910390a25050565b6001600160a01b0383811660008181526001602090815260408083208786168085529083529281902080547fffffffffffffffffffffffff00000000000000000000000000000000000000001695871695861790555193845290927f519169f85e741141647fddd20ce1d573843e55c1ca650e85a3f82f3410ee5d04910160405180910390a3505050565b806136bd576118c6565b73eeeeeeeeeeeeeeeeeeeeeeeeeeeeeeeeeeeeeeee6001600160a01b03841614156136f1576136ec828261426e565b6118c6565b6118c66001600160a01b0384168383614387565b6001600160a01b03821660008181526002602090815260408083207fffffffff0000000000000000000000000000000000000000000000000000000086168085529083529281902080547fffffffffffffffffffffffffffffffffffffffffffffffffffffffffffffff00166001179055519182527f7f06c1c34ad47198873da9dcde2e40904035d41b23da3a9132df674a75022df7910161361c565b6001600160a01b0381166137f85760405162461bcd60e51b815260206004820152601260248201527f4645455f434f4c4c4543544f525f5a45524f00000000000000000000000000006044820152606401610a6a565b600880547fffffffffffffffffffffffff0000000000000000000000000000000000000000166001600160a01b0383169081179091556040517f12e1d17016b94668449f97876f4a8d5cc2c19f314db337418894734037cc19d490600090a250565b80156138695761386982614134565b6001600160a01b03821660008181526006602090815260409182902080547fffffffffffffffffffffffffffffffffffffffffffffffffffffffffffffff001685151590811790915591519182527f0b9ad240c35681e1d7a33b6b271c4aba6024a102ba32e826ae4f2e2010330756910161361c565b606080600063c63ff8dd60e01b846040516024016138fd9190615113565b604051602081830303815290604052907bffffffffffffffffffffffffffffffffffffffffffffffffffffffff19166020820180517bffffffffffffffffffffffffffffffffffffffffffffffffffffffff83818316178352505050509050600080866001600160a01b0316836040516139779190614f48565b600060405180830381855af49150503d80600081146139b2576040519150601f19603f3d011682016040523d82523d6000602084013e6139b7565b606091505b50915091506139fc82826040518060400160405280601381526020017f434c41494d5f43414c4c5f5245564552544544000000000000000000000000008152506140fb565b5080806020019051810190613a119190614bb0565b945094505050509250929050565b600054610100900460ff16613a9c5760405162461bcd60e51b815260206004820152602b60248201527f496e697469616c697a61626c653a20636f6e7472616374206973206e6f74206960448201527f6e697469616c697a696e670000000000000000000000000000000000000000006064820152608401610a6a565b613aa46143d0565b613ace817f933f0f3c00000000000000000000000000000000000000000000000000000000613705565b61162c817f6646a43600000000000000000000000000000000000000000000000000000000613705565b613b0181614134565b600580547fffffffffffffffffffffffff0000000000000000000000000000000000000000166001600160a01b0383169081179091556040517fd77cbc8d90692af17e598916f3d976ebb794bf776fe9a30fb64ad039c5d37f8190600090a250565b606082471015613bdb5760405162461bcd60e51b815260206004820152602660248201527f416464726573733a20696e73756666696369656e742062616c616e636520666f60448201527f722063616c6c00000000000000000000000000000000000000000000000000006064820152608401610a6a565b6001600160a01b0385163b613c325760405162461bcd60e51b815260206004820152601d60248201527f416464726573733a2063616c6c20746f206e6f6e2d636f6e74726163740000006044820152606401610a6a565b600080866001600160a01b03168587604051613c4e9190614f48565b60006040518083038185875af1925050503d8060008114613c8b576040519150601f19603f3d011682016040523d82523d6000602084013e613c90565b606091505b5091509150613ca08282866140fb565b979650505050505050565b600063f9cf051f60e01b88888888888888604051602401613cd29796959493929190615249565b604051602081830303815290604052907bffffffffffffffffffffffffffffffffffffffffffffffffffffffff19166020820180517bffffffffffffffffffffffffffffffffffffffffffffffffffffffff838183161783525050505090506000808a6001600160a01b031683604051613d4c9190614f48565b600060405180830381855af49150503d8060008114613d87576040519150601f19603f3d011682016040523d82523d6000602084013e613d8c565b606091505b5091509150613dd182826040518060400160405280601481526020017f4252494447455f43414c4c5f52455645525445440000000000000000000000008152506140fb565b505050505050505050505050565b60608060008063a9a80d2660e01b88888888604051602401613e0494939291906150d4565b604051602081830303815290604052907bffffffffffffffffffffffffffffffffffffffffffffffffffffffff19166020820180517bffffffffffffffffffffffffffffffffffffffffffffffffffffffff838183161783525050505090506000808a6001600160a01b031683604051613e7e9190614f48565b600060405180830381855af49150503d8060008114613eb9576040519150601f19603f3d011682016040523d82523d6000602084013e613ebe565b606091505b50915091506130a782826040518060400160405280601281526020017f455849545f43414c4c5f524556455254454400000000000000000000000000008152506140fb565b600081613f525760405162461bcd60e51b815260206004820152600d60248201527f5a45524f5f4449564953494f4e000000000000000000000000000000000000006044820152606401610a6a565b82613f5f57506000611bb7565b670de0b6b3a764000083810290848281613f8957634e487b7160e01b600052601260045260246000fd5b0414613fd75760405162461bcd60e51b815260206004820152600c60248201527f4449565f494e5445524e414c00000000000000000000000000000000000000006044820152606401610a6a565b826001820381613ff757634e487b7160e01b600052601260045260246000fd5b0460010191505092915050565b61400d81614134565b600480547fffffffffffffffffffffffff0000000000000000000000000000000000000000166001600160a01b0383169081179091556040517f68817df76a175ba84beeb646224c32929b792a33280e3f4bc3e8089552edaa6090600090a250565b600082820283158061409d57508284828161409a57634e487b7160e01b600052601260045260246000fd5b04145b6140e95760405162461bcd60e51b815260206004820152600c60248201527f4d554c5f4f564552464c4f5700000000000000000000000000000000000000006044820152606401610a6a565b670de0b6b3a764000090049392505050565b6060831561410a575081611c99565b82511561411a5782518084602001fd5b8160405162461bcd60e51b8152600401610a6a9190615113565b61413d8161444f565b61162c5760405162461bcd60e51b815260206004820152601860248201527f444550454e44454e43595f4e4f545f53544154454c45535300000000000000006044820152606401610a6a565b60006141de826040518060400160405280602081526020017f5361666545524332303a206c6f772d6c6576656c2063616c6c206661696c6564815250856001600160a01b03166145b59092919063ffffffff16565b8051909150156118c657808060200190518101906141fc9190614c71565b6118c65760405162461bcd60e51b815260206004820152602a60248201527f5361666545524332303a204552433230206f7065726174696f6e20646964206e60448201527f6f742073756363656564000000000000000000000000000000000000000000006064820152608401610a6a565b804710156142be5760405162461bcd60e51b815260206004820152601d60248201527f416464726573733a20696e73756666696369656e742062616c616e63650000006044820152606401610a6a565b6000826001600160a01b03168260405160006040518083038185875af1925050503d806000811461430b576040519150601f19603f3d011682016040523d82523d6000602084013e614310565b606091505b50509050806118c65760405162461bcd60e51b815260206004820152603a60248201527f416464726573733a20756e61626c6520746f2073656e642076616c75652c207260448201527f6563697069656e74206d617920686176652072657665727465640000000000006064820152608401610a6a565b6040516001600160a01b0383166024820152604481018290526118c69084907fa9059cbb0000000000000000000000000000000000000000000000000000000090606401613504565b600054610100900460ff1661444d5760405162461bcd60e51b815260206004820152602b60248201527f496e697469616c697a61626c653a20636f6e7472616374206973206e6f74206960448201527f6e697469616c697a696e670000000000000000000000000000000000000000006064820152608401610a6a565b565b6040517f9235dcf80000000000000000000000000000000000000000000000000000000081526001600160a01b0382811660048301526000918291829182917f00000000000000000000000000000000000000000000000000000000000000001690639235dcf89060240160606040518083038186803b1580156144d257600080fd5b505afa1580156144e6573d6000803e3d6000fd5b505050506040513d601f19601f8201168201806040525081019061450a9190614c8d565b919450925090508061455e5760405162461bcd60e51b815260206004820152601960248201527f444550454e44454e43595f4e4f545f52454749535445524544000000000000006044820152606401610a6a565b81156145ac5760405162461bcd60e51b815260206004820152601560248201527f444550454e44454e43595f4445505245434154454400000000000000000000006044820152606401610a6a565b50909392505050565b606061318d8484600085613b63565b600082601f8301126145d4578081fd5b813560206145e96145e4836152ec565b61529d565b80838252828201915082860187848660051b8901011115614608578586fd5b855b8581101561462f57813561461d816153f4565b8452928401929084019060010161460a565b5090979650505050505050565b600082601f83011261464c578081fd5b8151602061465c6145e4836152ec565b80838252828201915082860187848660051b890101111561467b578586fd5b855b8581101561462f578151614690816153f4565b8452928401929084019060010161467d565b600082601f8301126146b2578081fd5b815160206146c26145e4836152ec565b80838252828201915082860187848660051b89010111156146e1578586fd5b855b8581101561462f578151845292840192908401906001016146e3565b600082601f83011261470f578081fd5b813567ffffffffffffffff811115614729576147296153de565b61475a60207fffffffffffffffffffffffffffffffffffffffffffffffffffffffffffffffe0601f8401160161529d565b81815284602083860101111561476e578283fd5b816020850160208301379081016020019190915292915050565b803560ff81168114611e9e57600080fd5b6000602082840312156147aa578081fd5b8135611c99816153f4565b600080604083850312156147c7578081fd5b82356147d2816153f4565b915060208301356147e2816153f4565b809150509250929050565b600080600060608486031215614801578081fd5b833561480c816153f4565b9250602084013561481c816153f4565b9150604084013561482c816153f4565b809150509250925092565b6000806000806080858703121561484c578081fd5b8435614857816153f4565b93506020850135614867816153f4565b925060408501359150606085013567ffffffffffffffff811115614889578182fd5b614895878288016146ff565b91505092959194509250565b600080600080600060a086880312156148b8578283fd5b85356148c3816153f4565b945060208681013567ffffffffffffffff808211156148e0578586fd5b6148ec8a838b016145c4565b96506040890135915080821115614901578586fd5b818901915089601f830112614914578586fd5b81356149226145e4826152ec565b8082825285820191508585018d878560051b880101111561494157898afd5b8995505b83861015614963578035835260019590950194918601918601614945565b5097505050606089013594506080890135925080831115614982578384fd5b5050614990888289016146ff565b9150509295509295909350565b600080604083850312156149af578182fd5b82356149ba816153f4565b915060208301356147e281615409565b600080604083850312156149dc578182fd5b82356149e7816153f4565b915060208301357fffffffff00000000000000000000000000000000000000000000000000000000811681146147e2578182fd5b60008060408385031215614a2d578182fd5b8235614a38816153f4565b9150602083013567ffffffffffffffff811115614a53578182fd5b614a5f858286016146ff565b9150509250929050565b60008060008060808587031215614a7e578182fd5b8435614a89816153f4565b9350602085013567ffffffffffffffff80821115614aa5578384fd5b614ab1888389016146ff565b9450604087013593506060870135915080821115614acd578283fd5b50614895878288016146ff565b60008060008060808587031215614aef578182fd5b8435614afa816153f4565b9350602085013592506040850135614b11816153f4565b9150606085013567ffffffffffffffff811115614889578182fd5b600080600060608486031215614b40578081fd5b833567ffffffffffffffff80821115614b57578283fd5b614b63878388016145c4565b94506020860135915080821115614b78578283fd5b614b84878388016145c4565b93506040860135915080821115614b99578283fd5b50614ba6868287016145c4565b9150509250925092565b60008060408385031215614bc2578182fd5b825167ffffffffffffffff80821115614bd9578384fd5b614be58683870161463c565b93506020850151915080821115614bfa578283fd5b50614a5f858286016146a2565b600080600060608486031215614c1b578081fd5b835167ffffffffffffffff80821115614c32578283fd5b614c3e8783880161463c565b94506020860151915080821115614c53578283fd5b50614c60868287016146a2565b925050604084015190509250925092565b600060208284031215614c82578081fd5b8151611c9981615409565b600080600060608486031215614ca1578081fd5b8351614cac81615409565b6020850151909350614cbd81615409565b80925050604084015190509250925092565b600060208284031215614ce0578081fd5b5051919050565b60008060408385031215614cf9578182fd5b82359150602083013567ffffffffffffffff811115614a53578182fd5b60008060008060808587031215614d2b578182fd5b84359350602085013592506040850135614d44816153f4565b9396929550929360600135925050565b600080600080600080600060e0888a031215614d6e578485fd5b614d7788614788565b96506020880135614d87816153f4565b95506040880135614d97816153f4565b9450606088013593506080880135614dae81615417565b925060a0880135915060c088013567ffffffffffffffff811115614dd0578182fd5b614ddc8a828b016146ff565b91505092959891949750929550565b600080600080600080600080610100898b031215614e07578182fd5b614e1089614788565b9750602089013596506040890135614e27816153f4565b9550606089013594506080890135614e3e81615417565b935060a0890135925060c0890135614e55816153f4565b915060e089013567ffffffffffffffff811115614e70578182fd5b614e7c8b828c016146ff565b9150509295985092959890939650565b6000815180845260208085019450808401835b83811015614ec45781516001600160a01b031687529582019590820190600101614e9f565b509495945050505050565b6000815180845260208085019450808401835b83811015614ec457815187529582019590820190600101614ee2565b60008151808452614f1681602086016020860161539c565b601f017fffffffffffffffffffffffffffffffffffffffffffffffffffffffffffffffe0169290920160200192915050565b60008251614f5a81846020870161539c565b9190910192915050565b600060408252614f776040830185614e8c565b8281036020840152614f898185614ecf565b95945050505050565b6000610100808352614fa68184018c614e8c565b90508281036020840152614fba818b614ecf565b90508281036040840152614fce818a614e8c565b90508281036060840152614fe28189614ecf565b905086608084015282810360a0840152614ffc8187614ecf565b90508460c084015282810360e08401526132cf8185614efe565b600060e0825261502960e083018a614e8c565b828103602084015261503b818a614ecf565b9050828103604084015261504f8189614e8c565b905082810360608401526150638188614ecf565b90508560808401528460a084015282810360c08401526150838185614efe565b9a9950505050505050505050565b6000606082526150a46060830186614e8c565b82810360208401526150b68186614ecf565b905082810360408401526150ca8185614efe565b9695505050505050565b6000608082526150e76080830187614e8c565b82810360208401526150f98187614ecf565b90508460408401528281036060840152613ca08185614efe565b600060208252611c996020830184614efe565b6000608082526151396080830187614efe565b85602084015282810360408401526151518186614efe565b90508281036060840152613ca08185614efe565b60008382526040602083015261318d6040830184614efe565b600084825283602083015260606040830152614f896060830184614efe565b60008682528560208301528460408301526001600160a01b038416606083015260a06080830152613ca060a0830184614efe565b600086825285602083015284604083015283606083015260a06080830152613ca060a0830184614efe565b600060ff881682526001600160a01b03808816602084015280871660408401525084606083015283608083015260c060a083015261523d60c0830184614efe565b98975050505050505050565b600060ff891682528760208301526001600160a01b03808816604084015286606084015285608084015280851660a08401525060e060c083015261529060e0830184614efe565b9998505050505050505050565b604051601f82017fffffffffffffffffffffffffffffffffffffffffffffffffffffffffffffffe016810167ffffffffffffffff811182821017156152e4576152e46153de565b604052919050565b600067ffffffffffffffff821115615306576153066153de565b5060051b60200190565b60008219821115615323576153236153c8565b500190565b60008261534357634e487b7160e01b81526012600452602481fd5b500490565b6000817fffffffffffffffffffffffffffffffffffffffffffffffffffffffffffffffff0483118215151615615380576153806153c8565b500290565b600082821015615397576153976153c8565b500390565b60005b838110156153b757818101518382015260200161539f565b838111156115ef5750506000910152565b634e487b7160e01b600052601160045260246000fd5b634e487b7160e01b600052604160045260246000fd5b6001600160a01b038116811461162c57600080fd5b801515811461162c57600080fd5b6002811061162c57600080fdfea2646970667358221220aebe3178f463767e86bfaa581a1cd71612c613330b00bb8d3df1940874637def64736f6c63430008030033","opcodes":"PUSH1 0xC0 PUSH1 0x40 MSTORE CALLVALUE DUP1 ISZERO PUSH3 0x11 JUMPI PUSH1 0x0 DUP1 REVERT JUMPDEST POP PUSH1 0x40 MLOAD PUSH3 0x561C CODESIZE SUB DUP1 PUSH3 0x561C DUP4 CODECOPY DUP2 ADD PUSH1 0x40 DUP2 SWAP1 MSTORE PUSH3 0x34 SWAP2 PUSH3 0x14A JUMP JUMPDEST PUSH1 0x1 PUSH1 0x1 PUSH1 0x60 SHL SUB NOT PUSH1 0x60 DUP3 SWAP1 SHL AND PUSH1 0x80 MSTORE DUP1 DUP1 PUSH3 0x52 PUSH3 0x6B JUMP JUMPDEST POP POP POP PUSH1 0x60 SHL PUSH1 0x1 PUSH1 0x1 PUSH1 0x60 SHL SUB NOT AND PUSH1 0xA0 MSTORE PUSH3 0x181 JUMP JUMPDEST PUSH1 0x0 SLOAD PUSH2 0x100 SWAP1 DIV PUSH1 0xFF AND ISZERO PUSH3 0xD8 JUMPI PUSH1 0x40 MLOAD PUSH3 0x461BCD PUSH1 0xE5 SHL DUP2 MSTORE PUSH1 0x20 PUSH1 0x4 DUP3 ADD MSTORE PUSH1 0x27 PUSH1 0x24 DUP3 ADD MSTORE PUSH32 0x496E697469616C697A61626C653A20636F6E747261637420697320696E697469 PUSH1 0x44 DUP3 ADD MSTORE PUSH7 0x616C697A696E67 PUSH1 0xC8 SHL PUSH1 0x64 DUP3 ADD MSTORE PUSH1 0x84 ADD PUSH1 0x40 MLOAD DUP1 SWAP2 SUB SWAP1 REVERT JUMPDEST PUSH1 0x0 SLOAD PUSH1 0xFF SWAP1 DUP2 AND LT ISZERO PUSH3 0x12B JUMPI PUSH1 0x0 DUP1 SLOAD PUSH1 0xFF NOT AND PUSH1 0xFF SWAP1 DUP2 OR SWAP1 SWAP2 SSTORE PUSH1 0x40 MLOAD SWAP1 DUP2 MSTORE PUSH32 0x7F26B83FF96E1F2B6A682F133852F6798A09C465DA95921460CEFB3847402498 SWAP1 PUSH1 0x20 ADD PUSH1 0x40 MLOAD DUP1 SWAP2 SUB SWAP1 LOG1 JUMPDEST JUMP JUMPDEST DUP1 MLOAD PUSH1 0x1 PUSH1 0x1 PUSH1 0xA0 SHL SUB DUP2 AND DUP2 EQ PUSH3 0x145 JUMPI PUSH1 0x0 DUP1 REVERT JUMPDEST SWAP2 SWAP1 POP JUMP JUMPDEST PUSH1 0x0 DUP1 PUSH1 0x40 DUP4 DUP6 SUB SLT ISZERO PUSH3 0x15D JUMPI DUP2 DUP3 REVERT JUMPDEST PUSH3 0x168 DUP4 PUSH3 0x12D JUMP JUMPDEST SWAP2 POP PUSH3 0x178 PUSH1 0x20 DUP5 ADD PUSH3 0x12D JUMP JUMPDEST SWAP1 POP SWAP3 POP SWAP3 SWAP1 POP JUMP JUMPDEST PUSH1 0x80 MLOAD PUSH1 0x60 SHR PUSH1 0xA0 MLOAD PUSH1 0x60 SHR PUSH2 0x545A PUSH3 0x1C2 PUSH1 0x0 CODECOPY PUSH1 0x0 DUP2 DUP2 PUSH2 0x348 ADD MSTORE DUP2 DUP2 PUSH2 0xAF1 ADD MSTORE PUSH2 0x1D51 ADD MSTORE PUSH1 0x0 DUP2 DUP2 PUSH2 0x60D ADD MSTORE PUSH2 0x4490 ADD MSTORE PUSH2 0x545A PUSH1 0x0 RETURN INVALID PUSH1 0x80 PUSH1 0x40 MSTORE PUSH1 0x4 CALLDATASIZE LT PUSH2 0x2D5 JUMPI PUSH1 0x0 CALLDATALOAD PUSH1 0xE0 SHR DUP1 PUSH4 0x9003AFEE GT PUSH2 0x179 JUMPI DUP1 PUSH4 0xC415B95C GT PUSH2 0xD6 JUMPI DUP1 PUSH4 0xD9972B96 GT PUSH2 0x8A JUMPI DUP1 PUSH4 0xEA8148A6 GT PUSH2 0x64 JUMPI DUP1 PUSH4 0xEA8148A6 EQ PUSH2 0x8F8 JUMPI DUP1 PUSH4 0xEEA5C1EA EQ PUSH2 0x918 JUMPI DUP1 PUSH4 0xFEE415F8 EQ PUSH2 0x938 JUMPI PUSH2 0x2DC JUMP JUMPDEST DUP1 PUSH4 0xD9972B96 EQ PUSH2 0x884 JUMPI DUP1 PUSH4 0xE2A81602 EQ PUSH2 0x8A4 JUMPI DUP1 PUSH4 0xE941FA78 EQ PUSH2 0x8C4 JUMPI PUSH2 0x2DC JUMP JUMPDEST DUP1 PUSH4 0xC56924BA GT PUSH2 0xBB JUMPI DUP1 PUSH4 0xC56924BA EQ PUSH2 0x817 JUMPI DUP1 PUSH4 0xC9FD86AC EQ PUSH2 0x837 JUMPI DUP1 PUSH4 0xCC58002C EQ PUSH2 0x857 JUMPI PUSH2 0x2DC JUMP JUMPDEST DUP1 PUSH4 0xC415B95C EQ PUSH2 0x7D7 JUMPI DUP1 PUSH4 0xC4D66DE8 EQ PUSH2 0x7F7 JUMPI PUSH2 0x2DC JUMP JUMPDEST DUP1 PUSH4 0xAC41865A GT PUSH2 0x12D JUMPI DUP1 PUSH4 0xBA03E93F GT PUSH2 0x112 JUMPI DUP1 PUSH4 0xBA03E93F EQ PUSH2 0x777 JUMPI DUP1 PUSH4 0xBAA82A34 EQ PUSH2 0x797 JUMPI DUP1 PUSH4 0xBB1757CF EQ PUSH2 0x7B7 JUMPI PUSH2 0x2DC JUMP JUMPDEST DUP1 PUSH4 0xAC41865A EQ PUSH2 0x737 JUMPI DUP1 PUSH4 0xB413148E EQ PUSH2 0x757 JUMPI PUSH2 0x2DC JUMP JUMPDEST DUP1 PUSH4 0x9907DCF6 GT PUSH2 0x15E JUMPI DUP1 PUSH4 0x9907DCF6 EQ PUSH2 0x6D7 JUMPI DUP1 PUSH4 0x9F0514AD EQ PUSH2 0x6F7 JUMPI DUP1 PUSH4 0xA42DCE80 EQ PUSH2 0x717 JUMPI PUSH2 0x2DC JUMP JUMPDEST DUP1 PUSH4 0x9003AFEE EQ PUSH2 0x697 JUMPI DUP1 PUSH4 0x933F0F3C EQ PUSH2 0x6B7 JUMPI PUSH2 0x2DC JUMP JUMPDEST DUP1 PUSH4 0x530E784F GT PUSH2 0x232 JUMPI DUP1 PUSH4 0x67A1D5AB GT PUSH2 0x1E6 JUMPI DUP1 PUSH4 0x7B103999 GT PUSH2 0x1C0 JUMPI DUP1 PUSH4 0x7B103999 EQ PUSH2 0x5FB JUMPI DUP1 PUSH4 0x82B12DD7 EQ PUSH2 0x62F JUMPI DUP1 PUSH4 0x87788782 EQ PUSH2 0x663 JUMPI PUSH2 0x2DC JUMP JUMPDEST DUP1 PUSH4 0x67A1D5AB EQ PUSH2 0x57B JUMPI DUP1 PUSH4 0x67C1DEF9 EQ PUSH2 0x59B JUMPI DUP1 PUSH4 0x6D9A76A9 EQ PUSH2 0x5DB JUMPI PUSH2 0x2DC JUMP JUMPDEST DUP1 PUSH4 0x54CF2AEB GT PUSH2 0x217 JUMPI DUP1 PUSH4 0x54CF2AEB EQ PUSH2 0x4CC JUMPI DUP1 PUSH4 0x5AF547E6 EQ PUSH2 0x53B JUMPI DUP1 PUSH4 0x6646A436 EQ PUSH2 0x55B JUMPI PUSH2 0x2DC JUMP JUMPDEST DUP1 PUSH4 0x530E784F EQ PUSH2 0x47F JUMPI DUP1 PUSH4 0x543B9235 EQ PUSH2 0x49F JUMPI PUSH2 0x2DC JUMP JUMPDEST DUP1 PUSH4 0x2630C12F GT PUSH2 0x289 JUMPI DUP1 PUSH4 0x3F81A192 GT PUSH2 0x26E JUMPI DUP1 PUSH4 0x3F81A192 EQ PUSH2 0x410 JUMPI DUP1 PUSH4 0x44BA1FCA EQ PUSH2 0x42B JUMPI DUP1 PUSH4 0x4ED31090 EQ PUSH2 0x45F JUMPI PUSH2 0x2DC JUMP JUMPDEST DUP1 PUSH4 0x2630C12F EQ PUSH2 0x3D0 JUMPI DUP1 PUSH4 0x37E0AC02 EQ PUSH2 0x3F0 JUMPI PUSH2 0x2DC JUMP JUMPDEST DUP1 PUSH4 0x17FCB39B GT PUSH2 0x2BA JUMPI DUP1 PUSH4 0x17FCB39B EQ PUSH2 0x336 JUMPI DUP1 PUSH4 0x18F51FEA EQ PUSH2 0x382 JUMPI DUP1 PUSH4 0x1FACC5D6 EQ PUSH2 0x3A2 JUMPI PUSH2 0x2DC JUMP JUMPDEST DUP1 PUSH4 0x7223781 EQ PUSH2 0x2E1 JUMPI DUP1 PUSH4 0x109B3C83 EQ PUSH2 0x303 JUMPI PUSH2 0x2DC JUMP JUMPDEST CALLDATASIZE PUSH2 0x2DC JUMPI STOP JUMPDEST PUSH1 0x0 DUP1 REVERT JUMPDEST CALLVALUE DUP1 ISZERO PUSH2 0x2ED JUMPI PUSH1 0x0 DUP1 REVERT JUMPDEST POP PUSH2 0x301 PUSH2 0x2FC CALLDATASIZE PUSH1 0x4 PUSH2 0x4D16 JUMP JUMPDEST PUSH2 0x958 JUMP JUMPDEST STOP JUMPDEST CALLVALUE DUP1 ISZERO PUSH2 0x30F JUMPI PUSH1 0x0 DUP1 REVERT JUMPDEST POP PUSH2 0x323 PUSH2 0x31E CALLDATASIZE PUSH1 0x4 PUSH2 0x4CE7 JUMP JUMPDEST PUSH2 0x9EE JUMP JUMPDEST PUSH1 0x40 MLOAD SWAP1 DUP2 MSTORE PUSH1 0x20 ADD JUMPDEST PUSH1 0x40 MLOAD DUP1 SWAP2 SUB SWAP1 RETURN JUMPDEST CALLVALUE DUP1 ISZERO PUSH2 0x342 JUMPI PUSH1 0x0 DUP1 REVERT JUMPDEST POP PUSH2 0x36A PUSH32 0x0 DUP2 JUMP JUMPDEST PUSH1 0x40 MLOAD PUSH1 0x1 PUSH1 0x1 PUSH1 0xA0 SHL SUB SWAP1 SWAP2 AND DUP2 MSTORE PUSH1 0x20 ADD PUSH2 0x32D JUMP JUMPDEST CALLVALUE DUP1 ISZERO PUSH2 0x38E JUMPI PUSH1 0x0 DUP1 REVERT JUMPDEST POP PUSH1 0x4 SLOAD PUSH2 0x36A SWAP1 PUSH1 0x1 PUSH1 0x1 PUSH1 0xA0 SHL SUB AND DUP2 JUMP JUMPDEST CALLVALUE DUP1 ISZERO PUSH2 0x3AE JUMPI PUSH1 0x0 DUP1 REVERT JUMPDEST POP PUSH2 0x3C2 PUSH2 0x3BD CALLDATASIZE PUSH1 0x4 PUSH2 0x48A1 JUMP JUMPDEST PUSH2 0xCB3 JUMP JUMPDEST PUSH1 0x40 MLOAD PUSH2 0x32D SWAP3 SWAP2 SWAP1 PUSH2 0x4F64 JUMP JUMPDEST CALLVALUE DUP1 ISZERO PUSH2 0x3DC JUMPI PUSH1 0x0 DUP1 REVERT JUMPDEST POP PUSH1 0x3 SLOAD PUSH2 0x36A SWAP1 PUSH1 0x1 PUSH1 0x1 PUSH1 0xA0 SHL SUB AND DUP2 JUMP JUMPDEST CALLVALUE DUP1 ISZERO PUSH2 0x3FC JUMPI PUSH1 0x0 DUP1 REVERT JUMPDEST POP PUSH2 0x323 PUSH2 0x40B CALLDATASIZE PUSH1 0x4 PUSH2 0x4D54 JUMP JUMPDEST PUSH2 0xEF6 JUMP JUMPDEST CALLVALUE DUP1 ISZERO PUSH2 0x41C JUMPI PUSH1 0x0 DUP1 REVERT JUMPDEST POP PUSH2 0x36A PUSH1 0x1 PUSH1 0x1 PUSH1 0xA0 SHL SUB DUP2 JUMP JUMPDEST CALLVALUE DUP1 ISZERO PUSH2 0x437 JUMPI PUSH1 0x0 DUP1 REVERT JUMPDEST POP PUSH2 0x323 PUSH32 0xDD327BA0BA6E7BB0E0099273577340E52E9E071B1B87834B866BAFCCDC4C14CB DUP2 JUMP JUMPDEST CALLVALUE DUP1 ISZERO PUSH2 0x46B JUMPI PUSH1 0x0 DUP1 REVERT JUMPDEST POP PUSH2 0x301 PUSH2 0x47A CALLDATASIZE PUSH1 0x4 PUSH2 0x4B2C JUMP JUMPDEST PUSH2 0x14B9 JUMP JUMPDEST CALLVALUE DUP1 ISZERO PUSH2 0x48B JUMPI PUSH1 0x0 DUP1 REVERT JUMPDEST POP PUSH2 0x301 PUSH2 0x49A CALLDATASIZE PUSH1 0x4 PUSH2 0x4799 JUMP JUMPDEST PUSH2 0x15F5 JUMP JUMPDEST CALLVALUE DUP1 ISZERO PUSH2 0x4AB JUMPI PUSH1 0x0 DUP1 REVERT JUMPDEST POP PUSH2 0x323 PUSH2 0x4BA CALLDATASIZE PUSH1 0x4 PUSH2 0x4799 JUMP JUMPDEST PUSH1 0x7 PUSH1 0x20 MSTORE PUSH1 0x0 SWAP1 DUP2 MSTORE PUSH1 0x40 SWAP1 KECCAK256 SLOAD DUP2 JUMP JUMPDEST CALLVALUE DUP1 ISZERO PUSH2 0x4D8 JUMPI PUSH1 0x0 DUP1 REVERT JUMPDEST POP PUSH1 0x15 SLOAD PUSH1 0x16 SLOAD PUSH1 0x17 SLOAD PUSH1 0x18 SLOAD PUSH1 0x19 SLOAD PUSH1 0x1A SLOAD PUSH2 0x500 SWAP6 SWAP5 SWAP4 PUSH1 0x1 PUSH1 0x1 PUSH1 0xA0 SHL SUB AND SWAP3 SWAP2 SWAP1 DUP7 JUMP JUMPDEST PUSH1 0x40 DUP1 MLOAD SWAP7 DUP8 MSTORE PUSH1 0x20 DUP8 ADD SWAP6 SWAP1 SWAP6 MSTORE PUSH1 0x1 PUSH1 0x1 PUSH1 0xA0 SHL SUB SWAP1 SWAP4 AND SWAP4 DUP6 ADD SWAP4 SWAP1 SWAP4 MSTORE PUSH1 0x60 DUP5 ADD MSTORE PUSH1 0x80 DUP4 ADD SWAP2 SWAP1 SWAP2 MSTORE PUSH1 0xA0 DUP3 ADD MSTORE PUSH1 0xC0 ADD PUSH2 0x32D JUMP JUMPDEST CALLVALUE DUP1 ISZERO PUSH2 0x547 JUMPI PUSH1 0x0 DUP1 REVERT JUMPDEST POP PUSH2 0x323 PUSH2 0x556 CALLDATASIZE PUSH1 0x4 PUSH2 0x4837 JUMP JUMPDEST PUSH2 0x162F JUMP JUMPDEST CALLVALUE DUP1 ISZERO PUSH2 0x567 JUMPI PUSH1 0x0 DUP1 REVERT JUMPDEST POP PUSH2 0x301 PUSH2 0x576 CALLDATASIZE PUSH1 0x4 PUSH2 0x49CA JUMP JUMPDEST PUSH2 0x1851 JUMP JUMPDEST CALLVALUE DUP1 ISZERO PUSH2 0x587 JUMPI PUSH1 0x0 DUP1 REVERT JUMPDEST POP PUSH2 0x301 PUSH2 0x596 CALLDATASIZE PUSH1 0x4 PUSH2 0x47ED JUMP JUMPDEST PUSH2 0x188D JUMP JUMPDEST CALLVALUE DUP1 ISZERO PUSH2 0x5A7 JUMPI PUSH1 0x0 DUP1 REVERT JUMPDEST POP PUSH2 0x5CB PUSH2 0x5B6 CALLDATASIZE PUSH1 0x4 PUSH2 0x4799 JUMP JUMPDEST PUSH1 0x6 PUSH1 0x20 MSTORE PUSH1 0x0 SWAP1 DUP2 MSTORE PUSH1 0x40 SWAP1 KECCAK256 SLOAD PUSH1 0xFF AND DUP2 JUMP JUMPDEST PUSH1 0x40 MLOAD SWAP1 ISZERO ISZERO DUP2 MSTORE PUSH1 0x20 ADD PUSH2 0x32D JUMP JUMPDEST CALLVALUE DUP1 ISZERO PUSH2 0x5E7 JUMPI PUSH1 0x0 DUP1 REVERT JUMPDEST POP PUSH2 0x301 PUSH2 0x5F6 CALLDATASIZE PUSH1 0x4 PUSH2 0x4D16 JUMP JUMPDEST PUSH2 0x18CB JUMP JUMPDEST CALLVALUE DUP1 ISZERO PUSH2 0x607 JUMPI PUSH1 0x0 DUP1 REVERT JUMPDEST POP PUSH2 0x36A PUSH32 0x0 DUP2 JUMP JUMPDEST CALLVALUE DUP1 ISZERO PUSH2 0x63B JUMPI PUSH1 0x0 DUP1 REVERT JUMPDEST POP PUSH1 0x1B SLOAD PUSH1 0x1C SLOAD PUSH1 0x1D SLOAD PUSH1 0x1E SLOAD PUSH1 0x1F SLOAD PUSH1 0x20 SLOAD PUSH2 0x500 SWAP6 SWAP5 SWAP4 PUSH1 0x1 PUSH1 0x1 PUSH1 0xA0 SHL SUB AND SWAP3 SWAP2 SWAP1 DUP7 JUMP JUMPDEST CALLVALUE DUP1 ISZERO PUSH2 0x66F JUMPI PUSH1 0x0 DUP1 REVERT JUMPDEST POP PUSH1 0xF SLOAD PUSH1 0x10 SLOAD PUSH1 0x11 SLOAD PUSH1 0x12 SLOAD PUSH1 0x13 SLOAD PUSH1 0x14 SLOAD PUSH2 0x500 SWAP6 SWAP5 SWAP4 PUSH1 0x1 PUSH1 0x1 PUSH1 0xA0 SHL SUB AND SWAP3 SWAP2 SWAP1 DUP7 JUMP JUMPDEST CALLVALUE DUP1 ISZERO PUSH2 0x6A3 JUMPI PUSH1 0x0 DUP1 REVERT JUMPDEST POP PUSH2 0x323 PUSH2 0x6B2 CALLDATASIZE PUSH1 0x4 PUSH2 0x4ADA JUMP JUMPDEST PUSH2 0x1957 JUMP JUMPDEST CALLVALUE DUP1 ISZERO PUSH2 0x6C3 JUMPI PUSH1 0x0 DUP1 REVERT JUMPDEST POP PUSH2 0x301 PUSH2 0x6D2 CALLDATASIZE PUSH1 0x4 PUSH2 0x49CA JUMP JUMPDEST PUSH2 0x1ACA JUMP JUMPDEST CALLVALUE DUP1 ISZERO PUSH2 0x6E3 JUMPI PUSH1 0x0 DUP1 REVERT JUMPDEST POP PUSH2 0x301 PUSH2 0x6F2 CALLDATASIZE PUSH1 0x4 PUSH2 0x4D16 JUMP JUMPDEST PUSH2 0x1B02 JUMP JUMPDEST CALLVALUE DUP1 ISZERO PUSH2 0x703 JUMPI PUSH1 0x0 DUP1 REVERT JUMPDEST POP PUSH2 0x36A PUSH2 0x712 CALLDATASIZE PUSH1 0x4 PUSH2 0x47B5 JUMP JUMPDEST PUSH2 0x1B8E JUMP JUMPDEST CALLVALUE DUP1 ISZERO PUSH2 0x723 JUMPI PUSH1 0x0 DUP1 REVERT JUMPDEST POP PUSH2 0x301 PUSH2 0x732 CALLDATASIZE PUSH1 0x4 PUSH2 0x4799 JUMP JUMPDEST PUSH2 0x1BBD JUMP JUMPDEST CALLVALUE DUP1 ISZERO PUSH2 0x743 JUMPI PUSH1 0x0 DUP1 REVERT JUMPDEST POP PUSH2 0x323 PUSH2 0x752 CALLDATASIZE PUSH1 0x4 PUSH2 0x47B5 JUMP JUMPDEST PUSH2 0x1BF4 JUMP JUMPDEST CALLVALUE DUP1 ISZERO PUSH2 0x763 JUMPI PUSH1 0x0 DUP1 REVERT JUMPDEST POP PUSH2 0x323 PUSH2 0x772 CALLDATASIZE PUSH1 0x4 PUSH2 0x4CE7 JUMP JUMPDEST PUSH2 0x1CA0 JUMP JUMPDEST CALLVALUE DUP1 ISZERO PUSH2 0x783 JUMPI PUSH1 0x0 DUP1 REVERT JUMPDEST POP PUSH2 0x323 PUSH2 0x792 CALLDATASIZE PUSH1 0x4 PUSH2 0x4799 JUMP JUMPDEST PUSH2 0x1E08 JUMP JUMPDEST CALLVALUE DUP1 ISZERO PUSH2 0x7A3 JUMPI PUSH1 0x0 DUP1 REVERT JUMPDEST POP PUSH2 0x301 PUSH2 0x7B2 CALLDATASIZE PUSH1 0x4 PUSH2 0x499D JUMP JUMPDEST PUSH2 0x1EA3 JUMP JUMPDEST CALLVALUE DUP1 ISZERO PUSH2 0x7C3 JUMPI PUSH1 0x0 DUP1 REVERT JUMPDEST POP PUSH2 0x3C2 PUSH2 0x7D2 CALLDATASIZE PUSH1 0x4 PUSH2 0x4A1B JUMP JUMPDEST PUSH2 0x1EDB JUMP JUMPDEST CALLVALUE DUP1 ISZERO PUSH2 0x7E3 JUMPI PUSH1 0x0 DUP1 REVERT JUMPDEST POP PUSH1 0x8 SLOAD PUSH2 0x36A SWAP1 PUSH1 0x1 PUSH1 0x1 PUSH1 0xA0 SHL SUB AND DUP2 JUMP JUMPDEST CALLVALUE DUP1 ISZERO PUSH2 0x803 JUMPI PUSH1 0x0 DUP1 REVERT JUMPDEST POP PUSH2 0x301 PUSH2 0x812 CALLDATASIZE PUSH1 0x4 PUSH2 0x4799 JUMP JUMPDEST PUSH2 0x1FDA JUMP JUMPDEST CALLVALUE DUP1 ISZERO PUSH2 0x823 JUMPI PUSH1 0x0 DUP1 REVERT JUMPDEST POP PUSH1 0x5 SLOAD PUSH2 0x36A SWAP1 PUSH1 0x1 PUSH1 0x1 PUSH1 0xA0 SHL SUB AND DUP2 JUMP JUMPDEST CALLVALUE DUP1 ISZERO PUSH2 0x843 JUMPI PUSH1 0x0 DUP1 REVERT JUMPDEST POP PUSH2 0x301 PUSH2 0x852 CALLDATASIZE PUSH1 0x4 PUSH2 0x4799 JUMP JUMPDEST PUSH2 0x2153 JUMP JUMPDEST CALLVALUE DUP1 ISZERO PUSH2 0x863 JUMPI PUSH1 0x0 DUP1 REVERT JUMPDEST POP PUSH2 0x877 PUSH2 0x872 CALLDATASIZE PUSH1 0x4 PUSH2 0x4A69 JUMP JUMPDEST PUSH2 0x218A JUMP JUMPDEST PUSH1 0x40 MLOAD PUSH2 0x32D SWAP2 SWAP1 PUSH2 0x5113 JUMP JUMPDEST CALLVALUE DUP1 ISZERO PUSH2 0x890 JUMPI PUSH1 0x0 DUP1 REVERT JUMPDEST POP PUSH2 0x5CB PUSH2 0x89F CALLDATASIZE PUSH1 0x4 PUSH2 0x49CA JUMP JUMPDEST PUSH2 0x224C JUMP JUMPDEST CALLVALUE DUP1 ISZERO PUSH2 0x8B0 JUMPI PUSH1 0x0 DUP1 REVERT JUMPDEST POP PUSH2 0x323 PUSH2 0x8BF CALLDATASIZE PUSH1 0x4 PUSH2 0x4DEB JUMP JUMPDEST PUSH2 0x22F5 JUMP JUMPDEST CALLVALUE DUP1 ISZERO PUSH2 0x8D0 JUMPI PUSH1 0x0 DUP1 REVERT JUMPDEST POP PUSH1 0x9 SLOAD PUSH1 0xA SLOAD PUSH1 0xB SLOAD PUSH1 0xC SLOAD PUSH1 0xD SLOAD PUSH1 0xE SLOAD PUSH2 0x500 SWAP6 SWAP5 SWAP4 PUSH1 0x1 PUSH1 0x1 PUSH1 0xA0 SHL SUB AND SWAP3 SWAP2 SWAP1 DUP7 JUMP JUMPDEST CALLVALUE DUP1 ISZERO PUSH2 0x904 JUMPI PUSH1 0x0 DUP1 REVERT JUMPDEST POP PUSH2 0x3C2 PUSH2 0x913 CALLDATASIZE PUSH1 0x4 PUSH2 0x48A1 JUMP JUMPDEST PUSH2 0x2752 JUMP JUMPDEST CALLVALUE DUP1 ISZERO PUSH2 0x924 JUMPI PUSH1 0x0 DUP1 REVERT JUMPDEST POP PUSH2 0x301 PUSH2 0x933 CALLDATASIZE PUSH1 0x4 PUSH2 0x4D16 JUMP JUMPDEST PUSH2 0x2C48 JUMP JUMPDEST CALLVALUE DUP1 ISZERO PUSH2 0x944 JUMPI PUSH1 0x0 DUP1 REVERT JUMPDEST POP PUSH2 0x301 PUSH2 0x953 CALLDATASIZE PUSH1 0x4 PUSH2 0x4799 JUMP JUMPDEST PUSH2 0x2CD4 JUMP JUMPDEST PUSH2 0x986 CALLER PUSH1 0x0 CALLDATALOAD PUSH32 0xFFFFFFFF00000000000000000000000000000000000000000000000000000000 AND PUSH2 0x2D0B JUMP JUMPDEST PUSH2 0x994 PUSH1 0x1B DUP6 DUP6 DUP6 DUP6 PUSH2 0x2D61 JUMP JUMPDEST PUSH1 0x40 DUP1 MLOAD DUP6 DUP2 MSTORE PUSH1 0x20 DUP2 ADD DUP6 SWAP1 MSTORE PUSH1 0x1 PUSH1 0x1 PUSH1 0xA0 SHL SUB DUP5 AND SWAP2 DUP2 ADD SWAP2 SWAP1 SWAP2 MSTORE PUSH1 0x60 DUP2 ADD DUP3 SWAP1 MSTORE PUSH32 0x4B49194A7FB724CB00F6DAD71CF91C6DA804179096AA90273C6664B59A5ACEA4 SWAP1 PUSH1 0x80 ADD JUMPDEST PUSH1 0x40 MLOAD DUP1 SWAP2 SUB SWAP1 LOG1 POP POP POP POP JUMP JUMPDEST PUSH1 0x0 PUSH2 0xA1E CALLER PUSH1 0x0 CALLDATALOAD PUSH32 0xFFFFFFFF00000000000000000000000000000000000000000000000000000000 AND PUSH2 0x2D0B JUMP JUMPDEST PUSH1 0x0 DUP4 GT PUSH2 0xA73 JUMPI PUSH1 0x40 MLOAD PUSH3 0x461BCD PUSH1 0xE5 SHL DUP2 MSTORE PUSH1 0x20 PUSH1 0x4 DUP3 ADD MSTORE PUSH1 0x10 PUSH1 0x24 DUP3 ADD MSTORE PUSH32 0x575241505F414D4F554E545F5A45524F00000000000000000000000000000000 PUSH1 0x44 DUP3 ADD MSTORE PUSH1 0x64 ADD JUMPDEST PUSH1 0x40 MLOAD DUP1 SWAP2 SUB SWAP1 REVERT JUMPDEST DUP3 SELFBALANCE LT ISZERO PUSH2 0xAC3 JUMPI PUSH1 0x40 MLOAD PUSH3 0x461BCD PUSH1 0xE5 SHL DUP2 MSTORE PUSH1 0x20 PUSH1 0x4 DUP3 ADD MSTORE PUSH1 0x18 PUSH1 0x24 DUP3 ADD MSTORE PUSH32 0x575241505F494E53554646494349454E545F414D4F554E540000000000000000 PUSH1 0x44 DUP3 ADD MSTORE PUSH1 0x64 ADD PUSH2 0xA6A JUMP JUMPDEST PUSH1 0x40 MLOAD PUSH32 0x70A0823100000000000000000000000000000000000000000000000000000000 DUP2 MSTORE ADDRESS PUSH1 0x4 DUP3 ADD MSTORE PUSH32 0x0 SWAP1 PUSH1 0x0 SWAP1 PUSH1 0x1 PUSH1 0x1 PUSH1 0xA0 SHL SUB DUP4 AND SWAP1 PUSH4 0x70A08231 SWAP1 PUSH1 0x24 ADD PUSH1 0x20 PUSH1 0x40 MLOAD DUP1 DUP4 SUB DUP2 DUP7 DUP1 EXTCODESIZE ISZERO DUP1 ISZERO PUSH2 0xB40 JUMPI PUSH1 0x0 DUP1 REVERT JUMPDEST POP GAS STATICCALL ISZERO DUP1 ISZERO PUSH2 0xB54 JUMPI RETURNDATASIZE PUSH1 0x0 DUP1 RETURNDATACOPY RETURNDATASIZE PUSH1 0x0 REVERT JUMPDEST POP POP POP POP PUSH1 0x40 MLOAD RETURNDATASIZE PUSH1 0x1F NOT PUSH1 0x1F DUP3 ADD AND DUP3 ADD DUP1 PUSH1 0x40 MSTORE POP DUP2 ADD SWAP1 PUSH2 0xB78 SWAP2 SWAP1 PUSH2 0x4CCF JUMP JUMPDEST SWAP1 POP DUP2 PUSH1 0x1 PUSH1 0x1 PUSH1 0xA0 SHL SUB AND PUSH4 0xD0E30DB0 DUP7 PUSH1 0x40 MLOAD DUP3 PUSH4 0xFFFFFFFF AND PUSH1 0xE0 SHL DUP2 MSTORE PUSH1 0x4 ADD PUSH1 0x0 PUSH1 0x40 MLOAD DUP1 DUP4 SUB DUP2 DUP6 DUP9 DUP1 EXTCODESIZE ISZERO DUP1 ISZERO PUSH2 0xBB5 JUMPI PUSH1 0x0 DUP1 REVERT JUMPDEST POP GAS CALL ISZERO DUP1 ISZERO PUSH2 0xBC9 JUMPI RETURNDATASIZE PUSH1 0x0 DUP1 RETURNDATACOPY RETURNDATASIZE PUSH1 0x0 REVERT JUMPDEST POP POP PUSH1 0x40 MLOAD PUSH32 0x70A0823100000000000000000000000000000000000000000000000000000000 DUP2 MSTORE ADDRESS PUSH1 0x4 DUP3 ADD MSTORE PUSH1 0x0 SWAP4 POP PUSH1 0x1 PUSH1 0x1 PUSH1 0xA0 SHL SUB DUP7 AND SWAP3 POP PUSH4 0x70A08231 SWAP2 POP PUSH1 0x24 ADD PUSH1 0x20 PUSH1 0x40 MLOAD DUP1 DUP4 SUB DUP2 DUP7 DUP1 EXTCODESIZE ISZERO DUP1 ISZERO PUSH2 0xC29 JUMPI PUSH1 0x0 DUP1 REVERT JUMPDEST POP GAS STATICCALL ISZERO DUP1 ISZERO PUSH2 0xC3D JUMPI RETURNDATASIZE PUSH1 0x0 DUP1 RETURNDATACOPY RETURNDATASIZE PUSH1 0x0 REVERT JUMPDEST POP POP POP POP PUSH1 0x40 MLOAD RETURNDATASIZE PUSH1 0x1F NOT PUSH1 0x1F DUP3 ADD AND DUP3 ADD DUP1 PUSH1 0x40 MSTORE POP DUP2 ADD SWAP1 PUSH2 0xC61 SWAP2 SWAP1 PUSH2 0x4CCF JUMP JUMPDEST SWAP1 POP PUSH2 0xC6D DUP3 DUP3 PUSH2 0x5385 JUMP JUMPDEST SWAP4 POP PUSH32 0x26B89B7C87CFAE6E0C27CB572C5B1EAA577F2223FE8DCA0D76A62034579B7A1E DUP7 DUP6 DUP8 PUSH1 0x40 MLOAD PUSH2 0xCA2 SWAP4 SWAP3 SWAP2 SWAP1 PUSH2 0x517E JUMP JUMPDEST PUSH1 0x40 MLOAD DUP1 SWAP2 SUB SWAP1 LOG1 POP POP POP SWAP3 SWAP2 POP POP JUMP JUMPDEST PUSH1 0x60 DUP1 PUSH2 0xCE4 CALLER PUSH1 0x0 CALLDATALOAD PUSH32 0xFFFFFFFF00000000000000000000000000000000000000000000000000000000 AND PUSH2 0x2D0B JUMP JUMPDEST PUSH1 0x1 PUSH1 0x1 PUSH1 0xA0 SHL SUB DUP8 AND PUSH1 0x0 SWAP1 DUP2 MSTORE PUSH1 0x6 PUSH1 0x20 MSTORE PUSH1 0x40 SWAP1 KECCAK256 SLOAD PUSH1 0xFF AND PUSH2 0xD4C JUMPI PUSH1 0x40 MLOAD PUSH3 0x461BCD PUSH1 0xE5 SHL DUP2 MSTORE PUSH1 0x20 PUSH1 0x4 DUP3 ADD MSTORE PUSH1 0x14 PUSH1 0x24 DUP3 ADD MSTORE PUSH32 0x53545241544547595F4E4F545F414C4C4F574544000000000000000000000000 PUSH1 0x44 DUP3 ADD MSTORE PUSH1 0x64 ADD PUSH2 0xA6A JUMP JUMPDEST PUSH8 0xDE0B6B3A7640000 DUP5 GT ISZERO PUSH2 0xDA4 JUMPI PUSH1 0x40 MLOAD PUSH3 0x461BCD PUSH1 0xE5 SHL DUP2 MSTORE PUSH1 0x20 PUSH1 0x4 DUP3 ADD MSTORE PUSH1 0x17 PUSH1 0x24 DUP3 ADD MSTORE PUSH32 0x4A4F494E5F534C4950504147455F41424F56455F4F4E45000000000000000000 PUSH1 0x44 DUP3 ADD MSTORE PUSH1 0x64 ADD PUSH2 0xA6A JUMP JUMPDEST DUP5 MLOAD DUP7 MLOAD EQ PUSH2 0xDF5 JUMPI PUSH1 0x40 MLOAD PUSH3 0x461BCD PUSH1 0xE5 SHL DUP2 MSTORE PUSH1 0x20 PUSH1 0x4 DUP3 ADD MSTORE PUSH1 0x19 PUSH1 0x24 DUP3 ADD MSTORE PUSH32 0x4A4F494E5F494E5055545F494E56414C49445F4C454E47544800000000000000 PUSH1 0x44 DUP3 ADD MSTORE PUSH1 0x64 ADD PUSH2 0xA6A JUMP JUMPDEST PUSH1 0x0 PUSH2 0xE0D PUSH1 0x1 PUSH1 0x1 PUSH1 0xA0 SHL SUB DUP10 AND DUP9 DUP9 DUP9 DUP9 PUSH2 0x2F83 JUMP JUMPDEST DUP2 MLOAD DUP4 MLOAD SWAP4 SWAP7 POP SWAP2 SWAP5 POP SWAP3 POP EQ PUSH2 0xE66 JUMPI PUSH1 0x40 MLOAD PUSH3 0x461BCD PUSH1 0xE5 SHL DUP2 MSTORE PUSH1 0x20 PUSH1 0x4 DUP3 ADD MSTORE PUSH1 0x1A PUSH1 0x24 DUP3 ADD MSTORE PUSH32 0x4A4F494E5F4F55545055545F494E56414C49445F4C454E475448000000000000 PUSH1 0x44 DUP3 ADD MSTORE PUSH1 0x64 ADD PUSH2 0xA6A JUMP JUMPDEST PUSH1 0x1 PUSH1 0x1 PUSH1 0xA0 SHL SUB DUP9 AND PUSH1 0x0 SWAP1 DUP2 MSTORE PUSH1 0x7 PUSH1 0x20 MSTORE PUSH1 0x40 SWAP1 KECCAK256 SLOAD PUSH2 0xE8A SWAP1 DUP3 SWAP1 PUSH2 0x5310 JUMP JUMPDEST PUSH1 0x1 PUSH1 0x1 PUSH1 0xA0 SHL SUB DUP10 AND PUSH1 0x0 DUP2 DUP2 MSTORE PUSH1 0x7 PUSH1 0x20 MSTORE PUSH1 0x40 SWAP1 DUP2 SWAP1 KECCAK256 SWAP3 SWAP1 SWAP3 SSTORE SWAP1 MLOAD PUSH32 0x6BE300D66E65741E7CC134F5E6B6815E65361424AB43526B3F51742A2B2EA952 SWAP1 PUSH2 0xEE3 SWAP1 DUP11 SWAP1 DUP11 SWAP1 DUP9 SWAP1 DUP9 SWAP1 DUP9 SWAP1 DUP14 SWAP1 DUP14 SWAP1 PUSH2 0x5016 JUMP JUMPDEST PUSH1 0x40 MLOAD DUP1 SWAP2 SUB SWAP1 LOG2 POP SWAP6 POP SWAP6 SWAP4 POP POP POP POP JUMP JUMPDEST PUSH1 0x0 PUSH2 0xF26 CALLER PUSH1 0x0 CALLDATALOAD PUSH32 0xFFFFFFFF00000000000000000000000000000000000000000000000000000000 AND PUSH2 0x2D0B JUMP JUMPDEST DUP6 PUSH1 0x1 PUSH1 0x1 PUSH1 0xA0 SHL SUB AND DUP8 PUSH1 0x1 PUSH1 0x1 PUSH1 0xA0 SHL SUB AND EQ ISZERO PUSH2 0xF88 JUMPI PUSH1 0x40 MLOAD PUSH3 0x461BCD PUSH1 0xE5 SHL DUP2 MSTORE PUSH1 0x20 PUSH1 0x4 DUP3 ADD MSTORE PUSH1 0xF PUSH1 0x24 DUP3 ADD MSTORE PUSH32 0x535741505F53414D455F544F4B454E0000000000000000000000000000000000 PUSH1 0x44 DUP3 ADD MSTORE PUSH1 0x64 ADD PUSH2 0xA6A JUMP JUMPDEST PUSH1 0x4 SLOAD PUSH1 0x1 PUSH1 0x1 PUSH1 0xA0 SHL SUB AND PUSH2 0xFE0 JUMPI PUSH1 0x40 MLOAD PUSH3 0x461BCD PUSH1 0xE5 SHL DUP2 MSTORE PUSH1 0x20 PUSH1 0x4 DUP3 ADD MSTORE PUSH1 0x16 PUSH1 0x24 DUP3 ADD MSTORE PUSH32 0x535741505F434F4E4E4543544F525F4E4F545F53455400000000000000000000 PUSH1 0x44 DUP3 ADD MSTORE PUSH1 0x64 ADD PUSH2 0xA6A JUMP JUMPDEST PUSH1 0x0 PUSH1 0x1 DUP6 PUSH1 0x1 DUP2 GT ISZERO PUSH2 0x1004 JUMPI PUSH4 0x4E487B71 PUSH1 0xE0 SHL PUSH1 0x0 MSTORE PUSH1 0x21 PUSH1 0x4 MSTORE PUSH1 0x24 PUSH1 0x0 REVERT JUMPDEST EQ ISZERO PUSH2 0x1011 JUMPI POP DUP3 PUSH2 0x110E JUMP JUMPDEST PUSH1 0x0 DUP6 PUSH1 0x1 DUP2 GT ISZERO PUSH2 0x1033 JUMPI PUSH4 0x4E487B71 PUSH1 0xE0 SHL PUSH1 0x0 MSTORE PUSH1 0x21 PUSH1 0x4 MSTORE PUSH1 0x24 PUSH1 0x0 REVERT JUMPDEST EQ ISZERO PUSH2 0x10C6 JUMPI PUSH8 0xDE0B6B3A7640000 DUP5 GT ISZERO PUSH2 0x1091 JUMPI PUSH1 0x40 MLOAD PUSH3 0x461BCD PUSH1 0xE5 SHL DUP2 MSTORE PUSH1 0x20 PUSH1 0x4 DUP3 ADD MSTORE PUSH1 0x17 PUSH1 0x24 DUP3 ADD MSTORE PUSH32 0x535741505F534C4950504147455F41424F56455F4F4E45000000000000000000 PUSH1 0x44 DUP3 ADD MSTORE PUSH1 0x64 ADD PUSH2 0xA6A JUMP JUMPDEST PUSH1 0x0 PUSH2 0x109D DUP10 DUP10 PUSH2 0x1BF4 JUMP JUMPDEST SWAP1 POP PUSH2 0x10BE PUSH8 0xDE0B6B3A7640000 DUP7 SWAP1 SUB PUSH2 0x10B8 DUP10 DUP5 PUSH2 0x30D5 JUMP JUMPDEST SWAP1 PUSH2 0x30D5 JUMP JUMPDEST SWAP2 POP POP PUSH2 0x110E JUMP JUMPDEST PUSH1 0x40 MLOAD PUSH3 0x461BCD PUSH1 0xE5 SHL DUP2 MSTORE PUSH1 0x20 PUSH1 0x4 DUP3 ADD MSTORE PUSH1 0x17 PUSH1 0x24 DUP3 ADD MSTORE PUSH32 0x535741505F494E56414C49445F4C494D49545F54595045000000000000000000 PUSH1 0x44 DUP3 ADD MSTORE PUSH1 0x64 ADD PUSH2 0xA6A JUMP JUMPDEST PUSH1 0x40 MLOAD PUSH32 0x70A0823100000000000000000000000000000000000000000000000000000000 DUP2 MSTORE ADDRESS PUSH1 0x4 DUP3 ADD MSTORE PUSH1 0x0 SWAP1 PUSH1 0x1 PUSH1 0x1 PUSH1 0xA0 SHL SUB DUP11 AND SWAP1 PUSH4 0x70A08231 SWAP1 PUSH1 0x24 ADD PUSH1 0x20 PUSH1 0x40 MLOAD DUP1 DUP4 SUB DUP2 DUP7 DUP1 EXTCODESIZE ISZERO DUP1 ISZERO PUSH2 0x1169 JUMPI PUSH1 0x0 DUP1 REVERT JUMPDEST POP GAS STATICCALL ISZERO DUP1 ISZERO PUSH2 0x117D JUMPI RETURNDATASIZE PUSH1 0x0 DUP1 RETURNDATACOPY RETURNDATASIZE PUSH1 0x0 REVERT JUMPDEST POP POP POP POP PUSH1 0x40 MLOAD RETURNDATASIZE PUSH1 0x1F NOT PUSH1 0x1F DUP3 ADD AND DUP3 ADD DUP1 PUSH1 0x40 MSTORE POP DUP2 ADD SWAP1 PUSH2 0x11A1 SWAP2 SWAP1 PUSH2 0x4CCF JUMP JUMPDEST PUSH1 0x40 MLOAD PUSH32 0x70A0823100000000000000000000000000000000000000000000000000000000 DUP2 MSTORE ADDRESS PUSH1 0x4 DUP3 ADD MSTORE SWAP1 SWAP2 POP PUSH1 0x0 SWAP1 PUSH1 0x1 PUSH1 0x1 PUSH1 0xA0 SHL SUB DUP11 AND SWAP1 PUSH4 0x70A08231 SWAP1 PUSH1 0x24 ADD PUSH1 0x20 PUSH1 0x40 MLOAD DUP1 DUP4 SUB DUP2 DUP7 DUP1 EXTCODESIZE ISZERO DUP1 ISZERO PUSH2 0x11FF JUMPI PUSH1 0x0 DUP1 REVERT JUMPDEST POP GAS STATICCALL ISZERO DUP1 ISZERO PUSH2 0x1213 JUMPI RETURNDATASIZE PUSH1 0x0 DUP1 RETURNDATACOPY RETURNDATASIZE PUSH1 0x0 REVERT JUMPDEST POP POP POP POP PUSH1 0x40 MLOAD RETURNDATASIZE PUSH1 0x1F NOT PUSH1 0x1F DUP3 ADD AND DUP3 ADD DUP1 PUSH1 0x40 MSTORE POP DUP2 ADD SWAP1 PUSH2 0x1237 SWAP2 SWAP1 PUSH2 0x4CCF JUMP JUMPDEST PUSH1 0x4 SLOAD SWAP1 SWAP2 POP PUSH2 0x1255 SWAP1 PUSH1 0x1 PUSH1 0x1 PUSH1 0xA0 SHL SUB AND DUP13 DUP13 DUP13 DUP13 DUP9 DUP12 PUSH2 0x3195 JUMP JUMPDEST POP PUSH1 0x40 MLOAD PUSH32 0x70A0823100000000000000000000000000000000000000000000000000000000 DUP2 MSTORE ADDRESS PUSH1 0x4 DUP3 ADD MSTORE PUSH1 0x0 SWAP1 PUSH1 0x1 PUSH1 0x1 PUSH1 0xA0 SHL SUB DUP13 AND SWAP1 PUSH4 0x70A08231 SWAP1 PUSH1 0x24 ADD PUSH1 0x20 PUSH1 0x40 MLOAD DUP1 DUP4 SUB DUP2 DUP7 DUP1 EXTCODESIZE ISZERO DUP1 ISZERO PUSH2 0x12B1 JUMPI PUSH1 0x0 DUP1 REVERT JUMPDEST POP GAS STATICCALL ISZERO DUP1 ISZERO PUSH2 0x12C5 JUMPI RETURNDATASIZE PUSH1 0x0 DUP1 RETURNDATACOPY RETURNDATASIZE PUSH1 0x0 REVERT JUMPDEST POP POP POP POP PUSH1 0x40 MLOAD RETURNDATASIZE PUSH1 0x1F NOT PUSH1 0x1F DUP3 ADD AND DUP3 ADD DUP1 PUSH1 0x40 MSTORE POP DUP2 ADD SWAP1 PUSH2 0x12E9 SWAP2 SWAP1 PUSH2 0x4CCF JUMP JUMPDEST SWAP1 POP PUSH2 0x12F5 DUP10 DUP5 PUSH2 0x5385 JUMP JUMPDEST DUP2 LT ISZERO PUSH2 0x1344 JUMPI PUSH1 0x40 MLOAD PUSH3 0x461BCD PUSH1 0xE5 SHL DUP2 MSTORE PUSH1 0x20 PUSH1 0x4 DUP3 ADD MSTORE PUSH1 0x19 PUSH1 0x24 DUP3 ADD MSTORE PUSH32 0x535741505F4241445F544F4B454E5F494E5F42414C414E434500000000000000 PUSH1 0x44 DUP3 ADD MSTORE PUSH1 0x64 ADD PUSH2 0xA6A JUMP JUMPDEST PUSH1 0x40 MLOAD PUSH32 0x70A0823100000000000000000000000000000000000000000000000000000000 DUP2 MSTORE ADDRESS PUSH1 0x4 DUP3 ADD MSTORE PUSH1 0x0 SWAP1 DUP4 SWAP1 PUSH1 0x1 PUSH1 0x1 PUSH1 0xA0 SHL SUB DUP14 AND SWAP1 PUSH4 0x70A08231 SWAP1 PUSH1 0x24 ADD PUSH1 0x20 PUSH1 0x40 MLOAD DUP1 DUP4 SUB DUP2 DUP7 DUP1 EXTCODESIZE ISZERO DUP1 ISZERO PUSH2 0x13A1 JUMPI PUSH1 0x0 DUP1 REVERT JUMPDEST POP GAS STATICCALL ISZERO DUP1 ISZERO PUSH2 0x13B5 JUMPI RETURNDATASIZE PUSH1 0x0 DUP1 RETURNDATACOPY RETURNDATASIZE PUSH1 0x0 REVERT JUMPDEST POP POP POP POP PUSH1 0x40 MLOAD RETURNDATASIZE PUSH1 0x1F NOT PUSH1 0x1F DUP3 ADD AND DUP3 ADD DUP1 PUSH1 0x40 MSTORE POP DUP2 ADD SWAP1 PUSH2 0x13D9 SWAP2 SWAP1 PUSH2 0x4CCF JUMP JUMPDEST PUSH2 0x13E3 SWAP2 SWAP1 PUSH2 0x5385 JUMP JUMPDEST SWAP1 POP DUP5 DUP2 LT ISZERO PUSH2 0x1435 JUMPI PUSH1 0x40 MLOAD PUSH3 0x461BCD PUSH1 0xE5 SHL DUP2 MSTORE PUSH1 0x20 PUSH1 0x4 DUP3 ADD MSTORE PUSH1 0xF PUSH1 0x24 DUP3 ADD MSTORE PUSH32 0x535741505F4D494E5F414D4F554E540000000000000000000000000000000000 PUSH1 0x44 DUP3 ADD MSTORE PUSH1 0x64 ADD PUSH2 0xA6A JUMP JUMPDEST PUSH1 0x0 PUSH2 0x1443 DUP13 DUP4 PUSH1 0x15 PUSH2 0x32DE JUMP JUMPDEST SWAP1 POP PUSH2 0x144F DUP2 DUP4 PUSH2 0x5385 JUMP JUMPDEST SWAP7 POP DUP12 PUSH1 0x1 PUSH1 0x1 PUSH1 0xA0 SHL SUB AND DUP14 PUSH1 0x1 PUSH1 0x1 PUSH1 0xA0 SHL SUB AND DUP16 PUSH1 0xFF AND PUSH32 0xFC431937278B84C6FA5B23BCC58F673C647FEA974D3656E766B22D8C1412E544 DUP15 DUP12 DUP12 DUP8 DUP16 PUSH1 0x40 MLOAD PUSH2 0x14A0 SWAP6 SWAP5 SWAP4 SWAP3 SWAP2 SWAP1 PUSH2 0x51D1 JUMP JUMPDEST PUSH1 0x40 MLOAD DUP1 SWAP2 SUB SWAP1 LOG4 POP POP POP POP POP POP SWAP8 SWAP7 POP POP POP POP POP POP POP JUMP JUMPDEST DUP2 MLOAD DUP4 MLOAD EQ PUSH2 0x150A JUMPI PUSH1 0x40 MLOAD PUSH3 0x461BCD PUSH1 0xE5 SHL DUP2 MSTORE PUSH1 0x20 PUSH1 0x4 DUP3 ADD MSTORE PUSH1 0x1F PUSH1 0x24 DUP3 ADD MSTORE PUSH32 0x5345545F46454544535F494E56414C49445F51554F5445535F4C454E47544800 PUSH1 0x44 DUP3 ADD MSTORE PUSH1 0x64 ADD PUSH2 0xA6A JUMP JUMPDEST DUP1 MLOAD DUP4 MLOAD EQ PUSH2 0x155B JUMPI PUSH1 0x40 MLOAD PUSH3 0x461BCD PUSH1 0xE5 SHL DUP2 MSTORE PUSH1 0x20 PUSH1 0x4 DUP3 ADD MSTORE PUSH1 0x1E PUSH1 0x24 DUP3 ADD MSTORE PUSH32 0x5345545F46454544535F494E56414C49445F46454544535F4C454E4754480000 PUSH1 0x44 DUP3 ADD MSTORE PUSH1 0x64 ADD PUSH2 0xA6A JUMP JUMPDEST PUSH1 0x0 JUMPDEST DUP4 MLOAD DUP2 LT ISZERO PUSH2 0x15EF JUMPI PUSH2 0x15E7 DUP5 DUP3 DUP2 MLOAD DUP2 LT PUSH2 0x158A JUMPI PUSH4 0x4E487B71 PUSH1 0xE0 SHL PUSH1 0x0 MSTORE PUSH1 0x32 PUSH1 0x4 MSTORE PUSH1 0x24 PUSH1 0x0 REVERT JUMPDEST PUSH1 0x20 MUL PUSH1 0x20 ADD ADD MLOAD DUP5 DUP4 DUP2 MLOAD DUP2 LT PUSH2 0x15B2 JUMPI PUSH4 0x4E487B71 PUSH1 0xE0 SHL PUSH1 0x0 MSTORE PUSH1 0x32 PUSH1 0x4 MSTORE PUSH1 0x24 PUSH1 0x0 REVERT JUMPDEST PUSH1 0x20 MUL PUSH1 0x20 ADD ADD MLOAD DUP5 DUP5 DUP2 MLOAD DUP2 LT PUSH2 0x15DA JUMPI PUSH4 0x4E487B71 PUSH1 0xE0 SHL PUSH1 0x0 MSTORE PUSH1 0x32 PUSH1 0x4 MSTORE PUSH1 0x24 PUSH1 0x0 REVERT JUMPDEST PUSH1 0x20 MUL PUSH1 0x20 ADD ADD MLOAD PUSH2 0x188D JUMP JUMPDEST PUSH1 0x1 ADD PUSH2 0x155E JUMP JUMPDEST POP POP POP POP JUMP JUMPDEST PUSH2 0x1623 CALLER PUSH1 0x0 CALLDATALOAD PUSH32 0xFFFFFFFF00000000000000000000000000000000000000000000000000000000 AND PUSH2 0x2D0B JUMP JUMPDEST PUSH2 0x162C DUP2 PUSH2 0x344C JUMP JUMPDEST POP JUMP JUMPDEST PUSH1 0x0 PUSH2 0x165F CALLER PUSH1 0x0 CALLDATALOAD PUSH32 0xFFFFFFFF00000000000000000000000000000000000000000000000000000000 AND PUSH2 0x2D0B JUMP JUMPDEST PUSH1 0x0 DUP4 GT PUSH2 0x16AF JUMPI PUSH1 0x40 MLOAD PUSH3 0x461BCD PUSH1 0xE5 SHL DUP2 MSTORE PUSH1 0x20 PUSH1 0x4 DUP3 ADD MSTORE PUSH1 0x13 PUSH1 0x24 DUP3 ADD MSTORE PUSH32 0x434F4C4C4543545F414D4F554E545F5A45524F00000000000000000000000000 PUSH1 0x44 DUP3 ADD MSTORE PUSH1 0x64 ADD PUSH2 0xA6A JUMP JUMPDEST PUSH1 0x40 MLOAD PUSH32 0x70A0823100000000000000000000000000000000000000000000000000000000 DUP2 MSTORE ADDRESS PUSH1 0x4 DUP3 ADD MSTORE PUSH1 0x0 SWAP1 PUSH1 0x1 PUSH1 0x1 PUSH1 0xA0 SHL SUB DUP8 AND SWAP1 PUSH4 0x70A08231 SWAP1 PUSH1 0x24 ADD PUSH1 0x20 PUSH1 0x40 MLOAD DUP1 DUP4 SUB DUP2 DUP7 DUP1 EXTCODESIZE ISZERO DUP1 ISZERO PUSH2 0x170A JUMPI PUSH1 0x0 DUP1 REVERT JUMPDEST POP GAS STATICCALL ISZERO DUP1 ISZERO PUSH2 0x171E JUMPI RETURNDATASIZE PUSH1 0x0 DUP1 RETURNDATACOPY RETURNDATASIZE PUSH1 0x0 REVERT JUMPDEST POP POP POP POP PUSH1 0x40 MLOAD RETURNDATASIZE PUSH1 0x1F NOT PUSH1 0x1F DUP3 ADD AND DUP3 ADD DUP1 PUSH1 0x40 MSTORE POP DUP2 ADD SWAP1 PUSH2 0x1742 SWAP2 SWAP1 PUSH2 0x4CCF JUMP JUMPDEST SWAP1 POP PUSH2 0x1759 PUSH1 0x1 PUSH1 0x1 PUSH1 0xA0 SHL SUB DUP8 AND DUP7 ADDRESS DUP8 PUSH2 0x34B7 JUMP JUMPDEST PUSH1 0x40 MLOAD PUSH32 0x70A0823100000000000000000000000000000000000000000000000000000000 DUP2 MSTORE ADDRESS PUSH1 0x4 DUP3 ADD MSTORE PUSH1 0x0 SWAP1 PUSH1 0x1 PUSH1 0x1 PUSH1 0xA0 SHL SUB DUP9 AND SWAP1 PUSH4 0x70A08231 SWAP1 PUSH1 0x24 ADD PUSH1 0x20 PUSH1 0x40 MLOAD DUP1 DUP4 SUB DUP2 DUP7 DUP1 EXTCODESIZE ISZERO DUP1 ISZERO PUSH2 0x17B4 JUMPI PUSH1 0x0 DUP1 REVERT JUMPDEST POP GAS STATICCALL ISZERO DUP1 ISZERO PUSH2 0x17C8 JUMPI RETURNDATASIZE PUSH1 0x0 DUP1 RETURNDATACOPY RETURNDATASIZE PUSH1 0x0 REVERT JUMPDEST POP POP POP POP PUSH1 0x40 MLOAD RETURNDATASIZE PUSH1 0x1F NOT PUSH1 0x1F DUP3 ADD AND DUP3 ADD DUP1 PUSH1 0x40 MSTORE POP DUP2 ADD SWAP1 PUSH2 0x17EC SWAP2 SWAP1 PUSH2 0x4CCF JUMP JUMPDEST SWAP1 POP PUSH2 0x17F8 DUP3 DUP3 PUSH2 0x5385 JUMP JUMPDEST SWAP3 POP DUP6 PUSH1 0x1 PUSH1 0x1 PUSH1 0xA0 SHL SUB AND DUP8 PUSH1 0x1 PUSH1 0x1 PUSH1 0xA0 SHL SUB AND PUSH32 0x42BD73EA702D7CF4505C06A7AC02A171536177D9CC2C7665443151EC91CC43FC DUP6 DUP8 PUSH1 0x40 MLOAD PUSH2 0x183F SWAP3 SWAP2 SWAP1 PUSH2 0x5165 JUMP JUMPDEST PUSH1 0x40 MLOAD DUP1 SWAP2 SUB SWAP1 LOG3 POP POP SWAP5 SWAP4 POP POP POP POP JUMP JUMPDEST PUSH2 0x187F CALLER PUSH1 0x0 CALLDATALOAD PUSH32 0xFFFFFFFF00000000000000000000000000000000000000000000000000000000 AND PUSH2 0x2D0B JUMP JUMPDEST PUSH2 0x1889 DUP3 DUP3 PUSH2 0x3586 JUMP JUMPDEST POP POP JUMP JUMPDEST PUSH2 0x18BB CALLER PUSH1 0x0 CALLDATALOAD PUSH32 0xFFFFFFFF00000000000000000000000000000000000000000000000000000000 AND PUSH2 0x2D0B JUMP JUMPDEST PUSH2 0x18C6 DUP4 DUP4 DUP4 PUSH2 0x3628 JUMP JUMPDEST POP POP POP JUMP JUMPDEST PUSH2 0x18F9 CALLER PUSH1 0x0 CALLDATALOAD PUSH32 0xFFFFFFFF00000000000000000000000000000000000000000000000000000000 AND PUSH2 0x2D0B JUMP JUMPDEST PUSH2 0x1907 PUSH1 0x15 DUP6 DUP6 DUP6 DUP6 PUSH2 0x2D61 JUMP JUMPDEST PUSH1 0x40 DUP1 MLOAD DUP6 DUP2 MSTORE PUSH1 0x20 DUP2 ADD DUP6 SWAP1 MSTORE PUSH1 0x1 PUSH1 0x1 PUSH1 0xA0 SHL SUB DUP5 AND SWAP2 DUP2 ADD SWAP2 SWAP1 SWAP2 MSTORE PUSH1 0x60 DUP2 ADD DUP3 SWAP1 MSTORE PUSH32 0x4374E92441315A747B6C3E2C80E356B78D580BDE720326DC3A9B45055414041B SWAP1 PUSH1 0x80 ADD PUSH2 0x9E0 JUMP JUMPDEST PUSH1 0x0 PUSH2 0x1987 CALLER PUSH1 0x0 CALLDATALOAD PUSH32 0xFFFFFFFF00000000000000000000000000000000000000000000000000000000 AND PUSH2 0x2D0B JUMP JUMPDEST PUSH1 0x0 DUP5 GT PUSH2 0x19D7 JUMPI PUSH1 0x40 MLOAD PUSH3 0x461BCD PUSH1 0xE5 SHL DUP2 MSTORE PUSH1 0x20 PUSH1 0x4 DUP3 ADD MSTORE PUSH1 0x14 PUSH1 0x24 DUP3 ADD MSTORE PUSH32 0x57495448445241575F414D4F554E545F5A45524F000000000000000000000000 PUSH1 0x44 DUP3 ADD MSTORE PUSH1 0x64 ADD PUSH2 0xA6A JUMP JUMPDEST PUSH1 0x1 PUSH1 0x1 PUSH1 0xA0 SHL SUB DUP4 AND PUSH2 0x1A2D JUMPI PUSH1 0x40 MLOAD PUSH3 0x461BCD PUSH1 0xE5 SHL DUP2 MSTORE PUSH1 0x20 PUSH1 0x4 DUP3 ADD MSTORE PUSH1 0xE PUSH1 0x24 DUP3 ADD MSTORE PUSH32 0x524543495049454E545F5A45524F000000000000000000000000000000000000 PUSH1 0x44 DUP3 ADD MSTORE PUSH1 0x64 ADD PUSH2 0xA6A JUMP JUMPDEST PUSH1 0x8 SLOAD PUSH1 0x0 SWAP1 PUSH1 0x1 PUSH1 0x1 PUSH1 0xA0 SHL SUB DUP6 DUP2 AND SWAP2 AND EQ PUSH2 0x1A56 JUMPI PUSH2 0x1A51 DUP7 DUP7 PUSH1 0x9 PUSH2 0x32DE JUMP JUMPDEST PUSH2 0x1A59 JUMP JUMPDEST PUSH1 0x0 JUMPDEST SWAP1 POP PUSH2 0x1A65 DUP2 DUP7 PUSH2 0x5385 JUMP JUMPDEST SWAP2 POP PUSH2 0x1A72 DUP7 DUP6 DUP5 PUSH2 0x36B3 JUMP JUMPDEST DUP4 PUSH1 0x1 PUSH1 0x1 PUSH1 0xA0 SHL SUB AND DUP7 PUSH1 0x1 PUSH1 0x1 PUSH1 0xA0 SHL SUB AND PUSH32 0x33BE7EABD8ED368CA1AA14CE2AD1E90A0C9BF21EDBB3820D5591546E4EB84157 DUP5 DUP5 DUP8 PUSH1 0x40 MLOAD PUSH2 0x1AB9 SWAP4 SWAP3 SWAP2 SWAP1 PUSH2 0x517E JUMP JUMPDEST PUSH1 0x40 MLOAD DUP1 SWAP2 SUB SWAP1 LOG3 POP SWAP5 SWAP4 POP POP POP POP JUMP JUMPDEST PUSH2 0x1AF8 CALLER PUSH1 0x0 CALLDATALOAD PUSH32 0xFFFFFFFF00000000000000000000000000000000000000000000000000000000 AND PUSH2 0x2D0B JUMP JUMPDEST PUSH2 0x1889 DUP3 DUP3 PUSH2 0x3705 JUMP JUMPDEST PUSH2 0x1B30 CALLER PUSH1 0x0 CALLDATALOAD PUSH32 0xFFFFFFFF00000000000000000000000000000000000000000000000000000000 AND PUSH2 0x2D0B JUMP JUMPDEST PUSH2 0x1B3E PUSH1 0xF DUP6 DUP6 DUP6 DUP6 PUSH2 0x2D61 JUMP JUMPDEST PUSH1 0x40 DUP1 MLOAD DUP6 DUP2 MSTORE PUSH1 0x20 DUP2 ADD DUP6 SWAP1 MSTORE PUSH1 0x1 PUSH1 0x1 PUSH1 0xA0 SHL SUB DUP5 AND SWAP2 DUP2 ADD SWAP2 SWAP1 SWAP2 MSTORE PUSH1 0x60 DUP2 ADD DUP3 SWAP1 MSTORE PUSH32 0x8DB23AB1F209B6252F45CBA9848D0A1EBBB63E50328A308FA3AA01CDF151F75D SWAP1 PUSH1 0x80 ADD PUSH2 0x9E0 JUMP JUMPDEST PUSH1 0x1 PUSH1 0x1 PUSH1 0xA0 SHL SUB DUP1 DUP4 AND PUSH1 0x0 SWAP1 DUP2 MSTORE PUSH1 0x1 PUSH1 0x20 SWAP1 DUP2 MSTORE PUSH1 0x40 DUP1 DUP4 KECCAK256 DUP6 DUP6 AND DUP5 MSTORE SWAP1 SWAP2 MSTORE SWAP1 KECCAK256 SLOAD AND JUMPDEST SWAP3 SWAP2 POP POP JUMP JUMPDEST PUSH2 0x1BEB CALLER PUSH1 0x0 CALLDATALOAD PUSH32 0xFFFFFFFF00000000000000000000000000000000000000000000000000000000 AND PUSH2 0x2D0B JUMP JUMPDEST PUSH2 0x162C DUP2 PUSH2 0x37A2 JUMP JUMPDEST PUSH1 0x3 SLOAD PUSH1 0x40 MLOAD PUSH32 0x7100D05C00000000000000000000000000000000000000000000000000000000 DUP2 MSTORE ADDRESS PUSH1 0x4 DUP3 ADD MSTORE PUSH1 0x1 PUSH1 0x1 PUSH1 0xA0 SHL SUB DUP5 DUP2 AND PUSH1 0x24 DUP4 ADD MSTORE DUP4 DUP2 AND PUSH1 0x44 DUP4 ADD MSTORE PUSH1 0x0 SWAP3 AND SWAP1 PUSH4 0x7100D05C SWAP1 PUSH1 0x64 ADD PUSH1 0x20 PUSH1 0x40 MLOAD DUP1 DUP4 SUB DUP2 DUP7 DUP1 EXTCODESIZE ISZERO DUP1 ISZERO PUSH2 0x1C61 JUMPI PUSH1 0x0 DUP1 REVERT JUMPDEST POP GAS STATICCALL ISZERO DUP1 ISZERO PUSH2 0x1C75 JUMPI RETURNDATASIZE PUSH1 0x0 DUP1 RETURNDATACOPY RETURNDATASIZE PUSH1 0x0 REVERT JUMPDEST POP POP POP POP PUSH1 0x40 MLOAD RETURNDATASIZE PUSH1 0x1F NOT PUSH1 0x1F DUP3 ADD AND DUP3 ADD DUP1 PUSH1 0x40 MSTORE POP DUP2 ADD SWAP1 PUSH2 0x1C99 SWAP2 SWAP1 PUSH2 0x4CCF JUMP JUMPDEST SWAP4 SWAP3 POP POP POP JUMP JUMPDEST PUSH1 0x0 PUSH2 0x1CD0 CALLER PUSH1 0x0 CALLDATALOAD PUSH32 0xFFFFFFFF00000000000000000000000000000000000000000000000000000000 AND PUSH2 0x2D0B JUMP JUMPDEST PUSH1 0x0 DUP4 GT PUSH2 0x1D20 JUMPI PUSH1 0x40 MLOAD PUSH3 0x461BCD PUSH1 0xE5 SHL DUP2 MSTORE PUSH1 0x20 PUSH1 0x4 DUP3 ADD MSTORE PUSH1 0x12 PUSH1 0x24 DUP3 ADD MSTORE PUSH32 0x554E575241505F414D4F554E545F5A45524F0000000000000000000000000000 PUSH1 0x44 DUP3 ADD MSTORE PUSH1 0x64 ADD PUSH2 0xA6A JUMP JUMPDEST PUSH1 0x40 MLOAD PUSH32 0x2E1A7D4D00000000000000000000000000000000000000000000000000000000 DUP2 MSTORE PUSH1 0x4 DUP2 ADD DUP5 SWAP1 MSTORE SELFBALANCE SWAP1 PUSH32 0x0 PUSH1 0x1 PUSH1 0x1 PUSH1 0xA0 SHL SUB AND SWAP1 PUSH4 0x2E1A7D4D SWAP1 PUSH1 0x24 ADD PUSH1 0x0 PUSH1 0x40 MLOAD DUP1 DUP4 SUB DUP2 PUSH1 0x0 DUP8 DUP1 EXTCODESIZE ISZERO DUP1 ISZERO PUSH2 0x1D9D JUMPI PUSH1 0x0 DUP1 REVERT JUMPDEST POP GAS CALL ISZERO DUP1 ISZERO PUSH2 0x1DB1 JUMPI RETURNDATASIZE PUSH1 0x0 DUP1 RETURNDATACOPY RETURNDATASIZE PUSH1 0x0 REVERT JUMPDEST POP SELFBALANCE SWAP3 POP PUSH2 0x1DC3 SWAP2 POP DUP4 SWAP1 POP DUP3 PUSH2 0x5385 JUMP JUMPDEST SWAP3 POP PUSH32 0xB4D99315C288C112A1D49DA08C3FA85F78E2C83392F63F0A8964418F96AA24ED DUP6 DUP5 DUP7 PUSH1 0x40 MLOAD PUSH2 0x1DF8 SWAP4 SWAP3 SWAP2 SWAP1 PUSH2 0x517E JUMP JUMPDEST PUSH1 0x40 MLOAD DUP1 SWAP2 SUB SWAP1 LOG1 POP POP SWAP3 SWAP2 POP POP JUMP JUMPDEST PUSH1 0x40 MLOAD PUSH32 0xBA03E93F00000000000000000000000000000000000000000000000000000000 DUP2 MSTORE ADDRESS PUSH1 0x4 DUP3 ADD MSTORE PUSH1 0x0 SWAP1 PUSH1 0x1 PUSH1 0x1 PUSH1 0xA0 SHL SUB DUP4 AND SWAP1 PUSH4 0xBA03E93F SWAP1 PUSH1 0x24 ADD PUSH1 0x20 PUSH1 0x40 MLOAD DUP1 DUP4 SUB DUP2 DUP7 DUP1 EXTCODESIZE ISZERO DUP1 ISZERO PUSH2 0x1E63 JUMPI PUSH1 0x0 DUP1 REVERT JUMPDEST POP GAS STATICCALL ISZERO DUP1 ISZERO PUSH2 0x1E77 JUMPI RETURNDATASIZE PUSH1 0x0 DUP1 RETURNDATACOPY RETURNDATASIZE PUSH1 0x0 REVERT JUMPDEST POP POP POP POP PUSH1 0x40 MLOAD RETURNDATASIZE PUSH1 0x1F NOT PUSH1 0x1F DUP3 ADD AND DUP3 ADD DUP1 PUSH1 0x40 MSTORE POP DUP2 ADD SWAP1 PUSH2 0x1E9B SWAP2 SWAP1 PUSH2 0x4CCF JUMP JUMPDEST SWAP1 POP JUMPDEST SWAP2 SWAP1 POP JUMP JUMPDEST PUSH2 0x1ED1 CALLER PUSH1 0x0 CALLDATALOAD PUSH32 0xFFFFFFFF00000000000000000000000000000000000000000000000000000000 AND PUSH2 0x2D0B JUMP JUMPDEST PUSH2 0x1889 DUP3 DUP3 PUSH2 0x385A JUMP JUMPDEST PUSH1 0x60 DUP1 PUSH2 0x1F0C CALLER PUSH1 0x0 CALLDATALOAD PUSH32 0xFFFFFFFF00000000000000000000000000000000000000000000000000000000 AND PUSH2 0x2D0B JUMP JUMPDEST PUSH1 0x1 PUSH1 0x1 PUSH1 0xA0 SHL SUB DUP5 AND PUSH1 0x0 SWAP1 DUP2 MSTORE PUSH1 0x6 PUSH1 0x20 MSTORE PUSH1 0x40 SWAP1 KECCAK256 SLOAD PUSH1 0xFF AND PUSH2 0x1F74 JUMPI PUSH1 0x40 MLOAD PUSH3 0x461BCD PUSH1 0xE5 SHL DUP2 MSTORE PUSH1 0x20 PUSH1 0x4 DUP3 ADD MSTORE PUSH1 0x14 PUSH1 0x24 DUP3 ADD MSTORE PUSH32 0x53545241544547595F4E4F545F414C4C4F574544000000000000000000000000 PUSH1 0x44 DUP3 ADD MSTORE PUSH1 0x64 ADD PUSH2 0xA6A JUMP JUMPDEST PUSH2 0x1F87 PUSH1 0x1 PUSH1 0x1 PUSH1 0xA0 SHL SUB DUP6 AND DUP5 PUSH2 0x38DF JUMP JUMPDEST PUSH1 0x40 MLOAD SWAP2 SWAP4 POP SWAP2 POP PUSH1 0x1 PUSH1 0x1 PUSH1 0xA0 SHL SUB DUP6 AND SWAP1 PUSH32 0xB28D414FDC0DD1EBAE12BEFEBEFD04F6AE5F8DEC2A2FDBED9191BE3C4D13715A SWAP1 PUSH2 0x1FCB SWAP1 DUP6 SWAP1 DUP6 SWAP1 DUP9 SWAP1 PUSH2 0x5091 JUMP JUMPDEST PUSH1 0x40 MLOAD DUP1 SWAP2 SUB SWAP1 LOG2 SWAP3 POP SWAP3 SWAP1 POP JUMP JUMPDEST PUSH1 0x0 SLOAD PUSH2 0x100 SWAP1 DIV PUSH1 0xFF AND ISZERO DUP1 DUP1 ISZERO PUSH2 0x1FFA JUMPI POP PUSH1 0x0 SLOAD PUSH1 0x1 PUSH1 0xFF SWAP1 SWAP2 AND LT JUMPDEST DUP1 PUSH2 0x2014 JUMPI POP ADDRESS EXTCODESIZE ISZERO DUP1 ISZERO PUSH2 0x2014 JUMPI POP PUSH1 0x0 SLOAD PUSH1 0xFF AND PUSH1 0x1 EQ JUMPDEST PUSH2 0x2086 JUMPI PUSH1 0x40 MLOAD PUSH3 0x461BCD PUSH1 0xE5 SHL DUP2 MSTORE PUSH1 0x20 PUSH1 0x4 DUP3 ADD MSTORE PUSH1 0x2E PUSH1 0x24 DUP3 ADD MSTORE PUSH32 0x496E697469616C697A61626C653A20636F6E747261637420697320616C726561 PUSH1 0x44 DUP3 ADD MSTORE PUSH32 0x647920696E697469616C697A6564000000000000000000000000000000000000 PUSH1 0x64 DUP3 ADD MSTORE PUSH1 0x84 ADD PUSH2 0xA6A JUMP JUMPDEST PUSH1 0x0 DUP1 SLOAD PUSH32 0xFFFFFFFFFFFFFFFFFFFFFFFFFFFFFFFFFFFFFFFFFFFFFFFFFFFFFFFFFFFFFF00 AND PUSH1 0x1 OR SWAP1 SSTORE DUP1 ISZERO PUSH2 0x20E4 JUMPI PUSH1 0x0 DUP1 SLOAD PUSH32 0xFFFFFFFFFFFFFFFFFFFFFFFFFFFFFFFFFFFFFFFFFFFFFFFFFFFFFFFFFFFF00FF AND PUSH2 0x100 OR SWAP1 SSTORE JUMPDEST PUSH2 0x20ED DUP3 PUSH2 0x3A1F JUMP JUMPDEST DUP1 ISZERO PUSH2 0x1889 JUMPI PUSH1 0x0 DUP1 SLOAD PUSH32 0xFFFFFFFFFFFFFFFFFFFFFFFFFFFFFFFFFFFFFFFFFFFFFFFFFFFFFFFFFFFF00FF AND SWAP1 SSTORE PUSH1 0x40 MLOAD PUSH1 0x1 DUP2 MSTORE PUSH32 0x7F26B83FF96E1F2B6A682F133852F6798A09C465DA95921460CEFB3847402498 SWAP1 PUSH1 0x20 ADD PUSH1 0x40 MLOAD DUP1 SWAP2 SUB SWAP1 LOG1 POP POP JUMP JUMPDEST PUSH2 0x2181 CALLER PUSH1 0x0 CALLDATALOAD PUSH32 0xFFFFFFFF00000000000000000000000000000000000000000000000000000000 AND PUSH2 0x2D0B JUMP JUMPDEST PUSH2 0x162C DUP2 PUSH2 0x3AF8 JUMP JUMPDEST PUSH1 0x60 PUSH2 0x21BA CALLER PUSH1 0x0 CALLDATALOAD PUSH32 0xFFFFFFFF00000000000000000000000000000000000000000000000000000000 AND PUSH2 0x2D0B JUMP JUMPDEST PUSH2 0x21FB DUP6 DUP6 DUP6 PUSH1 0x40 MLOAD DUP1 PUSH1 0x40 ADD PUSH1 0x40 MSTORE DUP1 PUSH1 0x1F DUP2 MSTORE PUSH1 0x20 ADD PUSH32 0x534D4152545F5641554C545F4152424954524152595F43414C4C5F4641494C00 DUP2 MSTORE POP PUSH2 0x3B63 JUMP JUMPDEST SWAP1 POP DUP5 PUSH1 0x1 PUSH1 0x1 PUSH1 0xA0 SHL SUB AND PUSH32 0x76C91E1F3E02D952AB790867A8364513B69ADA16ED33A67DBCD80DE0E8CBFDE9 DUP6 DUP6 DUP5 DUP7 PUSH1 0x40 MLOAD PUSH2 0x223C SWAP5 SWAP4 SWAP3 SWAP2 SWAP1 PUSH2 0x5126 JUMP JUMPDEST PUSH1 0x40 MLOAD DUP1 SWAP2 SUB SWAP1 LOG2 SWAP5 SWAP4 POP POP POP POP JUMP JUMPDEST PUSH32 0xFFFFFFFF00000000000000000000000000000000000000000000000000000000 DUP2 AND PUSH1 0x0 SWAP1 DUP2 MSTORE PUSH32 0x86CF984B44BED1F7F8B143F6052803E8B74964B2EE297832A77790BE6D6308F1 PUSH1 0x20 MSTORE PUSH1 0x40 DUP2 KECCAK256 SLOAD PUSH1 0xFF AND DUP1 PUSH2 0x1C99 JUMPI POP POP PUSH1 0x1 PUSH1 0x1 PUSH1 0xA0 SHL SUB SWAP2 SWAP1 SWAP2 AND PUSH1 0x0 SWAP1 DUP2 MSTORE PUSH1 0x2 PUSH1 0x20 SWAP1 DUP2 MSTORE PUSH1 0x40 DUP1 DUP4 KECCAK256 PUSH32 0xFFFFFFFF00000000000000000000000000000000000000000000000000000000 SWAP1 SWAP5 AND DUP4 MSTORE SWAP3 SWAP1 MSTORE KECCAK256 SLOAD PUSH1 0xFF AND SWAP1 JUMP JUMPDEST PUSH1 0x0 PUSH2 0x2325 CALLER PUSH1 0x0 CALLDATALOAD PUSH32 0xFFFFFFFF00000000000000000000000000000000000000000000000000000000 AND PUSH2 0x2D0B JUMP JUMPDEST DUP8 CHAINID EQ ISZERO PUSH2 0x2375 JUMPI PUSH1 0x40 MLOAD PUSH3 0x461BCD PUSH1 0xE5 SHL DUP2 MSTORE PUSH1 0x20 PUSH1 0x4 DUP3 ADD MSTORE PUSH1 0x11 PUSH1 0x24 DUP3 ADD MSTORE PUSH32 0x4252494447455F53414D455F434841494E000000000000000000000000000000 PUSH1 0x44 DUP3 ADD MSTORE PUSH1 0x64 ADD PUSH2 0xA6A JUMP JUMPDEST PUSH1 0x1 PUSH1 0x1 PUSH1 0xA0 SHL SUB DUP4 AND PUSH2 0x23CB JUMPI PUSH1 0x40 MLOAD PUSH3 0x461BCD PUSH1 0xE5 SHL DUP2 MSTORE PUSH1 0x20 PUSH1 0x4 DUP3 ADD MSTORE PUSH1 0x15 PUSH1 0x24 DUP3 ADD MSTORE PUSH32 0x4252494447455F524543495049454E545F5A45524F0000000000000000000000 PUSH1 0x44 DUP3 ADD MSTORE PUSH1 0x64 ADD PUSH2 0xA6A JUMP JUMPDEST PUSH1 0x5 SLOAD PUSH1 0x1 PUSH1 0x1 PUSH1 0xA0 SHL SUB AND PUSH2 0x2423 JUMPI PUSH1 0x40 MLOAD PUSH3 0x461BCD PUSH1 0xE5 SHL DUP2 MSTORE PUSH1 0x20 PUSH1 0x4 DUP3 ADD MSTORE PUSH1 0x18 PUSH1 0x24 DUP3 ADD MSTORE PUSH32 0x4252494447455F434F4E4E4543544F525F4E4F545F5345540000000000000000 PUSH1 0x44 DUP3 ADD MSTORE PUSH1 0x64 ADD PUSH2 0xA6A JUMP JUMPDEST PUSH1 0x0 PUSH2 0x2431 DUP9 DUP9 PUSH1 0x1B PUSH2 0x32DE JUMP JUMPDEST SWAP1 POP PUSH2 0x243D DUP2 DUP9 PUSH2 0x5385 JUMP JUMPDEST SWAP2 POP PUSH1 0x0 PUSH1 0x1 DUP8 PUSH1 0x1 DUP2 GT ISZERO PUSH2 0x2463 JUMPI PUSH4 0x4E487B71 PUSH1 0xE0 SHL PUSH1 0x0 MSTORE PUSH1 0x21 PUSH1 0x4 MSTORE PUSH1 0x24 PUSH1 0x0 REVERT JUMPDEST EQ ISZERO PUSH2 0x2470 JUMPI POP DUP5 PUSH2 0x2554 JUMP JUMPDEST PUSH1 0x0 DUP8 PUSH1 0x1 DUP2 GT ISZERO PUSH2 0x2492 JUMPI PUSH4 0x4E487B71 PUSH1 0xE0 SHL PUSH1 0x0 MSTORE PUSH1 0x21 PUSH1 0x4 MSTORE PUSH1 0x24 PUSH1 0x0 REVERT JUMPDEST EQ ISZERO PUSH2 0x250C JUMPI PUSH8 0xDE0B6B3A7640000 DUP7 GT ISZERO PUSH2 0x24F0 JUMPI PUSH1 0x40 MLOAD PUSH3 0x461BCD PUSH1 0xE5 SHL DUP2 MSTORE PUSH1 0x20 PUSH1 0x4 DUP3 ADD MSTORE PUSH1 0x19 PUSH1 0x24 DUP3 ADD MSTORE PUSH32 0x4252494447455F534C4950504147455F41424F56455F4F4E4500000000000000 PUSH1 0x44 DUP3 ADD MSTORE PUSH1 0x64 ADD PUSH2 0xA6A JUMP JUMPDEST PUSH2 0x2505 DUP4 PUSH8 0xDE0B6B3A7640000 DUP9 SWAP1 SUB PUSH2 0x30D5 JUMP JUMPDEST SWAP1 POP PUSH2 0x2554 JUMP JUMPDEST PUSH1 0x40 MLOAD PUSH3 0x461BCD PUSH1 0xE5 SHL DUP2 MSTORE PUSH1 0x20 PUSH1 0x4 DUP3 ADD MSTORE PUSH1 0x19 PUSH1 0x24 DUP3 ADD MSTORE PUSH32 0x4252494447455F494E56414C49445F4C494D49545F5459504500000000000000 PUSH1 0x44 DUP3 ADD MSTORE PUSH1 0x64 ADD PUSH2 0xA6A JUMP JUMPDEST PUSH1 0x40 MLOAD PUSH32 0x70A0823100000000000000000000000000000000000000000000000000000000 DUP2 MSTORE ADDRESS PUSH1 0x4 DUP3 ADD MSTORE PUSH1 0x0 SWAP1 PUSH1 0x1 PUSH1 0x1 PUSH1 0xA0 SHL SUB DUP12 AND SWAP1 PUSH4 0x70A08231 SWAP1 PUSH1 0x24 ADD PUSH1 0x20 PUSH1 0x40 MLOAD DUP1 DUP4 SUB DUP2 DUP7 DUP1 EXTCODESIZE ISZERO DUP1 ISZERO PUSH2 0x25AF JUMPI PUSH1 0x0 DUP1 REVERT JUMPDEST POP GAS STATICCALL ISZERO DUP1 ISZERO PUSH2 0x25C3 JUMPI RETURNDATASIZE PUSH1 0x0 DUP1 RETURNDATACOPY RETURNDATASIZE PUSH1 0x0 REVERT JUMPDEST POP POP POP POP PUSH1 0x40 MLOAD RETURNDATASIZE PUSH1 0x1F NOT PUSH1 0x1F DUP3 ADD AND DUP3 ADD DUP1 PUSH1 0x40 MSTORE POP DUP2 ADD SWAP1 PUSH2 0x25E7 SWAP2 SWAP1 PUSH2 0x4CCF JUMP JUMPDEST PUSH1 0x5 SLOAD SWAP1 SWAP2 POP PUSH2 0x2606 SWAP1 PUSH1 0x1 PUSH1 0x1 PUSH1 0xA0 SHL SUB AND DUP14 DUP14 DUP14 DUP9 DUP8 DUP13 DUP13 PUSH2 0x3CAB JUMP JUMPDEST PUSH1 0x40 MLOAD PUSH32 0x70A0823100000000000000000000000000000000000000000000000000000000 DUP2 MSTORE ADDRESS PUSH1 0x4 DUP3 ADD MSTORE PUSH1 0x0 SWAP1 PUSH1 0x1 PUSH1 0x1 PUSH1 0xA0 SHL SUB DUP13 AND SWAP1 PUSH4 0x70A08231 SWAP1 PUSH1 0x24 ADD PUSH1 0x20 PUSH1 0x40 MLOAD DUP1 DUP4 SUB DUP2 DUP7 DUP1 EXTCODESIZE ISZERO DUP1 ISZERO PUSH2 0x2661 JUMPI PUSH1 0x0 DUP1 REVERT JUMPDEST POP GAS STATICCALL ISZERO DUP1 ISZERO PUSH2 0x2675 JUMPI RETURNDATASIZE PUSH1 0x0 DUP1 RETURNDATACOPY RETURNDATASIZE PUSH1 0x0 REVERT JUMPDEST POP POP POP POP PUSH1 0x40 MLOAD RETURNDATASIZE PUSH1 0x1F NOT PUSH1 0x1F DUP3 ADD AND DUP3 ADD DUP1 PUSH1 0x40 MSTORE POP DUP2 ADD SWAP1 PUSH2 0x2699 SWAP2 SWAP1 PUSH2 0x4CCF JUMP JUMPDEST SWAP1 POP PUSH2 0x26A5 DUP6 DUP4 PUSH2 0x5385 JUMP JUMPDEST DUP2 LT ISZERO PUSH2 0x26F4 JUMPI PUSH1 0x40 MLOAD PUSH3 0x461BCD PUSH1 0xE5 SHL DUP2 MSTORE PUSH1 0x20 PUSH1 0x4 DUP3 ADD MSTORE PUSH1 0x1B PUSH1 0x24 DUP3 ADD MSTORE PUSH32 0x4252494447455F4241445F544F4B454E5F494E5F42414C414E43450000000000 PUSH1 0x44 DUP3 ADD MSTORE PUSH1 0x64 ADD PUSH2 0xA6A JUMP JUMPDEST DUP11 PUSH1 0x1 PUSH1 0x1 PUSH1 0xA0 SHL SUB AND DUP13 DUP15 PUSH1 0xFF AND PUSH32 0xA167C1255BAFC7104C4249FD3B9E751BFC085A4865D00431B1184A2D0B71CEBC DUP9 DUP8 DUP10 DUP14 DUP14 PUSH1 0x40 MLOAD PUSH2 0x273A SWAP6 SWAP5 SWAP4 SWAP3 SWAP2 SWAP1 PUSH2 0x519D JUMP JUMPDEST PUSH1 0x40 MLOAD DUP1 SWAP2 SUB SWAP1 LOG4 POP POP POP POP SWAP9 SWAP8 POP POP POP POP POP POP POP POP JUMP JUMPDEST PUSH1 0x60 DUP1 PUSH2 0x2783 CALLER PUSH1 0x0 CALLDATALOAD PUSH32 0xFFFFFFFF00000000000000000000000000000000000000000000000000000000 AND PUSH2 0x2D0B JUMP JUMPDEST PUSH1 0x1 PUSH1 0x1 PUSH1 0xA0 SHL SUB DUP8 AND PUSH1 0x0 SWAP1 DUP2 MSTORE PUSH1 0x6 PUSH1 0x20 MSTORE PUSH1 0x40 SWAP1 KECCAK256 SLOAD PUSH1 0xFF AND PUSH2 0x27EB JUMPI PUSH1 0x40 MLOAD PUSH3 0x461BCD PUSH1 0xE5 SHL DUP2 MSTORE PUSH1 0x20 PUSH1 0x4 DUP3 ADD MSTORE PUSH1 0x14 PUSH1 0x24 DUP3 ADD MSTORE PUSH32 0x53545241544547595F4E4F545F414C4C4F574544000000000000000000000000 PUSH1 0x44 DUP3 ADD MSTORE PUSH1 0x64 ADD PUSH2 0xA6A JUMP JUMPDEST PUSH1 0x1 PUSH1 0x1 PUSH1 0xA0 SHL SUB DUP8 AND PUSH1 0x0 SWAP1 DUP2 MSTORE PUSH1 0x7 PUSH1 0x20 MSTORE PUSH1 0x40 SWAP1 KECCAK256 SLOAD PUSH2 0x2850 JUMPI PUSH1 0x40 MLOAD PUSH3 0x461BCD PUSH1 0xE5 SHL DUP2 MSTORE PUSH1 0x20 PUSH1 0x4 DUP3 ADD MSTORE PUSH1 0x16 PUSH1 0x24 DUP3 ADD MSTORE PUSH32 0x455849545F4E4F5F494E5645535445445F56414C554500000000000000000000 PUSH1 0x44 DUP3 ADD MSTORE PUSH1 0x64 ADD PUSH2 0xA6A JUMP JUMPDEST PUSH8 0xDE0B6B3A7640000 DUP5 GT ISZERO PUSH2 0x28A8 JUMPI PUSH1 0x40 MLOAD PUSH3 0x461BCD PUSH1 0xE5 SHL DUP2 MSTORE PUSH1 0x20 PUSH1 0x4 DUP3 ADD MSTORE PUSH1 0x17 PUSH1 0x24 DUP3 ADD MSTORE PUSH32 0x455849545F534C4950504147455F41424F56455F4F4E45000000000000000000 PUSH1 0x44 DUP3 ADD MSTORE PUSH1 0x64 ADD PUSH2 0xA6A JUMP JUMPDEST DUP5 MLOAD DUP7 MLOAD EQ PUSH2 0x28F9 JUMPI PUSH1 0x40 MLOAD PUSH3 0x461BCD PUSH1 0xE5 SHL DUP2 MSTORE PUSH1 0x20 PUSH1 0x4 DUP3 ADD MSTORE PUSH1 0x19 PUSH1 0x24 DUP3 ADD MSTORE PUSH32 0x455849545F494E5055545F494E56414C49445F4C454E47544800000000000000 PUSH1 0x44 DUP3 ADD MSTORE PUSH1 0x64 ADD PUSH2 0xA6A JUMP JUMPDEST PUSH1 0x0 PUSH2 0x2911 PUSH1 0x1 PUSH1 0x1 PUSH1 0xA0 SHL SUB DUP10 AND DUP9 DUP9 DUP9 DUP9 PUSH2 0x3DDF JUMP JUMPDEST DUP2 MLOAD DUP4 MLOAD SWAP4 SWAP7 POP SWAP2 SWAP5 POP SWAP3 POP EQ PUSH2 0x296A JUMPI PUSH1 0x40 MLOAD PUSH3 0x461BCD PUSH1 0xE5 SHL DUP2 MSTORE PUSH1 0x20 PUSH1 0x4 DUP3 ADD MSTORE PUSH1 0x1A PUSH1 0x24 DUP3 ADD MSTORE PUSH32 0x455849545F4F55545055545F494E56414C49445F4C454E475448000000000000 PUSH1 0x44 DUP3 ADD MSTORE PUSH1 0x64 ADD PUSH2 0xA6A JUMP JUMPDEST PUSH1 0x0 DUP3 MLOAD PUSH8 0xFFFFFFFFFFFFFFFF DUP2 GT ISZERO PUSH2 0x2994 JUMPI PUSH4 0x4E487B71 PUSH1 0xE0 SHL PUSH1 0x0 MSTORE PUSH1 0x41 PUSH1 0x4 MSTORE PUSH1 0x24 PUSH1 0x0 REVERT JUMPDEST PUSH1 0x40 MLOAD SWAP1 DUP1 DUP3 MSTORE DUP1 PUSH1 0x20 MUL PUSH1 0x20 ADD DUP3 ADD PUSH1 0x40 MSTORE DUP1 ISZERO PUSH2 0x29BD JUMPI DUP2 PUSH1 0x20 ADD PUSH1 0x20 DUP3 MUL DUP1 CALLDATASIZE DUP4 CALLDATACOPY ADD SWAP1 POP JUMPDEST POP SWAP1 POP PUSH1 0x0 DUP3 PUSH2 0x29CC DUP12 PUSH2 0x1E08 JUMP JUMPDEST PUSH2 0x29D6 SWAP2 SWAP1 PUSH2 0x5310 JUMP JUMPDEST PUSH1 0x1 PUSH1 0x1 PUSH1 0xA0 SHL SUB DUP12 AND PUSH1 0x0 SWAP1 DUP2 MSTORE PUSH1 0x7 PUSH1 0x20 MSTORE PUSH1 0x40 SWAP1 KECCAK256 SLOAD SWAP1 SWAP2 POP DUP2 GT PUSH2 0x2A5A JUMPI PUSH1 0x1 PUSH1 0x1 PUSH1 0xA0 SHL SUB DUP11 AND PUSH1 0x0 SWAP1 DUP2 MSTORE PUSH1 0x7 PUSH1 0x20 MSTORE PUSH1 0x40 SWAP1 KECCAK256 SLOAD PUSH2 0x2A27 SWAP1 DUP3 SWAP1 PUSH2 0x2A21 SWAP1 DUP7 PUSH2 0x30D5 JUMP JUMPDEST SWAP1 PUSH2 0x3F03 JUMP JUMPDEST PUSH1 0x1 PUSH1 0x1 PUSH1 0xA0 SHL SUB DUP12 AND PUSH1 0x0 SWAP1 DUP2 MSTORE PUSH1 0x7 PUSH1 0x20 MSTORE PUSH1 0x40 DUP2 KECCAK256 DUP1 SLOAD SWAP1 SWAP2 SWAP1 PUSH2 0x2A4F SWAP1 DUP5 SWAP1 PUSH2 0x5385 JUMP JUMPDEST SWAP1 SWAP2 SSTORE POP PUSH2 0x2BEC SWAP1 POP JUMP JUMPDEST PUSH1 0x1 PUSH1 0x1 PUSH1 0xA0 SHL SUB DUP11 AND PUSH1 0x0 SWAP1 DUP2 MSTORE PUSH1 0x7 PUSH1 0x20 MSTORE PUSH1 0x40 DUP2 KECCAK256 SLOAD DUP3 SUB SWAP1 DUP5 DUP3 LT ISZERO SWAP1 DUP2 PUSH2 0x2A88 JUMPI DUP3 DUP7 SUB PUSH2 0x2A8B JUMP JUMPDEST PUSH1 0x0 JUMPDEST PUSH1 0x1 PUSH1 0x1 PUSH1 0xA0 SHL SUB DUP15 AND PUSH1 0x0 SWAP1 DUP2 MSTORE PUSH1 0x7 PUSH1 0x20 MSTORE PUSH1 0x40 SWAP1 KECCAK256 SLOAD SWAP1 SWAP2 POP PUSH2 0x2AB2 SWAP1 DUP3 SWAP1 PUSH2 0x5385 JUMP JUMPDEST PUSH1 0x1 PUSH1 0x1 PUSH1 0xA0 SHL SUB DUP15 AND PUSH1 0x0 SWAP1 DUP2 MSTORE PUSH1 0x7 PUSH1 0x20 MSTORE PUSH1 0x40 DUP2 KECCAK256 SWAP2 SWAP1 SWAP2 SSTORE JUMPDEST DUP9 MLOAD DUP2 LT ISZERO PUSH2 0x2BE7 JUMPI PUSH1 0x0 DUP10 DUP3 DUP2 MLOAD DUP2 LT PUSH2 0x2AFA JUMPI PUSH4 0x4E487B71 PUSH1 0xE0 SHL PUSH1 0x0 MSTORE PUSH1 0x32 PUSH1 0x4 MSTORE PUSH1 0x24 PUSH1 0x0 REVERT JUMPDEST PUSH1 0x20 MUL PUSH1 0x20 ADD ADD MLOAD SWAP1 POP PUSH1 0x0 DUP10 DUP4 DUP2 MLOAD DUP2 LT PUSH2 0x2B26 JUMPI PUSH4 0x4E487B71 PUSH1 0xE0 SHL PUSH1 0x0 MSTORE PUSH1 0x32 PUSH1 0x4 MSTORE PUSH1 0x24 PUSH1 0x0 REVERT JUMPDEST PUSH1 0x20 MUL PUSH1 0x20 ADD ADD MLOAD SWAP1 POP PUSH1 0x0 DUP6 PUSH2 0x2B51 JUMPI DUP10 PUSH2 0x2B42 DUP9 DUP5 PUSH2 0x5348 JUMP JUMPDEST PUSH2 0x2B4C SWAP2 SWAP1 PUSH2 0x5328 JUMP JUMPDEST PUSH2 0x2B53 JUMP JUMPDEST DUP2 JUMPDEST SWAP1 POP PUSH1 0x0 PUSH2 0x2B63 DUP5 DUP4 PUSH1 0xF PUSH2 0x32DE JUMP JUMPDEST SWAP1 POP PUSH2 0x2B6F DUP2 DUP5 PUSH2 0x5385 JUMP JUMPDEST DUP13 DUP7 DUP2 MLOAD DUP2 LT PUSH2 0x2B8F JUMPI PUSH4 0x4E487B71 PUSH1 0xE0 SHL PUSH1 0x0 MSTORE PUSH1 0x32 PUSH1 0x4 MSTORE PUSH1 0x24 PUSH1 0x0 REVERT JUMPDEST PUSH1 0x20 MUL PUSH1 0x20 ADD ADD DUP2 DUP2 MSTORE POP POP DUP1 DUP11 DUP7 DUP2 MLOAD DUP2 LT PUSH2 0x2BBC JUMPI PUSH4 0x4E487B71 PUSH1 0xE0 SHL PUSH1 0x0 MSTORE PUSH1 0x32 PUSH1 0x4 MSTORE PUSH1 0x24 PUSH1 0x0 REVERT JUMPDEST PUSH1 0x20 MUL PUSH1 0x20 ADD ADD DUP2 DUP2 MSTORE POP POP POP POP POP POP PUSH2 0x2BE0 PUSH1 0x1 DUP3 PUSH2 0x3448 SWAP1 SWAP2 SWAP1 PUSH4 0xFFFFFFFF AND JUMP JUMPDEST SWAP1 POP PUSH2 0x2ACF JUMP JUMPDEST POP POP POP POP JUMPDEST DUP10 PUSH1 0x1 PUSH1 0x1 PUSH1 0xA0 SHL SUB AND PUSH32 0x93D8F30EE317E072A8EF28FA15D7B971A88F92A36F75DBF70B6465B6773A3A41 DUP11 DUP11 DUP9 DUP9 DUP9 DUP9 DUP15 DUP15 PUSH1 0x40 MLOAD PUSH2 0x2C33 SWAP9 SWAP8 SWAP7 SWAP6 SWAP5 SWAP4 SWAP3 SWAP2 SWAP1 PUSH2 0x4F92 JUMP JUMPDEST PUSH1 0x40 MLOAD DUP1 SWAP2 SUB SWAP1 LOG2 POP POP POP SWAP6 POP SWAP6 SWAP4 POP POP POP POP JUMP JUMPDEST PUSH2 0x2C76 CALLER PUSH1 0x0 CALLDATALOAD PUSH32 0xFFFFFFFF00000000000000000000000000000000000000000000000000000000 AND PUSH2 0x2D0B JUMP JUMPDEST PUSH2 0x2C84 PUSH1 0x9 DUP6 DUP6 DUP6 DUP6 PUSH2 0x2D61 JUMP JUMPDEST PUSH1 0x40 DUP1 MLOAD DUP6 DUP2 MSTORE PUSH1 0x20 DUP2 ADD DUP6 SWAP1 MSTORE PUSH1 0x1 PUSH1 0x1 PUSH1 0xA0 SHL SUB DUP5 AND SWAP2 DUP2 ADD SWAP2 SWAP1 SWAP2 MSTORE PUSH1 0x60 DUP2 ADD DUP3 SWAP1 MSTORE PUSH32 0xE5978C2A23CCC9AF802B0A59F3E9D95EC28487EEA5C5FA85557A26854E263F67 SWAP1 PUSH1 0x80 ADD PUSH2 0x9E0 JUMP JUMPDEST PUSH2 0x2D02 CALLER PUSH1 0x0 CALLDATALOAD PUSH32 0xFFFFFFFF00000000000000000000000000000000000000000000000000000000 AND PUSH2 0x2D0B JUMP JUMPDEST PUSH2 0x162C DUP2 PUSH2 0x4004 JUMP JUMPDEST PUSH2 0x2D15 DUP3 DUP3 PUSH2 0x224C JUMP JUMPDEST PUSH2 0x1889 JUMPI PUSH1 0x40 MLOAD PUSH3 0x461BCD PUSH1 0xE5 SHL DUP2 MSTORE PUSH1 0x20 PUSH1 0x4 DUP3 ADD MSTORE PUSH1 0x17 PUSH1 0x24 DUP3 ADD MSTORE PUSH32 0x415554485F53454E4445525F4E4F545F414C4C4F574544000000000000000000 PUSH1 0x44 DUP3 ADD MSTORE PUSH1 0x64 ADD PUSH2 0xA6A JUMP JUMPDEST PUSH8 0xDE0B6B3A7640000 DUP5 GT ISZERO PUSH2 0x2DB9 JUMPI PUSH1 0x40 MLOAD PUSH3 0x461BCD PUSH1 0xE5 SHL DUP2 MSTORE PUSH1 0x20 PUSH1 0x4 DUP3 ADD MSTORE PUSH1 0x11 PUSH1 0x24 DUP3 ADD MSTORE PUSH32 0x4645455F5043545F41424F56455F4F4E45000000000000000000000000000000 PUSH1 0x44 DUP3 ADD MSTORE PUSH1 0x64 ADD PUSH2 0xA6A JUMP JUMPDEST PUSH1 0x0 PUSH1 0x1 PUSH1 0x1 PUSH1 0xA0 SHL SUB DUP4 AND ISZERO DUP1 ISZERO PUSH2 0x2DD0 JUMPI POP DUP4 ISZERO JUMPDEST DUP1 ISZERO PUSH2 0x2DDA JUMPI POP DUP2 ISZERO JUMPDEST SWAP1 POP DUP5 ISZERO ISZERO DUP1 PUSH2 0x2DE7 JUMPI POP DUP1 JUMPDEST PUSH2 0x2E33 JUMPI PUSH1 0x40 MLOAD PUSH3 0x461BCD PUSH1 0xE5 SHL DUP2 MSTORE PUSH1 0x20 PUSH1 0x4 DUP3 ADD MSTORE PUSH1 0x19 PUSH1 0x24 DUP3 ADD MSTORE PUSH32 0x494E56414C49445F4341505F574954485F4645455F5A45524F00000000000000 PUSH1 0x44 DUP3 ADD MSTORE PUSH1 0x64 ADD PUSH2 0xA6A JUMP JUMPDEST PUSH1 0x0 PUSH1 0x1 PUSH1 0x1 PUSH1 0xA0 SHL SUB DUP5 AND ISZERO DUP1 ISZERO SWAP1 PUSH2 0x2E4C JUMPI POP DUP5 ISZERO ISZERO JUMPDEST DUP1 ISZERO PUSH2 0x2E57 JUMPI POP DUP3 ISZERO ISZERO JUMPDEST SWAP1 POP DUP2 DUP1 PUSH2 0x2E62 JUMPI POP DUP1 JUMPDEST PUSH2 0x2EAE JUMPI PUSH1 0x40 MLOAD PUSH3 0x461BCD PUSH1 0xE5 SHL DUP2 MSTORE PUSH1 0x20 PUSH1 0x4 DUP3 ADD MSTORE PUSH1 0x17 PUSH1 0x24 DUP3 ADD MSTORE PUSH32 0x494E434F4E53495354454E545F4341505F56414C554553000000000000000000 PUSH1 0x44 DUP3 ADD MSTORE PUSH1 0x64 ADD PUSH2 0xA6A JUMP JUMPDEST DUP6 DUP8 SSTORE PUSH1 0x1 DUP8 ADD DUP6 SWAP1 SSTORE PUSH1 0x3 DUP8 ADD DUP4 SWAP1 SSTORE DUP2 ISZERO PUSH2 0x2ED8 JUMPI PUSH1 0x0 PUSH1 0x4 DUP9 ADD DUP2 SWAP1 SSTORE PUSH1 0x5 DUP9 ADD SSTORE PUSH2 0x2F40 JUMP JUMPDEST PUSH1 0x5 DUP8 ADD SLOAD PUSH2 0x2EF5 JUMPI PUSH2 0x2EEB DUP4 TIMESTAMP PUSH2 0x5310 JUMP JUMPDEST PUSH1 0x5 DUP9 ADD SSTORE PUSH2 0x2F40 JUMP JUMPDEST PUSH1 0x2 DUP8 ADD SLOAD PUSH1 0x1 PUSH1 0x1 PUSH1 0xA0 SHL SUB DUP6 DUP2 AND SWAP2 AND EQ PUSH2 0x2F40 JUMPI PUSH1 0x2 DUP8 ADD SLOAD PUSH1 0x0 SWAP1 PUSH2 0x2F27 SWAP1 PUSH1 0x1 PUSH1 0x1 PUSH1 0xA0 SHL SUB AND DUP7 PUSH2 0x1BF4 JUMP JUMPDEST PUSH1 0x4 DUP10 ADD SLOAD SWAP1 SWAP2 POP PUSH2 0x2F39 SWAP1 DUP3 PUSH2 0x406F JUMP JUMPDEST PUSH1 0x4 DUP10 ADD SSTORE POP JUMPDEST POP POP POP PUSH1 0x2 SWAP4 SWAP1 SWAP4 ADD DUP1 SLOAD PUSH32 0xFFFFFFFFFFFFFFFFFFFFFFFF0000000000000000000000000000000000000000 AND PUSH1 0x1 PUSH1 0x1 PUSH1 0xA0 SHL SUB SWAP1 SWAP5 AND SWAP4 SWAP1 SWAP4 OR SWAP1 SWAP3 SSTORE POP POP JUMP JUMPDEST PUSH1 0x60 DUP1 PUSH1 0x0 DUP1 PUSH4 0xCFEDE734 PUSH1 0xE0 SHL DUP9 DUP9 DUP9 DUP9 PUSH1 0x40 MLOAD PUSH1 0x24 ADD PUSH2 0x2FA8 SWAP5 SWAP4 SWAP3 SWAP2 SWAP1 PUSH2 0x50D4 JUMP JUMPDEST PUSH1 0x40 MLOAD PUSH1 0x20 DUP2 DUP4 SUB SUB DUP2 MSTORE SWAP1 PUSH1 0x40 MSTORE SWAP1 PUSH28 0xFFFFFFFFFFFFFFFFFFFFFFFFFFFFFFFFFFFFFFFFFFFFFFFFFFFFFFFF NOT AND PUSH1 0x20 DUP3 ADD DUP1 MLOAD PUSH28 0xFFFFFFFFFFFFFFFFFFFFFFFFFFFFFFFFFFFFFFFFFFFFFFFFFFFFFFFF DUP4 DUP2 DUP4 AND OR DUP4 MSTORE POP POP POP POP SWAP1 POP PUSH1 0x0 DUP1 DUP11 PUSH1 0x1 PUSH1 0x1 PUSH1 0xA0 SHL SUB AND DUP4 PUSH1 0x40 MLOAD PUSH2 0x3022 SWAP2 SWAP1 PUSH2 0x4F48 JUMP JUMPDEST PUSH1 0x0 PUSH1 0x40 MLOAD DUP1 DUP4 SUB DUP2 DUP6 GAS DELEGATECALL SWAP2 POP POP RETURNDATASIZE DUP1 PUSH1 0x0 DUP2 EQ PUSH2 0x305D JUMPI PUSH1 0x40 MLOAD SWAP2 POP PUSH1 0x1F NOT PUSH1 0x3F RETURNDATASIZE ADD AND DUP3 ADD PUSH1 0x40 MSTORE RETURNDATASIZE DUP3 MSTORE RETURNDATASIZE PUSH1 0x0 PUSH1 0x20 DUP5 ADD RETURNDATACOPY PUSH2 0x3062 JUMP JUMPDEST PUSH1 0x60 SWAP2 POP JUMPDEST POP SWAP2 POP SWAP2 POP PUSH2 0x30A7 DUP3 DUP3 PUSH1 0x40 MLOAD DUP1 PUSH1 0x40 ADD PUSH1 0x40 MSTORE DUP1 PUSH1 0x12 DUP2 MSTORE PUSH1 0x20 ADD PUSH32 0x4A4F494E5F43414C4C5F52455645525445440000000000000000000000000000 DUP2 MSTORE POP PUSH2 0x40FB JUMP JUMPDEST POP DUP1 DUP1 PUSH1 0x20 ADD SWAP1 MLOAD DUP2 ADD SWAP1 PUSH2 0x30BC SWAP2 SWAP1 PUSH2 0x4C07 JUMP JUMPDEST SWAP6 POP SWAP6 POP SWAP6 POP POP POP POP SWAP6 POP SWAP6 POP SWAP6 SWAP3 POP POP POP JUMP JUMPDEST SWAP1 SUB SWAP1 JUMP JUMPDEST PUSH1 0x0 DUP3 DUP3 MUL DUP4 ISZERO DUP1 PUSH2 0x3103 JUMPI POP DUP3 DUP5 DUP3 DUP2 PUSH2 0x3100 JUMPI PUSH4 0x4E487B71 PUSH1 0xE0 SHL PUSH1 0x0 MSTORE PUSH1 0x12 PUSH1 0x4 MSTORE PUSH1 0x24 PUSH1 0x0 REVERT JUMPDEST DIV EQ JUMPDEST PUSH2 0x314F JUMPI PUSH1 0x40 MLOAD PUSH3 0x461BCD PUSH1 0xE5 SHL DUP2 MSTORE PUSH1 0x20 PUSH1 0x4 DUP3 ADD MSTORE PUSH1 0xC PUSH1 0x24 DUP3 ADD MSTORE PUSH32 0x4D554C5F4F564552464C4F570000000000000000000000000000000000000000 PUSH1 0x44 DUP3 ADD MSTORE PUSH1 0x64 ADD PUSH2 0xA6A JUMP JUMPDEST DUP1 ISZERO PUSH2 0x318A JUMPI PUSH8 0xDE0B6B3A7640000 PUSH32 0xFFFFFFFFFFFFFFFFFFFFFFFFFFFFFFFFFFFFFFFFFFFFFFFFFFFFFFFFFFFFFFFF DUP3 ADD DIV PUSH1 0x1 ADD PUSH2 0x318D JUMP JUMPDEST PUSH1 0x0 JUMPDEST SWAP5 SWAP4 POP POP POP POP JUMP JUMPDEST PUSH1 0x0 DUP1 PUSH4 0xA231A780 PUSH1 0xE0 SHL DUP9 DUP9 DUP9 DUP9 DUP9 DUP9 PUSH1 0x40 MLOAD PUSH1 0x24 ADD PUSH2 0x31BB SWAP7 SWAP6 SWAP5 SWAP4 SWAP3 SWAP2 SWAP1 PUSH2 0x51FC JUMP JUMPDEST PUSH1 0x40 MLOAD PUSH1 0x20 DUP2 DUP4 SUB SUB DUP2 MSTORE SWAP1 PUSH1 0x40 MSTORE SWAP1 PUSH28 0xFFFFFFFFFFFFFFFFFFFFFFFFFFFFFFFFFFFFFFFFFFFFFFFFFFFFFFFF NOT AND PUSH1 0x20 DUP3 ADD DUP1 MLOAD PUSH28 0xFFFFFFFFFFFFFFFFFFFFFFFFFFFFFFFFFFFFFFFFFFFFFFFFFFFFFFFF DUP4 DUP2 DUP4 AND OR DUP4 MSTORE POP POP POP POP SWAP1 POP PUSH1 0x0 DUP1 DUP11 PUSH1 0x1 PUSH1 0x1 PUSH1 0xA0 SHL SUB AND DUP4 PUSH1 0x40 MLOAD PUSH2 0x3235 SWAP2 SWAP1 PUSH2 0x4F48 JUMP JUMPDEST PUSH1 0x0 PUSH1 0x40 MLOAD DUP1 DUP4 SUB DUP2 DUP6 GAS DELEGATECALL SWAP2 POP POP RETURNDATASIZE DUP1 PUSH1 0x0 DUP2 EQ PUSH2 0x3270 JUMPI PUSH1 0x40 MLOAD SWAP2 POP PUSH1 0x1F NOT PUSH1 0x3F RETURNDATASIZE ADD AND DUP3 ADD PUSH1 0x40 MSTORE RETURNDATASIZE DUP3 MSTORE RETURNDATASIZE PUSH1 0x0 PUSH1 0x20 DUP5 ADD RETURNDATACOPY PUSH2 0x3275 JUMP JUMPDEST PUSH1 0x60 SWAP2 POP JUMPDEST POP SWAP2 POP SWAP2 POP PUSH2 0x32BA DUP3 DUP3 PUSH1 0x40 MLOAD DUP1 PUSH1 0x40 ADD PUSH1 0x40 MSTORE DUP1 PUSH1 0x12 DUP2 MSTORE PUSH1 0x20 ADD PUSH32 0x535741505F43414C4C5F52455645525445440000000000000000000000000000 DUP2 MSTORE POP PUSH2 0x40FB JUMP JUMPDEST POP DUP1 DUP1 PUSH1 0x20 ADD SWAP1 MLOAD DUP2 ADD SWAP1 PUSH2 0x32CF SWAP2 SWAP1 PUSH2 0x4CCF JUMP JUMPDEST SWAP12 SWAP11 POP POP POP POP POP POP POP POP POP POP POP JUMP JUMPDEST DUP1 SLOAD PUSH1 0x0 SWAP1 DUP2 SWAP1 PUSH2 0x32F0 SWAP1 DUP6 SWAP1 PUSH2 0x406F JUMP JUMPDEST PUSH1 0x2 DUP5 ADD SLOAD SWAP1 SWAP2 POP PUSH1 0x1 PUSH1 0x1 PUSH1 0xA0 SHL SUB AND ISZERO DUP1 PUSH2 0x330F JUMPI POP PUSH1 0x1 DUP4 ADD SLOAD ISZERO JUMPDEST DUP1 PUSH2 0x331C JUMPI POP PUSH1 0x3 DUP4 ADD SLOAD ISZERO JUMPDEST ISZERO PUSH2 0x3340 JUMPI PUSH1 0x8 SLOAD PUSH2 0x3339 SWAP1 DUP7 SWAP1 PUSH1 0x1 PUSH1 0x1 PUSH1 0xA0 SHL SUB AND DUP4 PUSH2 0x36B3 JUMP JUMPDEST SWAP1 POP PUSH2 0x1C99 JUMP JUMPDEST DUP3 PUSH1 0x5 ADD SLOAD TIMESTAMP LT PUSH2 0x3367 JUMPI PUSH1 0x0 PUSH1 0x4 DUP5 ADD SSTORE PUSH1 0x3 DUP4 ADD SLOAD PUSH2 0x3361 SWAP1 TIMESTAMP PUSH2 0x5310 JUMP JUMPDEST PUSH1 0x5 DUP5 ADD SSTORE JUMPDEST PUSH1 0x2 DUP4 ADD SLOAD PUSH1 0x0 SWAP1 PUSH2 0x3383 SWAP1 DUP8 SWAP1 PUSH1 0x1 PUSH1 0x1 PUSH1 0xA0 SHL SUB AND PUSH2 0x1BF4 JUMP JUMPDEST SWAP1 POP PUSH1 0x0 PUSH2 0x3391 DUP4 DUP4 PUSH2 0x406F JUMP JUMPDEST SWAP1 POP DUP5 PUSH1 0x1 ADD SLOAD DUP2 DUP7 PUSH1 0x4 ADD SLOAD PUSH2 0x33A8 SWAP2 SWAP1 PUSH2 0x5310 JUMP JUMPDEST GT PUSH2 0x33CF JUMPI DUP3 SWAP4 POP DUP1 DUP6 PUSH1 0x4 ADD PUSH1 0x0 DUP3 DUP3 SLOAD PUSH2 0x33C4 SWAP2 SWAP1 PUSH2 0x5310 JUMP JUMPDEST SWAP1 SWAP2 SSTORE POP PUSH2 0x3426 SWAP1 POP JUMP JUMPDEST DUP5 PUSH1 0x1 ADD SLOAD DUP6 PUSH1 0x4 ADD SLOAD LT ISZERO PUSH2 0x3421 JUMPI DUP1 DUP4 PUSH2 0x33FC DUP8 PUSH1 0x4 ADD SLOAD DUP9 PUSH1 0x1 ADD SLOAD PUSH2 0x30D0 SWAP1 SWAP2 SWAP1 PUSH4 0xFFFFFFFF AND JUMP JUMPDEST PUSH2 0x3406 SWAP2 SWAP1 PUSH2 0x5348 JUMP JUMPDEST PUSH2 0x3410 SWAP2 SWAP1 PUSH2 0x5328 JUMP JUMPDEST PUSH1 0x1 DUP7 ADD SLOAD PUSH1 0x4 DUP8 ADD SSTORE SWAP4 POP PUSH2 0x3426 JUMP JUMPDEST PUSH1 0x0 SWAP4 POP JUMPDEST PUSH1 0x8 SLOAD PUSH2 0x343E SWAP1 DUP9 SWAP1 PUSH1 0x1 PUSH1 0x1 PUSH1 0xA0 SHL SUB AND DUP7 PUSH2 0x36B3 JUMP JUMPDEST POP POP POP SWAP4 SWAP3 POP POP POP JUMP JUMPDEST ADD SWAP1 JUMP JUMPDEST PUSH2 0x3455 DUP2 PUSH2 0x4134 JUMP JUMPDEST PUSH1 0x3 DUP1 SLOAD PUSH32 0xFFFFFFFFFFFFFFFFFFFFFFFF0000000000000000000000000000000000000000 AND PUSH1 0x1 PUSH1 0x1 PUSH1 0xA0 SHL SUB DUP4 AND SWAP1 DUP2 OR SWAP1 SWAP2 SSTORE PUSH1 0x40 MLOAD PUSH32 0x6536690106168BDF4BA72C128A053D817999B1DB90CAE23F139B293BF862CB75 SWAP1 PUSH1 0x0 SWAP1 LOG2 POP JUMP JUMPDEST PUSH1 0x40 MLOAD PUSH1 0x1 PUSH1 0x1 PUSH1 0xA0 SHL SUB DUP1 DUP6 AND PUSH1 0x24 DUP4 ADD MSTORE DUP4 AND PUSH1 0x44 DUP3 ADD MSTORE PUSH1 0x64 DUP2 ADD DUP3 SWAP1 MSTORE PUSH2 0x15EF SWAP1 DUP6 SWAP1 PUSH32 0x23B872DD00000000000000000000000000000000000000000000000000000000 SWAP1 PUSH1 0x84 ADD JUMPDEST PUSH1 0x40 DUP1 MLOAD PUSH32 0xFFFFFFFFFFFFFFFFFFFFFFFFFFFFFFFFFFFFFFFFFFFFFFFFFFFFFFFFFFFFFFE0 DUP2 DUP5 SUB ADD DUP2 MSTORE SWAP2 SWAP1 MSTORE PUSH1 0x20 DUP2 ADD DUP1 MLOAD PUSH28 0xFFFFFFFFFFFFFFFFFFFFFFFFFFFFFFFFFFFFFFFFFFFFFFFFFFFFFFFF AND PUSH32 0xFFFFFFFF00000000000000000000000000000000000000000000000000000000 SWAP1 SWAP4 AND SWAP3 SWAP1 SWAP3 OR SWAP1 SWAP2 MSTORE PUSH2 0x4189 JUMP JUMPDEST PUSH1 0x1 PUSH1 0x1 PUSH1 0xA0 SHL SUB DUP3 AND PUSH1 0x0 DUP2 DUP2 MSTORE PUSH1 0x2 PUSH1 0x20 SWAP1 DUP2 MSTORE PUSH1 0x40 DUP1 DUP4 KECCAK256 PUSH32 0xFFFFFFFF00000000000000000000000000000000000000000000000000000000 DUP7 AND DUP1 DUP6 MSTORE SWAP1 DUP4 MSTORE SWAP3 DUP2 SWAP1 KECCAK256 DUP1 SLOAD PUSH32 0xFFFFFFFFFFFFFFFFFFFFFFFFFFFFFFFFFFFFFFFFFFFFFFFFFFFFFFFFFFFFFF00 AND SWAP1 SSTORE MLOAD SWAP2 DUP3 MSTORE PUSH32 0xA2E97B9EEA8D1168700E334304EDD057DFF89C0384CA6F920C73CC3E48C8E523 SWAP2 ADD JUMPDEST PUSH1 0x40 MLOAD DUP1 SWAP2 SUB SWAP1 LOG2 POP POP JUMP JUMPDEST PUSH1 0x1 PUSH1 0x1 PUSH1 0xA0 SHL SUB DUP4 DUP2 AND PUSH1 0x0 DUP2 DUP2 MSTORE PUSH1 0x1 PUSH1 0x20 SWAP1 DUP2 MSTORE PUSH1 0x40 DUP1 DUP4 KECCAK256 DUP8 DUP7 AND DUP1 DUP6 MSTORE SWAP1 DUP4 MSTORE SWAP3 DUP2 SWAP1 KECCAK256 DUP1 SLOAD PUSH32 0xFFFFFFFFFFFFFFFFFFFFFFFF0000000000000000000000000000000000000000 AND SWAP6 DUP8 AND SWAP6 DUP7 OR SWAP1 SSTORE MLOAD SWAP4 DUP5 MSTORE SWAP1 SWAP3 PUSH32 0x519169F85E741141647FDDD20CE1D573843E55C1CA650E85A3F82F3410EE5D04 SWAP2 ADD PUSH1 0x40 MLOAD DUP1 SWAP2 SUB SWAP1 LOG3 POP POP POP JUMP JUMPDEST DUP1 PUSH2 0x36BD JUMPI PUSH2 0x18C6 JUMP JUMPDEST PUSH20 0xEEEEEEEEEEEEEEEEEEEEEEEEEEEEEEEEEEEEEEEE PUSH1 0x1 PUSH1 0x1 PUSH1 0xA0 SHL SUB DUP5 AND EQ ISZERO PUSH2 0x36F1 JUMPI PUSH2 0x36EC DUP3 DUP3 PUSH2 0x426E JUMP JUMPDEST PUSH2 0x18C6 JUMP JUMPDEST PUSH2 0x18C6 PUSH1 0x1 PUSH1 0x1 PUSH1 0xA0 SHL SUB DUP5 AND DUP4 DUP4 PUSH2 0x4387 JUMP JUMPDEST PUSH1 0x1 PUSH1 0x1 PUSH1 0xA0 SHL SUB DUP3 AND PUSH1 0x0 DUP2 DUP2 MSTORE PUSH1 0x2 PUSH1 0x20 SWAP1 DUP2 MSTORE PUSH1 0x40 DUP1 DUP4 KECCAK256 PUSH32 0xFFFFFFFF00000000000000000000000000000000000000000000000000000000 DUP7 AND DUP1 DUP6 MSTORE SWAP1 DUP4 MSTORE SWAP3 DUP2 SWAP1 KECCAK256 DUP1 SLOAD PUSH32 0xFFFFFFFFFFFFFFFFFFFFFFFFFFFFFFFFFFFFFFFFFFFFFFFFFFFFFFFFFFFFFF00 AND PUSH1 0x1 OR SWAP1 SSTORE MLOAD SWAP2 DUP3 MSTORE PUSH32 0x7F06C1C34AD47198873DA9DCDE2E40904035D41B23DA3A9132DF674A75022DF7 SWAP2 ADD PUSH2 0x361C JUMP JUMPDEST PUSH1 0x1 PUSH1 0x1 PUSH1 0xA0 SHL SUB DUP2 AND PUSH2 0x37F8 JUMPI PUSH1 0x40 MLOAD PUSH3 0x461BCD PUSH1 0xE5 SHL DUP2 MSTORE PUSH1 0x20 PUSH1 0x4 DUP3 ADD MSTORE PUSH1 0x12 PUSH1 0x24 DUP3 ADD MSTORE PUSH32 0x4645455F434F4C4C4543544F525F5A45524F0000000000000000000000000000 PUSH1 0x44 DUP3 ADD MSTORE PUSH1 0x64 ADD PUSH2 0xA6A JUMP JUMPDEST PUSH1 0x8 DUP1 SLOAD PUSH32 0xFFFFFFFFFFFFFFFFFFFFFFFF0000000000000000000000000000000000000000 AND PUSH1 0x1 PUSH1 0x1 PUSH1 0xA0 SHL SUB DUP4 AND SWAP1 DUP2 OR SWAP1 SWAP2 SSTORE PUSH1 0x40 MLOAD PUSH32 0x12E1D17016B94668449F97876F4A8D5CC2C19F314DB337418894734037CC19D4 SWAP1 PUSH1 0x0 SWAP1 LOG2 POP JUMP JUMPDEST DUP1 ISZERO PUSH2 0x3869 JUMPI PUSH2 0x3869 DUP3 PUSH2 0x4134 JUMP JUMPDEST PUSH1 0x1 PUSH1 0x1 PUSH1 0xA0 SHL SUB DUP3 AND PUSH1 0x0 DUP2 DUP2 MSTORE PUSH1 0x6 PUSH1 0x20 SWAP1 DUP2 MSTORE PUSH1 0x40 SWAP2 DUP3 SWAP1 KECCAK256 DUP1 SLOAD PUSH32 0xFFFFFFFFFFFFFFFFFFFFFFFFFFFFFFFFFFFFFFFFFFFFFFFFFFFFFFFFFFFFFF00 AND DUP6 ISZERO ISZERO SWAP1 DUP2 OR SWAP1 SWAP2 SSTORE SWAP2 MLOAD SWAP2 DUP3 MSTORE PUSH32 0xB9AD240C35681E1D7A33B6B271C4ABA6024A102BA32E826AE4F2E2010330756 SWAP2 ADD PUSH2 0x361C JUMP JUMPDEST PUSH1 0x60 DUP1 PUSH1 0x0 PUSH4 0xC63FF8DD PUSH1 0xE0 SHL DUP5 PUSH1 0x40 MLOAD PUSH1 0x24 ADD PUSH2 0x38FD SWAP2 SWAP1 PUSH2 0x5113 JUMP JUMPDEST PUSH1 0x40 MLOAD PUSH1 0x20 DUP2 DUP4 SUB SUB DUP2 MSTORE SWAP1 PUSH1 0x40 MSTORE SWAP1 PUSH28 0xFFFFFFFFFFFFFFFFFFFFFFFFFFFFFFFFFFFFFFFFFFFFFFFFFFFFFFFF NOT AND PUSH1 0x20 DUP3 ADD DUP1 MLOAD PUSH28 0xFFFFFFFFFFFFFFFFFFFFFFFFFFFFFFFFFFFFFFFFFFFFFFFFFFFFFFFF DUP4 DUP2 DUP4 AND OR DUP4 MSTORE POP POP POP POP SWAP1 POP PUSH1 0x0 DUP1 DUP7 PUSH1 0x1 PUSH1 0x1 PUSH1 0xA0 SHL SUB AND DUP4 PUSH1 0x40 MLOAD PUSH2 0x3977 SWAP2 SWAP1 PUSH2 0x4F48 JUMP JUMPDEST PUSH1 0x0 PUSH1 0x40 MLOAD DUP1 DUP4 SUB DUP2 DUP6 GAS DELEGATECALL SWAP2 POP POP RETURNDATASIZE DUP1 PUSH1 0x0 DUP2 EQ PUSH2 0x39B2 JUMPI PUSH1 0x40 MLOAD SWAP2 POP PUSH1 0x1F NOT PUSH1 0x3F RETURNDATASIZE ADD AND DUP3 ADD PUSH1 0x40 MSTORE RETURNDATASIZE DUP3 MSTORE RETURNDATASIZE PUSH1 0x0 PUSH1 0x20 DUP5 ADD RETURNDATACOPY PUSH2 0x39B7 JUMP JUMPDEST PUSH1 0x60 SWAP2 POP JUMPDEST POP SWAP2 POP SWAP2 POP PUSH2 0x39FC DUP3 DUP3 PUSH1 0x40 MLOAD DUP1 PUSH1 0x40 ADD PUSH1 0x40 MSTORE DUP1 PUSH1 0x13 DUP2 MSTORE PUSH1 0x20 ADD PUSH32 0x434C41494D5F43414C4C5F524556455254454400000000000000000000000000 DUP2 MSTORE POP PUSH2 0x40FB JUMP JUMPDEST POP DUP1 DUP1 PUSH1 0x20 ADD SWAP1 MLOAD DUP2 ADD SWAP1 PUSH2 0x3A11 SWAP2 SWAP1 PUSH2 0x4BB0 JUMP JUMPDEST SWAP5 POP SWAP5 POP POP POP POP SWAP3 POP SWAP3 SWAP1 POP JUMP JUMPDEST PUSH1 0x0 SLOAD PUSH2 0x100 SWAP1 DIV PUSH1 0xFF AND PUSH2 0x3A9C JUMPI PUSH1 0x40 MLOAD PUSH3 0x461BCD PUSH1 0xE5 SHL DUP2 MSTORE PUSH1 0x20 PUSH1 0x4 DUP3 ADD MSTORE PUSH1 0x2B PUSH1 0x24 DUP3 ADD MSTORE PUSH32 0x496E697469616C697A61626C653A20636F6E7472616374206973206E6F742069 PUSH1 0x44 DUP3 ADD MSTORE PUSH32 0x6E697469616C697A696E67000000000000000000000000000000000000000000 PUSH1 0x64 DUP3 ADD MSTORE PUSH1 0x84 ADD PUSH2 0xA6A JUMP JUMPDEST PUSH2 0x3AA4 PUSH2 0x43D0 JUMP JUMPDEST PUSH2 0x3ACE DUP2 PUSH32 0x933F0F3C00000000000000000000000000000000000000000000000000000000 PUSH2 0x3705 JUMP JUMPDEST PUSH2 0x162C DUP2 PUSH32 0x6646A43600000000000000000000000000000000000000000000000000000000 PUSH2 0x3705 JUMP JUMPDEST PUSH2 0x3B01 DUP2 PUSH2 0x4134 JUMP JUMPDEST PUSH1 0x5 DUP1 SLOAD PUSH32 0xFFFFFFFFFFFFFFFFFFFFFFFF0000000000000000000000000000000000000000 AND PUSH1 0x1 PUSH1 0x1 PUSH1 0xA0 SHL SUB DUP4 AND SWAP1 DUP2 OR SWAP1 SWAP2 SSTORE PUSH1 0x40 MLOAD PUSH32 0xD77CBC8D90692AF17E598916F3D976EBB794BF776FE9A30FB64AD039C5D37F81 SWAP1 PUSH1 0x0 SWAP1 LOG2 POP JUMP JUMPDEST PUSH1 0x60 DUP3 SELFBALANCE LT ISZERO PUSH2 0x3BDB JUMPI PUSH1 0x40 MLOAD PUSH3 0x461BCD PUSH1 0xE5 SHL DUP2 MSTORE PUSH1 0x20 PUSH1 0x4 DUP3 ADD MSTORE PUSH1 0x26 PUSH1 0x24 DUP3 ADD MSTORE PUSH32 0x416464726573733A20696E73756666696369656E742062616C616E636520666F PUSH1 0x44 DUP3 ADD MSTORE PUSH32 0x722063616C6C0000000000000000000000000000000000000000000000000000 PUSH1 0x64 DUP3 ADD MSTORE PUSH1 0x84 ADD PUSH2 0xA6A JUMP JUMPDEST PUSH1 0x1 PUSH1 0x1 PUSH1 0xA0 SHL SUB DUP6 AND EXTCODESIZE PUSH2 0x3C32 JUMPI PUSH1 0x40 MLOAD PUSH3 0x461BCD PUSH1 0xE5 SHL DUP2 MSTORE PUSH1 0x20 PUSH1 0x4 DUP3 ADD MSTORE PUSH1 0x1D PUSH1 0x24 DUP3 ADD MSTORE PUSH32 0x416464726573733A2063616C6C20746F206E6F6E2D636F6E7472616374000000 PUSH1 0x44 DUP3 ADD MSTORE PUSH1 0x64 ADD PUSH2 0xA6A JUMP JUMPDEST PUSH1 0x0 DUP1 DUP7 PUSH1 0x1 PUSH1 0x1 PUSH1 0xA0 SHL SUB AND DUP6 DUP8 PUSH1 0x40 MLOAD PUSH2 0x3C4E SWAP2 SWAP1 PUSH2 0x4F48 JUMP JUMPDEST PUSH1 0x0 PUSH1 0x40 MLOAD DUP1 DUP4 SUB DUP2 DUP6 DUP8 GAS CALL SWAP3 POP POP POP RETURNDATASIZE DUP1 PUSH1 0x0 DUP2 EQ PUSH2 0x3C8B JUMPI PUSH1 0x40 MLOAD SWAP2 POP PUSH1 0x1F NOT PUSH1 0x3F RETURNDATASIZE ADD AND DUP3 ADD PUSH1 0x40 MSTORE RETURNDATASIZE DUP3 MSTORE RETURNDATASIZE PUSH1 0x0 PUSH1 0x20 DUP5 ADD RETURNDATACOPY PUSH2 0x3C90 JUMP JUMPDEST PUSH1 0x60 SWAP2 POP JUMPDEST POP SWAP2 POP SWAP2 POP PUSH2 0x3CA0 DUP3 DUP3 DUP7 PUSH2 0x40FB JUMP JUMPDEST SWAP8 SWAP7 POP POP POP POP POP POP POP JUMP JUMPDEST PUSH1 0x0 PUSH4 0xF9CF051F PUSH1 0xE0 SHL DUP9 DUP9 DUP9 DUP9 DUP9 DUP9 DUP9 PUSH1 0x40 MLOAD PUSH1 0x24 ADD PUSH2 0x3CD2 SWAP8 SWAP7 SWAP6 SWAP5 SWAP4 SWAP3 SWAP2 SWAP1 PUSH2 0x5249 JUMP JUMPDEST PUSH1 0x40 MLOAD PUSH1 0x20 DUP2 DUP4 SUB SUB DUP2 MSTORE SWAP1 PUSH1 0x40 MSTORE SWAP1 PUSH28 0xFFFFFFFFFFFFFFFFFFFFFFFFFFFFFFFFFFFFFFFFFFFFFFFFFFFFFFFF NOT AND PUSH1 0x20 DUP3 ADD DUP1 MLOAD PUSH28 0xFFFFFFFFFFFFFFFFFFFFFFFFFFFFFFFFFFFFFFFFFFFFFFFFFFFFFFFF DUP4 DUP2 DUP4 AND OR DUP4 MSTORE POP POP POP POP SWAP1 POP PUSH1 0x0 DUP1 DUP11 PUSH1 0x1 PUSH1 0x1 PUSH1 0xA0 SHL SUB AND DUP4 PUSH1 0x40 MLOAD PUSH2 0x3D4C SWAP2 SWAP1 PUSH2 0x4F48 JUMP JUMPDEST PUSH1 0x0 PUSH1 0x40 MLOAD DUP1 DUP4 SUB DUP2 DUP6 GAS DELEGATECALL SWAP2 POP POP RETURNDATASIZE DUP1 PUSH1 0x0 DUP2 EQ PUSH2 0x3D87 JUMPI PUSH1 0x40 MLOAD SWAP2 POP PUSH1 0x1F NOT PUSH1 0x3F RETURNDATASIZE ADD AND DUP3 ADD PUSH1 0x40 MSTORE RETURNDATASIZE DUP3 MSTORE RETURNDATASIZE PUSH1 0x0 PUSH1 0x20 DUP5 ADD RETURNDATACOPY PUSH2 0x3D8C JUMP JUMPDEST PUSH1 0x60 SWAP2 POP JUMPDEST POP SWAP2 POP SWAP2 POP PUSH2 0x3DD1 DUP3 DUP3 PUSH1 0x40 MLOAD DUP1 PUSH1 0x40 ADD PUSH1 0x40 MSTORE DUP1 PUSH1 0x14 DUP2 MSTORE PUSH1 0x20 ADD PUSH32 0x4252494447455F43414C4C5F5245564552544544000000000000000000000000 DUP2 MSTORE POP PUSH2 0x40FB JUMP JUMPDEST POP POP POP POP POP POP POP POP POP POP POP POP JUMP JUMPDEST PUSH1 0x60 DUP1 PUSH1 0x0 DUP1 PUSH4 0xA9A80D26 PUSH1 0xE0 SHL DUP9 DUP9 DUP9 DUP9 PUSH1 0x40 MLOAD PUSH1 0x24 ADD PUSH2 0x3E04 SWAP5 SWAP4 SWAP3 SWAP2 SWAP1 PUSH2 0x50D4 JUMP JUMPDEST PUSH1 0x40 MLOAD PUSH1 0x20 DUP2 DUP4 SUB SUB DUP2 MSTORE SWAP1 PUSH1 0x40 MSTORE SWAP1 PUSH28 0xFFFFFFFFFFFFFFFFFFFFFFFFFFFFFFFFFFFFFFFFFFFFFFFFFFFFFFFF NOT AND PUSH1 0x20 DUP3 ADD DUP1 MLOAD PUSH28 0xFFFFFFFFFFFFFFFFFFFFFFFFFFFFFFFFFFFFFFFFFFFFFFFFFFFFFFFF DUP4 DUP2 DUP4 AND OR DUP4 MSTORE POP POP POP POP SWAP1 POP PUSH1 0x0 DUP1 DUP11 PUSH1 0x1 PUSH1 0x1 PUSH1 0xA0 SHL SUB AND DUP4 PUSH1 0x40 MLOAD PUSH2 0x3E7E SWAP2 SWAP1 PUSH2 0x4F48 JUMP JUMPDEST PUSH1 0x0 PUSH1 0x40 MLOAD DUP1 DUP4 SUB DUP2 DUP6 GAS DELEGATECALL SWAP2 POP POP RETURNDATASIZE DUP1 PUSH1 0x0 DUP2 EQ PUSH2 0x3EB9 JUMPI PUSH1 0x40 MLOAD SWAP2 POP PUSH1 0x1F NOT PUSH1 0x3F RETURNDATASIZE ADD AND DUP3 ADD PUSH1 0x40 MSTORE RETURNDATASIZE DUP3 MSTORE RETURNDATASIZE PUSH1 0x0 PUSH1 0x20 DUP5 ADD RETURNDATACOPY PUSH2 0x3EBE JUMP JUMPDEST PUSH1 0x60 SWAP2 POP JUMPDEST POP SWAP2 POP SWAP2 POP PUSH2 0x30A7 DUP3 DUP3 PUSH1 0x40 MLOAD DUP1 PUSH1 0x40 ADD PUSH1 0x40 MSTORE DUP1 PUSH1 0x12 DUP2 MSTORE PUSH1 0x20 ADD PUSH32 0x455849545F43414C4C5F52455645525445440000000000000000000000000000 DUP2 MSTORE POP PUSH2 0x40FB JUMP JUMPDEST PUSH1 0x0 DUP2 PUSH2 0x3F52 JUMPI PUSH1 0x40 MLOAD PUSH3 0x461BCD PUSH1 0xE5 SHL DUP2 MSTORE PUSH1 0x20 PUSH1 0x4 DUP3 ADD MSTORE PUSH1 0xD PUSH1 0x24 DUP3 ADD MSTORE PUSH32 0x5A45524F5F4449564953494F4E00000000000000000000000000000000000000 PUSH1 0x44 DUP3 ADD MSTORE PUSH1 0x64 ADD PUSH2 0xA6A JUMP JUMPDEST DUP3 PUSH2 0x3F5F JUMPI POP PUSH1 0x0 PUSH2 0x1BB7 JUMP JUMPDEST PUSH8 0xDE0B6B3A7640000 DUP4 DUP2 MUL SWAP1 DUP5 DUP3 DUP2 PUSH2 0x3F89 JUMPI PUSH4 0x4E487B71 PUSH1 0xE0 SHL PUSH1 0x0 MSTORE PUSH1 0x12 PUSH1 0x4 MSTORE PUSH1 0x24 PUSH1 0x0 REVERT JUMPDEST DIV EQ PUSH2 0x3FD7 JUMPI PUSH1 0x40 MLOAD PUSH3 0x461BCD PUSH1 0xE5 SHL DUP2 MSTORE PUSH1 0x20 PUSH1 0x4 DUP3 ADD MSTORE PUSH1 0xC PUSH1 0x24 DUP3 ADD MSTORE PUSH32 0x4449565F494E5445524E414C0000000000000000000000000000000000000000 PUSH1 0x44 DUP3 ADD MSTORE PUSH1 0x64 ADD PUSH2 0xA6A JUMP JUMPDEST DUP3 PUSH1 0x1 DUP3 SUB DUP2 PUSH2 0x3FF7 JUMPI PUSH4 0x4E487B71 PUSH1 0xE0 SHL PUSH1 0x0 MSTORE PUSH1 0x12 PUSH1 0x4 MSTORE PUSH1 0x24 PUSH1 0x0 REVERT JUMPDEST DIV PUSH1 0x1 ADD SWAP2 POP POP SWAP3 SWAP2 POP POP JUMP JUMPDEST PUSH2 0x400D DUP2 PUSH2 0x4134 JUMP JUMPDEST PUSH1 0x4 DUP1 SLOAD PUSH32 0xFFFFFFFFFFFFFFFFFFFFFFFF0000000000000000000000000000000000000000 AND PUSH1 0x1 PUSH1 0x1 PUSH1 0xA0 SHL SUB DUP4 AND SWAP1 DUP2 OR SWAP1 SWAP2 SSTORE PUSH1 0x40 MLOAD PUSH32 0x68817DF76A175BA84BEEB646224C32929B792A33280E3F4BC3E8089552EDAA60 SWAP1 PUSH1 0x0 SWAP1 LOG2 POP JUMP JUMPDEST PUSH1 0x0 DUP3 DUP3 MUL DUP4 ISZERO DUP1 PUSH2 0x409D JUMPI POP DUP3 DUP5 DUP3 DUP2 PUSH2 0x409A JUMPI PUSH4 0x4E487B71 PUSH1 0xE0 SHL PUSH1 0x0 MSTORE PUSH1 0x12 PUSH1 0x4 MSTORE PUSH1 0x24 PUSH1 0x0 REVERT JUMPDEST DIV EQ JUMPDEST PUSH2 0x40E9 JUMPI PUSH1 0x40 MLOAD PUSH3 0x461BCD PUSH1 0xE5 SHL DUP2 MSTORE PUSH1 0x20 PUSH1 0x4 DUP3 ADD MSTORE PUSH1 0xC PUSH1 0x24 DUP3 ADD MSTORE PUSH32 0x4D554C5F4F564552464C4F570000000000000000000000000000000000000000 PUSH1 0x44 DUP3 ADD MSTORE PUSH1 0x64 ADD PUSH2 0xA6A JUMP JUMPDEST PUSH8 0xDE0B6B3A7640000 SWAP1 DIV SWAP4 SWAP3 POP POP POP JUMP JUMPDEST PUSH1 0x60 DUP4 ISZERO PUSH2 0x410A JUMPI POP DUP2 PUSH2 0x1C99 JUMP JUMPDEST DUP3 MLOAD ISZERO PUSH2 0x411A JUMPI DUP3 MLOAD DUP1 DUP5 PUSH1 0x20 ADD REVERT JUMPDEST DUP2 PUSH1 0x40 MLOAD PUSH3 0x461BCD PUSH1 0xE5 SHL DUP2 MSTORE PUSH1 0x4 ADD PUSH2 0xA6A SWAP2 SWAP1 PUSH2 0x5113 JUMP JUMPDEST PUSH2 0x413D DUP2 PUSH2 0x444F JUMP JUMPDEST PUSH2 0x162C JUMPI PUSH1 0x40 MLOAD PUSH3 0x461BCD PUSH1 0xE5 SHL DUP2 MSTORE PUSH1 0x20 PUSH1 0x4 DUP3 ADD MSTORE PUSH1 0x18 PUSH1 0x24 DUP3 ADD MSTORE PUSH32 0x444550454E44454E43595F4E4F545F53544154454C4553530000000000000000 PUSH1 0x44 DUP3 ADD MSTORE PUSH1 0x64 ADD PUSH2 0xA6A JUMP JUMPDEST PUSH1 0x0 PUSH2 0x41DE DUP3 PUSH1 0x40 MLOAD DUP1 PUSH1 0x40 ADD PUSH1 0x40 MSTORE DUP1 PUSH1 0x20 DUP2 MSTORE PUSH1 0x20 ADD PUSH32 0x5361666545524332303A206C6F772D6C6576656C2063616C6C206661696C6564 DUP2 MSTORE POP DUP6 PUSH1 0x1 PUSH1 0x1 PUSH1 0xA0 SHL SUB AND PUSH2 0x45B5 SWAP1 SWAP3 SWAP2 SWAP1 PUSH4 0xFFFFFFFF AND JUMP JUMPDEST DUP1 MLOAD SWAP1 SWAP2 POP ISZERO PUSH2 0x18C6 JUMPI DUP1 DUP1 PUSH1 0x20 ADD SWAP1 MLOAD DUP2 ADD SWAP1 PUSH2 0x41FC SWAP2 SWAP1 PUSH2 0x4C71 JUMP JUMPDEST PUSH2 0x18C6 JUMPI PUSH1 0x40 MLOAD PUSH3 0x461BCD PUSH1 0xE5 SHL DUP2 MSTORE PUSH1 0x20 PUSH1 0x4 DUP3 ADD MSTORE PUSH1 0x2A PUSH1 0x24 DUP3 ADD MSTORE PUSH32 0x5361666545524332303A204552433230206F7065726174696F6E20646964206E PUSH1 0x44 DUP3 ADD MSTORE PUSH32 0x6F74207375636365656400000000000000000000000000000000000000000000 PUSH1 0x64 DUP3 ADD MSTORE PUSH1 0x84 ADD PUSH2 0xA6A JUMP JUMPDEST DUP1 SELFBALANCE LT ISZERO PUSH2 0x42BE JUMPI PUSH1 0x40 MLOAD PUSH3 0x461BCD PUSH1 0xE5 SHL DUP2 MSTORE PUSH1 0x20 PUSH1 0x4 DUP3 ADD MSTORE PUSH1 0x1D PUSH1 0x24 DUP3 ADD MSTORE PUSH32 0x416464726573733A20696E73756666696369656E742062616C616E6365000000 PUSH1 0x44 DUP3 ADD MSTORE PUSH1 0x64 ADD PUSH2 0xA6A JUMP JUMPDEST PUSH1 0x0 DUP3 PUSH1 0x1 PUSH1 0x1 PUSH1 0xA0 SHL SUB AND DUP3 PUSH1 0x40 MLOAD PUSH1 0x0 PUSH1 0x40 MLOAD DUP1 DUP4 SUB DUP2 DUP6 DUP8 GAS CALL SWAP3 POP POP POP RETURNDATASIZE DUP1 PUSH1 0x0 DUP2 EQ PUSH2 0x430B JUMPI PUSH1 0x40 MLOAD SWAP2 POP PUSH1 0x1F NOT PUSH1 0x3F RETURNDATASIZE ADD AND DUP3 ADD PUSH1 0x40 MSTORE RETURNDATASIZE DUP3 MSTORE RETURNDATASIZE PUSH1 0x0 PUSH1 0x20 DUP5 ADD RETURNDATACOPY PUSH2 0x4310 JUMP JUMPDEST PUSH1 0x60 SWAP2 POP JUMPDEST POP POP SWAP1 POP DUP1 PUSH2 0x18C6 JUMPI PUSH1 0x40 MLOAD PUSH3 0x461BCD PUSH1 0xE5 SHL DUP2 MSTORE PUSH1 0x20 PUSH1 0x4 DUP3 ADD MSTORE PUSH1 0x3A PUSH1 0x24 DUP3 ADD MSTORE PUSH32 0x416464726573733A20756E61626C6520746F2073656E642076616C75652C2072 PUSH1 0x44 DUP3 ADD MSTORE PUSH32 0x6563697069656E74206D61792068617665207265766572746564000000000000 PUSH1 0x64 DUP3 ADD MSTORE PUSH1 0x84 ADD PUSH2 0xA6A JUMP JUMPDEST PUSH1 0x40 MLOAD PUSH1 0x1 PUSH1 0x1 PUSH1 0xA0 SHL SUB DUP4 AND PUSH1 0x24 DUP3 ADD MSTORE PUSH1 0x44 DUP2 ADD DUP3 SWAP1 MSTORE PUSH2 0x18C6 SWAP1 DUP5 SWAP1 PUSH32 0xA9059CBB00000000000000000000000000000000000000000000000000000000 SWAP1 PUSH1 0x64 ADD PUSH2 0x3504 JUMP JUMPDEST PUSH1 0x0 SLOAD PUSH2 0x100 SWAP1 DIV PUSH1 0xFF AND PUSH2 0x444D JUMPI PUSH1 0x40 MLOAD PUSH3 0x461BCD PUSH1 0xE5 SHL DUP2 MSTORE PUSH1 0x20 PUSH1 0x4 DUP3 ADD MSTORE PUSH1 0x2B PUSH1 0x24 DUP3 ADD MSTORE PUSH32 0x496E697469616C697A61626C653A20636F6E7472616374206973206E6F742069 PUSH1 0x44 DUP3 ADD MSTORE PUSH32 0x6E697469616C697A696E67000000000000000000000000000000000000000000 PUSH1 0x64 DUP3 ADD MSTORE PUSH1 0x84 ADD PUSH2 0xA6A JUMP JUMPDEST JUMP JUMPDEST PUSH1 0x40 MLOAD PUSH32 0x9235DCF800000000000000000000000000000000000000000000000000000000 DUP2 MSTORE PUSH1 0x1 PUSH1 0x1 PUSH1 0xA0 SHL SUB DUP3 DUP2 AND PUSH1 0x4 DUP4 ADD MSTORE PUSH1 0x0 SWAP2 DUP3 SWAP2 DUP3 SWAP2 DUP3 SWAP2 PUSH32 0x0 AND SWAP1 PUSH4 0x9235DCF8 SWAP1 PUSH1 0x24 ADD PUSH1 0x60 PUSH1 0x40 MLOAD DUP1 DUP4 SUB DUP2 DUP7 DUP1 EXTCODESIZE ISZERO DUP1 ISZERO PUSH2 0x44D2 JUMPI PUSH1 0x0 DUP1 REVERT JUMPDEST POP GAS STATICCALL ISZERO DUP1 ISZERO PUSH2 0x44E6 JUMPI RETURNDATASIZE PUSH1 0x0 DUP1 RETURNDATACOPY RETURNDATASIZE PUSH1 0x0 REVERT JUMPDEST POP POP POP POP PUSH1 0x40 MLOAD RETURNDATASIZE PUSH1 0x1F NOT PUSH1 0x1F DUP3 ADD AND DUP3 ADD DUP1 PUSH1 0x40 MSTORE POP DUP2 ADD SWAP1 PUSH2 0x450A SWAP2 SWAP1 PUSH2 0x4C8D JUMP JUMPDEST SWAP2 SWAP5 POP SWAP3 POP SWAP1 POP DUP1 PUSH2 0x455E JUMPI PUSH1 0x40 MLOAD PUSH3 0x461BCD PUSH1 0xE5 SHL DUP2 MSTORE PUSH1 0x20 PUSH1 0x4 DUP3 ADD MSTORE PUSH1 0x19 PUSH1 0x24 DUP3 ADD MSTORE PUSH32 0x444550454E44454E43595F4E4F545F5245474953544552454400000000000000 PUSH1 0x44 DUP3 ADD MSTORE PUSH1 0x64 ADD PUSH2 0xA6A JUMP JUMPDEST DUP2 ISZERO PUSH2 0x45AC JUMPI PUSH1 0x40 MLOAD PUSH3 0x461BCD PUSH1 0xE5 SHL DUP2 MSTORE PUSH1 0x20 PUSH1 0x4 DUP3 ADD MSTORE PUSH1 0x15 PUSH1 0x24 DUP3 ADD MSTORE PUSH32 0x444550454E44454E43595F444550524543415445440000000000000000000000 PUSH1 0x44 DUP3 ADD MSTORE PUSH1 0x64 ADD PUSH2 0xA6A JUMP JUMPDEST POP SWAP1 SWAP4 SWAP3 POP POP POP JUMP JUMPDEST PUSH1 0x60 PUSH2 0x318D DUP5 DUP5 PUSH1 0x0 DUP6 PUSH2 0x3B63 JUMP JUMPDEST PUSH1 0x0 DUP3 PUSH1 0x1F DUP4 ADD SLT PUSH2 0x45D4 JUMPI DUP1 DUP2 REVERT JUMPDEST DUP2 CALLDATALOAD PUSH1 0x20 PUSH2 0x45E9 PUSH2 0x45E4 DUP4 PUSH2 0x52EC JUMP JUMPDEST PUSH2 0x529D JUMP JUMPDEST DUP1 DUP4 DUP3 MSTORE DUP3 DUP3 ADD SWAP2 POP DUP3 DUP7 ADD DUP8 DUP5 DUP7 PUSH1 0x5 SHL DUP10 ADD ADD GT ISZERO PUSH2 0x4608 JUMPI DUP6 DUP7 REVERT JUMPDEST DUP6 JUMPDEST DUP6 DUP2 LT ISZERO PUSH2 0x462F JUMPI DUP2 CALLDATALOAD PUSH2 0x461D DUP2 PUSH2 0x53F4 JUMP JUMPDEST DUP5 MSTORE SWAP3 DUP5 ADD SWAP3 SWAP1 DUP5 ADD SWAP1 PUSH1 0x1 ADD PUSH2 0x460A JUMP JUMPDEST POP SWAP1 SWAP8 SWAP7 POP POP POP POP POP POP POP JUMP JUMPDEST PUSH1 0x0 DUP3 PUSH1 0x1F DUP4 ADD SLT PUSH2 0x464C JUMPI DUP1 DUP2 REVERT JUMPDEST DUP2 MLOAD PUSH1 0x20 PUSH2 0x465C PUSH2 0x45E4 DUP4 PUSH2 0x52EC JUMP JUMPDEST DUP1 DUP4 DUP3 MSTORE DUP3 DUP3 ADD SWAP2 POP DUP3 DUP7 ADD DUP8 DUP5 DUP7 PUSH1 0x5 SHL DUP10 ADD ADD GT ISZERO PUSH2 0x467B JUMPI DUP6 DUP7 REVERT JUMPDEST DUP6 JUMPDEST DUP6 DUP2 LT ISZERO PUSH2 0x462F JUMPI DUP2 MLOAD PUSH2 0x4690 DUP2 PUSH2 0x53F4 JUMP JUMPDEST DUP5 MSTORE SWAP3 DUP5 ADD SWAP3 SWAP1 DUP5 ADD SWAP1 PUSH1 0x1 ADD PUSH2 0x467D JUMP JUMPDEST PUSH1 0x0 DUP3 PUSH1 0x1F DUP4 ADD SLT PUSH2 0x46B2 JUMPI DUP1 DUP2 REVERT JUMPDEST DUP2 MLOAD PUSH1 0x20 PUSH2 0x46C2 PUSH2 0x45E4 DUP4 PUSH2 0x52EC JUMP JUMPDEST DUP1 DUP4 DUP3 MSTORE DUP3 DUP3 ADD SWAP2 POP DUP3 DUP7 ADD DUP8 DUP5 DUP7 PUSH1 0x5 SHL DUP10 ADD ADD GT ISZERO PUSH2 0x46E1 JUMPI DUP6 DUP7 REVERT JUMPDEST DUP6 JUMPDEST DUP6 DUP2 LT ISZERO PUSH2 0x462F JUMPI DUP2 MLOAD DUP5 MSTORE SWAP3 DUP5 ADD SWAP3 SWAP1 DUP5 ADD SWAP1 PUSH1 0x1 ADD PUSH2 0x46E3 JUMP JUMPDEST PUSH1 0x0 DUP3 PUSH1 0x1F DUP4 ADD SLT PUSH2 0x470F JUMPI DUP1 DUP2 REVERT JUMPDEST DUP2 CALLDATALOAD PUSH8 0xFFFFFFFFFFFFFFFF DUP2 GT ISZERO PUSH2 0x4729 JUMPI PUSH2 0x4729 PUSH2 0x53DE JUMP JUMPDEST PUSH2 0x475A PUSH1 0x20 PUSH32 0xFFFFFFFFFFFFFFFFFFFFFFFFFFFFFFFFFFFFFFFFFFFFFFFFFFFFFFFFFFFFFFE0 PUSH1 0x1F DUP5 ADD AND ADD PUSH2 0x529D JUMP JUMPDEST DUP2 DUP2 MSTORE DUP5 PUSH1 0x20 DUP4 DUP7 ADD ADD GT ISZERO PUSH2 0x476E JUMPI DUP3 DUP4 REVERT JUMPDEST DUP2 PUSH1 0x20 DUP6 ADD PUSH1 0x20 DUP4 ADD CALLDATACOPY SWAP1 DUP2 ADD PUSH1 0x20 ADD SWAP2 SWAP1 SWAP2 MSTORE SWAP3 SWAP2 POP POP JUMP JUMPDEST DUP1 CALLDATALOAD PUSH1 0xFF DUP2 AND DUP2 EQ PUSH2 0x1E9E JUMPI PUSH1 0x0 DUP1 REVERT JUMPDEST PUSH1 0x0 PUSH1 0x20 DUP3 DUP5 SUB SLT ISZERO PUSH2 0x47AA JUMPI DUP1 DUP2 REVERT JUMPDEST DUP2 CALLDATALOAD PUSH2 0x1C99 DUP2 PUSH2 0x53F4 JUMP JUMPDEST PUSH1 0x0 DUP1 PUSH1 0x40 DUP4 DUP6 SUB SLT ISZERO PUSH2 0x47C7 JUMPI DUP1 DUP2 REVERT JUMPDEST DUP3 CALLDATALOAD PUSH2 0x47D2 DUP2 PUSH2 0x53F4 JUMP JUMPDEST SWAP2 POP PUSH1 0x20 DUP4 ADD CALLDATALOAD PUSH2 0x47E2 DUP2 PUSH2 0x53F4 JUMP JUMPDEST DUP1 SWAP2 POP POP SWAP3 POP SWAP3 SWAP1 POP JUMP JUMPDEST PUSH1 0x0 DUP1 PUSH1 0x0 PUSH1 0x60 DUP5 DUP7 SUB SLT ISZERO PUSH2 0x4801 JUMPI DUP1 DUP2 REVERT JUMPDEST DUP4 CALLDATALOAD PUSH2 0x480C DUP2 PUSH2 0x53F4 JUMP JUMPDEST SWAP3 POP PUSH1 0x20 DUP5 ADD CALLDATALOAD PUSH2 0x481C DUP2 PUSH2 0x53F4 JUMP JUMPDEST SWAP2 POP PUSH1 0x40 DUP5 ADD CALLDATALOAD PUSH2 0x482C DUP2 PUSH2 0x53F4 JUMP JUMPDEST DUP1 SWAP2 POP POP SWAP3 POP SWAP3 POP SWAP3 JUMP JUMPDEST PUSH1 0x0 DUP1 PUSH1 0x0 DUP1 PUSH1 0x80 DUP6 DUP8 SUB SLT ISZERO PUSH2 0x484C JUMPI DUP1 DUP2 REVERT JUMPDEST DUP5 CALLDATALOAD PUSH2 0x4857 DUP2 PUSH2 0x53F4 JUMP JUMPDEST SWAP4 POP PUSH1 0x20 DUP6 ADD CALLDATALOAD PUSH2 0x4867 DUP2 PUSH2 0x53F4 JUMP JUMPDEST SWAP3 POP PUSH1 0x40 DUP6 ADD CALLDATALOAD SWAP2 POP PUSH1 0x60 DUP6 ADD CALLDATALOAD PUSH8 0xFFFFFFFFFFFFFFFF DUP2 GT ISZERO PUSH2 0x4889 JUMPI DUP2 DUP3 REVERT JUMPDEST PUSH2 0x4895 DUP8 DUP3 DUP9 ADD PUSH2 0x46FF JUMP JUMPDEST SWAP2 POP POP SWAP3 SWAP6 SWAP2 SWAP5 POP SWAP3 POP JUMP JUMPDEST PUSH1 0x0 DUP1 PUSH1 0x0 DUP1 PUSH1 0x0 PUSH1 0xA0 DUP7 DUP9 SUB SLT ISZERO PUSH2 0x48B8 JUMPI DUP3 DUP4 REVERT JUMPDEST DUP6 CALLDATALOAD PUSH2 0x48C3 DUP2 PUSH2 0x53F4 JUMP JUMPDEST SWAP5 POP PUSH1 0x20 DUP7 DUP2 ADD CALLDATALOAD PUSH8 0xFFFFFFFFFFFFFFFF DUP1 DUP3 GT ISZERO PUSH2 0x48E0 JUMPI DUP6 DUP7 REVERT JUMPDEST PUSH2 0x48EC DUP11 DUP4 DUP12 ADD PUSH2 0x45C4 JUMP JUMPDEST SWAP7 POP PUSH1 0x40 DUP10 ADD CALLDATALOAD SWAP2 POP DUP1 DUP3 GT ISZERO PUSH2 0x4901 JUMPI DUP6 DUP7 REVERT JUMPDEST DUP2 DUP10 ADD SWAP2 POP DUP10 PUSH1 0x1F DUP4 ADD SLT PUSH2 0x4914 JUMPI DUP6 DUP7 REVERT JUMPDEST DUP2 CALLDATALOAD PUSH2 0x4922 PUSH2 0x45E4 DUP3 PUSH2 0x52EC JUMP JUMPDEST DUP1 DUP3 DUP3 MSTORE DUP6 DUP3 ADD SWAP2 POP DUP6 DUP6 ADD DUP14 DUP8 DUP6 PUSH1 0x5 SHL DUP9 ADD ADD GT ISZERO PUSH2 0x4941 JUMPI DUP10 DUP11 REVERT JUMPDEST DUP10 SWAP6 POP JUMPDEST DUP4 DUP7 LT ISZERO PUSH2 0x4963 JUMPI DUP1 CALLDATALOAD DUP4 MSTORE PUSH1 0x1 SWAP6 SWAP1 SWAP6 ADD SWAP5 SWAP2 DUP7 ADD SWAP2 DUP7 ADD PUSH2 0x4945 JUMP JUMPDEST POP SWAP8 POP POP POP PUSH1 0x60 DUP10 ADD CALLDATALOAD SWAP5 POP PUSH1 0x80 DUP10 ADD CALLDATALOAD SWAP3 POP DUP1 DUP4 GT ISZERO PUSH2 0x4982 JUMPI DUP4 DUP5 REVERT JUMPDEST POP POP PUSH2 0x4990 DUP9 DUP3 DUP10 ADD PUSH2 0x46FF JUMP JUMPDEST SWAP2 POP POP SWAP3 SWAP6 POP SWAP3 SWAP6 SWAP1 SWAP4 POP JUMP JUMPDEST PUSH1 0x0 DUP1 PUSH1 0x40 DUP4 DUP6 SUB SLT ISZERO PUSH2 0x49AF JUMPI DUP2 DUP3 REVERT JUMPDEST DUP3 CALLDATALOAD PUSH2 0x49BA DUP2 PUSH2 0x53F4 JUMP JUMPDEST SWAP2 POP PUSH1 0x20 DUP4 ADD CALLDATALOAD PUSH2 0x47E2 DUP2 PUSH2 0x5409 JUMP JUMPDEST PUSH1 0x0 DUP1 PUSH1 0x40 DUP4 DUP6 SUB SLT ISZERO PUSH2 0x49DC JUMPI DUP2 DUP3 REVERT JUMPDEST DUP3 CALLDATALOAD PUSH2 0x49E7 DUP2 PUSH2 0x53F4 JUMP JUMPDEST SWAP2 POP PUSH1 0x20 DUP4 ADD CALLDATALOAD PUSH32 0xFFFFFFFF00000000000000000000000000000000000000000000000000000000 DUP2 AND DUP2 EQ PUSH2 0x47E2 JUMPI DUP2 DUP3 REVERT JUMPDEST PUSH1 0x0 DUP1 PUSH1 0x40 DUP4 DUP6 SUB SLT ISZERO PUSH2 0x4A2D JUMPI DUP2 DUP3 REVERT JUMPDEST DUP3 CALLDATALOAD PUSH2 0x4A38 DUP2 PUSH2 0x53F4 JUMP JUMPDEST SWAP2 POP PUSH1 0x20 DUP4 ADD CALLDATALOAD PUSH8 0xFFFFFFFFFFFFFFFF DUP2 GT ISZERO PUSH2 0x4A53 JUMPI DUP2 DUP3 REVERT JUMPDEST PUSH2 0x4A5F DUP6 DUP3 DUP7 ADD PUSH2 0x46FF JUMP JUMPDEST SWAP2 POP POP SWAP3 POP SWAP3 SWAP1 POP JUMP JUMPDEST PUSH1 0x0 DUP1 PUSH1 0x0 DUP1 PUSH1 0x80 DUP6 DUP8 SUB SLT ISZERO PUSH2 0x4A7E JUMPI DUP2 DUP3 REVERT JUMPDEST DUP5 CALLDATALOAD PUSH2 0x4A89 DUP2 PUSH2 0x53F4 JUMP JUMPDEST SWAP4 POP PUSH1 0x20 DUP6 ADD CALLDATALOAD PUSH8 0xFFFFFFFFFFFFFFFF DUP1 DUP3 GT ISZERO PUSH2 0x4AA5 JUMPI DUP4 DUP5 REVERT JUMPDEST PUSH2 0x4AB1 DUP9 DUP4 DUP10 ADD PUSH2 0x46FF JUMP JUMPDEST SWAP5 POP PUSH1 0x40 DUP8 ADD CALLDATALOAD SWAP4 POP PUSH1 0x60 DUP8 ADD CALLDATALOAD SWAP2 POP DUP1 DUP3 GT ISZERO PUSH2 0x4ACD JUMPI DUP3 DUP4 REVERT JUMPDEST POP PUSH2 0x4895 DUP8 DUP3 DUP9 ADD PUSH2 0x46FF JUMP JUMPDEST PUSH1 0x0 DUP1 PUSH1 0x0 DUP1 PUSH1 0x80 DUP6 DUP8 SUB SLT ISZERO PUSH2 0x4AEF JUMPI DUP2 DUP3 REVERT JUMPDEST DUP5 CALLDATALOAD PUSH2 0x4AFA DUP2 PUSH2 0x53F4 JUMP JUMPDEST SWAP4 POP PUSH1 0x20 DUP6 ADD CALLDATALOAD SWAP3 POP PUSH1 0x40 DUP6 ADD CALLDATALOAD PUSH2 0x4B11 DUP2 PUSH2 0x53F4 JUMP JUMPDEST SWAP2 POP PUSH1 0x60 DUP6 ADD CALLDATALOAD PUSH8 0xFFFFFFFFFFFFFFFF DUP2 GT ISZERO PUSH2 0x4889 JUMPI DUP2 DUP3 REVERT JUMPDEST PUSH1 0x0 DUP1 PUSH1 0x0 PUSH1 0x60 DUP5 DUP7 SUB SLT ISZERO PUSH2 0x4B40 JUMPI DUP1 DUP2 REVERT JUMPDEST DUP4 CALLDATALOAD PUSH8 0xFFFFFFFFFFFFFFFF DUP1 DUP3 GT ISZERO PUSH2 0x4B57 JUMPI DUP3 DUP4 REVERT JUMPDEST PUSH2 0x4B63 DUP8 DUP4 DUP9 ADD PUSH2 0x45C4 JUMP JUMPDEST SWAP5 POP PUSH1 0x20 DUP7 ADD CALLDATALOAD SWAP2 POP DUP1 DUP3 GT ISZERO PUSH2 0x4B78 JUMPI DUP3 DUP4 REVERT JUMPDEST PUSH2 0x4B84 DUP8 DUP4 DUP9 ADD PUSH2 0x45C4 JUMP JUMPDEST SWAP4 POP PUSH1 0x40 DUP7 ADD CALLDATALOAD SWAP2 POP DUP1 DUP3 GT ISZERO PUSH2 0x4B99 JUMPI DUP3 DUP4 REVERT JUMPDEST POP PUSH2 0x4BA6 DUP7 DUP3 DUP8 ADD PUSH2 0x45C4 JUMP JUMPDEST SWAP2 POP POP SWAP3 POP SWAP3 POP SWAP3 JUMP JUMPDEST PUSH1 0x0 DUP1 PUSH1 0x40 DUP4 DUP6 SUB SLT ISZERO PUSH2 0x4BC2 JUMPI DUP2 DUP3 REVERT JUMPDEST DUP3 MLOAD PUSH8 0xFFFFFFFFFFFFFFFF DUP1 DUP3 GT ISZERO PUSH2 0x4BD9 JUMPI DUP4 DUP5 REVERT JUMPDEST PUSH2 0x4BE5 DUP7 DUP4 DUP8 ADD PUSH2 0x463C JUMP JUMPDEST SWAP4 POP PUSH1 0x20 DUP6 ADD MLOAD SWAP2 POP DUP1 DUP3 GT ISZERO PUSH2 0x4BFA JUMPI DUP3 DUP4 REVERT JUMPDEST POP PUSH2 0x4A5F DUP6 DUP3 DUP7 ADD PUSH2 0x46A2 JUMP JUMPDEST PUSH1 0x0 DUP1 PUSH1 0x0 PUSH1 0x60 DUP5 DUP7 SUB SLT ISZERO PUSH2 0x4C1B JUMPI DUP1 DUP2 REVERT JUMPDEST DUP4 MLOAD PUSH8 0xFFFFFFFFFFFFFFFF DUP1 DUP3 GT ISZERO PUSH2 0x4C32 JUMPI DUP3 DUP4 REVERT JUMPDEST PUSH2 0x4C3E DUP8 DUP4 DUP9 ADD PUSH2 0x463C JUMP JUMPDEST SWAP5 POP PUSH1 0x20 DUP7 ADD MLOAD SWAP2 POP DUP1 DUP3 GT ISZERO PUSH2 0x4C53 JUMPI DUP3 DUP4 REVERT JUMPDEST POP PUSH2 0x4C60 DUP7 DUP3 DUP8 ADD PUSH2 0x46A2 JUMP JUMPDEST SWAP3 POP POP PUSH1 0x40 DUP5 ADD MLOAD SWAP1 POP SWAP3 POP SWAP3 POP SWAP3 JUMP JUMPDEST PUSH1 0x0 PUSH1 0x20 DUP3 DUP5 SUB SLT ISZERO PUSH2 0x4C82 JUMPI DUP1 DUP2 REVERT JUMPDEST DUP2 MLOAD PUSH2 0x1C99 DUP2 PUSH2 0x5409 JUMP JUMPDEST PUSH1 0x0 DUP1 PUSH1 0x0 PUSH1 0x60 DUP5 DUP7 SUB SLT ISZERO PUSH2 0x4CA1 JUMPI DUP1 DUP2 REVERT JUMPDEST DUP4 MLOAD PUSH2 0x4CAC DUP2 PUSH2 0x5409 JUMP JUMPDEST PUSH1 0x20 DUP6 ADD MLOAD SWAP1 SWAP4 POP PUSH2 0x4CBD DUP2 PUSH2 0x5409 JUMP JUMPDEST DUP1 SWAP3 POP POP PUSH1 0x40 DUP5 ADD MLOAD SWAP1 POP SWAP3 POP SWAP3 POP SWAP3 JUMP JUMPDEST PUSH1 0x0 PUSH1 0x20 DUP3 DUP5 SUB SLT ISZERO PUSH2 0x4CE0 JUMPI DUP1 DUP2 REVERT JUMPDEST POP MLOAD SWAP2 SWAP1 POP JUMP JUMPDEST PUSH1 0x0 DUP1 PUSH1 0x40 DUP4 DUP6 SUB SLT ISZERO PUSH2 0x4CF9 JUMPI DUP2 DUP3 REVERT JUMPDEST DUP3 CALLDATALOAD SWAP2 POP PUSH1 0x20 DUP4 ADD CALLDATALOAD PUSH8 0xFFFFFFFFFFFFFFFF DUP2 GT ISZERO PUSH2 0x4A53 JUMPI DUP2 DUP3 REVERT JUMPDEST PUSH1 0x0 DUP1 PUSH1 0x0 DUP1 PUSH1 0x80 DUP6 DUP8 SUB SLT ISZERO PUSH2 0x4D2B JUMPI DUP2 DUP3 REVERT JUMPDEST DUP5 CALLDATALOAD SWAP4 POP PUSH1 0x20 DUP6 ADD CALLDATALOAD SWAP3 POP PUSH1 0x40 DUP6 ADD CALLDATALOAD PUSH2 0x4D44 DUP2 PUSH2 0x53F4 JUMP JUMPDEST SWAP4 SWAP7 SWAP3 SWAP6 POP SWAP3 SWAP4 PUSH1 0x60 ADD CALLDATALOAD SWAP3 POP POP JUMP JUMPDEST PUSH1 0x0 DUP1 PUSH1 0x0 DUP1 PUSH1 0x0 DUP1 PUSH1 0x0 PUSH1 0xE0 DUP9 DUP11 SUB SLT ISZERO PUSH2 0x4D6E JUMPI DUP5 DUP6 REVERT JUMPDEST PUSH2 0x4D77 DUP9 PUSH2 0x4788 JUMP JUMPDEST SWAP7 POP PUSH1 0x20 DUP9 ADD CALLDATALOAD PUSH2 0x4D87 DUP2 PUSH2 0x53F4 JUMP JUMPDEST SWAP6 POP PUSH1 0x40 DUP9 ADD CALLDATALOAD PUSH2 0x4D97 DUP2 PUSH2 0x53F4 JUMP JUMPDEST SWAP5 POP PUSH1 0x60 DUP9 ADD CALLDATALOAD SWAP4 POP PUSH1 0x80 DUP9 ADD CALLDATALOAD PUSH2 0x4DAE DUP2 PUSH2 0x5417 JUMP JUMPDEST SWAP3 POP PUSH1 0xA0 DUP9 ADD CALLDATALOAD SWAP2 POP PUSH1 0xC0 DUP9 ADD CALLDATALOAD PUSH8 0xFFFFFFFFFFFFFFFF DUP2 GT ISZERO PUSH2 0x4DD0 JUMPI DUP2 DUP3 REVERT JUMPDEST PUSH2 0x4DDC DUP11 DUP3 DUP12 ADD PUSH2 0x46FF JUMP JUMPDEST SWAP2 POP POP SWAP3 SWAP6 SWAP9 SWAP2 SWAP5 SWAP8 POP SWAP3 SWAP6 POP JUMP JUMPDEST PUSH1 0x0 DUP1 PUSH1 0x0 DUP1 PUSH1 0x0 DUP1 PUSH1 0x0 DUP1 PUSH2 0x100 DUP10 DUP12 SUB SLT ISZERO PUSH2 0x4E07 JUMPI DUP2 DUP3 REVERT JUMPDEST PUSH2 0x4E10 DUP10 PUSH2 0x4788 JUMP JUMPDEST SWAP8 POP PUSH1 0x20 DUP10 ADD CALLDATALOAD SWAP7 POP PUSH1 0x40 DUP10 ADD CALLDATALOAD PUSH2 0x4E27 DUP2 PUSH2 0x53F4 JUMP JUMPDEST SWAP6 POP PUSH1 0x60 DUP10 ADD CALLDATALOAD SWAP5 POP PUSH1 0x80 DUP10 ADD CALLDATALOAD PUSH2 0x4E3E DUP2 PUSH2 0x5417 JUMP JUMPDEST SWAP4 POP PUSH1 0xA0 DUP10 ADD CALLDATALOAD SWAP3 POP PUSH1 0xC0 DUP10 ADD CALLDATALOAD PUSH2 0x4E55 DUP2 PUSH2 0x53F4 JUMP JUMPDEST SWAP2 POP PUSH1 0xE0 DUP10 ADD CALLDATALOAD PUSH8 0xFFFFFFFFFFFFFFFF DUP2 GT ISZERO PUSH2 0x4E70 JUMPI DUP2 DUP3 REVERT JUMPDEST PUSH2 0x4E7C DUP12 DUP3 DUP13 ADD PUSH2 0x46FF JUMP JUMPDEST SWAP2 POP POP SWAP3 SWAP6 SWAP9 POP SWAP3 SWAP6 SWAP9 SWAP1 SWAP4 SWAP7 POP JUMP JUMPDEST PUSH1 0x0 DUP2 MLOAD DUP1 DUP5 MSTORE PUSH1 0x20 DUP1 DUP6 ADD SWAP5 POP DUP1 DUP5 ADD DUP4 JUMPDEST DUP4 DUP2 LT ISZERO PUSH2 0x4EC4 JUMPI DUP2 MLOAD PUSH1 0x1 PUSH1 0x1 PUSH1 0xA0 SHL SUB AND DUP8 MSTORE SWAP6 DUP3 ADD SWAP6 SWAP1 DUP3 ADD SWAP1 PUSH1 0x1 ADD PUSH2 0x4E9F JUMP JUMPDEST POP SWAP5 SWAP6 SWAP5 POP POP POP POP POP JUMP JUMPDEST PUSH1 0x0 DUP2 MLOAD DUP1 DUP5 MSTORE PUSH1 0x20 DUP1 DUP6 ADD SWAP5 POP DUP1 DUP5 ADD DUP4 JUMPDEST DUP4 DUP2 LT ISZERO PUSH2 0x4EC4 JUMPI DUP2 MLOAD DUP8 MSTORE SWAP6 DUP3 ADD SWAP6 SWAP1 DUP3 ADD SWAP1 PUSH1 0x1 ADD PUSH2 0x4EE2 JUMP JUMPDEST PUSH1 0x0 DUP2 MLOAD DUP1 DUP5 MSTORE PUSH2 0x4F16 DUP2 PUSH1 0x20 DUP7 ADD PUSH1 0x20 DUP7 ADD PUSH2 0x539C JUMP JUMPDEST PUSH1 0x1F ADD PUSH32 0xFFFFFFFFFFFFFFFFFFFFFFFFFFFFFFFFFFFFFFFFFFFFFFFFFFFFFFFFFFFFFFE0 AND SWAP3 SWAP1 SWAP3 ADD PUSH1 0x20 ADD SWAP3 SWAP2 POP POP JUMP JUMPDEST PUSH1 0x0 DUP3 MLOAD PUSH2 0x4F5A DUP2 DUP5 PUSH1 0x20 DUP8 ADD PUSH2 0x539C JUMP JUMPDEST SWAP2 SWAP1 SWAP2 ADD SWAP3 SWAP2 POP POP JUMP JUMPDEST PUSH1 0x0 PUSH1 0x40 DUP3 MSTORE PUSH2 0x4F77 PUSH1 0x40 DUP4 ADD DUP6 PUSH2 0x4E8C JUMP JUMPDEST DUP3 DUP2 SUB PUSH1 0x20 DUP5 ADD MSTORE PUSH2 0x4F89 DUP2 DUP6 PUSH2 0x4ECF JUMP JUMPDEST SWAP6 SWAP5 POP POP POP POP POP JUMP JUMPDEST PUSH1 0x0 PUSH2 0x100 DUP1 DUP4 MSTORE PUSH2 0x4FA6 DUP2 DUP5 ADD DUP13 PUSH2 0x4E8C JUMP JUMPDEST SWAP1 POP DUP3 DUP2 SUB PUSH1 0x20 DUP5 ADD MSTORE PUSH2 0x4FBA DUP2 DUP12 PUSH2 0x4ECF JUMP JUMPDEST SWAP1 POP DUP3 DUP2 SUB PUSH1 0x40 DUP5 ADD MSTORE PUSH2 0x4FCE DUP2 DUP11 PUSH2 0x4E8C JUMP JUMPDEST SWAP1 POP DUP3 DUP2 SUB PUSH1 0x60 DUP5 ADD MSTORE PUSH2 0x4FE2 DUP2 DUP10 PUSH2 0x4ECF JUMP JUMPDEST SWAP1 POP DUP7 PUSH1 0x80 DUP5 ADD MSTORE DUP3 DUP2 SUB PUSH1 0xA0 DUP5 ADD MSTORE PUSH2 0x4FFC DUP2 DUP8 PUSH2 0x4ECF JUMP JUMPDEST SWAP1 POP DUP5 PUSH1 0xC0 DUP5 ADD MSTORE DUP3 DUP2 SUB PUSH1 0xE0 DUP5 ADD MSTORE PUSH2 0x32CF DUP2 DUP6 PUSH2 0x4EFE JUMP JUMPDEST PUSH1 0x0 PUSH1 0xE0 DUP3 MSTORE PUSH2 0x5029 PUSH1 0xE0 DUP4 ADD DUP11 PUSH2 0x4E8C JUMP JUMPDEST DUP3 DUP2 SUB PUSH1 0x20 DUP5 ADD MSTORE PUSH2 0x503B DUP2 DUP11 PUSH2 0x4ECF JUMP JUMPDEST SWAP1 POP DUP3 DUP2 SUB PUSH1 0x40 DUP5 ADD MSTORE PUSH2 0x504F DUP2 DUP10 PUSH2 0x4E8C JUMP JUMPDEST SWAP1 POP DUP3 DUP2 SUB PUSH1 0x60 DUP5 ADD MSTORE PUSH2 0x5063 DUP2 DUP9 PUSH2 0x4ECF JUMP JUMPDEST SWAP1 POP DUP6 PUSH1 0x80 DUP5 ADD MSTORE DUP5 PUSH1 0xA0 DUP5 ADD MSTORE DUP3 DUP2 SUB PUSH1 0xC0 DUP5 ADD MSTORE PUSH2 0x5083 DUP2 DUP6 PUSH2 0x4EFE JUMP JUMPDEST SWAP11 SWAP10 POP POP POP POP POP POP POP POP POP POP JUMP JUMPDEST PUSH1 0x0 PUSH1 0x60 DUP3 MSTORE PUSH2 0x50A4 PUSH1 0x60 DUP4 ADD DUP7 PUSH2 0x4E8C JUMP JUMPDEST DUP3 DUP2 SUB PUSH1 0x20 DUP5 ADD MSTORE PUSH2 0x50B6 DUP2 DUP7 PUSH2 0x4ECF JUMP JUMPDEST SWAP1 POP DUP3 DUP2 SUB PUSH1 0x40 DUP5 ADD MSTORE PUSH2 0x50CA DUP2 DUP6 PUSH2 0x4EFE JUMP JUMPDEST SWAP7 SWAP6 POP POP POP POP POP POP JUMP JUMPDEST PUSH1 0x0 PUSH1 0x80 DUP3 MSTORE PUSH2 0x50E7 PUSH1 0x80 DUP4 ADD DUP8 PUSH2 0x4E8C JUMP JUMPDEST DUP3 DUP2 SUB PUSH1 0x20 DUP5 ADD MSTORE PUSH2 0x50F9 DUP2 DUP8 PUSH2 0x4ECF JUMP JUMPDEST SWAP1 POP DUP5 PUSH1 0x40 DUP5 ADD MSTORE DUP3 DUP2 SUB PUSH1 0x60 DUP5 ADD MSTORE PUSH2 0x3CA0 DUP2 DUP6 PUSH2 0x4EFE JUMP JUMPDEST PUSH1 0x0 PUSH1 0x20 DUP3 MSTORE PUSH2 0x1C99 PUSH1 0x20 DUP4 ADD DUP5 PUSH2 0x4EFE JUMP JUMPDEST PUSH1 0x0 PUSH1 0x80 DUP3 MSTORE PUSH2 0x5139 PUSH1 0x80 DUP4 ADD DUP8 PUSH2 0x4EFE JUMP JUMPDEST DUP6 PUSH1 0x20 DUP5 ADD MSTORE DUP3 DUP2 SUB PUSH1 0x40 DUP5 ADD MSTORE PUSH2 0x5151 DUP2 DUP7 PUSH2 0x4EFE JUMP JUMPDEST SWAP1 POP DUP3 DUP2 SUB PUSH1 0x60 DUP5 ADD MSTORE PUSH2 0x3CA0 DUP2 DUP6 PUSH2 0x4EFE JUMP JUMPDEST PUSH1 0x0 DUP4 DUP3 MSTORE PUSH1 0x40 PUSH1 0x20 DUP4 ADD MSTORE PUSH2 0x318D PUSH1 0x40 DUP4 ADD DUP5 PUSH2 0x4EFE JUMP JUMPDEST PUSH1 0x0 DUP5 DUP3 MSTORE DUP4 PUSH1 0x20 DUP4 ADD MSTORE PUSH1 0x60 PUSH1 0x40 DUP4 ADD MSTORE PUSH2 0x4F89 PUSH1 0x60 DUP4 ADD DUP5 PUSH2 0x4EFE JUMP JUMPDEST PUSH1 0x0 DUP7 DUP3 MSTORE DUP6 PUSH1 0x20 DUP4 ADD MSTORE DUP5 PUSH1 0x40 DUP4 ADD MSTORE PUSH1 0x1 PUSH1 0x1 PUSH1 0xA0 SHL SUB DUP5 AND PUSH1 0x60 DUP4 ADD MSTORE PUSH1 0xA0 PUSH1 0x80 DUP4 ADD MSTORE PUSH2 0x3CA0 PUSH1 0xA0 DUP4 ADD DUP5 PUSH2 0x4EFE JUMP JUMPDEST PUSH1 0x0 DUP7 DUP3 MSTORE DUP6 PUSH1 0x20 DUP4 ADD MSTORE DUP5 PUSH1 0x40 DUP4 ADD MSTORE DUP4 PUSH1 0x60 DUP4 ADD MSTORE PUSH1 0xA0 PUSH1 0x80 DUP4 ADD MSTORE PUSH2 0x3CA0 PUSH1 0xA0 DUP4 ADD DUP5 PUSH2 0x4EFE JUMP JUMPDEST PUSH1 0x0 PUSH1 0xFF DUP9 AND DUP3 MSTORE PUSH1 0x1 PUSH1 0x1 PUSH1 0xA0 SHL SUB DUP1 DUP9 AND PUSH1 0x20 DUP5 ADD MSTORE DUP1 DUP8 AND PUSH1 0x40 DUP5 ADD MSTORE POP DUP5 PUSH1 0x60 DUP4 ADD MSTORE DUP4 PUSH1 0x80 DUP4 ADD MSTORE PUSH1 0xC0 PUSH1 0xA0 DUP4 ADD MSTORE PUSH2 0x523D PUSH1 0xC0 DUP4 ADD DUP5 PUSH2 0x4EFE JUMP JUMPDEST SWAP9 SWAP8 POP POP POP POP POP POP POP POP JUMP JUMPDEST PUSH1 0x0 PUSH1 0xFF DUP10 AND DUP3 MSTORE DUP8 PUSH1 0x20 DUP4 ADD MSTORE PUSH1 0x1 PUSH1 0x1 PUSH1 0xA0 SHL SUB DUP1 DUP9 AND PUSH1 0x40 DUP5 ADD MSTORE DUP7 PUSH1 0x60 DUP5 ADD MSTORE DUP6 PUSH1 0x80 DUP5 ADD MSTORE DUP1 DUP6 AND PUSH1 0xA0 DUP5 ADD MSTORE POP PUSH1 0xE0 PUSH1 0xC0 DUP4 ADD MSTORE PUSH2 0x5290 PUSH1 0xE0 DUP4 ADD DUP5 PUSH2 0x4EFE JUMP JUMPDEST SWAP10 SWAP9 POP POP POP POP POP POP POP POP POP JUMP JUMPDEST PUSH1 0x40 MLOAD PUSH1 0x1F DUP3 ADD PUSH32 0xFFFFFFFFFFFFFFFFFFFFFFFFFFFFFFFFFFFFFFFFFFFFFFFFFFFFFFFFFFFFFFE0 AND DUP2 ADD PUSH8 0xFFFFFFFFFFFFFFFF DUP2 GT DUP3 DUP3 LT OR ISZERO PUSH2 0x52E4 JUMPI PUSH2 0x52E4 PUSH2 0x53DE JUMP JUMPDEST PUSH1 0x40 MSTORE SWAP2 SWAP1 POP JUMP JUMPDEST PUSH1 0x0 PUSH8 0xFFFFFFFFFFFFFFFF DUP3 GT ISZERO PUSH2 0x5306 JUMPI PUSH2 0x5306 PUSH2 0x53DE JUMP JUMPDEST POP PUSH1 0x5 SHL PUSH1 0x20 ADD SWAP1 JUMP JUMPDEST PUSH1 0x0 DUP3 NOT DUP3 GT ISZERO PUSH2 0x5323 JUMPI PUSH2 0x5323 PUSH2 0x53C8 JUMP JUMPDEST POP ADD SWAP1 JUMP JUMPDEST PUSH1 0x0 DUP3 PUSH2 0x5343 JUMPI PUSH4 0x4E487B71 PUSH1 0xE0 SHL DUP2 MSTORE PUSH1 0x12 PUSH1 0x4 MSTORE PUSH1 0x24 DUP2 REVERT JUMPDEST POP DIV SWAP1 JUMP JUMPDEST PUSH1 0x0 DUP2 PUSH32 0xFFFFFFFFFFFFFFFFFFFFFFFFFFFFFFFFFFFFFFFFFFFFFFFFFFFFFFFFFFFFFFFF DIV DUP4 GT DUP3 ISZERO ISZERO AND ISZERO PUSH2 0x5380 JUMPI PUSH2 0x5380 PUSH2 0x53C8 JUMP JUMPDEST POP MUL SWAP1 JUMP JUMPDEST PUSH1 0x0 DUP3 DUP3 LT ISZERO PUSH2 0x5397 JUMPI PUSH2 0x5397 PUSH2 0x53C8 JUMP JUMPDEST POP SUB SWAP1 JUMP JUMPDEST PUSH1 0x0 JUMPDEST DUP4 DUP2 LT ISZERO PUSH2 0x53B7 JUMPI DUP2 DUP2 ADD MLOAD DUP4 DUP3 ADD MSTORE PUSH1 0x20 ADD PUSH2 0x539F JUMP JUMPDEST DUP4 DUP2 GT ISZERO PUSH2 0x15EF JUMPI POP POP PUSH1 0x0 SWAP2 ADD MSTORE JUMP JUMPDEST PUSH4 0x4E487B71 PUSH1 0xE0 SHL PUSH1 0x0 MSTORE PUSH1 0x11 PUSH1 0x4 MSTORE PUSH1 0x24 PUSH1 0x0 REVERT JUMPDEST PUSH4 0x4E487B71 PUSH1 0xE0 SHL PUSH1 0x0 MSTORE PUSH1 0x41 PUSH1 0x4 MSTORE PUSH1 0x24 PUSH1 0x0 REVERT JUMPDEST PUSH1 0x1 PUSH1 0x1 PUSH1 0xA0 SHL SUB DUP2 AND DUP2 EQ PUSH2 0x162C JUMPI PUSH1 0x0 DUP1 REVERT JUMPDEST DUP1 ISZERO ISZERO DUP2 EQ PUSH2 0x162C JUMPI PUSH1 0x0 DUP1 REVERT JUMPDEST PUSH1 0x2 DUP2 LT PUSH2 0x162C JUMPI PUSH1 0x0 DUP1 REVERT INVALID LOG2 PUSH5 0x6970667358 0x22 SLT KECCAK256 0xAE 0xBE BALANCE PUSH25 0xF463767E86BFAA581A1CD71612C613330B00BB8D3DF1940874 PUSH4 0x7DEF6473 PUSH16 0x6C634300080300330000000000000000 "},"methodIdentifiers":{"ANY_ADDRESS()":"3f81a192","NAMESPACE()":"44ba1fca","authorize(address,bytes4)":"933f0f3c","bridge(uint8,uint256,address,uint256,uint8,uint256,address,bytes)":"e2a81602","bridgeConnector()":"c56924ba","bridgeFee()":"82b12dd7","call(address,bytes,uint256,bytes)":"cc58002c","claim(address,bytes)":"bb1757cf","collect(address,address,uint256,bytes)":"5af547e6","exit(address,address[],uint256[],uint256,bytes)":"ea8148a6","feeCollector()":"c415b95c","getPrice(address,address)":"ac41865a","getPriceFeed(address,address)":"9f0514ad","initialize(address)":"c4d66de8","investedValue(address)":"543b9235","isAuthorized(address,bytes4)":"d9972b96","isStrategyAllowed(address)":"67c1def9","join(address,address[],uint256[],uint256,bytes)":"1facc5d6","lastValue(address)":"ba03e93f","performanceFee()":"87788782","priceOracle()":"2630c12f","registry()":"7b103999","setBridgeConnector(address)":"c9fd86ac","setBridgeFee(uint256,uint256,address,uint256)":"07223781","setFeeCollector(address)":"a42dce80","setPerformanceFee(uint256,uint256,address,uint256)":"9907dcf6","setPriceFeed(address,address,address)":"67a1d5ab","setPriceFeeds(address[],address[],address[])":"4ed31090","setPriceOracle(address)":"530e784f","setStrategy(address,bool)":"baa82a34","setSwapConnector(address)":"fee415f8","setSwapFee(uint256,uint256,address,uint256)":"6d9a76a9","setWithdrawFee(uint256,uint256,address,uint256)":"eea5c1ea","swap(uint8,address,address,uint256,uint8,uint256,bytes)":"37e0ac02","swapConnector()":"18f51fea","swapFee()":"54cf2aeb","unauthorize(address,bytes4)":"6646a436","unwrap(uint256,bytes)":"b413148e","withdraw(address,uint256,address,bytes)":"9003afee","withdrawFee()":"e941fa78","wrap(uint256,bytes)":"109b3c83","wrappedNativeToken()":"17fcb39b"}}}}}